{"abi":[{"inputs":[],"name":"createDoctor","outputs":[],"stateMutability":"nonpayable","type":"function"},{"inputs":[{"internalType":"string","name":"_name","type":"string"},{"internalType":"uint256","name":"_age","type":"uint256"},{"internalType":"string","name":"_birth","type":"string"},{"internalType":"string","name":"_gender","type":"string"},{"internalType":"string","name":"_phone","type":"string"}],"name":"createPatient","outputs":[],"stateMutability":"nonpayable","type":"function"},{"inputs":[{"internalType":"string","name":"_name","type":"string"},{"internalType":"uint256","name":"_age","type":"uint256"},{"internalType":"string","name":"_gender","type":"string"},{"internalType":"string","name":"_hospital","type":"string"},{"internalType":"string","name":"_hospitalId","type":"string"},{"internalType":"string","name":"_email","type":"string"}],"name":"createProf","outputs":[],"stateMutability":"nonpayable","type":"function"},{"inputs":[{"internalType":"address","name":"","type":"address"}],"name":"doctorsHospitals","outputs":[{"internalType":"address","name":"","type":"address"}],"stateMutability":"view","type":"function"},{"inputs":[{"internalType":"address","name":"doctor","type":"address"}],"name":"getDoctor","outputs":[{"internalType":"address","name":"","type":"address"}],"stateMutability":"view","type":"function"},{"inputs":[{"internalType":"uint256","name":"index","type":"uint256"}],"name":"getMedicalProf","outputs":[{"internalType":"address","name":"","type":"address"}],"stateMutability":"view","type":"function"},{"inputs":[{"internalType":"address","name":"prof","type":"address"}],"name":"getMedicalProf","outputs":[{"internalType":"address","name":"","type":"address"}],"stateMutability":"view","type":"function"},{"inputs":[{"internalType":"address","name":"patient","type":"address"}],"name":"getPatientContract","outputs":[{"internalType":"address","name":"","type":"address"}],"stateMutability":"view","type":"function"},{"inputs":[{"internalType":"address","name":"","type":"address"}],"name":"medicalProf","outputs":[{"internalType":"address","name":"","type":"address"}],"stateMutability":"view","type":"function"},{"inputs":[{"internalType":"address","name":"","type":"address"}],"name":"patientContracts","outputs":[{"internalType":"address","name":"","type":"address"}],"stateMutability":"view","type":"function"},{"inputs":[],"name":"profCount","outputs":[{"internalType":"uint256","name":"","type":"uint256"}],"stateMutability":"view","type":"function"},{"inputs":[{"internalType":"uint256","name":"","type":"uint256"}],"name":"profTracks","outputs":[{"internalType":"address","name":"","type":"address"}],"stateMutability":"view","type":"function"}],"devdoc":{"kind":"dev","methods":{},"version":1},"evm":{"assembly":"    /* \"factoryContract.sol\":64:1822  contract factoryContract{... */\n  mstore(0x40, 0x80)\n  callvalue\n  dup1\n  iszero\n  tag_1\n  jumpi\n  0x00\n  dup1\n  revert\ntag_1:\n  pop\n  dataSize(sub_0)\n  dup1\n  dataOffset(sub_0)\n  0x00\n  codecopy\n  0x00\n  return\nstop\n\nsub_0: assembly {\n        /* \"factoryContract.sol\":64:1822  contract factoryContract{... */\n      mstore(0x40, 0x80)\n      callvalue\n      dup1\n      iszero\n      tag_1\n      jumpi\n      0x00\n      dup1\n      revert\n    tag_1:\n      pop\n      jumpi(tag_2, lt(calldatasize, 0x04))\n      shr(0xe0, calldataload(0x00))\n      dup1\n      0x42c046db\n      gt\n      tag_15\n      jumpi\n      dup1\n      0x42c046db\n      eq\n      tag_9\n      jumpi\n      dup1\n      0x52d703c9\n      eq\n      tag_10\n      jumpi\n      dup1\n      0x653289b9\n      eq\n      tag_11\n      jumpi\n      dup1\n      0xca5e52e7\n      eq\n      tag_12\n      jumpi\n      dup1\n      0xe7ce49a7\n      eq\n      tag_13\n      jumpi\n      dup1\n      0xf97f4772\n      eq\n      tag_14\n      jumpi\n      jump(tag_2)\n    tag_15:\n      dup1\n      0x155eec7d\n      eq\n      tag_3\n      jumpi\n      dup1\n      0x15fe62e6\n      eq\n      tag_4\n      jumpi\n      dup1\n      0x16d07e5c\n      eq\n      tag_5\n      jumpi\n      dup1\n      0x2f04e064\n      eq\n      tag_6\n      jumpi\n      dup1\n      0x35f2b3ea\n      eq\n      tag_7\n      jumpi\n      dup1\n      0x3fd2f1a2\n      eq\n      tag_8\n      jumpi\n    tag_2:\n      0x00\n      dup1\n      revert\n        /* \"factoryContract.sol\":153:202  mapping(address=>address) public doctorsHospitals */\n    tag_3:\n      tag_16\n      0x04\n      dup1\n      calldatasize\n      sub\n      dup2\n      add\n      swap1\n      tag_17\n      swap2\n      swap1\n      tag_18\n      jump\t// in\n    tag_17:\n      tag_19\n      jump\t// in\n    tag_16:\n      mload(0x40)\n      tag_20\n      swap2\n      swap1\n      tag_21\n      jump\t// in\n    tag_20:\n      mload(0x40)\n      dup1\n      swap2\n      sub\n      swap1\n      return\n        /* \"factoryContract.sol\":1317:1437  function getMedicalProf(uint index) public view returns(address){... */\n    tag_4:\n      tag_22\n      0x04\n      dup1\n      calldatasize\n      sub\n      dup2\n      add\n      swap1\n      tag_23\n      swap2\n      swap1\n      tag_24\n      jump\t// in\n    tag_23:\n      tag_25\n      jump\t// in\n    tag_22:\n      mload(0x40)\n      tag_26\n      swap2\n      swap1\n      tag_21\n      jump\t// in\n    tag_26:\n      mload(0x40)\n      dup1\n      swap2\n      sub\n      swap1\n      return\n        /* \"factoryContract.sol\":408:721  function createPatient(string memory _name, uint _age, string memory _birth, string memory _gender,string memory _phone) public{... */\n    tag_5:\n      tag_27\n      0x04\n      dup1\n      calldatasize\n      sub\n      dup2\n      add\n      swap1\n      tag_28\n      swap2\n      swap1\n      tag_29\n      jump\t// in\n    tag_28:\n      tag_30\n      jump\t// in\n    tag_27:\n      stop\n        /* \"factoryContract.sol\":1577:1690  function getDoctor(address doctor) public view returns(address){... */\n    tag_6:\n      tag_31\n      0x04\n      dup1\n      calldatasize\n      sub\n      dup2\n      add\n      swap1\n      tag_32\n      swap2\n      swap1\n      tag_18\n      jump\t// in\n    tag_32:\n      tag_33\n      jump\t// in\n    tag_31:\n      mload(0x40)\n      tag_34\n      swap2\n      swap1\n      tag_21\n      jump\t// in\n    tag_34:\n      mload(0x40)\n      dup1\n      swap2\n      sub\n      swap1\n      return\n        /* \"factoryContract.sol\":1445:1569  function getPatientContract(address patient) public view returns(address){... */\n    tag_7:\n      tag_35\n      0x04\n      dup1\n      calldatasize\n      sub\n      dup2\n      add\n      swap1\n      tag_36\n      swap2\n      swap1\n      tag_18\n      jump\t// in\n    tag_36:\n      tag_37\n      jump\t// in\n    tag_35:\n      mload(0x40)\n      tag_38\n      swap2\n      swap1\n      tag_21\n      jump\t// in\n    tag_38:\n      mload(0x40)\n      dup1\n      swap2\n      sub\n      swap1\n      return\n        /* \"factoryContract.sol\":260:300  mapping(uint=>address) public profTracks */\n    tag_8:\n      tag_39\n      0x04\n      dup1\n      calldatasize\n      sub\n      dup2\n      add\n      swap1\n      tag_40\n      swap2\n      swap1\n      tag_24\n      jump\t// in\n    tag_40:\n      tag_41\n      jump\t// in\n    tag_39:\n      mload(0x40)\n      tag_42\n      swap2\n      swap1\n      tag_21\n      jump\t// in\n    tag_42:\n      mload(0x40)\n      dup1\n      swap2\n      sub\n      swap1\n      return\n        /* \"factoryContract.sol\":1698:1807  function getMedicalProf(address prof) public view returns(address){... */\n    tag_9:\n      tag_43\n      0x04\n      dup1\n      calldatasize\n      sub\n      dup2\n      add\n      swap1\n      tag_44\n      swap2\n      swap1\n      tag_18\n      jump\t// in\n    tag_44:\n      tag_45\n      jump\t// in\n    tag_43:\n      mload(0x40)\n      tag_46\n      swap2\n      swap1\n      tag_21\n      jump\t// in\n    tag_46:\n      mload(0x40)\n      dup1\n      swap2\n      sub\n      swap1\n      return\n        /* \"factoryContract.sol\":729:888  function createDoctor()public {... */\n    tag_10:\n      tag_47\n      tag_48\n      jump\t// in\n    tag_47:\n      stop\n        /* \"factoryContract.sol\":97:146  mapping(address=>address) public patientContracts */\n    tag_11:\n      tag_49\n      0x04\n      dup1\n      calldatasize\n      sub\n      dup2\n      add\n      swap1\n      tag_50\n      swap2\n      swap1\n      tag_18\n      jump\t// in\n    tag_50:\n      tag_51\n      jump\t// in\n    tag_49:\n      mload(0x40)\n      tag_52\n      swap2\n      swap1\n      tag_21\n      jump\t// in\n    tag_52:\n      mload(0x40)\n      dup1\n      swap2\n      sub\n      swap1\n      return\n        /* \"factoryContract.sol\":209:253  mapping(address=>address) public medicalProf */\n    tag_12:\n      tag_53\n      0x04\n      dup1\n      calldatasize\n      sub\n      dup2\n      add\n      swap1\n      tag_54\n      swap2\n      swap1\n      tag_18\n      jump\t// in\n    tag_54:\n      tag_55\n      jump\t// in\n    tag_53:\n      mload(0x40)\n      tag_56\n      swap2\n      swap1\n      tag_21\n      jump\t// in\n    tag_56:\n      mload(0x40)\n      dup1\n      swap2\n      sub\n      swap1\n      return\n        /* \"factoryContract.sol\":309:330  uint public profCount */\n    tag_13:\n      tag_57\n      tag_58\n      jump\t// in\n    tag_57:\n      mload(0x40)\n      tag_59\n      swap2\n      swap1\n      tag_60\n      jump\t// in\n    tag_59:\n      mload(0x40)\n      dup1\n      swap2\n      sub\n      swap1\n      return\n        /* \"factoryContract.sol\":896:1309  function createProf(string memory _name, uint _age, string memory _gender, string memory _hospital,string memory _hospitalId, string memory _email ) public {... */\n    tag_14:\n      tag_61\n      0x04\n      dup1\n      calldatasize\n      sub\n      dup2\n      add\n      swap1\n      tag_62\n      swap2\n      swap1\n      tag_63\n      jump\t// in\n    tag_62:\n      tag_64\n      jump\t// in\n    tag_61:\n      stop\n        /* \"factoryContract.sol\":153:202  mapping(address=>address) public doctorsHospitals */\n    tag_19:\n      mstore(0x20, 0x01)\n      dup1\n      0x00\n      mstore\n      keccak256(0x00, 0x40)\n      0x00\n      swap2\n      pop\n      sload\n      swap1\n      0x0100\n      exp\n      swap1\n      div\n      0xffffffffffffffffffffffffffffffffffffffff\n      and\n      dup2\n      jump\t// out\n        /* \"factoryContract.sol\":1317:1437  function getMedicalProf(uint index) public view returns(address){... */\n    tag_25:\n        /* \"factoryContract.sol\":1373:1380  address */\n      0x00\n        /* \"factoryContract.sol\":1399:1410  medicalProf */\n      0x02\n        /* \"factoryContract.sol\":1399:1429  medicalProf[profTracks[index]] */\n      0x00\n        /* \"factoryContract.sol\":1411:1421  profTracks */\n      0x03\n        /* \"factoryContract.sol\":1411:1428  profTracks[index] */\n      0x00\n        /* \"factoryContract.sol\":1422:1427  index */\n      dup6\n        /* \"factoryContract.sol\":1411:1428  profTracks[index] */\n      dup2\n      mstore\n      0x20\n      add\n      swap1\n      dup2\n      mstore\n      0x20\n      add\n      0x00\n      keccak256\n      0x00\n      swap1\n      sload\n      swap1\n      0x0100\n      exp\n      swap1\n      div\n      0xffffffffffffffffffffffffffffffffffffffff\n      and\n        /* \"factoryContract.sol\":1399:1429  medicalProf[profTracks[index]] */\n      0xffffffffffffffffffffffffffffffffffffffff\n      and\n      0xffffffffffffffffffffffffffffffffffffffff\n      and\n      dup2\n      mstore\n      0x20\n      add\n      swap1\n      dup2\n      mstore\n      0x20\n      add\n      0x00\n      keccak256\n      0x00\n      swap1\n      sload\n      swap1\n      0x0100\n      exp\n      swap1\n      div\n      0xffffffffffffffffffffffffffffffffffffffff\n      and\n        /* \"factoryContract.sol\":1392:1429  return medicalProf[profTracks[index]] */\n      swap1\n      pop\n        /* \"factoryContract.sol\":1317:1437  function getMedicalProf(uint index) public view returns(address){... */\n      swap2\n      swap1\n      pop\n      jump\t// out\n        /* \"factoryContract.sol\":408:721  function createPatient(string memory _name, uint _age, string memory _birth, string memory _gender,string memory _phone) public{... */\n    tag_30:\n        /* \"factoryContract.sol\":546:564  address newPatient */\n      0x00\n        /* \"factoryContract.sol\":595:600  _name */\n      dup6\n        /* \"factoryContract.sol\":602:606  _age */\n      dup6\n        /* \"factoryContract.sol\":608:614  _birth */\n      dup6\n        /* \"factoryContract.sol\":616:623  _gender */\n      dup6\n        /* \"factoryContract.sol\":624:630  _phone */\n      dup6\n        /* \"factoryContract.sol\":631:641  msg.sender */\n      caller\n        /* \"factoryContract.sol\":650:654  this */\n      address\n        /* \"factoryContract.sol\":575:656  new patientContract(_name, _age, _birth, _gender,_phone,msg.sender,address(this)) */\n      mload(0x40)\n      tag_67\n      swap1\n      tag_68\n      jump\t// in\n    tag_67:\n      tag_69\n      swap8\n      swap7\n      swap6\n      swap5\n      swap4\n      swap3\n      swap2\n      swap1\n      tag_70\n      jump\t// in\n    tag_69:\n      mload(0x40)\n      dup1\n      swap2\n      sub\n      swap1\n      0x00\n      create\n      dup1\n      iszero\n      dup1\n      iszero\n      tag_71\n      jumpi\n      returndatasize\n      0x00\n      dup1\n      returndatacopy\n      revert(0x00, returndatasize)\n    tag_71:\n      pop\n        /* \"factoryContract.sol\":546:657  address newPatient = address(new patientContract(_name, _age, _birth, _gender,_phone,msg.sender,address(this))) */\n      swap1\n      pop\n        /* \"factoryContract.sol\":699:709  newPatient */\n      dup1\n        /* \"factoryContract.sol\":668:684  patientContracts */\n      0x00\n        /* \"factoryContract.sol\":668:696  patientContracts[msg.sender] */\n      dup1\n        /* \"factoryContract.sol\":685:695  msg.sender */\n      caller\n        /* \"factoryContract.sol\":668:696  patientContracts[msg.sender] */\n      0xffffffffffffffffffffffffffffffffffffffff\n      and\n      0xffffffffffffffffffffffffffffffffffffffff\n      and\n      dup2\n      mstore\n      0x20\n      add\n      swap1\n      dup2\n      mstore\n      0x20\n      add\n      0x00\n      keccak256\n      0x00\n        /* \"factoryContract.sol\":668:709  patientContracts[msg.sender] = newPatient */\n      0x0100\n      exp\n      dup2\n      sload\n      dup2\n      0xffffffffffffffffffffffffffffffffffffffff\n      mul\n      not\n      and\n      swap1\n      dup4\n      0xffffffffffffffffffffffffffffffffffffffff\n      and\n      mul\n      or\n      swap1\n      sstore\n      pop\n        /* \"factoryContract.sol\":535:721  {... */\n      pop\n        /* \"factoryContract.sol\":408:721  function createPatient(string memory _name, uint _age, string memory _birth, string memory _gender,string memory _phone) public{... */\n      pop\n      pop\n      pop\n      pop\n      pop\n      jump\t// out\n        /* \"factoryContract.sol\":1577:1690  function getDoctor(address doctor) public view returns(address){... */\n    tag_33:\n        /* \"factoryContract.sol\":1632:1639  address */\n      0x00\n        /* \"factoryContract.sol\":1658:1674  doctorsHospitals */\n      0x01\n        /* \"factoryContract.sol\":1658:1682  doctorsHospitals[doctor] */\n      0x00\n        /* \"factoryContract.sol\":1675:1681  doctor */\n      dup4\n        /* \"factoryContract.sol\":1658:1682  doctorsHospitals[doctor] */\n      0xffffffffffffffffffffffffffffffffffffffff\n      and\n      0xffffffffffffffffffffffffffffffffffffffff\n      and\n      dup2\n      mstore\n      0x20\n      add\n      swap1\n      dup2\n      mstore\n      0x20\n      add\n      0x00\n      keccak256\n      0x00\n      swap1\n      sload\n      swap1\n      0x0100\n      exp\n      swap1\n      div\n      0xffffffffffffffffffffffffffffffffffffffff\n      and\n        /* \"factoryContract.sol\":1651:1682  return doctorsHospitals[doctor] */\n      swap1\n      pop\n        /* \"factoryContract.sol\":1577:1690  function getDoctor(address doctor) public view returns(address){... */\n      swap2\n      swap1\n      pop\n      jump\t// out\n        /* \"factoryContract.sol\":1445:1569  function getPatientContract(address patient) public view returns(address){... */\n    tag_37:\n        /* \"factoryContract.sol\":1510:1517  address */\n      0x00\n        /* \"factoryContract.sol\":1536:1552  patientContracts */\n      dup1\n        /* \"factoryContract.sol\":1536:1561  patientContracts[patient] */\n      0x00\n        /* \"factoryContract.sol\":1553:1560  patient */\n      dup4\n        /* \"factoryContract.sol\":1536:1561  patientContracts[patient] */\n      0xffffffffffffffffffffffffffffffffffffffff\n      and\n      0xffffffffffffffffffffffffffffffffffffffff\n      and\n      dup2\n      mstore\n      0x20\n      add\n      swap1\n      dup2\n      mstore\n      0x20\n      add\n      0x00\n      keccak256\n      0x00\n      swap1\n      sload\n      swap1\n      0x0100\n      exp\n      swap1\n      div\n      0xffffffffffffffffffffffffffffffffffffffff\n      and\n        /* \"factoryContract.sol\":1529:1561  return patientContracts[patient] */\n      swap1\n      pop\n        /* \"factoryContract.sol\":1445:1569  function getPatientContract(address patient) public view returns(address){... */\n      swap2\n      swap1\n      pop\n      jump\t// out\n        /* \"factoryContract.sol\":260:300  mapping(uint=>address) public profTracks */\n    tag_41:\n      mstore(0x20, 0x03)\n      dup1\n      0x00\n      mstore\n      keccak256(0x00, 0x40)\n      0x00\n      swap2\n      pop\n      sload\n      swap1\n      0x0100\n      exp\n      swap1\n      div\n      0xffffffffffffffffffffffffffffffffffffffff\n      and\n      dup2\n      jump\t// out\n        /* \"factoryContract.sol\":1698:1807  function getMedicalProf(address prof) public view returns(address){... */\n    tag_45:\n        /* \"factoryContract.sol\":1756:1763  address */\n      0x00\n        /* \"factoryContract.sol\":1782:1793  medicalProf */\n      0x02\n        /* \"factoryContract.sol\":1782:1799  medicalProf[prof] */\n      0x00\n        /* \"factoryContract.sol\":1794:1798  prof */\n      dup4\n        /* \"factoryContract.sol\":1782:1799  medicalProf[prof] */\n      0xffffffffffffffffffffffffffffffffffffffff\n      and\n      0xffffffffffffffffffffffffffffffffffffffff\n      and\n      dup2\n      mstore\n      0x20\n      add\n      swap1\n      dup2\n      mstore\n      0x20\n      add\n      0x00\n      keccak256\n      0x00\n      swap1\n      sload\n      swap1\n      0x0100\n      exp\n      swap1\n      div\n      0xffffffffffffffffffffffffffffffffffffffff\n      and\n        /* \"factoryContract.sol\":1775:1799  return medicalProf[prof] */\n      swap1\n      pop\n        /* \"factoryContract.sol\":1698:1807  function getMedicalProf(address prof) public view returns(address){... */\n      swap2\n      swap1\n      pop\n      jump\t// out\n        /* \"factoryContract.sol\":729:888  function createDoctor()public {... */\n    tag_48:\n        /* \"factoryContract.sol\":770:787  address newDoctor */\n      0x00\n        /* \"factoryContract.sol\":817:827  msg.sender */\n      caller\n        /* \"factoryContract.sol\":798:828  new doctorContract(msg.sender) */\n      mload(0x40)\n      tag_76\n      swap1\n      tag_77\n      jump\t// in\n    tag_76:\n      tag_78\n      swap2\n      swap1\n      tag_21\n      jump\t// in\n    tag_78:\n      mload(0x40)\n      dup1\n      swap2\n      sub\n      swap1\n      0x00\n      create\n      dup1\n      iszero\n      dup1\n      iszero\n      tag_79\n      jumpi\n      returndatasize\n      0x00\n      dup1\n      returndatacopy\n      revert(0x00, returndatasize)\n    tag_79:\n      pop\n        /* \"factoryContract.sol\":770:829  address newDoctor = address(new doctorContract(msg.sender)) */\n      swap1\n      pop\n        /* \"factoryContract.sol\":871:880  newDoctor */\n      dup1\n        /* \"factoryContract.sol\":840:856  doctorsHospitals */\n      0x01\n        /* \"factoryContract.sol\":840:868  doctorsHospitals[msg.sender] */\n      0x00\n        /* \"factoryContract.sol\":857:867  msg.sender */\n      caller\n        /* \"factoryContract.sol\":840:868  doctorsHospitals[msg.sender] */\n      0xffffffffffffffffffffffffffffffffffffffff\n      and\n      0xffffffffffffffffffffffffffffffffffffffff\n      and\n      dup2\n      mstore\n      0x20\n      add\n      swap1\n      dup2\n      mstore\n      0x20\n      add\n      0x00\n      keccak256\n      0x00\n        /* \"factoryContract.sol\":840:880  doctorsHospitals[msg.sender] = newDoctor */\n      0x0100\n      exp\n      dup2\n      sload\n      dup2\n      0xffffffffffffffffffffffffffffffffffffffff\n      mul\n      not\n      and\n      swap1\n      dup4\n      0xffffffffffffffffffffffffffffffffffffffff\n      and\n      mul\n      or\n      swap1\n      sstore\n      pop\n        /* \"factoryContract.sol\":759:888  {... */\n      pop\n        /* \"factoryContract.sol\":729:888  function createDoctor()public {... */\n      jump\t// out\n        /* \"factoryContract.sol\":97:146  mapping(address=>address) public patientContracts */\n    tag_51:\n      mstore(0x20, 0x00)\n      dup1\n      0x00\n      mstore\n      keccak256(0x00, 0x40)\n      0x00\n      swap2\n      pop\n      sload\n      swap1\n      0x0100\n      exp\n      swap1\n      div\n      0xffffffffffffffffffffffffffffffffffffffff\n      and\n      dup2\n      jump\t// out\n        /* \"factoryContract.sol\":209:253  mapping(address=>address) public medicalProf */\n    tag_55:\n      mstore(0x20, 0x02)\n      dup1\n      0x00\n      mstore\n      keccak256(0x00, 0x40)\n      0x00\n      swap2\n      pop\n      sload\n      swap1\n      0x0100\n      exp\n      swap1\n      div\n      0xffffffffffffffffffffffffffffffffffffffff\n      and\n      dup2\n      jump\t// out\n        /* \"factoryContract.sol\":309:330  uint public profCount */\n    tag_58:\n      sload(0x04)\n      dup2\n      jump\t// out\n        /* \"factoryContract.sol\":896:1309  function createProf(string memory _name, uint _age, string memory _gender, string memory _hospital,string memory _hospitalId, string memory _email ) public {... */\n    tag_64:\n        /* \"factoryContract.sol\":1063:1078  address newProf */\n      0x00\n        /* \"factoryContract.sol\":1121:1125  this */\n      address\n        /* \"factoryContract.sol\":1127:1137  msg.sender */\n      caller\n        /* \"factoryContract.sol\":1138:1143  _name */\n      dup9\n        /* \"factoryContract.sol\":1144:1148  _age */\n      dup9\n        /* \"factoryContract.sol\":1149:1156  _gender */\n      dup9\n        /* \"factoryContract.sol\":1157:1166  _hospital */\n      dup9\n        /* \"factoryContract.sol\":1167:1178  _hospitalId */\n      dup9\n        /* \"factoryContract.sol\":1179:1185  _email */\n      dup9\n        /* \"factoryContract.sol\":1089:1186  new medicalProfContract(address(this),msg.sender,_name,_age,_gender,_hospital,_hospitalId,_email) */\n      mload(0x40)\n      tag_81\n      swap1\n      tag_82\n      jump\t// in\n    tag_81:\n      tag_83\n      swap9\n      swap8\n      swap7\n      swap6\n      swap5\n      swap4\n      swap3\n      swap2\n      swap1\n      tag_84\n      jump\t// in\n    tag_83:\n      mload(0x40)\n      dup1\n      swap2\n      sub\n      swap1\n      0x00\n      create\n      dup1\n      iszero\n      dup1\n      iszero\n      tag_85\n      jumpi\n      returndatasize\n      0x00\n      dup1\n      returndatacopy\n      revert(0x00, returndatasize)\n    tag_85:\n      pop\n        /* \"factoryContract.sol\":1063:1187  address newProf=  address(new medicalProfContract(address(this),msg.sender,_name,_age,_gender,_hospital,_hospitalId,_email)) */\n      swap1\n      pop\n        /* \"factoryContract.sol\":1224:1231  newProf */\n      dup1\n        /* \"factoryContract.sol\":1198:1209  medicalProf */\n      0x02\n        /* \"factoryContract.sol\":1198:1221  medicalProf[msg.sender] */\n      0x00\n        /* \"factoryContract.sol\":1210:1220  msg.sender */\n      caller\n        /* \"factoryContract.sol\":1198:1221  medicalProf[msg.sender] */\n      0xffffffffffffffffffffffffffffffffffffffff\n      and\n      0xffffffffffffffffffffffffffffffffffffffff\n      and\n      dup2\n      mstore\n      0x20\n      add\n      swap1\n      dup2\n      mstore\n      0x20\n      add\n      0x00\n      keccak256\n      0x00\n        /* \"factoryContract.sol\":1198:1231  medicalProf[msg.sender] = newProf */\n      0x0100\n      exp\n      dup2\n      sload\n      dup2\n      0xffffffffffffffffffffffffffffffffffffffff\n      mul\n      not\n      and\n      swap1\n      dup4\n      0xffffffffffffffffffffffffffffffffffffffff\n      and\n      mul\n      or\n      swap1\n      sstore\n      pop\n        /* \"factoryContract.sol\":1266:1276  msg.sender */\n      caller\n        /* \"factoryContract.sol\":1242:1252  profTracks */\n      0x03\n        /* \"factoryContract.sol\":1242:1263  profTracks[profCount] */\n      0x00\n        /* \"factoryContract.sol\":1253:1262  profCount */\n      sload(0x04)\n        /* \"factoryContract.sol\":1242:1263  profTracks[profCount] */\n      dup2\n      mstore\n      0x20\n      add\n      swap1\n      dup2\n      mstore\n      0x20\n      add\n      0x00\n      keccak256\n      0x00\n        /* \"factoryContract.sol\":1242:1276  profTracks[profCount] = msg.sender */\n      0x0100\n      exp\n      dup2\n      sload\n      dup2\n      0xffffffffffffffffffffffffffffffffffffffff\n      mul\n      not\n      and\n      swap1\n      dup4\n      0xffffffffffffffffffffffffffffffffffffffff\n      and\n      mul\n      or\n      swap1\n      sstore\n      pop\n        /* \"factoryContract.sol\":1298:1299  1 */\n      0x01\n        /* \"factoryContract.sol\":1287:1296  profCount */\n      0x04\n      0x00\n        /* \"factoryContract.sol\":1287:1299  profCount+=1 */\n      dup3\n      dup3\n      sload\n      tag_86\n      swap2\n      swap1\n      tag_87\n      jump\t// in\n    tag_86:\n      swap3\n      pop\n      pop\n      dup2\n      swap1\n      sstore\n      pop\n        /* \"factoryContract.sol\":1052:1309  {... */\n      pop\n        /* \"factoryContract.sol\":896:1309  function createProf(string memory _name, uint _age, string memory _gender, string memory _hospital,string memory _hospitalId, string memory _email ) public {... */\n      pop\n      pop\n      pop\n      pop\n      pop\n      pop\n      jump\t// out\n    tag_68:\n      dataSize(sub_0)\n      dup1\n      dataOffset(sub_0)\n      dup4\n      codecopy\n      add\n      swap1\n      jump\t// out\n    tag_77:\n      dataSize(sub_1)\n      dup1\n      dataOffset(sub_1)\n      dup4\n      codecopy\n      add\n      swap1\n      jump\t// out\n    tag_82:\n      dataSize(sub_2)\n      dup1\n      dataOffset(sub_2)\n      dup4\n      codecopy\n      add\n      swap1\n      jump\t// out\n        /* \"#utility.yul\":7:82   */\n    tag_88:\n        /* \"#utility.yul\":40:46   */\n      0x00\n        /* \"#utility.yul\":73:75   */\n      0x40\n        /* \"#utility.yul\":67:76   */\n      mload\n        /* \"#utility.yul\":57:76   */\n      swap1\n      pop\n        /* \"#utility.yul\":7:82   */\n      swap1\n      jump\t// out\n        /* \"#utility.yul\":88:205   */\n    tag_89:\n        /* \"#utility.yul\":197:198   */\n      0x00\n        /* \"#utility.yul\":194:195   */\n      dup1\n        /* \"#utility.yul\":187:199   */\n      revert\n        /* \"#utility.yul\":211:328   */\n    tag_90:\n        /* \"#utility.yul\":320:321   */\n      0x00\n        /* \"#utility.yul\":317:318   */\n      dup1\n        /* \"#utility.yul\":310:322   */\n      revert\n        /* \"#utility.yul\":334:460   */\n    tag_91:\n        /* \"#utility.yul\":371:378   */\n      0x00\n        /* \"#utility.yul\":411:453   */\n      0xffffffffffffffffffffffffffffffffffffffff\n        /* \"#utility.yul\":404:409   */\n      dup3\n        /* \"#utility.yul\":400:454   */\n      and\n        /* \"#utility.yul\":389:454   */\n      swap1\n      pop\n        /* \"#utility.yul\":334:460   */\n      swap2\n      swap1\n      pop\n      jump\t// out\n        /* \"#utility.yul\":466:562   */\n    tag_92:\n        /* \"#utility.yul\":503:510   */\n      0x00\n        /* \"#utility.yul\":532:556   */\n      tag_121\n        /* \"#utility.yul\":550:555   */\n      dup3\n        /* \"#utility.yul\":532:556   */\n      tag_91\n      jump\t// in\n    tag_121:\n        /* \"#utility.yul\":521:556   */\n      swap1\n      pop\n        /* \"#utility.yul\":466:562   */\n      swap2\n      swap1\n      pop\n      jump\t// out\n        /* \"#utility.yul\":568:690   */\n    tag_93:\n        /* \"#utility.yul\":641:665   */\n      tag_123\n        /* \"#utility.yul\":659:664   */\n      dup2\n        /* \"#utility.yul\":641:665   */\n      tag_92\n      jump\t// in\n    tag_123:\n        /* \"#utility.yul\":634:639   */\n      dup2\n        /* \"#utility.yul\":631:666   */\n      eq\n        /* \"#utility.yul\":621:684   */\n      tag_124\n      jumpi\n        /* \"#utility.yul\":680:681   */\n      0x00\n        /* \"#utility.yul\":677:678   */\n      dup1\n        /* \"#utility.yul\":670:682   */\n      revert\n        /* \"#utility.yul\":621:684   */\n    tag_124:\n        /* \"#utility.yul\":568:690   */\n      pop\n      jump\t// out\n        /* \"#utility.yul\":696:835   */\n    tag_94:\n        /* \"#utility.yul\":742:747   */\n      0x00\n        /* \"#utility.yul\":780:786   */\n      dup2\n        /* \"#utility.yul\":767:787   */\n      calldataload\n        /* \"#utility.yul\":758:787   */\n      swap1\n      pop\n        /* \"#utility.yul\":796:829   */\n      tag_126\n        /* \"#utility.yul\":823:828   */\n      dup2\n        /* \"#utility.yul\":796:829   */\n      tag_93\n      jump\t// in\n    tag_126:\n        /* \"#utility.yul\":696:835   */\n      swap3\n      swap2\n      pop\n      pop\n      jump\t// out\n        /* \"#utility.yul\":841:1170   */\n    tag_18:\n        /* \"#utility.yul\":900:906   */\n      0x00\n        /* \"#utility.yul\":949:951   */\n      0x20\n        /* \"#utility.yul\":937:946   */\n      dup3\n        /* \"#utility.yul\":928:935   */\n      dup5\n        /* \"#utility.yul\":924:947   */\n      sub\n        /* \"#utility.yul\":920:952   */\n      slt\n        /* \"#utility.yul\":917:1036   */\n      iszero\n      tag_128\n      jumpi\n        /* \"#utility.yul\":955:1034   */\n      tag_129\n      tag_89\n      jump\t// in\n    tag_129:\n        /* \"#utility.yul\":917:1036   */\n    tag_128:\n        /* \"#utility.yul\":1075:1076   */\n      0x00\n        /* \"#utility.yul\":1100:1153   */\n      tag_130\n        /* \"#utility.yul\":1145:1152   */\n      dup5\n        /* \"#utility.yul\":1136:1142   */\n      dup3\n        /* \"#utility.yul\":1125:1134   */\n      dup6\n        /* \"#utility.yul\":1121:1143   */\n      add\n        /* \"#utility.yul\":1100:1153   */\n      tag_94\n      jump\t// in\n    tag_130:\n        /* \"#utility.yul\":1090:1153   */\n      swap2\n      pop\n        /* \"#utility.yul\":1046:1163   */\n      pop\n        /* \"#utility.yul\":841:1170   */\n      swap3\n      swap2\n      pop\n      pop\n      jump\t// out\n        /* \"#utility.yul\":1176:1294   */\n    tag_95:\n        /* \"#utility.yul\":1263:1287   */\n      tag_132\n        /* \"#utility.yul\":1281:1286   */\n      dup2\n        /* \"#utility.yul\":1263:1287   */\n      tag_92\n      jump\t// in\n    tag_132:\n        /* \"#utility.yul\":1258:1261   */\n      dup3\n        /* \"#utility.yul\":1251:1288   */\n      mstore\n        /* \"#utility.yul\":1176:1294   */\n      pop\n      pop\n      jump\t// out\n        /* \"#utility.yul\":1300:1522   */\n    tag_21:\n        /* \"#utility.yul\":1393:1397   */\n      0x00\n        /* \"#utility.yul\":1431:1433   */\n      0x20\n        /* \"#utility.yul\":1420:1429   */\n      dup3\n        /* \"#utility.yul\":1416:1434   */\n      add\n        /* \"#utility.yul\":1408:1434   */\n      swap1\n      pop\n        /* \"#utility.yul\":1444:1515   */\n      tag_134\n        /* \"#utility.yul\":1512:1513   */\n      0x00\n        /* \"#utility.yul\":1501:1510   */\n      dup4\n        /* \"#utility.yul\":1497:1514   */\n      add\n        /* \"#utility.yul\":1488:1494   */\n      dup5\n        /* \"#utility.yul\":1444:1515   */\n      tag_95\n      jump\t// in\n    tag_134:\n        /* \"#utility.yul\":1300:1522   */\n      swap3\n      swap2\n      pop\n      pop\n      jump\t// out\n        /* \"#utility.yul\":1528:1605   */\n    tag_96:\n        /* \"#utility.yul\":1565:1572   */\n      0x00\n        /* \"#utility.yul\":1594:1599   */\n      dup2\n        /* \"#utility.yul\":1583:1599   */\n      swap1\n      pop\n        /* \"#utility.yul\":1528:1605   */\n      swap2\n      swap1\n      pop\n      jump\t// out\n        /* \"#utility.yul\":1611:1733   */\n    tag_97:\n        /* \"#utility.yul\":1684:1708   */\n      tag_137\n        /* \"#utility.yul\":1702:1707   */\n      dup2\n        /* \"#utility.yul\":1684:1708   */\n      tag_96\n      jump\t// in\n    tag_137:\n        /* \"#utility.yul\":1677:1682   */\n      dup2\n        /* \"#utility.yul\":1674:1709   */\n      eq\n        /* \"#utility.yul\":1664:1727   */\n      tag_138\n      jumpi\n        /* \"#utility.yul\":1723:1724   */\n      0x00\n        /* \"#utility.yul\":1720:1721   */\n      dup1\n        /* \"#utility.yul\":1713:1725   */\n      revert\n        /* \"#utility.yul\":1664:1727   */\n    tag_138:\n        /* \"#utility.yul\":1611:1733   */\n      pop\n      jump\t// out\n        /* \"#utility.yul\":1739:1878   */\n    tag_98:\n        /* \"#utility.yul\":1785:1790   */\n      0x00\n        /* \"#utility.yul\":1823:1829   */\n      dup2\n        /* \"#utility.yul\":1810:1830   */\n      calldataload\n        /* \"#utility.yul\":1801:1830   */\n      swap1\n      pop\n        /* \"#utility.yul\":1839:1872   */\n      tag_140\n        /* \"#utility.yul\":1866:1871   */\n      dup2\n        /* \"#utility.yul\":1839:1872   */\n      tag_97\n      jump\t// in\n    tag_140:\n        /* \"#utility.yul\":1739:1878   */\n      swap3\n      swap2\n      pop\n      pop\n      jump\t// out\n        /* \"#utility.yul\":1884:2213   */\n    tag_24:\n        /* \"#utility.yul\":1943:1949   */\n      0x00\n        /* \"#utility.yul\":1992:1994   */\n      0x20\n        /* \"#utility.yul\":1980:1989   */\n      dup3\n        /* \"#utility.yul\":1971:1978   */\n      dup5\n        /* \"#utility.yul\":1967:1990   */\n      sub\n        /* \"#utility.yul\":1963:1995   */\n      slt\n        /* \"#utility.yul\":1960:2079   */\n      iszero\n      tag_142\n      jumpi\n        /* \"#utility.yul\":1998:2077   */\n      tag_143\n      tag_89\n      jump\t// in\n    tag_143:\n        /* \"#utility.yul\":1960:2079   */\n    tag_142:\n        /* \"#utility.yul\":2118:2119   */\n      0x00\n        /* \"#utility.yul\":2143:2196   */\n      tag_144\n        /* \"#utility.yul\":2188:2195   */\n      dup5\n        /* \"#utility.yul\":2179:2185   */\n      dup3\n        /* \"#utility.yul\":2168:2177   */\n      dup6\n        /* \"#utility.yul\":2164:2186   */\n      add\n        /* \"#utility.yul\":2143:2196   */\n      tag_98\n      jump\t// in\n    tag_144:\n        /* \"#utility.yul\":2133:2196   */\n      swap2\n      pop\n        /* \"#utility.yul\":2089:2206   */\n      pop\n        /* \"#utility.yul\":1884:2213   */\n      swap3\n      swap2\n      pop\n      pop\n      jump\t// out\n        /* \"#utility.yul\":2219:2336   */\n    tag_99:\n        /* \"#utility.yul\":2328:2329   */\n      0x00\n        /* \"#utility.yul\":2325:2326   */\n      dup1\n        /* \"#utility.yul\":2318:2330   */\n      revert\n        /* \"#utility.yul\":2342:2459   */\n    tag_100:\n        /* \"#utility.yul\":2451:2452   */\n      0x00\n        /* \"#utility.yul\":2448:2449   */\n      dup1\n        /* \"#utility.yul\":2441:2453   */\n      revert\n        /* \"#utility.yul\":2465:2567   */\n    tag_101:\n        /* \"#utility.yul\":2506:2512   */\n      0x00\n        /* \"#utility.yul\":2557:2559   */\n      0x1f\n        /* \"#utility.yul\":2553:2560   */\n      not\n        /* \"#utility.yul\":2548:2550   */\n      0x1f\n        /* \"#utility.yul\":2541:2546   */\n      dup4\n        /* \"#utility.yul\":2537:2551   */\n      add\n        /* \"#utility.yul\":2533:2561   */\n      and\n        /* \"#utility.yul\":2523:2561   */\n      swap1\n      pop\n        /* \"#utility.yul\":2465:2567   */\n      swap2\n      swap1\n      pop\n      jump\t// out\n        /* \"#utility.yul\":2573:2753   */\n    tag_102:\n        /* \"#utility.yul\":2621:2698   */\n      0x4e487b7100000000000000000000000000000000000000000000000000000000\n        /* \"#utility.yul\":2618:2619   */\n      0x00\n        /* \"#utility.yul\":2611:2699   */\n      mstore\n        /* \"#utility.yul\":2718:2722   */\n      0x41\n        /* \"#utility.yul\":2715:2716   */\n      0x04\n        /* \"#utility.yul\":2708:2723   */\n      mstore\n        /* \"#utility.yul\":2742:2746   */\n      0x24\n        /* \"#utility.yul\":2739:2740   */\n      0x00\n        /* \"#utility.yul\":2732:2747   */\n      revert\n        /* \"#utility.yul\":2759:3040   */\n    tag_103:\n        /* \"#utility.yul\":2842:2869   */\n      tag_150\n        /* \"#utility.yul\":2864:2868   */\n      dup3\n        /* \"#utility.yul\":2842:2869   */\n      tag_101\n      jump\t// in\n    tag_150:\n        /* \"#utility.yul\":2834:2840   */\n      dup2\n        /* \"#utility.yul\":2830:2870   */\n      add\n        /* \"#utility.yul\":2972:2978   */\n      dup2\n        /* \"#utility.yul\":2960:2970   */\n      dup2\n        /* \"#utility.yul\":2957:2979   */\n      lt\n        /* \"#utility.yul\":2936:2954   */\n      0xffffffffffffffff\n        /* \"#utility.yul\":2924:2934   */\n      dup3\n        /* \"#utility.yul\":2921:2955   */\n      gt\n        /* \"#utility.yul\":2918:2980   */\n      or\n        /* \"#utility.yul\":2915:3003   */\n      iszero\n      tag_151\n      jumpi\n        /* \"#utility.yul\":2983:3001   */\n      tag_152\n      tag_102\n      jump\t// in\n    tag_152:\n        /* \"#utility.yul\":2915:3003   */\n    tag_151:\n        /* \"#utility.yul\":3023:3033   */\n      dup1\n        /* \"#utility.yul\":3019:3021   */\n      0x40\n        /* \"#utility.yul\":3012:3034   */\n      mstore\n        /* \"#utility.yul\":2802:3040   */\n      pop\n        /* \"#utility.yul\":2759:3040   */\n      pop\n      pop\n      jump\t// out\n        /* \"#utility.yul\":3046:3175   */\n    tag_104:\n        /* \"#utility.yul\":3080:3086   */\n      0x00\n        /* \"#utility.yul\":3107:3127   */\n      tag_154\n      tag_88\n      jump\t// in\n    tag_154:\n        /* \"#utility.yul\":3097:3127   */\n      swap1\n      pop\n        /* \"#utility.yul\":3136:3169   */\n      tag_155\n        /* \"#utility.yul\":3164:3168   */\n      dup3\n        /* \"#utility.yul\":3156:3162   */\n      dup3\n        /* \"#utility.yul\":3136:3169   */\n      tag_103\n      jump\t// in\n    tag_155:\n        /* \"#utility.yul\":3046:3175   */\n      swap2\n      swap1\n      pop\n      jump\t// out\n        /* \"#utility.yul\":3181:3489   */\n    tag_105:\n        /* \"#utility.yul\":3243:3247   */\n      0x00\n        /* \"#utility.yul\":3333:3351   */\n      0xffffffffffffffff\n        /* \"#utility.yul\":3325:3331   */\n      dup3\n        /* \"#utility.yul\":3322:3352   */\n      gt\n        /* \"#utility.yul\":3319:3375   */\n      iszero\n      tag_157\n      jumpi\n        /* \"#utility.yul\":3355:3373   */\n      tag_158\n      tag_102\n      jump\t// in\n    tag_158:\n        /* \"#utility.yul\":3319:3375   */\n    tag_157:\n        /* \"#utility.yul\":3393:3422   */\n      tag_159\n        /* \"#utility.yul\":3415:3421   */\n      dup3\n        /* \"#utility.yul\":3393:3422   */\n      tag_101\n      jump\t// in\n    tag_159:\n        /* \"#utility.yul\":3385:3422   */\n      swap1\n      pop\n        /* \"#utility.yul\":3477:3481   */\n      0x20\n        /* \"#utility.yul\":3471:3475   */\n      dup2\n        /* \"#utility.yul\":3467:3482   */\n      add\n        /* \"#utility.yul\":3459:3482   */\n      swap1\n      pop\n        /* \"#utility.yul\":3181:3489   */\n      swap2\n      swap1\n      pop\n      jump\t// out\n        /* \"#utility.yul\":3495:3649   */\n    tag_106:\n        /* \"#utility.yul\":3579:3585   */\n      dup3\n        /* \"#utility.yul\":3574:3577   */\n      dup2\n        /* \"#utility.yul\":3569:3572   */\n      dup4\n        /* \"#utility.yul\":3556:3586   */\n      calldatacopy\n        /* \"#utility.yul\":3641:3642   */\n      0x00\n        /* \"#utility.yul\":3632:3638   */\n      dup4\n        /* \"#utility.yul\":3627:3630   */\n      dup4\n        /* \"#utility.yul\":3623:3639   */\n      add\n        /* \"#utility.yul\":3616:3643   */\n      mstore\n        /* \"#utility.yul\":3495:3649   */\n      pop\n      pop\n      pop\n      jump\t// out\n        /* \"#utility.yul\":3655:4067   */\n    tag_107:\n        /* \"#utility.yul\":3733:3738   */\n      0x00\n        /* \"#utility.yul\":3758:3824   */\n      tag_162\n        /* \"#utility.yul\":3774:3823   */\n      tag_163\n        /* \"#utility.yul\":3816:3822   */\n      dup5\n        /* \"#utility.yul\":3774:3823   */\n      tag_105\n      jump\t// in\n    tag_163:\n        /* \"#utility.yul\":3758:3824   */\n      tag_104\n      jump\t// in\n    tag_162:\n        /* \"#utility.yul\":3749:3824   */\n      swap1\n      pop\n        /* \"#utility.yul\":3847:3853   */\n      dup3\n        /* \"#utility.yul\":3840:3845   */\n      dup2\n        /* \"#utility.yul\":3833:3854   */\n      mstore\n        /* \"#utility.yul\":3885:3889   */\n      0x20\n        /* \"#utility.yul\":3878:3883   */\n      dup2\n        /* \"#utility.yul\":3874:3890   */\n      add\n        /* \"#utility.yul\":3923:3926   */\n      dup5\n        /* \"#utility.yul\":3914:3920   */\n      dup5\n        /* \"#utility.yul\":3909:3912   */\n      dup5\n        /* \"#utility.yul\":3905:3921   */\n      add\n        /* \"#utility.yul\":3902:3927   */\n      gt\n        /* \"#utility.yul\":3899:4011   */\n      iszero\n      tag_164\n      jumpi\n        /* \"#utility.yul\":3930:4009   */\n      tag_165\n      tag_100\n      jump\t// in\n    tag_165:\n        /* \"#utility.yul\":3899:4011   */\n    tag_164:\n        /* \"#utility.yul\":4020:4061   */\n      tag_166\n        /* \"#utility.yul\":4054:4060   */\n      dup5\n        /* \"#utility.yul\":4049:4052   */\n      dup3\n        /* \"#utility.yul\":4044:4047   */\n      dup6\n        /* \"#utility.yul\":4020:4061   */\n      tag_106\n      jump\t// in\n    tag_166:\n        /* \"#utility.yul\":3739:4067   */\n      pop\n        /* \"#utility.yul\":3655:4067   */\n      swap4\n      swap3\n      pop\n      pop\n      pop\n      jump\t// out\n        /* \"#utility.yul\":4087:4427   */\n    tag_108:\n        /* \"#utility.yul\":4143:4148   */\n      0x00\n        /* \"#utility.yul\":4192:4195   */\n      dup3\n        /* \"#utility.yul\":4185:4189   */\n      0x1f\n        /* \"#utility.yul\":4177:4183   */\n      dup4\n        /* \"#utility.yul\":4173:4190   */\n      add\n        /* \"#utility.yul\":4169:4196   */\n      slt\n        /* \"#utility.yul\":4159:4281   */\n      tag_168\n      jumpi\n        /* \"#utility.yul\":4200:4279   */\n      tag_169\n      tag_99\n      jump\t// in\n    tag_169:\n        /* \"#utility.yul\":4159:4281   */\n    tag_168:\n        /* \"#utility.yul\":4317:4323   */\n      dup2\n        /* \"#utility.yul\":4304:4324   */\n      calldataload\n        /* \"#utility.yul\":4342:4421   */\n      tag_170\n        /* \"#utility.yul\":4417:4420   */\n      dup5\n        /* \"#utility.yul\":4409:4415   */\n      dup3\n        /* \"#utility.yul\":4402:4406   */\n      0x20\n        /* \"#utility.yul\":4394:4400   */\n      dup7\n        /* \"#utility.yul\":4390:4407   */\n      add\n        /* \"#utility.yul\":4342:4421   */\n      tag_107\n      jump\t// in\n    tag_170:\n        /* \"#utility.yul\":4333:4421   */\n      swap2\n      pop\n        /* \"#utility.yul\":4149:4427   */\n      pop\n        /* \"#utility.yul\":4087:4427   */\n      swap3\n      swap2\n      pop\n      pop\n      jump\t// out\n        /* \"#utility.yul\":4433:6064   */\n    tag_29:\n        /* \"#utility.yul\":4568:4574   */\n      0x00\n        /* \"#utility.yul\":4576:4582   */\n      dup1\n        /* \"#utility.yul\":4584:4590   */\n      0x00\n        /* \"#utility.yul\":4592:4598   */\n      dup1\n        /* \"#utility.yul\":4600:4606   */\n      0x00\n        /* \"#utility.yul\":4649:4652   */\n      0xa0\n        /* \"#utility.yul\":4637:4646   */\n      dup7\n        /* \"#utility.yul\":4628:4635   */\n      dup9\n        /* \"#utility.yul\":4624:4647   */\n      sub\n        /* \"#utility.yul\":4620:4653   */\n      slt\n        /* \"#utility.yul\":4617:4737   */\n      iszero\n      tag_172\n      jumpi\n        /* \"#utility.yul\":4656:4735   */\n      tag_173\n      tag_89\n      jump\t// in\n    tag_173:\n        /* \"#utility.yul\":4617:4737   */\n    tag_172:\n        /* \"#utility.yul\":4804:4805   */\n      0x00\n        /* \"#utility.yul\":4793:4802   */\n      dup7\n        /* \"#utility.yul\":4789:4806   */\n      add\n        /* \"#utility.yul\":4776:4807   */\n      calldataload\n        /* \"#utility.yul\":4834:4852   */\n      0xffffffffffffffff\n        /* \"#utility.yul\":4826:4832   */\n      dup2\n        /* \"#utility.yul\":4823:4853   */\n      gt\n        /* \"#utility.yul\":4820:4937   */\n      iszero\n      tag_174\n      jumpi\n        /* \"#utility.yul\":4856:4935   */\n      tag_175\n      tag_90\n      jump\t// in\n    tag_175:\n        /* \"#utility.yul\":4820:4937   */\n    tag_174:\n        /* \"#utility.yul\":4961:5024   */\n      tag_176\n        /* \"#utility.yul\":5016:5023   */\n      dup9\n        /* \"#utility.yul\":5007:5013   */\n      dup3\n        /* \"#utility.yul\":4996:5005   */\n      dup10\n        /* \"#utility.yul\":4992:5014   */\n      add\n        /* \"#utility.yul\":4961:5024   */\n      tag_108\n      jump\t// in\n    tag_176:\n        /* \"#utility.yul\":4951:5024   */\n      swap6\n      pop\n        /* \"#utility.yul\":4747:5034   */\n      pop\n        /* \"#utility.yul\":5073:5075   */\n      0x20\n        /* \"#utility.yul\":5099:5152   */\n      tag_177\n        /* \"#utility.yul\":5144:5151   */\n      dup9\n        /* \"#utility.yul\":5135:5141   */\n      dup3\n        /* \"#utility.yul\":5124:5133   */\n      dup10\n        /* \"#utility.yul\":5120:5142   */\n      add\n        /* \"#utility.yul\":5099:5152   */\n      tag_98\n      jump\t// in\n    tag_177:\n        /* \"#utility.yul\":5089:5152   */\n      swap5\n      pop\n        /* \"#utility.yul\":5044:5162   */\n      pop\n        /* \"#utility.yul\":5229:5231   */\n      0x40\n        /* \"#utility.yul\":5218:5227   */\n      dup7\n        /* \"#utility.yul\":5214:5232   */\n      add\n        /* \"#utility.yul\":5201:5233   */\n      calldataload\n        /* \"#utility.yul\":5260:5278   */\n      0xffffffffffffffff\n        /* \"#utility.yul\":5252:5258   */\n      dup2\n        /* \"#utility.yul\":5249:5279   */\n      gt\n        /* \"#utility.yul\":5246:5363   */\n      iszero\n      tag_178\n      jumpi\n        /* \"#utility.yul\":5282:5361   */\n      tag_179\n      tag_90\n      jump\t// in\n    tag_179:\n        /* \"#utility.yul\":5246:5363   */\n    tag_178:\n        /* \"#utility.yul\":5387:5450   */\n      tag_180\n        /* \"#utility.yul\":5442:5449   */\n      dup9\n        /* \"#utility.yul\":5433:5439   */\n      dup3\n        /* \"#utility.yul\":5422:5431   */\n      dup10\n        /* \"#utility.yul\":5418:5440   */\n      add\n        /* \"#utility.yul\":5387:5450   */\n      tag_108\n      jump\t// in\n    tag_180:\n        /* \"#utility.yul\":5377:5450   */\n      swap4\n      pop\n        /* \"#utility.yul\":5172:5460   */\n      pop\n        /* \"#utility.yul\":5527:5529   */\n      0x60\n        /* \"#utility.yul\":5516:5525   */\n      dup7\n        /* \"#utility.yul\":5512:5530   */\n      add\n        /* \"#utility.yul\":5499:5531   */\n      calldataload\n        /* \"#utility.yul\":5558:5576   */\n      0xffffffffffffffff\n        /* \"#utility.yul\":5550:5556   */\n      dup2\n        /* \"#utility.yul\":5547:5577   */\n      gt\n        /* \"#utility.yul\":5544:5661   */\n      iszero\n      tag_181\n      jumpi\n        /* \"#utility.yul\":5580:5659   */\n      tag_182\n      tag_90\n      jump\t// in\n    tag_182:\n        /* \"#utility.yul\":5544:5661   */\n    tag_181:\n        /* \"#utility.yul\":5685:5748   */\n      tag_183\n        /* \"#utility.yul\":5740:5747   */\n      dup9\n        /* \"#utility.yul\":5731:5737   */\n      dup3\n        /* \"#utility.yul\":5720:5729   */\n      dup10\n        /* \"#utility.yul\":5716:5738   */\n      add\n        /* \"#utility.yul\":5685:5748   */\n      tag_108\n      jump\t// in\n    tag_183:\n        /* \"#utility.yul\":5675:5748   */\n      swap3\n      pop\n        /* \"#utility.yul\":5470:5758   */\n      pop\n        /* \"#utility.yul\":5825:5828   */\n      0x80\n        /* \"#utility.yul\":5814:5823   */\n      dup7\n        /* \"#utility.yul\":5810:5829   */\n      add\n        /* \"#utility.yul\":5797:5830   */\n      calldataload\n        /* \"#utility.yul\":5857:5875   */\n      0xffffffffffffffff\n        /* \"#utility.yul\":5849:5855   */\n      dup2\n        /* \"#utility.yul\":5846:5876   */\n      gt\n        /* \"#utility.yul\":5843:5960   */\n      iszero\n      tag_184\n      jumpi\n        /* \"#utility.yul\":5879:5958   */\n      tag_185\n      tag_90\n      jump\t// in\n    tag_185:\n        /* \"#utility.yul\":5843:5960   */\n    tag_184:\n        /* \"#utility.yul\":5984:6047   */\n      tag_186\n        /* \"#utility.yul\":6039:6046   */\n      dup9\n        /* \"#utility.yul\":6030:6036   */\n      dup3\n        /* \"#utility.yul\":6019:6028   */\n      dup10\n        /* \"#utility.yul\":6015:6037   */\n      add\n        /* \"#utility.yul\":5984:6047   */\n      tag_108\n      jump\t// in\n    tag_186:\n        /* \"#utility.yul\":5974:6047   */\n      swap2\n      pop\n        /* \"#utility.yul\":5768:6057   */\n      pop\n        /* \"#utility.yul\":4433:6064   */\n      swap3\n      swap6\n      pop\n      swap3\n      swap6\n      swap1\n      swap4\n      pop\n      jump\t// out\n        /* \"#utility.yul\":6070:6188   */\n    tag_109:\n        /* \"#utility.yul\":6157:6181   */\n      tag_188\n        /* \"#utility.yul\":6175:6180   */\n      dup2\n        /* \"#utility.yul\":6157:6181   */\n      tag_96\n      jump\t// in\n    tag_188:\n        /* \"#utility.yul\":6152:6155   */\n      dup3\n        /* \"#utility.yul\":6145:6182   */\n      mstore\n        /* \"#utility.yul\":6070:6188   */\n      pop\n      pop\n      jump\t// out\n        /* \"#utility.yul\":6194:6416   */\n    tag_60:\n        /* \"#utility.yul\":6287:6291   */\n      0x00\n        /* \"#utility.yul\":6325:6327   */\n      0x20\n        /* \"#utility.yul\":6314:6323   */\n      dup3\n        /* \"#utility.yul\":6310:6328   */\n      add\n        /* \"#utility.yul\":6302:6328   */\n      swap1\n      pop\n        /* \"#utility.yul\":6338:6409   */\n      tag_190\n        /* \"#utility.yul\":6406:6407   */\n      0x00\n        /* \"#utility.yul\":6395:6404   */\n      dup4\n        /* \"#utility.yul\":6391:6408   */\n      add\n        /* \"#utility.yul\":6382:6388   */\n      dup5\n        /* \"#utility.yul\":6338:6409   */\n      tag_109\n      jump\t// in\n    tag_190:\n        /* \"#utility.yul\":6194:6416   */\n      swap3\n      swap2\n      pop\n      pop\n      jump\t// out\n        /* \"#utility.yul\":6422:8379   */\n    tag_63:\n        /* \"#utility.yul\":6576:6582   */\n      0x00\n        /* \"#utility.yul\":6584:6590   */\n      dup1\n        /* \"#utility.yul\":6592:6598   */\n      0x00\n        /* \"#utility.yul\":6600:6606   */\n      dup1\n        /* \"#utility.yul\":6608:6614   */\n      0x00\n        /* \"#utility.yul\":6616:6622   */\n      dup1\n        /* \"#utility.yul\":6665:6668   */\n      0xc0\n        /* \"#utility.yul\":6653:6662   */\n      dup8\n        /* \"#utility.yul\":6644:6651   */\n      dup10\n        /* \"#utility.yul\":6640:6663   */\n      sub\n        /* \"#utility.yul\":6636:6669   */\n      slt\n        /* \"#utility.yul\":6633:6753   */\n      iszero\n      tag_192\n      jumpi\n        /* \"#utility.yul\":6672:6751   */\n      tag_193\n      tag_89\n      jump\t// in\n    tag_193:\n        /* \"#utility.yul\":6633:6753   */\n    tag_192:\n        /* \"#utility.yul\":6820:6821   */\n      0x00\n        /* \"#utility.yul\":6809:6818   */\n      dup8\n        /* \"#utility.yul\":6805:6822   */\n      add\n        /* \"#utility.yul\":6792:6823   */\n      calldataload\n        /* \"#utility.yul\":6850:6868   */\n      0xffffffffffffffff\n        /* \"#utility.yul\":6842:6848   */\n      dup2\n        /* \"#utility.yul\":6839:6869   */\n      gt\n        /* \"#utility.yul\":6836:6953   */\n      iszero\n      tag_194\n      jumpi\n        /* \"#utility.yul\":6872:6951   */\n      tag_195\n      tag_90\n      jump\t// in\n    tag_195:\n        /* \"#utility.yul\":6836:6953   */\n    tag_194:\n        /* \"#utility.yul\":6977:7040   */\n      tag_196\n        /* \"#utility.yul\":7032:7039   */\n      dup10\n        /* \"#utility.yul\":7023:7029   */\n      dup3\n        /* \"#utility.yul\":7012:7021   */\n      dup11\n        /* \"#utility.yul\":7008:7030   */\n      add\n        /* \"#utility.yul\":6977:7040   */\n      tag_108\n      jump\t// in\n    tag_196:\n        /* \"#utility.yul\":6967:7040   */\n      swap7\n      pop\n        /* \"#utility.yul\":6763:7050   */\n      pop\n        /* \"#utility.yul\":7089:7091   */\n      0x20\n        /* \"#utility.yul\":7115:7168   */\n      tag_197\n        /* \"#utility.yul\":7160:7167   */\n      dup10\n        /* \"#utility.yul\":7151:7157   */\n      dup3\n        /* \"#utility.yul\":7140:7149   */\n      dup11\n        /* \"#utility.yul\":7136:7158   */\n      add\n        /* \"#utility.yul\":7115:7168   */\n      tag_98\n      jump\t// in\n    tag_197:\n        /* \"#utility.yul\":7105:7168   */\n      swap6\n      pop\n        /* \"#utility.yul\":7060:7178   */\n      pop\n        /* \"#utility.yul\":7245:7247   */\n      0x40\n        /* \"#utility.yul\":7234:7243   */\n      dup8\n        /* \"#utility.yul\":7230:7248   */\n      add\n        /* \"#utility.yul\":7217:7249   */\n      calldataload\n        /* \"#utility.yul\":7276:7294   */\n      0xffffffffffffffff\n        /* \"#utility.yul\":7268:7274   */\n      dup2\n        /* \"#utility.yul\":7265:7295   */\n      gt\n        /* \"#utility.yul\":7262:7379   */\n      iszero\n      tag_198\n      jumpi\n        /* \"#utility.yul\":7298:7377   */\n      tag_199\n      tag_90\n      jump\t// in\n    tag_199:\n        /* \"#utility.yul\":7262:7379   */\n    tag_198:\n        /* \"#utility.yul\":7403:7466   */\n      tag_200\n        /* \"#utility.yul\":7458:7465   */\n      dup10\n        /* \"#utility.yul\":7449:7455   */\n      dup3\n        /* \"#utility.yul\":7438:7447   */\n      dup11\n        /* \"#utility.yul\":7434:7456   */\n      add\n        /* \"#utility.yul\":7403:7466   */\n      tag_108\n      jump\t// in\n    tag_200:\n        /* \"#utility.yul\":7393:7466   */\n      swap5\n      pop\n        /* \"#utility.yul\":7188:7476   */\n      pop\n        /* \"#utility.yul\":7543:7545   */\n      0x60\n        /* \"#utility.yul\":7532:7541   */\n      dup8\n        /* \"#utility.yul\":7528:7546   */\n      add\n        /* \"#utility.yul\":7515:7547   */\n      calldataload\n        /* \"#utility.yul\":7574:7592   */\n      0xffffffffffffffff\n        /* \"#utility.yul\":7566:7572   */\n      dup2\n        /* \"#utility.yul\":7563:7593   */\n      gt\n        /* \"#utility.yul\":7560:7677   */\n      iszero\n      tag_201\n      jumpi\n        /* \"#utility.yul\":7596:7675   */\n      tag_202\n      tag_90\n      jump\t// in\n    tag_202:\n        /* \"#utility.yul\":7560:7677   */\n    tag_201:\n        /* \"#utility.yul\":7701:7764   */\n      tag_203\n        /* \"#utility.yul\":7756:7763   */\n      dup10\n        /* \"#utility.yul\":7747:7753   */\n      dup3\n        /* \"#utility.yul\":7736:7745   */\n      dup11\n        /* \"#utility.yul\":7732:7754   */\n      add\n        /* \"#utility.yul\":7701:7764   */\n      tag_108\n      jump\t// in\n    tag_203:\n        /* \"#utility.yul\":7691:7764   */\n      swap4\n      pop\n        /* \"#utility.yul\":7486:7774   */\n      pop\n        /* \"#utility.yul\":7841:7844   */\n      0x80\n        /* \"#utility.yul\":7830:7839   */\n      dup8\n        /* \"#utility.yul\":7826:7845   */\n      add\n        /* \"#utility.yul\":7813:7846   */\n      calldataload\n        /* \"#utility.yul\":7873:7891   */\n      0xffffffffffffffff\n        /* \"#utility.yul\":7865:7871   */\n      dup2\n        /* \"#utility.yul\":7862:7892   */\n      gt\n        /* \"#utility.yul\":7859:7976   */\n      iszero\n      tag_204\n      jumpi\n        /* \"#utility.yul\":7895:7974   */\n      tag_205\n      tag_90\n      jump\t// in\n    tag_205:\n        /* \"#utility.yul\":7859:7976   */\n    tag_204:\n        /* \"#utility.yul\":8000:8063   */\n      tag_206\n        /* \"#utility.yul\":8055:8062   */\n      dup10\n        /* \"#utility.yul\":8046:8052   */\n      dup3\n        /* \"#utility.yul\":8035:8044   */\n      dup11\n        /* \"#utility.yul\":8031:8053   */\n      add\n        /* \"#utility.yul\":8000:8063   */\n      tag_108\n      jump\t// in\n    tag_206:\n        /* \"#utility.yul\":7990:8063   */\n      swap3\n      pop\n        /* \"#utility.yul\":7784:8073   */\n      pop\n        /* \"#utility.yul\":8140:8143   */\n      0xa0\n        /* \"#utility.yul\":8129:8138   */\n      dup8\n        /* \"#utility.yul\":8125:8144   */\n      add\n        /* \"#utility.yul\":8112:8145   */\n      calldataload\n        /* \"#utility.yul\":8172:8190   */\n      0xffffffffffffffff\n        /* \"#utility.yul\":8164:8170   */\n      dup2\n        /* \"#utility.yul\":8161:8191   */\n      gt\n        /* \"#utility.yul\":8158:8275   */\n      iszero\n      tag_207\n      jumpi\n        /* \"#utility.yul\":8194:8273   */\n      tag_208\n      tag_90\n      jump\t// in\n    tag_208:\n        /* \"#utility.yul\":8158:8275   */\n    tag_207:\n        /* \"#utility.yul\":8299:8362   */\n      tag_209\n        /* \"#utility.yul\":8354:8361   */\n      dup10\n        /* \"#utility.yul\":8345:8351   */\n      dup3\n        /* \"#utility.yul\":8334:8343   */\n      dup11\n        /* \"#utility.yul\":8330:8352   */\n      add\n        /* \"#utility.yul\":8299:8362   */\n      tag_108\n      jump\t// in\n    tag_209:\n        /* \"#utility.yul\":8289:8362   */\n      swap2\n      pop\n        /* \"#utility.yul\":8083:8372   */\n      pop\n        /* \"#utility.yul\":6422:8379   */\n      swap3\n      swap6\n      pop\n      swap3\n      swap6\n      pop\n      swap3\n      swap6\n      jump\t// out\n        /* \"#utility.yul\":8385:8484   */\n    tag_110:\n        /* \"#utility.yul\":8437:8443   */\n      0x00\n        /* \"#utility.yul\":8471:8476   */\n      dup2\n        /* \"#utility.yul\":8465:8477   */\n      mload\n        /* \"#utility.yul\":8455:8477   */\n      swap1\n      pop\n        /* \"#utility.yul\":8385:8484   */\n      swap2\n      swap1\n      pop\n      jump\t// out\n        /* \"#utility.yul\":8490:8659   */\n    tag_111:\n        /* \"#utility.yul\":8574:8585   */\n      0x00\n        /* \"#utility.yul\":8608:8614   */\n      dup3\n        /* \"#utility.yul\":8603:8606   */\n      dup3\n        /* \"#utility.yul\":8596:8615   */\n      mstore\n        /* \"#utility.yul\":8648:8652   */\n      0x20\n        /* \"#utility.yul\":8643:8646   */\n      dup3\n        /* \"#utility.yul\":8639:8653   */\n      add\n        /* \"#utility.yul\":8624:8653   */\n      swap1\n      pop\n        /* \"#utility.yul\":8490:8659   */\n      swap3\n      swap2\n      pop\n      pop\n      jump\t// out\n        /* \"#utility.yul\":8665:8972   */\n    tag_112:\n        /* \"#utility.yul\":8733:8734   */\n      0x00\n        /* \"#utility.yul\":8743:8856   */\n    tag_213:\n        /* \"#utility.yul\":8757:8763   */\n      dup4\n        /* \"#utility.yul\":8754:8755   */\n      dup2\n        /* \"#utility.yul\":8751:8764   */\n      lt\n        /* \"#utility.yul\":8743:8856   */\n      iszero\n      tag_215\n      jumpi\n        /* \"#utility.yul\":8842:8843   */\n      dup1\n        /* \"#utility.yul\":8837:8840   */\n      dup3\n        /* \"#utility.yul\":8833:8844   */\n      add\n        /* \"#utility.yul\":8827:8845   */\n      mload\n        /* \"#utility.yul\":8823:8824   */\n      dup2\n        /* \"#utility.yul\":8818:8821   */\n      dup5\n        /* \"#utility.yul\":8814:8825   */\n      add\n        /* \"#utility.yul\":8807:8846   */\n      mstore\n        /* \"#utility.yul\":8779:8781   */\n      0x20\n        /* \"#utility.yul\":8776:8777   */\n      dup2\n        /* \"#utility.yul\":8772:8782   */\n      add\n        /* \"#utility.yul\":8767:8782   */\n      swap1\n      pop\n        /* \"#utility.yul\":8743:8856   */\n      jump(tag_213)\n    tag_215:\n        /* \"#utility.yul\":8874:8880   */\n      dup4\n        /* \"#utility.yul\":8871:8872   */\n      dup2\n        /* \"#utility.yul\":8868:8881   */\n      gt\n        /* \"#utility.yul\":8865:8966   */\n      iszero\n      tag_216\n      jumpi\n        /* \"#utility.yul\":8954:8955   */\n      0x00\n        /* \"#utility.yul\":8945:8951   */\n      dup5\n        /* \"#utility.yul\":8940:8943   */\n      dup5\n        /* \"#utility.yul\":8936:8952   */\n      add\n        /* \"#utility.yul\":8929:8956   */\n      mstore\n        /* \"#utility.yul\":8865:8966   */\n    tag_216:\n        /* \"#utility.yul\":8714:8972   */\n      pop\n        /* \"#utility.yul\":8665:8972   */\n      pop\n      pop\n      pop\n      jump\t// out\n        /* \"#utility.yul\":8978:9342   */\n    tag_113:\n        /* \"#utility.yul\":9066:9069   */\n      0x00\n        /* \"#utility.yul\":9094:9133   */\n      tag_218\n        /* \"#utility.yul\":9127:9132   */\n      dup3\n        /* \"#utility.yul\":9094:9133   */\n      tag_110\n      jump\t// in\n    tag_218:\n        /* \"#utility.yul\":9149:9220   */\n      tag_219\n        /* \"#utility.yul\":9213:9219   */\n      dup2\n        /* \"#utility.yul\":9208:9211   */\n      dup6\n        /* \"#utility.yul\":9149:9220   */\n      tag_111\n      jump\t// in\n    tag_219:\n        /* \"#utility.yul\":9142:9220   */\n      swap4\n      pop\n        /* \"#utility.yul\":9229:9281   */\n      tag_220\n        /* \"#utility.yul\":9274:9280   */\n      dup2\n        /* \"#utility.yul\":9269:9272   */\n      dup6\n        /* \"#utility.yul\":9262:9266   */\n      0x20\n        /* \"#utility.yul\":9255:9260   */\n      dup7\n        /* \"#utility.yul\":9251:9267   */\n      add\n        /* \"#utility.yul\":9229:9281   */\n      tag_112\n      jump\t// in\n    tag_220:\n        /* \"#utility.yul\":9306:9335   */\n      tag_221\n        /* \"#utility.yul\":9328:9334   */\n      dup2\n        /* \"#utility.yul\":9306:9335   */\n      tag_101\n      jump\t// in\n    tag_221:\n        /* \"#utility.yul\":9301:9304   */\n      dup5\n        /* \"#utility.yul\":9297:9336   */\n      add\n        /* \"#utility.yul\":9290:9336   */\n      swap2\n      pop\n        /* \"#utility.yul\":9070:9342   */\n      pop\n        /* \"#utility.yul\":8978:9342   */\n      swap3\n      swap2\n      pop\n      pop\n      jump\t// out\n        /* \"#utility.yul\":9348:10598   */\n    tag_70:\n        /* \"#utility.yul\":9689:9693   */\n      0x00\n        /* \"#utility.yul\":9727:9730   */\n      0xe0\n        /* \"#utility.yul\":9716:9725   */\n      dup3\n        /* \"#utility.yul\":9712:9731   */\n      add\n        /* \"#utility.yul\":9704:9731   */\n      swap1\n      pop\n        /* \"#utility.yul\":9777:9786   */\n      dup2\n        /* \"#utility.yul\":9771:9775   */\n      dup2\n        /* \"#utility.yul\":9767:9787   */\n      sub\n        /* \"#utility.yul\":9763:9764   */\n      0x00\n        /* \"#utility.yul\":9752:9761   */\n      dup4\n        /* \"#utility.yul\":9748:9765   */\n      add\n        /* \"#utility.yul\":9741:9788   */\n      mstore\n        /* \"#utility.yul\":9805:9883   */\n      tag_223\n        /* \"#utility.yul\":9878:9882   */\n      dup2\n        /* \"#utility.yul\":9869:9875   */\n      dup11\n        /* \"#utility.yul\":9805:9883   */\n      tag_113\n      jump\t// in\n    tag_223:\n        /* \"#utility.yul\":9797:9883   */\n      swap1\n      pop\n        /* \"#utility.yul\":9893:9965   */\n      tag_224\n        /* \"#utility.yul\":9961:9963   */\n      0x20\n        /* \"#utility.yul\":9950:9959   */\n      dup4\n        /* \"#utility.yul\":9946:9964   */\n      add\n        /* \"#utility.yul\":9937:9943   */\n      dup10\n        /* \"#utility.yul\":9893:9965   */\n      tag_109\n      jump\t// in\n    tag_224:\n        /* \"#utility.yul\":10012:10021   */\n      dup2\n        /* \"#utility.yul\":10006:10010   */\n      dup2\n        /* \"#utility.yul\":10002:10022   */\n      sub\n        /* \"#utility.yul\":9997:9999   */\n      0x40\n        /* \"#utility.yul\":9986:9995   */\n      dup4\n        /* \"#utility.yul\":9982:10000   */\n      add\n        /* \"#utility.yul\":9975:10023   */\n      mstore\n        /* \"#utility.yul\":10040:10118   */\n      tag_225\n        /* \"#utility.yul\":10113:10117   */\n      dup2\n        /* \"#utility.yul\":10104:10110   */\n      dup9\n        /* \"#utility.yul\":10040:10118   */\n      tag_113\n      jump\t// in\n    tag_225:\n        /* \"#utility.yul\":10032:10118   */\n      swap1\n      pop\n        /* \"#utility.yul\":10165:10174   */\n      dup2\n        /* \"#utility.yul\":10159:10163   */\n      dup2\n        /* \"#utility.yul\":10155:10175   */\n      sub\n        /* \"#utility.yul\":10150:10152   */\n      0x60\n        /* \"#utility.yul\":10139:10148   */\n      dup4\n        /* \"#utility.yul\":10135:10153   */\n      add\n        /* \"#utility.yul\":10128:10176   */\n      mstore\n        /* \"#utility.yul\":10193:10271   */\n      tag_226\n        /* \"#utility.yul\":10266:10270   */\n      dup2\n        /* \"#utility.yul\":10257:10263   */\n      dup8\n        /* \"#utility.yul\":10193:10271   */\n      tag_113\n      jump\t// in\n    tag_226:\n        /* \"#utility.yul\":10185:10271   */\n      swap1\n      pop\n        /* \"#utility.yul\":10319:10328   */\n      dup2\n        /* \"#utility.yul\":10313:10317   */\n      dup2\n        /* \"#utility.yul\":10309:10329   */\n      sub\n        /* \"#utility.yul\":10303:10306   */\n      0x80\n        /* \"#utility.yul\":10292:10301   */\n      dup4\n        /* \"#utility.yul\":10288:10307   */\n      add\n        /* \"#utility.yul\":10281:10330   */\n      mstore\n        /* \"#utility.yul\":10347:10425   */\n      tag_227\n        /* \"#utility.yul\":10420:10424   */\n      dup2\n        /* \"#utility.yul\":10411:10417   */\n      dup7\n        /* \"#utility.yul\":10347:10425   */\n      tag_113\n      jump\t// in\n    tag_227:\n        /* \"#utility.yul\":10339:10425   */\n      swap1\n      pop\n        /* \"#utility.yul\":10435:10508   */\n      tag_228\n        /* \"#utility.yul\":10503:10506   */\n      0xa0\n        /* \"#utility.yul\":10492:10501   */\n      dup4\n        /* \"#utility.yul\":10488:10507   */\n      add\n        /* \"#utility.yul\":10479:10485   */\n      dup6\n        /* \"#utility.yul\":10435:10508   */\n      tag_95\n      jump\t// in\n    tag_228:\n        /* \"#utility.yul\":10518:10591   */\n      tag_229\n        /* \"#utility.yul\":10586:10589   */\n      0xc0\n        /* \"#utility.yul\":10575:10584   */\n      dup4\n        /* \"#utility.yul\":10571:10590   */\n      add\n        /* \"#utility.yul\":10562:10568   */\n      dup5\n        /* \"#utility.yul\":10518:10591   */\n      tag_95\n      jump\t// in\n    tag_229:\n        /* \"#utility.yul\":9348:10598   */\n      swap9\n      swap8\n      pop\n      pop\n      pop\n      pop\n      pop\n      pop\n      pop\n      pop\n      jump\t// out\n        /* \"#utility.yul\":10604:12056   */\n    tag_84:\n        /* \"#utility.yul\":10993:10997   */\n      0x00\n        /* \"#utility.yul\":11031:11034   */\n      0x0100\n        /* \"#utility.yul\":11020:11029   */\n      dup3\n        /* \"#utility.yul\":11016:11035   */\n      add\n        /* \"#utility.yul\":11008:11035   */\n      swap1\n      pop\n        /* \"#utility.yul\":11045:11116   */\n      tag_231\n        /* \"#utility.yul\":11113:11114   */\n      0x00\n        /* \"#utility.yul\":11102:11111   */\n      dup4\n        /* \"#utility.yul\":11098:11115   */\n      add\n        /* \"#utility.yul\":11089:11095   */\n      dup12\n        /* \"#utility.yul\":11045:11116   */\n      tag_95\n      jump\t// in\n    tag_231:\n        /* \"#utility.yul\":11126:11198   */\n      tag_232\n        /* \"#utility.yul\":11194:11196   */\n      0x20\n        /* \"#utility.yul\":11183:11192   */\n      dup4\n        /* \"#utility.yul\":11179:11197   */\n      add\n        /* \"#utility.yul\":11170:11176   */\n      dup11\n        /* \"#utility.yul\":11126:11198   */\n      tag_95\n      jump\t// in\n    tag_232:\n        /* \"#utility.yul\":11245:11254   */\n      dup2\n        /* \"#utility.yul\":11239:11243   */\n      dup2\n        /* \"#utility.yul\":11235:11255   */\n      sub\n        /* \"#utility.yul\":11230:11232   */\n      0x40\n        /* \"#utility.yul\":11219:11228   */\n      dup4\n        /* \"#utility.yul\":11215:11233   */\n      add\n        /* \"#utility.yul\":11208:11256   */\n      mstore\n        /* \"#utility.yul\":11273:11351   */\n      tag_233\n        /* \"#utility.yul\":11346:11350   */\n      dup2\n        /* \"#utility.yul\":11337:11343   */\n      dup10\n        /* \"#utility.yul\":11273:11351   */\n      tag_113\n      jump\t// in\n    tag_233:\n        /* \"#utility.yul\":11265:11351   */\n      swap1\n      pop\n        /* \"#utility.yul\":11361:11433   */\n      tag_234\n        /* \"#utility.yul\":11429:11431   */\n      0x60\n        /* \"#utility.yul\":11418:11427   */\n      dup4\n        /* \"#utility.yul\":11414:11432   */\n      add\n        /* \"#utility.yul\":11405:11411   */\n      dup9\n        /* \"#utility.yul\":11361:11433   */\n      tag_109\n      jump\t// in\n    tag_234:\n        /* \"#utility.yul\":11481:11490   */\n      dup2\n        /* \"#utility.yul\":11475:11479   */\n      dup2\n        /* \"#utility.yul\":11471:11491   */\n      sub\n        /* \"#utility.yul\":11465:11468   */\n      0x80\n        /* \"#utility.yul\":11454:11463   */\n      dup4\n        /* \"#utility.yul\":11450:11469   */\n      add\n        /* \"#utility.yul\":11443:11492   */\n      mstore\n        /* \"#utility.yul\":11509:11587   */\n      tag_235\n        /* \"#utility.yul\":11582:11586   */\n      dup2\n        /* \"#utility.yul\":11573:11579   */\n      dup8\n        /* \"#utility.yul\":11509:11587   */\n      tag_113\n      jump\t// in\n    tag_235:\n        /* \"#utility.yul\":11501:11587   */\n      swap1\n      pop\n        /* \"#utility.yul\":11635:11644   */\n      dup2\n        /* \"#utility.yul\":11629:11633   */\n      dup2\n        /* \"#utility.yul\":11625:11645   */\n      sub\n        /* \"#utility.yul\":11619:11622   */\n      0xa0\n        /* \"#utility.yul\":11608:11617   */\n      dup4\n        /* \"#utility.yul\":11604:11623   */\n      add\n        /* \"#utility.yul\":11597:11646   */\n      mstore\n        /* \"#utility.yul\":11663:11741   */\n      tag_236\n        /* \"#utility.yul\":11736:11740   */\n      dup2\n        /* \"#utility.yul\":11727:11733   */\n      dup7\n        /* \"#utility.yul\":11663:11741   */\n      tag_113\n      jump\t// in\n    tag_236:\n        /* \"#utility.yul\":11655:11741   */\n      swap1\n      pop\n        /* \"#utility.yul\":11789:11798   */\n      dup2\n        /* \"#utility.yul\":11783:11787   */\n      dup2\n        /* \"#utility.yul\":11779:11799   */\n      sub\n        /* \"#utility.yul\":11773:11776   */\n      0xc0\n        /* \"#utility.yul\":11762:11771   */\n      dup4\n        /* \"#utility.yul\":11758:11777   */\n      add\n        /* \"#utility.yul\":11751:11800   */\n      mstore\n        /* \"#utility.yul\":11817:11895   */\n      tag_237\n        /* \"#utility.yul\":11890:11894   */\n      dup2\n        /* \"#utility.yul\":11881:11887   */\n      dup6\n        /* \"#utility.yul\":11817:11895   */\n      tag_113\n      jump\t// in\n    tag_237:\n        /* \"#utility.yul\":11809:11895   */\n      swap1\n      pop\n        /* \"#utility.yul\":11943:11952   */\n      dup2\n        /* \"#utility.yul\":11937:11941   */\n      dup2\n        /* \"#utility.yul\":11933:11953   */\n      sub\n        /* \"#utility.yul\":11927:11930   */\n      0xe0\n        /* \"#utility.yul\":11916:11925   */\n      dup4\n        /* \"#utility.yul\":11912:11931   */\n      add\n        /* \"#utility.yul\":11905:11954   */\n      mstore\n        /* \"#utility.yul\":11971:12049   */\n      tag_238\n        /* \"#utility.yul\":12044:12048   */\n      dup2\n        /* \"#utility.yul\":12035:12041   */\n      dup5\n        /* \"#utility.yul\":11971:12049   */\n      tag_113\n      jump\t// in\n    tag_238:\n        /* \"#utility.yul\":11963:12049   */\n      swap1\n      pop\n        /* \"#utility.yul\":10604:12056   */\n      swap10\n      swap9\n      pop\n      pop\n      pop\n      pop\n      pop\n      pop\n      pop\n      pop\n      pop\n      jump\t// out\n        /* \"#utility.yul\":12062:12242   */\n    tag_114:\n        /* \"#utility.yul\":12110:12187   */\n      0x4e487b7100000000000000000000000000000000000000000000000000000000\n        /* \"#utility.yul\":12107:12108   */\n      0x00\n        /* \"#utility.yul\":12100:12188   */\n      mstore\n        /* \"#utility.yul\":12207:12211   */\n      0x11\n        /* \"#utility.yul\":12204:12205   */\n      0x04\n        /* \"#utility.yul\":12197:12212   */\n      mstore\n        /* \"#utility.yul\":12231:12235   */\n      0x24\n        /* \"#utility.yul\":12228:12229   */\n      0x00\n        /* \"#utility.yul\":12221:12236   */\n      revert\n        /* \"#utility.yul\":12248:12553   */\n    tag_87:\n        /* \"#utility.yul\":12288:12291   */\n      0x00\n        /* \"#utility.yul\":12307:12327   */\n      tag_241\n        /* \"#utility.yul\":12325:12326   */\n      dup3\n        /* \"#utility.yul\":12307:12327   */\n      tag_96\n      jump\t// in\n    tag_241:\n        /* \"#utility.yul\":12302:12327   */\n      swap2\n      pop\n        /* \"#utility.yul\":12341:12361   */\n      tag_242\n        /* \"#utility.yul\":12359:12360   */\n      dup4\n        /* \"#utility.yul\":12341:12361   */\n      tag_96\n      jump\t// in\n    tag_242:\n        /* \"#utility.yul\":12336:12361   */\n      swap3\n      pop\n        /* \"#utility.yul\":12495:12496   */\n      dup3\n        /* \"#utility.yul\":12427:12493   */\n      0xffffffffffffffffffffffffffffffffffffffffffffffffffffffffffffffff\n        /* \"#utility.yul\":12423:12497   */\n      sub\n        /* \"#utility.yul\":12420:12421   */\n      dup3\n        /* \"#utility.yul\":12417:12498   */\n      gt\n        /* \"#utility.yul\":12414:12521   */\n      iszero\n      tag_243\n      jumpi\n        /* \"#utility.yul\":12501:12519   */\n      tag_244\n      tag_114\n      jump\t// in\n    tag_244:\n        /* \"#utility.yul\":12414:12521   */\n    tag_243:\n        /* \"#utility.yul\":12545:12546   */\n      dup3\n        /* \"#utility.yul\":12542:12543   */\n      dup3\n        /* \"#utility.yul\":12538:12547   */\n      add\n        /* \"#utility.yul\":12531:12547   */\n      swap1\n      pop\n        /* \"#utility.yul\":12248:12553   */\n      swap3\n      swap2\n      pop\n      pop\n      jump\t// out\n    stop\n\n    sub_0: assembly {\n            /* \"factoryContract.sol\":1828:5198  contract patientContract{... */\n          mstore(0x40, 0x80)\n            /* \"factoryContract.sol\":2523:3076  constructor(string memory _name, uint _age, string memory _birth, string memory _gender,string memory _phone, address patient, address factory){... */\n          callvalue\n          dup1\n          iszero\n          tag_1\n          jumpi\n          0x00\n          dup1\n          revert\n        tag_1:\n          pop\n          mload(0x40)\n          sub(codesize, bytecodeSize)\n          dup1\n          bytecodeSize\n          dup4\n          codecopy\n          dup2\n          dup2\n          add\n          0x40\n          mstore\n          dup2\n          add\n          swap1\n          tag_2\n          swap2\n          swap1\n          tag_3\n          jump\t// in\n        tag_2:\n            /* \"factoryContract.sol\":2687:2694  patient */\n          dup2\n            /* \"factoryContract.sol\":2677:2684  Patient */\n          0x01\n          0x00\n            /* \"factoryContract.sol\":2677:2694  Patient = patient */\n          0x0100\n          exp\n          dup2\n          sload\n          dup2\n          0xffffffffffffffffffffffffffffffffffffffff\n          mul\n          not\n          and\n          swap1\n          dup4\n          0xffffffffffffffffffffffffffffffffffffffff\n          and\n          mul\n          or\n          swap1\n          sstore\n          pop\n            /* \"factoryContract.sol\":2705:2737  details memory newStructInstance */\n          0x00\n            /* \"factoryContract.sol\":2740:2956  details({... */\n          mload(0x40)\n          dup1\n          0xa0\n          add\n          0x40\n          mstore\n          dup1\n            /* \"factoryContract.sol\":2776:2781  _name */\n          dup10\n            /* \"factoryContract.sol\":2740:2956  details({... */\n          dup2\n          mstore\n          0x20\n          add\n            /* \"factoryContract.sol\":2801:2805  _age */\n          dup9\n            /* \"factoryContract.sol\":2740:2956  details({... */\n          dup2\n          mstore\n          0x20\n          add\n            /* \"factoryContract.sol\":2828:2834  _birth */\n          dup8\n            /* \"factoryContract.sol\":2740:2956  details({... */\n          dup2\n          mstore\n          0x20\n          add\n            /* \"factoryContract.sol\":2858:2865  _gender */\n          dup7\n            /* \"factoryContract.sol\":2740:2956  details({... */\n          dup2\n          mstore\n          0x20\n          add\n            /* \"factoryContract.sol\":2888:2894  _phone */\n          dup6\n            /* \"factoryContract.sol\":2740:2956  details({... */\n          dup2\n          mstore\n          pop\n            /* \"factoryContract.sol\":2705:2956  details memory newStructInstance = details({... */\n          swap1\n          pop\n            /* \"factoryContract.sol\":2984:3001  newStructInstance */\n          dup1\n            /* \"factoryContract.sol\":2967:2981  patientDetails */\n          0x02\n            /* \"factoryContract.sol\":2967:3001  patientDetails = newStructInstance */\n          0x00\n          dup3\n          add\n          mload\n          dup2\n          0x00\n          add\n          swap1\n          dup1\n          mload\n          swap1\n          0x20\n          add\n          swap1\n          tag_6\n          swap3\n          swap2\n          swap1\n          tag_7\n          jump\t// in\n        tag_6:\n          pop\n          0x20\n          dup3\n          add\n          mload\n          dup2\n          0x01\n          add\n          sstore\n          0x40\n          dup3\n          add\n          mload\n          dup2\n          0x02\n          add\n          swap1\n          dup1\n          mload\n          swap1\n          0x20\n          add\n          swap1\n          tag_8\n          swap3\n          swap2\n          swap1\n          tag_7\n          jump\t// in\n        tag_8:\n          pop\n          0x60\n          dup3\n          add\n          mload\n          dup2\n          0x03\n          add\n          swap1\n          dup1\n          mload\n          swap1\n          0x20\n          add\n          swap1\n          tag_9\n          swap3\n          swap2\n          swap1\n          tag_7\n          jump\t// in\n        tag_9:\n          pop\n          0x80\n          dup3\n          add\n          mload\n          dup2\n          0x04\n          add\n          swap1\n          dup1\n          mload\n          swap1\n          0x20\n          add\n          swap1\n          tag_10\n          swap3\n          swap2\n          swap1\n          tag_7\n          jump\t// in\n        tag_10:\n          pop\n          swap1\n          pop\n          pop\n            /* \"factoryContract.sol\":3024:3031  factory */\n          dup2\n            /* \"factoryContract.sol\":3014:3021  Factory */\n          0x00\n          dup1\n            /* \"factoryContract.sol\":3014:3031  Factory = factory */\n          0x0100\n          exp\n          dup2\n          sload\n          dup2\n          0xffffffffffffffffffffffffffffffffffffffff\n          mul\n          not\n          and\n          swap1\n          dup4\n          0xffffffffffffffffffffffffffffffffffffffff\n          and\n          mul\n          or\n          swap1\n          sstore\n          pop\n            /* \"factoryContract.sol\":3064:3068  true */\n          0x01\n            /* \"factoryContract.sol\":3042:3052  dataAccess */\n          0x07\n            /* \"factoryContract.sol\":3042:3061  dataAccess[Patient] */\n          0x00\n            /* \"factoryContract.sol\":3053:3060  Patient */\n          0x01\n          0x00\n          swap1\n          sload\n          swap1\n          0x0100\n          exp\n          swap1\n          div\n          0xffffffffffffffffffffffffffffffffffffffff\n          and\n            /* \"factoryContract.sol\":3042:3061  dataAccess[Patient] */\n          0xffffffffffffffffffffffffffffffffffffffff\n          and\n          0xffffffffffffffffffffffffffffffffffffffff\n          and\n          dup2\n          mstore\n          0x20\n          add\n          swap1\n          dup2\n          mstore\n          0x20\n          add\n          0x00\n          keccak256\n          0x00\n            /* \"factoryContract.sol\":3042:3068  dataAccess[Patient] = true */\n          0x0100\n          exp\n          dup2\n          sload\n          dup2\n          0xff\n          mul\n          not\n          and\n          swap1\n          dup4\n          iszero\n          iszero\n          mul\n          or\n          swap1\n          sstore\n          pop\n            /* \"factoryContract.sol\":2666:3076  {... */\n          pop\n            /* \"factoryContract.sol\":2523:3076  constructor(string memory _name, uint _age, string memory _birth, string memory _gender,string memory _phone, address patient, address factory){... */\n          pop\n          pop\n          pop\n          pop\n          pop\n          pop\n          pop\n            /* \"factoryContract.sol\":1828:5198  contract patientContract{... */\n          jump(tag_11)\n        tag_7:\n          dup3\n          dup1\n          sload\n          tag_12\n          swap1\n          tag_13\n          jump\t// in\n        tag_12:\n          swap1\n          0x00\n          mstore\n          keccak256(0x00, 0x20)\n          swap1\n          0x1f\n          add\n          0x20\n          swap1\n          div\n          dup2\n          add\n          swap3\n          dup3\n          tag_15\n          jumpi\n          0x00\n          dup6\n          sstore\n          jump(tag_14)\n        tag_15:\n          dup3\n          0x1f\n          lt\n          tag_16\n          jumpi\n          dup1\n          mload\n          not(0xff)\n          and\n          dup4\n          dup1\n          add\n          or\n          dup6\n          sstore\n          jump(tag_14)\n        tag_16:\n          dup3\n          dup1\n          add\n          0x01\n          add\n          dup6\n          sstore\n          dup3\n          iszero\n          tag_14\n          jumpi\n          swap2\n          dup3\n          add\n        tag_17:\n          dup3\n          dup2\n          gt\n          iszero\n          tag_18\n          jumpi\n          dup3\n          mload\n          dup3\n          sstore\n          swap2\n          0x20\n          add\n          swap2\n          swap1\n          0x01\n          add\n          swap1\n          jump(tag_17)\n        tag_18:\n        tag_14:\n          pop\n          swap1\n          pop\n          tag_19\n          swap2\n          swap1\n          tag_20\n          jump\t// in\n        tag_19:\n          pop\n          swap1\n          jump\t// out\n        tag_20:\n        tag_21:\n          dup1\n          dup3\n          gt\n          iszero\n          tag_22\n          jumpi\n          0x00\n          dup2\n          0x00\n          swap1\n          sstore\n          pop\n          0x01\n          add\n          jump(tag_21)\n        tag_22:\n          pop\n          swap1\n          jump\t// out\n            /* \"#utility.yul\":7:82   */\n        tag_23:\n            /* \"#utility.yul\":40:46   */\n          0x00\n            /* \"#utility.yul\":73:75   */\n          0x40\n            /* \"#utility.yul\":67:76   */\n          mload\n            /* \"#utility.yul\":57:76   */\n          swap1\n          pop\n            /* \"#utility.yul\":7:82   */\n          swap1\n          jump\t// out\n            /* \"#utility.yul\":88:205   */\n        tag_24:\n            /* \"#utility.yul\":197:198   */\n          0x00\n            /* \"#utility.yul\":194:195   */\n          dup1\n            /* \"#utility.yul\":187:199   */\n          revert\n            /* \"#utility.yul\":211:328   */\n        tag_25:\n            /* \"#utility.yul\":320:321   */\n          0x00\n            /* \"#utility.yul\":317:318   */\n          dup1\n            /* \"#utility.yul\":310:322   */\n          revert\n            /* \"#utility.yul\":334:451   */\n        tag_26:\n            /* \"#utility.yul\":443:444   */\n          0x00\n            /* \"#utility.yul\":440:441   */\n          dup1\n            /* \"#utility.yul\":433:445   */\n          revert\n            /* \"#utility.yul\":457:574   */\n        tag_27:\n            /* \"#utility.yul\":566:567   */\n          0x00\n            /* \"#utility.yul\":563:564   */\n          dup1\n            /* \"#utility.yul\":556:568   */\n          revert\n            /* \"#utility.yul\":580:682   */\n        tag_28:\n            /* \"#utility.yul\":621:627   */\n          0x00\n            /* \"#utility.yul\":672:674   */\n          0x1f\n            /* \"#utility.yul\":668:675   */\n          not\n            /* \"#utility.yul\":663:665   */\n          0x1f\n            /* \"#utility.yul\":656:661   */\n          dup4\n            /* \"#utility.yul\":652:666   */\n          add\n            /* \"#utility.yul\":648:676   */\n          and\n            /* \"#utility.yul\":638:676   */\n          swap1\n          pop\n            /* \"#utility.yul\":580:682   */\n          swap2\n          swap1\n          pop\n          jump\t// out\n            /* \"#utility.yul\":688:868   */\n        tag_29:\n            /* \"#utility.yul\":736:813   */\n          0x4e487b7100000000000000000000000000000000000000000000000000000000\n            /* \"#utility.yul\":733:734   */\n          0x00\n            /* \"#utility.yul\":726:814   */\n          mstore\n            /* \"#utility.yul\":833:837   */\n          0x41\n            /* \"#utility.yul\":830:831   */\n          0x04\n            /* \"#utility.yul\":823:838   */\n          mstore\n            /* \"#utility.yul\":857:861   */\n          0x24\n            /* \"#utility.yul\":854:855   */\n          0x00\n            /* \"#utility.yul\":847:862   */\n          revert\n            /* \"#utility.yul\":874:1155   */\n        tag_30:\n            /* \"#utility.yul\":957:984   */\n          tag_53\n            /* \"#utility.yul\":979:983   */\n          dup3\n            /* \"#utility.yul\":957:984   */\n          tag_28\n          jump\t// in\n        tag_53:\n            /* \"#utility.yul\":949:955   */\n          dup2\n            /* \"#utility.yul\":945:985   */\n          add\n            /* \"#utility.yul\":1087:1093   */\n          dup2\n            /* \"#utility.yul\":1075:1085   */\n          dup2\n            /* \"#utility.yul\":1072:1094   */\n          lt\n            /* \"#utility.yul\":1051:1069   */\n          0xffffffffffffffff\n            /* \"#utility.yul\":1039:1049   */\n          dup3\n            /* \"#utility.yul\":1036:1070   */\n          gt\n            /* \"#utility.yul\":1033:1095   */\n          or\n            /* \"#utility.yul\":1030:1118   */\n          iszero\n          tag_54\n          jumpi\n            /* \"#utility.yul\":1098:1116   */\n          tag_55\n          tag_29\n          jump\t// in\n        tag_55:\n            /* \"#utility.yul\":1030:1118   */\n        tag_54:\n            /* \"#utility.yul\":1138:1148   */\n          dup1\n            /* \"#utility.yul\":1134:1136   */\n          0x40\n            /* \"#utility.yul\":1127:1149   */\n          mstore\n            /* \"#utility.yul\":917:1155   */\n          pop\n            /* \"#utility.yul\":874:1155   */\n          pop\n          pop\n          jump\t// out\n            /* \"#utility.yul\":1161:1290   */\n        tag_31:\n            /* \"#utility.yul\":1195:1201   */\n          0x00\n            /* \"#utility.yul\":1222:1242   */\n          tag_57\n          tag_23\n          jump\t// in\n        tag_57:\n            /* \"#utility.yul\":1212:1242   */\n          swap1\n          pop\n            /* \"#utility.yul\":1251:1284   */\n          tag_58\n            /* \"#utility.yul\":1279:1283   */\n          dup3\n            /* \"#utility.yul\":1271:1277   */\n          dup3\n            /* \"#utility.yul\":1251:1284   */\n          tag_30\n          jump\t// in\n        tag_58:\n            /* \"#utility.yul\":1161:1290   */\n          swap2\n          swap1\n          pop\n          jump\t// out\n            /* \"#utility.yul\":1296:1604   */\n        tag_32:\n            /* \"#utility.yul\":1358:1362   */\n          0x00\n            /* \"#utility.yul\":1448:1466   */\n          0xffffffffffffffff\n            /* \"#utility.yul\":1440:1446   */\n          dup3\n            /* \"#utility.yul\":1437:1467   */\n          gt\n            /* \"#utility.yul\":1434:1490   */\n          iszero\n          tag_60\n          jumpi\n            /* \"#utility.yul\":1470:1488   */\n          tag_61\n          tag_29\n          jump\t// in\n        tag_61:\n            /* \"#utility.yul\":1434:1490   */\n        tag_60:\n            /* \"#utility.yul\":1508:1537   */\n          tag_62\n            /* \"#utility.yul\":1530:1536   */\n          dup3\n            /* \"#utility.yul\":1508:1537   */\n          tag_28\n          jump\t// in\n        tag_62:\n            /* \"#utility.yul\":1500:1537   */\n          swap1\n          pop\n            /* \"#utility.yul\":1592:1596   */\n          0x20\n            /* \"#utility.yul\":1586:1590   */\n          dup2\n            /* \"#utility.yul\":1582:1597   */\n          add\n            /* \"#utility.yul\":1574:1597   */\n          swap1\n          pop\n            /* \"#utility.yul\":1296:1604   */\n          swap2\n          swap1\n          pop\n          jump\t// out\n            /* \"#utility.yul\":1610:1917   */\n        tag_33:\n            /* \"#utility.yul\":1678:1679   */\n          0x00\n            /* \"#utility.yul\":1688:1801   */\n        tag_64:\n            /* \"#utility.yul\":1702:1708   */\n          dup4\n            /* \"#utility.yul\":1699:1700   */\n          dup2\n            /* \"#utility.yul\":1696:1709   */\n          lt\n            /* \"#utility.yul\":1688:1801   */\n          iszero\n          tag_66\n          jumpi\n            /* \"#utility.yul\":1787:1788   */\n          dup1\n            /* \"#utility.yul\":1782:1785   */\n          dup3\n            /* \"#utility.yul\":1778:1789   */\n          add\n            /* \"#utility.yul\":1772:1790   */\n          mload\n            /* \"#utility.yul\":1768:1769   */\n          dup2\n            /* \"#utility.yul\":1763:1766   */\n          dup5\n            /* \"#utility.yul\":1759:1770   */\n          add\n            /* \"#utility.yul\":1752:1791   */\n          mstore\n            /* \"#utility.yul\":1724:1726   */\n          0x20\n            /* \"#utility.yul\":1721:1722   */\n          dup2\n            /* \"#utility.yul\":1717:1727   */\n          add\n            /* \"#utility.yul\":1712:1727   */\n          swap1\n          pop\n            /* \"#utility.yul\":1688:1801   */\n          jump(tag_64)\n        tag_66:\n            /* \"#utility.yul\":1819:1825   */\n          dup4\n            /* \"#utility.yul\":1816:1817   */\n          dup2\n            /* \"#utility.yul\":1813:1826   */\n          gt\n            /* \"#utility.yul\":1810:1911   */\n          iszero\n          tag_67\n          jumpi\n            /* \"#utility.yul\":1899:1900   */\n          0x00\n            /* \"#utility.yul\":1890:1896   */\n          dup5\n            /* \"#utility.yul\":1885:1888   */\n          dup5\n            /* \"#utility.yul\":1881:1897   */\n          add\n            /* \"#utility.yul\":1874:1901   */\n          mstore\n            /* \"#utility.yul\":1810:1911   */\n        tag_67:\n            /* \"#utility.yul\":1659:1917   */\n          pop\n            /* \"#utility.yul\":1610:1917   */\n          pop\n          pop\n          pop\n          jump\t// out\n            /* \"#utility.yul\":1923:2344   */\n        tag_34:\n            /* \"#utility.yul\":2012:2017   */\n          0x00\n            /* \"#utility.yul\":2037:2103   */\n          tag_69\n            /* \"#utility.yul\":2053:2102   */\n          tag_70\n            /* \"#utility.yul\":2095:2101   */\n          dup5\n            /* \"#utility.yul\":2053:2102   */\n          tag_32\n          jump\t// in\n        tag_70:\n            /* \"#utility.yul\":2037:2103   */\n          tag_31\n          jump\t// in\n        tag_69:\n            /* \"#utility.yul\":2028:2103   */\n          swap1\n          pop\n            /* \"#utility.yul\":2126:2132   */\n          dup3\n            /* \"#utility.yul\":2119:2124   */\n          dup2\n            /* \"#utility.yul\":2112:2133   */\n          mstore\n            /* \"#utility.yul\":2164:2168   */\n          0x20\n            /* \"#utility.yul\":2157:2162   */\n          dup2\n            /* \"#utility.yul\":2153:2169   */\n          add\n            /* \"#utility.yul\":2202:2205   */\n          dup5\n            /* \"#utility.yul\":2193:2199   */\n          dup5\n            /* \"#utility.yul\":2188:2191   */\n          dup5\n            /* \"#utility.yul\":2184:2200   */\n          add\n            /* \"#utility.yul\":2181:2206   */\n          gt\n            /* \"#utility.yul\":2178:2290   */\n          iszero\n          tag_71\n          jumpi\n            /* \"#utility.yul\":2209:2288   */\n          tag_72\n          tag_27\n          jump\t// in\n        tag_72:\n            /* \"#utility.yul\":2178:2290   */\n        tag_71:\n            /* \"#utility.yul\":2299:2338   */\n          tag_73\n            /* \"#utility.yul\":2331:2337   */\n          dup5\n            /* \"#utility.yul\":2326:2329   */\n          dup3\n            /* \"#utility.yul\":2321:2324   */\n          dup6\n            /* \"#utility.yul\":2299:2338   */\n          tag_33\n          jump\t// in\n        tag_73:\n            /* \"#utility.yul\":2018:2344   */\n          pop\n            /* \"#utility.yul\":1923:2344   */\n          swap4\n          swap3\n          pop\n          pop\n          pop\n          jump\t// out\n            /* \"#utility.yul\":2364:2719   */\n        tag_35:\n            /* \"#utility.yul\":2431:2436   */\n          0x00\n            /* \"#utility.yul\":2480:2483   */\n          dup3\n            /* \"#utility.yul\":2473:2477   */\n          0x1f\n            /* \"#utility.yul\":2465:2471   */\n          dup4\n            /* \"#utility.yul\":2461:2478   */\n          add\n            /* \"#utility.yul\":2457:2484   */\n          slt\n            /* \"#utility.yul\":2447:2569   */\n          tag_75\n          jumpi\n            /* \"#utility.yul\":2488:2567   */\n          tag_76\n          tag_26\n          jump\t// in\n        tag_76:\n            /* \"#utility.yul\":2447:2569   */\n        tag_75:\n            /* \"#utility.yul\":2598:2604   */\n          dup2\n            /* \"#utility.yul\":2592:2605   */\n          mload\n            /* \"#utility.yul\":2623:2713   */\n          tag_77\n            /* \"#utility.yul\":2709:2712   */\n          dup5\n            /* \"#utility.yul\":2701:2707   */\n          dup3\n            /* \"#utility.yul\":2694:2698   */\n          0x20\n            /* \"#utility.yul\":2686:2692   */\n          dup7\n            /* \"#utility.yul\":2682:2699   */\n          add\n            /* \"#utility.yul\":2623:2713   */\n          tag_34\n          jump\t// in\n        tag_77:\n            /* \"#utility.yul\":2614:2713   */\n          swap2\n          pop\n            /* \"#utility.yul\":2437:2719   */\n          pop\n            /* \"#utility.yul\":2364:2719   */\n          swap3\n          swap2\n          pop\n          pop\n          jump\t// out\n            /* \"#utility.yul\":2725:2802   */\n        tag_36:\n            /* \"#utility.yul\":2762:2769   */\n          0x00\n            /* \"#utility.yul\":2791:2796   */\n          dup2\n            /* \"#utility.yul\":2780:2796   */\n          swap1\n          pop\n            /* \"#utility.yul\":2725:2802   */\n          swap2\n          swap1\n          pop\n          jump\t// out\n            /* \"#utility.yul\":2808:2930   */\n        tag_37:\n            /* \"#utility.yul\":2881:2905   */\n          tag_80\n            /* \"#utility.yul\":2899:2904   */\n          dup2\n            /* \"#utility.yul\":2881:2905   */\n          tag_36\n          jump\t// in\n        tag_80:\n            /* \"#utility.yul\":2874:2879   */\n          dup2\n            /* \"#utility.yul\":2871:2906   */\n          eq\n            /* \"#utility.yul\":2861:2924   */\n          tag_81\n          jumpi\n            /* \"#utility.yul\":2920:2921   */\n          0x00\n            /* \"#utility.yul\":2917:2918   */\n          dup1\n            /* \"#utility.yul\":2910:2922   */\n          revert\n            /* \"#utility.yul\":2861:2924   */\n        tag_81:\n            /* \"#utility.yul\":2808:2930   */\n          pop\n          jump\t// out\n            /* \"#utility.yul\":2936:3079   */\n        tag_38:\n            /* \"#utility.yul\":2993:2998   */\n          0x00\n            /* \"#utility.yul\":3024:3030   */\n          dup2\n            /* \"#utility.yul\":3018:3031   */\n          mload\n            /* \"#utility.yul\":3009:3031   */\n          swap1\n          pop\n            /* \"#utility.yul\":3040:3073   */\n          tag_83\n            /* \"#utility.yul\":3067:3072   */\n          dup2\n            /* \"#utility.yul\":3040:3073   */\n          tag_37\n          jump\t// in\n        tag_83:\n            /* \"#utility.yul\":2936:3079   */\n          swap3\n          swap2\n          pop\n          pop\n          jump\t// out\n            /* \"#utility.yul\":3085:3211   */\n        tag_39:\n            /* \"#utility.yul\":3122:3129   */\n          0x00\n            /* \"#utility.yul\":3162:3204   */\n          0xffffffffffffffffffffffffffffffffffffffff\n            /* \"#utility.yul\":3155:3160   */\n          dup3\n            /* \"#utility.yul\":3151:3205   */\n          and\n            /* \"#utility.yul\":3140:3205   */\n          swap1\n          pop\n            /* \"#utility.yul\":3085:3211   */\n          swap2\n          swap1\n          pop\n          jump\t// out\n            /* \"#utility.yul\":3217:3313   */\n        tag_40:\n            /* \"#utility.yul\":3254:3261   */\n          0x00\n            /* \"#utility.yul\":3283:3307   */\n          tag_86\n            /* \"#utility.yul\":3301:3306   */\n          dup3\n            /* \"#utility.yul\":3283:3307   */\n          tag_39\n          jump\t// in\n        tag_86:\n            /* \"#utility.yul\":3272:3307   */\n          swap1\n          pop\n            /* \"#utility.yul\":3217:3313   */\n          swap2\n          swap1\n          pop\n          jump\t// out\n            /* \"#utility.yul\":3319:3441   */\n        tag_41:\n            /* \"#utility.yul\":3392:3416   */\n          tag_88\n            /* \"#utility.yul\":3410:3415   */\n          dup2\n            /* \"#utility.yul\":3392:3416   */\n          tag_40\n          jump\t// in\n        tag_88:\n            /* \"#utility.yul\":3385:3390   */\n          dup2\n            /* \"#utility.yul\":3382:3417   */\n          eq\n            /* \"#utility.yul\":3372:3435   */\n          tag_89\n          jumpi\n            /* \"#utility.yul\":3431:3432   */\n          0x00\n            /* \"#utility.yul\":3428:3429   */\n          dup1\n            /* \"#utility.yul\":3421:3433   */\n          revert\n            /* \"#utility.yul\":3372:3435   */\n        tag_89:\n            /* \"#utility.yul\":3319:3441   */\n          pop\n          jump\t// out\n            /* \"#utility.yul\":3447:3590   */\n        tag_42:\n            /* \"#utility.yul\":3504:3509   */\n          0x00\n            /* \"#utility.yul\":3535:3541   */\n          dup2\n            /* \"#utility.yul\":3529:3542   */\n          mload\n            /* \"#utility.yul\":3520:3542   */\n          swap1\n          pop\n            /* \"#utility.yul\":3551:3584   */\n          tag_91\n            /* \"#utility.yul\":3578:3583   */\n          dup2\n            /* \"#utility.yul\":3551:3584   */\n          tag_41\n          jump\t// in\n        tag_91:\n            /* \"#utility.yul\":3447:3590   */\n          swap3\n          swap2\n          pop\n          pop\n          jump\t// out\n            /* \"#utility.yul\":3596:5579   */\n        tag_3:\n            /* \"#utility.yul\":3760:3766   */\n          0x00\n            /* \"#utility.yul\":3768:3774   */\n          dup1\n            /* \"#utility.yul\":3776:3782   */\n          0x00\n            /* \"#utility.yul\":3784:3790   */\n          dup1\n            /* \"#utility.yul\":3792:3798   */\n          0x00\n            /* \"#utility.yul\":3800:3806   */\n          dup1\n            /* \"#utility.yul\":3808:3814   */\n          0x00\n            /* \"#utility.yul\":3857:3860   */\n          0xe0\n            /* \"#utility.yul\":3845:3854   */\n          dup9\n            /* \"#utility.yul\":3836:3843   */\n          dup11\n            /* \"#utility.yul\":3832:3855   */\n          sub\n            /* \"#utility.yul\":3828:3861   */\n          slt\n            /* \"#utility.yul\":3825:3945   */\n          iszero\n          tag_93\n          jumpi\n            /* \"#utility.yul\":3864:3943   */\n          tag_94\n          tag_24\n          jump\t// in\n        tag_94:\n            /* \"#utility.yul\":3825:3945   */\n        tag_93:\n            /* \"#utility.yul\":4005:4006   */\n          0x00\n            /* \"#utility.yul\":3994:4003   */\n          dup9\n            /* \"#utility.yul\":3990:4007   */\n          add\n            /* \"#utility.yul\":3984:4008   */\n          mload\n            /* \"#utility.yul\":4035:4053   */\n          0xffffffffffffffff\n            /* \"#utility.yul\":4027:4033   */\n          dup2\n            /* \"#utility.yul\":4024:4054   */\n          gt\n            /* \"#utility.yul\":4021:4138   */\n          iszero\n          tag_95\n          jumpi\n            /* \"#utility.yul\":4057:4136   */\n          tag_96\n          tag_25\n          jump\t// in\n        tag_96:\n            /* \"#utility.yul\":4021:4138   */\n        tag_95:\n            /* \"#utility.yul\":4162:4236   */\n          tag_97\n            /* \"#utility.yul\":4228:4235   */\n          dup11\n            /* \"#utility.yul\":4219:4225   */\n          dup3\n            /* \"#utility.yul\":4208:4217   */\n          dup12\n            /* \"#utility.yul\":4204:4226   */\n          add\n            /* \"#utility.yul\":4162:4236   */\n          tag_35\n          jump\t// in\n        tag_97:\n            /* \"#utility.yul\":4152:4236   */\n          swap8\n          pop\n            /* \"#utility.yul\":3955:4246   */\n          pop\n            /* \"#utility.yul\":4285:4287   */\n          0x20\n            /* \"#utility.yul\":4311:4375   */\n          tag_98\n            /* \"#utility.yul\":4367:4374   */\n          dup11\n            /* \"#utility.yul\":4358:4364   */\n          dup3\n            /* \"#utility.yul\":4347:4356   */\n          dup12\n            /* \"#utility.yul\":4343:4365   */\n          add\n            /* \"#utility.yul\":4311:4375   */\n          tag_38\n          jump\t// in\n        tag_98:\n            /* \"#utility.yul\":4301:4375   */\n          swap7\n          pop\n            /* \"#utility.yul\":4256:4385   */\n          pop\n            /* \"#utility.yul\":4445:4447   */\n          0x40\n            /* \"#utility.yul\":4434:4443   */\n          dup9\n            /* \"#utility.yul\":4430:4448   */\n          add\n            /* \"#utility.yul\":4424:4449   */\n          mload\n            /* \"#utility.yul\":4476:4494   */\n          0xffffffffffffffff\n            /* \"#utility.yul\":4468:4474   */\n          dup2\n            /* \"#utility.yul\":4465:4495   */\n          gt\n            /* \"#utility.yul\":4462:4579   */\n          iszero\n          tag_99\n          jumpi\n            /* \"#utility.yul\":4498:4577   */\n          tag_100\n          tag_25\n          jump\t// in\n        tag_100:\n            /* \"#utility.yul\":4462:4579   */\n        tag_99:\n            /* \"#utility.yul\":4603:4677   */\n          tag_101\n            /* \"#utility.yul\":4669:4676   */\n          dup11\n            /* \"#utility.yul\":4660:4666   */\n          dup3\n            /* \"#utility.yul\":4649:4658   */\n          dup12\n            /* \"#utility.yul\":4645:4667   */\n          add\n            /* \"#utility.yul\":4603:4677   */\n          tag_35\n          jump\t// in\n        tag_101:\n            /* \"#utility.yul\":4593:4677   */\n          swap6\n          pop\n            /* \"#utility.yul\":4395:4687   */\n          pop\n            /* \"#utility.yul\":4747:4749   */\n          0x60\n            /* \"#utility.yul\":4736:4745   */\n          dup9\n            /* \"#utility.yul\":4732:4750   */\n          add\n            /* \"#utility.yul\":4726:4751   */\n          mload\n            /* \"#utility.yul\":4778:4796   */\n          0xffffffffffffffff\n            /* \"#utility.yul\":4770:4776   */\n          dup2\n            /* \"#utility.yul\":4767:4797   */\n          gt\n            /* \"#utility.yul\":4764:4881   */\n          iszero\n          tag_102\n          jumpi\n            /* \"#utility.yul\":4800:4879   */\n          tag_103\n          tag_25\n          jump\t// in\n        tag_103:\n            /* \"#utility.yul\":4764:4881   */\n        tag_102:\n            /* \"#utility.yul\":4905:4979   */\n          tag_104\n            /* \"#utility.yul\":4971:4978   */\n          dup11\n            /* \"#utility.yul\":4962:4968   */\n          dup3\n            /* \"#utility.yul\":4951:4960   */\n          dup12\n            /* \"#utility.yul\":4947:4969   */\n          add\n            /* \"#utility.yul\":4905:4979   */\n          tag_35\n          jump\t// in\n        tag_104:\n            /* \"#utility.yul\":4895:4979   */\n          swap5\n          pop\n            /* \"#utility.yul\":4697:4989   */\n          pop\n            /* \"#utility.yul\":5049:5052   */\n          0x80\n            /* \"#utility.yul\":5038:5047   */\n          dup9\n            /* \"#utility.yul\":5034:5053   */\n          add\n            /* \"#utility.yul\":5028:5054   */\n          mload\n            /* \"#utility.yul\":5081:5099   */\n          0xffffffffffffffff\n            /* \"#utility.yul\":5073:5079   */\n          dup2\n            /* \"#utility.yul\":5070:5100   */\n          gt\n            /* \"#utility.yul\":5067:5184   */\n          iszero\n          tag_105\n          jumpi\n            /* \"#utility.yul\":5103:5182   */\n          tag_106\n          tag_25\n          jump\t// in\n        tag_106:\n            /* \"#utility.yul\":5067:5184   */\n        tag_105:\n            /* \"#utility.yul\":5208:5282   */\n          tag_107\n            /* \"#utility.yul\":5274:5281   */\n          dup11\n            /* \"#utility.yul\":5265:5271   */\n          dup3\n            /* \"#utility.yul\":5254:5263   */\n          dup12\n            /* \"#utility.yul\":5250:5272   */\n          add\n            /* \"#utility.yul\":5208:5282   */\n          tag_35\n          jump\t// in\n        tag_107:\n            /* \"#utility.yul\":5198:5282   */\n          swap4\n          pop\n            /* \"#utility.yul\":4999:5292   */\n          pop\n            /* \"#utility.yul\":5331:5334   */\n          0xa0\n            /* \"#utility.yul\":5358:5422   */\n          tag_108\n            /* \"#utility.yul\":5414:5421   */\n          dup11\n            /* \"#utility.yul\":5405:5411   */\n          dup3\n            /* \"#utility.yul\":5394:5403   */\n          dup12\n            /* \"#utility.yul\":5390:5412   */\n          add\n            /* \"#utility.yul\":5358:5422   */\n          tag_42\n          jump\t// in\n        tag_108:\n            /* \"#utility.yul\":5348:5422   */\n          swap3\n          pop\n            /* \"#utility.yul\":5302:5432   */\n          pop\n            /* \"#utility.yul\":5471:5474   */\n          0xc0\n            /* \"#utility.yul\":5498:5562   */\n          tag_109\n            /* \"#utility.yul\":5554:5561   */\n          dup11\n            /* \"#utility.yul\":5545:5551   */\n          dup3\n            /* \"#utility.yul\":5534:5543   */\n          dup12\n            /* \"#utility.yul\":5530:5552   */\n          add\n            /* \"#utility.yul\":5498:5562   */\n          tag_42\n          jump\t// in\n        tag_109:\n            /* \"#utility.yul\":5488:5562   */\n          swap2\n          pop\n            /* \"#utility.yul\":5442:5572   */\n          pop\n            /* \"#utility.yul\":3596:5579   */\n          swap3\n          swap6\n          swap9\n          swap2\n          swap5\n          swap8\n          pop\n          swap3\n          swap6\n          pop\n          jump\t// out\n            /* \"#utility.yul\":5585:5765   */\n        tag_43:\n            /* \"#utility.yul\":5633:5710   */\n          0x4e487b7100000000000000000000000000000000000000000000000000000000\n            /* \"#utility.yul\":5630:5631   */\n          0x00\n            /* \"#utility.yul\":5623:5711   */\n          mstore\n            /* \"#utility.yul\":5730:5734   */\n          0x22\n            /* \"#utility.yul\":5727:5728   */\n          0x04\n            /* \"#utility.yul\":5720:5735   */\n          mstore\n            /* \"#utility.yul\":5754:5758   */\n          0x24\n            /* \"#utility.yul\":5751:5752   */\n          0x00\n            /* \"#utility.yul\":5744:5759   */\n          revert\n            /* \"#utility.yul\":5771:6091   */\n        tag_13:\n            /* \"#utility.yul\":5815:5821   */\n          0x00\n            /* \"#utility.yul\":5852:5853   */\n          0x02\n            /* \"#utility.yul\":5846:5850   */\n          dup3\n            /* \"#utility.yul\":5842:5854   */\n          div\n            /* \"#utility.yul\":5832:5854   */\n          swap1\n          pop\n            /* \"#utility.yul\":5899:5900   */\n          0x01\n            /* \"#utility.yul\":5893:5897   */\n          dup3\n            /* \"#utility.yul\":5889:5901   */\n          and\n            /* \"#utility.yul\":5920:5938   */\n          dup1\n            /* \"#utility.yul\":5910:5991   */\n          tag_112\n          jumpi\n            /* \"#utility.yul\":5976:5980   */\n          0x7f\n            /* \"#utility.yul\":5968:5974   */\n          dup3\n            /* \"#utility.yul\":5964:5981   */\n          and\n            /* \"#utility.yul\":5954:5981   */\n          swap2\n          pop\n            /* \"#utility.yul\":5910:5991   */\n        tag_112:\n            /* \"#utility.yul\":6038:6040   */\n          0x20\n            /* \"#utility.yul\":6030:6036   */\n          dup3\n            /* \"#utility.yul\":6027:6041   */\n          lt\n            /* \"#utility.yul\":6007:6025   */\n          dup2\n            /* \"#utility.yul\":6004:6042   */\n          eq\n            /* \"#utility.yul\":6001:6085   */\n          iszero\n          tag_113\n          jumpi\n            /* \"#utility.yul\":6057:6075   */\n          tag_114\n          tag_43\n          jump\t// in\n        tag_114:\n            /* \"#utility.yul\":6001:6085   */\n        tag_113:\n            /* \"#utility.yul\":5822:6091   */\n          pop\n            /* \"#utility.yul\":5771:6091   */\n          swap2\n          swap1\n          pop\n          jump\t// out\n            /* \"factoryContract.sol\":1828:5198  contract patientContract{... */\n        tag_11:\n          dataSize(sub_0)\n          dup1\n          dataOffset(sub_0)\n          0x00\n          codecopy\n          0x00\n          return\n        stop\n\n        sub_0: assembly {\n                /* \"factoryContract.sol\":1828:5198  contract patientContract{... */\n              mstore(0x40, 0x80)\n              callvalue\n              dup1\n              iszero\n              tag_1\n              jumpi\n              0x00\n              dup1\n              revert\n            tag_1:\n              pop\n              jumpi(tag_2, lt(calldatasize, 0x04))\n              shr(0xe0, calldataload(0x00))\n              dup1\n              0xac40c9a8\n              gt\n              tag_18\n              jumpi\n              dup1\n              0xf2cc9753\n              gt\n              tag_19\n              jumpi\n              dup1\n              0xf2cc9753\n              eq\n              tag_14\n              jumpi\n              dup1\n              0xf2f4adae\n              eq\n              tag_15\n              jumpi\n              dup1\n              0xf85b1b30\n              eq\n              tag_16\n              jumpi\n              dup1\n              0xfe13b631\n              eq\n              tag_17\n              jumpi\n              jump(tag_2)\n            tag_19:\n              dup1\n              0xac40c9a8\n              eq\n              tag_10\n              jumpi\n              dup1\n              0xc83dd231\n              eq\n              tag_11\n              jumpi\n              dup1\n              0xd8d204f8\n              eq\n              tag_12\n              jumpi\n              dup1\n              0xe7ce49a7\n              eq\n              tag_13\n              jumpi\n              jump(tag_2)\n            tag_18:\n              dup1\n              0x2e0b5677\n              gt\n              tag_20\n              jumpi\n              dup1\n              0x2e0b5677\n              eq\n              tag_6\n              jumpi\n              dup1\n              0x86969279\n              eq\n              tag_7\n              jumpi\n              dup1\n              0x9db4d4a0\n              eq\n              tag_8\n              jumpi\n              dup1\n              0xac12a3c0\n              eq\n              tag_9\n              jumpi\n              jump(tag_2)\n            tag_20:\n              dup1\n              0x0be41bd8\n              eq\n              tag_3\n              jumpi\n              dup1\n              0x1dc1fdb6\n              eq\n              tag_4\n              jumpi\n              dup1\n              0x1f54e45c\n              eq\n              tag_5\n              jumpi\n            tag_2:\n              0x00\n              dup1\n              revert\n                /* \"factoryContract.sol\":4949:5045  function provideAccess(address requester) public {... */\n            tag_3:\n              tag_21\n              0x04\n              dup1\n              calldatasize\n              sub\n              dup2\n              add\n              swap1\n              tag_22\n              swap2\n              swap1\n              tag_23\n              jump\t// in\n            tag_22:\n              tag_24\n              jump\t// in\n            tag_21:\n              stop\n                /* \"factoryContract.sol\":2188:2217  details public patientDetails */\n            tag_4:\n              tag_25\n              tag_26\n              jump\t// in\n            tag_25:\n              mload(0x40)\n              tag_27\n              swap6\n              swap5\n              swap4\n              swap3\n              swap2\n              swap1\n              tag_28\n              jump\t// in\n            tag_27:\n              mload(0x40)\n              dup1\n              swap2\n              sub\n              swap1\n              return\n                /* \"factoryContract.sol\":5053:5171  function getPatientDocs(uint index) public view returns(string memory){... */\n            tag_5:\n              tag_29\n              0x04\n              dup1\n              calldatasize\n              sub\n              dup2\n              add\n              swap1\n              tag_30\n              swap2\n              swap1\n              tag_31\n              jump\t// in\n            tag_30:\n              tag_32\n              jump\t// in\n            tag_29:\n              mload(0x40)\n              tag_33\n              swap2\n              swap1\n              tag_34\n              jump\t// in\n            tag_33:\n              mload(0x40)\n              dup1\n              swap2\n              sub\n              swap1\n              return\n                /* \"factoryContract.sol\":2224:2265  mapping(address=> bool) public dataAccess */\n            tag_6:\n              tag_35\n              0x04\n              dup1\n              calldatasize\n              sub\n              dup2\n              add\n              swap1\n              tag_36\n              swap2\n              swap1\n              tag_23\n              jump\t// in\n            tag_36:\n              tag_37\n              jump\t// in\n            tag_35:\n              mload(0x40)\n              tag_38\n              swap2\n              swap1\n              tag_39\n              jump\t// in\n            tag_38:\n              mload(0x40)\n              dup1\n              swap2\n              sub\n              swap1\n              return\n                /* \"factoryContract.sol\":2300:2344  mapping(uint=>patientDoc) public retriveDocs */\n            tag_7:\n              tag_40\n              0x04\n              dup1\n              calldatasize\n              sub\n              dup2\n              add\n              swap1\n              tag_41\n              swap2\n              swap1\n              tag_31\n              jump\t// in\n            tag_41:\n              tag_42\n              jump\t// in\n            tag_40:\n              mload(0x40)\n              tag_43\n              swap3\n              swap2\n              swap1\n              tag_44\n              jump\t// in\n            tag_43:\n              mload(0x40)\n              dup1\n              swap2\n              sub\n              swap1\n              return\n                /* \"factoryContract.sol\":2351:2389  mapping(uint=>bool) public isValidated */\n            tag_8:\n              tag_45\n              0x04\n              dup1\n              calldatasize\n              sub\n              dup2\n              add\n              swap1\n              tag_46\n              swap2\n              swap1\n              tag_31\n              jump\t// in\n            tag_46:\n              tag_47\n              jump\t// in\n            tag_45:\n              mload(0x40)\n              tag_48\n              swap2\n              swap1\n              tag_39\n              jump\t// in\n            tag_48:\n              mload(0x40)\n              dup1\n              swap2\n              sub\n              swap1\n              return\n                /* \"factoryContract.sol\":2272:2293  uint public docsCount */\n            tag_9:\n              tag_49\n              tag_50\n              jump\t// in\n            tag_49:\n              mload(0x40)\n              tag_51\n              swap2\n              swap1\n              tag_52\n              jump\t// in\n            tag_51:\n              mload(0x40)\n              dup1\n              swap2\n              sub\n              swap1\n              return\n                /* \"factoryContract.sol\":1890:1912  address public Patient */\n            tag_10:\n              tag_53\n              tag_54\n              jump\t// in\n            tag_53:\n              mload(0x40)\n              tag_55\n              swap2\n              swap1\n              tag_56\n              jump\t// in\n            tag_55:\n              mload(0x40)\n              dup1\n              swap2\n              sub\n              swap1\n              return\n                /* \"factoryContract.sol\":1861:1883  address public Factory */\n            tag_11:\n              tag_57\n              tag_58\n              jump\t// in\n            tag_57:\n              mload(0x40)\n              tag_59\n              swap2\n              swap1\n              tag_56\n              jump\t// in\n            tag_59:\n              mload(0x40)\n              dup1\n              swap2\n              sub\n              swap1\n              return\n                /* \"factoryContract.sol\":3421:3871  function changePatientDetails(string memory _name, uint _age, string memory _birth, string memory _gender,string memory _phone) public {... */\n            tag_12:\n              tag_60\n              0x04\n              dup1\n              calldatasize\n              sub\n              dup2\n              add\n              swap1\n              tag_61\n              swap2\n              swap1\n              tag_62\n              jump\t// in\n            tag_61:\n              tag_63\n              jump\t// in\n            tag_60:\n              stop\n                /* \"factoryContract.sol\":2443:2464  uint public profCount */\n            tag_13:\n              tag_64\n              tag_65\n              jump\t// in\n            tag_64:\n              mload(0x40)\n              tag_66\n              swap2\n              swap1\n              tag_52\n              jump\t// in\n            tag_66:\n              mload(0x40)\n              dup1\n              swap2\n              sub\n              swap1\n              return\n                /* \"factoryContract.sol\":3879:4937  function insertPatientDocs(string memory data, uint curr) public {... */\n            tag_14:\n              tag_67\n              0x04\n              dup1\n              calldatasize\n              sub\n              dup2\n              add\n              swap1\n              tag_68\n              swap2\n              swap1\n              tag_69\n              jump\t// in\n            tag_68:\n              tag_70\n              jump\t// in\n            tag_67:\n              stop\n                /* \"factoryContract.sol\":3084:3413  function getPatientDetails() public view returns(string memory,uint,string memory,string memory,string memory){... */\n            tag_15:\n              tag_71\n              tag_72\n              jump\t// in\n            tag_71:\n              mload(0x40)\n              tag_73\n              swap6\n              swap5\n              swap4\n              swap3\n              swap2\n              swap1\n              tag_28\n              jump\t// in\n            tag_73:\n              mload(0x40)\n              dup1\n              swap2\n              sub\n              swap1\n              return\n                /* \"factoryContract.sol\":2471:2510  mapping(address=>bool) public profTrack */\n            tag_16:\n              tag_74\n              0x04\n              dup1\n              calldatasize\n              sub\n              dup2\n              add\n              swap1\n              tag_75\n              swap2\n              swap1\n              tag_23\n              jump\t// in\n            tag_75:\n              tag_76\n              jump\t// in\n            tag_74:\n              mload(0x40)\n              tag_77\n              swap2\n              swap1\n              tag_39\n              jump\t// in\n            tag_77:\n              mload(0x40)\n              dup1\n              swap2\n              sub\n              swap1\n              return\n                /* \"factoryContract.sol\":2396:2436  mapping(uint=>address) public allMedProf */\n            tag_17:\n              tag_78\n              0x04\n              dup1\n              calldatasize\n              sub\n              dup2\n              add\n              swap1\n              tag_79\n              swap2\n              swap1\n              tag_31\n              jump\t// in\n            tag_79:\n              tag_80\n              jump\t// in\n            tag_78:\n              mload(0x40)\n              tag_81\n              swap2\n              swap1\n              tag_56\n              jump\t// in\n            tag_81:\n              mload(0x40)\n              dup1\n              swap2\n              sub\n              swap1\n              return\n                /* \"factoryContract.sol\":4949:5045  function provideAccess(address requester) public {... */\n            tag_24:\n                /* \"factoryContract.sol\":5033:5037  true */\n              0x01\n                /* \"factoryContract.sol\":5009:5019  dataAccess */\n              0x07\n                /* \"factoryContract.sol\":5009:5030  dataAccess[requester] */\n              0x00\n                /* \"factoryContract.sol\":5020:5029  requester */\n              dup4\n                /* \"factoryContract.sol\":5009:5030  dataAccess[requester] */\n              0xffffffffffffffffffffffffffffffffffffffff\n              and\n              0xffffffffffffffffffffffffffffffffffffffff\n              and\n              dup2\n              mstore\n              0x20\n              add\n              swap1\n              dup2\n              mstore\n              0x20\n              add\n              0x00\n              keccak256\n              0x00\n                /* \"factoryContract.sol\":5009:5037  dataAccess[requester] = true */\n              0x0100\n              exp\n              dup2\n              sload\n              dup2\n              0xff\n              mul\n              not\n              and\n              swap1\n              dup4\n              iszero\n              iszero\n              mul\n              or\n              swap1\n              sstore\n              pop\n                /* \"factoryContract.sol\":4949:5045  function provideAccess(address requester) public {... */\n              pop\n              jump\t// out\n                /* \"factoryContract.sol\":2188:2217  details public patientDetails */\n            tag_26:\n              0x02\n              dup1\n              0x00\n              add\n              dup1\n              sload\n              tag_83\n              swap1\n              tag_84\n              jump\t// in\n            tag_83:\n              dup1\n              0x1f\n              add\n              0x20\n              dup1\n              swap2\n              div\n              mul\n              0x20\n              add\n              mload(0x40)\n              swap1\n              dup2\n              add\n              0x40\n              mstore\n              dup1\n              swap3\n              swap2\n              swap1\n              dup2\n              dup2\n              mstore\n              0x20\n              add\n              dup3\n              dup1\n              sload\n              tag_85\n              swap1\n              tag_84\n              jump\t// in\n            tag_85:\n              dup1\n              iszero\n              tag_86\n              jumpi\n              dup1\n              0x1f\n              lt\n              tag_87\n              jumpi\n              0x0100\n              dup1\n              dup4\n              sload\n              div\n              mul\n              dup4\n              mstore\n              swap2\n              0x20\n              add\n              swap2\n              jump(tag_86)\n            tag_87:\n              dup3\n              add\n              swap2\n              swap1\n              0x00\n              mstore\n              keccak256(0x00, 0x20)\n              swap1\n            tag_88:\n              dup2\n              sload\n              dup2\n              mstore\n              swap1\n              0x01\n              add\n              swap1\n              0x20\n              add\n              dup1\n              dup4\n              gt\n              tag_88\n              jumpi\n              dup3\n              swap1\n              sub\n              0x1f\n              and\n              dup3\n              add\n              swap2\n            tag_86:\n              pop\n              pop\n              pop\n              pop\n              pop\n              swap1\n              dup1\n              0x01\n              add\n              sload\n              swap1\n              dup1\n              0x02\n              add\n              dup1\n              sload\n              tag_89\n              swap1\n              tag_84\n              jump\t// in\n            tag_89:\n              dup1\n              0x1f\n              add\n              0x20\n              dup1\n              swap2\n              div\n              mul\n              0x20\n              add\n              mload(0x40)\n              swap1\n              dup2\n              add\n              0x40\n              mstore\n              dup1\n              swap3\n              swap2\n              swap1\n              dup2\n              dup2\n              mstore\n              0x20\n              add\n              dup3\n              dup1\n              sload\n              tag_90\n              swap1\n              tag_84\n              jump\t// in\n            tag_90:\n              dup1\n              iszero\n              tag_91\n              jumpi\n              dup1\n              0x1f\n              lt\n              tag_92\n              jumpi\n              0x0100\n              dup1\n              dup4\n              sload\n              div\n              mul\n              dup4\n              mstore\n              swap2\n              0x20\n              add\n              swap2\n              jump(tag_91)\n            tag_92:\n              dup3\n              add\n              swap2\n              swap1\n              0x00\n              mstore\n              keccak256(0x00, 0x20)\n              swap1\n            tag_93:\n              dup2\n              sload\n              dup2\n              mstore\n              swap1\n              0x01\n              add\n              swap1\n              0x20\n              add\n              dup1\n              dup4\n              gt\n              tag_93\n              jumpi\n              dup3\n              swap1\n              sub\n              0x1f\n              and\n              dup3\n              add\n              swap2\n            tag_91:\n              pop\n              pop\n              pop\n              pop\n              pop\n              swap1\n              dup1\n              0x03\n              add\n              dup1\n              sload\n              tag_94\n              swap1\n              tag_84\n              jump\t// in\n            tag_94:\n              dup1\n              0x1f\n              add\n              0x20\n              dup1\n              swap2\n              div\n              mul\n              0x20\n              add\n              mload(0x40)\n              swap1\n              dup2\n              add\n              0x40\n              mstore\n              dup1\n              swap3\n              swap2\n              swap1\n              dup2\n              dup2\n              mstore\n              0x20\n              add\n              dup3\n              dup1\n              sload\n              tag_95\n              swap1\n              tag_84\n              jump\t// in\n            tag_95:\n              dup1\n              iszero\n              tag_96\n              jumpi\n              dup1\n              0x1f\n              lt\n              tag_97\n              jumpi\n              0x0100\n              dup1\n              dup4\n              sload\n              div\n              mul\n              dup4\n              mstore\n              swap2\n              0x20\n              add\n              swap2\n              jump(tag_96)\n            tag_97:\n              dup3\n              add\n              swap2\n              swap1\n              0x00\n              mstore\n              keccak256(0x00, 0x20)\n              swap1\n            tag_98:\n              dup2\n              sload\n              dup2\n              mstore\n              swap1\n              0x01\n              add\n              swap1\n              0x20\n              add\n              dup1\n              dup4\n              gt\n              tag_98\n              jumpi\n              dup3\n              swap1\n              sub\n              0x1f\n              and\n              dup3\n              add\n              swap2\n            tag_96:\n              pop\n              pop\n              pop\n              pop\n              pop\n              swap1\n              dup1\n              0x04\n              add\n              dup1\n              sload\n              tag_99\n              swap1\n              tag_84\n              jump\t// in\n            tag_99:\n              dup1\n              0x1f\n              add\n              0x20\n              dup1\n              swap2\n              div\n              mul\n              0x20\n              add\n              mload(0x40)\n              swap1\n              dup2\n              add\n              0x40\n              mstore\n              dup1\n              swap3\n              swap2\n              swap1\n              dup2\n              dup2\n              mstore\n              0x20\n              add\n              dup3\n              dup1\n              sload\n              tag_100\n              swap1\n              tag_84\n              jump\t// in\n            tag_100:\n              dup1\n              iszero\n              tag_101\n              jumpi\n              dup1\n              0x1f\n              lt\n              tag_102\n              jumpi\n              0x0100\n              dup1\n              dup4\n              sload\n              div\n              mul\n              dup4\n              mstore\n              swap2\n              0x20\n              add\n              swap2\n              jump(tag_101)\n            tag_102:\n              dup3\n              add\n              swap2\n              swap1\n              0x00\n              mstore\n              keccak256(0x00, 0x20)\n              swap1\n            tag_103:\n              dup2\n              sload\n              dup2\n              mstore\n              swap1\n              0x01\n              add\n              swap1\n              0x20\n              add\n              dup1\n              dup4\n              gt\n              tag_103\n              jumpi\n              dup3\n              swap1\n              sub\n              0x1f\n              and\n              dup3\n              add\n              swap2\n            tag_101:\n              pop\n              pop\n              pop\n              pop\n              pop\n              swap1\n              pop\n              dup6\n              jump\t// out\n                /* \"factoryContract.sol\":5053:5171  function getPatientDocs(uint index) public view returns(string memory){... */\n            tag_32:\n                /* \"factoryContract.sol\":5109:5122  string memory */\n              0x60\n                /* \"factoryContract.sol\":5141:5152  retriveDocs */\n              0x09\n                /* \"factoryContract.sol\":5141:5159  retriveDocs[index] */\n              0x00\n                /* \"factoryContract.sol\":5153:5158  index */\n              dup4\n                /* \"factoryContract.sol\":5141:5159  retriveDocs[index] */\n              dup2\n              mstore\n              0x20\n              add\n              swap1\n              dup2\n              mstore\n              0x20\n              add\n              0x00\n              keccak256\n                /* \"factoryContract.sol\":5141:5163  retriveDocs[index].doc */\n              0x00\n              add\n                /* \"factoryContract.sol\":5134:5163  return retriveDocs[index].doc */\n              dup1\n              sload\n              tag_105\n              swap1\n              tag_84\n              jump\t// in\n            tag_105:\n              dup1\n              0x1f\n              add\n              0x20\n              dup1\n              swap2\n              div\n              mul\n              0x20\n              add\n              mload(0x40)\n              swap1\n              dup2\n              add\n              0x40\n              mstore\n              dup1\n              swap3\n              swap2\n              swap1\n              dup2\n              dup2\n              mstore\n              0x20\n              add\n              dup3\n              dup1\n              sload\n              tag_106\n              swap1\n              tag_84\n              jump\t// in\n            tag_106:\n              dup1\n              iszero\n              tag_107\n              jumpi\n              dup1\n              0x1f\n              lt\n              tag_108\n              jumpi\n              0x0100\n              dup1\n              dup4\n              sload\n              div\n              mul\n              dup4\n              mstore\n              swap2\n              0x20\n              add\n              swap2\n              jump(tag_107)\n            tag_108:\n              dup3\n              add\n              swap2\n              swap1\n              0x00\n              mstore\n              keccak256(0x00, 0x20)\n              swap1\n            tag_109:\n              dup2\n              sload\n              dup2\n              mstore\n              swap1\n              0x01\n              add\n              swap1\n              0x20\n              add\n              dup1\n              dup4\n              gt\n              tag_109\n              jumpi\n              dup3\n              swap1\n              sub\n              0x1f\n              and\n              dup3\n              add\n              swap2\n            tag_107:\n              pop\n              pop\n              pop\n              pop\n              pop\n              swap1\n              pop\n                /* \"factoryContract.sol\":5053:5171  function getPatientDocs(uint index) public view returns(string memory){... */\n              swap2\n              swap1\n              pop\n              jump\t// out\n                /* \"factoryContract.sol\":2224:2265  mapping(address=> bool) public dataAccess */\n            tag_37:\n              mstore(0x20, 0x07)\n              dup1\n              0x00\n              mstore\n              keccak256(0x00, 0x40)\n              0x00\n              swap2\n              pop\n              sload\n              swap1\n              0x0100\n              exp\n              swap1\n              div\n              0xff\n              and\n              dup2\n              jump\t// out\n                /* \"factoryContract.sol\":2300:2344  mapping(uint=>patientDoc) public retriveDocs */\n            tag_42:\n              mstore(0x20, 0x09)\n              dup1\n              0x00\n              mstore\n              keccak256(0x00, 0x40)\n              0x00\n              swap2\n              pop\n              swap1\n              pop\n              dup1\n              0x00\n              add\n              dup1\n              sload\n              tag_110\n              swap1\n              tag_84\n              jump\t// in\n            tag_110:\n              dup1\n              0x1f\n              add\n              0x20\n              dup1\n              swap2\n              div\n              mul\n              0x20\n              add\n              mload(0x40)\n              swap1\n              dup2\n              add\n              0x40\n              mstore\n              dup1\n              swap3\n              swap2\n              swap1\n              dup2\n              dup2\n              mstore\n              0x20\n              add\n              dup3\n              dup1\n              sload\n              tag_111\n              swap1\n              tag_84\n              jump\t// in\n            tag_111:\n              dup1\n              iszero\n              tag_112\n              jumpi\n              dup1\n              0x1f\n              lt\n              tag_113\n              jumpi\n              0x0100\n              dup1\n              dup4\n              sload\n              div\n              mul\n              dup4\n              mstore\n              swap2\n              0x20\n              add\n              swap2\n              jump(tag_112)\n            tag_113:\n              dup3\n              add\n              swap2\n              swap1\n              0x00\n              mstore\n              keccak256(0x00, 0x20)\n              swap1\n            tag_114:\n              dup2\n              sload\n              dup2\n              mstore\n              swap1\n              0x01\n              add\n              swap1\n              0x20\n              add\n              dup1\n              dup4\n              gt\n              tag_114\n              jumpi\n              dup3\n              swap1\n              sub\n              0x1f\n              and\n              dup3\n              add\n              swap2\n            tag_112:\n              pop\n              pop\n              pop\n              pop\n              pop\n              swap1\n              dup1\n              0x01\n              add\n              sload\n              swap1\n              pop\n              dup3\n              jump\t// out\n                /* \"factoryContract.sol\":2351:2389  mapping(uint=>bool) public isValidated */\n            tag_47:\n              mstore(0x20, 0x0a)\n              dup1\n              0x00\n              mstore\n              keccak256(0x00, 0x40)\n              0x00\n              swap2\n              pop\n              sload\n              swap1\n              0x0100\n              exp\n              swap1\n              div\n              0xff\n              and\n              dup2\n              jump\t// out\n                /* \"factoryContract.sol\":2272:2293  uint public docsCount */\n            tag_50:\n              sload(0x08)\n              dup2\n              jump\t// out\n                /* \"factoryContract.sol\":1890:1912  address public Patient */\n            tag_54:\n              0x01\n              0x00\n              swap1\n              sload\n              swap1\n              0x0100\n              exp\n              swap1\n              div\n              0xffffffffffffffffffffffffffffffffffffffff\n              and\n              dup2\n              jump\t// out\n                /* \"factoryContract.sol\":1861:1883  address public Factory */\n            tag_58:\n              0x00\n              dup1\n              sload\n              swap1\n              0x0100\n              exp\n              swap1\n              div\n              0xffffffffffffffffffffffffffffffffffffffff\n              and\n              dup2\n              jump\t// out\n                /* \"factoryContract.sol\":3421:3871  function changePatientDetails(string memory _name, uint _age, string memory _birth, string memory _gender,string memory _phone) public {... */\n            tag_63:\n                /* \"factoryContract.sol\":3567:3599  details memory newStructInstance */\n              0x00\n                /* \"factoryContract.sol\":3602:3818  details({... */\n              mload(0x40)\n              dup1\n              0xa0\n              add\n              0x40\n              mstore\n              dup1\n                /* \"factoryContract.sol\":3638:3643  _name */\n              dup8\n                /* \"factoryContract.sol\":3602:3818  details({... */\n              dup2\n              mstore\n              0x20\n              add\n                /* \"factoryContract.sol\":3663:3667  _age */\n              dup7\n                /* \"factoryContract.sol\":3602:3818  details({... */\n              dup2\n              mstore\n              0x20\n              add\n                /* \"factoryContract.sol\":3690:3696  _birth */\n              dup6\n                /* \"factoryContract.sol\":3602:3818  details({... */\n              dup2\n              mstore\n              0x20\n              add\n                /* \"factoryContract.sol\":3720:3727  _gender */\n              dup5\n                /* \"factoryContract.sol\":3602:3818  details({... */\n              dup2\n              mstore\n              0x20\n              add\n                /* \"factoryContract.sol\":3750:3756  _phone */\n              dup4\n                /* \"factoryContract.sol\":3602:3818  details({... */\n              dup2\n              mstore\n              pop\n                /* \"factoryContract.sol\":3567:3818  details memory newStructInstance = details({... */\n              swap1\n              pop\n                /* \"factoryContract.sol\":3846:3863  newStructInstance */\n              dup1\n                /* \"factoryContract.sol\":3829:3843  patientDetails */\n              0x02\n                /* \"factoryContract.sol\":3829:3863  patientDetails = newStructInstance */\n              0x00\n              dup3\n              add\n              mload\n              dup2\n              0x00\n              add\n              swap1\n              dup1\n              mload\n              swap1\n              0x20\n              add\n              swap1\n              tag_116\n              swap3\n              swap2\n              swap1\n              tag_117\n              jump\t// in\n            tag_116:\n              pop\n              0x20\n              dup3\n              add\n              mload\n              dup2\n              0x01\n              add\n              sstore\n              0x40\n              dup3\n              add\n              mload\n              dup2\n              0x02\n              add\n              swap1\n              dup1\n              mload\n              swap1\n              0x20\n              add\n              swap1\n              tag_118\n              swap3\n              swap2\n              swap1\n              tag_117\n              jump\t// in\n            tag_118:\n              pop\n              0x60\n              dup3\n              add\n              mload\n              dup2\n              0x03\n              add\n              swap1\n              dup1\n              mload\n              swap1\n              0x20\n              add\n              swap1\n              tag_119\n              swap3\n              swap2\n              swap1\n              tag_117\n              jump\t// in\n            tag_119:\n              pop\n              0x80\n              dup3\n              add\n              mload\n              dup2\n              0x04\n              add\n              swap1\n              dup1\n              mload\n              swap1\n              0x20\n              add\n              swap1\n              tag_120\n              swap3\n              swap2\n              swap1\n              tag_117\n              jump\t// in\n            tag_120:\n              pop\n              swap1\n              pop\n              pop\n                /* \"factoryContract.sol\":3556:3871  {... */\n              pop\n                /* \"factoryContract.sol\":3421:3871  function changePatientDetails(string memory _name, uint _age, string memory _birth, string memory _gender,string memory _phone) public {... */\n              pop\n              pop\n              pop\n              pop\n              pop\n              jump\t// out\n                /* \"factoryContract.sol\":2443:2464  uint public profCount */\n            tag_65:\n              sload(0x0c)\n              dup2\n              jump\t// out\n                /* \"factoryContract.sol\":3879:4937  function insertPatientDocs(string memory data, uint curr) public {... */\n            tag_70:\n                /* \"factoryContract.sol\":3965:3989  patientDoc memory newDoc */\n              0x00\n                /* \"factoryContract.sol\":3992:4080  patientDoc({... */\n              mload(0x40)\n              dup1\n              0x40\n              add\n              0x40\n              mstore\n              dup1\n                /* \"factoryContract.sol\":4024:4028  data */\n              dup5\n                /* \"factoryContract.sol\":3992:4080  patientDoc({... */\n              dup2\n              mstore\n              0x20\n              add\n                /* \"factoryContract.sol\":4053:4068  block.timestamp */\n              timestamp\n                /* \"factoryContract.sol\":3992:4080  patientDoc({... */\n              dup2\n              mstore\n              pop\n                /* \"factoryContract.sol\":3965:4080  patientDoc memory newDoc = patientDoc({... */\n              swap1\n              pop\n                /* \"factoryContract.sol\":4116:4122  newDoc */\n              dup1\n                /* \"factoryContract.sol\":4091:4102  retriveDocs */\n              0x09\n                /* \"factoryContract.sol\":4091:4113  retriveDocs[docsCount] */\n              0x00\n                /* \"factoryContract.sol\":4103:4112  docsCount */\n              sload(0x08)\n                /* \"factoryContract.sol\":4091:4113  retriveDocs[docsCount] */\n              dup2\n              mstore\n              0x20\n              add\n              swap1\n              dup2\n              mstore\n              0x20\n              add\n              0x00\n              keccak256\n                /* \"factoryContract.sol\":4091:4122  retriveDocs[docsCount] = newDoc */\n              0x00\n              dup3\n              add\n              mload\n              dup2\n              0x00\n              add\n              swap1\n              dup1\n              mload\n              swap1\n              0x20\n              add\n              swap1\n              tag_122\n              swap3\n              swap2\n              swap1\n              tag_117\n              jump\t// in\n            tag_122:\n              pop\n              0x20\n              dup3\n              add\n              mload\n              dup2\n              0x01\n              add\n              sstore\n              swap1\n              pop\n              pop\n                /* \"factoryContract.sol\":4270:4282  bool success */\n              0x00\n                /* \"factoryContract.sol\":4284:4309  bytes memory returnedData */\n              dup1\n                /* \"factoryContract.sol\":4321:4328  Factory */\n              0x00\n              dup1\n              sload\n              swap1\n              0x0100\n              exp\n              swap1\n              div\n              0xffffffffffffffffffffffffffffffffffffffff\n              and\n                /* \"factoryContract.sol\":4313:4334  address(Factory).call */\n              0xffffffffffffffffffffffffffffffffffffffff\n              and\n                /* \"factoryContract.sol\":4386:4390  curr */\n              dup5\n                /* \"factoryContract.sol\":4335:4391  abi.encodeWithSignature(\"getMedicalProf(uint256)\", curr) */\n              add(0x24, mload(0x40))\n              tag_123\n              swap2\n              swap1\n              tag_52\n              jump\t// in\n            tag_123:\n              mload(0x40)\n              0x20\n              dup2\n              dup4\n              sub\n              sub\n              dup2\n              mstore\n              swap1\n              0x40\n              mstore\n              and(not(0xffffffffffffffffffffffffffffffffffffffffffffffffffffffff), 0x15fe62e600000000000000000000000000000000000000000000000000000000)\n              0x20\n              dup3\n              add\n              dup1\n              mload\n              0xffffffffffffffffffffffffffffffffffffffffffffffffffffffff\n              dup4\n              dup2\n              dup4\n              and\n              or\n              dup4\n              mstore\n              pop\n              pop\n              pop\n              pop\n                /* \"factoryContract.sol\":4313:4392  address(Factory).call(abi.encodeWithSignature(\"getMedicalProf(uint256)\", curr)) */\n              mload(0x40)\n              tag_124\n              swap2\n              swap1\n              tag_125\n              jump\t// in\n            tag_124:\n              0x00\n              mload(0x40)\n              dup1\n              dup4\n              sub\n              dup2\n              0x00\n              dup7\n              gas\n              call\n              swap2\n              pop\n              pop\n              returndatasize\n              dup1\n              0x00\n              dup2\n              eq\n              tag_128\n              jumpi\n              mload(0x40)\n              swap2\n              pop\n              and(add(returndatasize, 0x3f), not(0x1f))\n              dup3\n              add\n              0x40\n              mstore\n              returndatasize\n              dup3\n              mstore\n              returndatasize\n              0x00\n              0x20\n              dup5\n              add\n              returndatacopy\n              jump(tag_127)\n            tag_128:\n              0x60\n              swap2\n              pop\n            tag_127:\n              pop\n                /* \"factoryContract.sol\":4269:4392  (bool success, bytes memory returnedData) = address(Factory).call(abi.encodeWithSignature(\"getMedicalProf(uint256)\", curr)) */\n              swap2\n              pop\n              swap2\n              pop\n                /* \"factoryContract.sol\":4411:4418  success */\n              dup2\n                /* \"factoryContract.sol\":4403:4433  require(success,\"some error1\") */\n              tag_129\n              jumpi\n              mload(0x40)\n              0x08c379a000000000000000000000000000000000000000000000000000000000\n              dup2\n              mstore\n              0x04\n              add\n              tag_130\n              swap1\n              tag_131\n              jump\t// in\n            tag_130:\n              mload(0x40)\n              dup1\n              swap2\n              sub\n              swap1\n              revert\n            tag_129:\n                /* \"factoryContract.sol\":4444:4460  address currProf */\n              0x00\n                /* \"factoryContract.sol\":4474:4486  returnedData */\n              dup2\n                /* \"factoryContract.sol\":4463:4498  abi.decode(returnedData, (address)) */\n              dup1\n              0x20\n              add\n              swap1\n              mload\n              dup2\n              add\n              swap1\n              tag_132\n              swap2\n              swap1\n              tag_133\n              jump\t// in\n            tag_132:\n                /* \"factoryContract.sol\":4444:4498  address currProf = abi.decode(returnedData, (address)) */\n              swap1\n              pop\n                /* \"factoryContract.sol\":4533:4538  false */\n              0x00\n                /* \"factoryContract.sol\":4512:4538  profTrack[currProf]==false */\n              iszero\n              iszero\n                /* \"factoryContract.sol\":4512:4521  profTrack */\n              0x0d\n                /* \"factoryContract.sol\":4512:4531  profTrack[currProf] */\n              0x00\n                /* \"factoryContract.sol\":4522:4530  currProf */\n              dup4\n                /* \"factoryContract.sol\":4512:4531  profTrack[currProf] */\n              0xffffffffffffffffffffffffffffffffffffffff\n              and\n              0xffffffffffffffffffffffffffffffffffffffff\n              and\n              dup2\n              mstore\n              0x20\n              add\n              swap1\n              dup2\n              mstore\n              0x20\n              add\n              0x00\n              keccak256\n              0x00\n              swap1\n              sload\n              swap1\n              0x0100\n              exp\n              swap1\n              div\n              0xff\n              and\n                /* \"factoryContract.sol\":4512:4538  profTrack[currProf]==false */\n              iszero\n              iszero\n              eq\n                /* \"factoryContract.sol\":4509:4668  if(profTrack[currProf]==false){... */\n              iszero\n              tag_134\n              jumpi\n                /* \"factoryContract.sol\":4578:4586  currProf */\n              dup1\n                /* \"factoryContract.sol\":4554:4564  allMedProf */\n              0x0b\n                /* \"factoryContract.sol\":4554:4575  allMedProf[profCount] */\n              0x00\n                /* \"factoryContract.sol\":4565:4574  profCount */\n              sload(0x0c)\n                /* \"factoryContract.sol\":4554:4575  allMedProf[profCount] */\n              dup2\n              mstore\n              0x20\n              add\n              swap1\n              dup2\n              mstore\n              0x20\n              add\n              0x00\n              keccak256\n              0x00\n                /* \"factoryContract.sol\":4554:4586  allMedProf[profCount] = currProf */\n              0x0100\n              exp\n              dup2\n              sload\n              dup2\n              0xffffffffffffffffffffffffffffffffffffffff\n              mul\n              not\n              and\n              swap1\n              dup4\n              0xffffffffffffffffffffffffffffffffffffffff\n              and\n              mul\n              or\n              swap1\n              sstore\n              pop\n                /* \"factoryContract.sol\":4612:4613  1 */\n              0x01\n                /* \"factoryContract.sol\":4601:4610  profCount */\n              0x0c\n              0x00\n                /* \"factoryContract.sol\":4601:4613  profCount+=1 */\n              dup3\n              dup3\n              sload\n              tag_135\n              swap2\n              swap1\n              tag_136\n              jump\t// in\n            tag_135:\n              swap3\n              pop\n              pop\n              dup2\n              swap1\n              sstore\n              pop\n                /* \"factoryContract.sol\":4650:4654  true */\n              0x01\n                /* \"factoryContract.sol\":4628:4637  profTrack */\n              0x0d\n                /* \"factoryContract.sol\":4628:4647  profTrack[currProf] */\n              0x00\n                /* \"factoryContract.sol\":4638:4646  currProf */\n              dup4\n                /* \"factoryContract.sol\":4628:4647  profTrack[currProf] */\n              0xffffffffffffffffffffffffffffffffffffffff\n              and\n              0xffffffffffffffffffffffffffffffffffffffff\n              and\n              dup2\n              mstore\n              0x20\n              add\n              swap1\n              dup2\n              mstore\n              0x20\n              add\n              0x00\n              keccak256\n              0x00\n                /* \"factoryContract.sol\":4628:4654  profTrack[currProf] = true */\n              0x0100\n              exp\n              dup2\n              sload\n              dup2\n              0xff\n              mul\n              not\n              and\n              swap1\n              dup4\n              iszero\n              iszero\n              mul\n              or\n              swap1\n              sstore\n              pop\n                /* \"factoryContract.sol\":4509:4668  if(profTrack[currProf]==false){... */\n            tag_134:\n                /* \"factoryContract.sol\":4683:4704  addressProf(currProf) */\n              0x61a7191fa43dd24da3681728a7fc2c57614cf4aa128b0530c974742cbbf07e23\n                /* \"factoryContract.sol\":4695:4703  currProf */\n              dup2\n                /* \"factoryContract.sol\":4683:4704  addressProf(currProf) */\n              mload(0x40)\n              tag_137\n              swap2\n              swap1\n              tag_56\n              jump\t// in\n            tag_137:\n              mload(0x40)\n              dup1\n              swap2\n              sub\n              swap1\n              log1\n                /* \"factoryContract.sol\":4716:4729  bool success2 */\n              0x00\n                /* \"factoryContract.sol\":4743:4751  currProf */\n              dup2\n                /* \"factoryContract.sol\":4735:4757  address(currProf).call */\n              0xffffffffffffffffffffffffffffffffffffffff\n              and\n                /* \"factoryContract.sol\":4813:4822  docsCount */\n              sload(0x08)\n                /* \"factoryContract.sol\":4823:4830  Patient */\n              0x01\n              0x00\n              swap1\n              sload\n              swap1\n              0x0100\n              exp\n              swap1\n              div\n              0xffffffffffffffffffffffffffffffffffffffff\n              and\n                /* \"factoryContract.sol\":4758:4831  abi.encodeWithSignature(\"addReports(uint256,address)\", docsCount,Patient) */\n              add(0x24, mload(0x40))\n              tag_138\n              swap3\n              swap2\n              swap1\n              tag_139\n              jump\t// in\n            tag_138:\n              mload(0x40)\n              0x20\n              dup2\n              dup4\n              sub\n              sub\n              dup2\n              mstore\n              swap1\n              0x40\n              mstore\n              and(not(0xffffffffffffffffffffffffffffffffffffffffffffffffffffffff), 0x376f4e4900000000000000000000000000000000000000000000000000000000)\n              0x20\n              dup3\n              add\n              dup1\n              mload\n              0xffffffffffffffffffffffffffffffffffffffffffffffffffffffff\n              dup4\n              dup2\n              dup4\n              and\n              or\n              dup4\n              mstore\n              pop\n              pop\n              pop\n              pop\n                /* \"factoryContract.sol\":4735:4832  address(currProf).call(abi.encodeWithSignature(\"addReports(uint256,address)\", docsCount,Patient)) */\n              mload(0x40)\n              tag_140\n              swap2\n              swap1\n              tag_125\n              jump\t// in\n            tag_140:\n              0x00\n              mload(0x40)\n              dup1\n              dup4\n              sub\n              dup2\n              0x00\n              dup7\n              gas\n              call\n              swap2\n              pop\n              pop\n              returndatasize\n              dup1\n              0x00\n              dup2\n              eq\n              tag_143\n              jumpi\n              mload(0x40)\n              swap2\n              pop\n              and(add(returndatasize, 0x3f), not(0x1f))\n              dup3\n              add\n              0x40\n              mstore\n              returndatasize\n              dup3\n              mstore\n              returndatasize\n              0x00\n              0x20\n              dup5\n              add\n              returndatacopy\n              jump(tag_142)\n            tag_143:\n              0x60\n              swap2\n              pop\n            tag_142:\n              pop\n                /* \"factoryContract.sol\":4715:4832  (bool success2, ) = address(currProf).call(abi.encodeWithSignature(\"addReports(uint256,address)\", docsCount,Patient)) */\n              pop\n              swap1\n              pop\n                /* \"factoryContract.sol\":4854:4855  1 */\n              0x01\n                /* \"factoryContract.sol\":4843:4852  docsCount */\n              0x08\n              0x00\n                /* \"factoryContract.sol\":4843:4855  docsCount+=1 */\n              dup3\n              dup3\n              sload\n              tag_144\n              swap2\n              swap1\n              tag_136\n              jump\t// in\n            tag_144:\n              swap3\n              pop\n              pop\n              dup2\n              swap1\n              sstore\n              pop\n                /* \"factoryContract.sol\":4874:4882  success2 */\n              dup1\n                /* \"factoryContract.sol\":4866:4897  require(success2,\"some error2\") */\n              tag_145\n              jumpi\n              mload(0x40)\n              0x08c379a000000000000000000000000000000000000000000000000000000000\n              dup2\n              mstore\n              0x04\n              add\n              tag_146\n              swap1\n              tag_147\n              jump\t// in\n            tag_146:\n              mload(0x40)\n              dup1\n              swap2\n              sub\n              swap1\n              revert\n            tag_145:\n                /* \"factoryContract.sol\":3944:4937  {... */\n              pop\n              pop\n              pop\n              pop\n              pop\n                /* \"factoryContract.sol\":3879:4937  function insertPatientDocs(string memory data, uint curr) public {... */\n              pop\n              pop\n              jump\t// out\n                /* \"factoryContract.sol\":3084:3413  function getPatientDetails() public view returns(string memory,uint,string memory,string memory,string memory){... */\n            tag_72:\n                /* \"factoryContract.sol\":3133:3146  string memory */\n              0x60\n                /* \"factoryContract.sol\":3147:3151  uint */\n              0x00\n                /* \"factoryContract.sol\":3152:3165  string memory */\n              0x60\n                /* \"factoryContract.sol\":3166:3179  string memory */\n              dup1\n                /* \"factoryContract.sol\":3180:3193  string memory */\n              0x60\n                /* \"factoryContract.sol\":3227:3241  patientDetails */\n              0x02\n                /* \"factoryContract.sol\":3227:3253  patientDetails.patientName */\n              0x00\n              add\n                /* \"factoryContract.sol\":3268:3282  patientDetails */\n              0x02\n                /* \"factoryContract.sol\":3268:3286  patientDetails.age */\n              0x01\n              add\n              sload\n                /* \"factoryContract.sol\":3301:3315  patientDetails */\n              0x02\n                /* \"factoryContract.sol\":3301:3321  patientDetails.birth */\n              dup1\n              add\n                /* \"factoryContract.sol\":3336:3350  patientDetails */\n              0x02\n                /* \"factoryContract.sol\":3336:3357  patientDetails.gender */\n              0x03\n              add\n                /* \"factoryContract.sol\":3372:3386  patientDetails */\n              0x02\n                /* \"factoryContract.sol\":3372:3392  patientDetails.phone */\n              0x04\n              add\n                /* \"factoryContract.sol\":3205:3405  return (... */\n              dup5\n              dup1\n              sload\n              tag_149\n              swap1\n              tag_84\n              jump\t// in\n            tag_149:\n              dup1\n              0x1f\n              add\n              0x20\n              dup1\n              swap2\n              div\n              mul\n              0x20\n              add\n              mload(0x40)\n              swap1\n              dup2\n              add\n              0x40\n              mstore\n              dup1\n              swap3\n              swap2\n              swap1\n              dup2\n              dup2\n              mstore\n              0x20\n              add\n              dup3\n              dup1\n              sload\n              tag_150\n              swap1\n              tag_84\n              jump\t// in\n            tag_150:\n              dup1\n              iszero\n              tag_151\n              jumpi\n              dup1\n              0x1f\n              lt\n              tag_152\n              jumpi\n              0x0100\n              dup1\n              dup4\n              sload\n              div\n              mul\n              dup4\n              mstore\n              swap2\n              0x20\n              add\n              swap2\n              jump(tag_151)\n            tag_152:\n              dup3\n              add\n              swap2\n              swap1\n              0x00\n              mstore\n              keccak256(0x00, 0x20)\n              swap1\n            tag_153:\n              dup2\n              sload\n              dup2\n              mstore\n              swap1\n              0x01\n              add\n              swap1\n              0x20\n              add\n              dup1\n              dup4\n              gt\n              tag_153\n              jumpi\n              dup3\n              swap1\n              sub\n              0x1f\n              and\n              dup3\n              add\n              swap2\n            tag_151:\n              pop\n              pop\n              pop\n              pop\n              pop\n              swap5\n              pop\n              dup3\n              dup1\n              sload\n              tag_154\n              swap1\n              tag_84\n              jump\t// in\n            tag_154:\n              dup1\n              0x1f\n              add\n              0x20\n              dup1\n              swap2\n              div\n              mul\n              0x20\n              add\n              mload(0x40)\n              swap1\n              dup2\n              add\n              0x40\n              mstore\n              dup1\n              swap3\n              swap2\n              swap1\n              dup2\n              dup2\n              mstore\n              0x20\n              add\n              dup3\n              dup1\n              sload\n              tag_155\n              swap1\n              tag_84\n              jump\t// in\n            tag_155:\n              dup1\n              iszero\n              tag_156\n              jumpi\n              dup1\n              0x1f\n              lt\n              tag_157\n              jumpi\n              0x0100\n              dup1\n              dup4\n              sload\n              div\n              mul\n              dup4\n              mstore\n              swap2\n              0x20\n              add\n              swap2\n              jump(tag_156)\n            tag_157:\n              dup3\n              add\n              swap2\n              swap1\n              0x00\n              mstore\n              keccak256(0x00, 0x20)\n              swap1\n            tag_158:\n              dup2\n              sload\n              dup2\n              mstore\n              swap1\n              0x01\n              add\n              swap1\n              0x20\n              add\n              dup1\n              dup4\n              gt\n              tag_158\n              jumpi\n              dup3\n              swap1\n              sub\n              0x1f\n              and\n              dup3\n              add\n              swap2\n            tag_156:\n              pop\n              pop\n              pop\n              pop\n              pop\n              swap3\n              pop\n              dup2\n              dup1\n              sload\n              tag_159\n              swap1\n              tag_84\n              jump\t// in\n            tag_159:\n              dup1\n              0x1f\n              add\n              0x20\n              dup1\n              swap2\n              div\n              mul\n              0x20\n              add\n              mload(0x40)\n              swap1\n              dup2\n              add\n              0x40\n              mstore\n              dup1\n              swap3\n              swap2\n              swap1\n              dup2\n              dup2\n              mstore\n              0x20\n              add\n              dup3\n              dup1\n              sload\n              tag_160\n              swap1\n              tag_84\n              jump\t// in\n            tag_160:\n              dup1\n              iszero\n              tag_161\n              jumpi\n              dup1\n              0x1f\n              lt\n              tag_162\n              jumpi\n              0x0100\n              dup1\n              dup4\n              sload\n              div\n              mul\n              dup4\n              mstore\n              swap2\n              0x20\n              add\n              swap2\n              jump(tag_161)\n            tag_162:\n              dup3\n              add\n              swap2\n              swap1\n              0x00\n              mstore\n              keccak256(0x00, 0x20)\n              swap1\n            tag_163:\n              dup2\n              sload\n              dup2\n              mstore\n              swap1\n              0x01\n              add\n              swap1\n              0x20\n              add\n              dup1\n              dup4\n              gt\n              tag_163\n              jumpi\n              dup3\n              swap1\n              sub\n              0x1f\n              and\n              dup3\n              add\n              swap2\n            tag_161:\n              pop\n              pop\n              pop\n              pop\n              pop\n              swap2\n              pop\n              dup1\n              dup1\n              sload\n              tag_164\n              swap1\n              tag_84\n              jump\t// in\n            tag_164:\n              dup1\n              0x1f\n              add\n              0x20\n              dup1\n              swap2\n              div\n              mul\n              0x20\n              add\n              mload(0x40)\n              swap1\n              dup2\n              add\n              0x40\n              mstore\n              dup1\n              swap3\n              swap2\n              swap1\n              dup2\n              dup2\n              mstore\n              0x20\n              add\n              dup3\n              dup1\n              sload\n              tag_165\n              swap1\n              tag_84\n              jump\t// in\n            tag_165:\n              dup1\n              iszero\n              tag_166\n              jumpi\n              dup1\n              0x1f\n              lt\n              tag_167\n              jumpi\n              0x0100\n              dup1\n              dup4\n              sload\n              div\n              mul\n              dup4\n              mstore\n              swap2\n              0x20\n              add\n              swap2\n              jump(tag_166)\n            tag_167:\n              dup3\n              add\n              swap2\n              swap1\n              0x00\n              mstore\n              keccak256(0x00, 0x20)\n              swap1\n            tag_168:\n              dup2\n              sload\n              dup2\n              mstore\n              swap1\n              0x01\n              add\n              swap1\n              0x20\n              add\n              dup1\n              dup4\n              gt\n              tag_168\n              jumpi\n              dup3\n              swap1\n              sub\n              0x1f\n              and\n              dup3\n              add\n              swap2\n            tag_166:\n              pop\n              pop\n              pop\n              pop\n              pop\n              swap1\n              pop\n              swap5\n              pop\n              swap5\n              pop\n              swap5\n              pop\n              swap5\n              pop\n              swap5\n              pop\n                /* \"factoryContract.sol\":3084:3413  function getPatientDetails() public view returns(string memory,uint,string memory,string memory,string memory){... */\n              swap1\n              swap2\n              swap3\n              swap4\n              swap5\n              jump\t// out\n                /* \"factoryContract.sol\":2471:2510  mapping(address=>bool) public profTrack */\n            tag_76:\n              mstore(0x20, 0x0d)\n              dup1\n              0x00\n              mstore\n              keccak256(0x00, 0x40)\n              0x00\n              swap2\n              pop\n              sload\n              swap1\n              0x0100\n              exp\n              swap1\n              div\n              0xff\n              and\n              dup2\n              jump\t// out\n                /* \"factoryContract.sol\":2396:2436  mapping(uint=>address) public allMedProf */\n            tag_80:\n              mstore(0x20, 0x0b)\n              dup1\n              0x00\n              mstore\n              keccak256(0x00, 0x40)\n              0x00\n              swap2\n              pop\n              sload\n              swap1\n              0x0100\n              exp\n              swap1\n              div\n              0xffffffffffffffffffffffffffffffffffffffff\n              and\n              dup2\n              jump\t// out\n            tag_117:\n              dup3\n              dup1\n              sload\n              tag_169\n              swap1\n              tag_84\n              jump\t// in\n            tag_169:\n              swap1\n              0x00\n              mstore\n              keccak256(0x00, 0x20)\n              swap1\n              0x1f\n              add\n              0x20\n              swap1\n              div\n              dup2\n              add\n              swap3\n              dup3\n              tag_171\n              jumpi\n              0x00\n              dup6\n              sstore\n              jump(tag_170)\n            tag_171:\n              dup3\n              0x1f\n              lt\n              tag_172\n              jumpi\n              dup1\n              mload\n              not(0xff)\n              and\n              dup4\n              dup1\n              add\n              or\n              dup6\n              sstore\n              jump(tag_170)\n            tag_172:\n              dup3\n              dup1\n              add\n              0x01\n              add\n              dup6\n              sstore\n              dup3\n              iszero\n              tag_170\n              jumpi\n              swap2\n              dup3\n              add\n            tag_173:\n              dup3\n              dup2\n              gt\n              iszero\n              tag_174\n              jumpi\n              dup3\n              mload\n              dup3\n              sstore\n              swap2\n              0x20\n              add\n              swap2\n              swap1\n              0x01\n              add\n              swap1\n              jump(tag_173)\n            tag_174:\n            tag_170:\n              pop\n              swap1\n              pop\n              tag_175\n              swap2\n              swap1\n              tag_176\n              jump\t// in\n            tag_175:\n              pop\n              swap1\n              jump\t// out\n            tag_176:\n            tag_177:\n              dup1\n              dup3\n              gt\n              iszero\n              tag_178\n              jumpi\n              0x00\n              dup2\n              0x00\n              swap1\n              sstore\n              pop\n              0x01\n              add\n              jump(tag_177)\n            tag_178:\n              pop\n              swap1\n              jump\t// out\n                /* \"#utility.yul\":7:82   */\n            tag_179:\n                /* \"#utility.yul\":40:46   */\n              0x00\n                /* \"#utility.yul\":73:75   */\n              0x40\n                /* \"#utility.yul\":67:76   */\n              mload\n                /* \"#utility.yul\":57:76   */\n              swap1\n              pop\n                /* \"#utility.yul\":7:82   */\n              swap1\n              jump\t// out\n                /* \"#utility.yul\":88:205   */\n            tag_180:\n                /* \"#utility.yul\":197:198   */\n              0x00\n                /* \"#utility.yul\":194:195   */\n              dup1\n                /* \"#utility.yul\":187:199   */\n              revert\n                /* \"#utility.yul\":211:328   */\n            tag_181:\n                /* \"#utility.yul\":320:321   */\n              0x00\n                /* \"#utility.yul\":317:318   */\n              dup1\n                /* \"#utility.yul\":310:322   */\n              revert\n                /* \"#utility.yul\":334:460   */\n            tag_182:\n                /* \"#utility.yul\":371:378   */\n              0x00\n                /* \"#utility.yul\":411:453   */\n              0xffffffffffffffffffffffffffffffffffffffff\n                /* \"#utility.yul\":404:409   */\n              dup3\n                /* \"#utility.yul\":400:454   */\n              and\n                /* \"#utility.yul\":389:454   */\n              swap1\n              pop\n                /* \"#utility.yul\":334:460   */\n              swap2\n              swap1\n              pop\n              jump\t// out\n                /* \"#utility.yul\":466:562   */\n            tag_183:\n                /* \"#utility.yul\":503:510   */\n              0x00\n                /* \"#utility.yul\":532:556   */\n              tag_225\n                /* \"#utility.yul\":550:555   */\n              dup3\n                /* \"#utility.yul\":532:556   */\n              tag_182\n              jump\t// in\n            tag_225:\n                /* \"#utility.yul\":521:556   */\n              swap1\n              pop\n                /* \"#utility.yul\":466:562   */\n              swap2\n              swap1\n              pop\n              jump\t// out\n                /* \"#utility.yul\":568:690   */\n            tag_184:\n                /* \"#utility.yul\":641:665   */\n              tag_227\n                /* \"#utility.yul\":659:664   */\n              dup2\n                /* \"#utility.yul\":641:665   */\n              tag_183\n              jump\t// in\n            tag_227:\n                /* \"#utility.yul\":634:639   */\n              dup2\n                /* \"#utility.yul\":631:666   */\n              eq\n                /* \"#utility.yul\":621:684   */\n              tag_228\n              jumpi\n                /* \"#utility.yul\":680:681   */\n              0x00\n                /* \"#utility.yul\":677:678   */\n              dup1\n                /* \"#utility.yul\":670:682   */\n              revert\n                /* \"#utility.yul\":621:684   */\n            tag_228:\n                /* \"#utility.yul\":568:690   */\n              pop\n              jump\t// out\n                /* \"#utility.yul\":696:835   */\n            tag_185:\n                /* \"#utility.yul\":742:747   */\n              0x00\n                /* \"#utility.yul\":780:786   */\n              dup2\n                /* \"#utility.yul\":767:787   */\n              calldataload\n                /* \"#utility.yul\":758:787   */\n              swap1\n              pop\n                /* \"#utility.yul\":796:829   */\n              tag_230\n                /* \"#utility.yul\":823:828   */\n              dup2\n                /* \"#utility.yul\":796:829   */\n              tag_184\n              jump\t// in\n            tag_230:\n                /* \"#utility.yul\":696:835   */\n              swap3\n              swap2\n              pop\n              pop\n              jump\t// out\n                /* \"#utility.yul\":841:1170   */\n            tag_23:\n                /* \"#utility.yul\":900:906   */\n              0x00\n                /* \"#utility.yul\":949:951   */\n              0x20\n                /* \"#utility.yul\":937:946   */\n              dup3\n                /* \"#utility.yul\":928:935   */\n              dup5\n                /* \"#utility.yul\":924:947   */\n              sub\n                /* \"#utility.yul\":920:952   */\n              slt\n                /* \"#utility.yul\":917:1036   */\n              iszero\n              tag_232\n              jumpi\n                /* \"#utility.yul\":955:1034   */\n              tag_233\n              tag_180\n              jump\t// in\n            tag_233:\n                /* \"#utility.yul\":917:1036   */\n            tag_232:\n                /* \"#utility.yul\":1075:1076   */\n              0x00\n                /* \"#utility.yul\":1100:1153   */\n              tag_234\n                /* \"#utility.yul\":1145:1152   */\n              dup5\n                /* \"#utility.yul\":1136:1142   */\n              dup3\n                /* \"#utility.yul\":1125:1134   */\n              dup6\n                /* \"#utility.yul\":1121:1143   */\n              add\n                /* \"#utility.yul\":1100:1153   */\n              tag_185\n              jump\t// in\n            tag_234:\n                /* \"#utility.yul\":1090:1153   */\n              swap2\n              pop\n                /* \"#utility.yul\":1046:1163   */\n              pop\n                /* \"#utility.yul\":841:1170   */\n              swap3\n              swap2\n              pop\n              pop\n              jump\t// out\n                /* \"#utility.yul\":1176:1275   */\n            tag_186:\n                /* \"#utility.yul\":1228:1234   */\n              0x00\n                /* \"#utility.yul\":1262:1267   */\n              dup2\n                /* \"#utility.yul\":1256:1268   */\n              mload\n                /* \"#utility.yul\":1246:1268   */\n              swap1\n              pop\n                /* \"#utility.yul\":1176:1275   */\n              swap2\n              swap1\n              pop\n              jump\t// out\n                /* \"#utility.yul\":1281:1450   */\n            tag_187:\n                /* \"#utility.yul\":1365:1376   */\n              0x00\n                /* \"#utility.yul\":1399:1405   */\n              dup3\n                /* \"#utility.yul\":1394:1397   */\n              dup3\n                /* \"#utility.yul\":1387:1406   */\n              mstore\n                /* \"#utility.yul\":1439:1443   */\n              0x20\n                /* \"#utility.yul\":1434:1437   */\n              dup3\n                /* \"#utility.yul\":1430:1444   */\n              add\n                /* \"#utility.yul\":1415:1444   */\n              swap1\n              pop\n                /* \"#utility.yul\":1281:1450   */\n              swap3\n              swap2\n              pop\n              pop\n              jump\t// out\n                /* \"#utility.yul\":1456:1763   */\n            tag_188:\n                /* \"#utility.yul\":1524:1525   */\n              0x00\n                /* \"#utility.yul\":1534:1647   */\n            tag_238:\n                /* \"#utility.yul\":1548:1554   */\n              dup4\n                /* \"#utility.yul\":1545:1546   */\n              dup2\n                /* \"#utility.yul\":1542:1555   */\n              lt\n                /* \"#utility.yul\":1534:1647   */\n              iszero\n              tag_240\n              jumpi\n                /* \"#utility.yul\":1633:1634   */\n              dup1\n                /* \"#utility.yul\":1628:1631   */\n              dup3\n                /* \"#utility.yul\":1624:1635   */\n              add\n                /* \"#utility.yul\":1618:1636   */\n              mload\n                /* \"#utility.yul\":1614:1615   */\n              dup2\n                /* \"#utility.yul\":1609:1612   */\n              dup5\n                /* \"#utility.yul\":1605:1616   */\n              add\n                /* \"#utility.yul\":1598:1637   */\n              mstore\n                /* \"#utility.yul\":1570:1572   */\n              0x20\n                /* \"#utility.yul\":1567:1568   */\n              dup2\n                /* \"#utility.yul\":1563:1573   */\n              add\n                /* \"#utility.yul\":1558:1573   */\n              swap1\n              pop\n                /* \"#utility.yul\":1534:1647   */\n              jump(tag_238)\n            tag_240:\n                /* \"#utility.yul\":1665:1671   */\n              dup4\n                /* \"#utility.yul\":1662:1663   */\n              dup2\n                /* \"#utility.yul\":1659:1672   */\n              gt\n                /* \"#utility.yul\":1656:1757   */\n              iszero\n              tag_241\n              jumpi\n                /* \"#utility.yul\":1745:1746   */\n              0x00\n                /* \"#utility.yul\":1736:1742   */\n              dup5\n                /* \"#utility.yul\":1731:1734   */\n              dup5\n                /* \"#utility.yul\":1727:1743   */\n              add\n                /* \"#utility.yul\":1720:1747   */\n              mstore\n                /* \"#utility.yul\":1656:1757   */\n            tag_241:\n                /* \"#utility.yul\":1505:1763   */\n              pop\n                /* \"#utility.yul\":1456:1763   */\n              pop\n              pop\n              pop\n              jump\t// out\n                /* \"#utility.yul\":1769:1871   */\n            tag_189:\n                /* \"#utility.yul\":1810:1816   */\n              0x00\n                /* \"#utility.yul\":1861:1863   */\n              0x1f\n                /* \"#utility.yul\":1857:1864   */\n              not\n                /* \"#utility.yul\":1852:1854   */\n              0x1f\n                /* \"#utility.yul\":1845:1850   */\n              dup4\n                /* \"#utility.yul\":1841:1855   */\n              add\n                /* \"#utility.yul\":1837:1865   */\n              and\n                /* \"#utility.yul\":1827:1865   */\n              swap1\n              pop\n                /* \"#utility.yul\":1769:1871   */\n              swap2\n              swap1\n              pop\n              jump\t// out\n                /* \"#utility.yul\":1877:2241   */\n            tag_190:\n                /* \"#utility.yul\":1965:1968   */\n              0x00\n                /* \"#utility.yul\":1993:2032   */\n              tag_244\n                /* \"#utility.yul\":2026:2031   */\n              dup3\n                /* \"#utility.yul\":1993:2032   */\n              tag_186\n              jump\t// in\n            tag_244:\n                /* \"#utility.yul\":2048:2119   */\n              tag_245\n                /* \"#utility.yul\":2112:2118   */\n              dup2\n                /* \"#utility.yul\":2107:2110   */\n              dup6\n                /* \"#utility.yul\":2048:2119   */\n              tag_187\n              jump\t// in\n            tag_245:\n                /* \"#utility.yul\":2041:2119   */\n              swap4\n              pop\n                /* \"#utility.yul\":2128:2180   */\n              tag_246\n                /* \"#utility.yul\":2173:2179   */\n              dup2\n                /* \"#utility.yul\":2168:2171   */\n              dup6\n                /* \"#utility.yul\":2161:2165   */\n              0x20\n                /* \"#utility.yul\":2154:2159   */\n              dup7\n                /* \"#utility.yul\":2150:2166   */\n              add\n                /* \"#utility.yul\":2128:2180   */\n              tag_188\n              jump\t// in\n            tag_246:\n                /* \"#utility.yul\":2205:2234   */\n              tag_247\n                /* \"#utility.yul\":2227:2233   */\n              dup2\n                /* \"#utility.yul\":2205:2234   */\n              tag_189\n              jump\t// in\n            tag_247:\n                /* \"#utility.yul\":2200:2203   */\n              dup5\n                /* \"#utility.yul\":2196:2235   */\n              add\n                /* \"#utility.yul\":2189:2235   */\n              swap2\n              pop\n                /* \"#utility.yul\":1969:2241   */\n              pop\n                /* \"#utility.yul\":1877:2241   */\n              swap3\n              swap2\n              pop\n              pop\n              jump\t// out\n                /* \"#utility.yul\":2247:2324   */\n            tag_191:\n                /* \"#utility.yul\":2284:2291   */\n              0x00\n                /* \"#utility.yul\":2313:2318   */\n              dup2\n                /* \"#utility.yul\":2302:2318   */\n              swap1\n              pop\n                /* \"#utility.yul\":2247:2324   */\n              swap2\n              swap1\n              pop\n              jump\t// out\n                /* \"#utility.yul\":2330:2448   */\n            tag_192:\n                /* \"#utility.yul\":2417:2441   */\n              tag_250\n                /* \"#utility.yul\":2435:2440   */\n              dup2\n                /* \"#utility.yul\":2417:2441   */\n              tag_191\n              jump\t// in\n            tag_250:\n                /* \"#utility.yul\":2412:2415   */\n              dup3\n                /* \"#utility.yul\":2405:2442   */\n              mstore\n                /* \"#utility.yul\":2330:2448   */\n              pop\n              pop\n              jump\t// out\n                /* \"#utility.yul\":2454:3482   */\n            tag_28:\n                /* \"#utility.yul\":2739:2743   */\n              0x00\n                /* \"#utility.yul\":2777:2780   */\n              0xa0\n                /* \"#utility.yul\":2766:2775   */\n              dup3\n                /* \"#utility.yul\":2762:2781   */\n              add\n                /* \"#utility.yul\":2754:2781   */\n              swap1\n              pop\n                /* \"#utility.yul\":2827:2836   */\n              dup2\n                /* \"#utility.yul\":2821:2825   */\n              dup2\n                /* \"#utility.yul\":2817:2837   */\n              sub\n                /* \"#utility.yul\":2813:2814   */\n              0x00\n                /* \"#utility.yul\":2802:2811   */\n              dup4\n                /* \"#utility.yul\":2798:2815   */\n              add\n                /* \"#utility.yul\":2791:2838   */\n              mstore\n                /* \"#utility.yul\":2855:2933   */\n              tag_252\n                /* \"#utility.yul\":2928:2932   */\n              dup2\n                /* \"#utility.yul\":2919:2925   */\n              dup9\n                /* \"#utility.yul\":2855:2933   */\n              tag_190\n              jump\t// in\n            tag_252:\n                /* \"#utility.yul\":2847:2933   */\n              swap1\n              pop\n                /* \"#utility.yul\":2943:3015   */\n              tag_253\n                /* \"#utility.yul\":3011:3013   */\n              0x20\n                /* \"#utility.yul\":3000:3009   */\n              dup4\n                /* \"#utility.yul\":2996:3014   */\n              add\n                /* \"#utility.yul\":2987:2993   */\n              dup8\n                /* \"#utility.yul\":2943:3015   */\n              tag_192\n              jump\t// in\n            tag_253:\n                /* \"#utility.yul\":3062:3071   */\n              dup2\n                /* \"#utility.yul\":3056:3060   */\n              dup2\n                /* \"#utility.yul\":3052:3072   */\n              sub\n                /* \"#utility.yul\":3047:3049   */\n              0x40\n                /* \"#utility.yul\":3036:3045   */\n              dup4\n                /* \"#utility.yul\":3032:3050   */\n              add\n                /* \"#utility.yul\":3025:3073   */\n              mstore\n                /* \"#utility.yul\":3090:3168   */\n              tag_254\n                /* \"#utility.yul\":3163:3167   */\n              dup2\n                /* \"#utility.yul\":3154:3160   */\n              dup7\n                /* \"#utility.yul\":3090:3168   */\n              tag_190\n              jump\t// in\n            tag_254:\n                /* \"#utility.yul\":3082:3168   */\n              swap1\n              pop\n                /* \"#utility.yul\":3215:3224   */\n              dup2\n                /* \"#utility.yul\":3209:3213   */\n              dup2\n                /* \"#utility.yul\":3205:3225   */\n              sub\n                /* \"#utility.yul\":3200:3202   */\n              0x60\n                /* \"#utility.yul\":3189:3198   */\n              dup4\n                /* \"#utility.yul\":3185:3203   */\n              add\n                /* \"#utility.yul\":3178:3226   */\n              mstore\n                /* \"#utility.yul\":3243:3321   */\n              tag_255\n                /* \"#utility.yul\":3316:3320   */\n              dup2\n                /* \"#utility.yul\":3307:3313   */\n              dup6\n                /* \"#utility.yul\":3243:3321   */\n              tag_190\n              jump\t// in\n            tag_255:\n                /* \"#utility.yul\":3235:3321   */\n              swap1\n              pop\n                /* \"#utility.yul\":3369:3378   */\n              dup2\n                /* \"#utility.yul\":3363:3367   */\n              dup2\n                /* \"#utility.yul\":3359:3379   */\n              sub\n                /* \"#utility.yul\":3353:3356   */\n              0x80\n                /* \"#utility.yul\":3342:3351   */\n              dup4\n                /* \"#utility.yul\":3338:3357   */\n              add\n                /* \"#utility.yul\":3331:3380   */\n              mstore\n                /* \"#utility.yul\":3397:3475   */\n              tag_256\n                /* \"#utility.yul\":3470:3474   */\n              dup2\n                /* \"#utility.yul\":3461:3467   */\n              dup5\n                /* \"#utility.yul\":3397:3475   */\n              tag_190\n              jump\t// in\n            tag_256:\n                /* \"#utility.yul\":3389:3475   */\n              swap1\n              pop\n                /* \"#utility.yul\":2454:3482   */\n              swap7\n              swap6\n              pop\n              pop\n              pop\n              pop\n              pop\n              pop\n              jump\t// out\n                /* \"#utility.yul\":3488:3610   */\n            tag_193:\n                /* \"#utility.yul\":3561:3585   */\n              tag_258\n                /* \"#utility.yul\":3579:3584   */\n              dup2\n                /* \"#utility.yul\":3561:3585   */\n              tag_191\n              jump\t// in\n            tag_258:\n                /* \"#utility.yul\":3554:3559   */\n              dup2\n                /* \"#utility.yul\":3551:3586   */\n              eq\n                /* \"#utility.yul\":3541:3604   */\n              tag_259\n              jumpi\n                /* \"#utility.yul\":3600:3601   */\n              0x00\n                /* \"#utility.yul\":3597:3598   */\n              dup1\n                /* \"#utility.yul\":3590:3602   */\n              revert\n                /* \"#utility.yul\":3541:3604   */\n            tag_259:\n                /* \"#utility.yul\":3488:3610   */\n              pop\n              jump\t// out\n                /* \"#utility.yul\":3616:3755   */\n            tag_194:\n                /* \"#utility.yul\":3662:3667   */\n              0x00\n                /* \"#utility.yul\":3700:3706   */\n              dup2\n                /* \"#utility.yul\":3687:3707   */\n              calldataload\n                /* \"#utility.yul\":3678:3707   */\n              swap1\n              pop\n                /* \"#utility.yul\":3716:3749   */\n              tag_261\n                /* \"#utility.yul\":3743:3748   */\n              dup2\n                /* \"#utility.yul\":3716:3749   */\n              tag_193\n              jump\t// in\n            tag_261:\n                /* \"#utility.yul\":3616:3755   */\n              swap3\n              swap2\n              pop\n              pop\n              jump\t// out\n                /* \"#utility.yul\":3761:4090   */\n            tag_31:\n                /* \"#utility.yul\":3820:3826   */\n              0x00\n                /* \"#utility.yul\":3869:3871   */\n              0x20\n                /* \"#utility.yul\":3857:3866   */\n              dup3\n                /* \"#utility.yul\":3848:3855   */\n              dup5\n                /* \"#utility.yul\":3844:3867   */\n              sub\n                /* \"#utility.yul\":3840:3872   */\n              slt\n                /* \"#utility.yul\":3837:3956   */\n              iszero\n              tag_263\n              jumpi\n                /* \"#utility.yul\":3875:3954   */\n              tag_264\n              tag_180\n              jump\t// in\n            tag_264:\n                /* \"#utility.yul\":3837:3956   */\n            tag_263:\n                /* \"#utility.yul\":3995:3996   */\n              0x00\n                /* \"#utility.yul\":4020:4073   */\n              tag_265\n                /* \"#utility.yul\":4065:4072   */\n              dup5\n                /* \"#utility.yul\":4056:4062   */\n              dup3\n                /* \"#utility.yul\":4045:4054   */\n              dup6\n                /* \"#utility.yul\":4041:4063   */\n              add\n                /* \"#utility.yul\":4020:4073   */\n              tag_194\n              jump\t// in\n            tag_265:\n                /* \"#utility.yul\":4010:4073   */\n              swap2\n              pop\n                /* \"#utility.yul\":3966:4083   */\n              pop\n                /* \"#utility.yul\":3761:4090   */\n              swap3\n              swap2\n              pop\n              pop\n              jump\t// out\n                /* \"#utility.yul\":4096:4409   */\n            tag_34:\n                /* \"#utility.yul\":4209:4213   */\n              0x00\n                /* \"#utility.yul\":4247:4249   */\n              0x20\n                /* \"#utility.yul\":4236:4245   */\n              dup3\n                /* \"#utility.yul\":4232:4250   */\n              add\n                /* \"#utility.yul\":4224:4250   */\n              swap1\n              pop\n                /* \"#utility.yul\":4296:4305   */\n              dup2\n                /* \"#utility.yul\":4290:4294   */\n              dup2\n                /* \"#utility.yul\":4286:4306   */\n              sub\n                /* \"#utility.yul\":4282:4283   */\n              0x00\n                /* \"#utility.yul\":4271:4280   */\n              dup4\n                /* \"#utility.yul\":4267:4284   */\n              add\n                /* \"#utility.yul\":4260:4307   */\n              mstore\n                /* \"#utility.yul\":4324:4402   */\n              tag_267\n                /* \"#utility.yul\":4397:4401   */\n              dup2\n                /* \"#utility.yul\":4388:4394   */\n              dup5\n                /* \"#utility.yul\":4324:4402   */\n              tag_190\n              jump\t// in\n            tag_267:\n                /* \"#utility.yul\":4316:4402   */\n              swap1\n              pop\n                /* \"#utility.yul\":4096:4409   */\n              swap3\n              swap2\n              pop\n              pop\n              jump\t// out\n                /* \"#utility.yul\":4415:4505   */\n            tag_195:\n                /* \"#utility.yul\":4449:4456   */\n              0x00\n                /* \"#utility.yul\":4492:4497   */\n              dup2\n                /* \"#utility.yul\":4485:4498   */\n              iszero\n                /* \"#utility.yul\":4478:4499   */\n              iszero\n                /* \"#utility.yul\":4467:4499   */\n              swap1\n              pop\n                /* \"#utility.yul\":4415:4505   */\n              swap2\n              swap1\n              pop\n              jump\t// out\n                /* \"#utility.yul\":4511:4620   */\n            tag_196:\n                /* \"#utility.yul\":4592:4613   */\n              tag_270\n                /* \"#utility.yul\":4607:4612   */\n              dup2\n                /* \"#utility.yul\":4592:4613   */\n              tag_195\n              jump\t// in\n            tag_270:\n                /* \"#utility.yul\":4587:4590   */\n              dup3\n                /* \"#utility.yul\":4580:4614   */\n              mstore\n                /* \"#utility.yul\":4511:4620   */\n              pop\n              pop\n              jump\t// out\n                /* \"#utility.yul\":4626:4836   */\n            tag_39:\n                /* \"#utility.yul\":4713:4717   */\n              0x00\n                /* \"#utility.yul\":4751:4753   */\n              0x20\n                /* \"#utility.yul\":4740:4749   */\n              dup3\n                /* \"#utility.yul\":4736:4754   */\n              add\n                /* \"#utility.yul\":4728:4754   */\n              swap1\n              pop\n                /* \"#utility.yul\":4764:4829   */\n              tag_272\n                /* \"#utility.yul\":4826:4827   */\n              0x00\n                /* \"#utility.yul\":4815:4824   */\n              dup4\n                /* \"#utility.yul\":4811:4828   */\n              add\n                /* \"#utility.yul\":4802:4808   */\n              dup5\n                /* \"#utility.yul\":4764:4829   */\n              tag_196\n              jump\t// in\n            tag_272:\n                /* \"#utility.yul\":4626:4836   */\n              swap3\n              swap2\n              pop\n              pop\n              jump\t// out\n                /* \"#utility.yul\":4842:5265   */\n            tag_44:\n                /* \"#utility.yul\":4983:4987   */\n              0x00\n                /* \"#utility.yul\":5021:5023   */\n              0x40\n                /* \"#utility.yul\":5010:5019   */\n              dup3\n                /* \"#utility.yul\":5006:5024   */\n              add\n                /* \"#utility.yul\":4998:5024   */\n              swap1\n              pop\n                /* \"#utility.yul\":5070:5079   */\n              dup2\n                /* \"#utility.yul\":5064:5068   */\n              dup2\n                /* \"#utility.yul\":5060:5080   */\n              sub\n                /* \"#utility.yul\":5056:5057   */\n              0x00\n                /* \"#utility.yul\":5045:5054   */\n              dup4\n                /* \"#utility.yul\":5041:5058   */\n              add\n                /* \"#utility.yul\":5034:5081   */\n              mstore\n                /* \"#utility.yul\":5098:5176   */\n              tag_274\n                /* \"#utility.yul\":5171:5175   */\n              dup2\n                /* \"#utility.yul\":5162:5168   */\n              dup6\n                /* \"#utility.yul\":5098:5176   */\n              tag_190\n              jump\t// in\n            tag_274:\n                /* \"#utility.yul\":5090:5176   */\n              swap1\n              pop\n                /* \"#utility.yul\":5186:5258   */\n              tag_275\n                /* \"#utility.yul\":5254:5256   */\n              0x20\n                /* \"#utility.yul\":5243:5252   */\n              dup4\n                /* \"#utility.yul\":5239:5257   */\n              add\n                /* \"#utility.yul\":5230:5236   */\n              dup5\n                /* \"#utility.yul\":5186:5258   */\n              tag_192\n              jump\t// in\n            tag_275:\n                /* \"#utility.yul\":4842:5265   */\n              swap4\n              swap3\n              pop\n              pop\n              pop\n              jump\t// out\n                /* \"#utility.yul\":5271:5493   */\n            tag_52:\n                /* \"#utility.yul\":5364:5368   */\n              0x00\n                /* \"#utility.yul\":5402:5404   */\n              0x20\n                /* \"#utility.yul\":5391:5400   */\n              dup3\n                /* \"#utility.yul\":5387:5405   */\n              add\n                /* \"#utility.yul\":5379:5405   */\n              swap1\n              pop\n                /* \"#utility.yul\":5415:5486   */\n              tag_277\n                /* \"#utility.yul\":5483:5484   */\n              0x00\n                /* \"#utility.yul\":5472:5481   */\n              dup4\n                /* \"#utility.yul\":5468:5485   */\n              add\n                /* \"#utility.yul\":5459:5465   */\n              dup5\n                /* \"#utility.yul\":5415:5486   */\n              tag_192\n              jump\t// in\n            tag_277:\n                /* \"#utility.yul\":5271:5493   */\n              swap3\n              swap2\n              pop\n              pop\n              jump\t// out\n                /* \"#utility.yul\":5499:5617   */\n            tag_197:\n                /* \"#utility.yul\":5586:5610   */\n              tag_279\n                /* \"#utility.yul\":5604:5609   */\n              dup2\n                /* \"#utility.yul\":5586:5610   */\n              tag_183\n              jump\t// in\n            tag_279:\n                /* \"#utility.yul\":5581:5584   */\n              dup3\n                /* \"#utility.yul\":5574:5611   */\n              mstore\n                /* \"#utility.yul\":5499:5617   */\n              pop\n              pop\n              jump\t// out\n                /* \"#utility.yul\":5623:5845   */\n            tag_56:\n                /* \"#utility.yul\":5716:5720   */\n              0x00\n                /* \"#utility.yul\":5754:5756   */\n              0x20\n                /* \"#utility.yul\":5743:5752   */\n              dup3\n                /* \"#utility.yul\":5739:5757   */\n              add\n                /* \"#utility.yul\":5731:5757   */\n              swap1\n              pop\n                /* \"#utility.yul\":5767:5838   */\n              tag_281\n                /* \"#utility.yul\":5835:5836   */\n              0x00\n                /* \"#utility.yul\":5824:5833   */\n              dup4\n                /* \"#utility.yul\":5820:5837   */\n              add\n                /* \"#utility.yul\":5811:5817   */\n              dup5\n                /* \"#utility.yul\":5767:5838   */\n              tag_197\n              jump\t// in\n            tag_281:\n                /* \"#utility.yul\":5623:5845   */\n              swap3\n              swap2\n              pop\n              pop\n              jump\t// out\n                /* \"#utility.yul\":5851:5968   */\n            tag_198:\n                /* \"#utility.yul\":5960:5961   */\n              0x00\n                /* \"#utility.yul\":5957:5958   */\n              dup1\n                /* \"#utility.yul\":5950:5962   */\n              revert\n                /* \"#utility.yul\":5974:6091   */\n            tag_199:\n                /* \"#utility.yul\":6083:6084   */\n              0x00\n                /* \"#utility.yul\":6080:6081   */\n              dup1\n                /* \"#utility.yul\":6073:6085   */\n              revert\n                /* \"#utility.yul\":6097:6277   */\n            tag_200:\n                /* \"#utility.yul\":6145:6222   */\n              0x4e487b7100000000000000000000000000000000000000000000000000000000\n                /* \"#utility.yul\":6142:6143   */\n              0x00\n                /* \"#utility.yul\":6135:6223   */\n              mstore\n                /* \"#utility.yul\":6242:6246   */\n              0x41\n                /* \"#utility.yul\":6239:6240   */\n              0x04\n                /* \"#utility.yul\":6232:6247   */\n              mstore\n                /* \"#utility.yul\":6266:6270   */\n              0x24\n                /* \"#utility.yul\":6263:6264   */\n              0x00\n                /* \"#utility.yul\":6256:6271   */\n              revert\n                /* \"#utility.yul\":6283:6564   */\n            tag_201:\n                /* \"#utility.yul\":6366:6393   */\n              tag_286\n                /* \"#utility.yul\":6388:6392   */\n              dup3\n                /* \"#utility.yul\":6366:6393   */\n              tag_189\n              jump\t// in\n            tag_286:\n                /* \"#utility.yul\":6358:6364   */\n              dup2\n                /* \"#utility.yul\":6354:6394   */\n              add\n                /* \"#utility.yul\":6496:6502   */\n              dup2\n                /* \"#utility.yul\":6484:6494   */\n              dup2\n                /* \"#utility.yul\":6481:6503   */\n              lt\n                /* \"#utility.yul\":6460:6478   */\n              0xffffffffffffffff\n                /* \"#utility.yul\":6448:6458   */\n              dup3\n                /* \"#utility.yul\":6445:6479   */\n              gt\n                /* \"#utility.yul\":6442:6504   */\n              or\n                /* \"#utility.yul\":6439:6527   */\n              iszero\n              tag_287\n              jumpi\n                /* \"#utility.yul\":6507:6525   */\n              tag_288\n              tag_200\n              jump\t// in\n            tag_288:\n                /* \"#utility.yul\":6439:6527   */\n            tag_287:\n                /* \"#utility.yul\":6547:6557   */\n              dup1\n                /* \"#utility.yul\":6543:6545   */\n              0x40\n                /* \"#utility.yul\":6536:6558   */\n              mstore\n                /* \"#utility.yul\":6326:6564   */\n              pop\n                /* \"#utility.yul\":6283:6564   */\n              pop\n              pop\n              jump\t// out\n                /* \"#utility.yul\":6570:6699   */\n            tag_202:\n                /* \"#utility.yul\":6604:6610   */\n              0x00\n                /* \"#utility.yul\":6631:6651   */\n              tag_290\n              tag_179\n              jump\t// in\n            tag_290:\n                /* \"#utility.yul\":6621:6651   */\n              swap1\n              pop\n                /* \"#utility.yul\":6660:6693   */\n              tag_291\n                /* \"#utility.yul\":6688:6692   */\n              dup3\n                /* \"#utility.yul\":6680:6686   */\n              dup3\n                /* \"#utility.yul\":6660:6693   */\n              tag_201\n              jump\t// in\n            tag_291:\n                /* \"#utility.yul\":6570:6699   */\n              swap2\n              swap1\n              pop\n              jump\t// out\n                /* \"#utility.yul\":6705:7013   */\n            tag_203:\n                /* \"#utility.yul\":6767:6771   */\n              0x00\n                /* \"#utility.yul\":6857:6875   */\n              0xffffffffffffffff\n                /* \"#utility.yul\":6849:6855   */\n              dup3\n                /* \"#utility.yul\":6846:6876   */\n              gt\n                /* \"#utility.yul\":6843:6899   */\n              iszero\n              tag_293\n              jumpi\n                /* \"#utility.yul\":6879:6897   */\n              tag_294\n              tag_200\n              jump\t// in\n            tag_294:\n                /* \"#utility.yul\":6843:6899   */\n            tag_293:\n                /* \"#utility.yul\":6917:6946   */\n              tag_295\n                /* \"#utility.yul\":6939:6945   */\n              dup3\n                /* \"#utility.yul\":6917:6946   */\n              tag_189\n              jump\t// in\n            tag_295:\n                /* \"#utility.yul\":6909:6946   */\n              swap1\n              pop\n                /* \"#utility.yul\":7001:7005   */\n              0x20\n                /* \"#utility.yul\":6995:6999   */\n              dup2\n                /* \"#utility.yul\":6991:7006   */\n              add\n                /* \"#utility.yul\":6983:7006   */\n              swap1\n              pop\n                /* \"#utility.yul\":6705:7013   */\n              swap2\n              swap1\n              pop\n              jump\t// out\n                /* \"#utility.yul\":7019:7173   */\n            tag_204:\n                /* \"#utility.yul\":7103:7109   */\n              dup3\n                /* \"#utility.yul\":7098:7101   */\n              dup2\n                /* \"#utility.yul\":7093:7096   */\n              dup4\n                /* \"#utility.yul\":7080:7110   */\n              calldatacopy\n                /* \"#utility.yul\":7165:7166   */\n              0x00\n                /* \"#utility.yul\":7156:7162   */\n              dup4\n                /* \"#utility.yul\":7151:7154   */\n              dup4\n                /* \"#utility.yul\":7147:7163   */\n              add\n                /* \"#utility.yul\":7140:7167   */\n              mstore\n                /* \"#utility.yul\":7019:7173   */\n              pop\n              pop\n              pop\n              jump\t// out\n                /* \"#utility.yul\":7179:7591   */\n            tag_205:\n                /* \"#utility.yul\":7257:7262   */\n              0x00\n                /* \"#utility.yul\":7282:7348   */\n              tag_298\n                /* \"#utility.yul\":7298:7347   */\n              tag_299\n                /* \"#utility.yul\":7340:7346   */\n              dup5\n                /* \"#utility.yul\":7298:7347   */\n              tag_203\n              jump\t// in\n            tag_299:\n                /* \"#utility.yul\":7282:7348   */\n              tag_202\n              jump\t// in\n            tag_298:\n                /* \"#utility.yul\":7273:7348   */\n              swap1\n              pop\n                /* \"#utility.yul\":7371:7377   */\n              dup3\n                /* \"#utility.yul\":7364:7369   */\n              dup2\n                /* \"#utility.yul\":7357:7378   */\n              mstore\n                /* \"#utility.yul\":7409:7413   */\n              0x20\n                /* \"#utility.yul\":7402:7407   */\n              dup2\n                /* \"#utility.yul\":7398:7414   */\n              add\n                /* \"#utility.yul\":7447:7450   */\n              dup5\n                /* \"#utility.yul\":7438:7444   */\n              dup5\n                /* \"#utility.yul\":7433:7436   */\n              dup5\n                /* \"#utility.yul\":7429:7445   */\n              add\n                /* \"#utility.yul\":7426:7451   */\n              gt\n                /* \"#utility.yul\":7423:7535   */\n              iszero\n              tag_300\n              jumpi\n                /* \"#utility.yul\":7454:7533   */\n              tag_301\n              tag_199\n              jump\t// in\n            tag_301:\n                /* \"#utility.yul\":7423:7535   */\n            tag_300:\n                /* \"#utility.yul\":7544:7585   */\n              tag_302\n                /* \"#utility.yul\":7578:7584   */\n              dup5\n                /* \"#utility.yul\":7573:7576   */\n              dup3\n                /* \"#utility.yul\":7568:7571   */\n              dup6\n                /* \"#utility.yul\":7544:7585   */\n              tag_204\n              jump\t// in\n            tag_302:\n                /* \"#utility.yul\":7263:7591   */\n              pop\n                /* \"#utility.yul\":7179:7591   */\n              swap4\n              swap3\n              pop\n              pop\n              pop\n              jump\t// out\n                /* \"#utility.yul\":7611:7951   */\n            tag_206:\n                /* \"#utility.yul\":7667:7672   */\n              0x00\n                /* \"#utility.yul\":7716:7719   */\n              dup3\n                /* \"#utility.yul\":7709:7713   */\n              0x1f\n                /* \"#utility.yul\":7701:7707   */\n              dup4\n                /* \"#utility.yul\":7697:7714   */\n              add\n                /* \"#utility.yul\":7693:7720   */\n              slt\n                /* \"#utility.yul\":7683:7805   */\n              tag_304\n              jumpi\n                /* \"#utility.yul\":7724:7803   */\n              tag_305\n              tag_198\n              jump\t// in\n            tag_305:\n                /* \"#utility.yul\":7683:7805   */\n            tag_304:\n                /* \"#utility.yul\":7841:7847   */\n              dup2\n                /* \"#utility.yul\":7828:7848   */\n              calldataload\n                /* \"#utility.yul\":7866:7945   */\n              tag_306\n                /* \"#utility.yul\":7941:7944   */\n              dup5\n                /* \"#utility.yul\":7933:7939   */\n              dup3\n                /* \"#utility.yul\":7926:7930   */\n              0x20\n                /* \"#utility.yul\":7918:7924   */\n              dup7\n                /* \"#utility.yul\":7914:7931   */\n              add\n                /* \"#utility.yul\":7866:7945   */\n              tag_205\n              jump\t// in\n            tag_306:\n                /* \"#utility.yul\":7857:7945   */\n              swap2\n              pop\n                /* \"#utility.yul\":7673:7951   */\n              pop\n                /* \"#utility.yul\":7611:7951   */\n              swap3\n              swap2\n              pop\n              pop\n              jump\t// out\n                /* \"#utility.yul\":7957:9588   */\n            tag_62:\n                /* \"#utility.yul\":8092:8098   */\n              0x00\n                /* \"#utility.yul\":8100:8106   */\n              dup1\n                /* \"#utility.yul\":8108:8114   */\n              0x00\n                /* \"#utility.yul\":8116:8122   */\n              dup1\n                /* \"#utility.yul\":8124:8130   */\n              0x00\n                /* \"#utility.yul\":8173:8176   */\n              0xa0\n                /* \"#utility.yul\":8161:8170   */\n              dup7\n                /* \"#utility.yul\":8152:8159   */\n              dup9\n                /* \"#utility.yul\":8148:8171   */\n              sub\n                /* \"#utility.yul\":8144:8177   */\n              slt\n                /* \"#utility.yul\":8141:8261   */\n              iszero\n              tag_308\n              jumpi\n                /* \"#utility.yul\":8180:8259   */\n              tag_309\n              tag_180\n              jump\t// in\n            tag_309:\n                /* \"#utility.yul\":8141:8261   */\n            tag_308:\n                /* \"#utility.yul\":8328:8329   */\n              0x00\n                /* \"#utility.yul\":8317:8326   */\n              dup7\n                /* \"#utility.yul\":8313:8330   */\n              add\n                /* \"#utility.yul\":8300:8331   */\n              calldataload\n                /* \"#utility.yul\":8358:8376   */\n              0xffffffffffffffff\n                /* \"#utility.yul\":8350:8356   */\n              dup2\n                /* \"#utility.yul\":8347:8377   */\n              gt\n                /* \"#utility.yul\":8344:8461   */\n              iszero\n              tag_310\n              jumpi\n                /* \"#utility.yul\":8380:8459   */\n              tag_311\n              tag_181\n              jump\t// in\n            tag_311:\n                /* \"#utility.yul\":8344:8461   */\n            tag_310:\n                /* \"#utility.yul\":8485:8548   */\n              tag_312\n                /* \"#utility.yul\":8540:8547   */\n              dup9\n                /* \"#utility.yul\":8531:8537   */\n              dup3\n                /* \"#utility.yul\":8520:8529   */\n              dup10\n                /* \"#utility.yul\":8516:8538   */\n              add\n                /* \"#utility.yul\":8485:8548   */\n              tag_206\n              jump\t// in\n            tag_312:\n                /* \"#utility.yul\":8475:8548   */\n              swap6\n              pop\n                /* \"#utility.yul\":8271:8558   */\n              pop\n                /* \"#utility.yul\":8597:8599   */\n              0x20\n                /* \"#utility.yul\":8623:8676   */\n              tag_313\n                /* \"#utility.yul\":8668:8675   */\n              dup9\n                /* \"#utility.yul\":8659:8665   */\n              dup3\n                /* \"#utility.yul\":8648:8657   */\n              dup10\n                /* \"#utility.yul\":8644:8666   */\n              add\n                /* \"#utility.yul\":8623:8676   */\n              tag_194\n              jump\t// in\n            tag_313:\n                /* \"#utility.yul\":8613:8676   */\n              swap5\n              pop\n                /* \"#utility.yul\":8568:8686   */\n              pop\n                /* \"#utility.yul\":8753:8755   */\n              0x40\n                /* \"#utility.yul\":8742:8751   */\n              dup7\n                /* \"#utility.yul\":8738:8756   */\n              add\n                /* \"#utility.yul\":8725:8757   */\n              calldataload\n                /* \"#utility.yul\":8784:8802   */\n              0xffffffffffffffff\n                /* \"#utility.yul\":8776:8782   */\n              dup2\n                /* \"#utility.yul\":8773:8803   */\n              gt\n                /* \"#utility.yul\":8770:8887   */\n              iszero\n              tag_314\n              jumpi\n                /* \"#utility.yul\":8806:8885   */\n              tag_315\n              tag_181\n              jump\t// in\n            tag_315:\n                /* \"#utility.yul\":8770:8887   */\n            tag_314:\n                /* \"#utility.yul\":8911:8974   */\n              tag_316\n                /* \"#utility.yul\":8966:8973   */\n              dup9\n                /* \"#utility.yul\":8957:8963   */\n              dup3\n                /* \"#utility.yul\":8946:8955   */\n              dup10\n                /* \"#utility.yul\":8942:8964   */\n              add\n                /* \"#utility.yul\":8911:8974   */\n              tag_206\n              jump\t// in\n            tag_316:\n                /* \"#utility.yul\":8901:8974   */\n              swap4\n              pop\n                /* \"#utility.yul\":8696:8984   */\n              pop\n                /* \"#utility.yul\":9051:9053   */\n              0x60\n                /* \"#utility.yul\":9040:9049   */\n              dup7\n                /* \"#utility.yul\":9036:9054   */\n              add\n                /* \"#utility.yul\":9023:9055   */\n              calldataload\n                /* \"#utility.yul\":9082:9100   */\n              0xffffffffffffffff\n                /* \"#utility.yul\":9074:9080   */\n              dup2\n                /* \"#utility.yul\":9071:9101   */\n              gt\n                /* \"#utility.yul\":9068:9185   */\n              iszero\n              tag_317\n              jumpi\n                /* \"#utility.yul\":9104:9183   */\n              tag_318\n              tag_181\n              jump\t// in\n            tag_318:\n                /* \"#utility.yul\":9068:9185   */\n            tag_317:\n                /* \"#utility.yul\":9209:9272   */\n              tag_319\n                /* \"#utility.yul\":9264:9271   */\n              dup9\n                /* \"#utility.yul\":9255:9261   */\n              dup3\n                /* \"#utility.yul\":9244:9253   */\n              dup10\n                /* \"#utility.yul\":9240:9262   */\n              add\n                /* \"#utility.yul\":9209:9272   */\n              tag_206\n              jump\t// in\n            tag_319:\n                /* \"#utility.yul\":9199:9272   */\n              swap3\n              pop\n                /* \"#utility.yul\":8994:9282   */\n              pop\n                /* \"#utility.yul\":9349:9352   */\n              0x80\n                /* \"#utility.yul\":9338:9347   */\n              dup7\n                /* \"#utility.yul\":9334:9353   */\n              add\n                /* \"#utility.yul\":9321:9354   */\n              calldataload\n                /* \"#utility.yul\":9381:9399   */\n              0xffffffffffffffff\n                /* \"#utility.yul\":9373:9379   */\n              dup2\n                /* \"#utility.yul\":9370:9400   */\n              gt\n                /* \"#utility.yul\":9367:9484   */\n              iszero\n              tag_320\n              jumpi\n                /* \"#utility.yul\":9403:9482   */\n              tag_321\n              tag_181\n              jump\t// in\n            tag_321:\n                /* \"#utility.yul\":9367:9484   */\n            tag_320:\n                /* \"#utility.yul\":9508:9571   */\n              tag_322\n                /* \"#utility.yul\":9563:9570   */\n              dup9\n                /* \"#utility.yul\":9554:9560   */\n              dup3\n                /* \"#utility.yul\":9543:9552   */\n              dup10\n                /* \"#utility.yul\":9539:9561   */\n              add\n                /* \"#utility.yul\":9508:9571   */\n              tag_206\n              jump\t// in\n            tag_322:\n                /* \"#utility.yul\":9498:9571   */\n              swap2\n              pop\n                /* \"#utility.yul\":9292:9581   */\n              pop\n                /* \"#utility.yul\":7957:9588   */\n              swap3\n              swap6\n              pop\n              swap3\n              swap6\n              swap1\n              swap4\n              pop\n              jump\t// out\n                /* \"#utility.yul\":9594:10248   */\n            tag_69:\n                /* \"#utility.yul\":9672:9678   */\n              0x00\n                /* \"#utility.yul\":9680:9686   */\n              dup1\n                /* \"#utility.yul\":9729:9731   */\n              0x40\n                /* \"#utility.yul\":9717:9726   */\n              dup4\n                /* \"#utility.yul\":9708:9715   */\n              dup6\n                /* \"#utility.yul\":9704:9727   */\n              sub\n                /* \"#utility.yul\":9700:9732   */\n              slt\n                /* \"#utility.yul\":9697:9816   */\n              iszero\n              tag_324\n              jumpi\n                /* \"#utility.yul\":9735:9814   */\n              tag_325\n              tag_180\n              jump\t// in\n            tag_325:\n                /* \"#utility.yul\":9697:9816   */\n            tag_324:\n                /* \"#utility.yul\":9883:9884   */\n              0x00\n                /* \"#utility.yul\":9872:9881   */\n              dup4\n                /* \"#utility.yul\":9868:9885   */\n              add\n                /* \"#utility.yul\":9855:9886   */\n              calldataload\n                /* \"#utility.yul\":9913:9931   */\n              0xffffffffffffffff\n                /* \"#utility.yul\":9905:9911   */\n              dup2\n                /* \"#utility.yul\":9902:9932   */\n              gt\n                /* \"#utility.yul\":9899:10016   */\n              iszero\n              tag_326\n              jumpi\n                /* \"#utility.yul\":9935:10014   */\n              tag_327\n              tag_181\n              jump\t// in\n            tag_327:\n                /* \"#utility.yul\":9899:10016   */\n            tag_326:\n                /* \"#utility.yul\":10040:10103   */\n              tag_328\n                /* \"#utility.yul\":10095:10102   */\n              dup6\n                /* \"#utility.yul\":10086:10092   */\n              dup3\n                /* \"#utility.yul\":10075:10084   */\n              dup7\n                /* \"#utility.yul\":10071:10093   */\n              add\n                /* \"#utility.yul\":10040:10103   */\n              tag_206\n              jump\t// in\n            tag_328:\n                /* \"#utility.yul\":10030:10103   */\n              swap3\n              pop\n                /* \"#utility.yul\":9826:10113   */\n              pop\n                /* \"#utility.yul\":10152:10154   */\n              0x20\n                /* \"#utility.yul\":10178:10231   */\n              tag_329\n                /* \"#utility.yul\":10223:10230   */\n              dup6\n                /* \"#utility.yul\":10214:10220   */\n              dup3\n                /* \"#utility.yul\":10203:10212   */\n              dup7\n                /* \"#utility.yul\":10199:10221   */\n              add\n                /* \"#utility.yul\":10178:10231   */\n              tag_194\n              jump\t// in\n            tag_329:\n                /* \"#utility.yul\":10168:10231   */\n              swap2\n              pop\n                /* \"#utility.yul\":10123:10241   */\n              pop\n                /* \"#utility.yul\":9594:10248   */\n              swap3\n              pop\n              swap3\n              swap1\n              pop\n              jump\t// out\n                /* \"#utility.yul\":10254:10434   */\n            tag_207:\n                /* \"#utility.yul\":10302:10379   */\n              0x4e487b7100000000000000000000000000000000000000000000000000000000\n                /* \"#utility.yul\":10299:10300   */\n              0x00\n                /* \"#utility.yul\":10292:10380   */\n              mstore\n                /* \"#utility.yul\":10399:10403   */\n              0x22\n                /* \"#utility.yul\":10396:10397   */\n              0x04\n                /* \"#utility.yul\":10389:10404   */\n              mstore\n                /* \"#utility.yul\":10423:10427   */\n              0x24\n                /* \"#utility.yul\":10420:10421   */\n              0x00\n                /* \"#utility.yul\":10413:10428   */\n              revert\n                /* \"#utility.yul\":10440:10760   */\n            tag_84:\n                /* \"#utility.yul\":10484:10490   */\n              0x00\n                /* \"#utility.yul\":10521:10522   */\n              0x02\n                /* \"#utility.yul\":10515:10519   */\n              dup3\n                /* \"#utility.yul\":10511:10523   */\n              div\n                /* \"#utility.yul\":10501:10523   */\n              swap1\n              pop\n                /* \"#utility.yul\":10568:10569   */\n              0x01\n                /* \"#utility.yul\":10562:10566   */\n              dup3\n                /* \"#utility.yul\":10558:10570   */\n              and\n                /* \"#utility.yul\":10589:10607   */\n              dup1\n                /* \"#utility.yul\":10579:10660   */\n              tag_332\n              jumpi\n                /* \"#utility.yul\":10645:10649   */\n              0x7f\n                /* \"#utility.yul\":10637:10643   */\n              dup3\n                /* \"#utility.yul\":10633:10650   */\n              and\n                /* \"#utility.yul\":10623:10650   */\n              swap2\n              pop\n                /* \"#utility.yul\":10579:10660   */\n            tag_332:\n                /* \"#utility.yul\":10707:10709   */\n              0x20\n                /* \"#utility.yul\":10699:10705   */\n              dup3\n                /* \"#utility.yul\":10696:10710   */\n              lt\n                /* \"#utility.yul\":10676:10694   */\n              dup2\n                /* \"#utility.yul\":10673:10711   */\n              eq\n                /* \"#utility.yul\":10670:10754   */\n              iszero\n              tag_333\n              jumpi\n                /* \"#utility.yul\":10726:10744   */\n              tag_334\n              tag_207\n              jump\t// in\n            tag_334:\n                /* \"#utility.yul\":10670:10754   */\n            tag_333:\n                /* \"#utility.yul\":10491:10760   */\n              pop\n                /* \"#utility.yul\":10440:10760   */\n              swap2\n              swap1\n              pop\n              jump\t// out\n                /* \"#utility.yul\":10766:10864   */\n            tag_208:\n                /* \"#utility.yul\":10817:10823   */\n              0x00\n                /* \"#utility.yul\":10851:10856   */\n              dup2\n                /* \"#utility.yul\":10845:10857   */\n              mload\n                /* \"#utility.yul\":10835:10857   */\n              swap1\n              pop\n                /* \"#utility.yul\":10766:10864   */\n              swap2\n              swap1\n              pop\n              jump\t// out\n                /* \"#utility.yul\":10870:11017   */\n            tag_209:\n                /* \"#utility.yul\":10971:10982   */\n              0x00\n                /* \"#utility.yul\":11008:11011   */\n              dup2\n                /* \"#utility.yul\":10993:11011   */\n              swap1\n              pop\n                /* \"#utility.yul\":10870:11017   */\n              swap3\n              swap2\n              pop\n              pop\n              jump\t// out\n                /* \"#utility.yul\":11023:11396   */\n            tag_210:\n                /* \"#utility.yul\":11127:11130   */\n              0x00\n                /* \"#utility.yul\":11155:11193   */\n              tag_338\n                /* \"#utility.yul\":11187:11192   */\n              dup3\n                /* \"#utility.yul\":11155:11193   */\n              tag_208\n              jump\t// in\n            tag_338:\n                /* \"#utility.yul\":11209:11297   */\n              tag_339\n                /* \"#utility.yul\":11290:11296   */\n              dup2\n                /* \"#utility.yul\":11285:11288   */\n              dup6\n                /* \"#utility.yul\":11209:11297   */\n              tag_209\n              jump\t// in\n            tag_339:\n                /* \"#utility.yul\":11202:11297   */\n              swap4\n              pop\n                /* \"#utility.yul\":11306:11358   */\n              tag_340\n                /* \"#utility.yul\":11351:11357   */\n              dup2\n                /* \"#utility.yul\":11346:11349   */\n              dup6\n                /* \"#utility.yul\":11339:11343   */\n              0x20\n                /* \"#utility.yul\":11332:11337   */\n              dup7\n                /* \"#utility.yul\":11328:11344   */\n              add\n                /* \"#utility.yul\":11306:11358   */\n              tag_188\n              jump\t// in\n            tag_340:\n                /* \"#utility.yul\":11383:11389   */\n              dup1\n                /* \"#utility.yul\":11378:11381   */\n              dup5\n                /* \"#utility.yul\":11374:11390   */\n              add\n                /* \"#utility.yul\":11367:11390   */\n              swap2\n              pop\n                /* \"#utility.yul\":11131:11396   */\n              pop\n                /* \"#utility.yul\":11023:11396   */\n              swap3\n              swap2\n              pop\n              pop\n              jump\t// out\n                /* \"#utility.yul\":11402:11673   */\n            tag_125:\n                /* \"#utility.yul\":11532:11535   */\n              0x00\n                /* \"#utility.yul\":11554:11647   */\n              tag_342\n                /* \"#utility.yul\":11643:11646   */\n              dup3\n                /* \"#utility.yul\":11634:11640   */\n              dup5\n                /* \"#utility.yul\":11554:11647   */\n              tag_210\n              jump\t// in\n            tag_342:\n                /* \"#utility.yul\":11547:11647   */\n              swap2\n              pop\n                /* \"#utility.yul\":11664:11667   */\n              dup2\n                /* \"#utility.yul\":11657:11667   */\n              swap1\n              pop\n                /* \"#utility.yul\":11402:11673   */\n              swap3\n              swap2\n              pop\n              pop\n              jump\t// out\n                /* \"#utility.yul\":11679:11840   */\n            tag_211:\n                /* \"#utility.yul\":11819:11832   */\n              0x736f6d65206572726f7231000000000000000000000000000000000000000000\n                /* \"#utility.yul\":11815:11816   */\n              0x00\n                /* \"#utility.yul\":11807:11813   */\n              dup3\n                /* \"#utility.yul\":11803:11817   */\n              add\n                /* \"#utility.yul\":11796:11833   */\n              mstore\n                /* \"#utility.yul\":11679:11840   */\n              pop\n              jump\t// out\n                /* \"#utility.yul\":11846:12212   */\n            tag_212:\n                /* \"#utility.yul\":11988:11991   */\n              0x00\n                /* \"#utility.yul\":12009:12076   */\n              tag_345\n                /* \"#utility.yul\":12073:12075   */\n              0x0b\n                /* \"#utility.yul\":12068:12071   */\n              dup4\n                /* \"#utility.yul\":12009:12076   */\n              tag_187\n              jump\t// in\n            tag_345:\n                /* \"#utility.yul\":12002:12076   */\n              swap2\n              pop\n                /* \"#utility.yul\":12085:12178   */\n              tag_346\n                /* \"#utility.yul\":12174:12177   */\n              dup3\n                /* \"#utility.yul\":12085:12178   */\n              tag_211\n              jump\t// in\n            tag_346:\n                /* \"#utility.yul\":12203:12205   */\n              0x20\n                /* \"#utility.yul\":12198:12201   */\n              dup3\n                /* \"#utility.yul\":12194:12206   */\n              add\n                /* \"#utility.yul\":12187:12206   */\n              swap1\n              pop\n                /* \"#utility.yul\":11846:12212   */\n              swap2\n              swap1\n              pop\n              jump\t// out\n                /* \"#utility.yul\":12218:12637   */\n            tag_131:\n                /* \"#utility.yul\":12384:12388   */\n              0x00\n                /* \"#utility.yul\":12422:12424   */\n              0x20\n                /* \"#utility.yul\":12411:12420   */\n              dup3\n                /* \"#utility.yul\":12407:12425   */\n              add\n                /* \"#utility.yul\":12399:12425   */\n              swap1\n              pop\n                /* \"#utility.yul\":12471:12480   */\n              dup2\n                /* \"#utility.yul\":12465:12469   */\n              dup2\n                /* \"#utility.yul\":12461:12481   */\n              sub\n                /* \"#utility.yul\":12457:12458   */\n              0x00\n                /* \"#utility.yul\":12446:12455   */\n              dup4\n                /* \"#utility.yul\":12442:12459   */\n              add\n                /* \"#utility.yul\":12435:12482   */\n              mstore\n                /* \"#utility.yul\":12499:12630   */\n              tag_348\n                /* \"#utility.yul\":12625:12629   */\n              dup2\n                /* \"#utility.yul\":12499:12630   */\n              tag_212\n              jump\t// in\n            tag_348:\n                /* \"#utility.yul\":12491:12630   */\n              swap1\n              pop\n                /* \"#utility.yul\":12218:12637   */\n              swap2\n              swap1\n              pop\n              jump\t// out\n                /* \"#utility.yul\":12643:12747   */\n            tag_213:\n                /* \"#utility.yul\":12688:12695   */\n              0x00\n                /* \"#utility.yul\":12717:12741   */\n              tag_350\n                /* \"#utility.yul\":12735:12740   */\n              dup3\n                /* \"#utility.yul\":12717:12741   */\n              tag_182\n              jump\t// in\n            tag_350:\n                /* \"#utility.yul\":12706:12741   */\n              swap1\n              pop\n                /* \"#utility.yul\":12643:12747   */\n              swap2\n              swap1\n              pop\n              jump\t// out\n                /* \"#utility.yul\":12753:12891   */\n            tag_214:\n                /* \"#utility.yul\":12834:12866   */\n              tag_352\n                /* \"#utility.yul\":12860:12865   */\n              dup2\n                /* \"#utility.yul\":12834:12866   */\n              tag_213\n              jump\t// in\n            tag_352:\n                /* \"#utility.yul\":12827:12832   */\n              dup2\n                /* \"#utility.yul\":12824:12867   */\n              eq\n                /* \"#utility.yul\":12814:12885   */\n              tag_353\n              jumpi\n                /* \"#utility.yul\":12881:12882   */\n              0x00\n                /* \"#utility.yul\":12878:12879   */\n              dup1\n                /* \"#utility.yul\":12871:12883   */\n              revert\n                /* \"#utility.yul\":12814:12885   */\n            tag_353:\n                /* \"#utility.yul\":12753:12891   */\n              pop\n              jump\t// out\n                /* \"#utility.yul\":12897:13056   */\n            tag_215:\n                /* \"#utility.yul\":12962:12967   */\n              0x00\n                /* \"#utility.yul\":12993:12999   */\n              dup2\n                /* \"#utility.yul\":12987:13000   */\n              mload\n                /* \"#utility.yul\":12978:13000   */\n              swap1\n              pop\n                /* \"#utility.yul\":13009:13050   */\n              tag_355\n                /* \"#utility.yul\":13044:13049   */\n              dup2\n                /* \"#utility.yul\":13009:13050   */\n              tag_214\n              jump\t// in\n            tag_355:\n                /* \"#utility.yul\":12897:13056   */\n              swap3\n              swap2\n              pop\n              pop\n              jump\t// out\n                /* \"#utility.yul\":13062:13429   */\n            tag_133:\n                /* \"#utility.yul\":13140:13146   */\n              0x00\n                /* \"#utility.yul\":13189:13191   */\n              0x20\n                /* \"#utility.yul\":13177:13186   */\n              dup3\n                /* \"#utility.yul\":13168:13175   */\n              dup5\n                /* \"#utility.yul\":13164:13187   */\n              sub\n                /* \"#utility.yul\":13160:13192   */\n              slt\n                /* \"#utility.yul\":13157:13276   */\n              iszero\n              tag_357\n              jumpi\n                /* \"#utility.yul\":13195:13274   */\n              tag_358\n              tag_180\n              jump\t// in\n            tag_358:\n                /* \"#utility.yul\":13157:13276   */\n            tag_357:\n                /* \"#utility.yul\":13315:13316   */\n              0x00\n                /* \"#utility.yul\":13340:13412   */\n              tag_359\n                /* \"#utility.yul\":13404:13411   */\n              dup5\n                /* \"#utility.yul\":13395:13401   */\n              dup3\n                /* \"#utility.yul\":13384:13393   */\n              dup6\n                /* \"#utility.yul\":13380:13402   */\n              add\n                /* \"#utility.yul\":13340:13412   */\n              tag_215\n              jump\t// in\n            tag_359:\n                /* \"#utility.yul\":13330:13412   */\n              swap2\n              pop\n                /* \"#utility.yul\":13286:13422   */\n              pop\n                /* \"#utility.yul\":13062:13429   */\n              swap3\n              swap2\n              pop\n              pop\n              jump\t// out\n                /* \"#utility.yul\":13435:13615   */\n            tag_216:\n                /* \"#utility.yul\":13483:13560   */\n              0x4e487b7100000000000000000000000000000000000000000000000000000000\n                /* \"#utility.yul\":13480:13481   */\n              0x00\n                /* \"#utility.yul\":13473:13561   */\n              mstore\n                /* \"#utility.yul\":13580:13584   */\n              0x11\n                /* \"#utility.yul\":13577:13578   */\n              0x04\n                /* \"#utility.yul\":13570:13585   */\n              mstore\n                /* \"#utility.yul\":13604:13608   */\n              0x24\n                /* \"#utility.yul\":13601:13602   */\n              0x00\n                /* \"#utility.yul\":13594:13609   */\n              revert\n                /* \"#utility.yul\":13621:13926   */\n            tag_136:\n                /* \"#utility.yul\":13661:13664   */\n              0x00\n                /* \"#utility.yul\":13680:13700   */\n              tag_362\n                /* \"#utility.yul\":13698:13699   */\n              dup3\n                /* \"#utility.yul\":13680:13700   */\n              tag_191\n              jump\t// in\n            tag_362:\n                /* \"#utility.yul\":13675:13700   */\n              swap2\n              pop\n                /* \"#utility.yul\":13714:13734   */\n              tag_363\n                /* \"#utility.yul\":13732:13733   */\n              dup4\n                /* \"#utility.yul\":13714:13734   */\n              tag_191\n              jump\t// in\n            tag_363:\n                /* \"#utility.yul\":13709:13734   */\n              swap3\n              pop\n                /* \"#utility.yul\":13868:13869   */\n              dup3\n                /* \"#utility.yul\":13800:13866   */\n              0xffffffffffffffffffffffffffffffffffffffffffffffffffffffffffffffff\n                /* \"#utility.yul\":13796:13870   */\n              sub\n                /* \"#utility.yul\":13793:13794   */\n              dup3\n                /* \"#utility.yul\":13790:13871   */\n              gt\n                /* \"#utility.yul\":13787:13894   */\n              iszero\n              tag_364\n              jumpi\n                /* \"#utility.yul\":13874:13892   */\n              tag_365\n              tag_216\n              jump\t// in\n            tag_365:\n                /* \"#utility.yul\":13787:13894   */\n            tag_364:\n                /* \"#utility.yul\":13918:13919   */\n              dup3\n                /* \"#utility.yul\":13915:13916   */\n              dup3\n                /* \"#utility.yul\":13911:13920   */\n              add\n                /* \"#utility.yul\":13904:13920   */\n              swap1\n              pop\n                /* \"#utility.yul\":13621:13926   */\n              swap3\n              swap2\n              pop\n              pop\n              jump\t// out\n                /* \"#utility.yul\":13932:14264   */\n            tag_139:\n                /* \"#utility.yul\":14053:14057   */\n              0x00\n                /* \"#utility.yul\":14091:14093   */\n              0x40\n                /* \"#utility.yul\":14080:14089   */\n              dup3\n                /* \"#utility.yul\":14076:14094   */\n              add\n                /* \"#utility.yul\":14068:14094   */\n              swap1\n              pop\n                /* \"#utility.yul\":14104:14175   */\n              tag_367\n                /* \"#utility.yul\":14172:14173   */\n              0x00\n                /* \"#utility.yul\":14161:14170   */\n              dup4\n                /* \"#utility.yul\":14157:14174   */\n              add\n                /* \"#utility.yul\":14148:14154   */\n              dup6\n                /* \"#utility.yul\":14104:14175   */\n              tag_192\n              jump\t// in\n            tag_367:\n                /* \"#utility.yul\":14185:14257   */\n              tag_368\n                /* \"#utility.yul\":14253:14255   */\n              0x20\n                /* \"#utility.yul\":14242:14251   */\n              dup4\n                /* \"#utility.yul\":14238:14256   */\n              add\n                /* \"#utility.yul\":14229:14235   */\n              dup5\n                /* \"#utility.yul\":14185:14257   */\n              tag_197\n              jump\t// in\n            tag_368:\n                /* \"#utility.yul\":13932:14264   */\n              swap4\n              swap3\n              pop\n              pop\n              pop\n              jump\t// out\n                /* \"#utility.yul\":14270:14431   */\n            tag_217:\n                /* \"#utility.yul\":14410:14423   */\n              0x736f6d65206572726f7232000000000000000000000000000000000000000000\n                /* \"#utility.yul\":14406:14407   */\n              0x00\n                /* \"#utility.yul\":14398:14404   */\n              dup3\n                /* \"#utility.yul\":14394:14408   */\n              add\n                /* \"#utility.yul\":14387:14424   */\n              mstore\n                /* \"#utility.yul\":14270:14431   */\n              pop\n              jump\t// out\n                /* \"#utility.yul\":14437:14803   */\n            tag_218:\n                /* \"#utility.yul\":14579:14582   */\n              0x00\n                /* \"#utility.yul\":14600:14667   */\n              tag_371\n                /* \"#utility.yul\":14664:14666   */\n              0x0b\n                /* \"#utility.yul\":14659:14662   */\n              dup4\n                /* \"#utility.yul\":14600:14667   */\n              tag_187\n              jump\t// in\n            tag_371:\n                /* \"#utility.yul\":14593:14667   */\n              swap2\n              pop\n                /* \"#utility.yul\":14676:14769   */\n              tag_372\n                /* \"#utility.yul\":14765:14768   */\n              dup3\n                /* \"#utility.yul\":14676:14769   */\n              tag_217\n              jump\t// in\n            tag_372:\n                /* \"#utility.yul\":14794:14796   */\n              0x20\n                /* \"#utility.yul\":14789:14792   */\n              dup3\n                /* \"#utility.yul\":14785:14797   */\n              add\n                /* \"#utility.yul\":14778:14797   */\n              swap1\n              pop\n                /* \"#utility.yul\":14437:14803   */\n              swap2\n              swap1\n              pop\n              jump\t// out\n                /* \"#utility.yul\":14809:15228   */\n            tag_147:\n                /* \"#utility.yul\":14975:14979   */\n              0x00\n                /* \"#utility.yul\":15013:15015   */\n              0x20\n                /* \"#utility.yul\":15002:15011   */\n              dup3\n                /* \"#utility.yul\":14998:15016   */\n              add\n                /* \"#utility.yul\":14990:15016   */\n              swap1\n              pop\n                /* \"#utility.yul\":15062:15071   */\n              dup2\n                /* \"#utility.yul\":15056:15060   */\n              dup2\n                /* \"#utility.yul\":15052:15072   */\n              sub\n                /* \"#utility.yul\":15048:15049   */\n              0x00\n                /* \"#utility.yul\":15037:15046   */\n              dup4\n                /* \"#utility.yul\":15033:15050   */\n              add\n                /* \"#utility.yul\":15026:15073   */\n              mstore\n                /* \"#utility.yul\":15090:15221   */\n              tag_374\n                /* \"#utility.yul\":15216:15220   */\n              dup2\n                /* \"#utility.yul\":15090:15221   */\n              tag_218\n              jump\t// in\n            tag_374:\n                /* \"#utility.yul\":15082:15221   */\n              swap1\n              pop\n                /* \"#utility.yul\":14809:15228   */\n              swap2\n              swap1\n              pop\n              jump\t// out\n\n            auxdata: 0xa2646970667358221220fe242464b4588dde329d2a43de28855d812e0871ecad038ea0ab023e77d0554264736f6c63430008090033\n        }\n    }\n\n    sub_1: assembly {\n            /* \"factoryContract.sol\":7790:8382  contract doctorContract{... */\n          mstore(0x40, 0x80)\n            /* \"factoryContract.sol\":7992:8063  constructor(address doctor){... */\n          callvalue\n          dup1\n          iszero\n          tag_1\n          jumpi\n          0x00\n          dup1\n          revert\n        tag_1:\n          pop\n          mload(0x40)\n          sub(codesize, bytecodeSize)\n          dup1\n          bytecodeSize\n          dup4\n          codecopy\n          dup2\n          dup2\n          add\n          0x40\n          mstore\n          dup2\n          add\n          swap1\n          tag_2\n          swap2\n          swap1\n          tag_3\n          jump\t// in\n        tag_2:\n            /* \"factoryContract.sol\":8039:8045  doctor */\n          dup1\n            /* \"factoryContract.sol\":8030:8036  Doctor */\n          0x00\n          dup1\n            /* \"factoryContract.sol\":8030:8045  Doctor = doctor */\n          0x0100\n          exp\n          dup2\n          sload\n          dup2\n          0xffffffffffffffffffffffffffffffffffffffff\n          mul\n          not\n          and\n          swap1\n          dup4\n          0xffffffffffffffffffffffffffffffffffffffff\n          and\n          mul\n          or\n          swap1\n          sstore\n          pop\n            /* \"factoryContract.sol\":7992:8063  constructor(address doctor){... */\n          pop\n            /* \"factoryContract.sol\":7790:8382  contract doctorContract{... */\n          jump(tag_6)\n            /* \"#utility.yul\":88:205   */\n        tag_8:\n            /* \"#utility.yul\":197:198   */\n          0x00\n            /* \"#utility.yul\":194:195   */\n          dup1\n            /* \"#utility.yul\":187:199   */\n          revert\n            /* \"#utility.yul\":334:460   */\n        tag_10:\n            /* \"#utility.yul\":371:378   */\n          0x00\n            /* \"#utility.yul\":411:453   */\n          0xffffffffffffffffffffffffffffffffffffffff\n            /* \"#utility.yul\":404:409   */\n          dup3\n            /* \"#utility.yul\":400:454   */\n          and\n            /* \"#utility.yul\":389:454   */\n          swap1\n          pop\n            /* \"#utility.yul\":334:460   */\n          swap2\n          swap1\n          pop\n          jump\t// out\n            /* \"#utility.yul\":466:562   */\n        tag_11:\n            /* \"#utility.yul\":503:510   */\n          0x00\n            /* \"#utility.yul\":532:556   */\n          tag_20\n            /* \"#utility.yul\":550:555   */\n          dup3\n            /* \"#utility.yul\":532:556   */\n          tag_10\n          jump\t// in\n        tag_20:\n            /* \"#utility.yul\":521:556   */\n          swap1\n          pop\n            /* \"#utility.yul\":466:562   */\n          swap2\n          swap1\n          pop\n          jump\t// out\n            /* \"#utility.yul\":568:690   */\n        tag_12:\n            /* \"#utility.yul\":641:665   */\n          tag_22\n            /* \"#utility.yul\":659:664   */\n          dup2\n            /* \"#utility.yul\":641:665   */\n          tag_11\n          jump\t// in\n        tag_22:\n            /* \"#utility.yul\":634:639   */\n          dup2\n            /* \"#utility.yul\":631:666   */\n          eq\n            /* \"#utility.yul\":621:684   */\n          tag_23\n          jumpi\n            /* \"#utility.yul\":680:681   */\n          0x00\n            /* \"#utility.yul\":677:678   */\n          dup1\n            /* \"#utility.yul\":670:682   */\n          revert\n            /* \"#utility.yul\":621:684   */\n        tag_23:\n            /* \"#utility.yul\":568:690   */\n          pop\n          jump\t// out\n            /* \"#utility.yul\":696:839   */\n        tag_13:\n            /* \"#utility.yul\":753:758   */\n          0x00\n            /* \"#utility.yul\":784:790   */\n          dup2\n            /* \"#utility.yul\":778:791   */\n          mload\n            /* \"#utility.yul\":769:791   */\n          swap1\n          pop\n            /* \"#utility.yul\":800:833   */\n          tag_25\n            /* \"#utility.yul\":827:832   */\n          dup2\n            /* \"#utility.yul\":800:833   */\n          tag_12\n          jump\t// in\n        tag_25:\n            /* \"#utility.yul\":696:839   */\n          swap3\n          swap2\n          pop\n          pop\n          jump\t// out\n            /* \"#utility.yul\":845:1196   */\n        tag_3:\n            /* \"#utility.yul\":915:921   */\n          0x00\n            /* \"#utility.yul\":964:966   */\n          0x20\n            /* \"#utility.yul\":952:961   */\n          dup3\n            /* \"#utility.yul\":943:950   */\n          dup5\n            /* \"#utility.yul\":939:962   */\n          sub\n            /* \"#utility.yul\":935:967   */\n          slt\n            /* \"#utility.yul\":932:1051   */\n          iszero\n          tag_27\n          jumpi\n            /* \"#utility.yul\":970:1049   */\n          tag_28\n          tag_8\n          jump\t// in\n        tag_28:\n            /* \"#utility.yul\":932:1051   */\n        tag_27:\n            /* \"#utility.yul\":1090:1091   */\n          0x00\n            /* \"#utility.yul\":1115:1179   */\n          tag_29\n            /* \"#utility.yul\":1171:1178   */\n          dup5\n            /* \"#utility.yul\":1162:1168   */\n          dup3\n            /* \"#utility.yul\":1151:1160   */\n          dup6\n            /* \"#utility.yul\":1147:1169   */\n          add\n            /* \"#utility.yul\":1115:1179   */\n          tag_13\n          jump\t// in\n        tag_29:\n            /* \"#utility.yul\":1105:1179   */\n          swap2\n          pop\n            /* \"#utility.yul\":1061:1189   */\n          pop\n            /* \"#utility.yul\":845:1196   */\n          swap3\n          swap2\n          pop\n          pop\n          jump\t// out\n            /* \"factoryContract.sol\":7790:8382  contract doctorContract{... */\n        tag_6:\n          dataSize(sub_0)\n          dup1\n          dataOffset(sub_0)\n          0x00\n          codecopy\n          0x00\n          return\n        stop\n\n        sub_0: assembly {\n                /* \"factoryContract.sol\":7790:8382  contract doctorContract{... */\n              mstore(0x40, 0x80)\n              callvalue\n              dup1\n              iszero\n              tag_1\n              jumpi\n              0x00\n              dup1\n              revert\n            tag_1:\n              pop\n              jumpi(tag_2, lt(calldatasize, 0x04))\n              shr(0xe0, calldataload(0x00))\n              dup1\n              0x20bafa66\n              eq\n              tag_3\n              jumpi\n              dup1\n              0xa0303c41\n              eq\n              tag_4\n              jumpi\n              dup1\n              0xad0ad050\n              eq\n              tag_5\n              jumpi\n              dup1\n              0xb7d4477c\n              eq\n              tag_6\n              jumpi\n              dup1\n              0xda2e626f\n              eq\n              tag_7\n              jumpi\n            tag_2:\n              0x00\n              dup1\n              revert\n                /* \"factoryContract.sol\":8119:8355  function recordPatient(address patient) public {... */\n            tag_3:\n              tag_8\n              0x04\n              dup1\n              calldatasize\n              sub\n              dup2\n              add\n              swap1\n              tag_9\n              swap2\n              swap1\n              tag_10\n              jump\t// in\n            tag_9:\n              tag_11\n              jump\t// in\n            tag_8:\n              stop\n                /* \"factoryContract.sol\":7904:7928  uint public patientCount */\n            tag_4:\n              tag_12\n              tag_13\n              jump\t// in\n            tag_12:\n              mload(0x40)\n              tag_14\n              swap2\n              swap1\n              tag_15\n              jump\t// in\n            tag_14:\n              mload(0x40)\n              dup1\n              swap2\n              sub\n              swap1\n              return\n                /* \"factoryContract.sol\":7822:7843  address public Doctor */\n            tag_5:\n              tag_16\n              tag_17\n              jump\t// in\n            tag_16:\n              mload(0x40)\n              tag_18\n              swap2\n              swap1\n              tag_19\n              jump\t// in\n            tag_18:\n              mload(0x40)\n              dup1\n              swap2\n              sub\n              swap1\n              return\n                /* \"factoryContract.sol\":7935:7977  mapping(uint=>address) public patientTrack */\n            tag_6:\n              tag_20\n              0x04\n              dup1\n              calldatasize\n              sub\n              dup2\n              add\n              swap1\n              tag_21\n              swap2\n              swap1\n              tag_22\n              jump\t// in\n            tag_21:\n              tag_23\n              jump\t// in\n            tag_20:\n              mload(0x40)\n              tag_24\n              swap2\n              swap1\n              tag_19\n              jump\t// in\n            tag_24:\n              mload(0x40)\n              dup1\n              swap2\n              sub\n              swap1\n              return\n                /* \"factoryContract.sol\":7856:7897  mapping(address=>bool) public patientList */\n            tag_7:\n              tag_25\n              0x04\n              dup1\n              calldatasize\n              sub\n              dup2\n              add\n              swap1\n              tag_26\n              swap2\n              swap1\n              tag_10\n              jump\t// in\n            tag_26:\n              tag_27\n              jump\t// in\n            tag_25:\n              mload(0x40)\n              tag_28\n              swap2\n              swap1\n              tag_29\n              jump\t// in\n            tag_28:\n              mload(0x40)\n              dup1\n              swap2\n              sub\n              swap1\n              return\n                /* \"factoryContract.sol\":8119:8355  function recordPatient(address patient) public {... */\n            tag_11:\n                /* \"factoryContract.sol\":8202:8207  false */\n              0x00\n                /* \"factoryContract.sol\":8180:8207  patientList[patient]==false */\n              iszero\n              iszero\n                /* \"factoryContract.sol\":8180:8191  patientList */\n              0x01\n                /* \"factoryContract.sol\":8180:8200  patientList[patient] */\n              0x00\n                /* \"factoryContract.sol\":8192:8199  patient */\n              dup4\n                /* \"factoryContract.sol\":8180:8200  patientList[patient] */\n              0xffffffffffffffffffffffffffffffffffffffff\n              and\n              0xffffffffffffffffffffffffffffffffffffffff\n              and\n              dup2\n              mstore\n              0x20\n              add\n              swap1\n              dup2\n              mstore\n              0x20\n              add\n              0x00\n              keccak256\n              0x00\n              swap1\n              sload\n              swap1\n              0x0100\n              exp\n              swap1\n              div\n              0xff\n              and\n                /* \"factoryContract.sol\":8180:8207  patientList[patient]==false */\n              iszero\n              iszero\n              eq\n                /* \"factoryContract.sol\":8177:8346  if(patientList[patient]==false){... */\n              iszero\n              tag_31\n              jumpi\n                /* \"factoryContract.sol\":8246:8250  true */\n              0x01\n                /* \"factoryContract.sol\":8223:8234  patientList */\n              dup1\n                /* \"factoryContract.sol\":8223:8243  patientList[patient] */\n              0x00\n                /* \"factoryContract.sol\":8235:8242  patient */\n              dup4\n                /* \"factoryContract.sol\":8223:8243  patientList[patient] */\n              0xffffffffffffffffffffffffffffffffffffffff\n              and\n              0xffffffffffffffffffffffffffffffffffffffff\n              and\n              dup2\n              mstore\n              0x20\n              add\n              swap1\n              dup2\n              mstore\n              0x20\n              add\n              0x00\n              keccak256\n              0x00\n                /* \"factoryContract.sol\":8223:8250  patientList[patient] = true */\n              0x0100\n              exp\n              dup2\n              sload\n              dup2\n              0xff\n              mul\n              not\n              and\n              swap1\n              dup4\n              iszero\n              iszero\n              mul\n              or\n              swap1\n              sstore\n              pop\n                /* \"factoryContract.sol\":8295:8302  patient */\n              dup1\n                /* \"factoryContract.sol\":8265:8277  patientTrack */\n              0x03\n                /* \"factoryContract.sol\":8265:8291  patientTrack[patientCount] */\n              0x00\n                /* \"factoryContract.sol\":8278:8290  patientCount */\n              sload(0x02)\n                /* \"factoryContract.sol\":8265:8291  patientTrack[patientCount] */\n              dup2\n              mstore\n              0x20\n              add\n              swap1\n              dup2\n              mstore\n              0x20\n              add\n              0x00\n              keccak256\n              0x00\n                /* \"factoryContract.sol\":8265:8302  patientTrack[patientCount]  = patient */\n              0x0100\n              exp\n              dup2\n              sload\n              dup2\n              0xffffffffffffffffffffffffffffffffffffffff\n              mul\n              not\n              and\n              swap1\n              dup4\n              0xffffffffffffffffffffffffffffffffffffffff\n              and\n              mul\n              or\n              swap1\n              sstore\n              pop\n                /* \"factoryContract.sol\":8331:8332  1 */\n              0x01\n                /* \"factoryContract.sol\":8317:8329  patientCount */\n              0x02\n              0x00\n                /* \"factoryContract.sol\":8317:8332  patientCount+=1 */\n              dup3\n              dup3\n              sload\n              tag_32\n              swap2\n              swap1\n              tag_33\n              jump\t// in\n            tag_32:\n              swap3\n              pop\n              pop\n              dup2\n              swap1\n              sstore\n              pop\n                /* \"factoryContract.sol\":8177:8346  if(patientList[patient]==false){... */\n            tag_31:\n                /* \"factoryContract.sol\":8119:8355  function recordPatient(address patient) public {... */\n              pop\n              jump\t// out\n                /* \"factoryContract.sol\":7904:7928  uint public patientCount */\n            tag_13:\n              sload(0x02)\n              dup2\n              jump\t// out\n                /* \"factoryContract.sol\":7822:7843  address public Doctor */\n            tag_17:\n              0x00\n              dup1\n              sload\n              swap1\n              0x0100\n              exp\n              swap1\n              div\n              0xffffffffffffffffffffffffffffffffffffffff\n              and\n              dup2\n              jump\t// out\n                /* \"factoryContract.sol\":7935:7977  mapping(uint=>address) public patientTrack */\n            tag_23:\n              mstore(0x20, 0x03)\n              dup1\n              0x00\n              mstore\n              keccak256(0x00, 0x40)\n              0x00\n              swap2\n              pop\n              sload\n              swap1\n              0x0100\n              exp\n              swap1\n              div\n              0xffffffffffffffffffffffffffffffffffffffff\n              and\n              dup2\n              jump\t// out\n                /* \"factoryContract.sol\":7856:7897  mapping(address=>bool) public patientList */\n            tag_27:\n              mstore(0x20, 0x01)\n              dup1\n              0x00\n              mstore\n              keccak256(0x00, 0x40)\n              0x00\n              swap2\n              pop\n              sload\n              swap1\n              0x0100\n              exp\n              swap1\n              div\n              0xff\n              and\n              dup2\n              jump\t// out\n                /* \"#utility.yul\":88:205   */\n            tag_35:\n                /* \"#utility.yul\":197:198   */\n              0x00\n                /* \"#utility.yul\":194:195   */\n              dup1\n                /* \"#utility.yul\":187:199   */\n              revert\n                /* \"#utility.yul\":334:460   */\n            tag_37:\n                /* \"#utility.yul\":371:378   */\n              0x00\n                /* \"#utility.yul\":411:453   */\n              0xffffffffffffffffffffffffffffffffffffffff\n                /* \"#utility.yul\":404:409   */\n              dup3\n                /* \"#utility.yul\":400:454   */\n              and\n                /* \"#utility.yul\":389:454   */\n              swap1\n              pop\n                /* \"#utility.yul\":334:460   */\n              swap2\n              swap1\n              pop\n              jump\t// out\n                /* \"#utility.yul\":466:562   */\n            tag_38:\n                /* \"#utility.yul\":503:510   */\n              0x00\n                /* \"#utility.yul\":532:556   */\n              tag_55\n                /* \"#utility.yul\":550:555   */\n              dup3\n                /* \"#utility.yul\":532:556   */\n              tag_37\n              jump\t// in\n            tag_55:\n                /* \"#utility.yul\":521:556   */\n              swap1\n              pop\n                /* \"#utility.yul\":466:562   */\n              swap2\n              swap1\n              pop\n              jump\t// out\n                /* \"#utility.yul\":568:690   */\n            tag_39:\n                /* \"#utility.yul\":641:665   */\n              tag_57\n                /* \"#utility.yul\":659:664   */\n              dup2\n                /* \"#utility.yul\":641:665   */\n              tag_38\n              jump\t// in\n            tag_57:\n                /* \"#utility.yul\":634:639   */\n              dup2\n                /* \"#utility.yul\":631:666   */\n              eq\n                /* \"#utility.yul\":621:684   */\n              tag_58\n              jumpi\n                /* \"#utility.yul\":680:681   */\n              0x00\n                /* \"#utility.yul\":677:678   */\n              dup1\n                /* \"#utility.yul\":670:682   */\n              revert\n                /* \"#utility.yul\":621:684   */\n            tag_58:\n                /* \"#utility.yul\":568:690   */\n              pop\n              jump\t// out\n                /* \"#utility.yul\":696:835   */\n            tag_40:\n                /* \"#utility.yul\":742:747   */\n              0x00\n                /* \"#utility.yul\":780:786   */\n              dup2\n                /* \"#utility.yul\":767:787   */\n              calldataload\n                /* \"#utility.yul\":758:787   */\n              swap1\n              pop\n                /* \"#utility.yul\":796:829   */\n              tag_60\n                /* \"#utility.yul\":823:828   */\n              dup2\n                /* \"#utility.yul\":796:829   */\n              tag_39\n              jump\t// in\n            tag_60:\n                /* \"#utility.yul\":696:835   */\n              swap3\n              swap2\n              pop\n              pop\n              jump\t// out\n                /* \"#utility.yul\":841:1170   */\n            tag_10:\n                /* \"#utility.yul\":900:906   */\n              0x00\n                /* \"#utility.yul\":949:951   */\n              0x20\n                /* \"#utility.yul\":937:946   */\n              dup3\n                /* \"#utility.yul\":928:935   */\n              dup5\n                /* \"#utility.yul\":924:947   */\n              sub\n                /* \"#utility.yul\":920:952   */\n              slt\n                /* \"#utility.yul\":917:1036   */\n              iszero\n              tag_62\n              jumpi\n                /* \"#utility.yul\":955:1034   */\n              tag_63\n              tag_35\n              jump\t// in\n            tag_63:\n                /* \"#utility.yul\":917:1036   */\n            tag_62:\n                /* \"#utility.yul\":1075:1076   */\n              0x00\n                /* \"#utility.yul\":1100:1153   */\n              tag_64\n                /* \"#utility.yul\":1145:1152   */\n              dup5\n                /* \"#utility.yul\":1136:1142   */\n              dup3\n                /* \"#utility.yul\":1125:1134   */\n              dup6\n                /* \"#utility.yul\":1121:1143   */\n              add\n                /* \"#utility.yul\":1100:1153   */\n              tag_40\n              jump\t// in\n            tag_64:\n                /* \"#utility.yul\":1090:1153   */\n              swap2\n              pop\n                /* \"#utility.yul\":1046:1163   */\n              pop\n                /* \"#utility.yul\":841:1170   */\n              swap3\n              swap2\n              pop\n              pop\n              jump\t// out\n                /* \"#utility.yul\":1176:1253   */\n            tag_41:\n                /* \"#utility.yul\":1213:1220   */\n              0x00\n                /* \"#utility.yul\":1242:1247   */\n              dup2\n                /* \"#utility.yul\":1231:1247   */\n              swap1\n              pop\n                /* \"#utility.yul\":1176:1253   */\n              swap2\n              swap1\n              pop\n              jump\t// out\n                /* \"#utility.yul\":1259:1377   */\n            tag_42:\n                /* \"#utility.yul\":1346:1370   */\n              tag_67\n                /* \"#utility.yul\":1364:1369   */\n              dup2\n                /* \"#utility.yul\":1346:1370   */\n              tag_41\n              jump\t// in\n            tag_67:\n                /* \"#utility.yul\":1341:1344   */\n              dup3\n                /* \"#utility.yul\":1334:1371   */\n              mstore\n                /* \"#utility.yul\":1259:1377   */\n              pop\n              pop\n              jump\t// out\n                /* \"#utility.yul\":1383:1605   */\n            tag_15:\n                /* \"#utility.yul\":1476:1480   */\n              0x00\n                /* \"#utility.yul\":1514:1516   */\n              0x20\n                /* \"#utility.yul\":1503:1512   */\n              dup3\n                /* \"#utility.yul\":1499:1517   */\n              add\n                /* \"#utility.yul\":1491:1517   */\n              swap1\n              pop\n                /* \"#utility.yul\":1527:1598   */\n              tag_69\n                /* \"#utility.yul\":1595:1596   */\n              0x00\n                /* \"#utility.yul\":1584:1593   */\n              dup4\n                /* \"#utility.yul\":1580:1597   */\n              add\n                /* \"#utility.yul\":1571:1577   */\n              dup5\n                /* \"#utility.yul\":1527:1598   */\n              tag_42\n              jump\t// in\n            tag_69:\n                /* \"#utility.yul\":1383:1605   */\n              swap3\n              swap2\n              pop\n              pop\n              jump\t// out\n                /* \"#utility.yul\":1611:1729   */\n            tag_43:\n                /* \"#utility.yul\":1698:1722   */\n              tag_71\n                /* \"#utility.yul\":1716:1721   */\n              dup2\n                /* \"#utility.yul\":1698:1722   */\n              tag_38\n              jump\t// in\n            tag_71:\n                /* \"#utility.yul\":1693:1696   */\n              dup3\n                /* \"#utility.yul\":1686:1723   */\n              mstore\n                /* \"#utility.yul\":1611:1729   */\n              pop\n              pop\n              jump\t// out\n                /* \"#utility.yul\":1735:1957   */\n            tag_19:\n                /* \"#utility.yul\":1828:1832   */\n              0x00\n                /* \"#utility.yul\":1866:1868   */\n              0x20\n                /* \"#utility.yul\":1855:1864   */\n              dup3\n                /* \"#utility.yul\":1851:1869   */\n              add\n                /* \"#utility.yul\":1843:1869   */\n              swap1\n              pop\n                /* \"#utility.yul\":1879:1950   */\n              tag_73\n                /* \"#utility.yul\":1947:1948   */\n              0x00\n                /* \"#utility.yul\":1936:1945   */\n              dup4\n                /* \"#utility.yul\":1932:1949   */\n              add\n                /* \"#utility.yul\":1923:1929   */\n              dup5\n                /* \"#utility.yul\":1879:1950   */\n              tag_43\n              jump\t// in\n            tag_73:\n                /* \"#utility.yul\":1735:1957   */\n              swap3\n              swap2\n              pop\n              pop\n              jump\t// out\n                /* \"#utility.yul\":1963:2085   */\n            tag_44:\n                /* \"#utility.yul\":2036:2060   */\n              tag_75\n                /* \"#utility.yul\":2054:2059   */\n              dup2\n                /* \"#utility.yul\":2036:2060   */\n              tag_41\n              jump\t// in\n            tag_75:\n                /* \"#utility.yul\":2029:2034   */\n              dup2\n                /* \"#utility.yul\":2026:2061   */\n              eq\n                /* \"#utility.yul\":2016:2079   */\n              tag_76\n              jumpi\n                /* \"#utility.yul\":2075:2076   */\n              0x00\n                /* \"#utility.yul\":2072:2073   */\n              dup1\n                /* \"#utility.yul\":2065:2077   */\n              revert\n                /* \"#utility.yul\":2016:2079   */\n            tag_76:\n                /* \"#utility.yul\":1963:2085   */\n              pop\n              jump\t// out\n                /* \"#utility.yul\":2091:2230   */\n            tag_45:\n                /* \"#utility.yul\":2137:2142   */\n              0x00\n                /* \"#utility.yul\":2175:2181   */\n              dup2\n                /* \"#utility.yul\":2162:2182   */\n              calldataload\n                /* \"#utility.yul\":2153:2182   */\n              swap1\n              pop\n                /* \"#utility.yul\":2191:2224   */\n              tag_78\n                /* \"#utility.yul\":2218:2223   */\n              dup2\n                /* \"#utility.yul\":2191:2224   */\n              tag_44\n              jump\t// in\n            tag_78:\n                /* \"#utility.yul\":2091:2230   */\n              swap3\n              swap2\n              pop\n              pop\n              jump\t// out\n                /* \"#utility.yul\":2236:2565   */\n            tag_22:\n                /* \"#utility.yul\":2295:2301   */\n              0x00\n                /* \"#utility.yul\":2344:2346   */\n              0x20\n                /* \"#utility.yul\":2332:2341   */\n              dup3\n                /* \"#utility.yul\":2323:2330   */\n              dup5\n                /* \"#utility.yul\":2319:2342   */\n              sub\n                /* \"#utility.yul\":2315:2347   */\n              slt\n                /* \"#utility.yul\":2312:2431   */\n              iszero\n              tag_80\n              jumpi\n                /* \"#utility.yul\":2350:2429   */\n              tag_81\n              tag_35\n              jump\t// in\n            tag_81:\n                /* \"#utility.yul\":2312:2431   */\n            tag_80:\n                /* \"#utility.yul\":2470:2471   */\n              0x00\n                /* \"#utility.yul\":2495:2548   */\n              tag_82\n                /* \"#utility.yul\":2540:2547   */\n              dup5\n                /* \"#utility.yul\":2531:2537   */\n              dup3\n                /* \"#utility.yul\":2520:2529   */\n              dup6\n                /* \"#utility.yul\":2516:2538   */\n              add\n                /* \"#utility.yul\":2495:2548   */\n              tag_45\n              jump\t// in\n            tag_82:\n                /* \"#utility.yul\":2485:2548   */\n              swap2\n              pop\n                /* \"#utility.yul\":2441:2558   */\n              pop\n                /* \"#utility.yul\":2236:2565   */\n              swap3\n              swap2\n              pop\n              pop\n              jump\t// out\n                /* \"#utility.yul\":2571:2661   */\n            tag_46:\n                /* \"#utility.yul\":2605:2612   */\n              0x00\n                /* \"#utility.yul\":2648:2653   */\n              dup2\n                /* \"#utility.yul\":2641:2654   */\n              iszero\n                /* \"#utility.yul\":2634:2655   */\n              iszero\n                /* \"#utility.yul\":2623:2655   */\n              swap1\n              pop\n                /* \"#utility.yul\":2571:2661   */\n              swap2\n              swap1\n              pop\n              jump\t// out\n                /* \"#utility.yul\":2667:2776   */\n            tag_47:\n                /* \"#utility.yul\":2748:2769   */\n              tag_85\n                /* \"#utility.yul\":2763:2768   */\n              dup2\n                /* \"#utility.yul\":2748:2769   */\n              tag_46\n              jump\t// in\n            tag_85:\n                /* \"#utility.yul\":2743:2746   */\n              dup3\n                /* \"#utility.yul\":2736:2770   */\n              mstore\n                /* \"#utility.yul\":2667:2776   */\n              pop\n              pop\n              jump\t// out\n                /* \"#utility.yul\":2782:2992   */\n            tag_29:\n                /* \"#utility.yul\":2869:2873   */\n              0x00\n                /* \"#utility.yul\":2907:2909   */\n              0x20\n                /* \"#utility.yul\":2896:2905   */\n              dup3\n                /* \"#utility.yul\":2892:2910   */\n              add\n                /* \"#utility.yul\":2884:2910   */\n              swap1\n              pop\n                /* \"#utility.yul\":2920:2985   */\n              tag_87\n                /* \"#utility.yul\":2982:2983   */\n              0x00\n                /* \"#utility.yul\":2971:2980   */\n              dup4\n                /* \"#utility.yul\":2967:2984   */\n              add\n                /* \"#utility.yul\":2958:2964   */\n              dup5\n                /* \"#utility.yul\":2920:2985   */\n              tag_47\n              jump\t// in\n            tag_87:\n                /* \"#utility.yul\":2782:2992   */\n              swap3\n              swap2\n              pop\n              pop\n              jump\t// out\n                /* \"#utility.yul\":2998:3178   */\n            tag_48:\n                /* \"#utility.yul\":3046:3123   */\n              0x4e487b7100000000000000000000000000000000000000000000000000000000\n                /* \"#utility.yul\":3043:3044   */\n              0x00\n                /* \"#utility.yul\":3036:3124   */\n              mstore\n                /* \"#utility.yul\":3143:3147   */\n              0x11\n                /* \"#utility.yul\":3140:3141   */\n              0x04\n                /* \"#utility.yul\":3133:3148   */\n              mstore\n                /* \"#utility.yul\":3167:3171   */\n              0x24\n                /* \"#utility.yul\":3164:3165   */\n              0x00\n                /* \"#utility.yul\":3157:3172   */\n              revert\n                /* \"#utility.yul\":3184:3489   */\n            tag_33:\n                /* \"#utility.yul\":3224:3227   */\n              0x00\n                /* \"#utility.yul\":3243:3263   */\n              tag_90\n                /* \"#utility.yul\":3261:3262   */\n              dup3\n                /* \"#utility.yul\":3243:3263   */\n              tag_41\n              jump\t// in\n            tag_90:\n                /* \"#utility.yul\":3238:3263   */\n              swap2\n              pop\n                /* \"#utility.yul\":3277:3297   */\n              tag_91\n                /* \"#utility.yul\":3295:3296   */\n              dup4\n                /* \"#utility.yul\":3277:3297   */\n              tag_41\n              jump\t// in\n            tag_91:\n                /* \"#utility.yul\":3272:3297   */\n              swap3\n              pop\n                /* \"#utility.yul\":3431:3432   */\n              dup3\n                /* \"#utility.yul\":3363:3429   */\n              0xffffffffffffffffffffffffffffffffffffffffffffffffffffffffffffffff\n                /* \"#utility.yul\":3359:3433   */\n              sub\n                /* \"#utility.yul\":3356:3357   */\n              dup3\n                /* \"#utility.yul\":3353:3434   */\n              gt\n                /* \"#utility.yul\":3350:3457   */\n              iszero\n              tag_92\n              jumpi\n                /* \"#utility.yul\":3437:3455   */\n              tag_93\n              tag_48\n              jump\t// in\n            tag_93:\n                /* \"#utility.yul\":3350:3457   */\n            tag_92:\n                /* \"#utility.yul\":3481:3482   */\n              dup3\n                /* \"#utility.yul\":3478:3479   */\n              dup3\n                /* \"#utility.yul\":3474:3483   */\n              add\n                /* \"#utility.yul\":3467:3483   */\n              swap1\n              pop\n                /* \"#utility.yul\":3184:3489   */\n              swap3\n              swap2\n              pop\n              pop\n              jump\t// out\n\n            auxdata: 0xa264697066735822122079770a4ec98274939cc0ae96c98a7a4311cc64109e68f05cca76acc3904a3d3864736f6c63430008090033\n        }\n    }\n\n    sub_2: assembly {\n            /* \"factoryContract.sol\":5202:7780  contract medicalProfContract{... */\n          mstore(0x40, 0x80)\n            /* \"factoryContract.sol\":5742:6315  constructor(address factory, address prof,string memory _name, uint _age, string memory _gender, string memory _hospital,string memory _hospitalId, string memory _email){... */\n          callvalue\n          dup1\n          iszero\n          tag_1\n          jumpi\n          0x00\n          dup1\n          revert\n        tag_1:\n          pop\n          mload(0x40)\n          sub(codesize, bytecodeSize)\n          dup1\n          bytecodeSize\n          dup4\n          codecopy\n          dup2\n          dup2\n          add\n          0x40\n          mstore\n          dup2\n          add\n          swap1\n          tag_2\n          swap2\n          swap1\n          tag_3\n          jump\t// in\n        tag_2:\n            /* \"factoryContract.sol\":5929:5933  prof */\n          dup7\n            /* \"factoryContract.sol\":5922:5926  Prof */\n          0x00\n          dup1\n            /* \"factoryContract.sol\":5922:5933  Prof = prof */\n          0x0100\n          exp\n          dup2\n          sload\n          dup2\n          0xffffffffffffffffffffffffffffffffffffffff\n          mul\n          not\n          and\n          swap1\n          dup4\n          0xffffffffffffffffffffffffffffffffffffffff\n          and\n          mul\n          or\n          swap1\n          sstore\n          pop\n            /* \"factoryContract.sol\":5944:5976  details memory newStructInstance */\n          0x00\n            /* \"factoryContract.sol\":5979:6237  details({... */\n          mload(0x40)\n          dup1\n          0xc0\n          add\n          0x40\n          mstore\n          dup1\n            /* \"factoryContract.sol\":6012:6017  _name */\n          dup9\n            /* \"factoryContract.sol\":5979:6237  details({... */\n          dup2\n          mstore\n          0x20\n          add\n            /* \"factoryContract.sol\":6037:6041  _age */\n          dup8\n            /* \"factoryContract.sol\":5979:6237  details({... */\n          dup2\n          mstore\n          0x20\n          add\n            /* \"factoryContract.sol\":6065:6072  _gender */\n          dup7\n            /* \"factoryContract.sol\":5979:6237  details({... */\n          dup2\n          mstore\n          0x20\n          add\n            /* \"factoryContract.sol\":6098:6107  _hospital */\n          dup6\n            /* \"factoryContract.sol\":5979:6237  details({... */\n          dup2\n          mstore\n          0x20\n          add\n            /* \"factoryContract.sol\":6135:6146  _hospitalId */\n          dup5\n            /* \"factoryContract.sol\":5979:6237  details({... */\n          dup2\n          mstore\n          0x20\n          add\n            /* \"factoryContract.sol\":6169:6175  _email */\n          dup4\n            /* \"factoryContract.sol\":5979:6237  details({... */\n          dup2\n          mstore\n          pop\n            /* \"factoryContract.sol\":5944:6237  details memory newStructInstance = details({... */\n          swap1\n          pop\n            /* \"factoryContract.sol\":6262:6279  newStructInstance */\n          dup1\n            /* \"factoryContract.sol\":6248:6259  profDetails */\n          0x03\n            /* \"factoryContract.sol\":6248:6279  profDetails = newStructInstance */\n          0x00\n          dup3\n          add\n          mload\n          dup2\n          0x00\n          add\n          swap1\n          dup1\n          mload\n          swap1\n          0x20\n          add\n          swap1\n          tag_6\n          swap3\n          swap2\n          swap1\n          tag_7\n          jump\t// in\n        tag_6:\n          pop\n          0x20\n          dup3\n          add\n          mload\n          dup2\n          0x01\n          add\n          sstore\n          0x40\n          dup3\n          add\n          mload\n          dup2\n          0x02\n          add\n          swap1\n          dup1\n          mload\n          swap1\n          0x20\n          add\n          swap1\n          tag_8\n          swap3\n          swap2\n          swap1\n          tag_7\n          jump\t// in\n        tag_8:\n          pop\n          0x60\n          dup3\n          add\n          mload\n          dup2\n          0x03\n          add\n          swap1\n          dup1\n          mload\n          swap1\n          0x20\n          add\n          swap1\n          tag_9\n          swap3\n          swap2\n          swap1\n          tag_7\n          jump\t// in\n        tag_9:\n          pop\n          0x80\n          dup3\n          add\n          mload\n          dup2\n          0x04\n          add\n          swap1\n          dup1\n          mload\n          swap1\n          0x20\n          add\n          swap1\n          tag_10\n          swap3\n          swap2\n          swap1\n          tag_7\n          jump\t// in\n        tag_10:\n          pop\n          0xa0\n          dup3\n          add\n          mload\n          dup2\n          0x05\n          add\n          swap1\n          dup1\n          mload\n          swap1\n          0x20\n          add\n          swap1\n          tag_11\n          swap3\n          swap2\n          swap1\n          tag_7\n          jump\t// in\n        tag_11:\n          pop\n          swap1\n          pop\n          pop\n            /* \"factoryContract.sol\":6300:6307  factory */\n          dup9\n            /* \"factoryContract.sol\":6290:6297  Factory */\n          0x01\n          0x00\n            /* \"factoryContract.sol\":6290:6307  Factory = factory */\n          0x0100\n          exp\n          dup2\n          sload\n          dup2\n          0xffffffffffffffffffffffffffffffffffffffff\n          mul\n          not\n          and\n          swap1\n          dup4\n          0xffffffffffffffffffffffffffffffffffffffff\n          and\n          mul\n          or\n          swap1\n          sstore\n          pop\n            /* \"factoryContract.sol\":5911:6315  {... */\n          pop\n            /* \"factoryContract.sol\":5742:6315  constructor(address factory, address prof,string memory _name, uint _age, string memory _gender, string memory _hospital,string memory _hospitalId, string memory _email){... */\n          pop\n          pop\n          pop\n          pop\n          pop\n          pop\n          pop\n          pop\n            /* \"factoryContract.sol\":5202:7780  contract medicalProfContract{... */\n          jump(tag_12)\n        tag_7:\n          dup3\n          dup1\n          sload\n          tag_13\n          swap1\n          tag_14\n          jump\t// in\n        tag_13:\n          swap1\n          0x00\n          mstore\n          keccak256(0x00, 0x20)\n          swap1\n          0x1f\n          add\n          0x20\n          swap1\n          div\n          dup2\n          add\n          swap3\n          dup3\n          tag_16\n          jumpi\n          0x00\n          dup6\n          sstore\n          jump(tag_15)\n        tag_16:\n          dup3\n          0x1f\n          lt\n          tag_17\n          jumpi\n          dup1\n          mload\n          not(0xff)\n          and\n          dup4\n          dup1\n          add\n          or\n          dup6\n          sstore\n          jump(tag_15)\n        tag_17:\n          dup3\n          dup1\n          add\n          0x01\n          add\n          dup6\n          sstore\n          dup3\n          iszero\n          tag_15\n          jumpi\n          swap2\n          dup3\n          add\n        tag_18:\n          dup3\n          dup2\n          gt\n          iszero\n          tag_19\n          jumpi\n          dup3\n          mload\n          dup3\n          sstore\n          swap2\n          0x20\n          add\n          swap2\n          swap1\n          0x01\n          add\n          swap1\n          jump(tag_18)\n        tag_19:\n        tag_15:\n          pop\n          swap1\n          pop\n          tag_20\n          swap2\n          swap1\n          tag_21\n          jump\t// in\n        tag_20:\n          pop\n          swap1\n          jump\t// out\n        tag_21:\n        tag_22:\n          dup1\n          dup3\n          gt\n          iszero\n          tag_23\n          jumpi\n          0x00\n          dup2\n          0x00\n          swap1\n          sstore\n          pop\n          0x01\n          add\n          jump(tag_22)\n        tag_23:\n          pop\n          swap1\n          jump\t// out\n            /* \"#utility.yul\":7:82   */\n        tag_24:\n            /* \"#utility.yul\":40:46   */\n          0x00\n            /* \"#utility.yul\":73:75   */\n          0x40\n            /* \"#utility.yul\":67:76   */\n          mload\n            /* \"#utility.yul\":57:76   */\n          swap1\n          pop\n            /* \"#utility.yul\":7:82   */\n          swap1\n          jump\t// out\n            /* \"#utility.yul\":88:205   */\n        tag_25:\n            /* \"#utility.yul\":197:198   */\n          0x00\n            /* \"#utility.yul\":194:195   */\n          dup1\n            /* \"#utility.yul\":187:199   */\n          revert\n            /* \"#utility.yul\":211:328   */\n        tag_26:\n            /* \"#utility.yul\":320:321   */\n          0x00\n            /* \"#utility.yul\":317:318   */\n          dup1\n            /* \"#utility.yul\":310:322   */\n          revert\n            /* \"#utility.yul\":334:460   */\n        tag_27:\n            /* \"#utility.yul\":371:378   */\n          0x00\n            /* \"#utility.yul\":411:453   */\n          0xffffffffffffffffffffffffffffffffffffffff\n            /* \"#utility.yul\":404:409   */\n          dup3\n            /* \"#utility.yul\":400:454   */\n          and\n            /* \"#utility.yul\":389:454   */\n          swap1\n          pop\n            /* \"#utility.yul\":334:460   */\n          swap2\n          swap1\n          pop\n          jump\t// out\n            /* \"#utility.yul\":466:562   */\n        tag_28:\n            /* \"#utility.yul\":503:510   */\n          0x00\n            /* \"#utility.yul\":532:556   */\n          tag_51\n            /* \"#utility.yul\":550:555   */\n          dup3\n            /* \"#utility.yul\":532:556   */\n          tag_27\n          jump\t// in\n        tag_51:\n            /* \"#utility.yul\":521:556   */\n          swap1\n          pop\n            /* \"#utility.yul\":466:562   */\n          swap2\n          swap1\n          pop\n          jump\t// out\n            /* \"#utility.yul\":568:690   */\n        tag_29:\n            /* \"#utility.yul\":641:665   */\n          tag_53\n            /* \"#utility.yul\":659:664   */\n          dup2\n            /* \"#utility.yul\":641:665   */\n          tag_28\n          jump\t// in\n        tag_53:\n            /* \"#utility.yul\":634:639   */\n          dup2\n            /* \"#utility.yul\":631:666   */\n          eq\n            /* \"#utility.yul\":621:684   */\n          tag_54\n          jumpi\n            /* \"#utility.yul\":680:681   */\n          0x00\n            /* \"#utility.yul\":677:678   */\n          dup1\n            /* \"#utility.yul\":670:682   */\n          revert\n            /* \"#utility.yul\":621:684   */\n        tag_54:\n            /* \"#utility.yul\":568:690   */\n          pop\n          jump\t// out\n            /* \"#utility.yul\":696:839   */\n        tag_30:\n            /* \"#utility.yul\":753:758   */\n          0x00\n            /* \"#utility.yul\":784:790   */\n          dup2\n            /* \"#utility.yul\":778:791   */\n          mload\n            /* \"#utility.yul\":769:791   */\n          swap1\n          pop\n            /* \"#utility.yul\":800:833   */\n          tag_56\n            /* \"#utility.yul\":827:832   */\n          dup2\n            /* \"#utility.yul\":800:833   */\n          tag_29\n          jump\t// in\n        tag_56:\n            /* \"#utility.yul\":696:839   */\n          swap3\n          swap2\n          pop\n          pop\n          jump\t// out\n            /* \"#utility.yul\":845:962   */\n        tag_31:\n            /* \"#utility.yul\":954:955   */\n          0x00\n            /* \"#utility.yul\":951:952   */\n          dup1\n            /* \"#utility.yul\":944:956   */\n          revert\n            /* \"#utility.yul\":968:1085   */\n        tag_32:\n            /* \"#utility.yul\":1077:1078   */\n          0x00\n            /* \"#utility.yul\":1074:1075   */\n          dup1\n            /* \"#utility.yul\":1067:1079   */\n          revert\n            /* \"#utility.yul\":1091:1193   */\n        tag_33:\n            /* \"#utility.yul\":1132:1138   */\n          0x00\n            /* \"#utility.yul\":1183:1185   */\n          0x1f\n            /* \"#utility.yul\":1179:1186   */\n          not\n            /* \"#utility.yul\":1174:1176   */\n          0x1f\n            /* \"#utility.yul\":1167:1172   */\n          dup4\n            /* \"#utility.yul\":1163:1177   */\n          add\n            /* \"#utility.yul\":1159:1187   */\n          and\n            /* \"#utility.yul\":1149:1187   */\n          swap1\n          pop\n            /* \"#utility.yul\":1091:1193   */\n          swap2\n          swap1\n          pop\n          jump\t// out\n            /* \"#utility.yul\":1199:1379   */\n        tag_34:\n            /* \"#utility.yul\":1247:1324   */\n          0x4e487b7100000000000000000000000000000000000000000000000000000000\n            /* \"#utility.yul\":1244:1245   */\n          0x00\n            /* \"#utility.yul\":1237:1325   */\n          mstore\n            /* \"#utility.yul\":1344:1348   */\n          0x41\n            /* \"#utility.yul\":1341:1342   */\n          0x04\n            /* \"#utility.yul\":1334:1349   */\n          mstore\n            /* \"#utility.yul\":1368:1372   */\n          0x24\n            /* \"#utility.yul\":1365:1366   */\n          0x00\n            /* \"#utility.yul\":1358:1373   */\n          revert\n            /* \"#utility.yul\":1385:1666   */\n        tag_35:\n            /* \"#utility.yul\":1468:1495   */\n          tag_62\n            /* \"#utility.yul\":1490:1494   */\n          dup3\n            /* \"#utility.yul\":1468:1495   */\n          tag_33\n          jump\t// in\n        tag_62:\n            /* \"#utility.yul\":1460:1466   */\n          dup2\n            /* \"#utility.yul\":1456:1496   */\n          add\n            /* \"#utility.yul\":1598:1604   */\n          dup2\n            /* \"#utility.yul\":1586:1596   */\n          dup2\n            /* \"#utility.yul\":1583:1605   */\n          lt\n            /* \"#utility.yul\":1562:1580   */\n          0xffffffffffffffff\n            /* \"#utility.yul\":1550:1560   */\n          dup3\n            /* \"#utility.yul\":1547:1581   */\n          gt\n            /* \"#utility.yul\":1544:1606   */\n          or\n            /* \"#utility.yul\":1541:1629   */\n          iszero\n          tag_63\n          jumpi\n            /* \"#utility.yul\":1609:1627   */\n          tag_64\n          tag_34\n          jump\t// in\n        tag_64:\n            /* \"#utility.yul\":1541:1629   */\n        tag_63:\n            /* \"#utility.yul\":1649:1659   */\n          dup1\n            /* \"#utility.yul\":1645:1647   */\n          0x40\n            /* \"#utility.yul\":1638:1660   */\n          mstore\n            /* \"#utility.yul\":1428:1666   */\n          pop\n            /* \"#utility.yul\":1385:1666   */\n          pop\n          pop\n          jump\t// out\n            /* \"#utility.yul\":1672:1801   */\n        tag_36:\n            /* \"#utility.yul\":1706:1712   */\n          0x00\n            /* \"#utility.yul\":1733:1753   */\n          tag_66\n          tag_24\n          jump\t// in\n        tag_66:\n            /* \"#utility.yul\":1723:1753   */\n          swap1\n          pop\n            /* \"#utility.yul\":1762:1795   */\n          tag_67\n            /* \"#utility.yul\":1790:1794   */\n          dup3\n            /* \"#utility.yul\":1782:1788   */\n          dup3\n            /* \"#utility.yul\":1762:1795   */\n          tag_35\n          jump\t// in\n        tag_67:\n            /* \"#utility.yul\":1672:1801   */\n          swap2\n          swap1\n          pop\n          jump\t// out\n            /* \"#utility.yul\":1807:2115   */\n        tag_37:\n            /* \"#utility.yul\":1869:1873   */\n          0x00\n            /* \"#utility.yul\":1959:1977   */\n          0xffffffffffffffff\n            /* \"#utility.yul\":1951:1957   */\n          dup3\n            /* \"#utility.yul\":1948:1978   */\n          gt\n            /* \"#utility.yul\":1945:2001   */\n          iszero\n          tag_69\n          jumpi\n            /* \"#utility.yul\":1981:1999   */\n          tag_70\n          tag_34\n          jump\t// in\n        tag_70:\n            /* \"#utility.yul\":1945:2001   */\n        tag_69:\n            /* \"#utility.yul\":2019:2048   */\n          tag_71\n            /* \"#utility.yul\":2041:2047   */\n          dup3\n            /* \"#utility.yul\":2019:2048   */\n          tag_33\n          jump\t// in\n        tag_71:\n            /* \"#utility.yul\":2011:2048   */\n          swap1\n          pop\n            /* \"#utility.yul\":2103:2107   */\n          0x20\n            /* \"#utility.yul\":2097:2101   */\n          dup2\n            /* \"#utility.yul\":2093:2108   */\n          add\n            /* \"#utility.yul\":2085:2108   */\n          swap1\n          pop\n            /* \"#utility.yul\":1807:2115   */\n          swap2\n          swap1\n          pop\n          jump\t// out\n            /* \"#utility.yul\":2121:2428   */\n        tag_38:\n            /* \"#utility.yul\":2189:2190   */\n          0x00\n            /* \"#utility.yul\":2199:2312   */\n        tag_73:\n            /* \"#utility.yul\":2213:2219   */\n          dup4\n            /* \"#utility.yul\":2210:2211   */\n          dup2\n            /* \"#utility.yul\":2207:2220   */\n          lt\n            /* \"#utility.yul\":2199:2312   */\n          iszero\n          tag_75\n          jumpi\n            /* \"#utility.yul\":2298:2299   */\n          dup1\n            /* \"#utility.yul\":2293:2296   */\n          dup3\n            /* \"#utility.yul\":2289:2300   */\n          add\n            /* \"#utility.yul\":2283:2301   */\n          mload\n            /* \"#utility.yul\":2279:2280   */\n          dup2\n            /* \"#utility.yul\":2274:2277   */\n          dup5\n            /* \"#utility.yul\":2270:2281   */\n          add\n            /* \"#utility.yul\":2263:2302   */\n          mstore\n            /* \"#utility.yul\":2235:2237   */\n          0x20\n            /* \"#utility.yul\":2232:2233   */\n          dup2\n            /* \"#utility.yul\":2228:2238   */\n          add\n            /* \"#utility.yul\":2223:2238   */\n          swap1\n          pop\n            /* \"#utility.yul\":2199:2312   */\n          jump(tag_73)\n        tag_75:\n            /* \"#utility.yul\":2330:2336   */\n          dup4\n            /* \"#utility.yul\":2327:2328   */\n          dup2\n            /* \"#utility.yul\":2324:2337   */\n          gt\n            /* \"#utility.yul\":2321:2422   */\n          iszero\n          tag_76\n          jumpi\n            /* \"#utility.yul\":2410:2411   */\n          0x00\n            /* \"#utility.yul\":2401:2407   */\n          dup5\n            /* \"#utility.yul\":2396:2399   */\n          dup5\n            /* \"#utility.yul\":2392:2408   */\n          add\n            /* \"#utility.yul\":2385:2412   */\n          mstore\n            /* \"#utility.yul\":2321:2422   */\n        tag_76:\n            /* \"#utility.yul\":2170:2428   */\n          pop\n            /* \"#utility.yul\":2121:2428   */\n          pop\n          pop\n          pop\n          jump\t// out\n            /* \"#utility.yul\":2434:2855   */\n        tag_39:\n            /* \"#utility.yul\":2523:2528   */\n          0x00\n            /* \"#utility.yul\":2548:2614   */\n          tag_78\n            /* \"#utility.yul\":2564:2613   */\n          tag_79\n            /* \"#utility.yul\":2606:2612   */\n          dup5\n            /* \"#utility.yul\":2564:2613   */\n          tag_37\n          jump\t// in\n        tag_79:\n            /* \"#utility.yul\":2548:2614   */\n          tag_36\n          jump\t// in\n        tag_78:\n            /* \"#utility.yul\":2539:2614   */\n          swap1\n          pop\n            /* \"#utility.yul\":2637:2643   */\n          dup3\n            /* \"#utility.yul\":2630:2635   */\n          dup2\n            /* \"#utility.yul\":2623:2644   */\n          mstore\n            /* \"#utility.yul\":2675:2679   */\n          0x20\n            /* \"#utility.yul\":2668:2673   */\n          dup2\n            /* \"#utility.yul\":2664:2680   */\n          add\n            /* \"#utility.yul\":2713:2716   */\n          dup5\n            /* \"#utility.yul\":2704:2710   */\n          dup5\n            /* \"#utility.yul\":2699:2702   */\n          dup5\n            /* \"#utility.yul\":2695:2711   */\n          add\n            /* \"#utility.yul\":2692:2717   */\n          gt\n            /* \"#utility.yul\":2689:2801   */\n          iszero\n          tag_80\n          jumpi\n            /* \"#utility.yul\":2720:2799   */\n          tag_81\n          tag_32\n          jump\t// in\n        tag_81:\n            /* \"#utility.yul\":2689:2801   */\n        tag_80:\n            /* \"#utility.yul\":2810:2849   */\n          tag_82\n            /* \"#utility.yul\":2842:2848   */\n          dup5\n            /* \"#utility.yul\":2837:2840   */\n          dup3\n            /* \"#utility.yul\":2832:2835   */\n          dup6\n            /* \"#utility.yul\":2810:2849   */\n          tag_38\n          jump\t// in\n        tag_82:\n            /* \"#utility.yul\":2529:2855   */\n          pop\n            /* \"#utility.yul\":2434:2855   */\n          swap4\n          swap3\n          pop\n          pop\n          pop\n          jump\t// out\n            /* \"#utility.yul\":2875:3230   */\n        tag_40:\n            /* \"#utility.yul\":2942:2947   */\n          0x00\n            /* \"#utility.yul\":2991:2994   */\n          dup3\n            /* \"#utility.yul\":2984:2988   */\n          0x1f\n            /* \"#utility.yul\":2976:2982   */\n          dup4\n            /* \"#utility.yul\":2972:2989   */\n          add\n            /* \"#utility.yul\":2968:2995   */\n          slt\n            /* \"#utility.yul\":2958:3080   */\n          tag_84\n          jumpi\n            /* \"#utility.yul\":2999:3078   */\n          tag_85\n          tag_31\n          jump\t// in\n        tag_85:\n            /* \"#utility.yul\":2958:3080   */\n        tag_84:\n            /* \"#utility.yul\":3109:3115   */\n          dup2\n            /* \"#utility.yul\":3103:3116   */\n          mload\n            /* \"#utility.yul\":3134:3224   */\n          tag_86\n            /* \"#utility.yul\":3220:3223   */\n          dup5\n            /* \"#utility.yul\":3212:3218   */\n          dup3\n            /* \"#utility.yul\":3205:3209   */\n          0x20\n            /* \"#utility.yul\":3197:3203   */\n          dup7\n            /* \"#utility.yul\":3193:3210   */\n          add\n            /* \"#utility.yul\":3134:3224   */\n          tag_39\n          jump\t// in\n        tag_86:\n            /* \"#utility.yul\":3125:3224   */\n          swap2\n          pop\n            /* \"#utility.yul\":2948:3230   */\n          pop\n            /* \"#utility.yul\":2875:3230   */\n          swap3\n          swap2\n          pop\n          pop\n          jump\t// out\n            /* \"#utility.yul\":3236:3313   */\n        tag_41:\n            /* \"#utility.yul\":3273:3280   */\n          0x00\n            /* \"#utility.yul\":3302:3307   */\n          dup2\n            /* \"#utility.yul\":3291:3307   */\n          swap1\n          pop\n            /* \"#utility.yul\":3236:3313   */\n          swap2\n          swap1\n          pop\n          jump\t// out\n            /* \"#utility.yul\":3319:3441   */\n        tag_42:\n            /* \"#utility.yul\":3392:3416   */\n          tag_89\n            /* \"#utility.yul\":3410:3415   */\n          dup2\n            /* \"#utility.yul\":3392:3416   */\n          tag_41\n          jump\t// in\n        tag_89:\n            /* \"#utility.yul\":3385:3390   */\n          dup2\n            /* \"#utility.yul\":3382:3417   */\n          eq\n            /* \"#utility.yul\":3372:3435   */\n          tag_90\n          jumpi\n            /* \"#utility.yul\":3431:3432   */\n          0x00\n            /* \"#utility.yul\":3428:3429   */\n          dup1\n            /* \"#utility.yul\":3421:3433   */\n          revert\n            /* \"#utility.yul\":3372:3435   */\n        tag_90:\n            /* \"#utility.yul\":3319:3441   */\n          pop\n          jump\t// out\n            /* \"#utility.yul\":3447:3590   */\n        tag_43:\n            /* \"#utility.yul\":3504:3509   */\n          0x00\n            /* \"#utility.yul\":3535:3541   */\n          dup2\n            /* \"#utility.yul\":3529:3542   */\n          mload\n            /* \"#utility.yul\":3520:3542   */\n          swap1\n          pop\n            /* \"#utility.yul\":3551:3584   */\n          tag_92\n            /* \"#utility.yul\":3578:3583   */\n          dup2\n            /* \"#utility.yul\":3551:3584   */\n          tag_42\n          jump\t// in\n        tag_92:\n            /* \"#utility.yul\":3447:3590   */\n          swap3\n          swap2\n          pop\n          pop\n          jump\t// out\n            /* \"#utility.yul\":3596:5909   */\n        tag_3:\n            /* \"#utility.yul\":3779:3785   */\n          0x00\n            /* \"#utility.yul\":3787:3793   */\n          dup1\n            /* \"#utility.yul\":3795:3801   */\n          0x00\n            /* \"#utility.yul\":3803:3809   */\n          dup1\n            /* \"#utility.yul\":3811:3817   */\n          0x00\n            /* \"#utility.yul\":3819:3825   */\n          dup1\n            /* \"#utility.yul\":3827:3833   */\n          0x00\n            /* \"#utility.yul\":3835:3841   */\n          dup1\n            /* \"#utility.yul\":3884:3887   */\n          0x0100\n            /* \"#utility.yul\":3872:3881   */\n          dup10\n            /* \"#utility.yul\":3863:3870   */\n          dup12\n            /* \"#utility.yul\":3859:3882   */\n          sub\n            /* \"#utility.yul\":3855:3888   */\n          slt\n            /* \"#utility.yul\":3852:3972   */\n          iszero\n          tag_94\n          jumpi\n            /* \"#utility.yul\":3891:3970   */\n          tag_95\n          tag_25\n          jump\t// in\n        tag_95:\n            /* \"#utility.yul\":3852:3972   */\n        tag_94:\n            /* \"#utility.yul\":4011:4012   */\n          0x00\n            /* \"#utility.yul\":4036:4100   */\n          tag_96\n            /* \"#utility.yul\":4092:4099   */\n          dup12\n            /* \"#utility.yul\":4083:4089   */\n          dup3\n            /* \"#utility.yul\":4072:4081   */\n          dup13\n            /* \"#utility.yul\":4068:4090   */\n          add\n            /* \"#utility.yul\":4036:4100   */\n          tag_30\n          jump\t// in\n        tag_96:\n            /* \"#utility.yul\":4026:4100   */\n          swap9\n          pop\n            /* \"#utility.yul\":3982:4110   */\n          pop\n            /* \"#utility.yul\":4149:4151   */\n          0x20\n            /* \"#utility.yul\":4175:4239   */\n          tag_97\n            /* \"#utility.yul\":4231:4238   */\n          dup12\n            /* \"#utility.yul\":4222:4228   */\n          dup3\n            /* \"#utility.yul\":4211:4220   */\n          dup13\n            /* \"#utility.yul\":4207:4229   */\n          add\n            /* \"#utility.yul\":4175:4239   */\n          tag_30\n          jump\t// in\n        tag_97:\n            /* \"#utility.yul\":4165:4239   */\n          swap8\n          pop\n            /* \"#utility.yul\":4120:4249   */\n          pop\n            /* \"#utility.yul\":4309:4311   */\n          0x40\n            /* \"#utility.yul\":4298:4307   */\n          dup10\n            /* \"#utility.yul\":4294:4312   */\n          add\n            /* \"#utility.yul\":4288:4313   */\n          mload\n            /* \"#utility.yul\":4340:4358   */\n          0xffffffffffffffff\n            /* \"#utility.yul\":4332:4338   */\n          dup2\n            /* \"#utility.yul\":4329:4359   */\n          gt\n            /* \"#utility.yul\":4326:4443   */\n          iszero\n          tag_98\n          jumpi\n            /* \"#utility.yul\":4362:4441   */\n          tag_99\n          tag_26\n          jump\t// in\n        tag_99:\n            /* \"#utility.yul\":4326:4443   */\n        tag_98:\n            /* \"#utility.yul\":4467:4541   */\n          tag_100\n            /* \"#utility.yul\":4533:4540   */\n          dup12\n            /* \"#utility.yul\":4524:4530   */\n          dup3\n            /* \"#utility.yul\":4513:4522   */\n          dup13\n            /* \"#utility.yul\":4509:4531   */\n          add\n            /* \"#utility.yul\":4467:4541   */\n          tag_40\n          jump\t// in\n        tag_100:\n            /* \"#utility.yul\":4457:4541   */\n          swap7\n          pop\n            /* \"#utility.yul\":4259:4551   */\n          pop\n            /* \"#utility.yul\":4590:4592   */\n          0x60\n            /* \"#utility.yul\":4616:4680   */\n          tag_101\n            /* \"#utility.yul\":4672:4679   */\n          dup12\n            /* \"#utility.yul\":4663:4669   */\n          dup3\n            /* \"#utility.yul\":4652:4661   */\n          dup13\n            /* \"#utility.yul\":4648:4670   */\n          add\n            /* \"#utility.yul\":4616:4680   */\n          tag_43\n          jump\t// in\n        tag_101:\n            /* \"#utility.yul\":4606:4680   */\n          swap6\n          pop\n            /* \"#utility.yul\":4561:4690   */\n          pop\n            /* \"#utility.yul\":4750:4753   */\n          0x80\n            /* \"#utility.yul\":4739:4748   */\n          dup10\n            /* \"#utility.yul\":4735:4754   */\n          add\n            /* \"#utility.yul\":4729:4755   */\n          mload\n            /* \"#utility.yul\":4782:4800   */\n          0xffffffffffffffff\n            /* \"#utility.yul\":4774:4780   */\n          dup2\n            /* \"#utility.yul\":4771:4801   */\n          gt\n            /* \"#utility.yul\":4768:4885   */\n          iszero\n          tag_102\n          jumpi\n            /* \"#utility.yul\":4804:4883   */\n          tag_103\n          tag_26\n          jump\t// in\n        tag_103:\n            /* \"#utility.yul\":4768:4885   */\n        tag_102:\n            /* \"#utility.yul\":4909:4983   */\n          tag_104\n            /* \"#utility.yul\":4975:4982   */\n          dup12\n            /* \"#utility.yul\":4966:4972   */\n          dup3\n            /* \"#utility.yul\":4955:4964   */\n          dup13\n            /* \"#utility.yul\":4951:4973   */\n          add\n            /* \"#utility.yul\":4909:4983   */\n          tag_40\n          jump\t// in\n        tag_104:\n            /* \"#utility.yul\":4899:4983   */\n          swap5\n          pop\n            /* \"#utility.yul\":4700:4993   */\n          pop\n            /* \"#utility.yul\":5053:5056   */\n          0xa0\n            /* \"#utility.yul\":5042:5051   */\n          dup10\n            /* \"#utility.yul\":5038:5057   */\n          add\n            /* \"#utility.yul\":5032:5058   */\n          mload\n            /* \"#utility.yul\":5085:5103   */\n          0xffffffffffffffff\n            /* \"#utility.yul\":5077:5083   */\n          dup2\n            /* \"#utility.yul\":5074:5104   */\n          gt\n            /* \"#utility.yul\":5071:5188   */\n          iszero\n          tag_105\n          jumpi\n            /* \"#utility.yul\":5107:5186   */\n          tag_106\n          tag_26\n          jump\t// in\n        tag_106:\n            /* \"#utility.yul\":5071:5188   */\n        tag_105:\n            /* \"#utility.yul\":5212:5286   */\n          tag_107\n            /* \"#utility.yul\":5278:5285   */\n          dup12\n            /* \"#utility.yul\":5269:5275   */\n          dup3\n            /* \"#utility.yul\":5258:5267   */\n          dup13\n            /* \"#utility.yul\":5254:5276   */\n          add\n            /* \"#utility.yul\":5212:5286   */\n          tag_40\n          jump\t// in\n        tag_107:\n            /* \"#utility.yul\":5202:5286   */\n          swap4\n          pop\n            /* \"#utility.yul\":5003:5296   */\n          pop\n            /* \"#utility.yul\":5356:5359   */\n          0xc0\n            /* \"#utility.yul\":5345:5354   */\n          dup10\n            /* \"#utility.yul\":5341:5360   */\n          add\n            /* \"#utility.yul\":5335:5361   */\n          mload\n            /* \"#utility.yul\":5388:5406   */\n          0xffffffffffffffff\n            /* \"#utility.yul\":5380:5386   */\n          dup2\n            /* \"#utility.yul\":5377:5407   */\n          gt\n            /* \"#utility.yul\":5374:5491   */\n          iszero\n          tag_108\n          jumpi\n            /* \"#utility.yul\":5410:5489   */\n          tag_109\n          tag_26\n          jump\t// in\n        tag_109:\n            /* \"#utility.yul\":5374:5491   */\n        tag_108:\n            /* \"#utility.yul\":5515:5589   */\n          tag_110\n            /* \"#utility.yul\":5581:5588   */\n          dup12\n            /* \"#utility.yul\":5572:5578   */\n          dup3\n            /* \"#utility.yul\":5561:5570   */\n          dup13\n            /* \"#utility.yul\":5557:5579   */\n          add\n            /* \"#utility.yul\":5515:5589   */\n          tag_40\n          jump\t// in\n        tag_110:\n            /* \"#utility.yul\":5505:5589   */\n          swap3\n          pop\n            /* \"#utility.yul\":5306:5599   */\n          pop\n            /* \"#utility.yul\":5659:5662   */\n          0xe0\n            /* \"#utility.yul\":5648:5657   */\n          dup10\n            /* \"#utility.yul\":5644:5663   */\n          add\n            /* \"#utility.yul\":5638:5664   */\n          mload\n            /* \"#utility.yul\":5691:5709   */\n          0xffffffffffffffff\n            /* \"#utility.yul\":5683:5689   */\n          dup2\n            /* \"#utility.yul\":5680:5710   */\n          gt\n            /* \"#utility.yul\":5677:5794   */\n          iszero\n          tag_111\n          jumpi\n            /* \"#utility.yul\":5713:5792   */\n          tag_112\n          tag_26\n          jump\t// in\n        tag_112:\n            /* \"#utility.yul\":5677:5794   */\n        tag_111:\n            /* \"#utility.yul\":5818:5892   */\n          tag_113\n            /* \"#utility.yul\":5884:5891   */\n          dup12\n            /* \"#utility.yul\":5875:5881   */\n          dup3\n            /* \"#utility.yul\":5864:5873   */\n          dup13\n            /* \"#utility.yul\":5860:5882   */\n          add\n            /* \"#utility.yul\":5818:5892   */\n          tag_40\n          jump\t// in\n        tag_113:\n            /* \"#utility.yul\":5808:5892   */\n          swap2\n          pop\n            /* \"#utility.yul\":5609:5902   */\n          pop\n            /* \"#utility.yul\":3596:5909   */\n          swap3\n          swap6\n          swap9\n          pop\n          swap3\n          swap6\n          swap9\n          swap1\n          swap4\n          swap7\n          pop\n          jump\t// out\n            /* \"#utility.yul\":5915:6095   */\n        tag_44:\n            /* \"#utility.yul\":5963:6040   */\n          0x4e487b7100000000000000000000000000000000000000000000000000000000\n            /* \"#utility.yul\":5960:5961   */\n          0x00\n            /* \"#utility.yul\":5953:6041   */\n          mstore\n            /* \"#utility.yul\":6060:6064   */\n          0x22\n            /* \"#utility.yul\":6057:6058   */\n          0x04\n            /* \"#utility.yul\":6050:6065   */\n          mstore\n            /* \"#utility.yul\":6084:6088   */\n          0x24\n            /* \"#utility.yul\":6081:6082   */\n          0x00\n            /* \"#utility.yul\":6074:6089   */\n          revert\n            /* \"#utility.yul\":6101:6421   */\n        tag_14:\n            /* \"#utility.yul\":6145:6151   */\n          0x00\n            /* \"#utility.yul\":6182:6183   */\n          0x02\n            /* \"#utility.yul\":6176:6180   */\n          dup3\n            /* \"#utility.yul\":6172:6184   */\n          div\n            /* \"#utility.yul\":6162:6184   */\n          swap1\n          pop\n            /* \"#utility.yul\":6229:6230   */\n          0x01\n            /* \"#utility.yul\":6223:6227   */\n          dup3\n            /* \"#utility.yul\":6219:6231   */\n          and\n            /* \"#utility.yul\":6250:6268   */\n          dup1\n            /* \"#utility.yul\":6240:6321   */\n          tag_116\n          jumpi\n            /* \"#utility.yul\":6306:6310   */\n          0x7f\n            /* \"#utility.yul\":6298:6304   */\n          dup3\n            /* \"#utility.yul\":6294:6311   */\n          and\n            /* \"#utility.yul\":6284:6311   */\n          swap2\n          pop\n            /* \"#utility.yul\":6240:6321   */\n        tag_116:\n            /* \"#utility.yul\":6368:6370   */\n          0x20\n            /* \"#utility.yul\":6360:6366   */\n          dup3\n            /* \"#utility.yul\":6357:6371   */\n          lt\n            /* \"#utility.yul\":6337:6355   */\n          dup2\n            /* \"#utility.yul\":6334:6372   */\n          eq\n            /* \"#utility.yul\":6331:6415   */\n          iszero\n          tag_117\n          jumpi\n            /* \"#utility.yul\":6387:6405   */\n          tag_118\n          tag_44\n          jump\t// in\n        tag_118:\n            /* \"#utility.yul\":6331:6415   */\n        tag_117:\n            /* \"#utility.yul\":6152:6421   */\n          pop\n            /* \"#utility.yul\":6101:6421   */\n          swap2\n          swap1\n          pop\n          jump\t// out\n            /* \"factoryContract.sol\":5202:7780  contract medicalProfContract{... */\n        tag_12:\n          dataSize(sub_0)\n          dup1\n          dataOffset(sub_0)\n          0x00\n          codecopy\n          0x00\n          return\n        stop\n\n        sub_0: assembly {\n                /* \"factoryContract.sol\":5202:7780  contract medicalProfContract{... */\n              mstore(0x40, 0x80)\n              callvalue\n              dup1\n              iszero\n              tag_1\n              jumpi\n              0x00\n              dup1\n              revert\n            tag_1:\n              pop\n              jumpi(tag_2, lt(calldatasize, 0x04))\n              shr(0xe0, calldataload(0x00))\n              dup1\n              0x851a94c9\n              gt\n              tag_16\n              jumpi\n              dup1\n              0xb7d4477c\n              gt\n              tag_17\n              jumpi\n              dup1\n              0xb7d4477c\n              eq\n              tag_12\n              jumpi\n              dup1\n              0xc83dd231\n              eq\n              tag_13\n              jumpi\n              dup1\n              0xe65a0691\n              eq\n              tag_14\n              jumpi\n              dup1\n              0xfb986606\n              eq\n              tag_15\n              jumpi\n              jump(tag_2)\n            tag_17:\n              dup1\n              0x851a94c9\n              eq\n              tag_9\n              jumpi\n              dup1\n              0xa0303c41\n              eq\n              tag_10\n              jumpi\n              dup1\n              0xaee554ff\n              eq\n              tag_11\n              jumpi\n              jump(tag_2)\n            tag_16:\n              dup1\n              0x0c4174b7\n              eq\n              tag_3\n              jumpi\n              dup1\n              0x185c6f84\n              eq\n              tag_4\n              jumpi\n              dup1\n              0x21ffccf1\n              eq\n              tag_5\n              jumpi\n              dup1\n              0x2be8454a\n              eq\n              tag_6\n              jumpi\n              dup1\n              0x376f4e49\n              eq\n              tag_7\n              jumpi\n              dup1\n              0x4e1cc351\n              eq\n              tag_8\n              jumpi\n            tag_2:\n              0x00\n              dup1\n              revert\n                /* \"factoryContract.sol\":5678:5733  mapping(address=>mapping(uint=>string)) public comments */\n            tag_3:\n              tag_18\n              0x04\n              dup1\n              calldatasize\n              sub\n              dup2\n              add\n              swap1\n              tag_19\n              swap2\n              swap1\n              tag_20\n              jump\t// in\n            tag_19:\n              tag_21\n              jump\t// in\n            tag_18:\n              mload(0x40)\n              tag_22\n              swap2\n              swap1\n              tag_23\n              jump\t// in\n            tag_22:\n              mload(0x40)\n              dup1\n              swap2\n              sub\n              swap1\n              return\n                /* \"factoryContract.sol\":5292:5315  uint public reportCount */\n            tag_4:\n              tag_24\n              tag_25\n              jump\t// in\n            tag_24:\n              mload(0x40)\n              tag_26\n              swap2\n              swap1\n              tag_27\n              jump\t// in\n            tag_26:\n              mload(0x40)\n              dup1\n              swap2\n              sub\n              swap1\n              return\n                /* \"factoryContract.sol\":6323:6685  function getProfDetails() public view returns(string memory,uint,string memory,string memory,string memory,string memory){... */\n            tag_5:\n              tag_28\n              tag_29\n              jump\t// in\n            tag_28:\n              mload(0x40)\n              tag_30\n              swap7\n              swap6\n              swap5\n              swap4\n              swap3\n              swap2\n              swap1\n              tag_31\n              jump\t// in\n            tag_30:\n              mload(0x40)\n              dup1\n              swap2\n              sub\n              swap1\n              return\n                /* \"factoryContract.sol\":6693:7210  function changeProfDetails(string memory _name, uint _age, string memory _gender, string memory _hospital,string memory _hospitalId, string memory _email) public{... */\n            tag_6:\n              tag_32\n              0x04\n              dup1\n              calldatasize\n              sub\n              dup2\n              add\n              swap1\n              tag_33\n              swap2\n              swap1\n              tag_34\n              jump\t// in\n            tag_33:\n              tag_35\n              jump\t// in\n            tag_32:\n              stop\n                /* \"factoryContract.sol\":7375:7636  function addReports(uint report,address patient) public {... */\n            tag_7:\n              tag_36\n              0x04\n              dup1\n              calldatasize\n              sub\n              dup2\n              add\n              swap1\n              tag_37\n              swap2\n              swap1\n              tag_38\n              jump\t// in\n            tag_37:\n              tag_39\n              jump\t// in\n            tag_36:\n              stop\n                /* \"factoryContract.sol\":7225:7365  function addComments(string memory _comments, address patient, uint record ) public {... */\n            tag_8:\n              tag_40\n              0x04\n              dup1\n              calldatasize\n              sub\n              dup2\n              add\n              swap1\n              tag_41\n              swap2\n              swap1\n              tag_42\n              jump\t// in\n            tag_41:\n              tag_43\n              jump\t// in\n            tag_40:\n              stop\n                /* \"factoryContract.sol\":5237:5256  address public Prof */\n            tag_9:\n              tag_44\n              tag_45\n              jump\t// in\n            tag_44:\n              mload(0x40)\n              tag_46\n              swap2\n              swap1\n              tag_47\n              jump\t// in\n            tag_46:\n              mload(0x40)\n              dup1\n              swap2\n              sub\n              swap1\n              return\n                /* \"factoryContract.sol\":5647:5671  uint public patientCount */\n            tag_10:\n              tag_48\n              tag_49\n              jump\t// in\n            tag_48:\n              mload(0x40)\n              tag_50\n              swap2\n              swap1\n              tag_27\n              jump\t// in\n            tag_50:\n              mload(0x40)\n              dup1\n              swap2\n              sub\n              swap1\n              return\n                /* \"factoryContract.sol\":5505:5531  details public profDetails */\n            tag_11:\n              tag_51\n              tag_52\n              jump\t// in\n            tag_51:\n              mload(0x40)\n              tag_53\n              swap7\n              swap6\n              swap5\n              swap4\n              swap3\n              swap2\n              swap1\n              tag_31\n              jump\t// in\n            tag_53:\n              mload(0x40)\n              dup1\n              swap2\n              sub\n              swap1\n              return\n                /* \"factoryContract.sol\":5598:5640  mapping(uint=>address) public patientTrack */\n            tag_12:\n              tag_54\n              0x04\n              dup1\n              calldatasize\n              sub\n              dup2\n              add\n              swap1\n              tag_55\n              swap2\n              swap1\n              tag_56\n              jump\t// in\n            tag_55:\n              tag_57\n              jump\t// in\n            tag_54:\n              mload(0x40)\n              tag_58\n              swap2\n              swap1\n              tag_47\n              jump\t// in\n            tag_58:\n              mload(0x40)\n              dup1\n              swap2\n              sub\n              swap1\n              return\n                /* \"factoryContract.sol\":5263:5285  address public Factory */\n            tag_13:\n              tag_59\n              tag_60\n              jump\t// in\n            tag_59:\n              mload(0x40)\n              tag_61\n              swap2\n              swap1\n              tag_47\n              jump\t// in\n            tag_61:\n              mload(0x40)\n              dup1\n              swap2\n              sub\n              swap1\n              return\n                /* \"factoryContract.sol\":7648:7775  function getPatientReports(address patient) public view returns(uint[] memory){... */\n            tag_14:\n              tag_62\n              0x04\n              dup1\n              calldatasize\n              sub\n              dup2\n              add\n              swap1\n              tag_63\n              swap2\n              swap1\n              tag_64\n              jump\t// in\n            tag_63:\n              tag_65\n              jump\t// in\n            tag_62:\n              mload(0x40)\n              tag_66\n              swap2\n              swap1\n              tag_67\n              jump\t// in\n            tag_66:\n              mload(0x40)\n              dup1\n              swap2\n              sub\n              swap1\n              return\n                /* \"factoryContract.sol\":5540:5591  mapping(address => uint256[]) public patientReports */\n            tag_15:\n              tag_68\n              0x04\n              dup1\n              calldatasize\n              sub\n              dup2\n              add\n              swap1\n              tag_69\n              swap2\n              swap1\n              tag_20\n              jump\t// in\n            tag_69:\n              tag_70\n              jump\t// in\n            tag_68:\n              mload(0x40)\n              tag_71\n              swap2\n              swap1\n              tag_27\n              jump\t// in\n            tag_71:\n              mload(0x40)\n              dup1\n              swap2\n              sub\n              swap1\n              return\n                /* \"factoryContract.sol\":5678:5733  mapping(address=>mapping(uint=>string)) public comments */\n            tag_21:\n              mstore(0x20, 0x0c)\n              dup2\n              0x00\n              mstore\n              mstore(0x20, keccak256(0x00, 0x40))\n              dup1\n              0x00\n              mstore\n              keccak256(0x00, 0x40)\n              0x00\n              swap2\n              pop\n              swap2\n              pop\n              pop\n              dup1\n              sload\n              tag_72\n              swap1\n              tag_73\n              jump\t// in\n            tag_72:\n              dup1\n              0x1f\n              add\n              0x20\n              dup1\n              swap2\n              div\n              mul\n              0x20\n              add\n              mload(0x40)\n              swap1\n              dup2\n              add\n              0x40\n              mstore\n              dup1\n              swap3\n              swap2\n              swap1\n              dup2\n              dup2\n              mstore\n              0x20\n              add\n              dup3\n              dup1\n              sload\n              tag_74\n              swap1\n              tag_73\n              jump\t// in\n            tag_74:\n              dup1\n              iszero\n              tag_75\n              jumpi\n              dup1\n              0x1f\n              lt\n              tag_76\n              jumpi\n              0x0100\n              dup1\n              dup4\n              sload\n              div\n              mul\n              dup4\n              mstore\n              swap2\n              0x20\n              add\n              swap2\n              jump(tag_75)\n            tag_76:\n              dup3\n              add\n              swap2\n              swap1\n              0x00\n              mstore\n              keccak256(0x00, 0x20)\n              swap1\n            tag_77:\n              dup2\n              sload\n              dup2\n              mstore\n              swap1\n              0x01\n              add\n              swap1\n              0x20\n              add\n              dup1\n              dup4\n              gt\n              tag_77\n              jumpi\n              dup3\n              swap1\n              sub\n              0x1f\n              and\n              dup3\n              add\n              swap2\n            tag_75:\n              pop\n              pop\n              pop\n              pop\n              pop\n              dup2\n              jump\t// out\n                /* \"factoryContract.sol\":5292:5315  uint public reportCount */\n            tag_25:\n              sload(0x02)\n              dup2\n              jump\t// out\n                /* \"factoryContract.sol\":6323:6685  function getProfDetails() public view returns(string memory,uint,string memory,string memory,string memory,string memory){... */\n            tag_29:\n                /* \"factoryContract.sol\":6369:6382  string memory */\n              0x60\n                /* \"factoryContract.sol\":6383:6387  uint */\n              0x00\n                /* \"factoryContract.sol\":6388:6401  string memory */\n              0x60\n                /* \"factoryContract.sol\":6402:6415  string memory */\n              dup1\n                /* \"factoryContract.sol\":6416:6429  string memory */\n              0x60\n                /* \"factoryContract.sol\":6430:6443  string memory */\n              dup1\n                /* \"factoryContract.sol\":6477:6488  profDetails */\n              0x03\n                /* \"factoryContract.sol\":6477:6497  profDetails.profName */\n              0x00\n              add\n                /* \"factoryContract.sol\":6512:6523  profDetails */\n              0x03\n                /* \"factoryContract.sol\":6512:6527  profDetails.age */\n              0x01\n              add\n              sload\n                /* \"factoryContract.sol\":6542:6553  profDetails */\n              0x03\n                /* \"factoryContract.sol\":6542:6560  profDetails.gender */\n              0x02\n              add\n                /* \"factoryContract.sol\":6575:6586  profDetails */\n              0x03\n                /* \"factoryContract.sol\":6575:6595  profDetails.hospital */\n              dup1\n              add\n                /* \"factoryContract.sol\":6610:6621  profDetails */\n              0x03\n                /* \"factoryContract.sol\":6610:6632  profDetails.hospitalId */\n              0x04\n              add\n                /* \"factoryContract.sol\":6647:6658  profDetails */\n              0x03\n                /* \"factoryContract.sol\":6647:6664  profDetails.email */\n              0x05\n              add\n                /* \"factoryContract.sol\":6455:6677  return (... */\n              dup6\n              dup1\n              sload\n              tag_79\n              swap1\n              tag_73\n              jump\t// in\n            tag_79:\n              dup1\n              0x1f\n              add\n              0x20\n              dup1\n              swap2\n              div\n              mul\n              0x20\n              add\n              mload(0x40)\n              swap1\n              dup2\n              add\n              0x40\n              mstore\n              dup1\n              swap3\n              swap2\n              swap1\n              dup2\n              dup2\n              mstore\n              0x20\n              add\n              dup3\n              dup1\n              sload\n              tag_80\n              swap1\n              tag_73\n              jump\t// in\n            tag_80:\n              dup1\n              iszero\n              tag_81\n              jumpi\n              dup1\n              0x1f\n              lt\n              tag_82\n              jumpi\n              0x0100\n              dup1\n              dup4\n              sload\n              div\n              mul\n              dup4\n              mstore\n              swap2\n              0x20\n              add\n              swap2\n              jump(tag_81)\n            tag_82:\n              dup3\n              add\n              swap2\n              swap1\n              0x00\n              mstore\n              keccak256(0x00, 0x20)\n              swap1\n            tag_83:\n              dup2\n              sload\n              dup2\n              mstore\n              swap1\n              0x01\n              add\n              swap1\n              0x20\n              add\n              dup1\n              dup4\n              gt\n              tag_83\n              jumpi\n              dup3\n              swap1\n              sub\n              0x1f\n              and\n              dup3\n              add\n              swap2\n            tag_81:\n              pop\n              pop\n              pop\n              pop\n              pop\n              swap6\n              pop\n              dup4\n              dup1\n              sload\n              tag_84\n              swap1\n              tag_73\n              jump\t// in\n            tag_84:\n              dup1\n              0x1f\n              add\n              0x20\n              dup1\n              swap2\n              div\n              mul\n              0x20\n              add\n              mload(0x40)\n              swap1\n              dup2\n              add\n              0x40\n              mstore\n              dup1\n              swap3\n              swap2\n              swap1\n              dup2\n              dup2\n              mstore\n              0x20\n              add\n              dup3\n              dup1\n              sload\n              tag_85\n              swap1\n              tag_73\n              jump\t// in\n            tag_85:\n              dup1\n              iszero\n              tag_86\n              jumpi\n              dup1\n              0x1f\n              lt\n              tag_87\n              jumpi\n              0x0100\n              dup1\n              dup4\n              sload\n              div\n              mul\n              dup4\n              mstore\n              swap2\n              0x20\n              add\n              swap2\n              jump(tag_86)\n            tag_87:\n              dup3\n              add\n              swap2\n              swap1\n              0x00\n              mstore\n              keccak256(0x00, 0x20)\n              swap1\n            tag_88:\n              dup2\n              sload\n              dup2\n              mstore\n              swap1\n              0x01\n              add\n              swap1\n              0x20\n              add\n              dup1\n              dup4\n              gt\n              tag_88\n              jumpi\n              dup3\n              swap1\n              sub\n              0x1f\n              and\n              dup3\n              add\n              swap2\n            tag_86:\n              pop\n              pop\n              pop\n              pop\n              pop\n              swap4\n              pop\n              dup3\n              dup1\n              sload\n              tag_89\n              swap1\n              tag_73\n              jump\t// in\n            tag_89:\n              dup1\n              0x1f\n              add\n              0x20\n              dup1\n              swap2\n              div\n              mul\n              0x20\n              add\n              mload(0x40)\n              swap1\n              dup2\n              add\n              0x40\n              mstore\n              dup1\n              swap3\n              swap2\n              swap1\n              dup2\n              dup2\n              mstore\n              0x20\n              add\n              dup3\n              dup1\n              sload\n              tag_90\n              swap1\n              tag_73\n              jump\t// in\n            tag_90:\n              dup1\n              iszero\n              tag_91\n              jumpi\n              dup1\n              0x1f\n              lt\n              tag_92\n              jumpi\n              0x0100\n              dup1\n              dup4\n              sload\n              div\n              mul\n              dup4\n              mstore\n              swap2\n              0x20\n              add\n              swap2\n              jump(tag_91)\n            tag_92:\n              dup3\n              add\n              swap2\n              swap1\n              0x00\n              mstore\n              keccak256(0x00, 0x20)\n              swap1\n            tag_93:\n              dup2\n              sload\n              dup2\n              mstore\n              swap1\n              0x01\n              add\n              swap1\n              0x20\n              add\n              dup1\n              dup4\n              gt\n              tag_93\n              jumpi\n              dup3\n              swap1\n              sub\n              0x1f\n              and\n              dup3\n              add\n              swap2\n            tag_91:\n              pop\n              pop\n              pop\n              pop\n              pop\n              swap3\n              pop\n              dup2\n              dup1\n              sload\n              tag_94\n              swap1\n              tag_73\n              jump\t// in\n            tag_94:\n              dup1\n              0x1f\n              add\n              0x20\n              dup1\n              swap2\n              div\n              mul\n              0x20\n              add\n              mload(0x40)\n              swap1\n              dup2\n              add\n              0x40\n              mstore\n              dup1\n              swap3\n              swap2\n              swap1\n              dup2\n              dup2\n              mstore\n              0x20\n              add\n              dup3\n              dup1\n              sload\n              tag_95\n              swap1\n              tag_73\n              jump\t// in\n            tag_95:\n              dup1\n              iszero\n              tag_96\n              jumpi\n              dup1\n              0x1f\n              lt\n              tag_97\n              jumpi\n              0x0100\n              dup1\n              dup4\n              sload\n              div\n              mul\n              dup4\n              mstore\n              swap2\n              0x20\n              add\n              swap2\n              jump(tag_96)\n            tag_97:\n              dup3\n              add\n              swap2\n              swap1\n              0x00\n              mstore\n              keccak256(0x00, 0x20)\n              swap1\n            tag_98:\n              dup2\n              sload\n              dup2\n              mstore\n              swap1\n              0x01\n              add\n              swap1\n              0x20\n              add\n              dup1\n              dup4\n              gt\n              tag_98\n              jumpi\n              dup3\n              swap1\n              sub\n              0x1f\n              and\n              dup3\n              add\n              swap2\n            tag_96:\n              pop\n              pop\n              pop\n              pop\n              pop\n              swap2\n              pop\n              dup1\n              dup1\n              sload\n              tag_99\n              swap1\n              tag_73\n              jump\t// in\n            tag_99:\n              dup1\n              0x1f\n              add\n              0x20\n              dup1\n              swap2\n              div\n              mul\n              0x20\n              add\n              mload(0x40)\n              swap1\n              dup2\n              add\n              0x40\n              mstore\n              dup1\n              swap3\n              swap2\n              swap1\n              dup2\n              dup2\n              mstore\n              0x20\n              add\n              dup3\n              dup1\n              sload\n              tag_100\n              swap1\n              tag_73\n              jump\t// in\n            tag_100:\n              dup1\n              iszero\n              tag_101\n              jumpi\n              dup1\n              0x1f\n              lt\n              tag_102\n              jumpi\n              0x0100\n              dup1\n              dup4\n              sload\n              div\n              mul\n              dup4\n              mstore\n              swap2\n              0x20\n              add\n              swap2\n              jump(tag_101)\n            tag_102:\n              dup3\n              add\n              swap2\n              swap1\n              0x00\n              mstore\n              keccak256(0x00, 0x20)\n              swap1\n            tag_103:\n              dup2\n              sload\n              dup2\n              mstore\n              swap1\n              0x01\n              add\n              swap1\n              0x20\n              add\n              dup1\n              dup4\n              gt\n              tag_103\n              jumpi\n              dup3\n              swap1\n              sub\n              0x1f\n              and\n              dup3\n              add\n              swap2\n            tag_101:\n              pop\n              pop\n              pop\n              pop\n              pop\n              swap1\n              pop\n              swap6\n              pop\n              swap6\n              pop\n              swap6\n              pop\n              swap6\n              pop\n              swap6\n              pop\n              swap6\n              pop\n                /* \"factoryContract.sol\":6323:6685  function getProfDetails() public view returns(string memory,uint,string memory,string memory,string memory,string memory){... */\n              swap1\n              swap2\n              swap3\n              swap4\n              swap5\n              swap6\n              jump\t// out\n                /* \"factoryContract.sol\":6693:7210  function changeProfDetails(string memory _name, uint _age, string memory _gender, string memory _hospital,string memory _hospitalId, string memory _email) public{... */\n            tag_35:\n                /* \"factoryContract.sol\":6867:6899  details memory newStructInstance */\n              0x00\n                /* \"factoryContract.sol\":6902:7160  details({... */\n              mload(0x40)\n              dup1\n              0xc0\n              add\n              0x40\n              mstore\n              dup1\n                /* \"factoryContract.sol\":6935:6940  _name */\n              dup9\n                /* \"factoryContract.sol\":6902:7160  details({... */\n              dup2\n              mstore\n              0x20\n              add\n                /* \"factoryContract.sol\":6960:6964  _age */\n              dup8\n                /* \"factoryContract.sol\":6902:7160  details({... */\n              dup2\n              mstore\n              0x20\n              add\n                /* \"factoryContract.sol\":6988:6995  _gender */\n              dup7\n                /* \"factoryContract.sol\":6902:7160  details({... */\n              dup2\n              mstore\n              0x20\n              add\n                /* \"factoryContract.sol\":7021:7030  _hospital */\n              dup6\n                /* \"factoryContract.sol\":6902:7160  details({... */\n              dup2\n              mstore\n              0x20\n              add\n                /* \"factoryContract.sol\":7058:7069  _hospitalId */\n              dup5\n                /* \"factoryContract.sol\":6902:7160  details({... */\n              dup2\n              mstore\n              0x20\n              add\n                /* \"factoryContract.sol\":7092:7098  _email */\n              dup4\n                /* \"factoryContract.sol\":6902:7160  details({... */\n              dup2\n              mstore\n              pop\n                /* \"factoryContract.sol\":6867:7160  details memory newStructInstance = details({... */\n              swap1\n              pop\n                /* \"factoryContract.sol\":7185:7202  newStructInstance */\n              dup1\n                /* \"factoryContract.sol\":7171:7182  profDetails */\n              0x03\n                /* \"factoryContract.sol\":7171:7202  profDetails = newStructInstance */\n              0x00\n              dup3\n              add\n              mload\n              dup2\n              0x00\n              add\n              swap1\n              dup1\n              mload\n              swap1\n              0x20\n              add\n              swap1\n              tag_105\n              swap3\n              swap2\n              swap1\n              tag_106\n              jump\t// in\n            tag_105:\n              pop\n              0x20\n              dup3\n              add\n              mload\n              dup2\n              0x01\n              add\n              sstore\n              0x40\n              dup3\n              add\n              mload\n              dup2\n              0x02\n              add\n              swap1\n              dup1\n              mload\n              swap1\n              0x20\n              add\n              swap1\n              tag_107\n              swap3\n              swap2\n              swap1\n              tag_106\n              jump\t// in\n            tag_107:\n              pop\n              0x60\n              dup3\n              add\n              mload\n              dup2\n              0x03\n              add\n              swap1\n              dup1\n              mload\n              swap1\n              0x20\n              add\n              swap1\n              tag_108\n              swap3\n              swap2\n              swap1\n              tag_106\n              jump\t// in\n            tag_108:\n              pop\n              0x80\n              dup3\n              add\n              mload\n              dup2\n              0x04\n              add\n              swap1\n              dup1\n              mload\n              swap1\n              0x20\n              add\n              swap1\n              tag_109\n              swap3\n              swap2\n              swap1\n              tag_106\n              jump\t// in\n            tag_109:\n              pop\n              0xa0\n              dup3\n              add\n              mload\n              dup2\n              0x05\n              add\n              swap1\n              dup1\n              mload\n              swap1\n              0x20\n              add\n              swap1\n              tag_110\n              swap3\n              swap2\n              swap1\n              tag_106\n              jump\t// in\n            tag_110:\n              pop\n              swap1\n              pop\n              pop\n                /* \"factoryContract.sol\":6854:7210  {... */\n              pop\n                /* \"factoryContract.sol\":6693:7210  function changeProfDetails(string memory _name, uint _age, string memory _gender, string memory _hospital,string memory _hospitalId, string memory _email) public{... */\n              pop\n              pop\n              pop\n              pop\n              pop\n              pop\n              jump\t// out\n                /* \"factoryContract.sol\":7375:7636  function addReports(uint report,address patient) public {... */\n            tag_39:\n                /* \"factoryContract.sol\":7487:7488  0 */\n              0x00\n                /* \"factoryContract.sol\":7455:7469  patientReports */\n              0x09\n                /* \"factoryContract.sol\":7455:7478  patientReports[patient] */\n              0x00\n                /* \"factoryContract.sol\":7470:7477  patient */\n              dup4\n                /* \"factoryContract.sol\":7455:7478  patientReports[patient] */\n              0xffffffffffffffffffffffffffffffffffffffff\n              and\n              0xffffffffffffffffffffffffffffffffffffffff\n              and\n              dup2\n              mstore\n              0x20\n              add\n              swap1\n              dup2\n              mstore\n              0x20\n              add\n              0x00\n              keccak256\n                /* \"factoryContract.sol\":7455:7485  patientReports[patient].length */\n              dup1\n              sload\n              swap1\n              pop\n                /* \"factoryContract.sol\":7455:7488  patientReports[patient].length==0 */\n              eq\n                /* \"factoryContract.sol\":7452:7582  if(patientReports[patient].length==0){... */\n              iszero\n              tag_112\n              jumpi\n                /* \"factoryContract.sol\":7533:7540  patient */\n              dup1\n                /* \"factoryContract.sol\":7504:7516  patientTrack */\n              0x0a\n                /* \"factoryContract.sol\":7504:7530  patientTrack[patientCount] */\n              0x00\n                /* \"factoryContract.sol\":7517:7529  patientCount */\n              sload(0x0b)\n                /* \"factoryContract.sol\":7504:7530  patientTrack[patientCount] */\n              dup2\n              mstore\n              0x20\n              add\n              swap1\n              dup2\n              mstore\n              0x20\n              add\n              0x00\n              keccak256\n              0x00\n                /* \"factoryContract.sol\":7504:7540  patientTrack[patientCount] = patient */\n              0x0100\n              exp\n              dup2\n              sload\n              dup2\n              0xffffffffffffffffffffffffffffffffffffffff\n              mul\n              not\n              and\n              swap1\n              dup4\n              0xffffffffffffffffffffffffffffffffffffffff\n              and\n              mul\n              or\n              swap1\n              sstore\n              pop\n                /* \"factoryContract.sol\":7569:7570  1 */\n              0x01\n                /* \"factoryContract.sol\":7555:7567  patientCount */\n              0x0b\n              0x00\n                /* \"factoryContract.sol\":7555:7570  patientCount+=1 */\n              dup3\n              dup3\n              sload\n              tag_113\n              swap2\n              swap1\n              tag_114\n              jump\t// in\n            tag_113:\n              swap3\n              pop\n              pop\n              dup2\n              swap1\n              sstore\n              pop\n                /* \"factoryContract.sol\":7452:7582  if(patientReports[patient].length==0){... */\n            tag_112:\n                /* \"factoryContract.sol\":7592:7606  patientReports */\n              0x09\n                /* \"factoryContract.sol\":7592:7615  patientReports[patient] */\n              0x00\n                /* \"factoryContract.sol\":7607:7614  patient */\n              dup3\n                /* \"factoryContract.sol\":7592:7615  patientReports[patient] */\n              0xffffffffffffffffffffffffffffffffffffffff\n              and\n              0xffffffffffffffffffffffffffffffffffffffff\n              and\n              dup2\n              mstore\n              0x20\n              add\n              swap1\n              dup2\n              mstore\n              0x20\n              add\n              0x00\n              keccak256\n                /* \"factoryContract.sol\":7621:7627  report */\n              dup3\n                /* \"factoryContract.sol\":7592:7628  patientReports[patient].push(report) */\n              swap1\n              dup1\n              0x01\n              dup2\n              sload\n              add\n              dup1\n              dup3\n              sstore\n              dup1\n              swap2\n              pop\n              pop\n              0x01\n              swap1\n              sub\n              swap1\n              0x00\n              mstore\n              keccak256(0x00, 0x20)\n              add\n              0x00\n              swap1\n              swap2\n              swap1\n              swap2\n              swap1\n              swap2\n              pop\n              sstore\n                /* \"factoryContract.sol\":7375:7636  function addReports(uint report,address patient) public {... */\n              pop\n              pop\n              jump\t// out\n                /* \"factoryContract.sol\":7225:7365  function addComments(string memory _comments, address patient, uint record ) public {... */\n            tag_43:\n                /* \"factoryContract.sol\":7348:7357  _comments */\n              dup3\n                /* \"factoryContract.sol\":7320:7328  comments */\n              0x0c\n                /* \"factoryContract.sol\":7320:7337  comments[patient] */\n              0x00\n                /* \"factoryContract.sol\":7329:7336  patient */\n              dup5\n                /* \"factoryContract.sol\":7320:7337  comments[patient] */\n              0xffffffffffffffffffffffffffffffffffffffff\n              and\n              0xffffffffffffffffffffffffffffffffffffffff\n              and\n              dup2\n              mstore\n              0x20\n              add\n              swap1\n              dup2\n              mstore\n              0x20\n              add\n              0x00\n              keccak256\n                /* \"factoryContract.sol\":7320:7345  comments[patient][record] */\n              0x00\n                /* \"factoryContract.sol\":7338:7344  record */\n              dup4\n                /* \"factoryContract.sol\":7320:7345  comments[patient][record] */\n              dup2\n              mstore\n              0x20\n              add\n              swap1\n              dup2\n              mstore\n              0x20\n              add\n              0x00\n              keccak256\n                /* \"factoryContract.sol\":7320:7357  comments[patient][record] = _comments */\n              swap1\n              dup1\n              mload\n              swap1\n              0x20\n              add\n              swap1\n              tag_117\n              swap3\n              swap2\n              swap1\n              tag_106\n              jump\t// in\n            tag_117:\n              pop\n                /* \"factoryContract.sol\":7225:7365  function addComments(string memory _comments, address patient, uint record ) public {... */\n              pop\n              pop\n              pop\n              jump\t// out\n                /* \"factoryContract.sol\":5237:5256  address public Prof */\n            tag_45:\n              0x00\n              dup1\n              sload\n              swap1\n              0x0100\n              exp\n              swap1\n              div\n              0xffffffffffffffffffffffffffffffffffffffff\n              and\n              dup2\n              jump\t// out\n                /* \"factoryContract.sol\":5647:5671  uint public patientCount */\n            tag_49:\n              sload(0x0b)\n              dup2\n              jump\t// out\n                /* \"factoryContract.sol\":5505:5531  details public profDetails */\n            tag_52:\n              0x03\n              dup1\n              0x00\n              add\n              dup1\n              sload\n              tag_118\n              swap1\n              tag_73\n              jump\t// in\n            tag_118:\n              dup1\n              0x1f\n              add\n              0x20\n              dup1\n              swap2\n              div\n              mul\n              0x20\n              add\n              mload(0x40)\n              swap1\n              dup2\n              add\n              0x40\n              mstore\n              dup1\n              swap3\n              swap2\n              swap1\n              dup2\n              dup2\n              mstore\n              0x20\n              add\n              dup3\n              dup1\n              sload\n              tag_119\n              swap1\n              tag_73\n              jump\t// in\n            tag_119:\n              dup1\n              iszero\n              tag_120\n              jumpi\n              dup1\n              0x1f\n              lt\n              tag_121\n              jumpi\n              0x0100\n              dup1\n              dup4\n              sload\n              div\n              mul\n              dup4\n              mstore\n              swap2\n              0x20\n              add\n              swap2\n              jump(tag_120)\n            tag_121:\n              dup3\n              add\n              swap2\n              swap1\n              0x00\n              mstore\n              keccak256(0x00, 0x20)\n              swap1\n            tag_122:\n              dup2\n              sload\n              dup2\n              mstore\n              swap1\n              0x01\n              add\n              swap1\n              0x20\n              add\n              dup1\n              dup4\n              gt\n              tag_122\n              jumpi\n              dup3\n              swap1\n              sub\n              0x1f\n              and\n              dup3\n              add\n              swap2\n            tag_120:\n              pop\n              pop\n              pop\n              pop\n              pop\n              swap1\n              dup1\n              0x01\n              add\n              sload\n              swap1\n              dup1\n              0x02\n              add\n              dup1\n              sload\n              tag_123\n              swap1\n              tag_73\n              jump\t// in\n            tag_123:\n              dup1\n              0x1f\n              add\n              0x20\n              dup1\n              swap2\n              div\n              mul\n              0x20\n              add\n              mload(0x40)\n              swap1\n              dup2\n              add\n              0x40\n              mstore\n              dup1\n              swap3\n              swap2\n              swap1\n              dup2\n              dup2\n              mstore\n              0x20\n              add\n              dup3\n              dup1\n              sload\n              tag_124\n              swap1\n              tag_73\n              jump\t// in\n            tag_124:\n              dup1\n              iszero\n              tag_125\n              jumpi\n              dup1\n              0x1f\n              lt\n              tag_126\n              jumpi\n              0x0100\n              dup1\n              dup4\n              sload\n              div\n              mul\n              dup4\n              mstore\n              swap2\n              0x20\n              add\n              swap2\n              jump(tag_125)\n            tag_126:\n              dup3\n              add\n              swap2\n              swap1\n              0x00\n              mstore\n              keccak256(0x00, 0x20)\n              swap1\n            tag_127:\n              dup2\n              sload\n              dup2\n              mstore\n              swap1\n              0x01\n              add\n              swap1\n              0x20\n              add\n              dup1\n              dup4\n              gt\n              tag_127\n              jumpi\n              dup3\n              swap1\n              sub\n              0x1f\n              and\n              dup3\n              add\n              swap2\n            tag_125:\n              pop\n              pop\n              pop\n              pop\n              pop\n              swap1\n              dup1\n              0x03\n              add\n              dup1\n              sload\n              tag_128\n              swap1\n              tag_73\n              jump\t// in\n            tag_128:\n              dup1\n              0x1f\n              add\n              0x20\n              dup1\n              swap2\n              div\n              mul\n              0x20\n              add\n              mload(0x40)\n              swap1\n              dup2\n              add\n              0x40\n              mstore\n              dup1\n              swap3\n              swap2\n              swap1\n              dup2\n              dup2\n              mstore\n              0x20\n              add\n              dup3\n              dup1\n              sload\n              tag_129\n              swap1\n              tag_73\n              jump\t// in\n            tag_129:\n              dup1\n              iszero\n              tag_130\n              jumpi\n              dup1\n              0x1f\n              lt\n              tag_131\n              jumpi\n              0x0100\n              dup1\n              dup4\n              sload\n              div\n              mul\n              dup4\n              mstore\n              swap2\n              0x20\n              add\n              swap2\n              jump(tag_130)\n            tag_131:\n              dup3\n              add\n              swap2\n              swap1\n              0x00\n              mstore\n              keccak256(0x00, 0x20)\n              swap1\n            tag_132:\n              dup2\n              sload\n              dup2\n              mstore\n              swap1\n              0x01\n              add\n              swap1\n              0x20\n              add\n              dup1\n              dup4\n              gt\n              tag_132\n              jumpi\n              dup3\n              swap1\n              sub\n              0x1f\n              and\n              dup3\n              add\n              swap2\n            tag_130:\n              pop\n              pop\n              pop\n              pop\n              pop\n              swap1\n              dup1\n              0x04\n              add\n              dup1\n              sload\n              tag_133\n              swap1\n              tag_73\n              jump\t// in\n            tag_133:\n              dup1\n              0x1f\n              add\n              0x20\n              dup1\n              swap2\n              div\n              mul\n              0x20\n              add\n              mload(0x40)\n              swap1\n              dup2\n              add\n              0x40\n              mstore\n              dup1\n              swap3\n              swap2\n              swap1\n              dup2\n              dup2\n              mstore\n              0x20\n              add\n              dup3\n              dup1\n              sload\n              tag_134\n              swap1\n              tag_73\n              jump\t// in\n            tag_134:\n              dup1\n              iszero\n              tag_135\n              jumpi\n              dup1\n              0x1f\n              lt\n              tag_136\n              jumpi\n              0x0100\n              dup1\n              dup4\n              sload\n              div\n              mul\n              dup4\n              mstore\n              swap2\n              0x20\n              add\n              swap2\n              jump(tag_135)\n            tag_136:\n              dup3\n              add\n              swap2\n              swap1\n              0x00\n              mstore\n              keccak256(0x00, 0x20)\n              swap1\n            tag_137:\n              dup2\n              sload\n              dup2\n              mstore\n              swap1\n              0x01\n              add\n              swap1\n              0x20\n              add\n              dup1\n              dup4\n              gt\n              tag_137\n              jumpi\n              dup3\n              swap1\n              sub\n              0x1f\n              and\n              dup3\n              add\n              swap2\n            tag_135:\n              pop\n              pop\n              pop\n              pop\n              pop\n              swap1\n              dup1\n              0x05\n              add\n              dup1\n              sload\n              tag_138\n              swap1\n              tag_73\n              jump\t// in\n            tag_138:\n              dup1\n              0x1f\n              add\n              0x20\n              dup1\n              swap2\n              div\n              mul\n              0x20\n              add\n              mload(0x40)\n              swap1\n              dup2\n              add\n              0x40\n              mstore\n              dup1\n              swap3\n              swap2\n              swap1\n              dup2\n              dup2\n              mstore\n              0x20\n              add\n              dup3\n              dup1\n              sload\n              tag_139\n              swap1\n              tag_73\n              jump\t// in\n            tag_139:\n              dup1\n              iszero\n              tag_140\n              jumpi\n              dup1\n              0x1f\n              lt\n              tag_141\n              jumpi\n              0x0100\n              dup1\n              dup4\n              sload\n              div\n              mul\n              dup4\n              mstore\n              swap2\n              0x20\n              add\n              swap2\n              jump(tag_140)\n            tag_141:\n              dup3\n              add\n              swap2\n              swap1\n              0x00\n              mstore\n              keccak256(0x00, 0x20)\n              swap1\n            tag_142:\n              dup2\n              sload\n              dup2\n              mstore\n              swap1\n              0x01\n              add\n              swap1\n              0x20\n              add\n              dup1\n              dup4\n              gt\n              tag_142\n              jumpi\n              dup3\n              swap1\n              sub\n              0x1f\n              and\n              dup3\n              add\n              swap2\n            tag_140:\n              pop\n              pop\n              pop\n              pop\n              pop\n              swap1\n              pop\n              dup7\n              jump\t// out\n                /* \"factoryContract.sol\":5598:5640  mapping(uint=>address) public patientTrack */\n            tag_57:\n              mstore(0x20, 0x0a)\n              dup1\n              0x00\n              mstore\n              keccak256(0x00, 0x40)\n              0x00\n              swap2\n              pop\n              sload\n              swap1\n              0x0100\n              exp\n              swap1\n              div\n              0xffffffffffffffffffffffffffffffffffffffff\n              and\n              dup2\n              jump\t// out\n                /* \"factoryContract.sol\":5263:5285  address public Factory */\n            tag_60:\n              0x01\n              0x00\n              swap1\n              sload\n              swap1\n              0x0100\n              exp\n              swap1\n              div\n              0xffffffffffffffffffffffffffffffffffffffff\n              and\n              dup2\n              jump\t// out\n                /* \"factoryContract.sol\":7648:7775  function getPatientReports(address patient) public view returns(uint[] memory){... */\n            tag_65:\n                /* \"factoryContract.sol\":7712:7725  uint[] memory */\n              0x60\n                /* \"factoryContract.sol\":7744:7758  patientReports */\n              0x09\n                /* \"factoryContract.sol\":7744:7767  patientReports[patient] */\n              0x00\n                /* \"factoryContract.sol\":7759:7766  patient */\n              dup4\n                /* \"factoryContract.sol\":7744:7767  patientReports[patient] */\n              0xffffffffffffffffffffffffffffffffffffffff\n              and\n              0xffffffffffffffffffffffffffffffffffffffff\n              and\n              dup2\n              mstore\n              0x20\n              add\n              swap1\n              dup2\n              mstore\n              0x20\n              add\n              0x00\n              keccak256\n                /* \"factoryContract.sol\":7737:7767  return patientReports[patient] */\n              dup1\n              sload\n              dup1\n              0x20\n              mul\n              0x20\n              add\n              mload(0x40)\n              swap1\n              dup2\n              add\n              0x40\n              mstore\n              dup1\n              swap3\n              swap2\n              swap1\n              dup2\n              dup2\n              mstore\n              0x20\n              add\n              dup3\n              dup1\n              sload\n              dup1\n              iszero\n              tag_144\n              jumpi\n              0x20\n              mul\n              dup3\n              add\n              swap2\n              swap1\n              0x00\n              mstore\n              keccak256(0x00, 0x20)\n              swap1\n            tag_145:\n              dup2\n              sload\n              dup2\n              mstore\n              0x20\n              add\n              swap1\n              0x01\n              add\n              swap1\n              dup1\n              dup4\n              gt\n              tag_145\n              jumpi\n            tag_144:\n              pop\n              pop\n              pop\n              pop\n              pop\n              swap1\n              pop\n                /* \"factoryContract.sol\":7648:7775  function getPatientReports(address patient) public view returns(uint[] memory){... */\n              swap2\n              swap1\n              pop\n              jump\t// out\n                /* \"factoryContract.sol\":5540:5591  mapping(address => uint256[]) public patientReports */\n            tag_70:\n              mstore(0x20, 0x09)\n              dup2\n              0x00\n              mstore\n              keccak256(0x00, 0x40)\n              dup2\n              dup2\n              sload\n              dup2\n              lt\n              tag_146\n              jumpi\n              0x00\n              dup1\n              revert\n            tag_146:\n              swap1\n              0x00\n              mstore\n              keccak256(0x00, 0x20)\n              add\n              0x00\n              swap2\n              pop\n              swap2\n              pop\n              pop\n              sload\n              dup2\n              jump\t// out\n            tag_106:\n              dup3\n              dup1\n              sload\n              tag_148\n              swap1\n              tag_73\n              jump\t// in\n            tag_148:\n              swap1\n              0x00\n              mstore\n              keccak256(0x00, 0x20)\n              swap1\n              0x1f\n              add\n              0x20\n              swap1\n              div\n              dup2\n              add\n              swap3\n              dup3\n              tag_150\n              jumpi\n              0x00\n              dup6\n              sstore\n              jump(tag_149)\n            tag_150:\n              dup3\n              0x1f\n              lt\n              tag_151\n              jumpi\n              dup1\n              mload\n              not(0xff)\n              and\n              dup4\n              dup1\n              add\n              or\n              dup6\n              sstore\n              jump(tag_149)\n            tag_151:\n              dup3\n              dup1\n              add\n              0x01\n              add\n              dup6\n              sstore\n              dup3\n              iszero\n              tag_149\n              jumpi\n              swap2\n              dup3\n              add\n            tag_152:\n              dup3\n              dup2\n              gt\n              iszero\n              tag_153\n              jumpi\n              dup3\n              mload\n              dup3\n              sstore\n              swap2\n              0x20\n              add\n              swap2\n              swap1\n              0x01\n              add\n              swap1\n              jump(tag_152)\n            tag_153:\n            tag_149:\n              pop\n              swap1\n              pop\n              tag_154\n              swap2\n              swap1\n              tag_155\n              jump\t// in\n            tag_154:\n              pop\n              swap1\n              jump\t// out\n            tag_155:\n            tag_156:\n              dup1\n              dup3\n              gt\n              iszero\n              tag_157\n              jumpi\n              0x00\n              dup2\n              0x00\n              swap1\n              sstore\n              pop\n              0x01\n              add\n              jump(tag_156)\n            tag_157:\n              pop\n              swap1\n              jump\t// out\n                /* \"#utility.yul\":7:82   */\n            tag_158:\n                /* \"#utility.yul\":40:46   */\n              0x00\n                /* \"#utility.yul\":73:75   */\n              0x40\n                /* \"#utility.yul\":67:76   */\n              mload\n                /* \"#utility.yul\":57:76   */\n              swap1\n              pop\n                /* \"#utility.yul\":7:82   */\n              swap1\n              jump\t// out\n                /* \"#utility.yul\":88:205   */\n            tag_159:\n                /* \"#utility.yul\":197:198   */\n              0x00\n                /* \"#utility.yul\":194:195   */\n              dup1\n                /* \"#utility.yul\":187:199   */\n              revert\n                /* \"#utility.yul\":211:328   */\n            tag_160:\n                /* \"#utility.yul\":320:321   */\n              0x00\n                /* \"#utility.yul\":317:318   */\n              dup1\n                /* \"#utility.yul\":310:322   */\n              revert\n                /* \"#utility.yul\":334:460   */\n            tag_161:\n                /* \"#utility.yul\":371:378   */\n              0x00\n                /* \"#utility.yul\":411:453   */\n              0xffffffffffffffffffffffffffffffffffffffff\n                /* \"#utility.yul\":404:409   */\n              dup3\n                /* \"#utility.yul\":400:454   */\n              and\n                /* \"#utility.yul\":389:454   */\n              swap1\n              pop\n                /* \"#utility.yul\":334:460   */\n              swap2\n              swap1\n              pop\n              jump\t// out\n                /* \"#utility.yul\":466:562   */\n            tag_162:\n                /* \"#utility.yul\":503:510   */\n              0x00\n                /* \"#utility.yul\":532:556   */\n              tag_199\n                /* \"#utility.yul\":550:555   */\n              dup3\n                /* \"#utility.yul\":532:556   */\n              tag_161\n              jump\t// in\n            tag_199:\n                /* \"#utility.yul\":521:556   */\n              swap1\n              pop\n                /* \"#utility.yul\":466:562   */\n              swap2\n              swap1\n              pop\n              jump\t// out\n                /* \"#utility.yul\":568:690   */\n            tag_163:\n                /* \"#utility.yul\":641:665   */\n              tag_201\n                /* \"#utility.yul\":659:664   */\n              dup2\n                /* \"#utility.yul\":641:665   */\n              tag_162\n              jump\t// in\n            tag_201:\n                /* \"#utility.yul\":634:639   */\n              dup2\n                /* \"#utility.yul\":631:666   */\n              eq\n                /* \"#utility.yul\":621:684   */\n              tag_202\n              jumpi\n                /* \"#utility.yul\":680:681   */\n              0x00\n                /* \"#utility.yul\":677:678   */\n              dup1\n                /* \"#utility.yul\":670:682   */\n              revert\n                /* \"#utility.yul\":621:684   */\n            tag_202:\n                /* \"#utility.yul\":568:690   */\n              pop\n              jump\t// out\n                /* \"#utility.yul\":696:835   */\n            tag_164:\n                /* \"#utility.yul\":742:747   */\n              0x00\n                /* \"#utility.yul\":780:786   */\n              dup2\n                /* \"#utility.yul\":767:787   */\n              calldataload\n                /* \"#utility.yul\":758:787   */\n              swap1\n              pop\n                /* \"#utility.yul\":796:829   */\n              tag_204\n                /* \"#utility.yul\":823:828   */\n              dup2\n                /* \"#utility.yul\":796:829   */\n              tag_163\n              jump\t// in\n            tag_204:\n                /* \"#utility.yul\":696:835   */\n              swap3\n              swap2\n              pop\n              pop\n              jump\t// out\n                /* \"#utility.yul\":841:918   */\n            tag_165:\n                /* \"#utility.yul\":878:885   */\n              0x00\n                /* \"#utility.yul\":907:912   */\n              dup2\n                /* \"#utility.yul\":896:912   */\n              swap1\n              pop\n                /* \"#utility.yul\":841:918   */\n              swap2\n              swap1\n              pop\n              jump\t// out\n                /* \"#utility.yul\":924:1046   */\n            tag_166:\n                /* \"#utility.yul\":997:1021   */\n              tag_207\n                /* \"#utility.yul\":1015:1020   */\n              dup2\n                /* \"#utility.yul\":997:1021   */\n              tag_165\n              jump\t// in\n            tag_207:\n                /* \"#utility.yul\":990:995   */\n              dup2\n                /* \"#utility.yul\":987:1022   */\n              eq\n                /* \"#utility.yul\":977:1040   */\n              tag_208\n              jumpi\n                /* \"#utility.yul\":1036:1037   */\n              0x00\n                /* \"#utility.yul\":1033:1034   */\n              dup1\n                /* \"#utility.yul\":1026:1038   */\n              revert\n                /* \"#utility.yul\":977:1040   */\n            tag_208:\n                /* \"#utility.yul\":924:1046   */\n              pop\n              jump\t// out\n                /* \"#utility.yul\":1052:1191   */\n            tag_167:\n                /* \"#utility.yul\":1098:1103   */\n              0x00\n                /* \"#utility.yul\":1136:1142   */\n              dup2\n                /* \"#utility.yul\":1123:1143   */\n              calldataload\n                /* \"#utility.yul\":1114:1143   */\n              swap1\n              pop\n                /* \"#utility.yul\":1152:1185   */\n              tag_210\n                /* \"#utility.yul\":1179:1184   */\n              dup2\n                /* \"#utility.yul\":1152:1185   */\n              tag_166\n              jump\t// in\n            tag_210:\n                /* \"#utility.yul\":1052:1191   */\n              swap3\n              swap2\n              pop\n              pop\n              jump\t// out\n                /* \"#utility.yul\":1197:1671   */\n            tag_20:\n                /* \"#utility.yul\":1265:1271   */\n              0x00\n                /* \"#utility.yul\":1273:1279   */\n              dup1\n                /* \"#utility.yul\":1322:1324   */\n              0x40\n                /* \"#utility.yul\":1310:1319   */\n              dup4\n                /* \"#utility.yul\":1301:1308   */\n              dup6\n                /* \"#utility.yul\":1297:1320   */\n              sub\n                /* \"#utility.yul\":1293:1325   */\n              slt\n                /* \"#utility.yul\":1290:1409   */\n              iszero\n              tag_212\n              jumpi\n                /* \"#utility.yul\":1328:1407   */\n              tag_213\n              tag_159\n              jump\t// in\n            tag_213:\n                /* \"#utility.yul\":1290:1409   */\n            tag_212:\n                /* \"#utility.yul\":1448:1449   */\n              0x00\n                /* \"#utility.yul\":1473:1526   */\n              tag_214\n                /* \"#utility.yul\":1518:1525   */\n              dup6\n                /* \"#utility.yul\":1509:1515   */\n              dup3\n                /* \"#utility.yul\":1498:1507   */\n              dup7\n                /* \"#utility.yul\":1494:1516   */\n              add\n                /* \"#utility.yul\":1473:1526   */\n              tag_164\n              jump\t// in\n            tag_214:\n                /* \"#utility.yul\":1463:1526   */\n              swap3\n              pop\n                /* \"#utility.yul\":1419:1536   */\n              pop\n                /* \"#utility.yul\":1575:1577   */\n              0x20\n                /* \"#utility.yul\":1601:1654   */\n              tag_215\n                /* \"#utility.yul\":1646:1653   */\n              dup6\n                /* \"#utility.yul\":1637:1643   */\n              dup3\n                /* \"#utility.yul\":1626:1635   */\n              dup7\n                /* \"#utility.yul\":1622:1644   */\n              add\n                /* \"#utility.yul\":1601:1654   */\n              tag_167\n              jump\t// in\n            tag_215:\n                /* \"#utility.yul\":1591:1654   */\n              swap2\n              pop\n                /* \"#utility.yul\":1546:1664   */\n              pop\n                /* \"#utility.yul\":1197:1671   */\n              swap3\n              pop\n              swap3\n              swap1\n              pop\n              jump\t// out\n                /* \"#utility.yul\":1677:1776   */\n            tag_168:\n                /* \"#utility.yul\":1729:1735   */\n              0x00\n                /* \"#utility.yul\":1763:1768   */\n              dup2\n                /* \"#utility.yul\":1757:1769   */\n              mload\n                /* \"#utility.yul\":1747:1769   */\n              swap1\n              pop\n                /* \"#utility.yul\":1677:1776   */\n              swap2\n              swap1\n              pop\n              jump\t// out\n                /* \"#utility.yul\":1782:1951   */\n            tag_169:\n                /* \"#utility.yul\":1866:1877   */\n              0x00\n                /* \"#utility.yul\":1900:1906   */\n              dup3\n                /* \"#utility.yul\":1895:1898   */\n              dup3\n                /* \"#utility.yul\":1888:1907   */\n              mstore\n                /* \"#utility.yul\":1940:1944   */\n              0x20\n                /* \"#utility.yul\":1935:1938   */\n              dup3\n                /* \"#utility.yul\":1931:1945   */\n              add\n                /* \"#utility.yul\":1916:1945   */\n              swap1\n              pop\n                /* \"#utility.yul\":1782:1951   */\n              swap3\n              swap2\n              pop\n              pop\n              jump\t// out\n                /* \"#utility.yul\":1957:2264   */\n            tag_170:\n                /* \"#utility.yul\":2025:2026   */\n              0x00\n                /* \"#utility.yul\":2035:2148   */\n            tag_219:\n                /* \"#utility.yul\":2049:2055   */\n              dup4\n                /* \"#utility.yul\":2046:2047   */\n              dup2\n                /* \"#utility.yul\":2043:2056   */\n              lt\n                /* \"#utility.yul\":2035:2148   */\n              iszero\n              tag_221\n              jumpi\n                /* \"#utility.yul\":2134:2135   */\n              dup1\n                /* \"#utility.yul\":2129:2132   */\n              dup3\n                /* \"#utility.yul\":2125:2136   */\n              add\n                /* \"#utility.yul\":2119:2137   */\n              mload\n                /* \"#utility.yul\":2115:2116   */\n              dup2\n                /* \"#utility.yul\":2110:2113   */\n              dup5\n                /* \"#utility.yul\":2106:2117   */\n              add\n                /* \"#utility.yul\":2099:2138   */\n              mstore\n                /* \"#utility.yul\":2071:2073   */\n              0x20\n                /* \"#utility.yul\":2068:2069   */\n              dup2\n                /* \"#utility.yul\":2064:2074   */\n              add\n                /* \"#utility.yul\":2059:2074   */\n              swap1\n              pop\n                /* \"#utility.yul\":2035:2148   */\n              jump(tag_219)\n            tag_221:\n                /* \"#utility.yul\":2166:2172   */\n              dup4\n                /* \"#utility.yul\":2163:2164   */\n              dup2\n                /* \"#utility.yul\":2160:2173   */\n              gt\n                /* \"#utility.yul\":2157:2258   */\n              iszero\n              tag_222\n              jumpi\n                /* \"#utility.yul\":2246:2247   */\n              0x00\n                /* \"#utility.yul\":2237:2243   */\n              dup5\n                /* \"#utility.yul\":2232:2235   */\n              dup5\n                /* \"#utility.yul\":2228:2244   */\n              add\n                /* \"#utility.yul\":2221:2248   */\n              mstore\n                /* \"#utility.yul\":2157:2258   */\n            tag_222:\n                /* \"#utility.yul\":2006:2264   */\n              pop\n                /* \"#utility.yul\":1957:2264   */\n              pop\n              pop\n              pop\n              jump\t// out\n                /* \"#utility.yul\":2270:2372   */\n            tag_171:\n                /* \"#utility.yul\":2311:2317   */\n              0x00\n                /* \"#utility.yul\":2362:2364   */\n              0x1f\n                /* \"#utility.yul\":2358:2365   */\n              not\n                /* \"#utility.yul\":2353:2355   */\n              0x1f\n                /* \"#utility.yul\":2346:2351   */\n              dup4\n                /* \"#utility.yul\":2342:2356   */\n              add\n                /* \"#utility.yul\":2338:2366   */\n              and\n                /* \"#utility.yul\":2328:2366   */\n              swap1\n              pop\n                /* \"#utility.yul\":2270:2372   */\n              swap2\n              swap1\n              pop\n              jump\t// out\n                /* \"#utility.yul\":2378:2742   */\n            tag_172:\n                /* \"#utility.yul\":2466:2469   */\n              0x00\n                /* \"#utility.yul\":2494:2533   */\n              tag_225\n                /* \"#utility.yul\":2527:2532   */\n              dup3\n                /* \"#utility.yul\":2494:2533   */\n              tag_168\n              jump\t// in\n            tag_225:\n                /* \"#utility.yul\":2549:2620   */\n              tag_226\n                /* \"#utility.yul\":2613:2619   */\n              dup2\n                /* \"#utility.yul\":2608:2611   */\n              dup6\n                /* \"#utility.yul\":2549:2620   */\n              tag_169\n              jump\t// in\n            tag_226:\n                /* \"#utility.yul\":2542:2620   */\n              swap4\n              pop\n                /* \"#utility.yul\":2629:2681   */\n              tag_227\n                /* \"#utility.yul\":2674:2680   */\n              dup2\n                /* \"#utility.yul\":2669:2672   */\n              dup6\n                /* \"#utility.yul\":2662:2666   */\n              0x20\n                /* \"#utility.yul\":2655:2660   */\n              dup7\n                /* \"#utility.yul\":2651:2667   */\n              add\n                /* \"#utility.yul\":2629:2681   */\n              tag_170\n              jump\t// in\n            tag_227:\n                /* \"#utility.yul\":2706:2735   */\n              tag_228\n                /* \"#utility.yul\":2728:2734   */\n              dup2\n                /* \"#utility.yul\":2706:2735   */\n              tag_171\n              jump\t// in\n            tag_228:\n                /* \"#utility.yul\":2701:2704   */\n              dup5\n                /* \"#utility.yul\":2697:2736   */\n              add\n                /* \"#utility.yul\":2690:2736   */\n              swap2\n              pop\n                /* \"#utility.yul\":2470:2742   */\n              pop\n                /* \"#utility.yul\":2378:2742   */\n              swap3\n              swap2\n              pop\n              pop\n              jump\t// out\n                /* \"#utility.yul\":2748:3061   */\n            tag_23:\n                /* \"#utility.yul\":2861:2865   */\n              0x00\n                /* \"#utility.yul\":2899:2901   */\n              0x20\n                /* \"#utility.yul\":2888:2897   */\n              dup3\n                /* \"#utility.yul\":2884:2902   */\n              add\n                /* \"#utility.yul\":2876:2902   */\n              swap1\n              pop\n                /* \"#utility.yul\":2948:2957   */\n              dup2\n                /* \"#utility.yul\":2942:2946   */\n              dup2\n                /* \"#utility.yul\":2938:2958   */\n              sub\n                /* \"#utility.yul\":2934:2935   */\n              0x00\n                /* \"#utility.yul\":2923:2932   */\n              dup4\n                /* \"#utility.yul\":2919:2936   */\n              add\n                /* \"#utility.yul\":2912:2959   */\n              mstore\n                /* \"#utility.yul\":2976:3054   */\n              tag_230\n                /* \"#utility.yul\":3049:3053   */\n              dup2\n                /* \"#utility.yul\":3040:3046   */\n              dup5\n                /* \"#utility.yul\":2976:3054   */\n              tag_172\n              jump\t// in\n            tag_230:\n                /* \"#utility.yul\":2968:3054   */\n              swap1\n              pop\n                /* \"#utility.yul\":2748:3061   */\n              swap3\n              swap2\n              pop\n              pop\n              jump\t// out\n                /* \"#utility.yul\":3067:3185   */\n            tag_173:\n                /* \"#utility.yul\":3154:3178   */\n              tag_232\n                /* \"#utility.yul\":3172:3177   */\n              dup2\n                /* \"#utility.yul\":3154:3178   */\n              tag_165\n              jump\t// in\n            tag_232:\n                /* \"#utility.yul\":3149:3152   */\n              dup3\n                /* \"#utility.yul\":3142:3179   */\n              mstore\n                /* \"#utility.yul\":3067:3185   */\n              pop\n              pop\n              jump\t// out\n                /* \"#utility.yul\":3191:3413   */\n            tag_27:\n                /* \"#utility.yul\":3284:3288   */\n              0x00\n                /* \"#utility.yul\":3322:3324   */\n              0x20\n                /* \"#utility.yul\":3311:3320   */\n              dup3\n                /* \"#utility.yul\":3307:3325   */\n              add\n                /* \"#utility.yul\":3299:3325   */\n              swap1\n              pop\n                /* \"#utility.yul\":3335:3406   */\n              tag_234\n                /* \"#utility.yul\":3403:3404   */\n              0x00\n                /* \"#utility.yul\":3392:3401   */\n              dup4\n                /* \"#utility.yul\":3388:3405   */\n              add\n                /* \"#utility.yul\":3379:3385   */\n              dup5\n                /* \"#utility.yul\":3335:3406   */\n              tag_173\n              jump\t// in\n            tag_234:\n                /* \"#utility.yul\":3191:3413   */\n              swap3\n              swap2\n              pop\n              pop\n              jump\t// out\n                /* \"#utility.yul\":3419:4649   */\n            tag_31:\n                /* \"#utility.yul\":3752:3756   */\n              0x00\n                /* \"#utility.yul\":3790:3793   */\n              0xc0\n                /* \"#utility.yul\":3779:3788   */\n              dup3\n                /* \"#utility.yul\":3775:3794   */\n              add\n                /* \"#utility.yul\":3767:3794   */\n              swap1\n              pop\n                /* \"#utility.yul\":3840:3849   */\n              dup2\n                /* \"#utility.yul\":3834:3838   */\n              dup2\n                /* \"#utility.yul\":3830:3850   */\n              sub\n                /* \"#utility.yul\":3826:3827   */\n              0x00\n                /* \"#utility.yul\":3815:3824   */\n              dup4\n                /* \"#utility.yul\":3811:3828   */\n              add\n                /* \"#utility.yul\":3804:3851   */\n              mstore\n                /* \"#utility.yul\":3868:3946   */\n              tag_236\n                /* \"#utility.yul\":3941:3945   */\n              dup2\n                /* \"#utility.yul\":3932:3938   */\n              dup10\n                /* \"#utility.yul\":3868:3946   */\n              tag_172\n              jump\t// in\n            tag_236:\n                /* \"#utility.yul\":3860:3946   */\n              swap1\n              pop\n                /* \"#utility.yul\":3956:4028   */\n              tag_237\n                /* \"#utility.yul\":4024:4026   */\n              0x20\n                /* \"#utility.yul\":4013:4022   */\n              dup4\n                /* \"#utility.yul\":4009:4027   */\n              add\n                /* \"#utility.yul\":4000:4006   */\n              dup9\n                /* \"#utility.yul\":3956:4028   */\n              tag_173\n              jump\t// in\n            tag_237:\n                /* \"#utility.yul\":4075:4084   */\n              dup2\n                /* \"#utility.yul\":4069:4073   */\n              dup2\n                /* \"#utility.yul\":4065:4085   */\n              sub\n                /* \"#utility.yul\":4060:4062   */\n              0x40\n                /* \"#utility.yul\":4049:4058   */\n              dup4\n                /* \"#utility.yul\":4045:4063   */\n              add\n                /* \"#utility.yul\":4038:4086   */\n              mstore\n                /* \"#utility.yul\":4103:4181   */\n              tag_238\n                /* \"#utility.yul\":4176:4180   */\n              dup2\n                /* \"#utility.yul\":4167:4173   */\n              dup8\n                /* \"#utility.yul\":4103:4181   */\n              tag_172\n              jump\t// in\n            tag_238:\n                /* \"#utility.yul\":4095:4181   */\n              swap1\n              pop\n                /* \"#utility.yul\":4228:4237   */\n              dup2\n                /* \"#utility.yul\":4222:4226   */\n              dup2\n                /* \"#utility.yul\":4218:4238   */\n              sub\n                /* \"#utility.yul\":4213:4215   */\n              0x60\n                /* \"#utility.yul\":4202:4211   */\n              dup4\n                /* \"#utility.yul\":4198:4216   */\n              add\n                /* \"#utility.yul\":4191:4239   */\n              mstore\n                /* \"#utility.yul\":4256:4334   */\n              tag_239\n                /* \"#utility.yul\":4329:4333   */\n              dup2\n                /* \"#utility.yul\":4320:4326   */\n              dup7\n                /* \"#utility.yul\":4256:4334   */\n              tag_172\n              jump\t// in\n            tag_239:\n                /* \"#utility.yul\":4248:4334   */\n              swap1\n              pop\n                /* \"#utility.yul\":4382:4391   */\n              dup2\n                /* \"#utility.yul\":4376:4380   */\n              dup2\n                /* \"#utility.yul\":4372:4392   */\n              sub\n                /* \"#utility.yul\":4366:4369   */\n              0x80\n                /* \"#utility.yul\":4355:4364   */\n              dup4\n                /* \"#utility.yul\":4351:4370   */\n              add\n                /* \"#utility.yul\":4344:4393   */\n              mstore\n                /* \"#utility.yul\":4410:4488   */\n              tag_240\n                /* \"#utility.yul\":4483:4487   */\n              dup2\n                /* \"#utility.yul\":4474:4480   */\n              dup6\n                /* \"#utility.yul\":4410:4488   */\n              tag_172\n              jump\t// in\n            tag_240:\n                /* \"#utility.yul\":4402:4488   */\n              swap1\n              pop\n                /* \"#utility.yul\":4536:4545   */\n              dup2\n                /* \"#utility.yul\":4530:4534   */\n              dup2\n                /* \"#utility.yul\":4526:4546   */\n              sub\n                /* \"#utility.yul\":4520:4523   */\n              0xa0\n                /* \"#utility.yul\":4509:4518   */\n              dup4\n                /* \"#utility.yul\":4505:4524   */\n              add\n                /* \"#utility.yul\":4498:4547   */\n              mstore\n                /* \"#utility.yul\":4564:4642   */\n              tag_241\n                /* \"#utility.yul\":4637:4641   */\n              dup2\n                /* \"#utility.yul\":4628:4634   */\n              dup5\n                /* \"#utility.yul\":4564:4642   */\n              tag_172\n              jump\t// in\n            tag_241:\n                /* \"#utility.yul\":4556:4642   */\n              swap1\n              pop\n                /* \"#utility.yul\":3419:4649   */\n              swap8\n              swap7\n              pop\n              pop\n              pop\n              pop\n              pop\n              pop\n              pop\n              jump\t// out\n                /* \"#utility.yul\":4655:4772   */\n            tag_174:\n                /* \"#utility.yul\":4764:4765   */\n              0x00\n                /* \"#utility.yul\":4761:4762   */\n              dup1\n                /* \"#utility.yul\":4754:4766   */\n              revert\n                /* \"#utility.yul\":4778:4895   */\n            tag_175:\n                /* \"#utility.yul\":4887:4888   */\n              0x00\n                /* \"#utility.yul\":4884:4885   */\n              dup1\n                /* \"#utility.yul\":4877:4889   */\n              revert\n                /* \"#utility.yul\":4901:5081   */\n            tag_176:\n                /* \"#utility.yul\":4949:5026   */\n              0x4e487b7100000000000000000000000000000000000000000000000000000000\n                /* \"#utility.yul\":4946:4947   */\n              0x00\n                /* \"#utility.yul\":4939:5027   */\n              mstore\n                /* \"#utility.yul\":5046:5050   */\n              0x41\n                /* \"#utility.yul\":5043:5044   */\n              0x04\n                /* \"#utility.yul\":5036:5051   */\n              mstore\n                /* \"#utility.yul\":5070:5074   */\n              0x24\n                /* \"#utility.yul\":5067:5068   */\n              0x00\n                /* \"#utility.yul\":5060:5075   */\n              revert\n                /* \"#utility.yul\":5087:5368   */\n            tag_177:\n                /* \"#utility.yul\":5170:5197   */\n              tag_246\n                /* \"#utility.yul\":5192:5196   */\n              dup3\n                /* \"#utility.yul\":5170:5197   */\n              tag_171\n              jump\t// in\n            tag_246:\n                /* \"#utility.yul\":5162:5168   */\n              dup2\n                /* \"#utility.yul\":5158:5198   */\n              add\n                /* \"#utility.yul\":5300:5306   */\n              dup2\n                /* \"#utility.yul\":5288:5298   */\n              dup2\n                /* \"#utility.yul\":5285:5307   */\n              lt\n                /* \"#utility.yul\":5264:5282   */\n              0xffffffffffffffff\n                /* \"#utility.yul\":5252:5262   */\n              dup3\n                /* \"#utility.yul\":5249:5283   */\n              gt\n                /* \"#utility.yul\":5246:5308   */\n              or\n                /* \"#utility.yul\":5243:5331   */\n              iszero\n              tag_247\n              jumpi\n                /* \"#utility.yul\":5311:5329   */\n              tag_248\n              tag_176\n              jump\t// in\n            tag_248:\n                /* \"#utility.yul\":5243:5331   */\n            tag_247:\n                /* \"#utility.yul\":5351:5361   */\n              dup1\n                /* \"#utility.yul\":5347:5349   */\n              0x40\n                /* \"#utility.yul\":5340:5362   */\n              mstore\n                /* \"#utility.yul\":5130:5368   */\n              pop\n                /* \"#utility.yul\":5087:5368   */\n              pop\n              pop\n              jump\t// out\n                /* \"#utility.yul\":5374:5503   */\n            tag_178:\n                /* \"#utility.yul\":5408:5414   */\n              0x00\n                /* \"#utility.yul\":5435:5455   */\n              tag_250\n              tag_158\n              jump\t// in\n            tag_250:\n                /* \"#utility.yul\":5425:5455   */\n              swap1\n              pop\n                /* \"#utility.yul\":5464:5497   */\n              tag_251\n                /* \"#utility.yul\":5492:5496   */\n              dup3\n                /* \"#utility.yul\":5484:5490   */\n              dup3\n                /* \"#utility.yul\":5464:5497   */\n              tag_177\n              jump\t// in\n            tag_251:\n                /* \"#utility.yul\":5374:5503   */\n              swap2\n              swap1\n              pop\n              jump\t// out\n                /* \"#utility.yul\":5509:5817   */\n            tag_179:\n                /* \"#utility.yul\":5571:5575   */\n              0x00\n                /* \"#utility.yul\":5661:5679   */\n              0xffffffffffffffff\n                /* \"#utility.yul\":5653:5659   */\n              dup3\n                /* \"#utility.yul\":5650:5680   */\n              gt\n                /* \"#utility.yul\":5647:5703   */\n              iszero\n              tag_253\n              jumpi\n                /* \"#utility.yul\":5683:5701   */\n              tag_254\n              tag_176\n              jump\t// in\n            tag_254:\n                /* \"#utility.yul\":5647:5703   */\n            tag_253:\n                /* \"#utility.yul\":5721:5750   */\n              tag_255\n                /* \"#utility.yul\":5743:5749   */\n              dup3\n                /* \"#utility.yul\":5721:5750   */\n              tag_171\n              jump\t// in\n            tag_255:\n                /* \"#utility.yul\":5713:5750   */\n              swap1\n              pop\n                /* \"#utility.yul\":5805:5809   */\n              0x20\n                /* \"#utility.yul\":5799:5803   */\n              dup2\n                /* \"#utility.yul\":5795:5810   */\n              add\n                /* \"#utility.yul\":5787:5810   */\n              swap1\n              pop\n                /* \"#utility.yul\":5509:5817   */\n              swap2\n              swap1\n              pop\n              jump\t// out\n                /* \"#utility.yul\":5823:5977   */\n            tag_180:\n                /* \"#utility.yul\":5907:5913   */\n              dup3\n                /* \"#utility.yul\":5902:5905   */\n              dup2\n                /* \"#utility.yul\":5897:5900   */\n              dup4\n                /* \"#utility.yul\":5884:5914   */\n              calldatacopy\n                /* \"#utility.yul\":5969:5970   */\n              0x00\n                /* \"#utility.yul\":5960:5966   */\n              dup4\n                /* \"#utility.yul\":5955:5958   */\n              dup4\n                /* \"#utility.yul\":5951:5967   */\n              add\n                /* \"#utility.yul\":5944:5971   */\n              mstore\n                /* \"#utility.yul\":5823:5977   */\n              pop\n              pop\n              pop\n              jump\t// out\n                /* \"#utility.yul\":5983:6395   */\n            tag_181:\n                /* \"#utility.yul\":6061:6066   */\n              0x00\n                /* \"#utility.yul\":6086:6152   */\n              tag_258\n                /* \"#utility.yul\":6102:6151   */\n              tag_259\n                /* \"#utility.yul\":6144:6150   */\n              dup5\n                /* \"#utility.yul\":6102:6151   */\n              tag_179\n              jump\t// in\n            tag_259:\n                /* \"#utility.yul\":6086:6152   */\n              tag_178\n              jump\t// in\n            tag_258:\n                /* \"#utility.yul\":6077:6152   */\n              swap1\n              pop\n                /* \"#utility.yul\":6175:6181   */\n              dup3\n                /* \"#utility.yul\":6168:6173   */\n              dup2\n                /* \"#utility.yul\":6161:6182   */\n              mstore\n                /* \"#utility.yul\":6213:6217   */\n              0x20\n                /* \"#utility.yul\":6206:6211   */\n              dup2\n                /* \"#utility.yul\":6202:6218   */\n              add\n                /* \"#utility.yul\":6251:6254   */\n              dup5\n                /* \"#utility.yul\":6242:6248   */\n              dup5\n                /* \"#utility.yul\":6237:6240   */\n              dup5\n                /* \"#utility.yul\":6233:6249   */\n              add\n                /* \"#utility.yul\":6230:6255   */\n              gt\n                /* \"#utility.yul\":6227:6339   */\n              iszero\n              tag_260\n              jumpi\n                /* \"#utility.yul\":6258:6337   */\n              tag_261\n              tag_175\n              jump\t// in\n            tag_261:\n                /* \"#utility.yul\":6227:6339   */\n            tag_260:\n                /* \"#utility.yul\":6348:6389   */\n              tag_262\n                /* \"#utility.yul\":6382:6388   */\n              dup5\n                /* \"#utility.yul\":6377:6380   */\n              dup3\n                /* \"#utility.yul\":6372:6375   */\n              dup6\n                /* \"#utility.yul\":6348:6389   */\n              tag_180\n              jump\t// in\n            tag_262:\n                /* \"#utility.yul\":6067:6395   */\n              pop\n                /* \"#utility.yul\":5983:6395   */\n              swap4\n              swap3\n              pop\n              pop\n              pop\n              jump\t// out\n                /* \"#utility.yul\":6415:6755   */\n            tag_182:\n                /* \"#utility.yul\":6471:6476   */\n              0x00\n                /* \"#utility.yul\":6520:6523   */\n              dup3\n                /* \"#utility.yul\":6513:6517   */\n              0x1f\n                /* \"#utility.yul\":6505:6511   */\n              dup4\n                /* \"#utility.yul\":6501:6518   */\n              add\n                /* \"#utility.yul\":6497:6524   */\n              slt\n                /* \"#utility.yul\":6487:6609   */\n              tag_264\n              jumpi\n                /* \"#utility.yul\":6528:6607   */\n              tag_265\n              tag_174\n              jump\t// in\n            tag_265:\n                /* \"#utility.yul\":6487:6609   */\n            tag_264:\n                /* \"#utility.yul\":6645:6651   */\n              dup2\n                /* \"#utility.yul\":6632:6652   */\n              calldataload\n                /* \"#utility.yul\":6670:6749   */\n              tag_266\n                /* \"#utility.yul\":6745:6748   */\n              dup5\n                /* \"#utility.yul\":6737:6743   */\n              dup3\n                /* \"#utility.yul\":6730:6734   */\n              0x20\n                /* \"#utility.yul\":6722:6728   */\n              dup7\n                /* \"#utility.yul\":6718:6735   */\n              add\n                /* \"#utility.yul\":6670:6749   */\n              tag_181\n              jump\t// in\n            tag_266:\n                /* \"#utility.yul\":6661:6749   */\n              swap2\n              pop\n                /* \"#utility.yul\":6477:6755   */\n              pop\n                /* \"#utility.yul\":6415:6755   */\n              swap3\n              swap2\n              pop\n              pop\n              jump\t// out\n                /* \"#utility.yul\":6761:8718   */\n            tag_34:\n                /* \"#utility.yul\":6915:6921   */\n              0x00\n                /* \"#utility.yul\":6923:6929   */\n              dup1\n                /* \"#utility.yul\":6931:6937   */\n              0x00\n                /* \"#utility.yul\":6939:6945   */\n              dup1\n                /* \"#utility.yul\":6947:6953   */\n              0x00\n                /* \"#utility.yul\":6955:6961   */\n              dup1\n                /* \"#utility.yul\":7004:7007   */\n              0xc0\n                /* \"#utility.yul\":6992:7001   */\n              dup8\n                /* \"#utility.yul\":6983:6990   */\n              dup10\n                /* \"#utility.yul\":6979:7002   */\n              sub\n                /* \"#utility.yul\":6975:7008   */\n              slt\n                /* \"#utility.yul\":6972:7092   */\n              iszero\n              tag_268\n              jumpi\n                /* \"#utility.yul\":7011:7090   */\n              tag_269\n              tag_159\n              jump\t// in\n            tag_269:\n                /* \"#utility.yul\":6972:7092   */\n            tag_268:\n                /* \"#utility.yul\":7159:7160   */\n              0x00\n                /* \"#utility.yul\":7148:7157   */\n              dup8\n                /* \"#utility.yul\":7144:7161   */\n              add\n                /* \"#utility.yul\":7131:7162   */\n              calldataload\n                /* \"#utility.yul\":7189:7207   */\n              0xffffffffffffffff\n                /* \"#utility.yul\":7181:7187   */\n              dup2\n                /* \"#utility.yul\":7178:7208   */\n              gt\n                /* \"#utility.yul\":7175:7292   */\n              iszero\n              tag_270\n              jumpi\n                /* \"#utility.yul\":7211:7290   */\n              tag_271\n              tag_160\n              jump\t// in\n            tag_271:\n                /* \"#utility.yul\":7175:7292   */\n            tag_270:\n                /* \"#utility.yul\":7316:7379   */\n              tag_272\n                /* \"#utility.yul\":7371:7378   */\n              dup10\n                /* \"#utility.yul\":7362:7368   */\n              dup3\n                /* \"#utility.yul\":7351:7360   */\n              dup11\n                /* \"#utility.yul\":7347:7369   */\n              add\n                /* \"#utility.yul\":7316:7379   */\n              tag_182\n              jump\t// in\n            tag_272:\n                /* \"#utility.yul\":7306:7379   */\n              swap7\n              pop\n                /* \"#utility.yul\":7102:7389   */\n              pop\n                /* \"#utility.yul\":7428:7430   */\n              0x20\n                /* \"#utility.yul\":7454:7507   */\n              tag_273\n                /* \"#utility.yul\":7499:7506   */\n              dup10\n                /* \"#utility.yul\":7490:7496   */\n              dup3\n                /* \"#utility.yul\":7479:7488   */\n              dup11\n                /* \"#utility.yul\":7475:7497   */\n              add\n                /* \"#utility.yul\":7454:7507   */\n              tag_167\n              jump\t// in\n            tag_273:\n                /* \"#utility.yul\":7444:7507   */\n              swap6\n              pop\n                /* \"#utility.yul\":7399:7517   */\n              pop\n                /* \"#utility.yul\":7584:7586   */\n              0x40\n                /* \"#utility.yul\":7573:7582   */\n              dup8\n                /* \"#utility.yul\":7569:7587   */\n              add\n                /* \"#utility.yul\":7556:7588   */\n              calldataload\n                /* \"#utility.yul\":7615:7633   */\n              0xffffffffffffffff\n                /* \"#utility.yul\":7607:7613   */\n              dup2\n                /* \"#utility.yul\":7604:7634   */\n              gt\n                /* \"#utility.yul\":7601:7718   */\n              iszero\n              tag_274\n              jumpi\n                /* \"#utility.yul\":7637:7716   */\n              tag_275\n              tag_160\n              jump\t// in\n            tag_275:\n                /* \"#utility.yul\":7601:7718   */\n            tag_274:\n                /* \"#utility.yul\":7742:7805   */\n              tag_276\n                /* \"#utility.yul\":7797:7804   */\n              dup10\n                /* \"#utility.yul\":7788:7794   */\n              dup3\n                /* \"#utility.yul\":7777:7786   */\n              dup11\n                /* \"#utility.yul\":7773:7795   */\n              add\n                /* \"#utility.yul\":7742:7805   */\n              tag_182\n              jump\t// in\n            tag_276:\n                /* \"#utility.yul\":7732:7805   */\n              swap5\n              pop\n                /* \"#utility.yul\":7527:7815   */\n              pop\n                /* \"#utility.yul\":7882:7884   */\n              0x60\n                /* \"#utility.yul\":7871:7880   */\n              dup8\n                /* \"#utility.yul\":7867:7885   */\n              add\n                /* \"#utility.yul\":7854:7886   */\n              calldataload\n                /* \"#utility.yul\":7913:7931   */\n              0xffffffffffffffff\n                /* \"#utility.yul\":7905:7911   */\n              dup2\n                /* \"#utility.yul\":7902:7932   */\n              gt\n                /* \"#utility.yul\":7899:8016   */\n              iszero\n              tag_277\n              jumpi\n                /* \"#utility.yul\":7935:8014   */\n              tag_278\n              tag_160\n              jump\t// in\n            tag_278:\n                /* \"#utility.yul\":7899:8016   */\n            tag_277:\n                /* \"#utility.yul\":8040:8103   */\n              tag_279\n                /* \"#utility.yul\":8095:8102   */\n              dup10\n                /* \"#utility.yul\":8086:8092   */\n              dup3\n                /* \"#utility.yul\":8075:8084   */\n              dup11\n                /* \"#utility.yul\":8071:8093   */\n              add\n                /* \"#utility.yul\":8040:8103   */\n              tag_182\n              jump\t// in\n            tag_279:\n                /* \"#utility.yul\":8030:8103   */\n              swap4\n              pop\n                /* \"#utility.yul\":7825:8113   */\n              pop\n                /* \"#utility.yul\":8180:8183   */\n              0x80\n                /* \"#utility.yul\":8169:8178   */\n              dup8\n                /* \"#utility.yul\":8165:8184   */\n              add\n                /* \"#utility.yul\":8152:8185   */\n              calldataload\n                /* \"#utility.yul\":8212:8230   */\n              0xffffffffffffffff\n                /* \"#utility.yul\":8204:8210   */\n              dup2\n                /* \"#utility.yul\":8201:8231   */\n              gt\n                /* \"#utility.yul\":8198:8315   */\n              iszero\n              tag_280\n              jumpi\n                /* \"#utility.yul\":8234:8313   */\n              tag_281\n              tag_160\n              jump\t// in\n            tag_281:\n                /* \"#utility.yul\":8198:8315   */\n            tag_280:\n                /* \"#utility.yul\":8339:8402   */\n              tag_282\n                /* \"#utility.yul\":8394:8401   */\n              dup10\n                /* \"#utility.yul\":8385:8391   */\n              dup3\n                /* \"#utility.yul\":8374:8383   */\n              dup11\n                /* \"#utility.yul\":8370:8392   */\n              add\n                /* \"#utility.yul\":8339:8402   */\n              tag_182\n              jump\t// in\n            tag_282:\n                /* \"#utility.yul\":8329:8402   */\n              swap3\n              pop\n                /* \"#utility.yul\":8123:8412   */\n              pop\n                /* \"#utility.yul\":8479:8482   */\n              0xa0\n                /* \"#utility.yul\":8468:8477   */\n              dup8\n                /* \"#utility.yul\":8464:8483   */\n              add\n                /* \"#utility.yul\":8451:8484   */\n              calldataload\n                /* \"#utility.yul\":8511:8529   */\n              0xffffffffffffffff\n                /* \"#utility.yul\":8503:8509   */\n              dup2\n                /* \"#utility.yul\":8500:8530   */\n              gt\n                /* \"#utility.yul\":8497:8614   */\n              iszero\n              tag_283\n              jumpi\n                /* \"#utility.yul\":8533:8612   */\n              tag_284\n              tag_160\n              jump\t// in\n            tag_284:\n                /* \"#utility.yul\":8497:8614   */\n            tag_283:\n                /* \"#utility.yul\":8638:8701   */\n              tag_285\n                /* \"#utility.yul\":8693:8700   */\n              dup10\n                /* \"#utility.yul\":8684:8690   */\n              dup3\n                /* \"#utility.yul\":8673:8682   */\n              dup11\n                /* \"#utility.yul\":8669:8691   */\n              add\n                /* \"#utility.yul\":8638:8701   */\n              tag_182\n              jump\t// in\n            tag_285:\n                /* \"#utility.yul\":8628:8701   */\n              swap2\n              pop\n                /* \"#utility.yul\":8422:8711   */\n              pop\n                /* \"#utility.yul\":6761:8718   */\n              swap3\n              swap6\n              pop\n              swap3\n              swap6\n              pop\n              swap3\n              swap6\n              jump\t// out\n                /* \"#utility.yul\":8724:9198   */\n            tag_38:\n                /* \"#utility.yul\":8792:8798   */\n              0x00\n                /* \"#utility.yul\":8800:8806   */\n              dup1\n                /* \"#utility.yul\":8849:8851   */\n              0x40\n                /* \"#utility.yul\":8837:8846   */\n              dup4\n                /* \"#utility.yul\":8828:8835   */\n              dup6\n                /* \"#utility.yul\":8824:8847   */\n              sub\n                /* \"#utility.yul\":8820:8852   */\n              slt\n                /* \"#utility.yul\":8817:8936   */\n              iszero\n              tag_287\n              jumpi\n                /* \"#utility.yul\":8855:8934   */\n              tag_288\n              tag_159\n              jump\t// in\n            tag_288:\n                /* \"#utility.yul\":8817:8936   */\n            tag_287:\n                /* \"#utility.yul\":8975:8976   */\n              0x00\n                /* \"#utility.yul\":9000:9053   */\n              tag_289\n                /* \"#utility.yul\":9045:9052   */\n              dup6\n                /* \"#utility.yul\":9036:9042   */\n              dup3\n                /* \"#utility.yul\":9025:9034   */\n              dup7\n                /* \"#utility.yul\":9021:9043   */\n              add\n                /* \"#utility.yul\":9000:9053   */\n              tag_167\n              jump\t// in\n            tag_289:\n                /* \"#utility.yul\":8990:9053   */\n              swap3\n              pop\n                /* \"#utility.yul\":8946:9063   */\n              pop\n                /* \"#utility.yul\":9102:9104   */\n              0x20\n                /* \"#utility.yul\":9128:9181   */\n              tag_290\n                /* \"#utility.yul\":9173:9180   */\n              dup6\n                /* \"#utility.yul\":9164:9170   */\n              dup3\n                /* \"#utility.yul\":9153:9162   */\n              dup7\n                /* \"#utility.yul\":9149:9171   */\n              add\n                /* \"#utility.yul\":9128:9181   */\n              tag_164\n              jump\t// in\n            tag_290:\n                /* \"#utility.yul\":9118:9181   */\n              swap2\n              pop\n                /* \"#utility.yul\":9073:9191   */\n              pop\n                /* \"#utility.yul\":8724:9198   */\n              swap3\n              pop\n              swap3\n              swap1\n              pop\n              jump\t// out\n                /* \"#utility.yul\":9204:10003   */\n            tag_42:\n                /* \"#utility.yul\":9291:9297   */\n              0x00\n                /* \"#utility.yul\":9299:9305   */\n              dup1\n                /* \"#utility.yul\":9307:9313   */\n              0x00\n                /* \"#utility.yul\":9356:9358   */\n              0x60\n                /* \"#utility.yul\":9344:9353   */\n              dup5\n                /* \"#utility.yul\":9335:9342   */\n              dup7\n                /* \"#utility.yul\":9331:9354   */\n              sub\n                /* \"#utility.yul\":9327:9359   */\n              slt\n                /* \"#utility.yul\":9324:9443   */\n              iszero\n              tag_292\n              jumpi\n                /* \"#utility.yul\":9362:9441   */\n              tag_293\n              tag_159\n              jump\t// in\n            tag_293:\n                /* \"#utility.yul\":9324:9443   */\n            tag_292:\n                /* \"#utility.yul\":9510:9511   */\n              0x00\n                /* \"#utility.yul\":9499:9508   */\n              dup5\n                /* \"#utility.yul\":9495:9512   */\n              add\n                /* \"#utility.yul\":9482:9513   */\n              calldataload\n                /* \"#utility.yul\":9540:9558   */\n              0xffffffffffffffff\n                /* \"#utility.yul\":9532:9538   */\n              dup2\n                /* \"#utility.yul\":9529:9559   */\n              gt\n                /* \"#utility.yul\":9526:9643   */\n              iszero\n              tag_294\n              jumpi\n                /* \"#utility.yul\":9562:9641   */\n              tag_295\n              tag_160\n              jump\t// in\n            tag_295:\n                /* \"#utility.yul\":9526:9643   */\n            tag_294:\n                /* \"#utility.yul\":9667:9730   */\n              tag_296\n                /* \"#utility.yul\":9722:9729   */\n              dup7\n                /* \"#utility.yul\":9713:9719   */\n              dup3\n                /* \"#utility.yul\":9702:9711   */\n              dup8\n                /* \"#utility.yul\":9698:9720   */\n              add\n                /* \"#utility.yul\":9667:9730   */\n              tag_182\n              jump\t// in\n            tag_296:\n                /* \"#utility.yul\":9657:9730   */\n              swap4\n              pop\n                /* \"#utility.yul\":9453:9740   */\n              pop\n                /* \"#utility.yul\":9779:9781   */\n              0x20\n                /* \"#utility.yul\":9805:9858   */\n              tag_297\n                /* \"#utility.yul\":9850:9857   */\n              dup7\n                /* \"#utility.yul\":9841:9847   */\n              dup3\n                /* \"#utility.yul\":9830:9839   */\n              dup8\n                /* \"#utility.yul\":9826:9848   */\n              add\n                /* \"#utility.yul\":9805:9858   */\n              tag_164\n              jump\t// in\n            tag_297:\n                /* \"#utility.yul\":9795:9858   */\n              swap3\n              pop\n                /* \"#utility.yul\":9750:9868   */\n              pop\n                /* \"#utility.yul\":9907:9909   */\n              0x40\n                /* \"#utility.yul\":9933:9986   */\n              tag_298\n                /* \"#utility.yul\":9978:9985   */\n              dup7\n                /* \"#utility.yul\":9969:9975   */\n              dup3\n                /* \"#utility.yul\":9958:9967   */\n              dup8\n                /* \"#utility.yul\":9954:9976   */\n              add\n                /* \"#utility.yul\":9933:9986   */\n              tag_167\n              jump\t// in\n            tag_298:\n                /* \"#utility.yul\":9923:9986   */\n              swap2\n              pop\n                /* \"#utility.yul\":9878:9996   */\n              pop\n                /* \"#utility.yul\":9204:10003   */\n              swap3\n              pop\n              swap3\n              pop\n              swap3\n              jump\t// out\n                /* \"#utility.yul\":10009:10127   */\n            tag_183:\n                /* \"#utility.yul\":10096:10120   */\n              tag_300\n                /* \"#utility.yul\":10114:10119   */\n              dup2\n                /* \"#utility.yul\":10096:10120   */\n              tag_162\n              jump\t// in\n            tag_300:\n                /* \"#utility.yul\":10091:10094   */\n              dup3\n                /* \"#utility.yul\":10084:10121   */\n              mstore\n                /* \"#utility.yul\":10009:10127   */\n              pop\n              pop\n              jump\t// out\n                /* \"#utility.yul\":10133:10355   */\n            tag_47:\n                /* \"#utility.yul\":10226:10230   */\n              0x00\n                /* \"#utility.yul\":10264:10266   */\n              0x20\n                /* \"#utility.yul\":10253:10262   */\n              dup3\n                /* \"#utility.yul\":10249:10267   */\n              add\n                /* \"#utility.yul\":10241:10267   */\n              swap1\n              pop\n                /* \"#utility.yul\":10277:10348   */\n              tag_302\n                /* \"#utility.yul\":10345:10346   */\n              0x00\n                /* \"#utility.yul\":10334:10343   */\n              dup4\n                /* \"#utility.yul\":10330:10347   */\n              add\n                /* \"#utility.yul\":10321:10327   */\n              dup5\n                /* \"#utility.yul\":10277:10348   */\n              tag_183\n              jump\t// in\n            tag_302:\n                /* \"#utility.yul\":10133:10355   */\n              swap3\n              swap2\n              pop\n              pop\n              jump\t// out\n                /* \"#utility.yul\":10361:10690   */\n            tag_56:\n                /* \"#utility.yul\":10420:10426   */\n              0x00\n                /* \"#utility.yul\":10469:10471   */\n              0x20\n                /* \"#utility.yul\":10457:10466   */\n              dup3\n                /* \"#utility.yul\":10448:10455   */\n              dup5\n                /* \"#utility.yul\":10444:10467   */\n              sub\n                /* \"#utility.yul\":10440:10472   */\n              slt\n                /* \"#utility.yul\":10437:10556   */\n              iszero\n              tag_304\n              jumpi\n                /* \"#utility.yul\":10475:10554   */\n              tag_305\n              tag_159\n              jump\t// in\n            tag_305:\n                /* \"#utility.yul\":10437:10556   */\n            tag_304:\n                /* \"#utility.yul\":10595:10596   */\n              0x00\n                /* \"#utility.yul\":10620:10673   */\n              tag_306\n                /* \"#utility.yul\":10665:10672   */\n              dup5\n                /* \"#utility.yul\":10656:10662   */\n              dup3\n                /* \"#utility.yul\":10645:10654   */\n              dup6\n                /* \"#utility.yul\":10641:10663   */\n              add\n                /* \"#utility.yul\":10620:10673   */\n              tag_167\n              jump\t// in\n            tag_306:\n                /* \"#utility.yul\":10610:10673   */\n              swap2\n              pop\n                /* \"#utility.yul\":10566:10683   */\n              pop\n                /* \"#utility.yul\":10361:10690   */\n              swap3\n              swap2\n              pop\n              pop\n              jump\t// out\n                /* \"#utility.yul\":10696:11025   */\n            tag_64:\n                /* \"#utility.yul\":10755:10761   */\n              0x00\n                /* \"#utility.yul\":10804:10806   */\n              0x20\n                /* \"#utility.yul\":10792:10801   */\n              dup3\n                /* \"#utility.yul\":10783:10790   */\n              dup5\n                /* \"#utility.yul\":10779:10802   */\n              sub\n                /* \"#utility.yul\":10775:10807   */\n              slt\n                /* \"#utility.yul\":10772:10891   */\n              iszero\n              tag_308\n              jumpi\n                /* \"#utility.yul\":10810:10889   */\n              tag_309\n              tag_159\n              jump\t// in\n            tag_309:\n                /* \"#utility.yul\":10772:10891   */\n            tag_308:\n                /* \"#utility.yul\":10930:10931   */\n              0x00\n                /* \"#utility.yul\":10955:11008   */\n              tag_310\n                /* \"#utility.yul\":11000:11007   */\n              dup5\n                /* \"#utility.yul\":10991:10997   */\n              dup3\n                /* \"#utility.yul\":10980:10989   */\n              dup6\n                /* \"#utility.yul\":10976:10998   */\n              add\n                /* \"#utility.yul\":10955:11008   */\n              tag_164\n              jump\t// in\n            tag_310:\n                /* \"#utility.yul\":10945:11008   */\n              swap2\n              pop\n                /* \"#utility.yul\":10901:11018   */\n              pop\n                /* \"#utility.yul\":10696:11025   */\n              swap3\n              swap2\n              pop\n              pop\n              jump\t// out\n                /* \"#utility.yul\":11031:11145   */\n            tag_184:\n                /* \"#utility.yul\":11098:11104   */\n              0x00\n                /* \"#utility.yul\":11132:11137   */\n              dup2\n                /* \"#utility.yul\":11126:11138   */\n              mload\n                /* \"#utility.yul\":11116:11138   */\n              swap1\n              pop\n                /* \"#utility.yul\":11031:11145   */\n              swap2\n              swap1\n              pop\n              jump\t// out\n                /* \"#utility.yul\":11151:11335   */\n            tag_185:\n                /* \"#utility.yul\":11250:11261   */\n              0x00\n                /* \"#utility.yul\":11284:11290   */\n              dup3\n                /* \"#utility.yul\":11279:11282   */\n              dup3\n                /* \"#utility.yul\":11272:11291   */\n              mstore\n                /* \"#utility.yul\":11324:11328   */\n              0x20\n                /* \"#utility.yul\":11319:11322   */\n              dup3\n                /* \"#utility.yul\":11315:11329   */\n              add\n                /* \"#utility.yul\":11300:11329   */\n              swap1\n              pop\n                /* \"#utility.yul\":11151:11335   */\n              swap3\n              swap2\n              pop\n              pop\n              jump\t// out\n                /* \"#utility.yul\":11341:11473   */\n            tag_186:\n                /* \"#utility.yul\":11408:11412   */\n              0x00\n                /* \"#utility.yul\":11431:11434   */\n              dup2\n                /* \"#utility.yul\":11423:11434   */\n              swap1\n              pop\n                /* \"#utility.yul\":11461:11465   */\n              0x20\n                /* \"#utility.yul\":11456:11459   */\n              dup3\n                /* \"#utility.yul\":11452:11466   */\n              add\n                /* \"#utility.yul\":11444:11466   */\n              swap1\n              pop\n                /* \"#utility.yul\":11341:11473   */\n              swap2\n              swap1\n              pop\n              jump\t// out\n                /* \"#utility.yul\":11479:11587   */\n            tag_187:\n                /* \"#utility.yul\":11556:11580   */\n              tag_315\n                /* \"#utility.yul\":11574:11579   */\n              dup2\n                /* \"#utility.yul\":11556:11580   */\n              tag_165\n              jump\t// in\n            tag_315:\n                /* \"#utility.yul\":11551:11554   */\n              dup3\n                /* \"#utility.yul\":11544:11581   */\n              mstore\n                /* \"#utility.yul\":11479:11587   */\n              pop\n              pop\n              jump\t// out\n                /* \"#utility.yul\":11593:11772   */\n            tag_188:\n                /* \"#utility.yul\":11662:11672   */\n              0x00\n                /* \"#utility.yul\":11683:11729   */\n              tag_317\n                /* \"#utility.yul\":11725:11728   */\n              dup4\n                /* \"#utility.yul\":11717:11723   */\n              dup4\n                /* \"#utility.yul\":11683:11729   */\n              tag_187\n              jump\t// in\n            tag_317:\n                /* \"#utility.yul\":11761:11765   */\n              0x20\n                /* \"#utility.yul\":11756:11759   */\n              dup4\n                /* \"#utility.yul\":11752:11766   */\n              add\n                /* \"#utility.yul\":11738:11766   */\n              swap1\n              pop\n                /* \"#utility.yul\":11593:11772   */\n              swap3\n              swap2\n              pop\n              pop\n              jump\t// out\n                /* \"#utility.yul\":11778:11891   */\n            tag_189:\n                /* \"#utility.yul\":11848:11852   */\n              0x00\n                /* \"#utility.yul\":11880:11884   */\n              0x20\n                /* \"#utility.yul\":11875:11878   */\n              dup3\n                /* \"#utility.yul\":11871:11885   */\n              add\n                /* \"#utility.yul\":11863:11885   */\n              swap1\n              pop\n                /* \"#utility.yul\":11778:11891   */\n              swap2\n              swap1\n              pop\n              jump\t// out\n                /* \"#utility.yul\":11927:12659   */\n            tag_190:\n                /* \"#utility.yul\":12046:12049   */\n              0x00\n                /* \"#utility.yul\":12075:12129   */\n              tag_320\n                /* \"#utility.yul\":12123:12128   */\n              dup3\n                /* \"#utility.yul\":12075:12129   */\n              tag_184\n              jump\t// in\n            tag_320:\n                /* \"#utility.yul\":12145:12231   */\n              tag_321\n                /* \"#utility.yul\":12224:12230   */\n              dup2\n                /* \"#utility.yul\":12219:12222   */\n              dup6\n                /* \"#utility.yul\":12145:12231   */\n              tag_185\n              jump\t// in\n            tag_321:\n                /* \"#utility.yul\":12138:12231   */\n              swap4\n              pop\n                /* \"#utility.yul\":12255:12311   */\n              tag_322\n                /* \"#utility.yul\":12305:12310   */\n              dup4\n                /* \"#utility.yul\":12255:12311   */\n              tag_186\n              jump\t// in\n            tag_322:\n                /* \"#utility.yul\":12334:12341   */\n              dup1\n                /* \"#utility.yul\":12365:12366   */\n              0x00\n                /* \"#utility.yul\":12350:12634   */\n            tag_323:\n                /* \"#utility.yul\":12375:12381   */\n              dup4\n                /* \"#utility.yul\":12372:12373   */\n              dup2\n                /* \"#utility.yul\":12369:12382   */\n              lt\n                /* \"#utility.yul\":12350:12634   */\n              iszero\n              tag_325\n              jumpi\n                /* \"#utility.yul\":12451:12457   */\n              dup2\n                /* \"#utility.yul\":12445:12458   */\n              mload\n                /* \"#utility.yul\":12478:12541   */\n              tag_326\n                /* \"#utility.yul\":12537:12540   */\n              dup9\n                /* \"#utility.yul\":12522:12535   */\n              dup3\n                /* \"#utility.yul\":12478:12541   */\n              tag_188\n              jump\t// in\n            tag_326:\n                /* \"#utility.yul\":12471:12541   */\n              swap8\n              pop\n                /* \"#utility.yul\":12564:12624   */\n              tag_327\n                /* \"#utility.yul\":12617:12623   */\n              dup4\n                /* \"#utility.yul\":12564:12624   */\n              tag_189\n              jump\t// in\n            tag_327:\n                /* \"#utility.yul\":12554:12624   */\n              swap3\n              pop\n                /* \"#utility.yul\":12410:12634   */\n              pop\n                /* \"#utility.yul\":12397:12398   */\n              0x01\n                /* \"#utility.yul\":12394:12395   */\n              dup2\n                /* \"#utility.yul\":12390:12399   */\n              add\n                /* \"#utility.yul\":12385:12399   */\n              swap1\n              pop\n                /* \"#utility.yul\":12350:12634   */\n              jump(tag_323)\n            tag_325:\n                /* \"#utility.yul\":12354:12368   */\n              pop\n                /* \"#utility.yul\":12650:12653   */\n              dup6\n                /* \"#utility.yul\":12643:12653   */\n              swap4\n              pop\n                /* \"#utility.yul\":12051:12659   */\n              pop\n              pop\n              pop\n                /* \"#utility.yul\":11927:12659   */\n              swap3\n              swap2\n              pop\n              pop\n              jump\t// out\n                /* \"#utility.yul\":12665:13038   */\n            tag_67:\n                /* \"#utility.yul\":12808:12812   */\n              0x00\n                /* \"#utility.yul\":12846:12848   */\n              0x20\n                /* \"#utility.yul\":12835:12844   */\n              dup3\n                /* \"#utility.yul\":12831:12849   */\n              add\n                /* \"#utility.yul\":12823:12849   */\n              swap1\n              pop\n                /* \"#utility.yul\":12895:12904   */\n              dup2\n                /* \"#utility.yul\":12889:12893   */\n              dup2\n                /* \"#utility.yul\":12885:12905   */\n              sub\n                /* \"#utility.yul\":12881:12882   */\n              0x00\n                /* \"#utility.yul\":12870:12879   */\n              dup4\n                /* \"#utility.yul\":12866:12883   */\n              add\n                /* \"#utility.yul\":12859:12906   */\n              mstore\n                /* \"#utility.yul\":12923:13031   */\n              tag_329\n                /* \"#utility.yul\":13026:13030   */\n              dup2\n                /* \"#utility.yul\":13017:13023   */\n              dup5\n                /* \"#utility.yul\":12923:13031   */\n              tag_190\n              jump\t// in\n            tag_329:\n                /* \"#utility.yul\":12915:13031   */\n              swap1\n              pop\n                /* \"#utility.yul\":12665:13038   */\n              swap3\n              swap2\n              pop\n              pop\n              jump\t// out\n                /* \"#utility.yul\":13044:13224   */\n            tag_191:\n                /* \"#utility.yul\":13092:13169   */\n              0x4e487b7100000000000000000000000000000000000000000000000000000000\n                /* \"#utility.yul\":13089:13090   */\n              0x00\n                /* \"#utility.yul\":13082:13170   */\n              mstore\n                /* \"#utility.yul\":13189:13193   */\n              0x22\n                /* \"#utility.yul\":13186:13187   */\n              0x04\n                /* \"#utility.yul\":13179:13194   */\n              mstore\n                /* \"#utility.yul\":13213:13217   */\n              0x24\n                /* \"#utility.yul\":13210:13211   */\n              0x00\n                /* \"#utility.yul\":13203:13218   */\n              revert\n                /* \"#utility.yul\":13230:13550   */\n            tag_73:\n                /* \"#utility.yul\":13274:13280   */\n              0x00\n                /* \"#utility.yul\":13311:13312   */\n              0x02\n                /* \"#utility.yul\":13305:13309   */\n              dup3\n                /* \"#utility.yul\":13301:13313   */\n              div\n                /* \"#utility.yul\":13291:13313   */\n              swap1\n              pop\n                /* \"#utility.yul\":13358:13359   */\n              0x01\n                /* \"#utility.yul\":13352:13356   */\n              dup3\n                /* \"#utility.yul\":13348:13360   */\n              and\n                /* \"#utility.yul\":13379:13397   */\n              dup1\n                /* \"#utility.yul\":13369:13450   */\n              tag_332\n              jumpi\n                /* \"#utility.yul\":13435:13439   */\n              0x7f\n                /* \"#utility.yul\":13427:13433   */\n              dup3\n                /* \"#utility.yul\":13423:13440   */\n              and\n                /* \"#utility.yul\":13413:13440   */\n              swap2\n              pop\n                /* \"#utility.yul\":13369:13450   */\n            tag_332:\n                /* \"#utility.yul\":13497:13499   */\n              0x20\n                /* \"#utility.yul\":13489:13495   */\n              dup3\n                /* \"#utility.yul\":13486:13500   */\n              lt\n                /* \"#utility.yul\":13466:13484   */\n              dup2\n                /* \"#utility.yul\":13463:13501   */\n              eq\n                /* \"#utility.yul\":13460:13544   */\n              iszero\n              tag_333\n              jumpi\n                /* \"#utility.yul\":13516:13534   */\n              tag_334\n              tag_191\n              jump\t// in\n            tag_334:\n                /* \"#utility.yul\":13460:13544   */\n            tag_333:\n                /* \"#utility.yul\":13281:13550   */\n              pop\n                /* \"#utility.yul\":13230:13550   */\n              swap2\n              swap1\n              pop\n              jump\t// out\n                /* \"#utility.yul\":13556:13736   */\n            tag_192:\n                /* \"#utility.yul\":13604:13681   */\n              0x4e487b7100000000000000000000000000000000000000000000000000000000\n                /* \"#utility.yul\":13601:13602   */\n              0x00\n                /* \"#utility.yul\":13594:13682   */\n              mstore\n                /* \"#utility.yul\":13701:13705   */\n              0x11\n                /* \"#utility.yul\":13698:13699   */\n              0x04\n                /* \"#utility.yul\":13691:13706   */\n              mstore\n                /* \"#utility.yul\":13725:13729   */\n              0x24\n                /* \"#utility.yul\":13722:13723   */\n              0x00\n                /* \"#utility.yul\":13715:13730   */\n              revert\n                /* \"#utility.yul\":13742:14047   */\n            tag_114:\n                /* \"#utility.yul\":13782:13785   */\n              0x00\n                /* \"#utility.yul\":13801:13821   */\n              tag_337\n                /* \"#utility.yul\":13819:13820   */\n              dup3\n                /* \"#utility.yul\":13801:13821   */\n              tag_165\n              jump\t// in\n            tag_337:\n                /* \"#utility.yul\":13796:13821   */\n              swap2\n              pop\n                /* \"#utility.yul\":13835:13855   */\n              tag_338\n                /* \"#utility.yul\":13853:13854   */\n              dup4\n                /* \"#utility.yul\":13835:13855   */\n              tag_165\n              jump\t// in\n            tag_338:\n                /* \"#utility.yul\":13830:13855   */\n              swap3\n              pop\n                /* \"#utility.yul\":13989:13990   */\n              dup3\n                /* \"#utility.yul\":13921:13987   */\n              0xffffffffffffffffffffffffffffffffffffffffffffffffffffffffffffffff\n                /* \"#utility.yul\":13917:13991   */\n              sub\n                /* \"#utility.yul\":13914:13915   */\n              dup3\n                /* \"#utility.yul\":13911:13992   */\n              gt\n                /* \"#utility.yul\":13908:14015   */\n              iszero\n              tag_339\n              jumpi\n                /* \"#utility.yul\":13995:14013   */\n              tag_340\n              tag_192\n              jump\t// in\n            tag_340:\n                /* \"#utility.yul\":13908:14015   */\n            tag_339:\n                /* \"#utility.yul\":14039:14040   */\n              dup3\n                /* \"#utility.yul\":14036:14037   */\n              dup3\n                /* \"#utility.yul\":14032:14041   */\n              add\n                /* \"#utility.yul\":14025:14041   */\n              swap1\n              pop\n                /* \"#utility.yul\":13742:14047   */\n              swap3\n              swap2\n              pop\n              pop\n              jump\t// out\n\n            auxdata: 0xa2646970667358221220baaa9786085987efa6ba3e33bdb371fa782ec4f63d2e5c7504932ba0f9a9542b64736f6c63430008090033\n        }\n    }\n\n    auxdata: 0xa264697066735822122075168db4ee480f74d4001d64f12b1e827d3f2cf5073768208631315f3de42f5d64736f6c63430008090033\n}\n","bytecode":{"linkReferences":{},"object":"608060405234801561001057600080fd5b50615125806100206000396000f3fe60806040523480156200001157600080fd5b5060043610620000c45760003560e01c806342c046db116200007b57806342c046db14620001f757806352d703c9146200022d578063653289b91462000239578063ca5e52e7146200026f578063e7ce49a714620002a5578063f97f477214620002c757620000c4565b8063155eec7d14620000c957806315fe62e614620000ff57806316d07e5c14620001355780632f04e064146200015557806335f2b3ea146200018b5780633fd2f1a214620001c1575b600080fd5b620000e76004803603810190620000e1919062000900565b620002e7565b604051620000f6919062000943565b60405180910390f35b6200011d60048036038101906200011791906200099b565b6200031a565b6040516200012c919062000943565b60405180910390f35b6200015360048036038101906200014d919062000b2f565b620003b6565b005b6200017360048036038101906200016d919062000900565b62000484565b60405162000182919062000943565b60405180910390f35b620001a96004803603810190620001a3919062000900565b620004ed565b604051620001b8919062000943565b60405180910390f35b620001df6004803603810190620001d991906200099b565b62000555565b604051620001ee919062000943565b60405180910390f35b6200021560048036038101906200020f919062000900565b62000588565b60405162000224919062000943565b60405180910390f35b62000237620005f1565b005b62000257600480360381019062000251919062000900565b620006af565b60405162000266919062000943565b60405180910390f35b6200028d600480360381019062000287919062000900565b620006e2565b6040516200029c919062000943565b60405180910390f35b620002af62000715565b604051620002be919062000c44565b60405180910390f35b620002e56004803603810190620002df919062000c61565b6200071b565b005b60016020528060005260406000206000915054906101000a900473ffffffffffffffffffffffffffffffffffffffff1681565b6000600260006003600085815260200190815260200160002060009054906101000a900473ffffffffffffffffffffffffffffffffffffffff1673ffffffffffffffffffffffffffffffffffffffff1673ffffffffffffffffffffffffffffffffffffffff16815260200190815260200160002060009054906101000a900473ffffffffffffffffffffffffffffffffffffffff169050919050565b600085858585853330604051620003cd906200085d565b620003df979695949392919062000e2b565b604051809103906000f080158015620003fc573d6000803e3d6000fd5b509050806000803373ffffffffffffffffffffffffffffffffffffffff1673ffffffffffffffffffffffffffffffffffffffff16815260200190815260200160002060006101000a81548173ffffffffffffffffffffffffffffffffffffffff021916908373ffffffffffffffffffffffffffffffffffffffff160217905550505050505050565b6000600160008373ffffffffffffffffffffffffffffffffffffffff1673ffffffffffffffffffffffffffffffffffffffff16815260200190815260200160002060009054906101000a900473ffffffffffffffffffffffffffffffffffffffff169050919050565b60008060008373ffffffffffffffffffffffffffffffffffffffff1673ffffffffffffffffffffffffffffffffffffffff16815260200190815260200160002060009054906101000a900473ffffffffffffffffffffffffffffffffffffffff169050919050565b60036020528060005260406000206000915054906101000a900473ffffffffffffffffffffffffffffffffffffffff1681565b6000600260008373ffffffffffffffffffffffffffffffffffffffff1673ffffffffffffffffffffffffffffffffffffffff16815260200190815260200160002060009054906101000a900473ffffffffffffffffffffffffffffffffffffffff169050919050565b60003360405162000602906200086b565b6200060e919062000943565b604051809103906000f0801580156200062b573d6000803e3d6000fd5b50905080600160003373ffffffffffffffffffffffffffffffffffffffff1673ffffffffffffffffffffffffffffffffffffffff16815260200190815260200160002060006101000a81548173ffffffffffffffffffffffffffffffffffffffff021916908373ffffffffffffffffffffffffffffffffffffffff16021790555050565b60006020528060005260406000206000915054906101000a900473ffffffffffffffffffffffffffffffffffffffff1681565b60026020528060005260406000206000915054906101000a900473ffffffffffffffffffffffffffffffffffffffff1681565b60045481565b60003033888888888888604051620007339062000879565b6200074698979695949392919062000ec4565b604051809103906000f08015801562000763573d6000803e3d6000fd5b50905080600260003373ffffffffffffffffffffffffffffffffffffffff1673ffffffffffffffffffffffffffffffffffffffff16815260200190815260200160002060006101000a81548173ffffffffffffffffffffffffffffffffffffffff021916908373ffffffffffffffffffffffffffffffffffffffff1602179055503360036000600454815260200190815260200160002060006101000a81548173ffffffffffffffffffffffffffffffffffffffff021916908373ffffffffffffffffffffffffffffffffffffffff1602179055506001600460008282546200084d919062000fa4565b9250508190555050505050505050565b611f3b806200100283390190565b6106028062002f3d83390190565b611bb1806200353f83390190565b6000604051905090565b600080fd5b600080fd5b600073ffffffffffffffffffffffffffffffffffffffff82169050919050565b6000620008c8826200089b565b9050919050565b620008da81620008bb565b8114620008e657600080fd5b50565b600081359050620008fa81620008cf565b92915050565b60006020828403121562000919576200091862000891565b5b60006200092984828501620008e9565b91505092915050565b6200093d81620008bb565b82525050565b60006020820190506200095a600083018462000932565b92915050565b6000819050919050565b620009758162000960565b81146200098157600080fd5b50565b60008135905062000995816200096a565b92915050565b600060208284031215620009b457620009b362000891565b5b6000620009c48482850162000984565b91505092915050565b600080fd5b600080fd5b6000601f19601f8301169050919050565b7f4e487b7100000000000000000000000000000000000000000000000000000000600052604160045260246000fd5b62000a2282620009d7565b810181811067ffffffffffffffff8211171562000a445762000a43620009e8565b5b80604052505050565b600062000a5962000887565b905062000a67828262000a17565b919050565b600067ffffffffffffffff82111562000a8a5762000a89620009e8565b5b62000a9582620009d7565b9050602081019050919050565b82818337600083830152505050565b600062000ac862000ac28462000a6c565b62000a4d565b90508281526020810184848401111562000ae75762000ae6620009d2565b5b62000af484828562000aa2565b509392505050565b600082601f83011262000b145762000b13620009cd565b5b813562000b2684826020860162000ab1565b91505092915050565b600080600080600060a0868803121562000b4e5762000b4d62000891565b5b600086013567ffffffffffffffff81111562000b6f5762000b6e62000896565b5b62000b7d8882890162000afc565b955050602062000b908882890162000984565b945050604086013567ffffffffffffffff81111562000bb45762000bb362000896565b5b62000bc28882890162000afc565b935050606086013567ffffffffffffffff81111562000be65762000be562000896565b5b62000bf48882890162000afc565b925050608086013567ffffffffffffffff81111562000c185762000c1762000896565b5b62000c268882890162000afc565b9150509295509295909350565b62000c3e8162000960565b82525050565b600060208201905062000c5b600083018462000c33565b92915050565b60008060008060008060c0878903121562000c815762000c8062000891565b5b600087013567ffffffffffffffff81111562000ca25762000ca162000896565b5b62000cb089828a0162000afc565b965050602062000cc389828a0162000984565b955050604087013567ffffffffffffffff81111562000ce75762000ce662000896565b5b62000cf589828a0162000afc565b945050606087013567ffffffffffffffff81111562000d195762000d1862000896565b5b62000d2789828a0162000afc565b935050608087013567ffffffffffffffff81111562000d4b5762000d4a62000896565b5b62000d5989828a0162000afc565b92505060a087013567ffffffffffffffff81111562000d7d5762000d7c62000896565b5b62000d8b89828a0162000afc565b9150509295509295509295565b600081519050919050565b600082825260208201905092915050565b60005b8381101562000dd457808201518184015260208101905062000db7565b8381111562000de4576000848401525b50505050565b600062000df78262000d98565b62000e03818562000da3565b935062000e1581856020860162000db4565b62000e2081620009d7565b840191505092915050565b600060e082019050818103600083015262000e47818a62000dea565b905062000e58602083018962000c33565b818103604083015262000e6c818862000dea565b9050818103606083015262000e82818762000dea565b9050818103608083015262000e98818662000dea565b905062000ea960a083018562000932565b62000eb860c083018462000932565b98975050505050505050565b60006101008201905062000edc600083018b62000932565b62000eeb602083018a62000932565b818103604083015262000eff818962000dea565b905062000f10606083018862000c33565b818103608083015262000f24818762000dea565b905081810360a083015262000f3a818662000dea565b905081810360c083015262000f50818562000dea565b905081810360e083015262000f66818462000dea565b90509998505050505050505050565b7f4e487b7100000000000000000000000000000000000000000000000000000000600052601160045260246000fd5b600062000fb18262000960565b915062000fbe8362000960565b9250827fffffffffffffffffffffffffffffffffffffffffffffffffffffffffffffffff0382111562000ff65762000ff562000f75565b5b82820190509291505056fe60806040523480156200001157600080fd5b5060405162001f3b38038062001f3b8339818101604052810190620000379190620004e4565b81600160006101000a81548173ffffffffffffffffffffffffffffffffffffffff021916908373ffffffffffffffffffffffffffffffffffffffff16021790555060006040518060a001604052808981526020018881526020018781526020018681526020018581525090508060026000820151816000019080519060200190620000c4929190620001f7565b50602082015181600101556040820151816002019080519060200190620000ed929190620001f7565b5060608201518160030190805190602001906200010c929190620001f7565b5060808201518160040190805190602001906200012b929190620001f7565b50905050816000806101000a81548173ffffffffffffffffffffffffffffffffffffffff021916908373ffffffffffffffffffffffffffffffffffffffff160217905550600160076000600160009054906101000a900473ffffffffffffffffffffffffffffffffffffffff1673ffffffffffffffffffffffffffffffffffffffff1673ffffffffffffffffffffffffffffffffffffffff16815260200190815260200160002060006101000a81548160ff021916908315150217905550505050505050505062000678565b828054620002059062000642565b90600052602060002090601f01602090048101928262000229576000855562000275565b82601f106200024457805160ff191683800117855562000275565b8280016001018555821562000275579182015b828111156200027457825182559160200191906001019062000257565b5b50905062000284919062000288565b5090565b5b80821115620002a357600081600090555060010162000289565b5090565b6000604051905090565b600080fd5b600080fd5b600080fd5b600080fd5b6000601f19601f8301169050919050565b7f4e487b7100000000000000000000000000000000000000000000000000000000600052604160045260246000fd5b6200031082620002c5565b810181811067ffffffffffffffff82111715620003325762000331620002d6565b5b80604052505050565b600062000347620002a7565b905062000355828262000305565b919050565b600067ffffffffffffffff821115620003785762000377620002d6565b5b6200038382620002c5565b9050602081019050919050565b60005b83811015620003b057808201518184015260208101905062000393565b83811115620003c0576000848401525b50505050565b6000620003dd620003d7846200035a565b6200033b565b905082815260208101848484011115620003fc57620003fb620002c0565b5b6200040984828562000390565b509392505050565b600082601f830112620004295762000428620002bb565b5b81516200043b848260208601620003c6565b91505092915050565b6000819050919050565b620004598162000444565b81146200046557600080fd5b50565b60008151905062000479816200044e565b92915050565b600073ffffffffffffffffffffffffffffffffffffffff82169050919050565b6000620004ac826200047f565b9050919050565b620004be816200049f565b8114620004ca57600080fd5b50565b600081519050620004de81620004b3565b92915050565b600080600080600080600060e0888a031215620005065762000505620002b1565b5b600088015167ffffffffffffffff811115620005275762000526620002b6565b5b620005358a828b0162000411565b9750506020620005488a828b0162000468565b965050604088015167ffffffffffffffff8111156200056c576200056b620002b6565b5b6200057a8a828b0162000411565b955050606088015167ffffffffffffffff8111156200059e576200059d620002b6565b5b620005ac8a828b0162000411565b945050608088015167ffffffffffffffff811115620005d057620005cf620002b6565b5b620005de8a828b0162000411565b93505060a0620005f18a828b01620004cd565b92505060c0620006048a828b01620004cd565b91505092959891949750929550565b7f4e487b7100000000000000000000000000000000000000000000000000000000600052602260045260246000fd5b600060028204905060018216806200065b57607f821691505b6020821081141562000672576200067162000613565b5b50919050565b6118b380620006886000396000f3fe608060405234801561001057600080fd5b50600436106100f55760003560e01c8063ac40c9a811610097578063f2cc975311610066578063f2cc97531461028d578063f2f4adae146102a9578063f85b1b30146102cb578063fe13b631146102fb576100f5565b8063ac40c9a814610217578063c83dd23114610235578063d8d204f814610253578063e7ce49a71461026f576100f5565b80632e0b5677116100d35780632e0b56771461016857806386969279146101985780639db4d4a0146101c9578063ac12a3c0146101f9576100f5565b80630be41bd8146100fa5780631dc1fdb6146101165780631f54e45c14610138575b600080fd5b610114600480360381019061010f91906110dd565b61032b565b005b61011e610386565b60405161012f9594939291906111bc565b60405180910390f35b610152600480360381019061014d9190611257565b6105ca565b60405161015f9190611284565b60405180910390f35b610182600480360381019061017d91906110dd565b610672565b60405161018f91906112c1565b60405180910390f35b6101b260048036038101906101ad9190611257565b610692565b6040516101c09291906112dc565b60405180910390f35b6101e360048036038101906101de9190611257565b61073e565b6040516101f091906112c1565b60405180910390f35b61020161075e565b60405161020e919061130c565b60405180910390f35b61021f610764565b60405161022c9190611336565b60405180910390f35b61023d61078a565b60405161024a9190611336565b60405180910390f35b61026d60048036038101906102689190611486565b6107ae565b005b610277610865565b604051610284919061130c565b60405180910390f35b6102a760048036038101906102a29190611571565b61086b565b005b6102b1610d12565b6040516102c29594939291906111bc565b60405180910390f35b6102e560048036038101906102e091906110dd565b610f75565b6040516102f291906112c1565b60405180910390f35b61031560048036038101906103109190611257565b610f95565b6040516103229190611336565b60405180910390f35b6001600760008373ffffffffffffffffffffffffffffffffffffffff1673ffffffffffffffffffffffffffffffffffffffff16815260200190815260200160002060006101000a81548160ff02191690831515021790555050565b6002806000018054610397906115fc565b80601f01602080910402602001604051908101604052809291908181526020018280546103c3906115fc565b80156104105780601f106103e557610100808354040283529160200191610410565b820191906000526020600020905b8154815290600101906020018083116103f357829003601f168201915b50505050509080600101549080600201805461042b906115fc565b80601f0160208091040260200160405190810160405280929190818152602001828054610457906115fc565b80156104a45780601f10610479576101008083540402835291602001916104a4565b820191906000526020600020905b81548152906001019060200180831161048757829003601f168201915b5050505050908060030180546104b9906115fc565b80601f01602080910402602001604051908101604052809291908181526020018280546104e5906115fc565b80156105325780601f1061050757610100808354040283529160200191610532565b820191906000526020600020905b81548152906001019060200180831161051557829003601f168201915b505050505090806004018054610547906115fc565b80601f0160208091040260200160405190810160405280929190818152602001828054610573906115fc565b80156105c05780601f10610595576101008083540402835291602001916105c0565b820191906000526020600020905b8154815290600101906020018083116105a357829003601f168201915b5050505050905085565b60606009600083815260200190815260200160002060000180546105ed906115fc565b80601f0160208091040260200160405190810160405280929190818152602001828054610619906115fc565b80156106665780601f1061063b57610100808354040283529160200191610666565b820191906000526020600020905b81548152906001019060200180831161064957829003601f168201915b50505050509050919050565b60076020528060005260406000206000915054906101000a900460ff1681565b60096020528060005260406000206000915090508060000180546106b5906115fc565b80601f01602080910402602001604051908101604052809291908181526020018280546106e1906115fc565b801561072e5780601f106107035761010080835404028352916020019161072e565b820191906000526020600020905b81548152906001019060200180831161071157829003601f168201915b5050505050908060010154905082565b600a6020528060005260406000206000915054906101000a900460ff1681565b60085481565b600160009054906101000a900473ffffffffffffffffffffffffffffffffffffffff1681565b60008054906101000a900473ffffffffffffffffffffffffffffffffffffffff1681565b60006040518060a0016040528087815260200186815260200185815260200184815260200183815250905080600260008201518160000190805190602001906107f8929190610fc8565b5060208201518160010155604082015181600201908051906020019061081f929190610fc8565b50606082015181600301908051906020019061083c929190610fc8565b506080820151816004019080519060200190610859929190610fc8565b50905050505050505050565b600c5481565b600060405180604001604052808481526020014281525090508060096000600854815260200190815260200160002060008201518160000190805190602001906108b6929190610fc8565b506020820151816001015590505060008060008054906101000a900473ffffffffffffffffffffffffffffffffffffffff1673ffffffffffffffffffffffffffffffffffffffff168460405160240161090f919061130c565b6040516020818303038152906040527f15fe62e6000000000000000000000000000000000000000000000000000000007bffffffffffffffffffffffffffffffffffffffffffffffffffffffff19166020820180517bffffffffffffffffffffffffffffffffffffffffffffffffffffffff83818316178352505050506040516109999190611675565b6000604051808303816000865af19150503d80600081146109d6576040519150601f19603f3d011682016040523d82523d6000602084013e6109db565b606091505b509150915081610a20576040517f08c379a0000000000000000000000000000000000000000000000000000000008152600401610a17906116d8565b60405180910390fd5b600081806020019051810190610a369190611736565b905060001515600d60008373ffffffffffffffffffffffffffffffffffffffff1673ffffffffffffffffffffffffffffffffffffffff16815260200190815260200160002060009054906101000a900460ff1615151415610b585780600b6000600c54815260200190815260200160002060006101000a81548173ffffffffffffffffffffffffffffffffffffffff021916908373ffffffffffffffffffffffffffffffffffffffff1602179055506001600c6000828254610af89190611792565b925050819055506001600d60008373ffffffffffffffffffffffffffffffffffffffff1673ffffffffffffffffffffffffffffffffffffffff16815260200190815260200160002060006101000a81548160ff0219169083151502179055505b7f61a7191fa43dd24da3681728a7fc2c57614cf4aa128b0530c974742cbbf07e2381604051610b879190611336565b60405180910390a160008173ffffffffffffffffffffffffffffffffffffffff16600854600160009054906101000a900473ffffffffffffffffffffffffffffffffffffffff16604051602401610bdf9291906117e8565b6040516020818303038152906040527f376f4e49000000000000000000000000000000000000000000000000000000007bffffffffffffffffffffffffffffffffffffffffffffffffffffffff19166020820180517bffffffffffffffffffffffffffffffffffffffffffffffffffffffff8381831617835250505050604051610c699190611675565b6000604051808303816000865af19150503d8060008114610ca6576040519150601f19603f3d011682016040523d82523d6000602084013e610cab565b606091505b50509050600160086000828254610cc29190611792565b9250508190555080610d09576040517f08c379a0000000000000000000000000000000000000000000000000000000008152600401610d009061185d565b60405180910390fd5b50505050505050565b60606000606080606060026000016002600101546002800160026003016002600401848054610d40906115fc565b80601f0160208091040260200160405190810160405280929190818152602001828054610d6c906115fc565b8015610db95780601f10610d8e57610100808354040283529160200191610db9565b820191906000526020600020905b815481529060010190602001808311610d9c57829003601f168201915b50505050509450828054610dcc906115fc565b80601f0160208091040260200160405190810160405280929190818152602001828054610df8906115fc565b8015610e455780601f10610e1a57610100808354040283529160200191610e45565b820191906000526020600020905b815481529060010190602001808311610e2857829003601f168201915b50505050509250818054610e58906115fc565b80601f0160208091040260200160405190810160405280929190818152602001828054610e84906115fc565b8015610ed15780601f10610ea657610100808354040283529160200191610ed1565b820191906000526020600020905b815481529060010190602001808311610eb457829003601f168201915b50505050509150808054610ee4906115fc565b80601f0160208091040260200160405190810160405280929190818152602001828054610f10906115fc565b8015610f5d5780601f10610f3257610100808354040283529160200191610f5d565b820191906000526020600020905b815481529060010190602001808311610f4057829003601f168201915b50505050509050945094509450945094509091929394565b600d6020528060005260406000206000915054906101000a900460ff1681565b600b6020528060005260406000206000915054906101000a900473ffffffffffffffffffffffffffffffffffffffff1681565b828054610fd4906115fc565b90600052602060002090601f016020900481019282610ff6576000855561103d565b82601f1061100f57805160ff191683800117855561103d565b8280016001018555821561103d579182015b8281111561103c578251825591602001919060010190611021565b5b50905061104a919061104e565b5090565b5b8082111561106757600081600090555060010161104f565b5090565b6000604051905090565b600080fd5b600080fd5b600073ffffffffffffffffffffffffffffffffffffffff82169050919050565b60006110aa8261107f565b9050919050565b6110ba8161109f565b81146110c557600080fd5b50565b6000813590506110d7816110b1565b92915050565b6000602082840312156110f3576110f2611075565b5b6000611101848285016110c8565b91505092915050565b600081519050919050565b600082825260208201905092915050565b60005b83811015611144578082015181840152602081019050611129565b83811115611153576000848401525b50505050565b6000601f19601f8301169050919050565b60006111758261110a565b61117f8185611115565b935061118f818560208601611126565b61119881611159565b840191505092915050565b6000819050919050565b6111b6816111a3565b82525050565b600060a08201905081810360008301526111d6818861116a565b90506111e560208301876111ad565b81810360408301526111f7818661116a565b9050818103606083015261120b818561116a565b9050818103608083015261121f818461116a565b90509695505050505050565b611234816111a3565b811461123f57600080fd5b50565b6000813590506112518161122b565b92915050565b60006020828403121561126d5761126c611075565b5b600061127b84828501611242565b91505092915050565b6000602082019050818103600083015261129e818461116a565b905092915050565b60008115159050919050565b6112bb816112a6565b82525050565b60006020820190506112d660008301846112b2565b92915050565b600060408201905081810360008301526112f6818561116a565b905061130560208301846111ad565b9392505050565b600060208201905061132160008301846111ad565b92915050565b6113308161109f565b82525050565b600060208201905061134b6000830184611327565b92915050565b600080fd5b600080fd5b7f4e487b7100000000000000000000000000000000000000000000000000000000600052604160045260246000fd5b61139382611159565b810181811067ffffffffffffffff821117156113b2576113b161135b565b5b80604052505050565b60006113c561106b565b90506113d1828261138a565b919050565b600067ffffffffffffffff8211156113f1576113f061135b565b5b6113fa82611159565b9050602081019050919050565b82818337600083830152505050565b6000611429611424846113d6565b6113bb565b90508281526020810184848401111561144557611444611356565b5b611450848285611407565b509392505050565b600082601f83011261146d5761146c611351565b5b813561147d848260208601611416565b91505092915050565b600080600080600060a086880312156114a2576114a1611075565b5b600086013567ffffffffffffffff8111156114c0576114bf61107a565b5b6114cc88828901611458565b95505060206114dd88828901611242565b945050604086013567ffffffffffffffff8111156114fe576114fd61107a565b5b61150a88828901611458565b935050606086013567ffffffffffffffff81111561152b5761152a61107a565b5b61153788828901611458565b925050608086013567ffffffffffffffff8111156115585761155761107a565b5b61156488828901611458565b9150509295509295909350565b6000806040838503121561158857611587611075565b5b600083013567ffffffffffffffff8111156115a6576115a561107a565b5b6115b285828601611458565b92505060206115c385828601611242565b9150509250929050565b7f4e487b7100000000000000000000000000000000000000000000000000000000600052602260045260246000fd5b6000600282049050600182168061161457607f821691505b60208210811415611628576116276115cd565b5b50919050565b600081519050919050565b600081905092915050565b600061164f8261162e565b6116598185611639565b9350611669818560208601611126565b80840191505092915050565b60006116818284611644565b915081905092915050565b7f736f6d65206572726f7231000000000000000000000000000000000000000000600082015250565b60006116c2600b83611115565b91506116cd8261168c565b602082019050919050565b600060208201905081810360008301526116f1816116b5565b9050919050565b60006117038261107f565b9050919050565b611713816116f8565b811461171e57600080fd5b50565b6000815190506117308161170a565b92915050565b60006020828403121561174c5761174b611075565b5b600061175a84828501611721565b91505092915050565b7f4e487b7100000000000000000000000000000000000000000000000000000000600052601160045260246000fd5b600061179d826111a3565b91506117a8836111a3565b9250827fffffffffffffffffffffffffffffffffffffffffffffffffffffffffffffffff038211156117dd576117dc611763565b5b828201905092915050565b60006040820190506117fd60008301856111ad565b61180a6020830184611327565b9392505050565b7f736f6d65206572726f7232000000000000000000000000000000000000000000600082015250565b6000611847600b83611115565b915061185282611811565b602082019050919050565b600060208201905081810360008301526118768161183a565b905091905056fea2646970667358221220fe242464b4588dde329d2a43de28855d812e0871ecad038ea0ab023e77d0554264736f6c63430008090033608060405234801561001057600080fd5b50604051610602380380610602833981810160405281019061003291906100db565b806000806101000a81548173ffffffffffffffffffffffffffffffffffffffff021916908373ffffffffffffffffffffffffffffffffffffffff16021790555050610108565b600080fd5b600073ffffffffffffffffffffffffffffffffffffffff82169050919050565b60006100a88261007d565b9050919050565b6100b88161009d565b81146100c357600080fd5b50565b6000815190506100d5816100af565b92915050565b6000602082840312156100f1576100f0610078565b5b60006100ff848285016100c6565b91505092915050565b6104eb806101176000396000f3fe608060405234801561001057600080fd5b50600436106100575760003560e01c806320bafa661461005c578063a0303c4114610078578063ad0ad05014610096578063b7d4477c146100b4578063da2e626f146100e4575b600080fd5b61007660048036038101906100719190610316565b610114565b005b610080610236565b60405161008d919061035c565b60405180910390f35b61009e61023c565b6040516100ab9190610386565b60405180910390f35b6100ce60048036038101906100c991906103cd565b610260565b6040516100db9190610386565b60405180910390f35b6100fe60048036038101906100f99190610316565b610293565b60405161010b9190610415565b60405180910390f35b60001515600160008373ffffffffffffffffffffffffffffffffffffffff1673ffffffffffffffffffffffffffffffffffffffff16815260200190815260200160002060009054906101000a900460ff16151514156102335760018060008373ffffffffffffffffffffffffffffffffffffffff1673ffffffffffffffffffffffffffffffffffffffff16815260200190815260200160002060006101000a81548160ff0219169083151502179055508060036000600254815260200190815260200160002060006101000a81548173ffffffffffffffffffffffffffffffffffffffff021916908373ffffffffffffffffffffffffffffffffffffffff16021790555060016002600082825461022b919061045f565b925050819055505b50565b60025481565b60008054906101000a900473ffffffffffffffffffffffffffffffffffffffff1681565b60036020528060005260406000206000915054906101000a900473ffffffffffffffffffffffffffffffffffffffff1681565b60016020528060005260406000206000915054906101000a900460ff1681565b600080fd5b600073ffffffffffffffffffffffffffffffffffffffff82169050919050565b60006102e3826102b8565b9050919050565b6102f3816102d8565b81146102fe57600080fd5b50565b600081359050610310816102ea565b92915050565b60006020828403121561032c5761032b6102b3565b5b600061033a84828501610301565b91505092915050565b6000819050919050565b61035681610343565b82525050565b6000602082019050610371600083018461034d565b92915050565b610380816102d8565b82525050565b600060208201905061039b6000830184610377565b92915050565b6103aa81610343565b81146103b557600080fd5b50565b6000813590506103c7816103a1565b92915050565b6000602082840312156103e3576103e26102b3565b5b60006103f1848285016103b8565b91505092915050565b60008115159050919050565b61040f816103fa565b82525050565b600060208201905061042a6000830184610406565b92915050565b7f4e487b7100000000000000000000000000000000000000000000000000000000600052601160045260246000fd5b600061046a82610343565b915061047583610343565b9250827fffffffffffffffffffffffffffffffffffffffffffffffffffffffffffffffff038211156104aa576104a9610430565b5b82820190509291505056fea264697066735822122079770a4ec98274939cc0ae96c98a7a4311cc64109e68f05cca76acc3904a3d3864736f6c6343000809003360806040523480156200001157600080fd5b5060405162001bb138038062001bb1833981810160405281019062000037919062000490565b866000806101000a81548173ffffffffffffffffffffffffffffffffffffffff021916908373ffffffffffffffffffffffffffffffffffffffff16021790555060006040518060c001604052808881526020018781526020018681526020018581526020018481526020018381525090508060036000820151816000019080519060200190620000c9929190620001a3565b50602082015181600101556040820151816002019080519060200190620000f2929190620001a3565b50606082015181600301908051906020019062000111929190620001a3565b50608082015181600401908051906020019062000130929190620001a3565b5060a08201518160050190805190602001906200014f929190620001a3565b5090505088600160006101000a81548173ffffffffffffffffffffffffffffffffffffffff021916908373ffffffffffffffffffffffffffffffffffffffff16021790555050505050505050505062000659565b828054620001b19062000623565b90600052602060002090601f016020900481019282620001d5576000855562000221565b82601f10620001f057805160ff191683800117855562000221565b8280016001018555821562000221579182015b828111156200022057825182559160200191906001019062000203565b5b50905062000230919062000234565b5090565b5b808211156200024f57600081600090555060010162000235565b5090565b6000604051905090565b600080fd5b600080fd5b600073ffffffffffffffffffffffffffffffffffffffff82169050919050565b6000620002948262000267565b9050919050565b620002a68162000287565b8114620002b257600080fd5b50565b600081519050620002c6816200029b565b92915050565b600080fd5b600080fd5b6000601f19601f8301169050919050565b7f4e487b7100000000000000000000000000000000000000000000000000000000600052604160045260246000fd5b6200032182620002d6565b810181811067ffffffffffffffff82111715620003435762000342620002e7565b5b80604052505050565b60006200035862000253565b905062000366828262000316565b919050565b600067ffffffffffffffff821115620003895762000388620002e7565b5b6200039482620002d6565b9050602081019050919050565b60005b83811015620003c1578082015181840152602081019050620003a4565b83811115620003d1576000848401525b50505050565b6000620003ee620003e8846200036b565b6200034c565b9050828152602081018484840111156200040d576200040c620002d1565b5b6200041a848285620003a1565b509392505050565b600082601f8301126200043a5762000439620002cc565b5b81516200044c848260208601620003d7565b91505092915050565b6000819050919050565b6200046a8162000455565b81146200047657600080fd5b50565b6000815190506200048a816200045f565b92915050565b600080600080600080600080610100898b031215620004b457620004b36200025d565b5b6000620004c48b828c01620002b5565b9850506020620004d78b828c01620002b5565b975050604089015167ffffffffffffffff811115620004fb57620004fa62000262565b5b620005098b828c0162000422565b96505060606200051c8b828c0162000479565b955050608089015167ffffffffffffffff81111562000540576200053f62000262565b5b6200054e8b828c0162000422565b94505060a089015167ffffffffffffffff81111562000572576200057162000262565b5b620005808b828c0162000422565b93505060c089015167ffffffffffffffff811115620005a457620005a362000262565b5b620005b28b828c0162000422565b92505060e089015167ffffffffffffffff811115620005d657620005d562000262565b5b620005e48b828c0162000422565b9150509295985092959890939650565b7f4e487b7100000000000000000000000000000000000000000000000000000000600052602260045260246000fd5b600060028204905060018216806200063c57607f821691505b60208210811415620006535762000652620005f4565b5b50919050565b61154880620006696000396000f3fe608060405234801561001057600080fd5b50600436106100cf5760003560e01c8063851a94c91161008c578063b7d4477c11610066578063b7d4477c146101f8578063c83dd23114610228578063e65a069114610246578063fb98660614610276576100cf565b8063851a94c914610199578063a0303c41146101b7578063aee554ff146101d5576100cf565b80630c4174b7146100d4578063185c6f841461010457806321ffccf1146101225780632be8454a14610145578063376f4e49146101615780634e1cc3511461017d575b600080fd5b6100ee60048036038101906100e99190610e22565b6102a6565b6040516100fb9190610efb565b60405180910390f35b61010c610353565b6040516101199190610f2c565b60405180910390f35b61012a610359565b60405161013c96959493929190610f47565b60405180910390f35b61015f600480360381019061015a9190611100565b610651565b005b61017b60048036038101906101769190611219565b61072c565b005b61019760048036038101906101929190611259565b610850565b005b6101a16108ba565b6040516101ae91906112d7565b60405180910390f35b6101bf6108de565b6040516101cc9190610f2c565b60405180910390f35b6101dd6108e4565b6040516101ef96959493929190610f47565b60405180910390f35b610212600480360381019061020d91906112f2565b610bb6565b60405161021f91906112d7565b60405180910390f35b610230610be9565b60405161023d91906112d7565b60405180910390f35b610260600480360381019061025b919061131f565b610c0f565b60405161026d919061140a565b60405180910390f35b610290600480360381019061028b9190610e22565b610ca6565b60405161029d9190610f2c565b60405180910390f35b600c6020528160005260406000206020528060005260406000206000915091505080546102d29061145b565b80601f01602080910402602001604051908101604052809291908181526020018280546102fe9061145b565b801561034b5780601f106103205761010080835404028352916020019161034b565b820191906000526020600020905b81548152906001019060200180831161032e57829003601f168201915b505050505081565b60025481565b6060600060608060608060036000016003600101546003600201600380016003600401600360050185805461038d9061145b565b80601f01602080910402602001604051908101604052809291908181526020018280546103b99061145b565b80156104065780601f106103db57610100808354040283529160200191610406565b820191906000526020600020905b8154815290600101906020018083116103e957829003601f168201915b505050505095508380546104199061145b565b80601f01602080910402602001604051908101604052809291908181526020018280546104459061145b565b80156104925780601f1061046757610100808354040283529160200191610492565b820191906000526020600020905b81548152906001019060200180831161047557829003601f168201915b505050505093508280546104a59061145b565b80601f01602080910402602001604051908101604052809291908181526020018280546104d19061145b565b801561051e5780601f106104f35761010080835404028352916020019161051e565b820191906000526020600020905b81548152906001019060200180831161050157829003601f168201915b505050505092508180546105319061145b565b80601f016020809104026020016040519081016040528092919081815260200182805461055d9061145b565b80156105aa5780601f1061057f576101008083540402835291602001916105aa565b820191906000526020600020905b81548152906001019060200180831161058d57829003601f168201915b505050505091508080546105bd9061145b565b80601f01602080910402602001604051908101604052809291908181526020018280546105e99061145b565b80156106365780601f1061060b57610100808354040283529160200191610636565b820191906000526020600020905b81548152906001019060200180831161061957829003601f168201915b50505050509050955095509550955095509550909192939495565b60006040518060c0016040528088815260200187815260200186815260200185815260200184815260200183815250905080600360008201518160000190805190602001906106a1929190610cd7565b506020820151816001015560408201518160020190805190602001906106c8929190610cd7565b5060608201518160030190805190602001906106e5929190610cd7565b506080820151816004019080519060200190610702929190610cd7565b5060a082015181600501908051906020019061071f929190610cd7565b5090505050505050505050565b6000600960008373ffffffffffffffffffffffffffffffffffffffff1673ffffffffffffffffffffffffffffffffffffffff1681526020019081526020016000208054905014156107e65780600a6000600b54815260200190815260200160002060006101000a81548173ffffffffffffffffffffffffffffffffffffffff021916908373ffffffffffffffffffffffffffffffffffffffff1602179055506001600b60008282546107de91906114bc565b925050819055505b600960008273ffffffffffffffffffffffffffffffffffffffff1673ffffffffffffffffffffffffffffffffffffffff1681526020019081526020016000208290806001815401808255809150506001900390600052602060002001600090919091909150555050565b82600c60008473ffffffffffffffffffffffffffffffffffffffff1673ffffffffffffffffffffffffffffffffffffffff168152602001908152602001600020600083815260200190815260200160002090805190602001906108b4929190610cd7565b50505050565b60008054906101000a900473ffffffffffffffffffffffffffffffffffffffff1681565b600b5481565b60038060000180546108f59061145b565b80601f01602080910402602001604051908101604052809291908181526020018280546109219061145b565b801561096e5780601f106109435761010080835404028352916020019161096e565b820191906000526020600020905b81548152906001019060200180831161095157829003601f168201915b5050505050908060010154908060020180546109899061145b565b80601f01602080910402602001604051908101604052809291908181526020018280546109b59061145b565b8015610a025780601f106109d757610100808354040283529160200191610a02565b820191906000526020600020905b8154815290600101906020018083116109e557829003601f168201915b505050505090806003018054610a179061145b565b80601f0160208091040260200160405190810160405280929190818152602001828054610a439061145b565b8015610a905780601f10610a6557610100808354040283529160200191610a90565b820191906000526020600020905b815481529060010190602001808311610a7357829003601f168201915b505050505090806004018054610aa59061145b565b80601f0160208091040260200160405190810160405280929190818152602001828054610ad19061145b565b8015610b1e5780601f10610af357610100808354040283529160200191610b1e565b820191906000526020600020905b815481529060010190602001808311610b0157829003601f168201915b505050505090806005018054610b339061145b565b80601f0160208091040260200160405190810160405280929190818152602001828054610b5f9061145b565b8015610bac5780601f10610b8157610100808354040283529160200191610bac565b820191906000526020600020905b815481529060010190602001808311610b8f57829003601f168201915b5050505050905086565b600a6020528060005260406000206000915054906101000a900473ffffffffffffffffffffffffffffffffffffffff1681565b600160009054906101000a900473ffffffffffffffffffffffffffffffffffffffff1681565b6060600960008373ffffffffffffffffffffffffffffffffffffffff1673ffffffffffffffffffffffffffffffffffffffff168152602001908152602001600020805480602002602001604051908101604052809291908181526020018280548015610c9a57602002820191906000526020600020905b815481526020019060010190808311610c86575b50505050509050919050565b60096020528160005260406000208181548110610cc257600080fd5b90600052602060002001600091509150505481565b828054610ce39061145b565b90600052602060002090601f016020900481019282610d055760008555610d4c565b82601f10610d1e57805160ff1916838001178555610d4c565b82800160010185558215610d4c579182015b82811115610d4b578251825591602001919060010190610d30565b5b509050610d599190610d5d565b5090565b5b80821115610d76576000816000905550600101610d5e565b5090565b6000604051905090565b600080fd5b600080fd5b600073ffffffffffffffffffffffffffffffffffffffff82169050919050565b6000610db982610d8e565b9050919050565b610dc981610dae565b8114610dd457600080fd5b50565b600081359050610de681610dc0565b92915050565b6000819050919050565b610dff81610dec565b8114610e0a57600080fd5b50565b600081359050610e1c81610df6565b92915050565b60008060408385031215610e3957610e38610d84565b5b6000610e4785828601610dd7565b9250506020610e5885828601610e0d565b9150509250929050565b600081519050919050565b600082825260208201905092915050565b60005b83811015610e9c578082015181840152602081019050610e81565b83811115610eab576000848401525b50505050565b6000601f19601f8301169050919050565b6000610ecd82610e62565b610ed78185610e6d565b9350610ee7818560208601610e7e565b610ef081610eb1565b840191505092915050565b60006020820190508181036000830152610f158184610ec2565b905092915050565b610f2681610dec565b82525050565b6000602082019050610f416000830184610f1d565b92915050565b600060c0820190508181036000830152610f618189610ec2565b9050610f706020830188610f1d565b8181036040830152610f828187610ec2565b90508181036060830152610f968186610ec2565b90508181036080830152610faa8185610ec2565b905081810360a0830152610fbe8184610ec2565b9050979650505050505050565b600080fd5b600080fd5b7f4e487b7100000000000000000000000000000000000000000000000000000000600052604160045260246000fd5b61100d82610eb1565b810181811067ffffffffffffffff8211171561102c5761102b610fd5565b5b80604052505050565b600061103f610d7a565b905061104b8282611004565b919050565b600067ffffffffffffffff82111561106b5761106a610fd5565b5b61107482610eb1565b9050602081019050919050565b82818337600083830152505050565b60006110a361109e84611050565b611035565b9050828152602081018484840111156110bf576110be610fd0565b5b6110ca848285611081565b509392505050565b600082601f8301126110e7576110e6610fcb565b5b81356110f7848260208601611090565b91505092915050565b60008060008060008060c0878903121561111d5761111c610d84565b5b600087013567ffffffffffffffff81111561113b5761113a610d89565b5b61114789828a016110d2565b965050602061115889828a01610e0d565b955050604087013567ffffffffffffffff81111561117957611178610d89565b5b61118589828a016110d2565b945050606087013567ffffffffffffffff8111156111a6576111a5610d89565b5b6111b289828a016110d2565b935050608087013567ffffffffffffffff8111156111d3576111d2610d89565b5b6111df89828a016110d2565b92505060a087013567ffffffffffffffff811115611200576111ff610d89565b5b61120c89828a016110d2565b9150509295509295509295565b600080604083850312156112305761122f610d84565b5b600061123e85828601610e0d565b925050602061124f85828601610dd7565b9150509250929050565b60008060006060848603121561127257611271610d84565b5b600084013567ffffffffffffffff8111156112905761128f610d89565b5b61129c868287016110d2565b93505060206112ad86828701610dd7565b92505060406112be86828701610e0d565b9150509250925092565b6112d181610dae565b82525050565b60006020820190506112ec60008301846112c8565b92915050565b60006020828403121561130857611307610d84565b5b600061131684828501610e0d565b91505092915050565b60006020828403121561133557611334610d84565b5b600061134384828501610dd7565b91505092915050565b600081519050919050565b600082825260208201905092915050565b6000819050602082019050919050565b61138181610dec565b82525050565b60006113938383611378565b60208301905092915050565b6000602082019050919050565b60006113b78261134c565b6113c18185611357565b93506113cc83611368565b8060005b838110156113fd5781516113e48882611387565b97506113ef8361139f565b9250506001810190506113d0565b5085935050505092915050565b6000602082019050818103600083015261142481846113ac565b905092915050565b7f4e487b7100000000000000000000000000000000000000000000000000000000600052602260045260246000fd5b6000600282049050600182168061147357607f821691505b602082108114156114875761148661142c565b5b50919050565b7f4e487b7100000000000000000000000000000000000000000000000000000000600052601160045260246000fd5b60006114c782610dec565b91506114d283610dec565b9250827fffffffffffffffffffffffffffffffffffffffffffffffffffffffffffffffff038211156115075761150661148d565b5b82820190509291505056fea2646970667358221220baaa9786085987efa6ba3e33bdb371fa782ec4f63d2e5c7504932ba0f9a9542b64736f6c63430008090033a264697066735822122075168db4ee480f74d4001d64f12b1e827d3f2cf5073768208631315f3de42f5d64736f6c63430008090033","opcodes":"PUSH1 0x80 PUSH1 0x40 MSTORE CALLVALUE DUP1 ISZERO PUSH2 0x10 JUMPI PUSH1 0x0 DUP1 REVERT JUMPDEST POP PUSH2 0x5125 DUP1 PUSH2 0x20 PUSH1 0x0 CODECOPY PUSH1 0x0 RETURN INVALID PUSH1 0x80 PUSH1 0x40 MSTORE CALLVALUE DUP1 ISZERO PUSH3 0x11 JUMPI PUSH1 0x0 DUP1 REVERT JUMPDEST POP PUSH1 0x4 CALLDATASIZE LT PUSH3 0xC4 JUMPI PUSH1 0x0 CALLDATALOAD PUSH1 0xE0 SHR DUP1 PUSH4 0x42C046DB GT PUSH3 0x7B JUMPI DUP1 PUSH4 0x42C046DB EQ PUSH3 0x1F7 JUMPI DUP1 PUSH4 0x52D703C9 EQ PUSH3 0x22D JUMPI DUP1 PUSH4 0x653289B9 EQ PUSH3 0x239 JUMPI DUP1 PUSH4 0xCA5E52E7 EQ PUSH3 0x26F JUMPI DUP1 PUSH4 0xE7CE49A7 EQ PUSH3 0x2A5 JUMPI DUP1 PUSH4 0xF97F4772 EQ PUSH3 0x2C7 JUMPI PUSH3 0xC4 JUMP JUMPDEST DUP1 PUSH4 0x155EEC7D EQ PUSH3 0xC9 JUMPI DUP1 PUSH4 0x15FE62E6 EQ PUSH3 0xFF JUMPI DUP1 PUSH4 0x16D07E5C EQ PUSH3 0x135 JUMPI DUP1 PUSH4 0x2F04E064 EQ PUSH3 0x155 JUMPI DUP1 PUSH4 0x35F2B3EA EQ PUSH3 0x18B JUMPI DUP1 PUSH4 0x3FD2F1A2 EQ PUSH3 0x1C1 JUMPI JUMPDEST PUSH1 0x0 DUP1 REVERT JUMPDEST PUSH3 0xE7 PUSH1 0x4 DUP1 CALLDATASIZE SUB DUP2 ADD SWAP1 PUSH3 0xE1 SWAP2 SWAP1 PUSH3 0x900 JUMP JUMPDEST PUSH3 0x2E7 JUMP JUMPDEST PUSH1 0x40 MLOAD PUSH3 0xF6 SWAP2 SWAP1 PUSH3 0x943 JUMP JUMPDEST PUSH1 0x40 MLOAD DUP1 SWAP2 SUB SWAP1 RETURN JUMPDEST PUSH3 0x11D PUSH1 0x4 DUP1 CALLDATASIZE SUB DUP2 ADD SWAP1 PUSH3 0x117 SWAP2 SWAP1 PUSH3 0x99B JUMP JUMPDEST PUSH3 0x31A JUMP JUMPDEST PUSH1 0x40 MLOAD PUSH3 0x12C SWAP2 SWAP1 PUSH3 0x943 JUMP JUMPDEST PUSH1 0x40 MLOAD DUP1 SWAP2 SUB SWAP1 RETURN JUMPDEST PUSH3 0x153 PUSH1 0x4 DUP1 CALLDATASIZE SUB DUP2 ADD SWAP1 PUSH3 0x14D SWAP2 SWAP1 PUSH3 0xB2F JUMP JUMPDEST PUSH3 0x3B6 JUMP JUMPDEST STOP JUMPDEST PUSH3 0x173 PUSH1 0x4 DUP1 CALLDATASIZE SUB DUP2 ADD SWAP1 PUSH3 0x16D SWAP2 SWAP1 PUSH3 0x900 JUMP JUMPDEST PUSH3 0x484 JUMP JUMPDEST PUSH1 0x40 MLOAD PUSH3 0x182 SWAP2 SWAP1 PUSH3 0x943 JUMP JUMPDEST PUSH1 0x40 MLOAD DUP1 SWAP2 SUB SWAP1 RETURN JUMPDEST PUSH3 0x1A9 PUSH1 0x4 DUP1 CALLDATASIZE SUB DUP2 ADD SWAP1 PUSH3 0x1A3 SWAP2 SWAP1 PUSH3 0x900 JUMP JUMPDEST PUSH3 0x4ED JUMP JUMPDEST PUSH1 0x40 MLOAD PUSH3 0x1B8 SWAP2 SWAP1 PUSH3 0x943 JUMP JUMPDEST PUSH1 0x40 MLOAD DUP1 SWAP2 SUB SWAP1 RETURN JUMPDEST PUSH3 0x1DF PUSH1 0x4 DUP1 CALLDATASIZE SUB DUP2 ADD SWAP1 PUSH3 0x1D9 SWAP2 SWAP1 PUSH3 0x99B JUMP JUMPDEST PUSH3 0x555 JUMP JUMPDEST PUSH1 0x40 MLOAD PUSH3 0x1EE SWAP2 SWAP1 PUSH3 0x943 JUMP JUMPDEST PUSH1 0x40 MLOAD DUP1 SWAP2 SUB SWAP1 RETURN JUMPDEST PUSH3 0x215 PUSH1 0x4 DUP1 CALLDATASIZE SUB DUP2 ADD SWAP1 PUSH3 0x20F SWAP2 SWAP1 PUSH3 0x900 JUMP JUMPDEST PUSH3 0x588 JUMP JUMPDEST PUSH1 0x40 MLOAD PUSH3 0x224 SWAP2 SWAP1 PUSH3 0x943 JUMP JUMPDEST PUSH1 0x40 MLOAD DUP1 SWAP2 SUB SWAP1 RETURN JUMPDEST PUSH3 0x237 PUSH3 0x5F1 JUMP JUMPDEST STOP JUMPDEST PUSH3 0x257 PUSH1 0x4 DUP1 CALLDATASIZE SUB DUP2 ADD SWAP1 PUSH3 0x251 SWAP2 SWAP1 PUSH3 0x900 JUMP JUMPDEST PUSH3 0x6AF JUMP JUMPDEST PUSH1 0x40 MLOAD PUSH3 0x266 SWAP2 SWAP1 PUSH3 0x943 JUMP JUMPDEST PUSH1 0x40 MLOAD DUP1 SWAP2 SUB SWAP1 RETURN JUMPDEST PUSH3 0x28D PUSH1 0x4 DUP1 CALLDATASIZE SUB DUP2 ADD SWAP1 PUSH3 0x287 SWAP2 SWAP1 PUSH3 0x900 JUMP JUMPDEST PUSH3 0x6E2 JUMP JUMPDEST PUSH1 0x40 MLOAD PUSH3 0x29C SWAP2 SWAP1 PUSH3 0x943 JUMP JUMPDEST PUSH1 0x40 MLOAD DUP1 SWAP2 SUB SWAP1 RETURN JUMPDEST PUSH3 0x2AF PUSH3 0x715 JUMP JUMPDEST PUSH1 0x40 MLOAD PUSH3 0x2BE SWAP2 SWAP1 PUSH3 0xC44 JUMP JUMPDEST PUSH1 0x40 MLOAD DUP1 SWAP2 SUB SWAP1 RETURN JUMPDEST PUSH3 0x2E5 PUSH1 0x4 DUP1 CALLDATASIZE SUB DUP2 ADD SWAP1 PUSH3 0x2DF SWAP2 SWAP1 PUSH3 0xC61 JUMP JUMPDEST PUSH3 0x71B JUMP JUMPDEST STOP JUMPDEST PUSH1 0x1 PUSH1 0x20 MSTORE DUP1 PUSH1 0x0 MSTORE PUSH1 0x40 PUSH1 0x0 KECCAK256 PUSH1 0x0 SWAP2 POP SLOAD SWAP1 PUSH2 0x100 EXP SWAP1 DIV PUSH20 0xFFFFFFFFFFFFFFFFFFFFFFFFFFFFFFFFFFFFFFFF AND DUP2 JUMP JUMPDEST PUSH1 0x0 PUSH1 0x2 PUSH1 0x0 PUSH1 0x3 PUSH1 0x0 DUP6 DUP2 MSTORE PUSH1 0x20 ADD SWAP1 DUP2 MSTORE PUSH1 0x20 ADD PUSH1 0x0 KECCAK256 PUSH1 0x0 SWAP1 SLOAD SWAP1 PUSH2 0x100 EXP SWAP1 DIV PUSH20 0xFFFFFFFFFFFFFFFFFFFFFFFFFFFFFFFFFFFFFFFF AND PUSH20 0xFFFFFFFFFFFFFFFFFFFFFFFFFFFFFFFFFFFFFFFF AND PUSH20 0xFFFFFFFFFFFFFFFFFFFFFFFFFFFFFFFFFFFFFFFF AND DUP2 MSTORE PUSH1 0x20 ADD SWAP1 DUP2 MSTORE PUSH1 0x20 ADD PUSH1 0x0 KECCAK256 PUSH1 0x0 SWAP1 SLOAD SWAP1 PUSH2 0x100 EXP SWAP1 DIV PUSH20 0xFFFFFFFFFFFFFFFFFFFFFFFFFFFFFFFFFFFFFFFF AND SWAP1 POP SWAP2 SWAP1 POP JUMP JUMPDEST PUSH1 0x0 DUP6 DUP6 DUP6 DUP6 DUP6 CALLER ADDRESS PUSH1 0x40 MLOAD PUSH3 0x3CD SWAP1 PUSH3 0x85D JUMP JUMPDEST PUSH3 0x3DF SWAP8 SWAP7 SWAP6 SWAP5 SWAP4 SWAP3 SWAP2 SWAP1 PUSH3 0xE2B JUMP JUMPDEST PUSH1 0x40 MLOAD DUP1 SWAP2 SUB SWAP1 PUSH1 0x0 CREATE DUP1 ISZERO DUP1 ISZERO PUSH3 0x3FC JUMPI RETURNDATASIZE PUSH1 0x0 DUP1 RETURNDATACOPY RETURNDATASIZE PUSH1 0x0 REVERT JUMPDEST POP SWAP1 POP DUP1 PUSH1 0x0 DUP1 CALLER PUSH20 0xFFFFFFFFFFFFFFFFFFFFFFFFFFFFFFFFFFFFFFFF AND PUSH20 0xFFFFFFFFFFFFFFFFFFFFFFFFFFFFFFFFFFFFFFFF AND DUP2 MSTORE PUSH1 0x20 ADD SWAP1 DUP2 MSTORE PUSH1 0x20 ADD PUSH1 0x0 KECCAK256 PUSH1 0x0 PUSH2 0x100 EXP DUP2 SLOAD DUP2 PUSH20 0xFFFFFFFFFFFFFFFFFFFFFFFFFFFFFFFFFFFFFFFF MUL NOT AND SWAP1 DUP4 PUSH20 0xFFFFFFFFFFFFFFFFFFFFFFFFFFFFFFFFFFFFFFFF AND MUL OR SWAP1 SSTORE POP POP POP POP POP POP POP JUMP JUMPDEST PUSH1 0x0 PUSH1 0x1 PUSH1 0x0 DUP4 PUSH20 0xFFFFFFFFFFFFFFFFFFFFFFFFFFFFFFFFFFFFFFFF AND PUSH20 0xFFFFFFFFFFFFFFFFFFFFFFFFFFFFFFFFFFFFFFFF AND DUP2 MSTORE PUSH1 0x20 ADD SWAP1 DUP2 MSTORE PUSH1 0x20 ADD PUSH1 0x0 KECCAK256 PUSH1 0x0 SWAP1 SLOAD SWAP1 PUSH2 0x100 EXP SWAP1 DIV PUSH20 0xFFFFFFFFFFFFFFFFFFFFFFFFFFFFFFFFFFFFFFFF AND SWAP1 POP SWAP2 SWAP1 POP JUMP JUMPDEST PUSH1 0x0 DUP1 PUSH1 0x0 DUP4 PUSH20 0xFFFFFFFFFFFFFFFFFFFFFFFFFFFFFFFFFFFFFFFF AND PUSH20 0xFFFFFFFFFFFFFFFFFFFFFFFFFFFFFFFFFFFFFFFF AND DUP2 MSTORE PUSH1 0x20 ADD SWAP1 DUP2 MSTORE PUSH1 0x20 ADD PUSH1 0x0 KECCAK256 PUSH1 0x0 SWAP1 SLOAD SWAP1 PUSH2 0x100 EXP SWAP1 DIV PUSH20 0xFFFFFFFFFFFFFFFFFFFFFFFFFFFFFFFFFFFFFFFF AND SWAP1 POP SWAP2 SWAP1 POP JUMP JUMPDEST PUSH1 0x3 PUSH1 0x20 MSTORE DUP1 PUSH1 0x0 MSTORE PUSH1 0x40 PUSH1 0x0 KECCAK256 PUSH1 0x0 SWAP2 POP SLOAD SWAP1 PUSH2 0x100 EXP SWAP1 DIV PUSH20 0xFFFFFFFFFFFFFFFFFFFFFFFFFFFFFFFFFFFFFFFF AND DUP2 JUMP JUMPDEST PUSH1 0x0 PUSH1 0x2 PUSH1 0x0 DUP4 PUSH20 0xFFFFFFFFFFFFFFFFFFFFFFFFFFFFFFFFFFFFFFFF AND PUSH20 0xFFFFFFFFFFFFFFFFFFFFFFFFFFFFFFFFFFFFFFFF AND DUP2 MSTORE PUSH1 0x20 ADD SWAP1 DUP2 MSTORE PUSH1 0x20 ADD PUSH1 0x0 KECCAK256 PUSH1 0x0 SWAP1 SLOAD SWAP1 PUSH2 0x100 EXP SWAP1 DIV PUSH20 0xFFFFFFFFFFFFFFFFFFFFFFFFFFFFFFFFFFFFFFFF AND SWAP1 POP SWAP2 SWAP1 POP JUMP JUMPDEST PUSH1 0x0 CALLER PUSH1 0x40 MLOAD PUSH3 0x602 SWAP1 PUSH3 0x86B JUMP JUMPDEST PUSH3 0x60E SWAP2 SWAP1 PUSH3 0x943 JUMP JUMPDEST PUSH1 0x40 MLOAD DUP1 SWAP2 SUB SWAP1 PUSH1 0x0 CREATE DUP1 ISZERO DUP1 ISZERO PUSH3 0x62B JUMPI RETURNDATASIZE PUSH1 0x0 DUP1 RETURNDATACOPY RETURNDATASIZE PUSH1 0x0 REVERT JUMPDEST POP SWAP1 POP DUP1 PUSH1 0x1 PUSH1 0x0 CALLER PUSH20 0xFFFFFFFFFFFFFFFFFFFFFFFFFFFFFFFFFFFFFFFF AND PUSH20 0xFFFFFFFFFFFFFFFFFFFFFFFFFFFFFFFFFFFFFFFF AND DUP2 MSTORE PUSH1 0x20 ADD SWAP1 DUP2 MSTORE PUSH1 0x20 ADD PUSH1 0x0 KECCAK256 PUSH1 0x0 PUSH2 0x100 EXP DUP2 SLOAD DUP2 PUSH20 0xFFFFFFFFFFFFFFFFFFFFFFFFFFFFFFFFFFFFFFFF MUL NOT AND SWAP1 DUP4 PUSH20 0xFFFFFFFFFFFFFFFFFFFFFFFFFFFFFFFFFFFFFFFF AND MUL OR SWAP1 SSTORE POP POP JUMP JUMPDEST PUSH1 0x0 PUSH1 0x20 MSTORE DUP1 PUSH1 0x0 MSTORE PUSH1 0x40 PUSH1 0x0 KECCAK256 PUSH1 0x0 SWAP2 POP SLOAD SWAP1 PUSH2 0x100 EXP SWAP1 DIV PUSH20 0xFFFFFFFFFFFFFFFFFFFFFFFFFFFFFFFFFFFFFFFF AND DUP2 JUMP JUMPDEST PUSH1 0x2 PUSH1 0x20 MSTORE DUP1 PUSH1 0x0 MSTORE PUSH1 0x40 PUSH1 0x0 KECCAK256 PUSH1 0x0 SWAP2 POP SLOAD SWAP1 PUSH2 0x100 EXP SWAP1 DIV PUSH20 0xFFFFFFFFFFFFFFFFFFFFFFFFFFFFFFFFFFFFFFFF AND DUP2 JUMP JUMPDEST PUSH1 0x4 SLOAD DUP2 JUMP JUMPDEST PUSH1 0x0 ADDRESS CALLER DUP9 DUP9 DUP9 DUP9 DUP9 DUP9 PUSH1 0x40 MLOAD PUSH3 0x733 SWAP1 PUSH3 0x879 JUMP JUMPDEST PUSH3 0x746 SWAP9 SWAP8 SWAP7 SWAP6 SWAP5 SWAP4 SWAP3 SWAP2 SWAP1 PUSH3 0xEC4 JUMP JUMPDEST PUSH1 0x40 MLOAD DUP1 SWAP2 SUB SWAP1 PUSH1 0x0 CREATE DUP1 ISZERO DUP1 ISZERO PUSH3 0x763 JUMPI RETURNDATASIZE PUSH1 0x0 DUP1 RETURNDATACOPY RETURNDATASIZE PUSH1 0x0 REVERT JUMPDEST POP SWAP1 POP DUP1 PUSH1 0x2 PUSH1 0x0 CALLER PUSH20 0xFFFFFFFFFFFFFFFFFFFFFFFFFFFFFFFFFFFFFFFF AND PUSH20 0xFFFFFFFFFFFFFFFFFFFFFFFFFFFFFFFFFFFFFFFF AND DUP2 MSTORE PUSH1 0x20 ADD SWAP1 DUP2 MSTORE PUSH1 0x20 ADD PUSH1 0x0 KECCAK256 PUSH1 0x0 PUSH2 0x100 EXP DUP2 SLOAD DUP2 PUSH20 0xFFFFFFFFFFFFFFFFFFFFFFFFFFFFFFFFFFFFFFFF MUL NOT AND SWAP1 DUP4 PUSH20 0xFFFFFFFFFFFFFFFFFFFFFFFFFFFFFFFFFFFFFFFF AND MUL OR SWAP1 SSTORE POP CALLER PUSH1 0x3 PUSH1 0x0 PUSH1 0x4 SLOAD DUP2 MSTORE PUSH1 0x20 ADD SWAP1 DUP2 MSTORE PUSH1 0x20 ADD PUSH1 0x0 KECCAK256 PUSH1 0x0 PUSH2 0x100 EXP DUP2 SLOAD DUP2 PUSH20 0xFFFFFFFFFFFFFFFFFFFFFFFFFFFFFFFFFFFFFFFF MUL NOT AND SWAP1 DUP4 PUSH20 0xFFFFFFFFFFFFFFFFFFFFFFFFFFFFFFFFFFFFFFFF AND MUL OR SWAP1 SSTORE POP PUSH1 0x1 PUSH1 0x4 PUSH1 0x0 DUP3 DUP3 SLOAD PUSH3 0x84D SWAP2 SWAP1 PUSH3 0xFA4 JUMP JUMPDEST SWAP3 POP POP DUP2 SWAP1 SSTORE POP POP POP POP POP POP POP POP JUMP JUMPDEST PUSH2 0x1F3B DUP1 PUSH3 0x1002 DUP4 CODECOPY ADD SWAP1 JUMP JUMPDEST PUSH2 0x602 DUP1 PUSH3 0x2F3D DUP4 CODECOPY ADD SWAP1 JUMP JUMPDEST PUSH2 0x1BB1 DUP1 PUSH3 0x353F DUP4 CODECOPY ADD SWAP1 JUMP JUMPDEST PUSH1 0x0 PUSH1 0x40 MLOAD SWAP1 POP SWAP1 JUMP JUMPDEST PUSH1 0x0 DUP1 REVERT JUMPDEST PUSH1 0x0 DUP1 REVERT JUMPDEST PUSH1 0x0 PUSH20 0xFFFFFFFFFFFFFFFFFFFFFFFFFFFFFFFFFFFFFFFF DUP3 AND SWAP1 POP SWAP2 SWAP1 POP JUMP JUMPDEST PUSH1 0x0 PUSH3 0x8C8 DUP3 PUSH3 0x89B JUMP JUMPDEST SWAP1 POP SWAP2 SWAP1 POP JUMP JUMPDEST PUSH3 0x8DA DUP2 PUSH3 0x8BB JUMP JUMPDEST DUP2 EQ PUSH3 0x8E6 JUMPI PUSH1 0x0 DUP1 REVERT JUMPDEST POP JUMP JUMPDEST PUSH1 0x0 DUP2 CALLDATALOAD SWAP1 POP PUSH3 0x8FA DUP2 PUSH3 0x8CF JUMP JUMPDEST SWAP3 SWAP2 POP POP JUMP JUMPDEST PUSH1 0x0 PUSH1 0x20 DUP3 DUP5 SUB SLT ISZERO PUSH3 0x919 JUMPI PUSH3 0x918 PUSH3 0x891 JUMP JUMPDEST JUMPDEST PUSH1 0x0 PUSH3 0x929 DUP5 DUP3 DUP6 ADD PUSH3 0x8E9 JUMP JUMPDEST SWAP2 POP POP SWAP3 SWAP2 POP POP JUMP JUMPDEST PUSH3 0x93D DUP2 PUSH3 0x8BB JUMP JUMPDEST DUP3 MSTORE POP POP JUMP JUMPDEST PUSH1 0x0 PUSH1 0x20 DUP3 ADD SWAP1 POP PUSH3 0x95A PUSH1 0x0 DUP4 ADD DUP5 PUSH3 0x932 JUMP JUMPDEST SWAP3 SWAP2 POP POP JUMP JUMPDEST PUSH1 0x0 DUP2 SWAP1 POP SWAP2 SWAP1 POP JUMP JUMPDEST PUSH3 0x975 DUP2 PUSH3 0x960 JUMP JUMPDEST DUP2 EQ PUSH3 0x981 JUMPI PUSH1 0x0 DUP1 REVERT JUMPDEST POP JUMP JUMPDEST PUSH1 0x0 DUP2 CALLDATALOAD SWAP1 POP PUSH3 0x995 DUP2 PUSH3 0x96A JUMP JUMPDEST SWAP3 SWAP2 POP POP JUMP JUMPDEST PUSH1 0x0 PUSH1 0x20 DUP3 DUP5 SUB SLT ISZERO PUSH3 0x9B4 JUMPI PUSH3 0x9B3 PUSH3 0x891 JUMP JUMPDEST JUMPDEST PUSH1 0x0 PUSH3 0x9C4 DUP5 DUP3 DUP6 ADD PUSH3 0x984 JUMP JUMPDEST SWAP2 POP POP SWAP3 SWAP2 POP POP JUMP JUMPDEST PUSH1 0x0 DUP1 REVERT JUMPDEST PUSH1 0x0 DUP1 REVERT JUMPDEST PUSH1 0x0 PUSH1 0x1F NOT PUSH1 0x1F DUP4 ADD AND SWAP1 POP SWAP2 SWAP1 POP JUMP JUMPDEST PUSH32 0x4E487B7100000000000000000000000000000000000000000000000000000000 PUSH1 0x0 MSTORE PUSH1 0x41 PUSH1 0x4 MSTORE PUSH1 0x24 PUSH1 0x0 REVERT JUMPDEST PUSH3 0xA22 DUP3 PUSH3 0x9D7 JUMP JUMPDEST DUP2 ADD DUP2 DUP2 LT PUSH8 0xFFFFFFFFFFFFFFFF DUP3 GT OR ISZERO PUSH3 0xA44 JUMPI PUSH3 0xA43 PUSH3 0x9E8 JUMP JUMPDEST JUMPDEST DUP1 PUSH1 0x40 MSTORE POP POP POP JUMP JUMPDEST PUSH1 0x0 PUSH3 0xA59 PUSH3 0x887 JUMP JUMPDEST SWAP1 POP PUSH3 0xA67 DUP3 DUP3 PUSH3 0xA17 JUMP JUMPDEST SWAP2 SWAP1 POP JUMP JUMPDEST PUSH1 0x0 PUSH8 0xFFFFFFFFFFFFFFFF DUP3 GT ISZERO PUSH3 0xA8A JUMPI PUSH3 0xA89 PUSH3 0x9E8 JUMP JUMPDEST JUMPDEST PUSH3 0xA95 DUP3 PUSH3 0x9D7 JUMP JUMPDEST SWAP1 POP PUSH1 0x20 DUP2 ADD SWAP1 POP SWAP2 SWAP1 POP JUMP JUMPDEST DUP3 DUP2 DUP4 CALLDATACOPY PUSH1 0x0 DUP4 DUP4 ADD MSTORE POP POP POP JUMP JUMPDEST PUSH1 0x0 PUSH3 0xAC8 PUSH3 0xAC2 DUP5 PUSH3 0xA6C JUMP JUMPDEST PUSH3 0xA4D JUMP JUMPDEST SWAP1 POP DUP3 DUP2 MSTORE PUSH1 0x20 DUP2 ADD DUP5 DUP5 DUP5 ADD GT ISZERO PUSH3 0xAE7 JUMPI PUSH3 0xAE6 PUSH3 0x9D2 JUMP JUMPDEST JUMPDEST PUSH3 0xAF4 DUP5 DUP3 DUP6 PUSH3 0xAA2 JUMP JUMPDEST POP SWAP4 SWAP3 POP POP POP JUMP JUMPDEST PUSH1 0x0 DUP3 PUSH1 0x1F DUP4 ADD SLT PUSH3 0xB14 JUMPI PUSH3 0xB13 PUSH3 0x9CD JUMP JUMPDEST JUMPDEST DUP2 CALLDATALOAD PUSH3 0xB26 DUP5 DUP3 PUSH1 0x20 DUP7 ADD PUSH3 0xAB1 JUMP JUMPDEST SWAP2 POP POP SWAP3 SWAP2 POP POP JUMP JUMPDEST PUSH1 0x0 DUP1 PUSH1 0x0 DUP1 PUSH1 0x0 PUSH1 0xA0 DUP7 DUP9 SUB SLT ISZERO PUSH3 0xB4E JUMPI PUSH3 0xB4D PUSH3 0x891 JUMP JUMPDEST JUMPDEST PUSH1 0x0 DUP7 ADD CALLDATALOAD PUSH8 0xFFFFFFFFFFFFFFFF DUP2 GT ISZERO PUSH3 0xB6F JUMPI PUSH3 0xB6E PUSH3 0x896 JUMP JUMPDEST JUMPDEST PUSH3 0xB7D DUP9 DUP3 DUP10 ADD PUSH3 0xAFC JUMP JUMPDEST SWAP6 POP POP PUSH1 0x20 PUSH3 0xB90 DUP9 DUP3 DUP10 ADD PUSH3 0x984 JUMP JUMPDEST SWAP5 POP POP PUSH1 0x40 DUP7 ADD CALLDATALOAD PUSH8 0xFFFFFFFFFFFFFFFF DUP2 GT ISZERO PUSH3 0xBB4 JUMPI PUSH3 0xBB3 PUSH3 0x896 JUMP JUMPDEST JUMPDEST PUSH3 0xBC2 DUP9 DUP3 DUP10 ADD PUSH3 0xAFC JUMP JUMPDEST SWAP4 POP POP PUSH1 0x60 DUP7 ADD CALLDATALOAD PUSH8 0xFFFFFFFFFFFFFFFF DUP2 GT ISZERO PUSH3 0xBE6 JUMPI PUSH3 0xBE5 PUSH3 0x896 JUMP JUMPDEST JUMPDEST PUSH3 0xBF4 DUP9 DUP3 DUP10 ADD PUSH3 0xAFC JUMP JUMPDEST SWAP3 POP POP PUSH1 0x80 DUP7 ADD CALLDATALOAD PUSH8 0xFFFFFFFFFFFFFFFF DUP2 GT ISZERO PUSH3 0xC18 JUMPI PUSH3 0xC17 PUSH3 0x896 JUMP JUMPDEST JUMPDEST PUSH3 0xC26 DUP9 DUP3 DUP10 ADD PUSH3 0xAFC JUMP JUMPDEST SWAP2 POP POP SWAP3 SWAP6 POP SWAP3 SWAP6 SWAP1 SWAP4 POP JUMP JUMPDEST PUSH3 0xC3E DUP2 PUSH3 0x960 JUMP JUMPDEST DUP3 MSTORE POP POP JUMP JUMPDEST PUSH1 0x0 PUSH1 0x20 DUP3 ADD SWAP1 POP PUSH3 0xC5B PUSH1 0x0 DUP4 ADD DUP5 PUSH3 0xC33 JUMP JUMPDEST SWAP3 SWAP2 POP POP JUMP JUMPDEST PUSH1 0x0 DUP1 PUSH1 0x0 DUP1 PUSH1 0x0 DUP1 PUSH1 0xC0 DUP8 DUP10 SUB SLT ISZERO PUSH3 0xC81 JUMPI PUSH3 0xC80 PUSH3 0x891 JUMP JUMPDEST JUMPDEST PUSH1 0x0 DUP8 ADD CALLDATALOAD PUSH8 0xFFFFFFFFFFFFFFFF DUP2 GT ISZERO PUSH3 0xCA2 JUMPI PUSH3 0xCA1 PUSH3 0x896 JUMP JUMPDEST JUMPDEST PUSH3 0xCB0 DUP10 DUP3 DUP11 ADD PUSH3 0xAFC JUMP JUMPDEST SWAP7 POP POP PUSH1 0x20 PUSH3 0xCC3 DUP10 DUP3 DUP11 ADD PUSH3 0x984 JUMP JUMPDEST SWAP6 POP POP PUSH1 0x40 DUP8 ADD CALLDATALOAD PUSH8 0xFFFFFFFFFFFFFFFF DUP2 GT ISZERO PUSH3 0xCE7 JUMPI PUSH3 0xCE6 PUSH3 0x896 JUMP JUMPDEST JUMPDEST PUSH3 0xCF5 DUP10 DUP3 DUP11 ADD PUSH3 0xAFC JUMP JUMPDEST SWAP5 POP POP PUSH1 0x60 DUP8 ADD CALLDATALOAD PUSH8 0xFFFFFFFFFFFFFFFF DUP2 GT ISZERO PUSH3 0xD19 JUMPI PUSH3 0xD18 PUSH3 0x896 JUMP JUMPDEST JUMPDEST PUSH3 0xD27 DUP10 DUP3 DUP11 ADD PUSH3 0xAFC JUMP JUMPDEST SWAP4 POP POP PUSH1 0x80 DUP8 ADD CALLDATALOAD PUSH8 0xFFFFFFFFFFFFFFFF DUP2 GT ISZERO PUSH3 0xD4B JUMPI PUSH3 0xD4A PUSH3 0x896 JUMP JUMPDEST JUMPDEST PUSH3 0xD59 DUP10 DUP3 DUP11 ADD PUSH3 0xAFC JUMP JUMPDEST SWAP3 POP POP PUSH1 0xA0 DUP8 ADD CALLDATALOAD PUSH8 0xFFFFFFFFFFFFFFFF DUP2 GT ISZERO PUSH3 0xD7D JUMPI PUSH3 0xD7C PUSH3 0x896 JUMP JUMPDEST JUMPDEST PUSH3 0xD8B DUP10 DUP3 DUP11 ADD PUSH3 0xAFC JUMP JUMPDEST SWAP2 POP POP SWAP3 SWAP6 POP SWAP3 SWAP6 POP SWAP3 SWAP6 JUMP JUMPDEST PUSH1 0x0 DUP2 MLOAD SWAP1 POP SWAP2 SWAP1 POP JUMP JUMPDEST PUSH1 0x0 DUP3 DUP3 MSTORE PUSH1 0x20 DUP3 ADD SWAP1 POP SWAP3 SWAP2 POP POP JUMP JUMPDEST PUSH1 0x0 JUMPDEST DUP4 DUP2 LT ISZERO PUSH3 0xDD4 JUMPI DUP1 DUP3 ADD MLOAD DUP2 DUP5 ADD MSTORE PUSH1 0x20 DUP2 ADD SWAP1 POP PUSH3 0xDB7 JUMP JUMPDEST DUP4 DUP2 GT ISZERO PUSH3 0xDE4 JUMPI PUSH1 0x0 DUP5 DUP5 ADD MSTORE JUMPDEST POP POP POP POP JUMP JUMPDEST PUSH1 0x0 PUSH3 0xDF7 DUP3 PUSH3 0xD98 JUMP JUMPDEST PUSH3 0xE03 DUP2 DUP6 PUSH3 0xDA3 JUMP JUMPDEST SWAP4 POP PUSH3 0xE15 DUP2 DUP6 PUSH1 0x20 DUP7 ADD PUSH3 0xDB4 JUMP JUMPDEST PUSH3 0xE20 DUP2 PUSH3 0x9D7 JUMP JUMPDEST DUP5 ADD SWAP2 POP POP SWAP3 SWAP2 POP POP JUMP JUMPDEST PUSH1 0x0 PUSH1 0xE0 DUP3 ADD SWAP1 POP DUP2 DUP2 SUB PUSH1 0x0 DUP4 ADD MSTORE PUSH3 0xE47 DUP2 DUP11 PUSH3 0xDEA JUMP JUMPDEST SWAP1 POP PUSH3 0xE58 PUSH1 0x20 DUP4 ADD DUP10 PUSH3 0xC33 JUMP JUMPDEST DUP2 DUP2 SUB PUSH1 0x40 DUP4 ADD MSTORE PUSH3 0xE6C DUP2 DUP9 PUSH3 0xDEA JUMP JUMPDEST SWAP1 POP DUP2 DUP2 SUB PUSH1 0x60 DUP4 ADD MSTORE PUSH3 0xE82 DUP2 DUP8 PUSH3 0xDEA JUMP JUMPDEST SWAP1 POP DUP2 DUP2 SUB PUSH1 0x80 DUP4 ADD MSTORE PUSH3 0xE98 DUP2 DUP7 PUSH3 0xDEA JUMP JUMPDEST SWAP1 POP PUSH3 0xEA9 PUSH1 0xA0 DUP4 ADD DUP6 PUSH3 0x932 JUMP JUMPDEST PUSH3 0xEB8 PUSH1 0xC0 DUP4 ADD DUP5 PUSH3 0x932 JUMP JUMPDEST SWAP9 SWAP8 POP POP POP POP POP POP POP POP JUMP JUMPDEST PUSH1 0x0 PUSH2 0x100 DUP3 ADD SWAP1 POP PUSH3 0xEDC PUSH1 0x0 DUP4 ADD DUP12 PUSH3 0x932 JUMP JUMPDEST PUSH3 0xEEB PUSH1 0x20 DUP4 ADD DUP11 PUSH3 0x932 JUMP JUMPDEST DUP2 DUP2 SUB PUSH1 0x40 DUP4 ADD MSTORE PUSH3 0xEFF DUP2 DUP10 PUSH3 0xDEA JUMP JUMPDEST SWAP1 POP PUSH3 0xF10 PUSH1 0x60 DUP4 ADD DUP9 PUSH3 0xC33 JUMP JUMPDEST DUP2 DUP2 SUB PUSH1 0x80 DUP4 ADD MSTORE PUSH3 0xF24 DUP2 DUP8 PUSH3 0xDEA JUMP JUMPDEST SWAP1 POP DUP2 DUP2 SUB PUSH1 0xA0 DUP4 ADD MSTORE PUSH3 0xF3A DUP2 DUP7 PUSH3 0xDEA JUMP JUMPDEST SWAP1 POP DUP2 DUP2 SUB PUSH1 0xC0 DUP4 ADD MSTORE PUSH3 0xF50 DUP2 DUP6 PUSH3 0xDEA JUMP JUMPDEST SWAP1 POP DUP2 DUP2 SUB PUSH1 0xE0 DUP4 ADD MSTORE PUSH3 0xF66 DUP2 DUP5 PUSH3 0xDEA JUMP JUMPDEST SWAP1 POP SWAP10 SWAP9 POP POP POP POP POP POP POP POP POP JUMP JUMPDEST PUSH32 0x4E487B7100000000000000000000000000000000000000000000000000000000 PUSH1 0x0 MSTORE PUSH1 0x11 PUSH1 0x4 MSTORE PUSH1 0x24 PUSH1 0x0 REVERT JUMPDEST PUSH1 0x0 PUSH3 0xFB1 DUP3 PUSH3 0x960 JUMP JUMPDEST SWAP2 POP PUSH3 0xFBE DUP4 PUSH3 0x960 JUMP JUMPDEST SWAP3 POP DUP3 PUSH32 0xFFFFFFFFFFFFFFFFFFFFFFFFFFFFFFFFFFFFFFFFFFFFFFFFFFFFFFFFFFFFFFFF SUB DUP3 GT ISZERO PUSH3 0xFF6 JUMPI PUSH3 0xFF5 PUSH3 0xF75 JUMP JUMPDEST JUMPDEST DUP3 DUP3 ADD SWAP1 POP SWAP3 SWAP2 POP POP JUMP INVALID PUSH1 0x80 PUSH1 0x40 MSTORE CALLVALUE DUP1 ISZERO PUSH3 0x11 JUMPI PUSH1 0x0 DUP1 REVERT JUMPDEST POP PUSH1 0x40 MLOAD PUSH3 0x1F3B CODESIZE SUB DUP1 PUSH3 0x1F3B DUP4 CODECOPY DUP2 DUP2 ADD PUSH1 0x40 MSTORE DUP2 ADD SWAP1 PUSH3 0x37 SWAP2 SWAP1 PUSH3 0x4E4 JUMP JUMPDEST DUP2 PUSH1 0x1 PUSH1 0x0 PUSH2 0x100 EXP DUP2 SLOAD DUP2 PUSH20 0xFFFFFFFFFFFFFFFFFFFFFFFFFFFFFFFFFFFFFFFF MUL NOT AND SWAP1 DUP4 PUSH20 0xFFFFFFFFFFFFFFFFFFFFFFFFFFFFFFFFFFFFFFFF AND MUL OR SWAP1 SSTORE POP PUSH1 0x0 PUSH1 0x40 MLOAD DUP1 PUSH1 0xA0 ADD PUSH1 0x40 MSTORE DUP1 DUP10 DUP2 MSTORE PUSH1 0x20 ADD DUP9 DUP2 MSTORE PUSH1 0x20 ADD DUP8 DUP2 MSTORE PUSH1 0x20 ADD DUP7 DUP2 MSTORE PUSH1 0x20 ADD DUP6 DUP2 MSTORE POP SWAP1 POP DUP1 PUSH1 0x2 PUSH1 0x0 DUP3 ADD MLOAD DUP2 PUSH1 0x0 ADD SWAP1 DUP1 MLOAD SWAP1 PUSH1 0x20 ADD SWAP1 PUSH3 0xC4 SWAP3 SWAP2 SWAP1 PUSH3 0x1F7 JUMP JUMPDEST POP PUSH1 0x20 DUP3 ADD MLOAD DUP2 PUSH1 0x1 ADD SSTORE PUSH1 0x40 DUP3 ADD MLOAD DUP2 PUSH1 0x2 ADD SWAP1 DUP1 MLOAD SWAP1 PUSH1 0x20 ADD SWAP1 PUSH3 0xED SWAP3 SWAP2 SWAP1 PUSH3 0x1F7 JUMP JUMPDEST POP PUSH1 0x60 DUP3 ADD MLOAD DUP2 PUSH1 0x3 ADD SWAP1 DUP1 MLOAD SWAP1 PUSH1 0x20 ADD SWAP1 PUSH3 0x10C SWAP3 SWAP2 SWAP1 PUSH3 0x1F7 JUMP JUMPDEST POP PUSH1 0x80 DUP3 ADD MLOAD DUP2 PUSH1 0x4 ADD SWAP1 DUP1 MLOAD SWAP1 PUSH1 0x20 ADD SWAP1 PUSH3 0x12B SWAP3 SWAP2 SWAP1 PUSH3 0x1F7 JUMP JUMPDEST POP SWAP1 POP POP DUP2 PUSH1 0x0 DUP1 PUSH2 0x100 EXP DUP2 SLOAD DUP2 PUSH20 0xFFFFFFFFFFFFFFFFFFFFFFFFFFFFFFFFFFFFFFFF MUL NOT AND SWAP1 DUP4 PUSH20 0xFFFFFFFFFFFFFFFFFFFFFFFFFFFFFFFFFFFFFFFF AND MUL OR SWAP1 SSTORE POP PUSH1 0x1 PUSH1 0x7 PUSH1 0x0 PUSH1 0x1 PUSH1 0x0 SWAP1 SLOAD SWAP1 PUSH2 0x100 EXP SWAP1 DIV PUSH20 0xFFFFFFFFFFFFFFFFFFFFFFFFFFFFFFFFFFFFFFFF AND PUSH20 0xFFFFFFFFFFFFFFFFFFFFFFFFFFFFFFFFFFFFFFFF AND PUSH20 0xFFFFFFFFFFFFFFFFFFFFFFFFFFFFFFFFFFFFFFFF AND DUP2 MSTORE PUSH1 0x20 ADD SWAP1 DUP2 MSTORE PUSH1 0x20 ADD PUSH1 0x0 KECCAK256 PUSH1 0x0 PUSH2 0x100 EXP DUP2 SLOAD DUP2 PUSH1 0xFF MUL NOT AND SWAP1 DUP4 ISZERO ISZERO MUL OR SWAP1 SSTORE POP POP POP POP POP POP POP POP POP PUSH3 0x678 JUMP JUMPDEST DUP3 DUP1 SLOAD PUSH3 0x205 SWAP1 PUSH3 0x642 JUMP JUMPDEST SWAP1 PUSH1 0x0 MSTORE PUSH1 0x20 PUSH1 0x0 KECCAK256 SWAP1 PUSH1 0x1F ADD PUSH1 0x20 SWAP1 DIV DUP2 ADD SWAP3 DUP3 PUSH3 0x229 JUMPI PUSH1 0x0 DUP6 SSTORE PUSH3 0x275 JUMP JUMPDEST DUP3 PUSH1 0x1F LT PUSH3 0x244 JUMPI DUP1 MLOAD PUSH1 0xFF NOT AND DUP4 DUP1 ADD OR DUP6 SSTORE PUSH3 0x275 JUMP JUMPDEST DUP3 DUP1 ADD PUSH1 0x1 ADD DUP6 SSTORE DUP3 ISZERO PUSH3 0x275 JUMPI SWAP2 DUP3 ADD JUMPDEST DUP3 DUP2 GT ISZERO PUSH3 0x274 JUMPI DUP3 MLOAD DUP3 SSTORE SWAP2 PUSH1 0x20 ADD SWAP2 SWAP1 PUSH1 0x1 ADD SWAP1 PUSH3 0x257 JUMP JUMPDEST JUMPDEST POP SWAP1 POP PUSH3 0x284 SWAP2 SWAP1 PUSH3 0x288 JUMP JUMPDEST POP SWAP1 JUMP JUMPDEST JUMPDEST DUP1 DUP3 GT ISZERO PUSH3 0x2A3 JUMPI PUSH1 0x0 DUP2 PUSH1 0x0 SWAP1 SSTORE POP PUSH1 0x1 ADD PUSH3 0x289 JUMP JUMPDEST POP SWAP1 JUMP JUMPDEST PUSH1 0x0 PUSH1 0x40 MLOAD SWAP1 POP SWAP1 JUMP JUMPDEST PUSH1 0x0 DUP1 REVERT JUMPDEST PUSH1 0x0 DUP1 REVERT JUMPDEST PUSH1 0x0 DUP1 REVERT JUMPDEST PUSH1 0x0 DUP1 REVERT JUMPDEST PUSH1 0x0 PUSH1 0x1F NOT PUSH1 0x1F DUP4 ADD AND SWAP1 POP SWAP2 SWAP1 POP JUMP JUMPDEST PUSH32 0x4E487B7100000000000000000000000000000000000000000000000000000000 PUSH1 0x0 MSTORE PUSH1 0x41 PUSH1 0x4 MSTORE PUSH1 0x24 PUSH1 0x0 REVERT JUMPDEST PUSH3 0x310 DUP3 PUSH3 0x2C5 JUMP JUMPDEST DUP2 ADD DUP2 DUP2 LT PUSH8 0xFFFFFFFFFFFFFFFF DUP3 GT OR ISZERO PUSH3 0x332 JUMPI PUSH3 0x331 PUSH3 0x2D6 JUMP JUMPDEST JUMPDEST DUP1 PUSH1 0x40 MSTORE POP POP POP JUMP JUMPDEST PUSH1 0x0 PUSH3 0x347 PUSH3 0x2A7 JUMP JUMPDEST SWAP1 POP PUSH3 0x355 DUP3 DUP3 PUSH3 0x305 JUMP JUMPDEST SWAP2 SWAP1 POP JUMP JUMPDEST PUSH1 0x0 PUSH8 0xFFFFFFFFFFFFFFFF DUP3 GT ISZERO PUSH3 0x378 JUMPI PUSH3 0x377 PUSH3 0x2D6 JUMP JUMPDEST JUMPDEST PUSH3 0x383 DUP3 PUSH3 0x2C5 JUMP JUMPDEST SWAP1 POP PUSH1 0x20 DUP2 ADD SWAP1 POP SWAP2 SWAP1 POP JUMP JUMPDEST PUSH1 0x0 JUMPDEST DUP4 DUP2 LT ISZERO PUSH3 0x3B0 JUMPI DUP1 DUP3 ADD MLOAD DUP2 DUP5 ADD MSTORE PUSH1 0x20 DUP2 ADD SWAP1 POP PUSH3 0x393 JUMP JUMPDEST DUP4 DUP2 GT ISZERO PUSH3 0x3C0 JUMPI PUSH1 0x0 DUP5 DUP5 ADD MSTORE JUMPDEST POP POP POP POP JUMP JUMPDEST PUSH1 0x0 PUSH3 0x3DD PUSH3 0x3D7 DUP5 PUSH3 0x35A JUMP JUMPDEST PUSH3 0x33B JUMP JUMPDEST SWAP1 POP DUP3 DUP2 MSTORE PUSH1 0x20 DUP2 ADD DUP5 DUP5 DUP5 ADD GT ISZERO PUSH3 0x3FC JUMPI PUSH3 0x3FB PUSH3 0x2C0 JUMP JUMPDEST JUMPDEST PUSH3 0x409 DUP5 DUP3 DUP6 PUSH3 0x390 JUMP JUMPDEST POP SWAP4 SWAP3 POP POP POP JUMP JUMPDEST PUSH1 0x0 DUP3 PUSH1 0x1F DUP4 ADD SLT PUSH3 0x429 JUMPI PUSH3 0x428 PUSH3 0x2BB JUMP JUMPDEST JUMPDEST DUP2 MLOAD PUSH3 0x43B DUP5 DUP3 PUSH1 0x20 DUP7 ADD PUSH3 0x3C6 JUMP JUMPDEST SWAP2 POP POP SWAP3 SWAP2 POP POP JUMP JUMPDEST PUSH1 0x0 DUP2 SWAP1 POP SWAP2 SWAP1 POP JUMP JUMPDEST PUSH3 0x459 DUP2 PUSH3 0x444 JUMP JUMPDEST DUP2 EQ PUSH3 0x465 JUMPI PUSH1 0x0 DUP1 REVERT JUMPDEST POP JUMP JUMPDEST PUSH1 0x0 DUP2 MLOAD SWAP1 POP PUSH3 0x479 DUP2 PUSH3 0x44E JUMP JUMPDEST SWAP3 SWAP2 POP POP JUMP JUMPDEST PUSH1 0x0 PUSH20 0xFFFFFFFFFFFFFFFFFFFFFFFFFFFFFFFFFFFFFFFF DUP3 AND SWAP1 POP SWAP2 SWAP1 POP JUMP JUMPDEST PUSH1 0x0 PUSH3 0x4AC DUP3 PUSH3 0x47F JUMP JUMPDEST SWAP1 POP SWAP2 SWAP1 POP JUMP JUMPDEST PUSH3 0x4BE DUP2 PUSH3 0x49F JUMP JUMPDEST DUP2 EQ PUSH3 0x4CA JUMPI PUSH1 0x0 DUP1 REVERT JUMPDEST POP JUMP JUMPDEST PUSH1 0x0 DUP2 MLOAD SWAP1 POP PUSH3 0x4DE DUP2 PUSH3 0x4B3 JUMP JUMPDEST SWAP3 SWAP2 POP POP JUMP JUMPDEST PUSH1 0x0 DUP1 PUSH1 0x0 DUP1 PUSH1 0x0 DUP1 PUSH1 0x0 PUSH1 0xE0 DUP9 DUP11 SUB SLT ISZERO PUSH3 0x506 JUMPI PUSH3 0x505 PUSH3 0x2B1 JUMP JUMPDEST JUMPDEST PUSH1 0x0 DUP9 ADD MLOAD PUSH8 0xFFFFFFFFFFFFFFFF DUP2 GT ISZERO PUSH3 0x527 JUMPI PUSH3 0x526 PUSH3 0x2B6 JUMP JUMPDEST JUMPDEST PUSH3 0x535 DUP11 DUP3 DUP12 ADD PUSH3 0x411 JUMP JUMPDEST SWAP8 POP POP PUSH1 0x20 PUSH3 0x548 DUP11 DUP3 DUP12 ADD PUSH3 0x468 JUMP JUMPDEST SWAP7 POP POP PUSH1 0x40 DUP9 ADD MLOAD PUSH8 0xFFFFFFFFFFFFFFFF DUP2 GT ISZERO PUSH3 0x56C JUMPI PUSH3 0x56B PUSH3 0x2B6 JUMP JUMPDEST JUMPDEST PUSH3 0x57A DUP11 DUP3 DUP12 ADD PUSH3 0x411 JUMP JUMPDEST SWAP6 POP POP PUSH1 0x60 DUP9 ADD MLOAD PUSH8 0xFFFFFFFFFFFFFFFF DUP2 GT ISZERO PUSH3 0x59E JUMPI PUSH3 0x59D PUSH3 0x2B6 JUMP JUMPDEST JUMPDEST PUSH3 0x5AC DUP11 DUP3 DUP12 ADD PUSH3 0x411 JUMP JUMPDEST SWAP5 POP POP PUSH1 0x80 DUP9 ADD MLOAD PUSH8 0xFFFFFFFFFFFFFFFF DUP2 GT ISZERO PUSH3 0x5D0 JUMPI PUSH3 0x5CF PUSH3 0x2B6 JUMP JUMPDEST JUMPDEST PUSH3 0x5DE DUP11 DUP3 DUP12 ADD PUSH3 0x411 JUMP JUMPDEST SWAP4 POP POP PUSH1 0xA0 PUSH3 0x5F1 DUP11 DUP3 DUP12 ADD PUSH3 0x4CD JUMP JUMPDEST SWAP3 POP POP PUSH1 0xC0 PUSH3 0x604 DUP11 DUP3 DUP12 ADD PUSH3 0x4CD JUMP JUMPDEST SWAP2 POP POP SWAP3 SWAP6 SWAP9 SWAP2 SWAP5 SWAP8 POP SWAP3 SWAP6 POP JUMP JUMPDEST PUSH32 0x4E487B7100000000000000000000000000000000000000000000000000000000 PUSH1 0x0 MSTORE PUSH1 0x22 PUSH1 0x4 MSTORE PUSH1 0x24 PUSH1 0x0 REVERT JUMPDEST PUSH1 0x0 PUSH1 0x2 DUP3 DIV SWAP1 POP PUSH1 0x1 DUP3 AND DUP1 PUSH3 0x65B JUMPI PUSH1 0x7F DUP3 AND SWAP2 POP JUMPDEST PUSH1 0x20 DUP3 LT DUP2 EQ ISZERO PUSH3 0x672 JUMPI PUSH3 0x671 PUSH3 0x613 JUMP JUMPDEST JUMPDEST POP SWAP2 SWAP1 POP JUMP JUMPDEST PUSH2 0x18B3 DUP1 PUSH3 0x688 PUSH1 0x0 CODECOPY PUSH1 0x0 RETURN INVALID PUSH1 0x80 PUSH1 0x40 MSTORE CALLVALUE DUP1 ISZERO PUSH2 0x10 JUMPI PUSH1 0x0 DUP1 REVERT JUMPDEST POP PUSH1 0x4 CALLDATASIZE LT PUSH2 0xF5 JUMPI PUSH1 0x0 CALLDATALOAD PUSH1 0xE0 SHR DUP1 PUSH4 0xAC40C9A8 GT PUSH2 0x97 JUMPI DUP1 PUSH4 0xF2CC9753 GT PUSH2 0x66 JUMPI DUP1 PUSH4 0xF2CC9753 EQ PUSH2 0x28D JUMPI DUP1 PUSH4 0xF2F4ADAE EQ PUSH2 0x2A9 JUMPI DUP1 PUSH4 0xF85B1B30 EQ PUSH2 0x2CB JUMPI DUP1 PUSH4 0xFE13B631 EQ PUSH2 0x2FB JUMPI PUSH2 0xF5 JUMP JUMPDEST DUP1 PUSH4 0xAC40C9A8 EQ PUSH2 0x217 JUMPI DUP1 PUSH4 0xC83DD231 EQ PUSH2 0x235 JUMPI DUP1 PUSH4 0xD8D204F8 EQ PUSH2 0x253 JUMPI DUP1 PUSH4 0xE7CE49A7 EQ PUSH2 0x26F JUMPI PUSH2 0xF5 JUMP JUMPDEST DUP1 PUSH4 0x2E0B5677 GT PUSH2 0xD3 JUMPI DUP1 PUSH4 0x2E0B5677 EQ PUSH2 0x168 JUMPI DUP1 PUSH4 0x86969279 EQ PUSH2 0x198 JUMPI DUP1 PUSH4 0x9DB4D4A0 EQ PUSH2 0x1C9 JUMPI DUP1 PUSH4 0xAC12A3C0 EQ PUSH2 0x1F9 JUMPI PUSH2 0xF5 JUMP JUMPDEST DUP1 PUSH4 0xBE41BD8 EQ PUSH2 0xFA JUMPI DUP1 PUSH4 0x1DC1FDB6 EQ PUSH2 0x116 JUMPI DUP1 PUSH4 0x1F54E45C EQ PUSH2 0x138 JUMPI JUMPDEST PUSH1 0x0 DUP1 REVERT JUMPDEST PUSH2 0x114 PUSH1 0x4 DUP1 CALLDATASIZE SUB DUP2 ADD SWAP1 PUSH2 0x10F SWAP2 SWAP1 PUSH2 0x10DD JUMP JUMPDEST PUSH2 0x32B JUMP JUMPDEST STOP JUMPDEST PUSH2 0x11E PUSH2 0x386 JUMP JUMPDEST PUSH1 0x40 MLOAD PUSH2 0x12F SWAP6 SWAP5 SWAP4 SWAP3 SWAP2 SWAP1 PUSH2 0x11BC JUMP JUMPDEST PUSH1 0x40 MLOAD DUP1 SWAP2 SUB SWAP1 RETURN JUMPDEST PUSH2 0x152 PUSH1 0x4 DUP1 CALLDATASIZE SUB DUP2 ADD SWAP1 PUSH2 0x14D SWAP2 SWAP1 PUSH2 0x1257 JUMP JUMPDEST PUSH2 0x5CA JUMP JUMPDEST PUSH1 0x40 MLOAD PUSH2 0x15F SWAP2 SWAP1 PUSH2 0x1284 JUMP JUMPDEST PUSH1 0x40 MLOAD DUP1 SWAP2 SUB SWAP1 RETURN JUMPDEST PUSH2 0x182 PUSH1 0x4 DUP1 CALLDATASIZE SUB DUP2 ADD SWAP1 PUSH2 0x17D SWAP2 SWAP1 PUSH2 0x10DD JUMP JUMPDEST PUSH2 0x672 JUMP JUMPDEST PUSH1 0x40 MLOAD PUSH2 0x18F SWAP2 SWAP1 PUSH2 0x12C1 JUMP JUMPDEST PUSH1 0x40 MLOAD DUP1 SWAP2 SUB SWAP1 RETURN JUMPDEST PUSH2 0x1B2 PUSH1 0x4 DUP1 CALLDATASIZE SUB DUP2 ADD SWAP1 PUSH2 0x1AD SWAP2 SWAP1 PUSH2 0x1257 JUMP JUMPDEST PUSH2 0x692 JUMP JUMPDEST PUSH1 0x40 MLOAD PUSH2 0x1C0 SWAP3 SWAP2 SWAP1 PUSH2 0x12DC JUMP JUMPDEST PUSH1 0x40 MLOAD DUP1 SWAP2 SUB SWAP1 RETURN JUMPDEST PUSH2 0x1E3 PUSH1 0x4 DUP1 CALLDATASIZE SUB DUP2 ADD SWAP1 PUSH2 0x1DE SWAP2 SWAP1 PUSH2 0x1257 JUMP JUMPDEST PUSH2 0x73E JUMP JUMPDEST PUSH1 0x40 MLOAD PUSH2 0x1F0 SWAP2 SWAP1 PUSH2 0x12C1 JUMP JUMPDEST PUSH1 0x40 MLOAD DUP1 SWAP2 SUB SWAP1 RETURN JUMPDEST PUSH2 0x201 PUSH2 0x75E JUMP JUMPDEST PUSH1 0x40 MLOAD PUSH2 0x20E SWAP2 SWAP1 PUSH2 0x130C JUMP JUMPDEST PUSH1 0x40 MLOAD DUP1 SWAP2 SUB SWAP1 RETURN JUMPDEST PUSH2 0x21F PUSH2 0x764 JUMP JUMPDEST PUSH1 0x40 MLOAD PUSH2 0x22C SWAP2 SWAP1 PUSH2 0x1336 JUMP JUMPDEST PUSH1 0x40 MLOAD DUP1 SWAP2 SUB SWAP1 RETURN JUMPDEST PUSH2 0x23D PUSH2 0x78A JUMP JUMPDEST PUSH1 0x40 MLOAD PUSH2 0x24A SWAP2 SWAP1 PUSH2 0x1336 JUMP JUMPDEST PUSH1 0x40 MLOAD DUP1 SWAP2 SUB SWAP1 RETURN JUMPDEST PUSH2 0x26D PUSH1 0x4 DUP1 CALLDATASIZE SUB DUP2 ADD SWAP1 PUSH2 0x268 SWAP2 SWAP1 PUSH2 0x1486 JUMP JUMPDEST PUSH2 0x7AE JUMP JUMPDEST STOP JUMPDEST PUSH2 0x277 PUSH2 0x865 JUMP JUMPDEST PUSH1 0x40 MLOAD PUSH2 0x284 SWAP2 SWAP1 PUSH2 0x130C JUMP JUMPDEST PUSH1 0x40 MLOAD DUP1 SWAP2 SUB SWAP1 RETURN JUMPDEST PUSH2 0x2A7 PUSH1 0x4 DUP1 CALLDATASIZE SUB DUP2 ADD SWAP1 PUSH2 0x2A2 SWAP2 SWAP1 PUSH2 0x1571 JUMP JUMPDEST PUSH2 0x86B JUMP JUMPDEST STOP JUMPDEST PUSH2 0x2B1 PUSH2 0xD12 JUMP JUMPDEST PUSH1 0x40 MLOAD PUSH2 0x2C2 SWAP6 SWAP5 SWAP4 SWAP3 SWAP2 SWAP1 PUSH2 0x11BC JUMP JUMPDEST PUSH1 0x40 MLOAD DUP1 SWAP2 SUB SWAP1 RETURN JUMPDEST PUSH2 0x2E5 PUSH1 0x4 DUP1 CALLDATASIZE SUB DUP2 ADD SWAP1 PUSH2 0x2E0 SWAP2 SWAP1 PUSH2 0x10DD JUMP JUMPDEST PUSH2 0xF75 JUMP JUMPDEST PUSH1 0x40 MLOAD PUSH2 0x2F2 SWAP2 SWAP1 PUSH2 0x12C1 JUMP JUMPDEST PUSH1 0x40 MLOAD DUP1 SWAP2 SUB SWAP1 RETURN JUMPDEST PUSH2 0x315 PUSH1 0x4 DUP1 CALLDATASIZE SUB DUP2 ADD SWAP1 PUSH2 0x310 SWAP2 SWAP1 PUSH2 0x1257 JUMP JUMPDEST PUSH2 0xF95 JUMP JUMPDEST PUSH1 0x40 MLOAD PUSH2 0x322 SWAP2 SWAP1 PUSH2 0x1336 JUMP JUMPDEST PUSH1 0x40 MLOAD DUP1 SWAP2 SUB SWAP1 RETURN JUMPDEST PUSH1 0x1 PUSH1 0x7 PUSH1 0x0 DUP4 PUSH20 0xFFFFFFFFFFFFFFFFFFFFFFFFFFFFFFFFFFFFFFFF AND PUSH20 0xFFFFFFFFFFFFFFFFFFFFFFFFFFFFFFFFFFFFFFFF AND DUP2 MSTORE PUSH1 0x20 ADD SWAP1 DUP2 MSTORE PUSH1 0x20 ADD PUSH1 0x0 KECCAK256 PUSH1 0x0 PUSH2 0x100 EXP DUP2 SLOAD DUP2 PUSH1 0xFF MUL NOT AND SWAP1 DUP4 ISZERO ISZERO MUL OR SWAP1 SSTORE POP POP JUMP JUMPDEST PUSH1 0x2 DUP1 PUSH1 0x0 ADD DUP1 SLOAD PUSH2 0x397 SWAP1 PUSH2 0x15FC JUMP JUMPDEST DUP1 PUSH1 0x1F ADD PUSH1 0x20 DUP1 SWAP2 DIV MUL PUSH1 0x20 ADD PUSH1 0x40 MLOAD SWAP1 DUP2 ADD PUSH1 0x40 MSTORE DUP1 SWAP3 SWAP2 SWAP1 DUP2 DUP2 MSTORE PUSH1 0x20 ADD DUP3 DUP1 SLOAD PUSH2 0x3C3 SWAP1 PUSH2 0x15FC JUMP JUMPDEST DUP1 ISZERO PUSH2 0x410 JUMPI DUP1 PUSH1 0x1F LT PUSH2 0x3E5 JUMPI PUSH2 0x100 DUP1 DUP4 SLOAD DIV MUL DUP4 MSTORE SWAP2 PUSH1 0x20 ADD SWAP2 PUSH2 0x410 JUMP JUMPDEST DUP3 ADD SWAP2 SWAP1 PUSH1 0x0 MSTORE PUSH1 0x20 PUSH1 0x0 KECCAK256 SWAP1 JUMPDEST DUP2 SLOAD DUP2 MSTORE SWAP1 PUSH1 0x1 ADD SWAP1 PUSH1 0x20 ADD DUP1 DUP4 GT PUSH2 0x3F3 JUMPI DUP3 SWAP1 SUB PUSH1 0x1F AND DUP3 ADD SWAP2 JUMPDEST POP POP POP POP POP SWAP1 DUP1 PUSH1 0x1 ADD SLOAD SWAP1 DUP1 PUSH1 0x2 ADD DUP1 SLOAD PUSH2 0x42B SWAP1 PUSH2 0x15FC JUMP JUMPDEST DUP1 PUSH1 0x1F ADD PUSH1 0x20 DUP1 SWAP2 DIV MUL PUSH1 0x20 ADD PUSH1 0x40 MLOAD SWAP1 DUP2 ADD PUSH1 0x40 MSTORE DUP1 SWAP3 SWAP2 SWAP1 DUP2 DUP2 MSTORE PUSH1 0x20 ADD DUP3 DUP1 SLOAD PUSH2 0x457 SWAP1 PUSH2 0x15FC JUMP JUMPDEST DUP1 ISZERO PUSH2 0x4A4 JUMPI DUP1 PUSH1 0x1F LT PUSH2 0x479 JUMPI PUSH2 0x100 DUP1 DUP4 SLOAD DIV MUL DUP4 MSTORE SWAP2 PUSH1 0x20 ADD SWAP2 PUSH2 0x4A4 JUMP JUMPDEST DUP3 ADD SWAP2 SWAP1 PUSH1 0x0 MSTORE PUSH1 0x20 PUSH1 0x0 KECCAK256 SWAP1 JUMPDEST DUP2 SLOAD DUP2 MSTORE SWAP1 PUSH1 0x1 ADD SWAP1 PUSH1 0x20 ADD DUP1 DUP4 GT PUSH2 0x487 JUMPI DUP3 SWAP1 SUB PUSH1 0x1F AND DUP3 ADD SWAP2 JUMPDEST POP POP POP POP POP SWAP1 DUP1 PUSH1 0x3 ADD DUP1 SLOAD PUSH2 0x4B9 SWAP1 PUSH2 0x15FC JUMP JUMPDEST DUP1 PUSH1 0x1F ADD PUSH1 0x20 DUP1 SWAP2 DIV MUL PUSH1 0x20 ADD PUSH1 0x40 MLOAD SWAP1 DUP2 ADD PUSH1 0x40 MSTORE DUP1 SWAP3 SWAP2 SWAP1 DUP2 DUP2 MSTORE PUSH1 0x20 ADD DUP3 DUP1 SLOAD PUSH2 0x4E5 SWAP1 PUSH2 0x15FC JUMP JUMPDEST DUP1 ISZERO PUSH2 0x532 JUMPI DUP1 PUSH1 0x1F LT PUSH2 0x507 JUMPI PUSH2 0x100 DUP1 DUP4 SLOAD DIV MUL DUP4 MSTORE SWAP2 PUSH1 0x20 ADD SWAP2 PUSH2 0x532 JUMP JUMPDEST DUP3 ADD SWAP2 SWAP1 PUSH1 0x0 MSTORE PUSH1 0x20 PUSH1 0x0 KECCAK256 SWAP1 JUMPDEST DUP2 SLOAD DUP2 MSTORE SWAP1 PUSH1 0x1 ADD SWAP1 PUSH1 0x20 ADD DUP1 DUP4 GT PUSH2 0x515 JUMPI DUP3 SWAP1 SUB PUSH1 0x1F AND DUP3 ADD SWAP2 JUMPDEST POP POP POP POP POP SWAP1 DUP1 PUSH1 0x4 ADD DUP1 SLOAD PUSH2 0x547 SWAP1 PUSH2 0x15FC JUMP JUMPDEST DUP1 PUSH1 0x1F ADD PUSH1 0x20 DUP1 SWAP2 DIV MUL PUSH1 0x20 ADD PUSH1 0x40 MLOAD SWAP1 DUP2 ADD PUSH1 0x40 MSTORE DUP1 SWAP3 SWAP2 SWAP1 DUP2 DUP2 MSTORE PUSH1 0x20 ADD DUP3 DUP1 SLOAD PUSH2 0x573 SWAP1 PUSH2 0x15FC JUMP JUMPDEST DUP1 ISZERO PUSH2 0x5C0 JUMPI DUP1 PUSH1 0x1F LT PUSH2 0x595 JUMPI PUSH2 0x100 DUP1 DUP4 SLOAD DIV MUL DUP4 MSTORE SWAP2 PUSH1 0x20 ADD SWAP2 PUSH2 0x5C0 JUMP JUMPDEST DUP3 ADD SWAP2 SWAP1 PUSH1 0x0 MSTORE PUSH1 0x20 PUSH1 0x0 KECCAK256 SWAP1 JUMPDEST DUP2 SLOAD DUP2 MSTORE SWAP1 PUSH1 0x1 ADD SWAP1 PUSH1 0x20 ADD DUP1 DUP4 GT PUSH2 0x5A3 JUMPI DUP3 SWAP1 SUB PUSH1 0x1F AND DUP3 ADD SWAP2 JUMPDEST POP POP POP POP POP SWAP1 POP DUP6 JUMP JUMPDEST PUSH1 0x60 PUSH1 0x9 PUSH1 0x0 DUP4 DUP2 MSTORE PUSH1 0x20 ADD SWAP1 DUP2 MSTORE PUSH1 0x20 ADD PUSH1 0x0 KECCAK256 PUSH1 0x0 ADD DUP1 SLOAD PUSH2 0x5ED SWAP1 PUSH2 0x15FC JUMP JUMPDEST DUP1 PUSH1 0x1F ADD PUSH1 0x20 DUP1 SWAP2 DIV MUL PUSH1 0x20 ADD PUSH1 0x40 MLOAD SWAP1 DUP2 ADD PUSH1 0x40 MSTORE DUP1 SWAP3 SWAP2 SWAP1 DUP2 DUP2 MSTORE PUSH1 0x20 ADD DUP3 DUP1 SLOAD PUSH2 0x619 SWAP1 PUSH2 0x15FC JUMP JUMPDEST DUP1 ISZERO PUSH2 0x666 JUMPI DUP1 PUSH1 0x1F LT PUSH2 0x63B JUMPI PUSH2 0x100 DUP1 DUP4 SLOAD DIV MUL DUP4 MSTORE SWAP2 PUSH1 0x20 ADD SWAP2 PUSH2 0x666 JUMP JUMPDEST DUP3 ADD SWAP2 SWAP1 PUSH1 0x0 MSTORE PUSH1 0x20 PUSH1 0x0 KECCAK256 SWAP1 JUMPDEST DUP2 SLOAD DUP2 MSTORE SWAP1 PUSH1 0x1 ADD SWAP1 PUSH1 0x20 ADD DUP1 DUP4 GT PUSH2 0x649 JUMPI DUP3 SWAP1 SUB PUSH1 0x1F AND DUP3 ADD SWAP2 JUMPDEST POP POP POP POP POP SWAP1 POP SWAP2 SWAP1 POP JUMP JUMPDEST PUSH1 0x7 PUSH1 0x20 MSTORE DUP1 PUSH1 0x0 MSTORE PUSH1 0x40 PUSH1 0x0 KECCAK256 PUSH1 0x0 SWAP2 POP SLOAD SWAP1 PUSH2 0x100 EXP SWAP1 DIV PUSH1 0xFF AND DUP2 JUMP JUMPDEST PUSH1 0x9 PUSH1 0x20 MSTORE DUP1 PUSH1 0x0 MSTORE PUSH1 0x40 PUSH1 0x0 KECCAK256 PUSH1 0x0 SWAP2 POP SWAP1 POP DUP1 PUSH1 0x0 ADD DUP1 SLOAD PUSH2 0x6B5 SWAP1 PUSH2 0x15FC JUMP JUMPDEST DUP1 PUSH1 0x1F ADD PUSH1 0x20 DUP1 SWAP2 DIV MUL PUSH1 0x20 ADD PUSH1 0x40 MLOAD SWAP1 DUP2 ADD PUSH1 0x40 MSTORE DUP1 SWAP3 SWAP2 SWAP1 DUP2 DUP2 MSTORE PUSH1 0x20 ADD DUP3 DUP1 SLOAD PUSH2 0x6E1 SWAP1 PUSH2 0x15FC JUMP JUMPDEST DUP1 ISZERO PUSH2 0x72E JUMPI DUP1 PUSH1 0x1F LT PUSH2 0x703 JUMPI PUSH2 0x100 DUP1 DUP4 SLOAD DIV MUL DUP4 MSTORE SWAP2 PUSH1 0x20 ADD SWAP2 PUSH2 0x72E JUMP JUMPDEST DUP3 ADD SWAP2 SWAP1 PUSH1 0x0 MSTORE PUSH1 0x20 PUSH1 0x0 KECCAK256 SWAP1 JUMPDEST DUP2 SLOAD DUP2 MSTORE SWAP1 PUSH1 0x1 ADD SWAP1 PUSH1 0x20 ADD DUP1 DUP4 GT PUSH2 0x711 JUMPI DUP3 SWAP1 SUB PUSH1 0x1F AND DUP3 ADD SWAP2 JUMPDEST POP POP POP POP POP SWAP1 DUP1 PUSH1 0x1 ADD SLOAD SWAP1 POP DUP3 JUMP JUMPDEST PUSH1 0xA PUSH1 0x20 MSTORE DUP1 PUSH1 0x0 MSTORE PUSH1 0x40 PUSH1 0x0 KECCAK256 PUSH1 0x0 SWAP2 POP SLOAD SWAP1 PUSH2 0x100 EXP SWAP1 DIV PUSH1 0xFF AND DUP2 JUMP JUMPDEST PUSH1 0x8 SLOAD DUP2 JUMP JUMPDEST PUSH1 0x1 PUSH1 0x0 SWAP1 SLOAD SWAP1 PUSH2 0x100 EXP SWAP1 DIV PUSH20 0xFFFFFFFFFFFFFFFFFFFFFFFFFFFFFFFFFFFFFFFF AND DUP2 JUMP JUMPDEST PUSH1 0x0 DUP1 SLOAD SWAP1 PUSH2 0x100 EXP SWAP1 DIV PUSH20 0xFFFFFFFFFFFFFFFFFFFFFFFFFFFFFFFFFFFFFFFF AND DUP2 JUMP JUMPDEST PUSH1 0x0 PUSH1 0x40 MLOAD DUP1 PUSH1 0xA0 ADD PUSH1 0x40 MSTORE DUP1 DUP8 DUP2 MSTORE PUSH1 0x20 ADD DUP7 DUP2 MSTORE PUSH1 0x20 ADD DUP6 DUP2 MSTORE PUSH1 0x20 ADD DUP5 DUP2 MSTORE PUSH1 0x20 ADD DUP4 DUP2 MSTORE POP SWAP1 POP DUP1 PUSH1 0x2 PUSH1 0x0 DUP3 ADD MLOAD DUP2 PUSH1 0x0 ADD SWAP1 DUP1 MLOAD SWAP1 PUSH1 0x20 ADD SWAP1 PUSH2 0x7F8 SWAP3 SWAP2 SWAP1 PUSH2 0xFC8 JUMP JUMPDEST POP PUSH1 0x20 DUP3 ADD MLOAD DUP2 PUSH1 0x1 ADD SSTORE PUSH1 0x40 DUP3 ADD MLOAD DUP2 PUSH1 0x2 ADD SWAP1 DUP1 MLOAD SWAP1 PUSH1 0x20 ADD SWAP1 PUSH2 0x81F SWAP3 SWAP2 SWAP1 PUSH2 0xFC8 JUMP JUMPDEST POP PUSH1 0x60 DUP3 ADD MLOAD DUP2 PUSH1 0x3 ADD SWAP1 DUP1 MLOAD SWAP1 PUSH1 0x20 ADD SWAP1 PUSH2 0x83C SWAP3 SWAP2 SWAP1 PUSH2 0xFC8 JUMP JUMPDEST POP PUSH1 0x80 DUP3 ADD MLOAD DUP2 PUSH1 0x4 ADD SWAP1 DUP1 MLOAD SWAP1 PUSH1 0x20 ADD SWAP1 PUSH2 0x859 SWAP3 SWAP2 SWAP1 PUSH2 0xFC8 JUMP JUMPDEST POP SWAP1 POP POP POP POP POP POP POP POP JUMP JUMPDEST PUSH1 0xC SLOAD DUP2 JUMP JUMPDEST PUSH1 0x0 PUSH1 0x40 MLOAD DUP1 PUSH1 0x40 ADD PUSH1 0x40 MSTORE DUP1 DUP5 DUP2 MSTORE PUSH1 0x20 ADD TIMESTAMP DUP2 MSTORE POP SWAP1 POP DUP1 PUSH1 0x9 PUSH1 0x0 PUSH1 0x8 SLOAD DUP2 MSTORE PUSH1 0x20 ADD SWAP1 DUP2 MSTORE PUSH1 0x20 ADD PUSH1 0x0 KECCAK256 PUSH1 0x0 DUP3 ADD MLOAD DUP2 PUSH1 0x0 ADD SWAP1 DUP1 MLOAD SWAP1 PUSH1 0x20 ADD SWAP1 PUSH2 0x8B6 SWAP3 SWAP2 SWAP1 PUSH2 0xFC8 JUMP JUMPDEST POP PUSH1 0x20 DUP3 ADD MLOAD DUP2 PUSH1 0x1 ADD SSTORE SWAP1 POP POP PUSH1 0x0 DUP1 PUSH1 0x0 DUP1 SLOAD SWAP1 PUSH2 0x100 EXP SWAP1 DIV PUSH20 0xFFFFFFFFFFFFFFFFFFFFFFFFFFFFFFFFFFFFFFFF AND PUSH20 0xFFFFFFFFFFFFFFFFFFFFFFFFFFFFFFFFFFFFFFFF AND DUP5 PUSH1 0x40 MLOAD PUSH1 0x24 ADD PUSH2 0x90F SWAP2 SWAP1 PUSH2 0x130C JUMP JUMPDEST PUSH1 0x40 MLOAD PUSH1 0x20 DUP2 DUP4 SUB SUB DUP2 MSTORE SWAP1 PUSH1 0x40 MSTORE PUSH32 0x15FE62E600000000000000000000000000000000000000000000000000000000 PUSH28 0xFFFFFFFFFFFFFFFFFFFFFFFFFFFFFFFFFFFFFFFFFFFFFFFFFFFFFFFF NOT AND PUSH1 0x20 DUP3 ADD DUP1 MLOAD PUSH28 0xFFFFFFFFFFFFFFFFFFFFFFFFFFFFFFFFFFFFFFFFFFFFFFFFFFFFFFFF DUP4 DUP2 DUP4 AND OR DUP4 MSTORE POP POP POP POP PUSH1 0x40 MLOAD PUSH2 0x999 SWAP2 SWAP1 PUSH2 0x1675 JUMP JUMPDEST PUSH1 0x0 PUSH1 0x40 MLOAD DUP1 DUP4 SUB DUP2 PUSH1 0x0 DUP7 GAS CALL SWAP2 POP POP RETURNDATASIZE DUP1 PUSH1 0x0 DUP2 EQ PUSH2 0x9D6 JUMPI PUSH1 0x40 MLOAD SWAP2 POP PUSH1 0x1F NOT PUSH1 0x3F RETURNDATASIZE ADD AND DUP3 ADD PUSH1 0x40 MSTORE RETURNDATASIZE DUP3 MSTORE RETURNDATASIZE PUSH1 0x0 PUSH1 0x20 DUP5 ADD RETURNDATACOPY PUSH2 0x9DB JUMP JUMPDEST PUSH1 0x60 SWAP2 POP JUMPDEST POP SWAP2 POP SWAP2 POP DUP2 PUSH2 0xA20 JUMPI PUSH1 0x40 MLOAD PUSH32 0x8C379A000000000000000000000000000000000000000000000000000000000 DUP2 MSTORE PUSH1 0x4 ADD PUSH2 0xA17 SWAP1 PUSH2 0x16D8 JUMP JUMPDEST PUSH1 0x40 MLOAD DUP1 SWAP2 SUB SWAP1 REVERT JUMPDEST PUSH1 0x0 DUP2 DUP1 PUSH1 0x20 ADD SWAP1 MLOAD DUP2 ADD SWAP1 PUSH2 0xA36 SWAP2 SWAP1 PUSH2 0x1736 JUMP JUMPDEST SWAP1 POP PUSH1 0x0 ISZERO ISZERO PUSH1 0xD PUSH1 0x0 DUP4 PUSH20 0xFFFFFFFFFFFFFFFFFFFFFFFFFFFFFFFFFFFFFFFF AND PUSH20 0xFFFFFFFFFFFFFFFFFFFFFFFFFFFFFFFFFFFFFFFF AND DUP2 MSTORE PUSH1 0x20 ADD SWAP1 DUP2 MSTORE PUSH1 0x20 ADD PUSH1 0x0 KECCAK256 PUSH1 0x0 SWAP1 SLOAD SWAP1 PUSH2 0x100 EXP SWAP1 DIV PUSH1 0xFF AND ISZERO ISZERO EQ ISZERO PUSH2 0xB58 JUMPI DUP1 PUSH1 0xB PUSH1 0x0 PUSH1 0xC SLOAD DUP2 MSTORE PUSH1 0x20 ADD SWAP1 DUP2 MSTORE PUSH1 0x20 ADD PUSH1 0x0 KECCAK256 PUSH1 0x0 PUSH2 0x100 EXP DUP2 SLOAD DUP2 PUSH20 0xFFFFFFFFFFFFFFFFFFFFFFFFFFFFFFFFFFFFFFFF MUL NOT AND SWAP1 DUP4 PUSH20 0xFFFFFFFFFFFFFFFFFFFFFFFFFFFFFFFFFFFFFFFF AND MUL OR SWAP1 SSTORE POP PUSH1 0x1 PUSH1 0xC PUSH1 0x0 DUP3 DUP3 SLOAD PUSH2 0xAF8 SWAP2 SWAP1 PUSH2 0x1792 JUMP JUMPDEST SWAP3 POP POP DUP2 SWAP1 SSTORE POP PUSH1 0x1 PUSH1 0xD PUSH1 0x0 DUP4 PUSH20 0xFFFFFFFFFFFFFFFFFFFFFFFFFFFFFFFFFFFFFFFF AND PUSH20 0xFFFFFFFFFFFFFFFFFFFFFFFFFFFFFFFFFFFFFFFF AND DUP2 MSTORE PUSH1 0x20 ADD SWAP1 DUP2 MSTORE PUSH1 0x20 ADD PUSH1 0x0 KECCAK256 PUSH1 0x0 PUSH2 0x100 EXP DUP2 SLOAD DUP2 PUSH1 0xFF MUL NOT AND SWAP1 DUP4 ISZERO ISZERO MUL OR SWAP1 SSTORE POP JUMPDEST PUSH32 0x61A7191FA43DD24DA3681728A7FC2C57614CF4AA128B0530C974742CBBF07E23 DUP2 PUSH1 0x40 MLOAD PUSH2 0xB87 SWAP2 SWAP1 PUSH2 0x1336 JUMP JUMPDEST PUSH1 0x40 MLOAD DUP1 SWAP2 SUB SWAP1 LOG1 PUSH1 0x0 DUP2 PUSH20 0xFFFFFFFFFFFFFFFFFFFFFFFFFFFFFFFFFFFFFFFF AND PUSH1 0x8 SLOAD PUSH1 0x1 PUSH1 0x0 SWAP1 SLOAD SWAP1 PUSH2 0x100 EXP SWAP1 DIV PUSH20 0xFFFFFFFFFFFFFFFFFFFFFFFFFFFFFFFFFFFFFFFF AND PUSH1 0x40 MLOAD PUSH1 0x24 ADD PUSH2 0xBDF SWAP3 SWAP2 SWAP1 PUSH2 0x17E8 JUMP JUMPDEST PUSH1 0x40 MLOAD PUSH1 0x20 DUP2 DUP4 SUB SUB DUP2 MSTORE SWAP1 PUSH1 0x40 MSTORE PUSH32 0x376F4E4900000000000000000000000000000000000000000000000000000000 PUSH28 0xFFFFFFFFFFFFFFFFFFFFFFFFFFFFFFFFFFFFFFFFFFFFFFFFFFFFFFFF NOT AND PUSH1 0x20 DUP3 ADD DUP1 MLOAD PUSH28 0xFFFFFFFFFFFFFFFFFFFFFFFFFFFFFFFFFFFFFFFFFFFFFFFFFFFFFFFF DUP4 DUP2 DUP4 AND OR DUP4 MSTORE POP POP POP POP PUSH1 0x40 MLOAD PUSH2 0xC69 SWAP2 SWAP1 PUSH2 0x1675 JUMP JUMPDEST PUSH1 0x0 PUSH1 0x40 MLOAD DUP1 DUP4 SUB DUP2 PUSH1 0x0 DUP7 GAS CALL SWAP2 POP POP RETURNDATASIZE DUP1 PUSH1 0x0 DUP2 EQ PUSH2 0xCA6 JUMPI PUSH1 0x40 MLOAD SWAP2 POP PUSH1 0x1F NOT PUSH1 0x3F RETURNDATASIZE ADD AND DUP3 ADD PUSH1 0x40 MSTORE RETURNDATASIZE DUP3 MSTORE RETURNDATASIZE PUSH1 0x0 PUSH1 0x20 DUP5 ADD RETURNDATACOPY PUSH2 0xCAB JUMP JUMPDEST PUSH1 0x60 SWAP2 POP JUMPDEST POP POP SWAP1 POP PUSH1 0x1 PUSH1 0x8 PUSH1 0x0 DUP3 DUP3 SLOAD PUSH2 0xCC2 SWAP2 SWAP1 PUSH2 0x1792 JUMP JUMPDEST SWAP3 POP POP DUP2 SWAP1 SSTORE POP DUP1 PUSH2 0xD09 JUMPI PUSH1 0x40 MLOAD PUSH32 0x8C379A000000000000000000000000000000000000000000000000000000000 DUP2 MSTORE PUSH1 0x4 ADD PUSH2 0xD00 SWAP1 PUSH2 0x185D JUMP JUMPDEST PUSH1 0x40 MLOAD DUP1 SWAP2 SUB SWAP1 REVERT JUMPDEST POP POP POP POP POP POP POP JUMP JUMPDEST PUSH1 0x60 PUSH1 0x0 PUSH1 0x60 DUP1 PUSH1 0x60 PUSH1 0x2 PUSH1 0x0 ADD PUSH1 0x2 PUSH1 0x1 ADD SLOAD PUSH1 0x2 DUP1 ADD PUSH1 0x2 PUSH1 0x3 ADD PUSH1 0x2 PUSH1 0x4 ADD DUP5 DUP1 SLOAD PUSH2 0xD40 SWAP1 PUSH2 0x15FC JUMP JUMPDEST DUP1 PUSH1 0x1F ADD PUSH1 0x20 DUP1 SWAP2 DIV MUL PUSH1 0x20 ADD PUSH1 0x40 MLOAD SWAP1 DUP2 ADD PUSH1 0x40 MSTORE DUP1 SWAP3 SWAP2 SWAP1 DUP2 DUP2 MSTORE PUSH1 0x20 ADD DUP3 DUP1 SLOAD PUSH2 0xD6C SWAP1 PUSH2 0x15FC JUMP JUMPDEST DUP1 ISZERO PUSH2 0xDB9 JUMPI DUP1 PUSH1 0x1F LT PUSH2 0xD8E JUMPI PUSH2 0x100 DUP1 DUP4 SLOAD DIV MUL DUP4 MSTORE SWAP2 PUSH1 0x20 ADD SWAP2 PUSH2 0xDB9 JUMP JUMPDEST DUP3 ADD SWAP2 SWAP1 PUSH1 0x0 MSTORE PUSH1 0x20 PUSH1 0x0 KECCAK256 SWAP1 JUMPDEST DUP2 SLOAD DUP2 MSTORE SWAP1 PUSH1 0x1 ADD SWAP1 PUSH1 0x20 ADD DUP1 DUP4 GT PUSH2 0xD9C JUMPI DUP3 SWAP1 SUB PUSH1 0x1F AND DUP3 ADD SWAP2 JUMPDEST POP POP POP POP POP SWAP5 POP DUP3 DUP1 SLOAD PUSH2 0xDCC SWAP1 PUSH2 0x15FC JUMP JUMPDEST DUP1 PUSH1 0x1F ADD PUSH1 0x20 DUP1 SWAP2 DIV MUL PUSH1 0x20 ADD PUSH1 0x40 MLOAD SWAP1 DUP2 ADD PUSH1 0x40 MSTORE DUP1 SWAP3 SWAP2 SWAP1 DUP2 DUP2 MSTORE PUSH1 0x20 ADD DUP3 DUP1 SLOAD PUSH2 0xDF8 SWAP1 PUSH2 0x15FC JUMP JUMPDEST DUP1 ISZERO PUSH2 0xE45 JUMPI DUP1 PUSH1 0x1F LT PUSH2 0xE1A JUMPI PUSH2 0x100 DUP1 DUP4 SLOAD DIV MUL DUP4 MSTORE SWAP2 PUSH1 0x20 ADD SWAP2 PUSH2 0xE45 JUMP JUMPDEST DUP3 ADD SWAP2 SWAP1 PUSH1 0x0 MSTORE PUSH1 0x20 PUSH1 0x0 KECCAK256 SWAP1 JUMPDEST DUP2 SLOAD DUP2 MSTORE SWAP1 PUSH1 0x1 ADD SWAP1 PUSH1 0x20 ADD DUP1 DUP4 GT PUSH2 0xE28 JUMPI DUP3 SWAP1 SUB PUSH1 0x1F AND DUP3 ADD SWAP2 JUMPDEST POP POP POP POP POP SWAP3 POP DUP2 DUP1 SLOAD PUSH2 0xE58 SWAP1 PUSH2 0x15FC JUMP JUMPDEST DUP1 PUSH1 0x1F ADD PUSH1 0x20 DUP1 SWAP2 DIV MUL PUSH1 0x20 ADD PUSH1 0x40 MLOAD SWAP1 DUP2 ADD PUSH1 0x40 MSTORE DUP1 SWAP3 SWAP2 SWAP1 DUP2 DUP2 MSTORE PUSH1 0x20 ADD DUP3 DUP1 SLOAD PUSH2 0xE84 SWAP1 PUSH2 0x15FC JUMP JUMPDEST DUP1 ISZERO PUSH2 0xED1 JUMPI DUP1 PUSH1 0x1F LT PUSH2 0xEA6 JUMPI PUSH2 0x100 DUP1 DUP4 SLOAD DIV MUL DUP4 MSTORE SWAP2 PUSH1 0x20 ADD SWAP2 PUSH2 0xED1 JUMP JUMPDEST DUP3 ADD SWAP2 SWAP1 PUSH1 0x0 MSTORE PUSH1 0x20 PUSH1 0x0 KECCAK256 SWAP1 JUMPDEST DUP2 SLOAD DUP2 MSTORE SWAP1 PUSH1 0x1 ADD SWAP1 PUSH1 0x20 ADD DUP1 DUP4 GT PUSH2 0xEB4 JUMPI DUP3 SWAP1 SUB PUSH1 0x1F AND DUP3 ADD SWAP2 JUMPDEST POP POP POP POP POP SWAP2 POP DUP1 DUP1 SLOAD PUSH2 0xEE4 SWAP1 PUSH2 0x15FC JUMP JUMPDEST DUP1 PUSH1 0x1F ADD PUSH1 0x20 DUP1 SWAP2 DIV MUL PUSH1 0x20 ADD PUSH1 0x40 MLOAD SWAP1 DUP2 ADD PUSH1 0x40 MSTORE DUP1 SWAP3 SWAP2 SWAP1 DUP2 DUP2 MSTORE PUSH1 0x20 ADD DUP3 DUP1 SLOAD PUSH2 0xF10 SWAP1 PUSH2 0x15FC JUMP JUMPDEST DUP1 ISZERO PUSH2 0xF5D JUMPI DUP1 PUSH1 0x1F LT PUSH2 0xF32 JUMPI PUSH2 0x100 DUP1 DUP4 SLOAD DIV MUL DUP4 MSTORE SWAP2 PUSH1 0x20 ADD SWAP2 PUSH2 0xF5D JUMP JUMPDEST DUP3 ADD SWAP2 SWAP1 PUSH1 0x0 MSTORE PUSH1 0x20 PUSH1 0x0 KECCAK256 SWAP1 JUMPDEST DUP2 SLOAD DUP2 MSTORE SWAP1 PUSH1 0x1 ADD SWAP1 PUSH1 0x20 ADD DUP1 DUP4 GT PUSH2 0xF40 JUMPI DUP3 SWAP1 SUB PUSH1 0x1F AND DUP3 ADD SWAP2 JUMPDEST POP POP POP POP POP SWAP1 POP SWAP5 POP SWAP5 POP SWAP5 POP SWAP5 POP SWAP5 POP SWAP1 SWAP2 SWAP3 SWAP4 SWAP5 JUMP JUMPDEST PUSH1 0xD PUSH1 0x20 MSTORE DUP1 PUSH1 0x0 MSTORE PUSH1 0x40 PUSH1 0x0 KECCAK256 PUSH1 0x0 SWAP2 POP SLOAD SWAP1 PUSH2 0x100 EXP SWAP1 DIV PUSH1 0xFF AND DUP2 JUMP JUMPDEST PUSH1 0xB PUSH1 0x20 MSTORE DUP1 PUSH1 0x0 MSTORE PUSH1 0x40 PUSH1 0x0 KECCAK256 PUSH1 0x0 SWAP2 POP SLOAD SWAP1 PUSH2 0x100 EXP SWAP1 DIV PUSH20 0xFFFFFFFFFFFFFFFFFFFFFFFFFFFFFFFFFFFFFFFF AND DUP2 JUMP JUMPDEST DUP3 DUP1 SLOAD PUSH2 0xFD4 SWAP1 PUSH2 0x15FC JUMP JUMPDEST SWAP1 PUSH1 0x0 MSTORE PUSH1 0x20 PUSH1 0x0 KECCAK256 SWAP1 PUSH1 0x1F ADD PUSH1 0x20 SWAP1 DIV DUP2 ADD SWAP3 DUP3 PUSH2 0xFF6 JUMPI PUSH1 0x0 DUP6 SSTORE PUSH2 0x103D JUMP JUMPDEST DUP3 PUSH1 0x1F LT PUSH2 0x100F JUMPI DUP1 MLOAD PUSH1 0xFF NOT AND DUP4 DUP1 ADD OR DUP6 SSTORE PUSH2 0x103D JUMP JUMPDEST DUP3 DUP1 ADD PUSH1 0x1 ADD DUP6 SSTORE DUP3 ISZERO PUSH2 0x103D JUMPI SWAP2 DUP3 ADD JUMPDEST DUP3 DUP2 GT ISZERO PUSH2 0x103C JUMPI DUP3 MLOAD DUP3 SSTORE SWAP2 PUSH1 0x20 ADD SWAP2 SWAP1 PUSH1 0x1 ADD SWAP1 PUSH2 0x1021 JUMP JUMPDEST JUMPDEST POP SWAP1 POP PUSH2 0x104A SWAP2 SWAP1 PUSH2 0x104E JUMP JUMPDEST POP SWAP1 JUMP JUMPDEST JUMPDEST DUP1 DUP3 GT ISZERO PUSH2 0x1067 JUMPI PUSH1 0x0 DUP2 PUSH1 0x0 SWAP1 SSTORE POP PUSH1 0x1 ADD PUSH2 0x104F JUMP JUMPDEST POP SWAP1 JUMP JUMPDEST PUSH1 0x0 PUSH1 0x40 MLOAD SWAP1 POP SWAP1 JUMP JUMPDEST PUSH1 0x0 DUP1 REVERT JUMPDEST PUSH1 0x0 DUP1 REVERT JUMPDEST PUSH1 0x0 PUSH20 0xFFFFFFFFFFFFFFFFFFFFFFFFFFFFFFFFFFFFFFFF DUP3 AND SWAP1 POP SWAP2 SWAP1 POP JUMP JUMPDEST PUSH1 0x0 PUSH2 0x10AA DUP3 PUSH2 0x107F JUMP JUMPDEST SWAP1 POP SWAP2 SWAP1 POP JUMP JUMPDEST PUSH2 0x10BA DUP2 PUSH2 0x109F JUMP JUMPDEST DUP2 EQ PUSH2 0x10C5 JUMPI PUSH1 0x0 DUP1 REVERT JUMPDEST POP JUMP JUMPDEST PUSH1 0x0 DUP2 CALLDATALOAD SWAP1 POP PUSH2 0x10D7 DUP2 PUSH2 0x10B1 JUMP JUMPDEST SWAP3 SWAP2 POP POP JUMP JUMPDEST PUSH1 0x0 PUSH1 0x20 DUP3 DUP5 SUB SLT ISZERO PUSH2 0x10F3 JUMPI PUSH2 0x10F2 PUSH2 0x1075 JUMP JUMPDEST JUMPDEST PUSH1 0x0 PUSH2 0x1101 DUP5 DUP3 DUP6 ADD PUSH2 0x10C8 JUMP JUMPDEST SWAP2 POP POP SWAP3 SWAP2 POP POP JUMP JUMPDEST PUSH1 0x0 DUP2 MLOAD SWAP1 POP SWAP2 SWAP1 POP JUMP JUMPDEST PUSH1 0x0 DUP3 DUP3 MSTORE PUSH1 0x20 DUP3 ADD SWAP1 POP SWAP3 SWAP2 POP POP JUMP JUMPDEST PUSH1 0x0 JUMPDEST DUP4 DUP2 LT ISZERO PUSH2 0x1144 JUMPI DUP1 DUP3 ADD MLOAD DUP2 DUP5 ADD MSTORE PUSH1 0x20 DUP2 ADD SWAP1 POP PUSH2 0x1129 JUMP JUMPDEST DUP4 DUP2 GT ISZERO PUSH2 0x1153 JUMPI PUSH1 0x0 DUP5 DUP5 ADD MSTORE JUMPDEST POP POP POP POP JUMP JUMPDEST PUSH1 0x0 PUSH1 0x1F NOT PUSH1 0x1F DUP4 ADD AND SWAP1 POP SWAP2 SWAP1 POP JUMP JUMPDEST PUSH1 0x0 PUSH2 0x1175 DUP3 PUSH2 0x110A JUMP JUMPDEST PUSH2 0x117F DUP2 DUP6 PUSH2 0x1115 JUMP JUMPDEST SWAP4 POP PUSH2 0x118F DUP2 DUP6 PUSH1 0x20 DUP7 ADD PUSH2 0x1126 JUMP JUMPDEST PUSH2 0x1198 DUP2 PUSH2 0x1159 JUMP JUMPDEST DUP5 ADD SWAP2 POP POP SWAP3 SWAP2 POP POP JUMP JUMPDEST PUSH1 0x0 DUP2 SWAP1 POP SWAP2 SWAP1 POP JUMP JUMPDEST PUSH2 0x11B6 DUP2 PUSH2 0x11A3 JUMP JUMPDEST DUP3 MSTORE POP POP JUMP JUMPDEST PUSH1 0x0 PUSH1 0xA0 DUP3 ADD SWAP1 POP DUP2 DUP2 SUB PUSH1 0x0 DUP4 ADD MSTORE PUSH2 0x11D6 DUP2 DUP9 PUSH2 0x116A JUMP JUMPDEST SWAP1 POP PUSH2 0x11E5 PUSH1 0x20 DUP4 ADD DUP8 PUSH2 0x11AD JUMP JUMPDEST DUP2 DUP2 SUB PUSH1 0x40 DUP4 ADD MSTORE PUSH2 0x11F7 DUP2 DUP7 PUSH2 0x116A JUMP JUMPDEST SWAP1 POP DUP2 DUP2 SUB PUSH1 0x60 DUP4 ADD MSTORE PUSH2 0x120B DUP2 DUP6 PUSH2 0x116A JUMP JUMPDEST SWAP1 POP DUP2 DUP2 SUB PUSH1 0x80 DUP4 ADD MSTORE PUSH2 0x121F DUP2 DUP5 PUSH2 0x116A JUMP JUMPDEST SWAP1 POP SWAP7 SWAP6 POP POP POP POP POP POP JUMP JUMPDEST PUSH2 0x1234 DUP2 PUSH2 0x11A3 JUMP JUMPDEST DUP2 EQ PUSH2 0x123F JUMPI PUSH1 0x0 DUP1 REVERT JUMPDEST POP JUMP JUMPDEST PUSH1 0x0 DUP2 CALLDATALOAD SWAP1 POP PUSH2 0x1251 DUP2 PUSH2 0x122B JUMP JUMPDEST SWAP3 SWAP2 POP POP JUMP JUMPDEST PUSH1 0x0 PUSH1 0x20 DUP3 DUP5 SUB SLT ISZERO PUSH2 0x126D JUMPI PUSH2 0x126C PUSH2 0x1075 JUMP JUMPDEST JUMPDEST PUSH1 0x0 PUSH2 0x127B DUP5 DUP3 DUP6 ADD PUSH2 0x1242 JUMP JUMPDEST SWAP2 POP POP SWAP3 SWAP2 POP POP JUMP JUMPDEST PUSH1 0x0 PUSH1 0x20 DUP3 ADD SWAP1 POP DUP2 DUP2 SUB PUSH1 0x0 DUP4 ADD MSTORE PUSH2 0x129E DUP2 DUP5 PUSH2 0x116A JUMP JUMPDEST SWAP1 POP SWAP3 SWAP2 POP POP JUMP JUMPDEST PUSH1 0x0 DUP2 ISZERO ISZERO SWAP1 POP SWAP2 SWAP1 POP JUMP JUMPDEST PUSH2 0x12BB DUP2 PUSH2 0x12A6 JUMP JUMPDEST DUP3 MSTORE POP POP JUMP JUMPDEST PUSH1 0x0 PUSH1 0x20 DUP3 ADD SWAP1 POP PUSH2 0x12D6 PUSH1 0x0 DUP4 ADD DUP5 PUSH2 0x12B2 JUMP JUMPDEST SWAP3 SWAP2 POP POP JUMP JUMPDEST PUSH1 0x0 PUSH1 0x40 DUP3 ADD SWAP1 POP DUP2 DUP2 SUB PUSH1 0x0 DUP4 ADD MSTORE PUSH2 0x12F6 DUP2 DUP6 PUSH2 0x116A JUMP JUMPDEST SWAP1 POP PUSH2 0x1305 PUSH1 0x20 DUP4 ADD DUP5 PUSH2 0x11AD JUMP JUMPDEST SWAP4 SWAP3 POP POP POP JUMP JUMPDEST PUSH1 0x0 PUSH1 0x20 DUP3 ADD SWAP1 POP PUSH2 0x1321 PUSH1 0x0 DUP4 ADD DUP5 PUSH2 0x11AD JUMP JUMPDEST SWAP3 SWAP2 POP POP JUMP JUMPDEST PUSH2 0x1330 DUP2 PUSH2 0x109F JUMP JUMPDEST DUP3 MSTORE POP POP JUMP JUMPDEST PUSH1 0x0 PUSH1 0x20 DUP3 ADD SWAP1 POP PUSH2 0x134B PUSH1 0x0 DUP4 ADD DUP5 PUSH2 0x1327 JUMP JUMPDEST SWAP3 SWAP2 POP POP JUMP JUMPDEST PUSH1 0x0 DUP1 REVERT JUMPDEST PUSH1 0x0 DUP1 REVERT JUMPDEST PUSH32 0x4E487B7100000000000000000000000000000000000000000000000000000000 PUSH1 0x0 MSTORE PUSH1 0x41 PUSH1 0x4 MSTORE PUSH1 0x24 PUSH1 0x0 REVERT JUMPDEST PUSH2 0x1393 DUP3 PUSH2 0x1159 JUMP JUMPDEST DUP2 ADD DUP2 DUP2 LT PUSH8 0xFFFFFFFFFFFFFFFF DUP3 GT OR ISZERO PUSH2 0x13B2 JUMPI PUSH2 0x13B1 PUSH2 0x135B JUMP JUMPDEST JUMPDEST DUP1 PUSH1 0x40 MSTORE POP POP POP JUMP JUMPDEST PUSH1 0x0 PUSH2 0x13C5 PUSH2 0x106B JUMP JUMPDEST SWAP1 POP PUSH2 0x13D1 DUP3 DUP3 PUSH2 0x138A JUMP JUMPDEST SWAP2 SWAP1 POP JUMP JUMPDEST PUSH1 0x0 PUSH8 0xFFFFFFFFFFFFFFFF DUP3 GT ISZERO PUSH2 0x13F1 JUMPI PUSH2 0x13F0 PUSH2 0x135B JUMP JUMPDEST JUMPDEST PUSH2 0x13FA DUP3 PUSH2 0x1159 JUMP JUMPDEST SWAP1 POP PUSH1 0x20 DUP2 ADD SWAP1 POP SWAP2 SWAP1 POP JUMP JUMPDEST DUP3 DUP2 DUP4 CALLDATACOPY PUSH1 0x0 DUP4 DUP4 ADD MSTORE POP POP POP JUMP JUMPDEST PUSH1 0x0 PUSH2 0x1429 PUSH2 0x1424 DUP5 PUSH2 0x13D6 JUMP JUMPDEST PUSH2 0x13BB JUMP JUMPDEST SWAP1 POP DUP3 DUP2 MSTORE PUSH1 0x20 DUP2 ADD DUP5 DUP5 DUP5 ADD GT ISZERO PUSH2 0x1445 JUMPI PUSH2 0x1444 PUSH2 0x1356 JUMP JUMPDEST JUMPDEST PUSH2 0x1450 DUP5 DUP3 DUP6 PUSH2 0x1407 JUMP JUMPDEST POP SWAP4 SWAP3 POP POP POP JUMP JUMPDEST PUSH1 0x0 DUP3 PUSH1 0x1F DUP4 ADD SLT PUSH2 0x146D JUMPI PUSH2 0x146C PUSH2 0x1351 JUMP JUMPDEST JUMPDEST DUP2 CALLDATALOAD PUSH2 0x147D DUP5 DUP3 PUSH1 0x20 DUP7 ADD PUSH2 0x1416 JUMP JUMPDEST SWAP2 POP POP SWAP3 SWAP2 POP POP JUMP JUMPDEST PUSH1 0x0 DUP1 PUSH1 0x0 DUP1 PUSH1 0x0 PUSH1 0xA0 DUP7 DUP9 SUB SLT ISZERO PUSH2 0x14A2 JUMPI PUSH2 0x14A1 PUSH2 0x1075 JUMP JUMPDEST JUMPDEST PUSH1 0x0 DUP7 ADD CALLDATALOAD PUSH8 0xFFFFFFFFFFFFFFFF DUP2 GT ISZERO PUSH2 0x14C0 JUMPI PUSH2 0x14BF PUSH2 0x107A JUMP JUMPDEST JUMPDEST PUSH2 0x14CC DUP9 DUP3 DUP10 ADD PUSH2 0x1458 JUMP JUMPDEST SWAP6 POP POP PUSH1 0x20 PUSH2 0x14DD DUP9 DUP3 DUP10 ADD PUSH2 0x1242 JUMP JUMPDEST SWAP5 POP POP PUSH1 0x40 DUP7 ADD CALLDATALOAD PUSH8 0xFFFFFFFFFFFFFFFF DUP2 GT ISZERO PUSH2 0x14FE JUMPI PUSH2 0x14FD PUSH2 0x107A JUMP JUMPDEST JUMPDEST PUSH2 0x150A DUP9 DUP3 DUP10 ADD PUSH2 0x1458 JUMP JUMPDEST SWAP4 POP POP PUSH1 0x60 DUP7 ADD CALLDATALOAD PUSH8 0xFFFFFFFFFFFFFFFF DUP2 GT ISZERO PUSH2 0x152B JUMPI PUSH2 0x152A PUSH2 0x107A JUMP JUMPDEST JUMPDEST PUSH2 0x1537 DUP9 DUP3 DUP10 ADD PUSH2 0x1458 JUMP JUMPDEST SWAP3 POP POP PUSH1 0x80 DUP7 ADD CALLDATALOAD PUSH8 0xFFFFFFFFFFFFFFFF DUP2 GT ISZERO PUSH2 0x1558 JUMPI PUSH2 0x1557 PUSH2 0x107A JUMP JUMPDEST JUMPDEST PUSH2 0x1564 DUP9 DUP3 DUP10 ADD PUSH2 0x1458 JUMP JUMPDEST SWAP2 POP POP SWAP3 SWAP6 POP SWAP3 SWAP6 SWAP1 SWAP4 POP JUMP JUMPDEST PUSH1 0x0 DUP1 PUSH1 0x40 DUP4 DUP6 SUB SLT ISZERO PUSH2 0x1588 JUMPI PUSH2 0x1587 PUSH2 0x1075 JUMP JUMPDEST JUMPDEST PUSH1 0x0 DUP4 ADD CALLDATALOAD PUSH8 0xFFFFFFFFFFFFFFFF DUP2 GT ISZERO PUSH2 0x15A6 JUMPI PUSH2 0x15A5 PUSH2 0x107A JUMP JUMPDEST JUMPDEST PUSH2 0x15B2 DUP6 DUP3 DUP7 ADD PUSH2 0x1458 JUMP JUMPDEST SWAP3 POP POP PUSH1 0x20 PUSH2 0x15C3 DUP6 DUP3 DUP7 ADD PUSH2 0x1242 JUMP JUMPDEST SWAP2 POP POP SWAP3 POP SWAP3 SWAP1 POP JUMP JUMPDEST PUSH32 0x4E487B7100000000000000000000000000000000000000000000000000000000 PUSH1 0x0 MSTORE PUSH1 0x22 PUSH1 0x4 MSTORE PUSH1 0x24 PUSH1 0x0 REVERT JUMPDEST PUSH1 0x0 PUSH1 0x2 DUP3 DIV SWAP1 POP PUSH1 0x1 DUP3 AND DUP1 PUSH2 0x1614 JUMPI PUSH1 0x7F DUP3 AND SWAP2 POP JUMPDEST PUSH1 0x20 DUP3 LT DUP2 EQ ISZERO PUSH2 0x1628 JUMPI PUSH2 0x1627 PUSH2 0x15CD JUMP JUMPDEST JUMPDEST POP SWAP2 SWAP1 POP JUMP JUMPDEST PUSH1 0x0 DUP2 MLOAD SWAP1 POP SWAP2 SWAP1 POP JUMP JUMPDEST PUSH1 0x0 DUP2 SWAP1 POP SWAP3 SWAP2 POP POP JUMP JUMPDEST PUSH1 0x0 PUSH2 0x164F DUP3 PUSH2 0x162E JUMP JUMPDEST PUSH2 0x1659 DUP2 DUP6 PUSH2 0x1639 JUMP JUMPDEST SWAP4 POP PUSH2 0x1669 DUP2 DUP6 PUSH1 0x20 DUP7 ADD PUSH2 0x1126 JUMP JUMPDEST DUP1 DUP5 ADD SWAP2 POP POP SWAP3 SWAP2 POP POP JUMP JUMPDEST PUSH1 0x0 PUSH2 0x1681 DUP3 DUP5 PUSH2 0x1644 JUMP JUMPDEST SWAP2 POP DUP2 SWAP1 POP SWAP3 SWAP2 POP POP JUMP JUMPDEST PUSH32 0x736F6D65206572726F7231000000000000000000000000000000000000000000 PUSH1 0x0 DUP3 ADD MSTORE POP JUMP JUMPDEST PUSH1 0x0 PUSH2 0x16C2 PUSH1 0xB DUP4 PUSH2 0x1115 JUMP JUMPDEST SWAP2 POP PUSH2 0x16CD DUP3 PUSH2 0x168C JUMP JUMPDEST PUSH1 0x20 DUP3 ADD SWAP1 POP SWAP2 SWAP1 POP JUMP JUMPDEST PUSH1 0x0 PUSH1 0x20 DUP3 ADD SWAP1 POP DUP2 DUP2 SUB PUSH1 0x0 DUP4 ADD MSTORE PUSH2 0x16F1 DUP2 PUSH2 0x16B5 JUMP JUMPDEST SWAP1 POP SWAP2 SWAP1 POP JUMP JUMPDEST PUSH1 0x0 PUSH2 0x1703 DUP3 PUSH2 0x107F JUMP JUMPDEST SWAP1 POP SWAP2 SWAP1 POP JUMP JUMPDEST PUSH2 0x1713 DUP2 PUSH2 0x16F8 JUMP JUMPDEST DUP2 EQ PUSH2 0x171E JUMPI PUSH1 0x0 DUP1 REVERT JUMPDEST POP JUMP JUMPDEST PUSH1 0x0 DUP2 MLOAD SWAP1 POP PUSH2 0x1730 DUP2 PUSH2 0x170A JUMP JUMPDEST SWAP3 SWAP2 POP POP JUMP JUMPDEST PUSH1 0x0 PUSH1 0x20 DUP3 DUP5 SUB SLT ISZERO PUSH2 0x174C JUMPI PUSH2 0x174B PUSH2 0x1075 JUMP JUMPDEST JUMPDEST PUSH1 0x0 PUSH2 0x175A DUP5 DUP3 DUP6 ADD PUSH2 0x1721 JUMP JUMPDEST SWAP2 POP POP SWAP3 SWAP2 POP POP JUMP JUMPDEST PUSH32 0x4E487B7100000000000000000000000000000000000000000000000000000000 PUSH1 0x0 MSTORE PUSH1 0x11 PUSH1 0x4 MSTORE PUSH1 0x24 PUSH1 0x0 REVERT JUMPDEST PUSH1 0x0 PUSH2 0x179D DUP3 PUSH2 0x11A3 JUMP JUMPDEST SWAP2 POP PUSH2 0x17A8 DUP4 PUSH2 0x11A3 JUMP JUMPDEST SWAP3 POP DUP3 PUSH32 0xFFFFFFFFFFFFFFFFFFFFFFFFFFFFFFFFFFFFFFFFFFFFFFFFFFFFFFFFFFFFFFFF SUB DUP3 GT ISZERO PUSH2 0x17DD JUMPI PUSH2 0x17DC PUSH2 0x1763 JUMP JUMPDEST JUMPDEST DUP3 DUP3 ADD SWAP1 POP SWAP3 SWAP2 POP POP JUMP JUMPDEST PUSH1 0x0 PUSH1 0x40 DUP3 ADD SWAP1 POP PUSH2 0x17FD PUSH1 0x0 DUP4 ADD DUP6 PUSH2 0x11AD JUMP JUMPDEST PUSH2 0x180A PUSH1 0x20 DUP4 ADD DUP5 PUSH2 0x1327 JUMP JUMPDEST SWAP4 SWAP3 POP POP POP JUMP JUMPDEST PUSH32 0x736F6D65206572726F7232000000000000000000000000000000000000000000 PUSH1 0x0 DUP3 ADD MSTORE POP JUMP JUMPDEST PUSH1 0x0 PUSH2 0x1847 PUSH1 0xB DUP4 PUSH2 0x1115 JUMP JUMPDEST SWAP2 POP PUSH2 0x1852 DUP3 PUSH2 0x1811 JUMP JUMPDEST PUSH1 0x20 DUP3 ADD SWAP1 POP SWAP2 SWAP1 POP JUMP JUMPDEST PUSH1 0x0 PUSH1 0x20 DUP3 ADD SWAP1 POP DUP2 DUP2 SUB PUSH1 0x0 DUP4 ADD MSTORE PUSH2 0x1876 DUP2 PUSH2 0x183A JUMP JUMPDEST SWAP1 POP SWAP2 SWAP1 POP JUMP INVALID LOG2 PUSH5 0x6970667358 0x22 SLT KECCAK256 INVALID 0x24 0x24 PUSH5 0xB4588DDE32 SWAP14 0x2A NUMBER 0xDE 0x28 DUP6 0x5D DUP2 0x2E ADDMOD PUSH18 0xECAD038EA0AB023E77D0554264736F6C6343 STOP ADDMOD MULMOD STOP CALLER PUSH1 0x80 PUSH1 0x40 MSTORE CALLVALUE DUP1 ISZERO PUSH2 0x10 JUMPI PUSH1 0x0 DUP1 REVERT JUMPDEST POP PUSH1 0x40 MLOAD PUSH2 0x602 CODESIZE SUB DUP1 PUSH2 0x602 DUP4 CODECOPY DUP2 DUP2 ADD PUSH1 0x40 MSTORE DUP2 ADD SWAP1 PUSH2 0x32 SWAP2 SWAP1 PUSH2 0xDB JUMP JUMPDEST DUP1 PUSH1 0x0 DUP1 PUSH2 0x100 EXP DUP2 SLOAD DUP2 PUSH20 0xFFFFFFFFFFFFFFFFFFFFFFFFFFFFFFFFFFFFFFFF MUL NOT AND SWAP1 DUP4 PUSH20 0xFFFFFFFFFFFFFFFFFFFFFFFFFFFFFFFFFFFFFFFF AND MUL OR SWAP1 SSTORE POP POP PUSH2 0x108 JUMP JUMPDEST PUSH1 0x0 DUP1 REVERT JUMPDEST PUSH1 0x0 PUSH20 0xFFFFFFFFFFFFFFFFFFFFFFFFFFFFFFFFFFFFFFFF DUP3 AND SWAP1 POP SWAP2 SWAP1 POP JUMP JUMPDEST PUSH1 0x0 PUSH2 0xA8 DUP3 PUSH2 0x7D JUMP JUMPDEST SWAP1 POP SWAP2 SWAP1 POP JUMP JUMPDEST PUSH2 0xB8 DUP2 PUSH2 0x9D JUMP JUMPDEST DUP2 EQ PUSH2 0xC3 JUMPI PUSH1 0x0 DUP1 REVERT JUMPDEST POP JUMP JUMPDEST PUSH1 0x0 DUP2 MLOAD SWAP1 POP PUSH2 0xD5 DUP2 PUSH2 0xAF JUMP JUMPDEST SWAP3 SWAP2 POP POP JUMP JUMPDEST PUSH1 0x0 PUSH1 0x20 DUP3 DUP5 SUB SLT ISZERO PUSH2 0xF1 JUMPI PUSH2 0xF0 PUSH2 0x78 JUMP JUMPDEST JUMPDEST PUSH1 0x0 PUSH2 0xFF DUP5 DUP3 DUP6 ADD PUSH2 0xC6 JUMP JUMPDEST SWAP2 POP POP SWAP3 SWAP2 POP POP JUMP JUMPDEST PUSH2 0x4EB DUP1 PUSH2 0x117 PUSH1 0x0 CODECOPY PUSH1 0x0 RETURN INVALID PUSH1 0x80 PUSH1 0x40 MSTORE CALLVALUE DUP1 ISZERO PUSH2 0x10 JUMPI PUSH1 0x0 DUP1 REVERT JUMPDEST POP PUSH1 0x4 CALLDATASIZE LT PUSH2 0x57 JUMPI PUSH1 0x0 CALLDATALOAD PUSH1 0xE0 SHR DUP1 PUSH4 0x20BAFA66 EQ PUSH2 0x5C JUMPI DUP1 PUSH4 0xA0303C41 EQ PUSH2 0x78 JUMPI DUP1 PUSH4 0xAD0AD050 EQ PUSH2 0x96 JUMPI DUP1 PUSH4 0xB7D4477C EQ PUSH2 0xB4 JUMPI DUP1 PUSH4 0xDA2E626F EQ PUSH2 0xE4 JUMPI JUMPDEST PUSH1 0x0 DUP1 REVERT JUMPDEST PUSH2 0x76 PUSH1 0x4 DUP1 CALLDATASIZE SUB DUP2 ADD SWAP1 PUSH2 0x71 SWAP2 SWAP1 PUSH2 0x316 JUMP JUMPDEST PUSH2 0x114 JUMP JUMPDEST STOP JUMPDEST PUSH2 0x80 PUSH2 0x236 JUMP JUMPDEST PUSH1 0x40 MLOAD PUSH2 0x8D SWAP2 SWAP1 PUSH2 0x35C JUMP JUMPDEST PUSH1 0x40 MLOAD DUP1 SWAP2 SUB SWAP1 RETURN JUMPDEST PUSH2 0x9E PUSH2 0x23C JUMP JUMPDEST PUSH1 0x40 MLOAD PUSH2 0xAB SWAP2 SWAP1 PUSH2 0x386 JUMP JUMPDEST PUSH1 0x40 MLOAD DUP1 SWAP2 SUB SWAP1 RETURN JUMPDEST PUSH2 0xCE PUSH1 0x4 DUP1 CALLDATASIZE SUB DUP2 ADD SWAP1 PUSH2 0xC9 SWAP2 SWAP1 PUSH2 0x3CD JUMP JUMPDEST PUSH2 0x260 JUMP JUMPDEST PUSH1 0x40 MLOAD PUSH2 0xDB SWAP2 SWAP1 PUSH2 0x386 JUMP JUMPDEST PUSH1 0x40 MLOAD DUP1 SWAP2 SUB SWAP1 RETURN JUMPDEST PUSH2 0xFE PUSH1 0x4 DUP1 CALLDATASIZE SUB DUP2 ADD SWAP1 PUSH2 0xF9 SWAP2 SWAP1 PUSH2 0x316 JUMP JUMPDEST PUSH2 0x293 JUMP JUMPDEST PUSH1 0x40 MLOAD PUSH2 0x10B SWAP2 SWAP1 PUSH2 0x415 JUMP JUMPDEST PUSH1 0x40 MLOAD DUP1 SWAP2 SUB SWAP1 RETURN JUMPDEST PUSH1 0x0 ISZERO ISZERO PUSH1 0x1 PUSH1 0x0 DUP4 PUSH20 0xFFFFFFFFFFFFFFFFFFFFFFFFFFFFFFFFFFFFFFFF AND PUSH20 0xFFFFFFFFFFFFFFFFFFFFFFFFFFFFFFFFFFFFFFFF AND DUP2 MSTORE PUSH1 0x20 ADD SWAP1 DUP2 MSTORE PUSH1 0x20 ADD PUSH1 0x0 KECCAK256 PUSH1 0x0 SWAP1 SLOAD SWAP1 PUSH2 0x100 EXP SWAP1 DIV PUSH1 0xFF AND ISZERO ISZERO EQ ISZERO PUSH2 0x233 JUMPI PUSH1 0x1 DUP1 PUSH1 0x0 DUP4 PUSH20 0xFFFFFFFFFFFFFFFFFFFFFFFFFFFFFFFFFFFFFFFF AND PUSH20 0xFFFFFFFFFFFFFFFFFFFFFFFFFFFFFFFFFFFFFFFF AND DUP2 MSTORE PUSH1 0x20 ADD SWAP1 DUP2 MSTORE PUSH1 0x20 ADD PUSH1 0x0 KECCAK256 PUSH1 0x0 PUSH2 0x100 EXP DUP2 SLOAD DUP2 PUSH1 0xFF MUL NOT AND SWAP1 DUP4 ISZERO ISZERO MUL OR SWAP1 SSTORE POP DUP1 PUSH1 0x3 PUSH1 0x0 PUSH1 0x2 SLOAD DUP2 MSTORE PUSH1 0x20 ADD SWAP1 DUP2 MSTORE PUSH1 0x20 ADD PUSH1 0x0 KECCAK256 PUSH1 0x0 PUSH2 0x100 EXP DUP2 SLOAD DUP2 PUSH20 0xFFFFFFFFFFFFFFFFFFFFFFFFFFFFFFFFFFFFFFFF MUL NOT AND SWAP1 DUP4 PUSH20 0xFFFFFFFFFFFFFFFFFFFFFFFFFFFFFFFFFFFFFFFF AND MUL OR SWAP1 SSTORE POP PUSH1 0x1 PUSH1 0x2 PUSH1 0x0 DUP3 DUP3 SLOAD PUSH2 0x22B SWAP2 SWAP1 PUSH2 0x45F JUMP JUMPDEST SWAP3 POP POP DUP2 SWAP1 SSTORE POP JUMPDEST POP JUMP JUMPDEST PUSH1 0x2 SLOAD DUP2 JUMP JUMPDEST PUSH1 0x0 DUP1 SLOAD SWAP1 PUSH2 0x100 EXP SWAP1 DIV PUSH20 0xFFFFFFFFFFFFFFFFFFFFFFFFFFFFFFFFFFFFFFFF AND DUP2 JUMP JUMPDEST PUSH1 0x3 PUSH1 0x20 MSTORE DUP1 PUSH1 0x0 MSTORE PUSH1 0x40 PUSH1 0x0 KECCAK256 PUSH1 0x0 SWAP2 POP SLOAD SWAP1 PUSH2 0x100 EXP SWAP1 DIV PUSH20 0xFFFFFFFFFFFFFFFFFFFFFFFFFFFFFFFFFFFFFFFF AND DUP2 JUMP JUMPDEST PUSH1 0x1 PUSH1 0x20 MSTORE DUP1 PUSH1 0x0 MSTORE PUSH1 0x40 PUSH1 0x0 KECCAK256 PUSH1 0x0 SWAP2 POP SLOAD SWAP1 PUSH2 0x100 EXP SWAP1 DIV PUSH1 0xFF AND DUP2 JUMP JUMPDEST PUSH1 0x0 DUP1 REVERT JUMPDEST PUSH1 0x0 PUSH20 0xFFFFFFFFFFFFFFFFFFFFFFFFFFFFFFFFFFFFFFFF DUP3 AND SWAP1 POP SWAP2 SWAP1 POP JUMP JUMPDEST PUSH1 0x0 PUSH2 0x2E3 DUP3 PUSH2 0x2B8 JUMP JUMPDEST SWAP1 POP SWAP2 SWAP1 POP JUMP JUMPDEST PUSH2 0x2F3 DUP2 PUSH2 0x2D8 JUMP JUMPDEST DUP2 EQ PUSH2 0x2FE JUMPI PUSH1 0x0 DUP1 REVERT JUMPDEST POP JUMP JUMPDEST PUSH1 0x0 DUP2 CALLDATALOAD SWAP1 POP PUSH2 0x310 DUP2 PUSH2 0x2EA JUMP JUMPDEST SWAP3 SWAP2 POP POP JUMP JUMPDEST PUSH1 0x0 PUSH1 0x20 DUP3 DUP5 SUB SLT ISZERO PUSH2 0x32C JUMPI PUSH2 0x32B PUSH2 0x2B3 JUMP JUMPDEST JUMPDEST PUSH1 0x0 PUSH2 0x33A DUP5 DUP3 DUP6 ADD PUSH2 0x301 JUMP JUMPDEST SWAP2 POP POP SWAP3 SWAP2 POP POP JUMP JUMPDEST PUSH1 0x0 DUP2 SWAP1 POP SWAP2 SWAP1 POP JUMP JUMPDEST PUSH2 0x356 DUP2 PUSH2 0x343 JUMP JUMPDEST DUP3 MSTORE POP POP JUMP JUMPDEST PUSH1 0x0 PUSH1 0x20 DUP3 ADD SWAP1 POP PUSH2 0x371 PUSH1 0x0 DUP4 ADD DUP5 PUSH2 0x34D JUMP JUMPDEST SWAP3 SWAP2 POP POP JUMP JUMPDEST PUSH2 0x380 DUP2 PUSH2 0x2D8 JUMP JUMPDEST DUP3 MSTORE POP POP JUMP JUMPDEST PUSH1 0x0 PUSH1 0x20 DUP3 ADD SWAP1 POP PUSH2 0x39B PUSH1 0x0 DUP4 ADD DUP5 PUSH2 0x377 JUMP JUMPDEST SWAP3 SWAP2 POP POP JUMP JUMPDEST PUSH2 0x3AA DUP2 PUSH2 0x343 JUMP JUMPDEST DUP2 EQ PUSH2 0x3B5 JUMPI PUSH1 0x0 DUP1 REVERT JUMPDEST POP JUMP JUMPDEST PUSH1 0x0 DUP2 CALLDATALOAD SWAP1 POP PUSH2 0x3C7 DUP2 PUSH2 0x3A1 JUMP JUMPDEST SWAP3 SWAP2 POP POP JUMP JUMPDEST PUSH1 0x0 PUSH1 0x20 DUP3 DUP5 SUB SLT ISZERO PUSH2 0x3E3 JUMPI PUSH2 0x3E2 PUSH2 0x2B3 JUMP JUMPDEST JUMPDEST PUSH1 0x0 PUSH2 0x3F1 DUP5 DUP3 DUP6 ADD PUSH2 0x3B8 JUMP JUMPDEST SWAP2 POP POP SWAP3 SWAP2 POP POP JUMP JUMPDEST PUSH1 0x0 DUP2 ISZERO ISZERO SWAP1 POP SWAP2 SWAP1 POP JUMP JUMPDEST PUSH2 0x40F DUP2 PUSH2 0x3FA JUMP JUMPDEST DUP3 MSTORE POP POP JUMP JUMPDEST PUSH1 0x0 PUSH1 0x20 DUP3 ADD SWAP1 POP PUSH2 0x42A PUSH1 0x0 DUP4 ADD DUP5 PUSH2 0x406 JUMP JUMPDEST SWAP3 SWAP2 POP POP JUMP JUMPDEST PUSH32 0x4E487B7100000000000000000000000000000000000000000000000000000000 PUSH1 0x0 MSTORE PUSH1 0x11 PUSH1 0x4 MSTORE PUSH1 0x24 PUSH1 0x0 REVERT JUMPDEST PUSH1 0x0 PUSH2 0x46A DUP3 PUSH2 0x343 JUMP JUMPDEST SWAP2 POP PUSH2 0x475 DUP4 PUSH2 0x343 JUMP JUMPDEST SWAP3 POP DUP3 PUSH32 0xFFFFFFFFFFFFFFFFFFFFFFFFFFFFFFFFFFFFFFFFFFFFFFFFFFFFFFFFFFFFFFFF SUB DUP3 GT ISZERO PUSH2 0x4AA JUMPI PUSH2 0x4A9 PUSH2 0x430 JUMP JUMPDEST JUMPDEST DUP3 DUP3 ADD SWAP1 POP SWAP3 SWAP2 POP POP JUMP INVALID LOG2 PUSH5 0x6970667358 0x22 SLT KECCAK256 PUSH26 0x770A4EC98274939CC0AE96C98A7A4311CC64109E68F05CCA76AC 0xC3 SWAP1 0x4A RETURNDATASIZE CODESIZE PUSH5 0x736F6C6343 STOP ADDMOD MULMOD STOP CALLER PUSH1 0x80 PUSH1 0x40 MSTORE CALLVALUE DUP1 ISZERO PUSH3 0x11 JUMPI PUSH1 0x0 DUP1 REVERT JUMPDEST POP PUSH1 0x40 MLOAD PUSH3 0x1BB1 CODESIZE SUB DUP1 PUSH3 0x1BB1 DUP4 CODECOPY DUP2 DUP2 ADD PUSH1 0x40 MSTORE DUP2 ADD SWAP1 PUSH3 0x37 SWAP2 SWAP1 PUSH3 0x490 JUMP JUMPDEST DUP7 PUSH1 0x0 DUP1 PUSH2 0x100 EXP DUP2 SLOAD DUP2 PUSH20 0xFFFFFFFFFFFFFFFFFFFFFFFFFFFFFFFFFFFFFFFF MUL NOT AND SWAP1 DUP4 PUSH20 0xFFFFFFFFFFFFFFFFFFFFFFFFFFFFFFFFFFFFFFFF AND MUL OR SWAP1 SSTORE POP PUSH1 0x0 PUSH1 0x40 MLOAD DUP1 PUSH1 0xC0 ADD PUSH1 0x40 MSTORE DUP1 DUP9 DUP2 MSTORE PUSH1 0x20 ADD DUP8 DUP2 MSTORE PUSH1 0x20 ADD DUP7 DUP2 MSTORE PUSH1 0x20 ADD DUP6 DUP2 MSTORE PUSH1 0x20 ADD DUP5 DUP2 MSTORE PUSH1 0x20 ADD DUP4 DUP2 MSTORE POP SWAP1 POP DUP1 PUSH1 0x3 PUSH1 0x0 DUP3 ADD MLOAD DUP2 PUSH1 0x0 ADD SWAP1 DUP1 MLOAD SWAP1 PUSH1 0x20 ADD SWAP1 PUSH3 0xC9 SWAP3 SWAP2 SWAP1 PUSH3 0x1A3 JUMP JUMPDEST POP PUSH1 0x20 DUP3 ADD MLOAD DUP2 PUSH1 0x1 ADD SSTORE PUSH1 0x40 DUP3 ADD MLOAD DUP2 PUSH1 0x2 ADD SWAP1 DUP1 MLOAD SWAP1 PUSH1 0x20 ADD SWAP1 PUSH3 0xF2 SWAP3 SWAP2 SWAP1 PUSH3 0x1A3 JUMP JUMPDEST POP PUSH1 0x60 DUP3 ADD MLOAD DUP2 PUSH1 0x3 ADD SWAP1 DUP1 MLOAD SWAP1 PUSH1 0x20 ADD SWAP1 PUSH3 0x111 SWAP3 SWAP2 SWAP1 PUSH3 0x1A3 JUMP JUMPDEST POP PUSH1 0x80 DUP3 ADD MLOAD DUP2 PUSH1 0x4 ADD SWAP1 DUP1 MLOAD SWAP1 PUSH1 0x20 ADD SWAP1 PUSH3 0x130 SWAP3 SWAP2 SWAP1 PUSH3 0x1A3 JUMP JUMPDEST POP PUSH1 0xA0 DUP3 ADD MLOAD DUP2 PUSH1 0x5 ADD SWAP1 DUP1 MLOAD SWAP1 PUSH1 0x20 ADD SWAP1 PUSH3 0x14F SWAP3 SWAP2 SWAP1 PUSH3 0x1A3 JUMP JUMPDEST POP SWAP1 POP POP DUP9 PUSH1 0x1 PUSH1 0x0 PUSH2 0x100 EXP DUP2 SLOAD DUP2 PUSH20 0xFFFFFFFFFFFFFFFFFFFFFFFFFFFFFFFFFFFFFFFF MUL NOT AND SWAP1 DUP4 PUSH20 0xFFFFFFFFFFFFFFFFFFFFFFFFFFFFFFFFFFFFFFFF AND MUL OR SWAP1 SSTORE POP POP POP POP POP POP POP POP POP POP PUSH3 0x659 JUMP JUMPDEST DUP3 DUP1 SLOAD PUSH3 0x1B1 SWAP1 PUSH3 0x623 JUMP JUMPDEST SWAP1 PUSH1 0x0 MSTORE PUSH1 0x20 PUSH1 0x0 KECCAK256 SWAP1 PUSH1 0x1F ADD PUSH1 0x20 SWAP1 DIV DUP2 ADD SWAP3 DUP3 PUSH3 0x1D5 JUMPI PUSH1 0x0 DUP6 SSTORE PUSH3 0x221 JUMP JUMPDEST DUP3 PUSH1 0x1F LT PUSH3 0x1F0 JUMPI DUP1 MLOAD PUSH1 0xFF NOT AND DUP4 DUP1 ADD OR DUP6 SSTORE PUSH3 0x221 JUMP JUMPDEST DUP3 DUP1 ADD PUSH1 0x1 ADD DUP6 SSTORE DUP3 ISZERO PUSH3 0x221 JUMPI SWAP2 DUP3 ADD JUMPDEST DUP3 DUP2 GT ISZERO PUSH3 0x220 JUMPI DUP3 MLOAD DUP3 SSTORE SWAP2 PUSH1 0x20 ADD SWAP2 SWAP1 PUSH1 0x1 ADD SWAP1 PUSH3 0x203 JUMP JUMPDEST JUMPDEST POP SWAP1 POP PUSH3 0x230 SWAP2 SWAP1 PUSH3 0x234 JUMP JUMPDEST POP SWAP1 JUMP JUMPDEST JUMPDEST DUP1 DUP3 GT ISZERO PUSH3 0x24F JUMPI PUSH1 0x0 DUP2 PUSH1 0x0 SWAP1 SSTORE POP PUSH1 0x1 ADD PUSH3 0x235 JUMP JUMPDEST POP SWAP1 JUMP JUMPDEST PUSH1 0x0 PUSH1 0x40 MLOAD SWAP1 POP SWAP1 JUMP JUMPDEST PUSH1 0x0 DUP1 REVERT JUMPDEST PUSH1 0x0 DUP1 REVERT JUMPDEST PUSH1 0x0 PUSH20 0xFFFFFFFFFFFFFFFFFFFFFFFFFFFFFFFFFFFFFFFF DUP3 AND SWAP1 POP SWAP2 SWAP1 POP JUMP JUMPDEST PUSH1 0x0 PUSH3 0x294 DUP3 PUSH3 0x267 JUMP JUMPDEST SWAP1 POP SWAP2 SWAP1 POP JUMP JUMPDEST PUSH3 0x2A6 DUP2 PUSH3 0x287 JUMP JUMPDEST DUP2 EQ PUSH3 0x2B2 JUMPI PUSH1 0x0 DUP1 REVERT JUMPDEST POP JUMP JUMPDEST PUSH1 0x0 DUP2 MLOAD SWAP1 POP PUSH3 0x2C6 DUP2 PUSH3 0x29B JUMP JUMPDEST SWAP3 SWAP2 POP POP JUMP JUMPDEST PUSH1 0x0 DUP1 REVERT JUMPDEST PUSH1 0x0 DUP1 REVERT JUMPDEST PUSH1 0x0 PUSH1 0x1F NOT PUSH1 0x1F DUP4 ADD AND SWAP1 POP SWAP2 SWAP1 POP JUMP JUMPDEST PUSH32 0x4E487B7100000000000000000000000000000000000000000000000000000000 PUSH1 0x0 MSTORE PUSH1 0x41 PUSH1 0x4 MSTORE PUSH1 0x24 PUSH1 0x0 REVERT JUMPDEST PUSH3 0x321 DUP3 PUSH3 0x2D6 JUMP JUMPDEST DUP2 ADD DUP2 DUP2 LT PUSH8 0xFFFFFFFFFFFFFFFF DUP3 GT OR ISZERO PUSH3 0x343 JUMPI PUSH3 0x342 PUSH3 0x2E7 JUMP JUMPDEST JUMPDEST DUP1 PUSH1 0x40 MSTORE POP POP POP JUMP JUMPDEST PUSH1 0x0 PUSH3 0x358 PUSH3 0x253 JUMP JUMPDEST SWAP1 POP PUSH3 0x366 DUP3 DUP3 PUSH3 0x316 JUMP JUMPDEST SWAP2 SWAP1 POP JUMP JUMPDEST PUSH1 0x0 PUSH8 0xFFFFFFFFFFFFFFFF DUP3 GT ISZERO PUSH3 0x389 JUMPI PUSH3 0x388 PUSH3 0x2E7 JUMP JUMPDEST JUMPDEST PUSH3 0x394 DUP3 PUSH3 0x2D6 JUMP JUMPDEST SWAP1 POP PUSH1 0x20 DUP2 ADD SWAP1 POP SWAP2 SWAP1 POP JUMP JUMPDEST PUSH1 0x0 JUMPDEST DUP4 DUP2 LT ISZERO PUSH3 0x3C1 JUMPI DUP1 DUP3 ADD MLOAD DUP2 DUP5 ADD MSTORE PUSH1 0x20 DUP2 ADD SWAP1 POP PUSH3 0x3A4 JUMP JUMPDEST DUP4 DUP2 GT ISZERO PUSH3 0x3D1 JUMPI PUSH1 0x0 DUP5 DUP5 ADD MSTORE JUMPDEST POP POP POP POP JUMP JUMPDEST PUSH1 0x0 PUSH3 0x3EE PUSH3 0x3E8 DUP5 PUSH3 0x36B JUMP JUMPDEST PUSH3 0x34C JUMP JUMPDEST SWAP1 POP DUP3 DUP2 MSTORE PUSH1 0x20 DUP2 ADD DUP5 DUP5 DUP5 ADD GT ISZERO PUSH3 0x40D JUMPI PUSH3 0x40C PUSH3 0x2D1 JUMP JUMPDEST JUMPDEST PUSH3 0x41A DUP5 DUP3 DUP6 PUSH3 0x3A1 JUMP JUMPDEST POP SWAP4 SWAP3 POP POP POP JUMP JUMPDEST PUSH1 0x0 DUP3 PUSH1 0x1F DUP4 ADD SLT PUSH3 0x43A JUMPI PUSH3 0x439 PUSH3 0x2CC JUMP JUMPDEST JUMPDEST DUP2 MLOAD PUSH3 0x44C DUP5 DUP3 PUSH1 0x20 DUP7 ADD PUSH3 0x3D7 JUMP JUMPDEST SWAP2 POP POP SWAP3 SWAP2 POP POP JUMP JUMPDEST PUSH1 0x0 DUP2 SWAP1 POP SWAP2 SWAP1 POP JUMP JUMPDEST PUSH3 0x46A DUP2 PUSH3 0x455 JUMP JUMPDEST DUP2 EQ PUSH3 0x476 JUMPI PUSH1 0x0 DUP1 REVERT JUMPDEST POP JUMP JUMPDEST PUSH1 0x0 DUP2 MLOAD SWAP1 POP PUSH3 0x48A DUP2 PUSH3 0x45F JUMP JUMPDEST SWAP3 SWAP2 POP POP JUMP JUMPDEST PUSH1 0x0 DUP1 PUSH1 0x0 DUP1 PUSH1 0x0 DUP1 PUSH1 0x0 DUP1 PUSH2 0x100 DUP10 DUP12 SUB SLT ISZERO PUSH3 0x4B4 JUMPI PUSH3 0x4B3 PUSH3 0x25D JUMP JUMPDEST JUMPDEST PUSH1 0x0 PUSH3 0x4C4 DUP12 DUP3 DUP13 ADD PUSH3 0x2B5 JUMP JUMPDEST SWAP9 POP POP PUSH1 0x20 PUSH3 0x4D7 DUP12 DUP3 DUP13 ADD PUSH3 0x2B5 JUMP JUMPDEST SWAP8 POP POP PUSH1 0x40 DUP10 ADD MLOAD PUSH8 0xFFFFFFFFFFFFFFFF DUP2 GT ISZERO PUSH3 0x4FB JUMPI PUSH3 0x4FA PUSH3 0x262 JUMP JUMPDEST JUMPDEST PUSH3 0x509 DUP12 DUP3 DUP13 ADD PUSH3 0x422 JUMP JUMPDEST SWAP7 POP POP PUSH1 0x60 PUSH3 0x51C DUP12 DUP3 DUP13 ADD PUSH3 0x479 JUMP JUMPDEST SWAP6 POP POP PUSH1 0x80 DUP10 ADD MLOAD PUSH8 0xFFFFFFFFFFFFFFFF DUP2 GT ISZERO PUSH3 0x540 JUMPI PUSH3 0x53F PUSH3 0x262 JUMP JUMPDEST JUMPDEST PUSH3 0x54E DUP12 DUP3 DUP13 ADD PUSH3 0x422 JUMP JUMPDEST SWAP5 POP POP PUSH1 0xA0 DUP10 ADD MLOAD PUSH8 0xFFFFFFFFFFFFFFFF DUP2 GT ISZERO PUSH3 0x572 JUMPI PUSH3 0x571 PUSH3 0x262 JUMP JUMPDEST JUMPDEST PUSH3 0x580 DUP12 DUP3 DUP13 ADD PUSH3 0x422 JUMP JUMPDEST SWAP4 POP POP PUSH1 0xC0 DUP10 ADD MLOAD PUSH8 0xFFFFFFFFFFFFFFFF DUP2 GT ISZERO PUSH3 0x5A4 JUMPI PUSH3 0x5A3 PUSH3 0x262 JUMP JUMPDEST JUMPDEST PUSH3 0x5B2 DUP12 DUP3 DUP13 ADD PUSH3 0x422 JUMP JUMPDEST SWAP3 POP POP PUSH1 0xE0 DUP10 ADD MLOAD PUSH8 0xFFFFFFFFFFFFFFFF DUP2 GT ISZERO PUSH3 0x5D6 JUMPI PUSH3 0x5D5 PUSH3 0x262 JUMP JUMPDEST JUMPDEST PUSH3 0x5E4 DUP12 DUP3 DUP13 ADD PUSH3 0x422 JUMP JUMPDEST SWAP2 POP POP SWAP3 SWAP6 SWAP9 POP SWAP3 SWAP6 SWAP9 SWAP1 SWAP4 SWAP7 POP JUMP JUMPDEST PUSH32 0x4E487B7100000000000000000000000000000000000000000000000000000000 PUSH1 0x0 MSTORE PUSH1 0x22 PUSH1 0x4 MSTORE PUSH1 0x24 PUSH1 0x0 REVERT JUMPDEST PUSH1 0x0 PUSH1 0x2 DUP3 DIV SWAP1 POP PUSH1 0x1 DUP3 AND DUP1 PUSH3 0x63C JUMPI PUSH1 0x7F DUP3 AND SWAP2 POP JUMPDEST PUSH1 0x20 DUP3 LT DUP2 EQ ISZERO PUSH3 0x653 JUMPI PUSH3 0x652 PUSH3 0x5F4 JUMP JUMPDEST JUMPDEST POP SWAP2 SWAP1 POP JUMP JUMPDEST PUSH2 0x1548 DUP1 PUSH3 0x669 PUSH1 0x0 CODECOPY PUSH1 0x0 RETURN INVALID PUSH1 0x80 PUSH1 0x40 MSTORE CALLVALUE DUP1 ISZERO PUSH2 0x10 JUMPI PUSH1 0x0 DUP1 REVERT JUMPDEST POP PUSH1 0x4 CALLDATASIZE LT PUSH2 0xCF JUMPI PUSH1 0x0 CALLDATALOAD PUSH1 0xE0 SHR DUP1 PUSH4 0x851A94C9 GT PUSH2 0x8C JUMPI DUP1 PUSH4 0xB7D4477C GT PUSH2 0x66 JUMPI DUP1 PUSH4 0xB7D4477C EQ PUSH2 0x1F8 JUMPI DUP1 PUSH4 0xC83DD231 EQ PUSH2 0x228 JUMPI DUP1 PUSH4 0xE65A0691 EQ PUSH2 0x246 JUMPI DUP1 PUSH4 0xFB986606 EQ PUSH2 0x276 JUMPI PUSH2 0xCF JUMP JUMPDEST DUP1 PUSH4 0x851A94C9 EQ PUSH2 0x199 JUMPI DUP1 PUSH4 0xA0303C41 EQ PUSH2 0x1B7 JUMPI DUP1 PUSH4 0xAEE554FF EQ PUSH2 0x1D5 JUMPI PUSH2 0xCF JUMP JUMPDEST DUP1 PUSH4 0xC4174B7 EQ PUSH2 0xD4 JUMPI DUP1 PUSH4 0x185C6F84 EQ PUSH2 0x104 JUMPI DUP1 PUSH4 0x21FFCCF1 EQ PUSH2 0x122 JUMPI DUP1 PUSH4 0x2BE8454A EQ PUSH2 0x145 JUMPI DUP1 PUSH4 0x376F4E49 EQ PUSH2 0x161 JUMPI DUP1 PUSH4 0x4E1CC351 EQ PUSH2 0x17D JUMPI JUMPDEST PUSH1 0x0 DUP1 REVERT JUMPDEST PUSH2 0xEE PUSH1 0x4 DUP1 CALLDATASIZE SUB DUP2 ADD SWAP1 PUSH2 0xE9 SWAP2 SWAP1 PUSH2 0xE22 JUMP JUMPDEST PUSH2 0x2A6 JUMP JUMPDEST PUSH1 0x40 MLOAD PUSH2 0xFB SWAP2 SWAP1 PUSH2 0xEFB JUMP JUMPDEST PUSH1 0x40 MLOAD DUP1 SWAP2 SUB SWAP1 RETURN JUMPDEST PUSH2 0x10C PUSH2 0x353 JUMP JUMPDEST PUSH1 0x40 MLOAD PUSH2 0x119 SWAP2 SWAP1 PUSH2 0xF2C JUMP JUMPDEST PUSH1 0x40 MLOAD DUP1 SWAP2 SUB SWAP1 RETURN JUMPDEST PUSH2 0x12A PUSH2 0x359 JUMP JUMPDEST PUSH1 0x40 MLOAD PUSH2 0x13C SWAP7 SWAP6 SWAP5 SWAP4 SWAP3 SWAP2 SWAP1 PUSH2 0xF47 JUMP JUMPDEST PUSH1 0x40 MLOAD DUP1 SWAP2 SUB SWAP1 RETURN JUMPDEST PUSH2 0x15F PUSH1 0x4 DUP1 CALLDATASIZE SUB DUP2 ADD SWAP1 PUSH2 0x15A SWAP2 SWAP1 PUSH2 0x1100 JUMP JUMPDEST PUSH2 0x651 JUMP JUMPDEST STOP JUMPDEST PUSH2 0x17B PUSH1 0x4 DUP1 CALLDATASIZE SUB DUP2 ADD SWAP1 PUSH2 0x176 SWAP2 SWAP1 PUSH2 0x1219 JUMP JUMPDEST PUSH2 0x72C JUMP JUMPDEST STOP JUMPDEST PUSH2 0x197 PUSH1 0x4 DUP1 CALLDATASIZE SUB DUP2 ADD SWAP1 PUSH2 0x192 SWAP2 SWAP1 PUSH2 0x1259 JUMP JUMPDEST PUSH2 0x850 JUMP JUMPDEST STOP JUMPDEST PUSH2 0x1A1 PUSH2 0x8BA JUMP JUMPDEST PUSH1 0x40 MLOAD PUSH2 0x1AE SWAP2 SWAP1 PUSH2 0x12D7 JUMP JUMPDEST PUSH1 0x40 MLOAD DUP1 SWAP2 SUB SWAP1 RETURN JUMPDEST PUSH2 0x1BF PUSH2 0x8DE JUMP JUMPDEST PUSH1 0x40 MLOAD PUSH2 0x1CC SWAP2 SWAP1 PUSH2 0xF2C JUMP JUMPDEST PUSH1 0x40 MLOAD DUP1 SWAP2 SUB SWAP1 RETURN JUMPDEST PUSH2 0x1DD PUSH2 0x8E4 JUMP JUMPDEST PUSH1 0x40 MLOAD PUSH2 0x1EF SWAP7 SWAP6 SWAP5 SWAP4 SWAP3 SWAP2 SWAP1 PUSH2 0xF47 JUMP JUMPDEST PUSH1 0x40 MLOAD DUP1 SWAP2 SUB SWAP1 RETURN JUMPDEST PUSH2 0x212 PUSH1 0x4 DUP1 CALLDATASIZE SUB DUP2 ADD SWAP1 PUSH2 0x20D SWAP2 SWAP1 PUSH2 0x12F2 JUMP JUMPDEST PUSH2 0xBB6 JUMP JUMPDEST PUSH1 0x40 MLOAD PUSH2 0x21F SWAP2 SWAP1 PUSH2 0x12D7 JUMP JUMPDEST PUSH1 0x40 MLOAD DUP1 SWAP2 SUB SWAP1 RETURN JUMPDEST PUSH2 0x230 PUSH2 0xBE9 JUMP JUMPDEST PUSH1 0x40 MLOAD PUSH2 0x23D SWAP2 SWAP1 PUSH2 0x12D7 JUMP JUMPDEST PUSH1 0x40 MLOAD DUP1 SWAP2 SUB SWAP1 RETURN JUMPDEST PUSH2 0x260 PUSH1 0x4 DUP1 CALLDATASIZE SUB DUP2 ADD SWAP1 PUSH2 0x25B SWAP2 SWAP1 PUSH2 0x131F JUMP JUMPDEST PUSH2 0xC0F JUMP JUMPDEST PUSH1 0x40 MLOAD PUSH2 0x26D SWAP2 SWAP1 PUSH2 0x140A JUMP JUMPDEST PUSH1 0x40 MLOAD DUP1 SWAP2 SUB SWAP1 RETURN JUMPDEST PUSH2 0x290 PUSH1 0x4 DUP1 CALLDATASIZE SUB DUP2 ADD SWAP1 PUSH2 0x28B SWAP2 SWAP1 PUSH2 0xE22 JUMP JUMPDEST PUSH2 0xCA6 JUMP JUMPDEST PUSH1 0x40 MLOAD PUSH2 0x29D SWAP2 SWAP1 PUSH2 0xF2C JUMP JUMPDEST PUSH1 0x40 MLOAD DUP1 SWAP2 SUB SWAP1 RETURN JUMPDEST PUSH1 0xC PUSH1 0x20 MSTORE DUP2 PUSH1 0x0 MSTORE PUSH1 0x40 PUSH1 0x0 KECCAK256 PUSH1 0x20 MSTORE DUP1 PUSH1 0x0 MSTORE PUSH1 0x40 PUSH1 0x0 KECCAK256 PUSH1 0x0 SWAP2 POP SWAP2 POP POP DUP1 SLOAD PUSH2 0x2D2 SWAP1 PUSH2 0x145B JUMP JUMPDEST DUP1 PUSH1 0x1F ADD PUSH1 0x20 DUP1 SWAP2 DIV MUL PUSH1 0x20 ADD PUSH1 0x40 MLOAD SWAP1 DUP2 ADD PUSH1 0x40 MSTORE DUP1 SWAP3 SWAP2 SWAP1 DUP2 DUP2 MSTORE PUSH1 0x20 ADD DUP3 DUP1 SLOAD PUSH2 0x2FE SWAP1 PUSH2 0x145B JUMP JUMPDEST DUP1 ISZERO PUSH2 0x34B JUMPI DUP1 PUSH1 0x1F LT PUSH2 0x320 JUMPI PUSH2 0x100 DUP1 DUP4 SLOAD DIV MUL DUP4 MSTORE SWAP2 PUSH1 0x20 ADD SWAP2 PUSH2 0x34B JUMP JUMPDEST DUP3 ADD SWAP2 SWAP1 PUSH1 0x0 MSTORE PUSH1 0x20 PUSH1 0x0 KECCAK256 SWAP1 JUMPDEST DUP2 SLOAD DUP2 MSTORE SWAP1 PUSH1 0x1 ADD SWAP1 PUSH1 0x20 ADD DUP1 DUP4 GT PUSH2 0x32E JUMPI DUP3 SWAP1 SUB PUSH1 0x1F AND DUP3 ADD SWAP2 JUMPDEST POP POP POP POP POP DUP2 JUMP JUMPDEST PUSH1 0x2 SLOAD DUP2 JUMP JUMPDEST PUSH1 0x60 PUSH1 0x0 PUSH1 0x60 DUP1 PUSH1 0x60 DUP1 PUSH1 0x3 PUSH1 0x0 ADD PUSH1 0x3 PUSH1 0x1 ADD SLOAD PUSH1 0x3 PUSH1 0x2 ADD PUSH1 0x3 DUP1 ADD PUSH1 0x3 PUSH1 0x4 ADD PUSH1 0x3 PUSH1 0x5 ADD DUP6 DUP1 SLOAD PUSH2 0x38D SWAP1 PUSH2 0x145B JUMP JUMPDEST DUP1 PUSH1 0x1F ADD PUSH1 0x20 DUP1 SWAP2 DIV MUL PUSH1 0x20 ADD PUSH1 0x40 MLOAD SWAP1 DUP2 ADD PUSH1 0x40 MSTORE DUP1 SWAP3 SWAP2 SWAP1 DUP2 DUP2 MSTORE PUSH1 0x20 ADD DUP3 DUP1 SLOAD PUSH2 0x3B9 SWAP1 PUSH2 0x145B JUMP JUMPDEST DUP1 ISZERO PUSH2 0x406 JUMPI DUP1 PUSH1 0x1F LT PUSH2 0x3DB JUMPI PUSH2 0x100 DUP1 DUP4 SLOAD DIV MUL DUP4 MSTORE SWAP2 PUSH1 0x20 ADD SWAP2 PUSH2 0x406 JUMP JUMPDEST DUP3 ADD SWAP2 SWAP1 PUSH1 0x0 MSTORE PUSH1 0x20 PUSH1 0x0 KECCAK256 SWAP1 JUMPDEST DUP2 SLOAD DUP2 MSTORE SWAP1 PUSH1 0x1 ADD SWAP1 PUSH1 0x20 ADD DUP1 DUP4 GT PUSH2 0x3E9 JUMPI DUP3 SWAP1 SUB PUSH1 0x1F AND DUP3 ADD SWAP2 JUMPDEST POP POP POP POP POP SWAP6 POP DUP4 DUP1 SLOAD PUSH2 0x419 SWAP1 PUSH2 0x145B JUMP JUMPDEST DUP1 PUSH1 0x1F ADD PUSH1 0x20 DUP1 SWAP2 DIV MUL PUSH1 0x20 ADD PUSH1 0x40 MLOAD SWAP1 DUP2 ADD PUSH1 0x40 MSTORE DUP1 SWAP3 SWAP2 SWAP1 DUP2 DUP2 MSTORE PUSH1 0x20 ADD DUP3 DUP1 SLOAD PUSH2 0x445 SWAP1 PUSH2 0x145B JUMP JUMPDEST DUP1 ISZERO PUSH2 0x492 JUMPI DUP1 PUSH1 0x1F LT PUSH2 0x467 JUMPI PUSH2 0x100 DUP1 DUP4 SLOAD DIV MUL DUP4 MSTORE SWAP2 PUSH1 0x20 ADD SWAP2 PUSH2 0x492 JUMP JUMPDEST DUP3 ADD SWAP2 SWAP1 PUSH1 0x0 MSTORE PUSH1 0x20 PUSH1 0x0 KECCAK256 SWAP1 JUMPDEST DUP2 SLOAD DUP2 MSTORE SWAP1 PUSH1 0x1 ADD SWAP1 PUSH1 0x20 ADD DUP1 DUP4 GT PUSH2 0x475 JUMPI DUP3 SWAP1 SUB PUSH1 0x1F AND DUP3 ADD SWAP2 JUMPDEST POP POP POP POP POP SWAP4 POP DUP3 DUP1 SLOAD PUSH2 0x4A5 SWAP1 PUSH2 0x145B JUMP JUMPDEST DUP1 PUSH1 0x1F ADD PUSH1 0x20 DUP1 SWAP2 DIV MUL PUSH1 0x20 ADD PUSH1 0x40 MLOAD SWAP1 DUP2 ADD PUSH1 0x40 MSTORE DUP1 SWAP3 SWAP2 SWAP1 DUP2 DUP2 MSTORE PUSH1 0x20 ADD DUP3 DUP1 SLOAD PUSH2 0x4D1 SWAP1 PUSH2 0x145B JUMP JUMPDEST DUP1 ISZERO PUSH2 0x51E JUMPI DUP1 PUSH1 0x1F LT PUSH2 0x4F3 JUMPI PUSH2 0x100 DUP1 DUP4 SLOAD DIV MUL DUP4 MSTORE SWAP2 PUSH1 0x20 ADD SWAP2 PUSH2 0x51E JUMP JUMPDEST DUP3 ADD SWAP2 SWAP1 PUSH1 0x0 MSTORE PUSH1 0x20 PUSH1 0x0 KECCAK256 SWAP1 JUMPDEST DUP2 SLOAD DUP2 MSTORE SWAP1 PUSH1 0x1 ADD SWAP1 PUSH1 0x20 ADD DUP1 DUP4 GT PUSH2 0x501 JUMPI DUP3 SWAP1 SUB PUSH1 0x1F AND DUP3 ADD SWAP2 JUMPDEST POP POP POP POP POP SWAP3 POP DUP2 DUP1 SLOAD PUSH2 0x531 SWAP1 PUSH2 0x145B JUMP JUMPDEST DUP1 PUSH1 0x1F ADD PUSH1 0x20 DUP1 SWAP2 DIV MUL PUSH1 0x20 ADD PUSH1 0x40 MLOAD SWAP1 DUP2 ADD PUSH1 0x40 MSTORE DUP1 SWAP3 SWAP2 SWAP1 DUP2 DUP2 MSTORE PUSH1 0x20 ADD DUP3 DUP1 SLOAD PUSH2 0x55D SWAP1 PUSH2 0x145B JUMP JUMPDEST DUP1 ISZERO PUSH2 0x5AA JUMPI DUP1 PUSH1 0x1F LT PUSH2 0x57F JUMPI PUSH2 0x100 DUP1 DUP4 SLOAD DIV MUL DUP4 MSTORE SWAP2 PUSH1 0x20 ADD SWAP2 PUSH2 0x5AA JUMP JUMPDEST DUP3 ADD SWAP2 SWAP1 PUSH1 0x0 MSTORE PUSH1 0x20 PUSH1 0x0 KECCAK256 SWAP1 JUMPDEST DUP2 SLOAD DUP2 MSTORE SWAP1 PUSH1 0x1 ADD SWAP1 PUSH1 0x20 ADD DUP1 DUP4 GT PUSH2 0x58D JUMPI DUP3 SWAP1 SUB PUSH1 0x1F AND DUP3 ADD SWAP2 JUMPDEST POP POP POP POP POP SWAP2 POP DUP1 DUP1 SLOAD PUSH2 0x5BD SWAP1 PUSH2 0x145B JUMP JUMPDEST DUP1 PUSH1 0x1F ADD PUSH1 0x20 DUP1 SWAP2 DIV MUL PUSH1 0x20 ADD PUSH1 0x40 MLOAD SWAP1 DUP2 ADD PUSH1 0x40 MSTORE DUP1 SWAP3 SWAP2 SWAP1 DUP2 DUP2 MSTORE PUSH1 0x20 ADD DUP3 DUP1 SLOAD PUSH2 0x5E9 SWAP1 PUSH2 0x145B JUMP JUMPDEST DUP1 ISZERO PUSH2 0x636 JUMPI DUP1 PUSH1 0x1F LT PUSH2 0x60B JUMPI PUSH2 0x100 DUP1 DUP4 SLOAD DIV MUL DUP4 MSTORE SWAP2 PUSH1 0x20 ADD SWAP2 PUSH2 0x636 JUMP JUMPDEST DUP3 ADD SWAP2 SWAP1 PUSH1 0x0 MSTORE PUSH1 0x20 PUSH1 0x0 KECCAK256 SWAP1 JUMPDEST DUP2 SLOAD DUP2 MSTORE SWAP1 PUSH1 0x1 ADD SWAP1 PUSH1 0x20 ADD DUP1 DUP4 GT PUSH2 0x619 JUMPI DUP3 SWAP1 SUB PUSH1 0x1F AND DUP3 ADD SWAP2 JUMPDEST POP POP POP POP POP SWAP1 POP SWAP6 POP SWAP6 POP SWAP6 POP SWAP6 POP SWAP6 POP SWAP6 POP SWAP1 SWAP2 SWAP3 SWAP4 SWAP5 SWAP6 JUMP JUMPDEST PUSH1 0x0 PUSH1 0x40 MLOAD DUP1 PUSH1 0xC0 ADD PUSH1 0x40 MSTORE DUP1 DUP9 DUP2 MSTORE PUSH1 0x20 ADD DUP8 DUP2 MSTORE PUSH1 0x20 ADD DUP7 DUP2 MSTORE PUSH1 0x20 ADD DUP6 DUP2 MSTORE PUSH1 0x20 ADD DUP5 DUP2 MSTORE PUSH1 0x20 ADD DUP4 DUP2 MSTORE POP SWAP1 POP DUP1 PUSH1 0x3 PUSH1 0x0 DUP3 ADD MLOAD DUP2 PUSH1 0x0 ADD SWAP1 DUP1 MLOAD SWAP1 PUSH1 0x20 ADD SWAP1 PUSH2 0x6A1 SWAP3 SWAP2 SWAP1 PUSH2 0xCD7 JUMP JUMPDEST POP PUSH1 0x20 DUP3 ADD MLOAD DUP2 PUSH1 0x1 ADD SSTORE PUSH1 0x40 DUP3 ADD MLOAD DUP2 PUSH1 0x2 ADD SWAP1 DUP1 MLOAD SWAP1 PUSH1 0x20 ADD SWAP1 PUSH2 0x6C8 SWAP3 SWAP2 SWAP1 PUSH2 0xCD7 JUMP JUMPDEST POP PUSH1 0x60 DUP3 ADD MLOAD DUP2 PUSH1 0x3 ADD SWAP1 DUP1 MLOAD SWAP1 PUSH1 0x20 ADD SWAP1 PUSH2 0x6E5 SWAP3 SWAP2 SWAP1 PUSH2 0xCD7 JUMP JUMPDEST POP PUSH1 0x80 DUP3 ADD MLOAD DUP2 PUSH1 0x4 ADD SWAP1 DUP1 MLOAD SWAP1 PUSH1 0x20 ADD SWAP1 PUSH2 0x702 SWAP3 SWAP2 SWAP1 PUSH2 0xCD7 JUMP JUMPDEST POP PUSH1 0xA0 DUP3 ADD MLOAD DUP2 PUSH1 0x5 ADD SWAP1 DUP1 MLOAD SWAP1 PUSH1 0x20 ADD SWAP1 PUSH2 0x71F SWAP3 SWAP2 SWAP1 PUSH2 0xCD7 JUMP JUMPDEST POP SWAP1 POP POP POP POP POP POP POP POP POP JUMP JUMPDEST PUSH1 0x0 PUSH1 0x9 PUSH1 0x0 DUP4 PUSH20 0xFFFFFFFFFFFFFFFFFFFFFFFFFFFFFFFFFFFFFFFF AND PUSH20 0xFFFFFFFFFFFFFFFFFFFFFFFFFFFFFFFFFFFFFFFF AND DUP2 MSTORE PUSH1 0x20 ADD SWAP1 DUP2 MSTORE PUSH1 0x20 ADD PUSH1 0x0 KECCAK256 DUP1 SLOAD SWAP1 POP EQ ISZERO PUSH2 0x7E6 JUMPI DUP1 PUSH1 0xA PUSH1 0x0 PUSH1 0xB SLOAD DUP2 MSTORE PUSH1 0x20 ADD SWAP1 DUP2 MSTORE PUSH1 0x20 ADD PUSH1 0x0 KECCAK256 PUSH1 0x0 PUSH2 0x100 EXP DUP2 SLOAD DUP2 PUSH20 0xFFFFFFFFFFFFFFFFFFFFFFFFFFFFFFFFFFFFFFFF MUL NOT AND SWAP1 DUP4 PUSH20 0xFFFFFFFFFFFFFFFFFFFFFFFFFFFFFFFFFFFFFFFF AND MUL OR SWAP1 SSTORE POP PUSH1 0x1 PUSH1 0xB PUSH1 0x0 DUP3 DUP3 SLOAD PUSH2 0x7DE SWAP2 SWAP1 PUSH2 0x14BC JUMP JUMPDEST SWAP3 POP POP DUP2 SWAP1 SSTORE POP JUMPDEST PUSH1 0x9 PUSH1 0x0 DUP3 PUSH20 0xFFFFFFFFFFFFFFFFFFFFFFFFFFFFFFFFFFFFFFFF AND PUSH20 0xFFFFFFFFFFFFFFFFFFFFFFFFFFFFFFFFFFFFFFFF AND DUP2 MSTORE PUSH1 0x20 ADD SWAP1 DUP2 MSTORE PUSH1 0x20 ADD PUSH1 0x0 KECCAK256 DUP3 SWAP1 DUP1 PUSH1 0x1 DUP2 SLOAD ADD DUP1 DUP3 SSTORE DUP1 SWAP2 POP POP PUSH1 0x1 SWAP1 SUB SWAP1 PUSH1 0x0 MSTORE PUSH1 0x20 PUSH1 0x0 KECCAK256 ADD PUSH1 0x0 SWAP1 SWAP2 SWAP1 SWAP2 SWAP1 SWAP2 POP SSTORE POP POP JUMP JUMPDEST DUP3 PUSH1 0xC PUSH1 0x0 DUP5 PUSH20 0xFFFFFFFFFFFFFFFFFFFFFFFFFFFFFFFFFFFFFFFF AND PUSH20 0xFFFFFFFFFFFFFFFFFFFFFFFFFFFFFFFFFFFFFFFF AND DUP2 MSTORE PUSH1 0x20 ADD SWAP1 DUP2 MSTORE PUSH1 0x20 ADD PUSH1 0x0 KECCAK256 PUSH1 0x0 DUP4 DUP2 MSTORE PUSH1 0x20 ADD SWAP1 DUP2 MSTORE PUSH1 0x20 ADD PUSH1 0x0 KECCAK256 SWAP1 DUP1 MLOAD SWAP1 PUSH1 0x20 ADD SWAP1 PUSH2 0x8B4 SWAP3 SWAP2 SWAP1 PUSH2 0xCD7 JUMP JUMPDEST POP POP POP POP JUMP JUMPDEST PUSH1 0x0 DUP1 SLOAD SWAP1 PUSH2 0x100 EXP SWAP1 DIV PUSH20 0xFFFFFFFFFFFFFFFFFFFFFFFFFFFFFFFFFFFFFFFF AND DUP2 JUMP JUMPDEST PUSH1 0xB SLOAD DUP2 JUMP JUMPDEST PUSH1 0x3 DUP1 PUSH1 0x0 ADD DUP1 SLOAD PUSH2 0x8F5 SWAP1 PUSH2 0x145B JUMP JUMPDEST DUP1 PUSH1 0x1F ADD PUSH1 0x20 DUP1 SWAP2 DIV MUL PUSH1 0x20 ADD PUSH1 0x40 MLOAD SWAP1 DUP2 ADD PUSH1 0x40 MSTORE DUP1 SWAP3 SWAP2 SWAP1 DUP2 DUP2 MSTORE PUSH1 0x20 ADD DUP3 DUP1 SLOAD PUSH2 0x921 SWAP1 PUSH2 0x145B JUMP JUMPDEST DUP1 ISZERO PUSH2 0x96E JUMPI DUP1 PUSH1 0x1F LT PUSH2 0x943 JUMPI PUSH2 0x100 DUP1 DUP4 SLOAD DIV MUL DUP4 MSTORE SWAP2 PUSH1 0x20 ADD SWAP2 PUSH2 0x96E JUMP JUMPDEST DUP3 ADD SWAP2 SWAP1 PUSH1 0x0 MSTORE PUSH1 0x20 PUSH1 0x0 KECCAK256 SWAP1 JUMPDEST DUP2 SLOAD DUP2 MSTORE SWAP1 PUSH1 0x1 ADD SWAP1 PUSH1 0x20 ADD DUP1 DUP4 GT PUSH2 0x951 JUMPI DUP3 SWAP1 SUB PUSH1 0x1F AND DUP3 ADD SWAP2 JUMPDEST POP POP POP POP POP SWAP1 DUP1 PUSH1 0x1 ADD SLOAD SWAP1 DUP1 PUSH1 0x2 ADD DUP1 SLOAD PUSH2 0x989 SWAP1 PUSH2 0x145B JUMP JUMPDEST DUP1 PUSH1 0x1F ADD PUSH1 0x20 DUP1 SWAP2 DIV MUL PUSH1 0x20 ADD PUSH1 0x40 MLOAD SWAP1 DUP2 ADD PUSH1 0x40 MSTORE DUP1 SWAP3 SWAP2 SWAP1 DUP2 DUP2 MSTORE PUSH1 0x20 ADD DUP3 DUP1 SLOAD PUSH2 0x9B5 SWAP1 PUSH2 0x145B JUMP JUMPDEST DUP1 ISZERO PUSH2 0xA02 JUMPI DUP1 PUSH1 0x1F LT PUSH2 0x9D7 JUMPI PUSH2 0x100 DUP1 DUP4 SLOAD DIV MUL DUP4 MSTORE SWAP2 PUSH1 0x20 ADD SWAP2 PUSH2 0xA02 JUMP JUMPDEST DUP3 ADD SWAP2 SWAP1 PUSH1 0x0 MSTORE PUSH1 0x20 PUSH1 0x0 KECCAK256 SWAP1 JUMPDEST DUP2 SLOAD DUP2 MSTORE SWAP1 PUSH1 0x1 ADD SWAP1 PUSH1 0x20 ADD DUP1 DUP4 GT PUSH2 0x9E5 JUMPI DUP3 SWAP1 SUB PUSH1 0x1F AND DUP3 ADD SWAP2 JUMPDEST POP POP POP POP POP SWAP1 DUP1 PUSH1 0x3 ADD DUP1 SLOAD PUSH2 0xA17 SWAP1 PUSH2 0x145B JUMP JUMPDEST DUP1 PUSH1 0x1F ADD PUSH1 0x20 DUP1 SWAP2 DIV MUL PUSH1 0x20 ADD PUSH1 0x40 MLOAD SWAP1 DUP2 ADD PUSH1 0x40 MSTORE DUP1 SWAP3 SWAP2 SWAP1 DUP2 DUP2 MSTORE PUSH1 0x20 ADD DUP3 DUP1 SLOAD PUSH2 0xA43 SWAP1 PUSH2 0x145B JUMP JUMPDEST DUP1 ISZERO PUSH2 0xA90 JUMPI DUP1 PUSH1 0x1F LT PUSH2 0xA65 JUMPI PUSH2 0x100 DUP1 DUP4 SLOAD DIV MUL DUP4 MSTORE SWAP2 PUSH1 0x20 ADD SWAP2 PUSH2 0xA90 JUMP JUMPDEST DUP3 ADD SWAP2 SWAP1 PUSH1 0x0 MSTORE PUSH1 0x20 PUSH1 0x0 KECCAK256 SWAP1 JUMPDEST DUP2 SLOAD DUP2 MSTORE SWAP1 PUSH1 0x1 ADD SWAP1 PUSH1 0x20 ADD DUP1 DUP4 GT PUSH2 0xA73 JUMPI DUP3 SWAP1 SUB PUSH1 0x1F AND DUP3 ADD SWAP2 JUMPDEST POP POP POP POP POP SWAP1 DUP1 PUSH1 0x4 ADD DUP1 SLOAD PUSH2 0xAA5 SWAP1 PUSH2 0x145B JUMP JUMPDEST DUP1 PUSH1 0x1F ADD PUSH1 0x20 DUP1 SWAP2 DIV MUL PUSH1 0x20 ADD PUSH1 0x40 MLOAD SWAP1 DUP2 ADD PUSH1 0x40 MSTORE DUP1 SWAP3 SWAP2 SWAP1 DUP2 DUP2 MSTORE PUSH1 0x20 ADD DUP3 DUP1 SLOAD PUSH2 0xAD1 SWAP1 PUSH2 0x145B JUMP JUMPDEST DUP1 ISZERO PUSH2 0xB1E JUMPI DUP1 PUSH1 0x1F LT PUSH2 0xAF3 JUMPI PUSH2 0x100 DUP1 DUP4 SLOAD DIV MUL DUP4 MSTORE SWAP2 PUSH1 0x20 ADD SWAP2 PUSH2 0xB1E JUMP JUMPDEST DUP3 ADD SWAP2 SWAP1 PUSH1 0x0 MSTORE PUSH1 0x20 PUSH1 0x0 KECCAK256 SWAP1 JUMPDEST DUP2 SLOAD DUP2 MSTORE SWAP1 PUSH1 0x1 ADD SWAP1 PUSH1 0x20 ADD DUP1 DUP4 GT PUSH2 0xB01 JUMPI DUP3 SWAP1 SUB PUSH1 0x1F AND DUP3 ADD SWAP2 JUMPDEST POP POP POP POP POP SWAP1 DUP1 PUSH1 0x5 ADD DUP1 SLOAD PUSH2 0xB33 SWAP1 PUSH2 0x145B JUMP JUMPDEST DUP1 PUSH1 0x1F ADD PUSH1 0x20 DUP1 SWAP2 DIV MUL PUSH1 0x20 ADD PUSH1 0x40 MLOAD SWAP1 DUP2 ADD PUSH1 0x40 MSTORE DUP1 SWAP3 SWAP2 SWAP1 DUP2 DUP2 MSTORE PUSH1 0x20 ADD DUP3 DUP1 SLOAD PUSH2 0xB5F SWAP1 PUSH2 0x145B JUMP JUMPDEST DUP1 ISZERO PUSH2 0xBAC JUMPI DUP1 PUSH1 0x1F LT PUSH2 0xB81 JUMPI PUSH2 0x100 DUP1 DUP4 SLOAD DIV MUL DUP4 MSTORE SWAP2 PUSH1 0x20 ADD SWAP2 PUSH2 0xBAC JUMP JUMPDEST DUP3 ADD SWAP2 SWAP1 PUSH1 0x0 MSTORE PUSH1 0x20 PUSH1 0x0 KECCAK256 SWAP1 JUMPDEST DUP2 SLOAD DUP2 MSTORE SWAP1 PUSH1 0x1 ADD SWAP1 PUSH1 0x20 ADD DUP1 DUP4 GT PUSH2 0xB8F JUMPI DUP3 SWAP1 SUB PUSH1 0x1F AND DUP3 ADD SWAP2 JUMPDEST POP POP POP POP POP SWAP1 POP DUP7 JUMP JUMPDEST PUSH1 0xA PUSH1 0x20 MSTORE DUP1 PUSH1 0x0 MSTORE PUSH1 0x40 PUSH1 0x0 KECCAK256 PUSH1 0x0 SWAP2 POP SLOAD SWAP1 PUSH2 0x100 EXP SWAP1 DIV PUSH20 0xFFFFFFFFFFFFFFFFFFFFFFFFFFFFFFFFFFFFFFFF AND DUP2 JUMP JUMPDEST PUSH1 0x1 PUSH1 0x0 SWAP1 SLOAD SWAP1 PUSH2 0x100 EXP SWAP1 DIV PUSH20 0xFFFFFFFFFFFFFFFFFFFFFFFFFFFFFFFFFFFFFFFF AND DUP2 JUMP JUMPDEST PUSH1 0x60 PUSH1 0x9 PUSH1 0x0 DUP4 PUSH20 0xFFFFFFFFFFFFFFFFFFFFFFFFFFFFFFFFFFFFFFFF AND PUSH20 0xFFFFFFFFFFFFFFFFFFFFFFFFFFFFFFFFFFFFFFFF AND DUP2 MSTORE PUSH1 0x20 ADD SWAP1 DUP2 MSTORE PUSH1 0x20 ADD PUSH1 0x0 KECCAK256 DUP1 SLOAD DUP1 PUSH1 0x20 MUL PUSH1 0x20 ADD PUSH1 0x40 MLOAD SWAP1 DUP2 ADD PUSH1 0x40 MSTORE DUP1 SWAP3 SWAP2 SWAP1 DUP2 DUP2 MSTORE PUSH1 0x20 ADD DUP3 DUP1 SLOAD DUP1 ISZERO PUSH2 0xC9A JUMPI PUSH1 0x20 MUL DUP3 ADD SWAP2 SWAP1 PUSH1 0x0 MSTORE PUSH1 0x20 PUSH1 0x0 KECCAK256 SWAP1 JUMPDEST DUP2 SLOAD DUP2 MSTORE PUSH1 0x20 ADD SWAP1 PUSH1 0x1 ADD SWAP1 DUP1 DUP4 GT PUSH2 0xC86 JUMPI JUMPDEST POP POP POP POP POP SWAP1 POP SWAP2 SWAP1 POP JUMP JUMPDEST PUSH1 0x9 PUSH1 0x20 MSTORE DUP2 PUSH1 0x0 MSTORE PUSH1 0x40 PUSH1 0x0 KECCAK256 DUP2 DUP2 SLOAD DUP2 LT PUSH2 0xCC2 JUMPI PUSH1 0x0 DUP1 REVERT JUMPDEST SWAP1 PUSH1 0x0 MSTORE PUSH1 0x20 PUSH1 0x0 KECCAK256 ADD PUSH1 0x0 SWAP2 POP SWAP2 POP POP SLOAD DUP2 JUMP JUMPDEST DUP3 DUP1 SLOAD PUSH2 0xCE3 SWAP1 PUSH2 0x145B JUMP JUMPDEST SWAP1 PUSH1 0x0 MSTORE PUSH1 0x20 PUSH1 0x0 KECCAK256 SWAP1 PUSH1 0x1F ADD PUSH1 0x20 SWAP1 DIV DUP2 ADD SWAP3 DUP3 PUSH2 0xD05 JUMPI PUSH1 0x0 DUP6 SSTORE PUSH2 0xD4C JUMP JUMPDEST DUP3 PUSH1 0x1F LT PUSH2 0xD1E JUMPI DUP1 MLOAD PUSH1 0xFF NOT AND DUP4 DUP1 ADD OR DUP6 SSTORE PUSH2 0xD4C JUMP JUMPDEST DUP3 DUP1 ADD PUSH1 0x1 ADD DUP6 SSTORE DUP3 ISZERO PUSH2 0xD4C JUMPI SWAP2 DUP3 ADD JUMPDEST DUP3 DUP2 GT ISZERO PUSH2 0xD4B JUMPI DUP3 MLOAD DUP3 SSTORE SWAP2 PUSH1 0x20 ADD SWAP2 SWAP1 PUSH1 0x1 ADD SWAP1 PUSH2 0xD30 JUMP JUMPDEST JUMPDEST POP SWAP1 POP PUSH2 0xD59 SWAP2 SWAP1 PUSH2 0xD5D JUMP JUMPDEST POP SWAP1 JUMP JUMPDEST JUMPDEST DUP1 DUP3 GT ISZERO PUSH2 0xD76 JUMPI PUSH1 0x0 DUP2 PUSH1 0x0 SWAP1 SSTORE POP PUSH1 0x1 ADD PUSH2 0xD5E JUMP JUMPDEST POP SWAP1 JUMP JUMPDEST PUSH1 0x0 PUSH1 0x40 MLOAD SWAP1 POP SWAP1 JUMP JUMPDEST PUSH1 0x0 DUP1 REVERT JUMPDEST PUSH1 0x0 DUP1 REVERT JUMPDEST PUSH1 0x0 PUSH20 0xFFFFFFFFFFFFFFFFFFFFFFFFFFFFFFFFFFFFFFFF DUP3 AND SWAP1 POP SWAP2 SWAP1 POP JUMP JUMPDEST PUSH1 0x0 PUSH2 0xDB9 DUP3 PUSH2 0xD8E JUMP JUMPDEST SWAP1 POP SWAP2 SWAP1 POP JUMP JUMPDEST PUSH2 0xDC9 DUP2 PUSH2 0xDAE JUMP JUMPDEST DUP2 EQ PUSH2 0xDD4 JUMPI PUSH1 0x0 DUP1 REVERT JUMPDEST POP JUMP JUMPDEST PUSH1 0x0 DUP2 CALLDATALOAD SWAP1 POP PUSH2 0xDE6 DUP2 PUSH2 0xDC0 JUMP JUMPDEST SWAP3 SWAP2 POP POP JUMP JUMPDEST PUSH1 0x0 DUP2 SWAP1 POP SWAP2 SWAP1 POP JUMP JUMPDEST PUSH2 0xDFF DUP2 PUSH2 0xDEC JUMP JUMPDEST DUP2 EQ PUSH2 0xE0A JUMPI PUSH1 0x0 DUP1 REVERT JUMPDEST POP JUMP JUMPDEST PUSH1 0x0 DUP2 CALLDATALOAD SWAP1 POP PUSH2 0xE1C DUP2 PUSH2 0xDF6 JUMP JUMPDEST SWAP3 SWAP2 POP POP JUMP JUMPDEST PUSH1 0x0 DUP1 PUSH1 0x40 DUP4 DUP6 SUB SLT ISZERO PUSH2 0xE39 JUMPI PUSH2 0xE38 PUSH2 0xD84 JUMP JUMPDEST JUMPDEST PUSH1 0x0 PUSH2 0xE47 DUP6 DUP3 DUP7 ADD PUSH2 0xDD7 JUMP JUMPDEST SWAP3 POP POP PUSH1 0x20 PUSH2 0xE58 DUP6 DUP3 DUP7 ADD PUSH2 0xE0D JUMP JUMPDEST SWAP2 POP POP SWAP3 POP SWAP3 SWAP1 POP JUMP JUMPDEST PUSH1 0x0 DUP2 MLOAD SWAP1 POP SWAP2 SWAP1 POP JUMP JUMPDEST PUSH1 0x0 DUP3 DUP3 MSTORE PUSH1 0x20 DUP3 ADD SWAP1 POP SWAP3 SWAP2 POP POP JUMP JUMPDEST PUSH1 0x0 JUMPDEST DUP4 DUP2 LT ISZERO PUSH2 0xE9C JUMPI DUP1 DUP3 ADD MLOAD DUP2 DUP5 ADD MSTORE PUSH1 0x20 DUP2 ADD SWAP1 POP PUSH2 0xE81 JUMP JUMPDEST DUP4 DUP2 GT ISZERO PUSH2 0xEAB JUMPI PUSH1 0x0 DUP5 DUP5 ADD MSTORE JUMPDEST POP POP POP POP JUMP JUMPDEST PUSH1 0x0 PUSH1 0x1F NOT PUSH1 0x1F DUP4 ADD AND SWAP1 POP SWAP2 SWAP1 POP JUMP JUMPDEST PUSH1 0x0 PUSH2 0xECD DUP3 PUSH2 0xE62 JUMP JUMPDEST PUSH2 0xED7 DUP2 DUP6 PUSH2 0xE6D JUMP JUMPDEST SWAP4 POP PUSH2 0xEE7 DUP2 DUP6 PUSH1 0x20 DUP7 ADD PUSH2 0xE7E JUMP JUMPDEST PUSH2 0xEF0 DUP2 PUSH2 0xEB1 JUMP JUMPDEST DUP5 ADD SWAP2 POP POP SWAP3 SWAP2 POP POP JUMP JUMPDEST PUSH1 0x0 PUSH1 0x20 DUP3 ADD SWAP1 POP DUP2 DUP2 SUB PUSH1 0x0 DUP4 ADD MSTORE PUSH2 0xF15 DUP2 DUP5 PUSH2 0xEC2 JUMP JUMPDEST SWAP1 POP SWAP3 SWAP2 POP POP JUMP JUMPDEST PUSH2 0xF26 DUP2 PUSH2 0xDEC JUMP JUMPDEST DUP3 MSTORE POP POP JUMP JUMPDEST PUSH1 0x0 PUSH1 0x20 DUP3 ADD SWAP1 POP PUSH2 0xF41 PUSH1 0x0 DUP4 ADD DUP5 PUSH2 0xF1D JUMP JUMPDEST SWAP3 SWAP2 POP POP JUMP JUMPDEST PUSH1 0x0 PUSH1 0xC0 DUP3 ADD SWAP1 POP DUP2 DUP2 SUB PUSH1 0x0 DUP4 ADD MSTORE PUSH2 0xF61 DUP2 DUP10 PUSH2 0xEC2 JUMP JUMPDEST SWAP1 POP PUSH2 0xF70 PUSH1 0x20 DUP4 ADD DUP9 PUSH2 0xF1D JUMP JUMPDEST DUP2 DUP2 SUB PUSH1 0x40 DUP4 ADD MSTORE PUSH2 0xF82 DUP2 DUP8 PUSH2 0xEC2 JUMP JUMPDEST SWAP1 POP DUP2 DUP2 SUB PUSH1 0x60 DUP4 ADD MSTORE PUSH2 0xF96 DUP2 DUP7 PUSH2 0xEC2 JUMP JUMPDEST SWAP1 POP DUP2 DUP2 SUB PUSH1 0x80 DUP4 ADD MSTORE PUSH2 0xFAA DUP2 DUP6 PUSH2 0xEC2 JUMP JUMPDEST SWAP1 POP DUP2 DUP2 SUB PUSH1 0xA0 DUP4 ADD MSTORE PUSH2 0xFBE DUP2 DUP5 PUSH2 0xEC2 JUMP JUMPDEST SWAP1 POP SWAP8 SWAP7 POP POP POP POP POP POP POP JUMP JUMPDEST PUSH1 0x0 DUP1 REVERT JUMPDEST PUSH1 0x0 DUP1 REVERT JUMPDEST PUSH32 0x4E487B7100000000000000000000000000000000000000000000000000000000 PUSH1 0x0 MSTORE PUSH1 0x41 PUSH1 0x4 MSTORE PUSH1 0x24 PUSH1 0x0 REVERT JUMPDEST PUSH2 0x100D DUP3 PUSH2 0xEB1 JUMP JUMPDEST DUP2 ADD DUP2 DUP2 LT PUSH8 0xFFFFFFFFFFFFFFFF DUP3 GT OR ISZERO PUSH2 0x102C JUMPI PUSH2 0x102B PUSH2 0xFD5 JUMP JUMPDEST JUMPDEST DUP1 PUSH1 0x40 MSTORE POP POP POP JUMP JUMPDEST PUSH1 0x0 PUSH2 0x103F PUSH2 0xD7A JUMP JUMPDEST SWAP1 POP PUSH2 0x104B DUP3 DUP3 PUSH2 0x1004 JUMP JUMPDEST SWAP2 SWAP1 POP JUMP JUMPDEST PUSH1 0x0 PUSH8 0xFFFFFFFFFFFFFFFF DUP3 GT ISZERO PUSH2 0x106B JUMPI PUSH2 0x106A PUSH2 0xFD5 JUMP JUMPDEST JUMPDEST PUSH2 0x1074 DUP3 PUSH2 0xEB1 JUMP JUMPDEST SWAP1 POP PUSH1 0x20 DUP2 ADD SWAP1 POP SWAP2 SWAP1 POP JUMP JUMPDEST DUP3 DUP2 DUP4 CALLDATACOPY PUSH1 0x0 DUP4 DUP4 ADD MSTORE POP POP POP JUMP JUMPDEST PUSH1 0x0 PUSH2 0x10A3 PUSH2 0x109E DUP5 PUSH2 0x1050 JUMP JUMPDEST PUSH2 0x1035 JUMP JUMPDEST SWAP1 POP DUP3 DUP2 MSTORE PUSH1 0x20 DUP2 ADD DUP5 DUP5 DUP5 ADD GT ISZERO PUSH2 0x10BF JUMPI PUSH2 0x10BE PUSH2 0xFD0 JUMP JUMPDEST JUMPDEST PUSH2 0x10CA DUP5 DUP3 DUP6 PUSH2 0x1081 JUMP JUMPDEST POP SWAP4 SWAP3 POP POP POP JUMP JUMPDEST PUSH1 0x0 DUP3 PUSH1 0x1F DUP4 ADD SLT PUSH2 0x10E7 JUMPI PUSH2 0x10E6 PUSH2 0xFCB JUMP JUMPDEST JUMPDEST DUP2 CALLDATALOAD PUSH2 0x10F7 DUP5 DUP3 PUSH1 0x20 DUP7 ADD PUSH2 0x1090 JUMP JUMPDEST SWAP2 POP POP SWAP3 SWAP2 POP POP JUMP JUMPDEST PUSH1 0x0 DUP1 PUSH1 0x0 DUP1 PUSH1 0x0 DUP1 PUSH1 0xC0 DUP8 DUP10 SUB SLT ISZERO PUSH2 0x111D JUMPI PUSH2 0x111C PUSH2 0xD84 JUMP JUMPDEST JUMPDEST PUSH1 0x0 DUP8 ADD CALLDATALOAD PUSH8 0xFFFFFFFFFFFFFFFF DUP2 GT ISZERO PUSH2 0x113B JUMPI PUSH2 0x113A PUSH2 0xD89 JUMP JUMPDEST JUMPDEST PUSH2 0x1147 DUP10 DUP3 DUP11 ADD PUSH2 0x10D2 JUMP JUMPDEST SWAP7 POP POP PUSH1 0x20 PUSH2 0x1158 DUP10 DUP3 DUP11 ADD PUSH2 0xE0D JUMP JUMPDEST SWAP6 POP POP PUSH1 0x40 DUP8 ADD CALLDATALOAD PUSH8 0xFFFFFFFFFFFFFFFF DUP2 GT ISZERO PUSH2 0x1179 JUMPI PUSH2 0x1178 PUSH2 0xD89 JUMP JUMPDEST JUMPDEST PUSH2 0x1185 DUP10 DUP3 DUP11 ADD PUSH2 0x10D2 JUMP JUMPDEST SWAP5 POP POP PUSH1 0x60 DUP8 ADD CALLDATALOAD PUSH8 0xFFFFFFFFFFFFFFFF DUP2 GT ISZERO PUSH2 0x11A6 JUMPI PUSH2 0x11A5 PUSH2 0xD89 JUMP JUMPDEST JUMPDEST PUSH2 0x11B2 DUP10 DUP3 DUP11 ADD PUSH2 0x10D2 JUMP JUMPDEST SWAP4 POP POP PUSH1 0x80 DUP8 ADD CALLDATALOAD PUSH8 0xFFFFFFFFFFFFFFFF DUP2 GT ISZERO PUSH2 0x11D3 JUMPI PUSH2 0x11D2 PUSH2 0xD89 JUMP JUMPDEST JUMPDEST PUSH2 0x11DF DUP10 DUP3 DUP11 ADD PUSH2 0x10D2 JUMP JUMPDEST SWAP3 POP POP PUSH1 0xA0 DUP8 ADD CALLDATALOAD PUSH8 0xFFFFFFFFFFFFFFFF DUP2 GT ISZERO PUSH2 0x1200 JUMPI PUSH2 0x11FF PUSH2 0xD89 JUMP JUMPDEST JUMPDEST PUSH2 0x120C DUP10 DUP3 DUP11 ADD PUSH2 0x10D2 JUMP JUMPDEST SWAP2 POP POP SWAP3 SWAP6 POP SWAP3 SWAP6 POP SWAP3 SWAP6 JUMP JUMPDEST PUSH1 0x0 DUP1 PUSH1 0x40 DUP4 DUP6 SUB SLT ISZERO PUSH2 0x1230 JUMPI PUSH2 0x122F PUSH2 0xD84 JUMP JUMPDEST JUMPDEST PUSH1 0x0 PUSH2 0x123E DUP6 DUP3 DUP7 ADD PUSH2 0xE0D JUMP JUMPDEST SWAP3 POP POP PUSH1 0x20 PUSH2 0x124F DUP6 DUP3 DUP7 ADD PUSH2 0xDD7 JUMP JUMPDEST SWAP2 POP POP SWAP3 POP SWAP3 SWAP1 POP JUMP JUMPDEST PUSH1 0x0 DUP1 PUSH1 0x0 PUSH1 0x60 DUP5 DUP7 SUB SLT ISZERO PUSH2 0x1272 JUMPI PUSH2 0x1271 PUSH2 0xD84 JUMP JUMPDEST JUMPDEST PUSH1 0x0 DUP5 ADD CALLDATALOAD PUSH8 0xFFFFFFFFFFFFFFFF DUP2 GT ISZERO PUSH2 0x1290 JUMPI PUSH2 0x128F PUSH2 0xD89 JUMP JUMPDEST JUMPDEST PUSH2 0x129C DUP7 DUP3 DUP8 ADD PUSH2 0x10D2 JUMP JUMPDEST SWAP4 POP POP PUSH1 0x20 PUSH2 0x12AD DUP7 DUP3 DUP8 ADD PUSH2 0xDD7 JUMP JUMPDEST SWAP3 POP POP PUSH1 0x40 PUSH2 0x12BE DUP7 DUP3 DUP8 ADD PUSH2 0xE0D JUMP JUMPDEST SWAP2 POP POP SWAP3 POP SWAP3 POP SWAP3 JUMP JUMPDEST PUSH2 0x12D1 DUP2 PUSH2 0xDAE JUMP JUMPDEST DUP3 MSTORE POP POP JUMP JUMPDEST PUSH1 0x0 PUSH1 0x20 DUP3 ADD SWAP1 POP PUSH2 0x12EC PUSH1 0x0 DUP4 ADD DUP5 PUSH2 0x12C8 JUMP JUMPDEST SWAP3 SWAP2 POP POP JUMP JUMPDEST PUSH1 0x0 PUSH1 0x20 DUP3 DUP5 SUB SLT ISZERO PUSH2 0x1308 JUMPI PUSH2 0x1307 PUSH2 0xD84 JUMP JUMPDEST JUMPDEST PUSH1 0x0 PUSH2 0x1316 DUP5 DUP3 DUP6 ADD PUSH2 0xE0D JUMP JUMPDEST SWAP2 POP POP SWAP3 SWAP2 POP POP JUMP JUMPDEST PUSH1 0x0 PUSH1 0x20 DUP3 DUP5 SUB SLT ISZERO PUSH2 0x1335 JUMPI PUSH2 0x1334 PUSH2 0xD84 JUMP JUMPDEST JUMPDEST PUSH1 0x0 PUSH2 0x1343 DUP5 DUP3 DUP6 ADD PUSH2 0xDD7 JUMP JUMPDEST SWAP2 POP POP SWAP3 SWAP2 POP POP JUMP JUMPDEST PUSH1 0x0 DUP2 MLOAD SWAP1 POP SWAP2 SWAP1 POP JUMP JUMPDEST PUSH1 0x0 DUP3 DUP3 MSTORE PUSH1 0x20 DUP3 ADD SWAP1 POP SWAP3 SWAP2 POP POP JUMP JUMPDEST PUSH1 0x0 DUP2 SWAP1 POP PUSH1 0x20 DUP3 ADD SWAP1 POP SWAP2 SWAP1 POP JUMP JUMPDEST PUSH2 0x1381 DUP2 PUSH2 0xDEC JUMP JUMPDEST DUP3 MSTORE POP POP JUMP JUMPDEST PUSH1 0x0 PUSH2 0x1393 DUP4 DUP4 PUSH2 0x1378 JUMP JUMPDEST PUSH1 0x20 DUP4 ADD SWAP1 POP SWAP3 SWAP2 POP POP JUMP JUMPDEST PUSH1 0x0 PUSH1 0x20 DUP3 ADD SWAP1 POP SWAP2 SWAP1 POP JUMP JUMPDEST PUSH1 0x0 PUSH2 0x13B7 DUP3 PUSH2 0x134C JUMP JUMPDEST PUSH2 0x13C1 DUP2 DUP6 PUSH2 0x1357 JUMP JUMPDEST SWAP4 POP PUSH2 0x13CC DUP4 PUSH2 0x1368 JUMP JUMPDEST DUP1 PUSH1 0x0 JUMPDEST DUP4 DUP2 LT ISZERO PUSH2 0x13FD JUMPI DUP2 MLOAD PUSH2 0x13E4 DUP9 DUP3 PUSH2 0x1387 JUMP JUMPDEST SWAP8 POP PUSH2 0x13EF DUP4 PUSH2 0x139F JUMP JUMPDEST SWAP3 POP POP PUSH1 0x1 DUP2 ADD SWAP1 POP PUSH2 0x13D0 JUMP JUMPDEST POP DUP6 SWAP4 POP POP POP POP SWAP3 SWAP2 POP POP JUMP JUMPDEST PUSH1 0x0 PUSH1 0x20 DUP3 ADD SWAP1 POP DUP2 DUP2 SUB PUSH1 0x0 DUP4 ADD MSTORE PUSH2 0x1424 DUP2 DUP5 PUSH2 0x13AC JUMP JUMPDEST SWAP1 POP SWAP3 SWAP2 POP POP JUMP JUMPDEST PUSH32 0x4E487B7100000000000000000000000000000000000000000000000000000000 PUSH1 0x0 MSTORE PUSH1 0x22 PUSH1 0x4 MSTORE PUSH1 0x24 PUSH1 0x0 REVERT JUMPDEST PUSH1 0x0 PUSH1 0x2 DUP3 DIV SWAP1 POP PUSH1 0x1 DUP3 AND DUP1 PUSH2 0x1473 JUMPI PUSH1 0x7F DUP3 AND SWAP2 POP JUMPDEST PUSH1 0x20 DUP3 LT DUP2 EQ ISZERO PUSH2 0x1487 JUMPI PUSH2 0x1486 PUSH2 0x142C JUMP JUMPDEST JUMPDEST POP SWAP2 SWAP1 POP JUMP JUMPDEST PUSH32 0x4E487B7100000000000000000000000000000000000000000000000000000000 PUSH1 0x0 MSTORE PUSH1 0x11 PUSH1 0x4 MSTORE PUSH1 0x24 PUSH1 0x0 REVERT JUMPDEST PUSH1 0x0 PUSH2 0x14C7 DUP3 PUSH2 0xDEC JUMP JUMPDEST SWAP2 POP PUSH2 0x14D2 DUP4 PUSH2 0xDEC JUMP JUMPDEST SWAP3 POP DUP3 PUSH32 0xFFFFFFFFFFFFFFFFFFFFFFFFFFFFFFFFFFFFFFFFFFFFFFFFFFFFFFFFFFFFFFFF SUB DUP3 GT ISZERO PUSH2 0x1507 JUMPI PUSH2 0x1506 PUSH2 0x148D JUMP JUMPDEST JUMPDEST DUP3 DUP3 ADD SWAP1 POP SWAP3 SWAP2 POP POP JUMP INVALID LOG2 PUSH5 0x6970667358 0x22 SLT KECCAK256 0xBA 0xAA SWAP8 DUP7 ADDMOD MSIZE DUP8 0xEF 0xA6 0xBA RETURNDATACOPY CALLER 0xBD 0xB3 PUSH18 0xFA782EC4F63D2E5C7504932BA0F9A9542B64 PUSH20 0x6F6C63430008090033A264697066735822122075 AND DUP14 0xB4 0xEE BASEFEE 0xF PUSH21 0xD4001D64F12B1E827D3F2CF5073768208631315F3D 0xE4 0x2F 0x5D PUSH5 0x736F6C6343 STOP ADDMOD MULMOD STOP CALLER "},"gasEstimates":{"creation":{"codeDepositCost":"4154600","executionCost":"4776","totalCost":"4159376"},"external":{"createDoctor()":"infinite","createPatient(string,uint256,string,string,string)":"infinite","createProf(string,uint256,string,string,string,string)":"infinite","doctorsHospitals(address)":"infinite","getDoctor(address)":"infinite","getMedicalProf(address)":"infinite","getMedicalProf(uint256)":"5114","getPatientContract(address)":"infinite","medicalProf(address)":"infinite","patientContracts(address)":"infinite","profCount()":"2517","profTracks(uint256)":"2950"}},"methodIdentifiers":{"createDoctor()":"52d703c9","createPatient(string,uint256,string,string,string)":"16d07e5c","createProf(string,uint256,string,string,string,string)":"f97f4772","doctorsHospitals(address)":"155eec7d","getDoctor(address)":"2f04e064","getMedicalProf(address)":"42c046db","getMedicalProf(uint256)":"15fe62e6","getPatientContract(address)":"35f2b3ea","medicalProf(address)":"ca5e52e7","patientContracts(address)":"653289b9","profCount()":"e7ce49a7","profTracks(uint256)":"3fd2f1a2"}},"storageLayout":{"storage":[{"astId":5,"contract":"factoryContract.sol:factoryContract","label":"patientContracts","offset":0,"slot":"0","type":"t_mapping(t_address,t_address)"},{"astId":9,"contract":"factoryContract.sol:factoryContract","label":"doctorsHospitals","offset":0,"slot":"1","type":"t_mapping(t_address,t_address)"},{"astId":13,"contract":"factoryContract.sol:factoryContract","label":"medicalProf","offset":0,"slot":"2","type":"t_mapping(t_address,t_address)"},{"astId":17,"contract":"factoryContract.sol:factoryContract","label":"profTracks","offset":0,"slot":"3","type":"t_mapping(t_uint256,t_address)"},{"astId":19,"contract":"factoryContract.sol:factoryContract","label":"profCount","offset":0,"slot":"4","type":"t_uint256"}],"types":{"t_address":{"encoding":"inplace","label":"address","numberOfBytes":"20"},"t_mapping(t_address,t_address)":{"encoding":"mapping","key":"t_address","label":"mapping(address => address)","numberOfBytes":"32","value":"t_address"},"t_mapping(t_uint256,t_address)":{"encoding":"mapping","key":"t_uint256","label":"mapping(uint256 => address)","numberOfBytes":"32","value":"t_address"},"t_uint256":{"encoding":"inplace","label":"uint256","numberOfBytes":"32"}}},"userdoc":{"kind":"user","methods":{},"version":1}}