{"abi":[{"inputs":[{"internalType":"address","name":"factory","type":"address"},{"internalType":"address","name":"prof","type":"address"},{"internalType":"string","name":"_name","type":"string"},{"internalType":"uint256","name":"_age","type":"uint256"},{"internalType":"string","name":"_gender","type":"string"},{"internalType":"string","name":"_hospital","type":"string"},{"internalType":"string","name":"_hospitalId","type":"string"},{"internalType":"string","name":"_email","type":"string"}],"stateMutability":"nonpayable","type":"constructor"},{"inputs":[],"name":"Factory","outputs":[{"internalType":"address","name":"","type":"address"}],"stateMutability":"view","type":"function"},{"inputs":[],"name":"Prof","outputs":[{"internalType":"address","name":"","type":"address"}],"stateMutability":"view","type":"function"},{"inputs":[{"internalType":"string","name":"_comments","type":"string"},{"internalType":"address","name":"patient","type":"address"},{"internalType":"uint256","name":"record","type":"uint256"}],"name":"addComments","outputs":[],"stateMutability":"nonpayable","type":"function"},{"inputs":[{"internalType":"uint256","name":"report","type":"uint256"},{"internalType":"address","name":"patient","type":"address"}],"name":"addReports","outputs":[],"stateMutability":"nonpayable","type":"function"},{"inputs":[{"internalType":"string","name":"_name","type":"string"},{"internalType":"uint256","name":"_age","type":"uint256"},{"internalType":"string","name":"_gender","type":"string"},{"internalType":"string","name":"_hospital","type":"string"},{"internalType":"string","name":"_hospitalId","type":"string"},{"internalType":"string","name":"_email","type":"string"}],"name":"changeProfDetails","outputs":[],"stateMutability":"nonpayable","type":"function"},{"inputs":[{"internalType":"address","name":"","type":"address"},{"internalType":"uint256","name":"","type":"uint256"}],"name":"comments","outputs":[{"internalType":"string","name":"","type":"string"}],"stateMutability":"view","type":"function"},{"inputs":[{"internalType":"address","name":"patient","type":"address"}],"name":"getPatientReports","outputs":[{"internalType":"uint256[]","name":"","type":"uint256[]"}],"stateMutability":"view","type":"function"},{"inputs":[],"name":"getProfDetails","outputs":[{"internalType":"string","name":"","type":"string"},{"internalType":"uint256","name":"","type":"uint256"},{"internalType":"string","name":"","type":"string"},{"internalType":"string","name":"","type":"string"},{"internalType":"string","name":"","type":"string"},{"internalType":"string","name":"","type":"string"}],"stateMutability":"view","type":"function"},{"inputs":[],"name":"patientCount","outputs":[{"internalType":"uint256","name":"","type":"uint256"}],"stateMutability":"view","type":"function"},{"inputs":[{"internalType":"address","name":"","type":"address"},{"internalType":"uint256","name":"","type":"uint256"}],"name":"patientReports","outputs":[{"internalType":"uint256","name":"","type":"uint256"}],"stateMutability":"view","type":"function"},{"inputs":[{"internalType":"uint256","name":"","type":"uint256"}],"name":"patientTrack","outputs":[{"internalType":"address","name":"","type":"address"}],"stateMutability":"view","type":"function"},{"inputs":[],"name":"profDetails","outputs":[{"internalType":"string","name":"profName","type":"string"},{"internalType":"uint256","name":"age","type":"uint256"},{"internalType":"string","name":"gender","type":"string"},{"internalType":"string","name":"hospital","type":"string"},{"internalType":"string","name":"hospitalId","type":"string"},{"internalType":"string","name":"email","type":"string"}],"stateMutability":"view","type":"function"},{"inputs":[],"name":"reportCount","outputs":[{"internalType":"uint256","name":"","type":"uint256"}],"stateMutability":"view","type":"function"}],"devdoc":{"kind":"dev","methods":{},"version":1},"evm":{"assembly":"    /* \"factoryContract.sol\":5202:7780  contract medicalProfContract{... */\n  mstore(0x40, 0x80)\n    /* \"factoryContract.sol\":5742:6315  constructor(address factory, address prof,string memory _name, uint _age, string memory _gender, string memory _hospital,string memory _hospitalId, string memory _email){... */\n  callvalue\n  dup1\n  iszero\n  tag_1\n  jumpi\n  0x00\n  dup1\n  revert\ntag_1:\n  pop\n  mload(0x40)\n  sub(codesize, bytecodeSize)\n  dup1\n  bytecodeSize\n  dup4\n  codecopy\n  dup2\n  dup2\n  add\n  0x40\n  mstore\n  dup2\n  add\n  swap1\n  tag_2\n  swap2\n  swap1\n  tag_3\n  jump\t// in\ntag_2:\n    /* \"factoryContract.sol\":5929:5933  prof */\n  dup7\n    /* \"factoryContract.sol\":5922:5926  Prof */\n  0x00\n  dup1\n    /* \"factoryContract.sol\":5922:5933  Prof = prof */\n  0x0100\n  exp\n  dup2\n  sload\n  dup2\n  0xffffffffffffffffffffffffffffffffffffffff\n  mul\n  not\n  and\n  swap1\n  dup4\n  0xffffffffffffffffffffffffffffffffffffffff\n  and\n  mul\n  or\n  swap1\n  sstore\n  pop\n    /* \"factoryContract.sol\":5944:5976  details memory newStructInstance */\n  0x00\n    /* \"factoryContract.sol\":5979:6237  details({... */\n  mload(0x40)\n  dup1\n  0xc0\n  add\n  0x40\n  mstore\n  dup1\n    /* \"factoryContract.sol\":6012:6017  _name */\n  dup9\n    /* \"factoryContract.sol\":5979:6237  details({... */\n  dup2\n  mstore\n  0x20\n  add\n    /* \"factoryContract.sol\":6037:6041  _age */\n  dup8\n    /* \"factoryContract.sol\":5979:6237  details({... */\n  dup2\n  mstore\n  0x20\n  add\n    /* \"factoryContract.sol\":6065:6072  _gender */\n  dup7\n    /* \"factoryContract.sol\":5979:6237  details({... */\n  dup2\n  mstore\n  0x20\n  add\n    /* \"factoryContract.sol\":6098:6107  _hospital */\n  dup6\n    /* \"factoryContract.sol\":5979:6237  details({... */\n  dup2\n  mstore\n  0x20\n  add\n    /* \"factoryContract.sol\":6135:6146  _hospitalId */\n  dup5\n    /* \"factoryContract.sol\":5979:6237  details({... */\n  dup2\n  mstore\n  0x20\n  add\n    /* \"factoryContract.sol\":6169:6175  _email */\n  dup4\n    /* \"factoryContract.sol\":5979:6237  details({... */\n  dup2\n  mstore\n  pop\n    /* \"factoryContract.sol\":5944:6237  details memory newStructInstance = details({... */\n  swap1\n  pop\n    /* \"factoryContract.sol\":6262:6279  newStructInstance */\n  dup1\n    /* \"factoryContract.sol\":6248:6259  profDetails */\n  0x03\n    /* \"factoryContract.sol\":6248:6279  profDetails = newStructInstance */\n  0x00\n  dup3\n  add\n  mload\n  dup2\n  0x00\n  add\n  swap1\n  dup1\n  mload\n  swap1\n  0x20\n  add\n  swap1\n  tag_6\n  swap3\n  swap2\n  swap1\n  tag_7\n  jump\t// in\ntag_6:\n  pop\n  0x20\n  dup3\n  add\n  mload\n  dup2\n  0x01\n  add\n  sstore\n  0x40\n  dup3\n  add\n  mload\n  dup2\n  0x02\n  add\n  swap1\n  dup1\n  mload\n  swap1\n  0x20\n  add\n  swap1\n  tag_8\n  swap3\n  swap2\n  swap1\n  tag_7\n  jump\t// in\ntag_8:\n  pop\n  0x60\n  dup3\n  add\n  mload\n  dup2\n  0x03\n  add\n  swap1\n  dup1\n  mload\n  swap1\n  0x20\n  add\n  swap1\n  tag_9\n  swap3\n  swap2\n  swap1\n  tag_7\n  jump\t// in\ntag_9:\n  pop\n  0x80\n  dup3\n  add\n  mload\n  dup2\n  0x04\n  add\n  swap1\n  dup1\n  mload\n  swap1\n  0x20\n  add\n  swap1\n  tag_10\n  swap3\n  swap2\n  swap1\n  tag_7\n  jump\t// in\ntag_10:\n  pop\n  0xa0\n  dup3\n  add\n  mload\n  dup2\n  0x05\n  add\n  swap1\n  dup1\n  mload\n  swap1\n  0x20\n  add\n  swap1\n  tag_11\n  swap3\n  swap2\n  swap1\n  tag_7\n  jump\t// in\ntag_11:\n  pop\n  swap1\n  pop\n  pop\n    /* \"factoryContract.sol\":6300:6307  factory */\n  dup9\n    /* \"factoryContract.sol\":6290:6297  Factory */\n  0x01\n  0x00\n    /* \"factoryContract.sol\":6290:6307  Factory = factory */\n  0x0100\n  exp\n  dup2\n  sload\n  dup2\n  0xffffffffffffffffffffffffffffffffffffffff\n  mul\n  not\n  and\n  swap1\n  dup4\n  0xffffffffffffffffffffffffffffffffffffffff\n  and\n  mul\n  or\n  swap1\n  sstore\n  pop\n    /* \"factoryContract.sol\":5911:6315  {... */\n  pop\n    /* \"factoryContract.sol\":5742:6315  constructor(address factory, address prof,string memory _name, uint _age, string memory _gender, string memory _hospital,string memory _hospitalId, string memory _email){... */\n  pop\n  pop\n  pop\n  pop\n  pop\n  pop\n  pop\n  pop\n    /* \"factoryContract.sol\":5202:7780  contract medicalProfContract{... */\n  jump(tag_12)\ntag_7:\n  dup3\n  dup1\n  sload\n  tag_13\n  swap1\n  tag_14\n  jump\t// in\ntag_13:\n  swap1\n  0x00\n  mstore\n  keccak256(0x00, 0x20)\n  swap1\n  0x1f\n  add\n  0x20\n  swap1\n  div\n  dup2\n  add\n  swap3\n  dup3\n  tag_16\n  jumpi\n  0x00\n  dup6\n  sstore\n  jump(tag_15)\ntag_16:\n  dup3\n  0x1f\n  lt\n  tag_17\n  jumpi\n  dup1\n  mload\n  not(0xff)\n  and\n  dup4\n  dup1\n  add\n  or\n  dup6\n  sstore\n  jump(tag_15)\ntag_17:\n  dup3\n  dup1\n  add\n  0x01\n  add\n  dup6\n  sstore\n  dup3\n  iszero\n  tag_15\n  jumpi\n  swap2\n  dup3\n  add\ntag_18:\n  dup3\n  dup2\n  gt\n  iszero\n  tag_19\n  jumpi\n  dup3\n  mload\n  dup3\n  sstore\n  swap2\n  0x20\n  add\n  swap2\n  swap1\n  0x01\n  add\n  swap1\n  jump(tag_18)\ntag_19:\ntag_15:\n  pop\n  swap1\n  pop\n  tag_20\n  swap2\n  swap1\n  tag_21\n  jump\t// in\ntag_20:\n  pop\n  swap1\n  jump\t// out\ntag_21:\ntag_22:\n  dup1\n  dup3\n  gt\n  iszero\n  tag_23\n  jumpi\n  0x00\n  dup2\n  0x00\n  swap1\n  sstore\n  pop\n  0x01\n  add\n  jump(tag_22)\ntag_23:\n  pop\n  swap1\n  jump\t// out\n    /* \"#utility.yul\":7:82   */\ntag_24:\n    /* \"#utility.yul\":40:46   */\n  0x00\n    /* \"#utility.yul\":73:75   */\n  0x40\n    /* \"#utility.yul\":67:76   */\n  mload\n    /* \"#utility.yul\":57:76   */\n  swap1\n  pop\n    /* \"#utility.yul\":7:82   */\n  swap1\n  jump\t// out\n    /* \"#utility.yul\":88:205   */\ntag_25:\n    /* \"#utility.yul\":197:198   */\n  0x00\n    /* \"#utility.yul\":194:195   */\n  dup1\n    /* \"#utility.yul\":187:199   */\n  revert\n    /* \"#utility.yul\":211:328   */\ntag_26:\n    /* \"#utility.yul\":320:321   */\n  0x00\n    /* \"#utility.yul\":317:318   */\n  dup1\n    /* \"#utility.yul\":310:322   */\n  revert\n    /* \"#utility.yul\":334:460   */\ntag_27:\n    /* \"#utility.yul\":371:378   */\n  0x00\n    /* \"#utility.yul\":411:453   */\n  0xffffffffffffffffffffffffffffffffffffffff\n    /* \"#utility.yul\":404:409   */\n  dup3\n    /* \"#utility.yul\":400:454   */\n  and\n    /* \"#utility.yul\":389:454   */\n  swap1\n  pop\n    /* \"#utility.yul\":334:460   */\n  swap2\n  swap1\n  pop\n  jump\t// out\n    /* \"#utility.yul\":466:562   */\ntag_28:\n    /* \"#utility.yul\":503:510   */\n  0x00\n    /* \"#utility.yul\":532:556   */\n  tag_51\n    /* \"#utility.yul\":550:555   */\n  dup3\n    /* \"#utility.yul\":532:556   */\n  tag_27\n  jump\t// in\ntag_51:\n    /* \"#utility.yul\":521:556   */\n  swap1\n  pop\n    /* \"#utility.yul\":466:562   */\n  swap2\n  swap1\n  pop\n  jump\t// out\n    /* \"#utility.yul\":568:690   */\ntag_29:\n    /* \"#utility.yul\":641:665   */\n  tag_53\n    /* \"#utility.yul\":659:664   */\n  dup2\n    /* \"#utility.yul\":641:665   */\n  tag_28\n  jump\t// in\ntag_53:\n    /* \"#utility.yul\":634:639   */\n  dup2\n    /* \"#utility.yul\":631:666   */\n  eq\n    /* \"#utility.yul\":621:684   */\n  tag_54\n  jumpi\n    /* \"#utility.yul\":680:681   */\n  0x00\n    /* \"#utility.yul\":677:678   */\n  dup1\n    /* \"#utility.yul\":670:682   */\n  revert\n    /* \"#utility.yul\":621:684   */\ntag_54:\n    /* \"#utility.yul\":568:690   */\n  pop\n  jump\t// out\n    /* \"#utility.yul\":696:839   */\ntag_30:\n    /* \"#utility.yul\":753:758   */\n  0x00\n    /* \"#utility.yul\":784:790   */\n  dup2\n    /* \"#utility.yul\":778:791   */\n  mload\n    /* \"#utility.yul\":769:791   */\n  swap1\n  pop\n    /* \"#utility.yul\":800:833   */\n  tag_56\n    /* \"#utility.yul\":827:832   */\n  dup2\n    /* \"#utility.yul\":800:833   */\n  tag_29\n  jump\t// in\ntag_56:\n    /* \"#utility.yul\":696:839   */\n  swap3\n  swap2\n  pop\n  pop\n  jump\t// out\n    /* \"#utility.yul\":845:962   */\ntag_31:\n    /* \"#utility.yul\":954:955   */\n  0x00\n    /* \"#utility.yul\":951:952   */\n  dup1\n    /* \"#utility.yul\":944:956   */\n  revert\n    /* \"#utility.yul\":968:1085   */\ntag_32:\n    /* \"#utility.yul\":1077:1078   */\n  0x00\n    /* \"#utility.yul\":1074:1075   */\n  dup1\n    /* \"#utility.yul\":1067:1079   */\n  revert\n    /* \"#utility.yul\":1091:1193   */\ntag_33:\n    /* \"#utility.yul\":1132:1138   */\n  0x00\n    /* \"#utility.yul\":1183:1185   */\n  0x1f\n    /* \"#utility.yul\":1179:1186   */\n  not\n    /* \"#utility.yul\":1174:1176   */\n  0x1f\n    /* \"#utility.yul\":1167:1172   */\n  dup4\n    /* \"#utility.yul\":1163:1177   */\n  add\n    /* \"#utility.yul\":1159:1187   */\n  and\n    /* \"#utility.yul\":1149:1187   */\n  swap1\n  pop\n    /* \"#utility.yul\":1091:1193   */\n  swap2\n  swap1\n  pop\n  jump\t// out\n    /* \"#utility.yul\":1199:1379   */\ntag_34:\n    /* \"#utility.yul\":1247:1324   */\n  0x4e487b7100000000000000000000000000000000000000000000000000000000\n    /* \"#utility.yul\":1244:1245   */\n  0x00\n    /* \"#utility.yul\":1237:1325   */\n  mstore\n    /* \"#utility.yul\":1344:1348   */\n  0x41\n    /* \"#utility.yul\":1341:1342   */\n  0x04\n    /* \"#utility.yul\":1334:1349   */\n  mstore\n    /* \"#utility.yul\":1368:1372   */\n  0x24\n    /* \"#utility.yul\":1365:1366   */\n  0x00\n    /* \"#utility.yul\":1358:1373   */\n  revert\n    /* \"#utility.yul\":1385:1666   */\ntag_35:\n    /* \"#utility.yul\":1468:1495   */\n  tag_62\n    /* \"#utility.yul\":1490:1494   */\n  dup3\n    /* \"#utility.yul\":1468:1495   */\n  tag_33\n  jump\t// in\ntag_62:\n    /* \"#utility.yul\":1460:1466   */\n  dup2\n    /* \"#utility.yul\":1456:1496   */\n  add\n    /* \"#utility.yul\":1598:1604   */\n  dup2\n    /* \"#utility.yul\":1586:1596   */\n  dup2\n    /* \"#utility.yul\":1583:1605   */\n  lt\n    /* \"#utility.yul\":1562:1580   */\n  0xffffffffffffffff\n    /* \"#utility.yul\":1550:1560   */\n  dup3\n    /* \"#utility.yul\":1547:1581   */\n  gt\n    /* \"#utility.yul\":1544:1606   */\n  or\n    /* \"#utility.yul\":1541:1629   */\n  iszero\n  tag_63\n  jumpi\n    /* \"#utility.yul\":1609:1627   */\n  tag_64\n  tag_34\n  jump\t// in\ntag_64:\n    /* \"#utility.yul\":1541:1629   */\ntag_63:\n    /* \"#utility.yul\":1649:1659   */\n  dup1\n    /* \"#utility.yul\":1645:1647   */\n  0x40\n    /* \"#utility.yul\":1638:1660   */\n  mstore\n    /* \"#utility.yul\":1428:1666   */\n  pop\n    /* \"#utility.yul\":1385:1666   */\n  pop\n  pop\n  jump\t// out\n    /* \"#utility.yul\":1672:1801   */\ntag_36:\n    /* \"#utility.yul\":1706:1712   */\n  0x00\n    /* \"#utility.yul\":1733:1753   */\n  tag_66\n  tag_24\n  jump\t// in\ntag_66:\n    /* \"#utility.yul\":1723:1753   */\n  swap1\n  pop\n    /* \"#utility.yul\":1762:1795   */\n  tag_67\n    /* \"#utility.yul\":1790:1794   */\n  dup3\n    /* \"#utility.yul\":1782:1788   */\n  dup3\n    /* \"#utility.yul\":1762:1795   */\n  tag_35\n  jump\t// in\ntag_67:\n    /* \"#utility.yul\":1672:1801   */\n  swap2\n  swap1\n  pop\n  jump\t// out\n    /* \"#utility.yul\":1807:2115   */\ntag_37:\n    /* \"#utility.yul\":1869:1873   */\n  0x00\n    /* \"#utility.yul\":1959:1977   */\n  0xffffffffffffffff\n    /* \"#utility.yul\":1951:1957   */\n  dup3\n    /* \"#utility.yul\":1948:1978   */\n  gt\n    /* \"#utility.yul\":1945:2001   */\n  iszero\n  tag_69\n  jumpi\n    /* \"#utility.yul\":1981:1999   */\n  tag_70\n  tag_34\n  jump\t// in\ntag_70:\n    /* \"#utility.yul\":1945:2001   */\ntag_69:\n    /* \"#utility.yul\":2019:2048   */\n  tag_71\n    /* \"#utility.yul\":2041:2047   */\n  dup3\n    /* \"#utility.yul\":2019:2048   */\n  tag_33\n  jump\t// in\ntag_71:\n    /* \"#utility.yul\":2011:2048   */\n  swap1\n  pop\n    /* \"#utility.yul\":2103:2107   */\n  0x20\n    /* \"#utility.yul\":2097:2101   */\n  dup2\n    /* \"#utility.yul\":2093:2108   */\n  add\n    /* \"#utility.yul\":2085:2108   */\n  swap1\n  pop\n    /* \"#utility.yul\":1807:2115   */\n  swap2\n  swap1\n  pop\n  jump\t// out\n    /* \"#utility.yul\":2121:2428   */\ntag_38:\n    /* \"#utility.yul\":2189:2190   */\n  0x00\n    /* \"#utility.yul\":2199:2312   */\ntag_73:\n    /* \"#utility.yul\":2213:2219   */\n  dup4\n    /* \"#utility.yul\":2210:2211   */\n  dup2\n    /* \"#utility.yul\":2207:2220   */\n  lt\n    /* \"#utility.yul\":2199:2312   */\n  iszero\n  tag_75\n  jumpi\n    /* \"#utility.yul\":2298:2299   */\n  dup1\n    /* \"#utility.yul\":2293:2296   */\n  dup3\n    /* \"#utility.yul\":2289:2300   */\n  add\n    /* \"#utility.yul\":2283:2301   */\n  mload\n    /* \"#utility.yul\":2279:2280   */\n  dup2\n    /* \"#utility.yul\":2274:2277   */\n  dup5\n    /* \"#utility.yul\":2270:2281   */\n  add\n    /* \"#utility.yul\":2263:2302   */\n  mstore\n    /* \"#utility.yul\":2235:2237   */\n  0x20\n    /* \"#utility.yul\":2232:2233   */\n  dup2\n    /* \"#utility.yul\":2228:2238   */\n  add\n    /* \"#utility.yul\":2223:2238   */\n  swap1\n  pop\n    /* \"#utility.yul\":2199:2312   */\n  jump(tag_73)\ntag_75:\n    /* \"#utility.yul\":2330:2336   */\n  dup4\n    /* \"#utility.yul\":2327:2328   */\n  dup2\n    /* \"#utility.yul\":2324:2337   */\n  gt\n    /* \"#utility.yul\":2321:2422   */\n  iszero\n  tag_76\n  jumpi\n    /* \"#utility.yul\":2410:2411   */\n  0x00\n    /* \"#utility.yul\":2401:2407   */\n  dup5\n    /* \"#utility.yul\":2396:2399   */\n  dup5\n    /* \"#utility.yul\":2392:2408   */\n  add\n    /* \"#utility.yul\":2385:2412   */\n  mstore\n    /* \"#utility.yul\":2321:2422   */\ntag_76:\n    /* \"#utility.yul\":2170:2428   */\n  pop\n    /* \"#utility.yul\":2121:2428   */\n  pop\n  pop\n  pop\n  jump\t// out\n    /* \"#utility.yul\":2434:2855   */\ntag_39:\n    /* \"#utility.yul\":2523:2528   */\n  0x00\n    /* \"#utility.yul\":2548:2614   */\n  tag_78\n    /* \"#utility.yul\":2564:2613   */\n  tag_79\n    /* \"#utility.yul\":2606:2612   */\n  dup5\n    /* \"#utility.yul\":2564:2613   */\n  tag_37\n  jump\t// in\ntag_79:\n    /* \"#utility.yul\":2548:2614   */\n  tag_36\n  jump\t// in\ntag_78:\n    /* \"#utility.yul\":2539:2614   */\n  swap1\n  pop\n    /* \"#utility.yul\":2637:2643   */\n  dup3\n    /* \"#utility.yul\":2630:2635   */\n  dup2\n    /* \"#utility.yul\":2623:2644   */\n  mstore\n    /* \"#utility.yul\":2675:2679   */\n  0x20\n    /* \"#utility.yul\":2668:2673   */\n  dup2\n    /* \"#utility.yul\":2664:2680   */\n  add\n    /* \"#utility.yul\":2713:2716   */\n  dup5\n    /* \"#utility.yul\":2704:2710   */\n  dup5\n    /* \"#utility.yul\":2699:2702   */\n  dup5\n    /* \"#utility.yul\":2695:2711   */\n  add\n    /* \"#utility.yul\":2692:2717   */\n  gt\n    /* \"#utility.yul\":2689:2801   */\n  iszero\n  tag_80\n  jumpi\n    /* \"#utility.yul\":2720:2799   */\n  tag_81\n  tag_32\n  jump\t// in\ntag_81:\n    /* \"#utility.yul\":2689:2801   */\ntag_80:\n    /* \"#utility.yul\":2810:2849   */\n  tag_82\n    /* \"#utility.yul\":2842:2848   */\n  dup5\n    /* \"#utility.yul\":2837:2840   */\n  dup3\n    /* \"#utility.yul\":2832:2835   */\n  dup6\n    /* \"#utility.yul\":2810:2849   */\n  tag_38\n  jump\t// in\ntag_82:\n    /* \"#utility.yul\":2529:2855   */\n  pop\n    /* \"#utility.yul\":2434:2855   */\n  swap4\n  swap3\n  pop\n  pop\n  pop\n  jump\t// out\n    /* \"#utility.yul\":2875:3230   */\ntag_40:\n    /* \"#utility.yul\":2942:2947   */\n  0x00\n    /* \"#utility.yul\":2991:2994   */\n  dup3\n    /* \"#utility.yul\":2984:2988   */\n  0x1f\n    /* \"#utility.yul\":2976:2982   */\n  dup4\n    /* \"#utility.yul\":2972:2989   */\n  add\n    /* \"#utility.yul\":2968:2995   */\n  slt\n    /* \"#utility.yul\":2958:3080   */\n  tag_84\n  jumpi\n    /* \"#utility.yul\":2999:3078   */\n  tag_85\n  tag_31\n  jump\t// in\ntag_85:\n    /* \"#utility.yul\":2958:3080   */\ntag_84:\n    /* \"#utility.yul\":3109:3115   */\n  dup2\n    /* \"#utility.yul\":3103:3116   */\n  mload\n    /* \"#utility.yul\":3134:3224   */\n  tag_86\n    /* \"#utility.yul\":3220:3223   */\n  dup5\n    /* \"#utility.yul\":3212:3218   */\n  dup3\n    /* \"#utility.yul\":3205:3209   */\n  0x20\n    /* \"#utility.yul\":3197:3203   */\n  dup7\n    /* \"#utility.yul\":3193:3210   */\n  add\n    /* \"#utility.yul\":3134:3224   */\n  tag_39\n  jump\t// in\ntag_86:\n    /* \"#utility.yul\":3125:3224   */\n  swap2\n  pop\n    /* \"#utility.yul\":2948:3230   */\n  pop\n    /* \"#utility.yul\":2875:3230   */\n  swap3\n  swap2\n  pop\n  pop\n  jump\t// out\n    /* \"#utility.yul\":3236:3313   */\ntag_41:\n    /* \"#utility.yul\":3273:3280   */\n  0x00\n    /* \"#utility.yul\":3302:3307   */\n  dup2\n    /* \"#utility.yul\":3291:3307   */\n  swap1\n  pop\n    /* \"#utility.yul\":3236:3313   */\n  swap2\n  swap1\n  pop\n  jump\t// out\n    /* \"#utility.yul\":3319:3441   */\ntag_42:\n    /* \"#utility.yul\":3392:3416   */\n  tag_89\n    /* \"#utility.yul\":3410:3415   */\n  dup2\n    /* \"#utility.yul\":3392:3416   */\n  tag_41\n  jump\t// in\ntag_89:\n    /* \"#utility.yul\":3385:3390   */\n  dup2\n    /* \"#utility.yul\":3382:3417   */\n  eq\n    /* \"#utility.yul\":3372:3435   */\n  tag_90\n  jumpi\n    /* \"#utility.yul\":3431:3432   */\n  0x00\n    /* \"#utility.yul\":3428:3429   */\n  dup1\n    /* \"#utility.yul\":3421:3433   */\n  revert\n    /* \"#utility.yul\":3372:3435   */\ntag_90:\n    /* \"#utility.yul\":3319:3441   */\n  pop\n  jump\t// out\n    /* \"#utility.yul\":3447:3590   */\ntag_43:\n    /* \"#utility.yul\":3504:3509   */\n  0x00\n    /* \"#utility.yul\":3535:3541   */\n  dup2\n    /* \"#utility.yul\":3529:3542   */\n  mload\n    /* \"#utility.yul\":3520:3542   */\n  swap1\n  pop\n    /* \"#utility.yul\":3551:3584   */\n  tag_92\n    /* \"#utility.yul\":3578:3583   */\n  dup2\n    /* \"#utility.yul\":3551:3584   */\n  tag_42\n  jump\t// in\ntag_92:\n    /* \"#utility.yul\":3447:3590   */\n  swap3\n  swap2\n  pop\n  pop\n  jump\t// out\n    /* \"#utility.yul\":3596:5909   */\ntag_3:\n    /* \"#utility.yul\":3779:3785   */\n  0x00\n    /* \"#utility.yul\":3787:3793   */\n  dup1\n    /* \"#utility.yul\":3795:3801   */\n  0x00\n    /* \"#utility.yul\":3803:3809   */\n  dup1\n    /* \"#utility.yul\":3811:3817   */\n  0x00\n    /* \"#utility.yul\":3819:3825   */\n  dup1\n    /* \"#utility.yul\":3827:3833   */\n  0x00\n    /* \"#utility.yul\":3835:3841   */\n  dup1\n    /* \"#utility.yul\":3884:3887   */\n  0x0100\n    /* \"#utility.yul\":3872:3881   */\n  dup10\n    /* \"#utility.yul\":3863:3870   */\n  dup12\n    /* \"#utility.yul\":3859:3882   */\n  sub\n    /* \"#utility.yul\":3855:3888   */\n  slt\n    /* \"#utility.yul\":3852:3972   */\n  iszero\n  tag_94\n  jumpi\n    /* \"#utility.yul\":3891:3970   */\n  tag_95\n  tag_25\n  jump\t// in\ntag_95:\n    /* \"#utility.yul\":3852:3972   */\ntag_94:\n    /* \"#utility.yul\":4011:4012   */\n  0x00\n    /* \"#utility.yul\":4036:4100   */\n  tag_96\n    /* \"#utility.yul\":4092:4099   */\n  dup12\n    /* \"#utility.yul\":4083:4089   */\n  dup3\n    /* \"#utility.yul\":4072:4081   */\n  dup13\n    /* \"#utility.yul\":4068:4090   */\n  add\n    /* \"#utility.yul\":4036:4100   */\n  tag_30\n  jump\t// in\ntag_96:\n    /* \"#utility.yul\":4026:4100   */\n  swap9\n  pop\n    /* \"#utility.yul\":3982:4110   */\n  pop\n    /* \"#utility.yul\":4149:4151   */\n  0x20\n    /* \"#utility.yul\":4175:4239   */\n  tag_97\n    /* \"#utility.yul\":4231:4238   */\n  dup12\n    /* \"#utility.yul\":4222:4228   */\n  dup3\n    /* \"#utility.yul\":4211:4220   */\n  dup13\n    /* \"#utility.yul\":4207:4229   */\n  add\n    /* \"#utility.yul\":4175:4239   */\n  tag_30\n  jump\t// in\ntag_97:\n    /* \"#utility.yul\":4165:4239   */\n  swap8\n  pop\n    /* \"#utility.yul\":4120:4249   */\n  pop\n    /* \"#utility.yul\":4309:4311   */\n  0x40\n    /* \"#utility.yul\":4298:4307   */\n  dup10\n    /* \"#utility.yul\":4294:4312   */\n  add\n    /* \"#utility.yul\":4288:4313   */\n  mload\n    /* \"#utility.yul\":4340:4358   */\n  0xffffffffffffffff\n    /* \"#utility.yul\":4332:4338   */\n  dup2\n    /* \"#utility.yul\":4329:4359   */\n  gt\n    /* \"#utility.yul\":4326:4443   */\n  iszero\n  tag_98\n  jumpi\n    /* \"#utility.yul\":4362:4441   */\n  tag_99\n  tag_26\n  jump\t// in\ntag_99:\n    /* \"#utility.yul\":4326:4443   */\ntag_98:\n    /* \"#utility.yul\":4467:4541   */\n  tag_100\n    /* \"#utility.yul\":4533:4540   */\n  dup12\n    /* \"#utility.yul\":4524:4530   */\n  dup3\n    /* \"#utility.yul\":4513:4522   */\n  dup13\n    /* \"#utility.yul\":4509:4531   */\n  add\n    /* \"#utility.yul\":4467:4541   */\n  tag_40\n  jump\t// in\ntag_100:\n    /* \"#utility.yul\":4457:4541   */\n  swap7\n  pop\n    /* \"#utility.yul\":4259:4551   */\n  pop\n    /* \"#utility.yul\":4590:4592   */\n  0x60\n    /* \"#utility.yul\":4616:4680   */\n  tag_101\n    /* \"#utility.yul\":4672:4679   */\n  dup12\n    /* \"#utility.yul\":4663:4669   */\n  dup3\n    /* \"#utility.yul\":4652:4661   */\n  dup13\n    /* \"#utility.yul\":4648:4670   */\n  add\n    /* \"#utility.yul\":4616:4680   */\n  tag_43\n  jump\t// in\ntag_101:\n    /* \"#utility.yul\":4606:4680   */\n  swap6\n  pop\n    /* \"#utility.yul\":4561:4690   */\n  pop\n    /* \"#utility.yul\":4750:4753   */\n  0x80\n    /* \"#utility.yul\":4739:4748   */\n  dup10\n    /* \"#utility.yul\":4735:4754   */\n  add\n    /* \"#utility.yul\":4729:4755   */\n  mload\n    /* \"#utility.yul\":4782:4800   */\n  0xffffffffffffffff\n    /* \"#utility.yul\":4774:4780   */\n  dup2\n    /* \"#utility.yul\":4771:4801   */\n  gt\n    /* \"#utility.yul\":4768:4885   */\n  iszero\n  tag_102\n  jumpi\n    /* \"#utility.yul\":4804:4883   */\n  tag_103\n  tag_26\n  jump\t// in\ntag_103:\n    /* \"#utility.yul\":4768:4885   */\ntag_102:\n    /* \"#utility.yul\":4909:4983   */\n  tag_104\n    /* \"#utility.yul\":4975:4982   */\n  dup12\n    /* \"#utility.yul\":4966:4972   */\n  dup3\n    /* \"#utility.yul\":4955:4964   */\n  dup13\n    /* \"#utility.yul\":4951:4973   */\n  add\n    /* \"#utility.yul\":4909:4983   */\n  tag_40\n  jump\t// in\ntag_104:\n    /* \"#utility.yul\":4899:4983   */\n  swap5\n  pop\n    /* \"#utility.yul\":4700:4993   */\n  pop\n    /* \"#utility.yul\":5053:5056   */\n  0xa0\n    /* \"#utility.yul\":5042:5051   */\n  dup10\n    /* \"#utility.yul\":5038:5057   */\n  add\n    /* \"#utility.yul\":5032:5058   */\n  mload\n    /* \"#utility.yul\":5085:5103   */\n  0xffffffffffffffff\n    /* \"#utility.yul\":5077:5083   */\n  dup2\n    /* \"#utility.yul\":5074:5104   */\n  gt\n    /* \"#utility.yul\":5071:5188   */\n  iszero\n  tag_105\n  jumpi\n    /* \"#utility.yul\":5107:5186   */\n  tag_106\n  tag_26\n  jump\t// in\ntag_106:\n    /* \"#utility.yul\":5071:5188   */\ntag_105:\n    /* \"#utility.yul\":5212:5286   */\n  tag_107\n    /* \"#utility.yul\":5278:5285   */\n  dup12\n    /* \"#utility.yul\":5269:5275   */\n  dup3\n    /* \"#utility.yul\":5258:5267   */\n  dup13\n    /* \"#utility.yul\":5254:5276   */\n  add\n    /* \"#utility.yul\":5212:5286   */\n  tag_40\n  jump\t// in\ntag_107:\n    /* \"#utility.yul\":5202:5286   */\n  swap4\n  pop\n    /* \"#utility.yul\":5003:5296   */\n  pop\n    /* \"#utility.yul\":5356:5359   */\n  0xc0\n    /* \"#utility.yul\":5345:5354   */\n  dup10\n    /* \"#utility.yul\":5341:5360   */\n  add\n    /* \"#utility.yul\":5335:5361   */\n  mload\n    /* \"#utility.yul\":5388:5406   */\n  0xffffffffffffffff\n    /* \"#utility.yul\":5380:5386   */\n  dup2\n    /* \"#utility.yul\":5377:5407   */\n  gt\n    /* \"#utility.yul\":5374:5491   */\n  iszero\n  tag_108\n  jumpi\n    /* \"#utility.yul\":5410:5489   */\n  tag_109\n  tag_26\n  jump\t// in\ntag_109:\n    /* \"#utility.yul\":5374:5491   */\ntag_108:\n    /* \"#utility.yul\":5515:5589   */\n  tag_110\n    /* \"#utility.yul\":5581:5588   */\n  dup12\n    /* \"#utility.yul\":5572:5578   */\n  dup3\n    /* \"#utility.yul\":5561:5570   */\n  dup13\n    /* \"#utility.yul\":5557:5579   */\n  add\n    /* \"#utility.yul\":5515:5589   */\n  tag_40\n  jump\t// in\ntag_110:\n    /* \"#utility.yul\":5505:5589   */\n  swap3\n  pop\n    /* \"#utility.yul\":5306:5599   */\n  pop\n    /* \"#utility.yul\":5659:5662   */\n  0xe0\n    /* \"#utility.yul\":5648:5657   */\n  dup10\n    /* \"#utility.yul\":5644:5663   */\n  add\n    /* \"#utility.yul\":5638:5664   */\n  mload\n    /* \"#utility.yul\":5691:5709   */\n  0xffffffffffffffff\n    /* \"#utility.yul\":5683:5689   */\n  dup2\n    /* \"#utility.yul\":5680:5710   */\n  gt\n    /* \"#utility.yul\":5677:5794   */\n  iszero\n  tag_111\n  jumpi\n    /* \"#utility.yul\":5713:5792   */\n  tag_112\n  tag_26\n  jump\t// in\ntag_112:\n    /* \"#utility.yul\":5677:5794   */\ntag_111:\n    /* \"#utility.yul\":5818:5892   */\n  tag_113\n    /* \"#utility.yul\":5884:5891   */\n  dup12\n    /* \"#utility.yul\":5875:5881   */\n  dup3\n    /* \"#utility.yul\":5864:5873   */\n  dup13\n    /* \"#utility.yul\":5860:5882   */\n  add\n    /* \"#utility.yul\":5818:5892   */\n  tag_40\n  jump\t// in\ntag_113:\n    /* \"#utility.yul\":5808:5892   */\n  swap2\n  pop\n    /* \"#utility.yul\":5609:5902   */\n  pop\n    /* \"#utility.yul\":3596:5909   */\n  swap3\n  swap6\n  swap9\n  pop\n  swap3\n  swap6\n  swap9\n  swap1\n  swap4\n  swap7\n  pop\n  jump\t// out\n    /* \"#utility.yul\":5915:6095   */\ntag_44:\n    /* \"#utility.yul\":5963:6040   */\n  0x4e487b7100000000000000000000000000000000000000000000000000000000\n    /* \"#utility.yul\":5960:5961   */\n  0x00\n    /* \"#utility.yul\":5953:6041   */\n  mstore\n    /* \"#utility.yul\":6060:6064   */\n  0x22\n    /* \"#utility.yul\":6057:6058   */\n  0x04\n    /* \"#utility.yul\":6050:6065   */\n  mstore\n    /* \"#utility.yul\":6084:6088   */\n  0x24\n    /* \"#utility.yul\":6081:6082   */\n  0x00\n    /* \"#utility.yul\":6074:6089   */\n  revert\n    /* \"#utility.yul\":6101:6421   */\ntag_14:\n    /* \"#utility.yul\":6145:6151   */\n  0x00\n    /* \"#utility.yul\":6182:6183   */\n  0x02\n    /* \"#utility.yul\":6176:6180   */\n  dup3\n    /* \"#utility.yul\":6172:6184   */\n  div\n    /* \"#utility.yul\":6162:6184   */\n  swap1\n  pop\n    /* \"#utility.yul\":6229:6230   */\n  0x01\n    /* \"#utility.yul\":6223:6227   */\n  dup3\n    /* \"#utility.yul\":6219:6231   */\n  and\n    /* \"#utility.yul\":6250:6268   */\n  dup1\n    /* \"#utility.yul\":6240:6321   */\n  tag_116\n  jumpi\n    /* \"#utility.yul\":6306:6310   */\n  0x7f\n    /* \"#utility.yul\":6298:6304   */\n  dup3\n    /* \"#utility.yul\":6294:6311   */\n  and\n    /* \"#utility.yul\":6284:6311   */\n  swap2\n  pop\n    /* \"#utility.yul\":6240:6321   */\ntag_116:\n    /* \"#utility.yul\":6368:6370   */\n  0x20\n    /* \"#utility.yul\":6360:6366   */\n  dup3\n    /* \"#utility.yul\":6357:6371   */\n  lt\n    /* \"#utility.yul\":6337:6355   */\n  dup2\n    /* \"#utility.yul\":6334:6372   */\n  eq\n    /* \"#utility.yul\":6331:6415   */\n  iszero\n  tag_117\n  jumpi\n    /* \"#utility.yul\":6387:6405   */\n  tag_118\n  tag_44\n  jump\t// in\ntag_118:\n    /* \"#utility.yul\":6331:6415   */\ntag_117:\n    /* \"#utility.yul\":6152:6421   */\n  pop\n    /* \"#utility.yul\":6101:6421   */\n  swap2\n  swap1\n  pop\n  jump\t// out\n    /* \"factoryContract.sol\":5202:7780  contract medicalProfContract{... */\ntag_12:\n  dataSize(sub_0)\n  dup1\n  dataOffset(sub_0)\n  0x00\n  codecopy\n  0x00\n  return\nstop\n\nsub_0: assembly {\n        /* \"factoryContract.sol\":5202:7780  contract medicalProfContract{... */\n      mstore(0x40, 0x80)\n      callvalue\n      dup1\n      iszero\n      tag_1\n      jumpi\n      0x00\n      dup1\n      revert\n    tag_1:\n      pop\n      jumpi(tag_2, lt(calldatasize, 0x04))\n      shr(0xe0, calldataload(0x00))\n      dup1\n      0x851a94c9\n      gt\n      tag_16\n      jumpi\n      dup1\n      0xb7d4477c\n      gt\n      tag_17\n      jumpi\n      dup1\n      0xb7d4477c\n      eq\n      tag_12\n      jumpi\n      dup1\n      0xc83dd231\n      eq\n      tag_13\n      jumpi\n      dup1\n      0xe65a0691\n      eq\n      tag_14\n      jumpi\n      dup1\n      0xfb986606\n      eq\n      tag_15\n      jumpi\n      jump(tag_2)\n    tag_17:\n      dup1\n      0x851a94c9\n      eq\n      tag_9\n      jumpi\n      dup1\n      0xa0303c41\n      eq\n      tag_10\n      jumpi\n      dup1\n      0xaee554ff\n      eq\n      tag_11\n      jumpi\n      jump(tag_2)\n    tag_16:\n      dup1\n      0x0c4174b7\n      eq\n      tag_3\n      jumpi\n      dup1\n      0x185c6f84\n      eq\n      tag_4\n      jumpi\n      dup1\n      0x21ffccf1\n      eq\n      tag_5\n      jumpi\n      dup1\n      0x2be8454a\n      eq\n      tag_6\n      jumpi\n      dup1\n      0x376f4e49\n      eq\n      tag_7\n      jumpi\n      dup1\n      0x4e1cc351\n      eq\n      tag_8\n      jumpi\n    tag_2:\n      0x00\n      dup1\n      revert\n        /* \"factoryContract.sol\":5678:5733  mapping(address=>mapping(uint=>string)) public comments */\n    tag_3:\n      tag_18\n      0x04\n      dup1\n      calldatasize\n      sub\n      dup2\n      add\n      swap1\n      tag_19\n      swap2\n      swap1\n      tag_20\n      jump\t// in\n    tag_19:\n      tag_21\n      jump\t// in\n    tag_18:\n      mload(0x40)\n      tag_22\n      swap2\n      swap1\n      tag_23\n      jump\t// in\n    tag_22:\n      mload(0x40)\n      dup1\n      swap2\n      sub\n      swap1\n      return\n        /* \"factoryContract.sol\":5292:5315  uint public reportCount */\n    tag_4:\n      tag_24\n      tag_25\n      jump\t// in\n    tag_24:\n      mload(0x40)\n      tag_26\n      swap2\n      swap1\n      tag_27\n      jump\t// in\n    tag_26:\n      mload(0x40)\n      dup1\n      swap2\n      sub\n      swap1\n      return\n        /* \"factoryContract.sol\":6323:6685  function getProfDetails() public view returns(string memory,uint,string memory,string memory,string memory,string memory){... */\n    tag_5:\n      tag_28\n      tag_29\n      jump\t// in\n    tag_28:\n      mload(0x40)\n      tag_30\n      swap7\n      swap6\n      swap5\n      swap4\n      swap3\n      swap2\n      swap1\n      tag_31\n      jump\t// in\n    tag_30:\n      mload(0x40)\n      dup1\n      swap2\n      sub\n      swap1\n      return\n        /* \"factoryContract.sol\":6693:7210  function changeProfDetails(string memory _name, uint _age, string memory _gender, string memory _hospital,string memory _hospitalId, string memory _email) public{... */\n    tag_6:\n      tag_32\n      0x04\n      dup1\n      calldatasize\n      sub\n      dup2\n      add\n      swap1\n      tag_33\n      swap2\n      swap1\n      tag_34\n      jump\t// in\n    tag_33:\n      tag_35\n      jump\t// in\n    tag_32:\n      stop\n        /* \"factoryContract.sol\":7375:7636  function addReports(uint report,address patient) public {... */\n    tag_7:\n      tag_36\n      0x04\n      dup1\n      calldatasize\n      sub\n      dup2\n      add\n      swap1\n      tag_37\n      swap2\n      swap1\n      tag_38\n      jump\t// in\n    tag_37:\n      tag_39\n      jump\t// in\n    tag_36:\n      stop\n        /* \"factoryContract.sol\":7225:7365  function addComments(string memory _comments, address patient, uint record ) public {... */\n    tag_8:\n      tag_40\n      0x04\n      dup1\n      calldatasize\n      sub\n      dup2\n      add\n      swap1\n      tag_41\n      swap2\n      swap1\n      tag_42\n      jump\t// in\n    tag_41:\n      tag_43\n      jump\t// in\n    tag_40:\n      stop\n        /* \"factoryContract.sol\":5237:5256  address public Prof */\n    tag_9:\n      tag_44\n      tag_45\n      jump\t// in\n    tag_44:\n      mload(0x40)\n      tag_46\n      swap2\n      swap1\n      tag_47\n      jump\t// in\n    tag_46:\n      mload(0x40)\n      dup1\n      swap2\n      sub\n      swap1\n      return\n        /* \"factoryContract.sol\":5647:5671  uint public patientCount */\n    tag_10:\n      tag_48\n      tag_49\n      jump\t// in\n    tag_48:\n      mload(0x40)\n      tag_50\n      swap2\n      swap1\n      tag_27\n      jump\t// in\n    tag_50:\n      mload(0x40)\n      dup1\n      swap2\n      sub\n      swap1\n      return\n        /* \"factoryContract.sol\":5505:5531  details public profDetails */\n    tag_11:\n      tag_51\n      tag_52\n      jump\t// in\n    tag_51:\n      mload(0x40)\n      tag_53\n      swap7\n      swap6\n      swap5\n      swap4\n      swap3\n      swap2\n      swap1\n      tag_31\n      jump\t// in\n    tag_53:\n      mload(0x40)\n      dup1\n      swap2\n      sub\n      swap1\n      return\n        /* \"factoryContract.sol\":5598:5640  mapping(uint=>address) public patientTrack */\n    tag_12:\n      tag_54\n      0x04\n      dup1\n      calldatasize\n      sub\n      dup2\n      add\n      swap1\n      tag_55\n      swap2\n      swap1\n      tag_56\n      jump\t// in\n    tag_55:\n      tag_57\n      jump\t// in\n    tag_54:\n      mload(0x40)\n      tag_58\n      swap2\n      swap1\n      tag_47\n      jump\t// in\n    tag_58:\n      mload(0x40)\n      dup1\n      swap2\n      sub\n      swap1\n      return\n        /* \"factoryContract.sol\":5263:5285  address public Factory */\n    tag_13:\n      tag_59\n      tag_60\n      jump\t// in\n    tag_59:\n      mload(0x40)\n      tag_61\n      swap2\n      swap1\n      tag_47\n      jump\t// in\n    tag_61:\n      mload(0x40)\n      dup1\n      swap2\n      sub\n      swap1\n      return\n        /* \"factoryContract.sol\":7648:7775  function getPatientReports(address patient) public view returns(uint[] memory){... */\n    tag_14:\n      tag_62\n      0x04\n      dup1\n      calldatasize\n      sub\n      dup2\n      add\n      swap1\n      tag_63\n      swap2\n      swap1\n      tag_64\n      jump\t// in\n    tag_63:\n      tag_65\n      jump\t// in\n    tag_62:\n      mload(0x40)\n      tag_66\n      swap2\n      swap1\n      tag_67\n      jump\t// in\n    tag_66:\n      mload(0x40)\n      dup1\n      swap2\n      sub\n      swap1\n      return\n        /* \"factoryContract.sol\":5540:5591  mapping(address => uint256[]) public patientReports */\n    tag_15:\n      tag_68\n      0x04\n      dup1\n      calldatasize\n      sub\n      dup2\n      add\n      swap1\n      tag_69\n      swap2\n      swap1\n      tag_20\n      jump\t// in\n    tag_69:\n      tag_70\n      jump\t// in\n    tag_68:\n      mload(0x40)\n      tag_71\n      swap2\n      swap1\n      tag_27\n      jump\t// in\n    tag_71:\n      mload(0x40)\n      dup1\n      swap2\n      sub\n      swap1\n      return\n        /* \"factoryContract.sol\":5678:5733  mapping(address=>mapping(uint=>string)) public comments */\n    tag_21:\n      mstore(0x20, 0x0c)\n      dup2\n      0x00\n      mstore\n      mstore(0x20, keccak256(0x00, 0x40))\n      dup1\n      0x00\n      mstore\n      keccak256(0x00, 0x40)\n      0x00\n      swap2\n      pop\n      swap2\n      pop\n      pop\n      dup1\n      sload\n      tag_72\n      swap1\n      tag_73\n      jump\t// in\n    tag_72:\n      dup1\n      0x1f\n      add\n      0x20\n      dup1\n      swap2\n      div\n      mul\n      0x20\n      add\n      mload(0x40)\n      swap1\n      dup2\n      add\n      0x40\n      mstore\n      dup1\n      swap3\n      swap2\n      swap1\n      dup2\n      dup2\n      mstore\n      0x20\n      add\n      dup3\n      dup1\n      sload\n      tag_74\n      swap1\n      tag_73\n      jump\t// in\n    tag_74:\n      dup1\n      iszero\n      tag_75\n      jumpi\n      dup1\n      0x1f\n      lt\n      tag_76\n      jumpi\n      0x0100\n      dup1\n      dup4\n      sload\n      div\n      mul\n      dup4\n      mstore\n      swap2\n      0x20\n      add\n      swap2\n      jump(tag_75)\n    tag_76:\n      dup3\n      add\n      swap2\n      swap1\n      0x00\n      mstore\n      keccak256(0x00, 0x20)\n      swap1\n    tag_77:\n      dup2\n      sload\n      dup2\n      mstore\n      swap1\n      0x01\n      add\n      swap1\n      0x20\n      add\n      dup1\n      dup4\n      gt\n      tag_77\n      jumpi\n      dup3\n      swap1\n      sub\n      0x1f\n      and\n      dup3\n      add\n      swap2\n    tag_75:\n      pop\n      pop\n      pop\n      pop\n      pop\n      dup2\n      jump\t// out\n        /* \"factoryContract.sol\":5292:5315  uint public reportCount */\n    tag_25:\n      sload(0x02)\n      dup2\n      jump\t// out\n        /* \"factoryContract.sol\":6323:6685  function getProfDetails() public view returns(string memory,uint,string memory,string memory,string memory,string memory){... */\n    tag_29:\n        /* \"factoryContract.sol\":6369:6382  string memory */\n      0x60\n        /* \"factoryContract.sol\":6383:6387  uint */\n      0x00\n        /* \"factoryContract.sol\":6388:6401  string memory */\n      0x60\n        /* \"factoryContract.sol\":6402:6415  string memory */\n      dup1\n        /* \"factoryContract.sol\":6416:6429  string memory */\n      0x60\n        /* \"factoryContract.sol\":6430:6443  string memory */\n      dup1\n        /* \"factoryContract.sol\":6477:6488  profDetails */\n      0x03\n        /* \"factoryContract.sol\":6477:6497  profDetails.profName */\n      0x00\n      add\n        /* \"factoryContract.sol\":6512:6523  profDetails */\n      0x03\n        /* \"factoryContract.sol\":6512:6527  profDetails.age */\n      0x01\n      add\n      sload\n        /* \"factoryContract.sol\":6542:6553  profDetails */\n      0x03\n        /* \"factoryContract.sol\":6542:6560  profDetails.gender */\n      0x02\n      add\n        /* \"factoryContract.sol\":6575:6586  profDetails */\n      0x03\n        /* \"factoryContract.sol\":6575:6595  profDetails.hospital */\n      dup1\n      add\n        /* \"factoryContract.sol\":6610:6621  profDetails */\n      0x03\n        /* \"factoryContract.sol\":6610:6632  profDetails.hospitalId */\n      0x04\n      add\n        /* \"factoryContract.sol\":6647:6658  profDetails */\n      0x03\n        /* \"factoryContract.sol\":6647:6664  profDetails.email */\n      0x05\n      add\n        /* \"factoryContract.sol\":6455:6677  return (... */\n      dup6\n      dup1\n      sload\n      tag_79\n      swap1\n      tag_73\n      jump\t// in\n    tag_79:\n      dup1\n      0x1f\n      add\n      0x20\n      dup1\n      swap2\n      div\n      mul\n      0x20\n      add\n      mload(0x40)\n      swap1\n      dup2\n      add\n      0x40\n      mstore\n      dup1\n      swap3\n      swap2\n      swap1\n      dup2\n      dup2\n      mstore\n      0x20\n      add\n      dup3\n      dup1\n      sload\n      tag_80\n      swap1\n      tag_73\n      jump\t// in\n    tag_80:\n      dup1\n      iszero\n      tag_81\n      jumpi\n      dup1\n      0x1f\n      lt\n      tag_82\n      jumpi\n      0x0100\n      dup1\n      dup4\n      sload\n      div\n      mul\n      dup4\n      mstore\n      swap2\n      0x20\n      add\n      swap2\n      jump(tag_81)\n    tag_82:\n      dup3\n      add\n      swap2\n      swap1\n      0x00\n      mstore\n      keccak256(0x00, 0x20)\n      swap1\n    tag_83:\n      dup2\n      sload\n      dup2\n      mstore\n      swap1\n      0x01\n      add\n      swap1\n      0x20\n      add\n      dup1\n      dup4\n      gt\n      tag_83\n      jumpi\n      dup3\n      swap1\n      sub\n      0x1f\n      and\n      dup3\n      add\n      swap2\n    tag_81:\n      pop\n      pop\n      pop\n      pop\n      pop\n      swap6\n      pop\n      dup4\n      dup1\n      sload\n      tag_84\n      swap1\n      tag_73\n      jump\t// in\n    tag_84:\n      dup1\n      0x1f\n      add\n      0x20\n      dup1\n      swap2\n      div\n      mul\n      0x20\n      add\n      mload(0x40)\n      swap1\n      dup2\n      add\n      0x40\n      mstore\n      dup1\n      swap3\n      swap2\n      swap1\n      dup2\n      dup2\n      mstore\n      0x20\n      add\n      dup3\n      dup1\n      sload\n      tag_85\n      swap1\n      tag_73\n      jump\t// in\n    tag_85:\n      dup1\n      iszero\n      tag_86\n      jumpi\n      dup1\n      0x1f\n      lt\n      tag_87\n      jumpi\n      0x0100\n      dup1\n      dup4\n      sload\n      div\n      mul\n      dup4\n      mstore\n      swap2\n      0x20\n      add\n      swap2\n      jump(tag_86)\n    tag_87:\n      dup3\n      add\n      swap2\n      swap1\n      0x00\n      mstore\n      keccak256(0x00, 0x20)\n      swap1\n    tag_88:\n      dup2\n      sload\n      dup2\n      mstore\n      swap1\n      0x01\n      add\n      swap1\n      0x20\n      add\n      dup1\n      dup4\n      gt\n      tag_88\n      jumpi\n      dup3\n      swap1\n      sub\n      0x1f\n      and\n      dup3\n      add\n      swap2\n    tag_86:\n      pop\n      pop\n      pop\n      pop\n      pop\n      swap4\n      pop\n      dup3\n      dup1\n      sload\n      tag_89\n      swap1\n      tag_73\n      jump\t// in\n    tag_89:\n      dup1\n      0x1f\n      add\n      0x20\n      dup1\n      swap2\n      div\n      mul\n      0x20\n      add\n      mload(0x40)\n      swap1\n      dup2\n      add\n      0x40\n      mstore\n      dup1\n      swap3\n      swap2\n      swap1\n      dup2\n      dup2\n      mstore\n      0x20\n      add\n      dup3\n      dup1\n      sload\n      tag_90\n      swap1\n      tag_73\n      jump\t// in\n    tag_90:\n      dup1\n      iszero\n      tag_91\n      jumpi\n      dup1\n      0x1f\n      lt\n      tag_92\n      jumpi\n      0x0100\n      dup1\n      dup4\n      sload\n      div\n      mul\n      dup4\n      mstore\n      swap2\n      0x20\n      add\n      swap2\n      jump(tag_91)\n    tag_92:\n      dup3\n      add\n      swap2\n      swap1\n      0x00\n      mstore\n      keccak256(0x00, 0x20)\n      swap1\n    tag_93:\n      dup2\n      sload\n      dup2\n      mstore\n      swap1\n      0x01\n      add\n      swap1\n      0x20\n      add\n      dup1\n      dup4\n      gt\n      tag_93\n      jumpi\n      dup3\n      swap1\n      sub\n      0x1f\n      and\n      dup3\n      add\n      swap2\n    tag_91:\n      pop\n      pop\n      pop\n      pop\n      pop\n      swap3\n      pop\n      dup2\n      dup1\n      sload\n      tag_94\n      swap1\n      tag_73\n      jump\t// in\n    tag_94:\n      dup1\n      0x1f\n      add\n      0x20\n      dup1\n      swap2\n      div\n      mul\n      0x20\n      add\n      mload(0x40)\n      swap1\n      dup2\n      add\n      0x40\n      mstore\n      dup1\n      swap3\n      swap2\n      swap1\n      dup2\n      dup2\n      mstore\n      0x20\n      add\n      dup3\n      dup1\n      sload\n      tag_95\n      swap1\n      tag_73\n      jump\t// in\n    tag_95:\n      dup1\n      iszero\n      tag_96\n      jumpi\n      dup1\n      0x1f\n      lt\n      tag_97\n      jumpi\n      0x0100\n      dup1\n      dup4\n      sload\n      div\n      mul\n      dup4\n      mstore\n      swap2\n      0x20\n      add\n      swap2\n      jump(tag_96)\n    tag_97:\n      dup3\n      add\n      swap2\n      swap1\n      0x00\n      mstore\n      keccak256(0x00, 0x20)\n      swap1\n    tag_98:\n      dup2\n      sload\n      dup2\n      mstore\n      swap1\n      0x01\n      add\n      swap1\n      0x20\n      add\n      dup1\n      dup4\n      gt\n      tag_98\n      jumpi\n      dup3\n      swap1\n      sub\n      0x1f\n      and\n      dup3\n      add\n      swap2\n    tag_96:\n      pop\n      pop\n      pop\n      pop\n      pop\n      swap2\n      pop\n      dup1\n      dup1\n      sload\n      tag_99\n      swap1\n      tag_73\n      jump\t// in\n    tag_99:\n      dup1\n      0x1f\n      add\n      0x20\n      dup1\n      swap2\n      div\n      mul\n      0x20\n      add\n      mload(0x40)\n      swap1\n      dup2\n      add\n      0x40\n      mstore\n      dup1\n      swap3\n      swap2\n      swap1\n      dup2\n      dup2\n      mstore\n      0x20\n      add\n      dup3\n      dup1\n      sload\n      tag_100\n      swap1\n      tag_73\n      jump\t// in\n    tag_100:\n      dup1\n      iszero\n      tag_101\n      jumpi\n      dup1\n      0x1f\n      lt\n      tag_102\n      jumpi\n      0x0100\n      dup1\n      dup4\n      sload\n      div\n      mul\n      dup4\n      mstore\n      swap2\n      0x20\n      add\n      swap2\n      jump(tag_101)\n    tag_102:\n      dup3\n      add\n      swap2\n      swap1\n      0x00\n      mstore\n      keccak256(0x00, 0x20)\n      swap1\n    tag_103:\n      dup2\n      sload\n      dup2\n      mstore\n      swap1\n      0x01\n      add\n      swap1\n      0x20\n      add\n      dup1\n      dup4\n      gt\n      tag_103\n      jumpi\n      dup3\n      swap1\n      sub\n      0x1f\n      and\n      dup3\n      add\n      swap2\n    tag_101:\n      pop\n      pop\n      pop\n      pop\n      pop\n      swap1\n      pop\n      swap6\n      pop\n      swap6\n      pop\n      swap6\n      pop\n      swap6\n      pop\n      swap6\n      pop\n      swap6\n      pop\n        /* \"factoryContract.sol\":6323:6685  function getProfDetails() public view returns(string memory,uint,string memory,string memory,string memory,string memory){... */\n      swap1\n      swap2\n      swap3\n      swap4\n      swap5\n      swap6\n      jump\t// out\n        /* \"factoryContract.sol\":6693:7210  function changeProfDetails(string memory _name, uint _age, string memory _gender, string memory _hospital,string memory _hospitalId, string memory _email) public{... */\n    tag_35:\n        /* \"factoryContract.sol\":6867:6899  details memory newStructInstance */\n      0x00\n        /* \"factoryContract.sol\":6902:7160  details({... */\n      mload(0x40)\n      dup1\n      0xc0\n      add\n      0x40\n      mstore\n      dup1\n        /* \"factoryContract.sol\":6935:6940  _name */\n      dup9\n        /* \"factoryContract.sol\":6902:7160  details({... */\n      dup2\n      mstore\n      0x20\n      add\n        /* \"factoryContract.sol\":6960:6964  _age */\n      dup8\n        /* \"factoryContract.sol\":6902:7160  details({... */\n      dup2\n      mstore\n      0x20\n      add\n        /* \"factoryContract.sol\":6988:6995  _gender */\n      dup7\n        /* \"factoryContract.sol\":6902:7160  details({... */\n      dup2\n      mstore\n      0x20\n      add\n        /* \"factoryContract.sol\":7021:7030  _hospital */\n      dup6\n        /* \"factoryContract.sol\":6902:7160  details({... */\n      dup2\n      mstore\n      0x20\n      add\n        /* \"factoryContract.sol\":7058:7069  _hospitalId */\n      dup5\n        /* \"factoryContract.sol\":6902:7160  details({... */\n      dup2\n      mstore\n      0x20\n      add\n        /* \"factoryContract.sol\":7092:7098  _email */\n      dup4\n        /* \"factoryContract.sol\":6902:7160  details({... */\n      dup2\n      mstore\n      pop\n        /* \"factoryContract.sol\":6867:7160  details memory newStructInstance = details({... */\n      swap1\n      pop\n        /* \"factoryContract.sol\":7185:7202  newStructInstance */\n      dup1\n        /* \"factoryContract.sol\":7171:7182  profDetails */\n      0x03\n        /* \"factoryContract.sol\":7171:7202  profDetails = newStructInstance */\n      0x00\n      dup3\n      add\n      mload\n      dup2\n      0x00\n      add\n      swap1\n      dup1\n      mload\n      swap1\n      0x20\n      add\n      swap1\n      tag_105\n      swap3\n      swap2\n      swap1\n      tag_106\n      jump\t// in\n    tag_105:\n      pop\n      0x20\n      dup3\n      add\n      mload\n      dup2\n      0x01\n      add\n      sstore\n      0x40\n      dup3\n      add\n      mload\n      dup2\n      0x02\n      add\n      swap1\n      dup1\n      mload\n      swap1\n      0x20\n      add\n      swap1\n      tag_107\n      swap3\n      swap2\n      swap1\n      tag_106\n      jump\t// in\n    tag_107:\n      pop\n      0x60\n      dup3\n      add\n      mload\n      dup2\n      0x03\n      add\n      swap1\n      dup1\n      mload\n      swap1\n      0x20\n      add\n      swap1\n      tag_108\n      swap3\n      swap2\n      swap1\n      tag_106\n      jump\t// in\n    tag_108:\n      pop\n      0x80\n      dup3\n      add\n      mload\n      dup2\n      0x04\n      add\n      swap1\n      dup1\n      mload\n      swap1\n      0x20\n      add\n      swap1\n      tag_109\n      swap3\n      swap2\n      swap1\n      tag_106\n      jump\t// in\n    tag_109:\n      pop\n      0xa0\n      dup3\n      add\n      mload\n      dup2\n      0x05\n      add\n      swap1\n      dup1\n      mload\n      swap1\n      0x20\n      add\n      swap1\n      tag_110\n      swap3\n      swap2\n      swap1\n      tag_106\n      jump\t// in\n    tag_110:\n      pop\n      swap1\n      pop\n      pop\n        /* \"factoryContract.sol\":6854:7210  {... */\n      pop\n        /* \"factoryContract.sol\":6693:7210  function changeProfDetails(string memory _name, uint _age, string memory _gender, string memory _hospital,string memory _hospitalId, string memory _email) public{... */\n      pop\n      pop\n      pop\n      pop\n      pop\n      pop\n      jump\t// out\n        /* \"factoryContract.sol\":7375:7636  function addReports(uint report,address patient) public {... */\n    tag_39:\n        /* \"factoryContract.sol\":7487:7488  0 */\n      0x00\n        /* \"factoryContract.sol\":7455:7469  patientReports */\n      0x09\n        /* \"factoryContract.sol\":7455:7478  patientReports[patient] */\n      0x00\n        /* \"factoryContract.sol\":7470:7477  patient */\n      dup4\n        /* \"factoryContract.sol\":7455:7478  patientReports[patient] */\n      0xffffffffffffffffffffffffffffffffffffffff\n      and\n      0xffffffffffffffffffffffffffffffffffffffff\n      and\n      dup2\n      mstore\n      0x20\n      add\n      swap1\n      dup2\n      mstore\n      0x20\n      add\n      0x00\n      keccak256\n        /* \"factoryContract.sol\":7455:7485  patientReports[patient].length */\n      dup1\n      sload\n      swap1\n      pop\n        /* \"factoryContract.sol\":7455:7488  patientReports[patient].length==0 */\n      eq\n        /* \"factoryContract.sol\":7452:7582  if(patientReports[patient].length==0){... */\n      iszero\n      tag_112\n      jumpi\n        /* \"factoryContract.sol\":7533:7540  patient */\n      dup1\n        /* \"factoryContract.sol\":7504:7516  patientTrack */\n      0x0a\n        /* \"factoryContract.sol\":7504:7530  patientTrack[patientCount] */\n      0x00\n        /* \"factoryContract.sol\":7517:7529  patientCount */\n      sload(0x0b)\n        /* \"factoryContract.sol\":7504:7530  patientTrack[patientCount] */\n      dup2\n      mstore\n      0x20\n      add\n      swap1\n      dup2\n      mstore\n      0x20\n      add\n      0x00\n      keccak256\n      0x00\n        /* \"factoryContract.sol\":7504:7540  patientTrack[patientCount] = patient */\n      0x0100\n      exp\n      dup2\n      sload\n      dup2\n      0xffffffffffffffffffffffffffffffffffffffff\n      mul\n      not\n      and\n      swap1\n      dup4\n      0xffffffffffffffffffffffffffffffffffffffff\n      and\n      mul\n      or\n      swap1\n      sstore\n      pop\n        /* \"factoryContract.sol\":7569:7570  1 */\n      0x01\n        /* \"factoryContract.sol\":7555:7567  patientCount */\n      0x0b\n      0x00\n        /* \"factoryContract.sol\":7555:7570  patientCount+=1 */\n      dup3\n      dup3\n      sload\n      tag_113\n      swap2\n      swap1\n      tag_114\n      jump\t// in\n    tag_113:\n      swap3\n      pop\n      pop\n      dup2\n      swap1\n      sstore\n      pop\n        /* \"factoryContract.sol\":7452:7582  if(patientReports[patient].length==0){... */\n    tag_112:\n        /* \"factoryContract.sol\":7592:7606  patientReports */\n      0x09\n        /* \"factoryContract.sol\":7592:7615  patientReports[patient] */\n      0x00\n        /* \"factoryContract.sol\":7607:7614  patient */\n      dup3\n        /* \"factoryContract.sol\":7592:7615  patientReports[patient] */\n      0xffffffffffffffffffffffffffffffffffffffff\n      and\n      0xffffffffffffffffffffffffffffffffffffffff\n      and\n      dup2\n      mstore\n      0x20\n      add\n      swap1\n      dup2\n      mstore\n      0x20\n      add\n      0x00\n      keccak256\n        /* \"factoryContract.sol\":7621:7627  report */\n      dup3\n        /* \"factoryContract.sol\":7592:7628  patientReports[patient].push(report) */\n      swap1\n      dup1\n      0x01\n      dup2\n      sload\n      add\n      dup1\n      dup3\n      sstore\n      dup1\n      swap2\n      pop\n      pop\n      0x01\n      swap1\n      sub\n      swap1\n      0x00\n      mstore\n      keccak256(0x00, 0x20)\n      add\n      0x00\n      swap1\n      swap2\n      swap1\n      swap2\n      swap1\n      swap2\n      pop\n      sstore\n        /* \"factoryContract.sol\":7375:7636  function addReports(uint report,address patient) public {... */\n      pop\n      pop\n      jump\t// out\n        /* \"factoryContract.sol\":7225:7365  function addComments(string memory _comments, address patient, uint record ) public {... */\n    tag_43:\n        /* \"factoryContract.sol\":7348:7357  _comments */\n      dup3\n        /* \"factoryContract.sol\":7320:7328  comments */\n      0x0c\n        /* \"factoryContract.sol\":7320:7337  comments[patient] */\n      0x00\n        /* \"factoryContract.sol\":7329:7336  patient */\n      dup5\n        /* \"factoryContract.sol\":7320:7337  comments[patient] */\n      0xffffffffffffffffffffffffffffffffffffffff\n      and\n      0xffffffffffffffffffffffffffffffffffffffff\n      and\n      dup2\n      mstore\n      0x20\n      add\n      swap1\n      dup2\n      mstore\n      0x20\n      add\n      0x00\n      keccak256\n        /* \"factoryContract.sol\":7320:7345  comments[patient][record] */\n      0x00\n        /* \"factoryContract.sol\":7338:7344  record */\n      dup4\n        /* \"factoryContract.sol\":7320:7345  comments[patient][record] */\n      dup2\n      mstore\n      0x20\n      add\n      swap1\n      dup2\n      mstore\n      0x20\n      add\n      0x00\n      keccak256\n        /* \"factoryContract.sol\":7320:7357  comments[patient][record] = _comments */\n      swap1\n      dup1\n      mload\n      swap1\n      0x20\n      add\n      swap1\n      tag_117\n      swap3\n      swap2\n      swap1\n      tag_106\n      jump\t// in\n    tag_117:\n      pop\n        /* \"factoryContract.sol\":7225:7365  function addComments(string memory _comments, address patient, uint record ) public {... */\n      pop\n      pop\n      pop\n      jump\t// out\n        /* \"factoryContract.sol\":5237:5256  address public Prof */\n    tag_45:\n      0x00\n      dup1\n      sload\n      swap1\n      0x0100\n      exp\n      swap1\n      div\n      0xffffffffffffffffffffffffffffffffffffffff\n      and\n      dup2\n      jump\t// out\n        /* \"factoryContract.sol\":5647:5671  uint public patientCount */\n    tag_49:\n      sload(0x0b)\n      dup2\n      jump\t// out\n        /* \"factoryContract.sol\":5505:5531  details public profDetails */\n    tag_52:\n      0x03\n      dup1\n      0x00\n      add\n      dup1\n      sload\n      tag_118\n      swap1\n      tag_73\n      jump\t// in\n    tag_118:\n      dup1\n      0x1f\n      add\n      0x20\n      dup1\n      swap2\n      div\n      mul\n      0x20\n      add\n      mload(0x40)\n      swap1\n      dup2\n      add\n      0x40\n      mstore\n      dup1\n      swap3\n      swap2\n      swap1\n      dup2\n      dup2\n      mstore\n      0x20\n      add\n      dup3\n      dup1\n      sload\n      tag_119\n      swap1\n      tag_73\n      jump\t// in\n    tag_119:\n      dup1\n      iszero\n      tag_120\n      jumpi\n      dup1\n      0x1f\n      lt\n      tag_121\n      jumpi\n      0x0100\n      dup1\n      dup4\n      sload\n      div\n      mul\n      dup4\n      mstore\n      swap2\n      0x20\n      add\n      swap2\n      jump(tag_120)\n    tag_121:\n      dup3\n      add\n      swap2\n      swap1\n      0x00\n      mstore\n      keccak256(0x00, 0x20)\n      swap1\n    tag_122:\n      dup2\n      sload\n      dup2\n      mstore\n      swap1\n      0x01\n      add\n      swap1\n      0x20\n      add\n      dup1\n      dup4\n      gt\n      tag_122\n      jumpi\n      dup3\n      swap1\n      sub\n      0x1f\n      and\n      dup3\n      add\n      swap2\n    tag_120:\n      pop\n      pop\n      pop\n      pop\n      pop\n      swap1\n      dup1\n      0x01\n      add\n      sload\n      swap1\n      dup1\n      0x02\n      add\n      dup1\n      sload\n      tag_123\n      swap1\n      tag_73\n      jump\t// in\n    tag_123:\n      dup1\n      0x1f\n      add\n      0x20\n      dup1\n      swap2\n      div\n      mul\n      0x20\n      add\n      mload(0x40)\n      swap1\n      dup2\n      add\n      0x40\n      mstore\n      dup1\n      swap3\n      swap2\n      swap1\n      dup2\n      dup2\n      mstore\n      0x20\n      add\n      dup3\n      dup1\n      sload\n      tag_124\n      swap1\n      tag_73\n      jump\t// in\n    tag_124:\n      dup1\n      iszero\n      tag_125\n      jumpi\n      dup1\n      0x1f\n      lt\n      tag_126\n      jumpi\n      0x0100\n      dup1\n      dup4\n      sload\n      div\n      mul\n      dup4\n      mstore\n      swap2\n      0x20\n      add\n      swap2\n      jump(tag_125)\n    tag_126:\n      dup3\n      add\n      swap2\n      swap1\n      0x00\n      mstore\n      keccak256(0x00, 0x20)\n      swap1\n    tag_127:\n      dup2\n      sload\n      dup2\n      mstore\n      swap1\n      0x01\n      add\n      swap1\n      0x20\n      add\n      dup1\n      dup4\n      gt\n      tag_127\n      jumpi\n      dup3\n      swap1\n      sub\n      0x1f\n      and\n      dup3\n      add\n      swap2\n    tag_125:\n      pop\n      pop\n      pop\n      pop\n      pop\n      swap1\n      dup1\n      0x03\n      add\n      dup1\n      sload\n      tag_128\n      swap1\n      tag_73\n      jump\t// in\n    tag_128:\n      dup1\n      0x1f\n      add\n      0x20\n      dup1\n      swap2\n      div\n      mul\n      0x20\n      add\n      mload(0x40)\n      swap1\n      dup2\n      add\n      0x40\n      mstore\n      dup1\n      swap3\n      swap2\n      swap1\n      dup2\n      dup2\n      mstore\n      0x20\n      add\n      dup3\n      dup1\n      sload\n      tag_129\n      swap1\n      tag_73\n      jump\t// in\n    tag_129:\n      dup1\n      iszero\n      tag_130\n      jumpi\n      dup1\n      0x1f\n      lt\n      tag_131\n      jumpi\n      0x0100\n      dup1\n      dup4\n      sload\n      div\n      mul\n      dup4\n      mstore\n      swap2\n      0x20\n      add\n      swap2\n      jump(tag_130)\n    tag_131:\n      dup3\n      add\n      swap2\n      swap1\n      0x00\n      mstore\n      keccak256(0x00, 0x20)\n      swap1\n    tag_132:\n      dup2\n      sload\n      dup2\n      mstore\n      swap1\n      0x01\n      add\n      swap1\n      0x20\n      add\n      dup1\n      dup4\n      gt\n      tag_132\n      jumpi\n      dup3\n      swap1\n      sub\n      0x1f\n      and\n      dup3\n      add\n      swap2\n    tag_130:\n      pop\n      pop\n      pop\n      pop\n      pop\n      swap1\n      dup1\n      0x04\n      add\n      dup1\n      sload\n      tag_133\n      swap1\n      tag_73\n      jump\t// in\n    tag_133:\n      dup1\n      0x1f\n      add\n      0x20\n      dup1\n      swap2\n      div\n      mul\n      0x20\n      add\n      mload(0x40)\n      swap1\n      dup2\n      add\n      0x40\n      mstore\n      dup1\n      swap3\n      swap2\n      swap1\n      dup2\n      dup2\n      mstore\n      0x20\n      add\n      dup3\n      dup1\n      sload\n      tag_134\n      swap1\n      tag_73\n      jump\t// in\n    tag_134:\n      dup1\n      iszero\n      tag_135\n      jumpi\n      dup1\n      0x1f\n      lt\n      tag_136\n      jumpi\n      0x0100\n      dup1\n      dup4\n      sload\n      div\n      mul\n      dup4\n      mstore\n      swap2\n      0x20\n      add\n      swap2\n      jump(tag_135)\n    tag_136:\n      dup3\n      add\n      swap2\n      swap1\n      0x00\n      mstore\n      keccak256(0x00, 0x20)\n      swap1\n    tag_137:\n      dup2\n      sload\n      dup2\n      mstore\n      swap1\n      0x01\n      add\n      swap1\n      0x20\n      add\n      dup1\n      dup4\n      gt\n      tag_137\n      jumpi\n      dup3\n      swap1\n      sub\n      0x1f\n      and\n      dup3\n      add\n      swap2\n    tag_135:\n      pop\n      pop\n      pop\n      pop\n      pop\n      swap1\n      dup1\n      0x05\n      add\n      dup1\n      sload\n      tag_138\n      swap1\n      tag_73\n      jump\t// in\n    tag_138:\n      dup1\n      0x1f\n      add\n      0x20\n      dup1\n      swap2\n      div\n      mul\n      0x20\n      add\n      mload(0x40)\n      swap1\n      dup2\n      add\n      0x40\n      mstore\n      dup1\n      swap3\n      swap2\n      swap1\n      dup2\n      dup2\n      mstore\n      0x20\n      add\n      dup3\n      dup1\n      sload\n      tag_139\n      swap1\n      tag_73\n      jump\t// in\n    tag_139:\n      dup1\n      iszero\n      tag_140\n      jumpi\n      dup1\n      0x1f\n      lt\n      tag_141\n      jumpi\n      0x0100\n      dup1\n      dup4\n      sload\n      div\n      mul\n      dup4\n      mstore\n      swap2\n      0x20\n      add\n      swap2\n      jump(tag_140)\n    tag_141:\n      dup3\n      add\n      swap2\n      swap1\n      0x00\n      mstore\n      keccak256(0x00, 0x20)\n      swap1\n    tag_142:\n      dup2\n      sload\n      dup2\n      mstore\n      swap1\n      0x01\n      add\n      swap1\n      0x20\n      add\n      dup1\n      dup4\n      gt\n      tag_142\n      jumpi\n      dup3\n      swap1\n      sub\n      0x1f\n      and\n      dup3\n      add\n      swap2\n    tag_140:\n      pop\n      pop\n      pop\n      pop\n      pop\n      swap1\n      pop\n      dup7\n      jump\t// out\n        /* \"factoryContract.sol\":5598:5640  mapping(uint=>address) public patientTrack */\n    tag_57:\n      mstore(0x20, 0x0a)\n      dup1\n      0x00\n      mstore\n      keccak256(0x00, 0x40)\n      0x00\n      swap2\n      pop\n      sload\n      swap1\n      0x0100\n      exp\n      swap1\n      div\n      0xffffffffffffffffffffffffffffffffffffffff\n      and\n      dup2\n      jump\t// out\n        /* \"factoryContract.sol\":5263:5285  address public Factory */\n    tag_60:\n      0x01\n      0x00\n      swap1\n      sload\n      swap1\n      0x0100\n      exp\n      swap1\n      div\n      0xffffffffffffffffffffffffffffffffffffffff\n      and\n      dup2\n      jump\t// out\n        /* \"factoryContract.sol\":7648:7775  function getPatientReports(address patient) public view returns(uint[] memory){... */\n    tag_65:\n        /* \"factoryContract.sol\":7712:7725  uint[] memory */\n      0x60\n        /* \"factoryContract.sol\":7744:7758  patientReports */\n      0x09\n        /* \"factoryContract.sol\":7744:7767  patientReports[patient] */\n      0x00\n        /* \"factoryContract.sol\":7759:7766  patient */\n      dup4\n        /* \"factoryContract.sol\":7744:7767  patientReports[patient] */\n      0xffffffffffffffffffffffffffffffffffffffff\n      and\n      0xffffffffffffffffffffffffffffffffffffffff\n      and\n      dup2\n      mstore\n      0x20\n      add\n      swap1\n      dup2\n      mstore\n      0x20\n      add\n      0x00\n      keccak256\n        /* \"factoryContract.sol\":7737:7767  return patientReports[patient] */\n      dup1\n      sload\n      dup1\n      0x20\n      mul\n      0x20\n      add\n      mload(0x40)\n      swap1\n      dup2\n      add\n      0x40\n      mstore\n      dup1\n      swap3\n      swap2\n      swap1\n      dup2\n      dup2\n      mstore\n      0x20\n      add\n      dup3\n      dup1\n      sload\n      dup1\n      iszero\n      tag_144\n      jumpi\n      0x20\n      mul\n      dup3\n      add\n      swap2\n      swap1\n      0x00\n      mstore\n      keccak256(0x00, 0x20)\n      swap1\n    tag_145:\n      dup2\n      sload\n      dup2\n      mstore\n      0x20\n      add\n      swap1\n      0x01\n      add\n      swap1\n      dup1\n      dup4\n      gt\n      tag_145\n      jumpi\n    tag_144:\n      pop\n      pop\n      pop\n      pop\n      pop\n      swap1\n      pop\n        /* \"factoryContract.sol\":7648:7775  function getPatientReports(address patient) public view returns(uint[] memory){... */\n      swap2\n      swap1\n      pop\n      jump\t// out\n        /* \"factoryContract.sol\":5540:5591  mapping(address => uint256[]) public patientReports */\n    tag_70:\n      mstore(0x20, 0x09)\n      dup2\n      0x00\n      mstore\n      keccak256(0x00, 0x40)\n      dup2\n      dup2\n      sload\n      dup2\n      lt\n      tag_146\n      jumpi\n      0x00\n      dup1\n      revert\n    tag_146:\n      swap1\n      0x00\n      mstore\n      keccak256(0x00, 0x20)\n      add\n      0x00\n      swap2\n      pop\n      swap2\n      pop\n      pop\n      sload\n      dup2\n      jump\t// out\n    tag_106:\n      dup3\n      dup1\n      sload\n      tag_148\n      swap1\n      tag_73\n      jump\t// in\n    tag_148:\n      swap1\n      0x00\n      mstore\n      keccak256(0x00, 0x20)\n      swap1\n      0x1f\n      add\n      0x20\n      swap1\n      div\n      dup2\n      add\n      swap3\n      dup3\n      tag_150\n      jumpi\n      0x00\n      dup6\n      sstore\n      jump(tag_149)\n    tag_150:\n      dup3\n      0x1f\n      lt\n      tag_151\n      jumpi\n      dup1\n      mload\n      not(0xff)\n      and\n      dup4\n      dup1\n      add\n      or\n      dup6\n      sstore\n      jump(tag_149)\n    tag_151:\n      dup3\n      dup1\n      add\n      0x01\n      add\n      dup6\n      sstore\n      dup3\n      iszero\n      tag_149\n      jumpi\n      swap2\n      dup3\n      add\n    tag_152:\n      dup3\n      dup2\n      gt\n      iszero\n      tag_153\n      jumpi\n      dup3\n      mload\n      dup3\n      sstore\n      swap2\n      0x20\n      add\n      swap2\n      swap1\n      0x01\n      add\n      swap1\n      jump(tag_152)\n    tag_153:\n    tag_149:\n      pop\n      swap1\n      pop\n      tag_154\n      swap2\n      swap1\n      tag_155\n      jump\t// in\n    tag_154:\n      pop\n      swap1\n      jump\t// out\n    tag_155:\n    tag_156:\n      dup1\n      dup3\n      gt\n      iszero\n      tag_157\n      jumpi\n      0x00\n      dup2\n      0x00\n      swap1\n      sstore\n      pop\n      0x01\n      add\n      jump(tag_156)\n    tag_157:\n      pop\n      swap1\n      jump\t// out\n        /* \"#utility.yul\":7:82   */\n    tag_158:\n        /* \"#utility.yul\":40:46   */\n      0x00\n        /* \"#utility.yul\":73:75   */\n      0x40\n        /* \"#utility.yul\":67:76   */\n      mload\n        /* \"#utility.yul\":57:76   */\n      swap1\n      pop\n        /* \"#utility.yul\":7:82   */\n      swap1\n      jump\t// out\n        /* \"#utility.yul\":88:205   */\n    tag_159:\n        /* \"#utility.yul\":197:198   */\n      0x00\n        /* \"#utility.yul\":194:195   */\n      dup1\n        /* \"#utility.yul\":187:199   */\n      revert\n        /* \"#utility.yul\":211:328   */\n    tag_160:\n        /* \"#utility.yul\":320:321   */\n      0x00\n        /* \"#utility.yul\":317:318   */\n      dup1\n        /* \"#utility.yul\":310:322   */\n      revert\n        /* \"#utility.yul\":334:460   */\n    tag_161:\n        /* \"#utility.yul\":371:378   */\n      0x00\n        /* \"#utility.yul\":411:453   */\n      0xffffffffffffffffffffffffffffffffffffffff\n        /* \"#utility.yul\":404:409   */\n      dup3\n        /* \"#utility.yul\":400:454   */\n      and\n        /* \"#utility.yul\":389:454   */\n      swap1\n      pop\n        /* \"#utility.yul\":334:460   */\n      swap2\n      swap1\n      pop\n      jump\t// out\n        /* \"#utility.yul\":466:562   */\n    tag_162:\n        /* \"#utility.yul\":503:510   */\n      0x00\n        /* \"#utility.yul\":532:556   */\n      tag_199\n        /* \"#utility.yul\":550:555   */\n      dup3\n        /* \"#utility.yul\":532:556   */\n      tag_161\n      jump\t// in\n    tag_199:\n        /* \"#utility.yul\":521:556   */\n      swap1\n      pop\n        /* \"#utility.yul\":466:562   */\n      swap2\n      swap1\n      pop\n      jump\t// out\n        /* \"#utility.yul\":568:690   */\n    tag_163:\n        /* \"#utility.yul\":641:665   */\n      tag_201\n        /* \"#utility.yul\":659:664   */\n      dup2\n        /* \"#utility.yul\":641:665   */\n      tag_162\n      jump\t// in\n    tag_201:\n        /* \"#utility.yul\":634:639   */\n      dup2\n        /* \"#utility.yul\":631:666   */\n      eq\n        /* \"#utility.yul\":621:684   */\n      tag_202\n      jumpi\n        /* \"#utility.yul\":680:681   */\n      0x00\n        /* \"#utility.yul\":677:678   */\n      dup1\n        /* \"#utility.yul\":670:682   */\n      revert\n        /* \"#utility.yul\":621:684   */\n    tag_202:\n        /* \"#utility.yul\":568:690   */\n      pop\n      jump\t// out\n        /* \"#utility.yul\":696:835   */\n    tag_164:\n        /* \"#utility.yul\":742:747   */\n      0x00\n        /* \"#utility.yul\":780:786   */\n      dup2\n        /* \"#utility.yul\":767:787   */\n      calldataload\n        /* \"#utility.yul\":758:787   */\n      swap1\n      pop\n        /* \"#utility.yul\":796:829   */\n      tag_204\n        /* \"#utility.yul\":823:828   */\n      dup2\n        /* \"#utility.yul\":796:829   */\n      tag_163\n      jump\t// in\n    tag_204:\n        /* \"#utility.yul\":696:835   */\n      swap3\n      swap2\n      pop\n      pop\n      jump\t// out\n        /* \"#utility.yul\":841:918   */\n    tag_165:\n        /* \"#utility.yul\":878:885   */\n      0x00\n        /* \"#utility.yul\":907:912   */\n      dup2\n        /* \"#utility.yul\":896:912   */\n      swap1\n      pop\n        /* \"#utility.yul\":841:918   */\n      swap2\n      swap1\n      pop\n      jump\t// out\n        /* \"#utility.yul\":924:1046   */\n    tag_166:\n        /* \"#utility.yul\":997:1021   */\n      tag_207\n        /* \"#utility.yul\":1015:1020   */\n      dup2\n        /* \"#utility.yul\":997:1021   */\n      tag_165\n      jump\t// in\n    tag_207:\n        /* \"#utility.yul\":990:995   */\n      dup2\n        /* \"#utility.yul\":987:1022   */\n      eq\n        /* \"#utility.yul\":977:1040   */\n      tag_208\n      jumpi\n        /* \"#utility.yul\":1036:1037   */\n      0x00\n        /* \"#utility.yul\":1033:1034   */\n      dup1\n        /* \"#utility.yul\":1026:1038   */\n      revert\n        /* \"#utility.yul\":977:1040   */\n    tag_208:\n        /* \"#utility.yul\":924:1046   */\n      pop\n      jump\t// out\n        /* \"#utility.yul\":1052:1191   */\n    tag_167:\n        /* \"#utility.yul\":1098:1103   */\n      0x00\n        /* \"#utility.yul\":1136:1142   */\n      dup2\n        /* \"#utility.yul\":1123:1143   */\n      calldataload\n        /* \"#utility.yul\":1114:1143   */\n      swap1\n      pop\n        /* \"#utility.yul\":1152:1185   */\n      tag_210\n        /* \"#utility.yul\":1179:1184   */\n      dup2\n        /* \"#utility.yul\":1152:1185   */\n      tag_166\n      jump\t// in\n    tag_210:\n        /* \"#utility.yul\":1052:1191   */\n      swap3\n      swap2\n      pop\n      pop\n      jump\t// out\n        /* \"#utility.yul\":1197:1671   */\n    tag_20:\n        /* \"#utility.yul\":1265:1271   */\n      0x00\n        /* \"#utility.yul\":1273:1279   */\n      dup1\n        /* \"#utility.yul\":1322:1324   */\n      0x40\n        /* \"#utility.yul\":1310:1319   */\n      dup4\n        /* \"#utility.yul\":1301:1308   */\n      dup6\n        /* \"#utility.yul\":1297:1320   */\n      sub\n        /* \"#utility.yul\":1293:1325   */\n      slt\n        /* \"#utility.yul\":1290:1409   */\n      iszero\n      tag_212\n      jumpi\n        /* \"#utility.yul\":1328:1407   */\n      tag_213\n      tag_159\n      jump\t// in\n    tag_213:\n        /* \"#utility.yul\":1290:1409   */\n    tag_212:\n        /* \"#utility.yul\":1448:1449   */\n      0x00\n        /* \"#utility.yul\":1473:1526   */\n      tag_214\n        /* \"#utility.yul\":1518:1525   */\n      dup6\n        /* \"#utility.yul\":1509:1515   */\n      dup3\n        /* \"#utility.yul\":1498:1507   */\n      dup7\n        /* \"#utility.yul\":1494:1516   */\n      add\n        /* \"#utility.yul\":1473:1526   */\n      tag_164\n      jump\t// in\n    tag_214:\n        /* \"#utility.yul\":1463:1526   */\n      swap3\n      pop\n        /* \"#utility.yul\":1419:1536   */\n      pop\n        /* \"#utility.yul\":1575:1577   */\n      0x20\n        /* \"#utility.yul\":1601:1654   */\n      tag_215\n        /* \"#utility.yul\":1646:1653   */\n      dup6\n        /* \"#utility.yul\":1637:1643   */\n      dup3\n        /* \"#utility.yul\":1626:1635   */\n      dup7\n        /* \"#utility.yul\":1622:1644   */\n      add\n        /* \"#utility.yul\":1601:1654   */\n      tag_167\n      jump\t// in\n    tag_215:\n        /* \"#utility.yul\":1591:1654   */\n      swap2\n      pop\n        /* \"#utility.yul\":1546:1664   */\n      pop\n        /* \"#utility.yul\":1197:1671   */\n      swap3\n      pop\n      swap3\n      swap1\n      pop\n      jump\t// out\n        /* \"#utility.yul\":1677:1776   */\n    tag_168:\n        /* \"#utility.yul\":1729:1735   */\n      0x00\n        /* \"#utility.yul\":1763:1768   */\n      dup2\n        /* \"#utility.yul\":1757:1769   */\n      mload\n        /* \"#utility.yul\":1747:1769   */\n      swap1\n      pop\n        /* \"#utility.yul\":1677:1776   */\n      swap2\n      swap1\n      pop\n      jump\t// out\n        /* \"#utility.yul\":1782:1951   */\n    tag_169:\n        /* \"#utility.yul\":1866:1877   */\n      0x00\n        /* \"#utility.yul\":1900:1906   */\n      dup3\n        /* \"#utility.yul\":1895:1898   */\n      dup3\n        /* \"#utility.yul\":1888:1907   */\n      mstore\n        /* \"#utility.yul\":1940:1944   */\n      0x20\n        /* \"#utility.yul\":1935:1938   */\n      dup3\n        /* \"#utility.yul\":1931:1945   */\n      add\n        /* \"#utility.yul\":1916:1945   */\n      swap1\n      pop\n        /* \"#utility.yul\":1782:1951   */\n      swap3\n      swap2\n      pop\n      pop\n      jump\t// out\n        /* \"#utility.yul\":1957:2264   */\n    tag_170:\n        /* \"#utility.yul\":2025:2026   */\n      0x00\n        /* \"#utility.yul\":2035:2148   */\n    tag_219:\n        /* \"#utility.yul\":2049:2055   */\n      dup4\n        /* \"#utility.yul\":2046:2047   */\n      dup2\n        /* \"#utility.yul\":2043:2056   */\n      lt\n        /* \"#utility.yul\":2035:2148   */\n      iszero\n      tag_221\n      jumpi\n        /* \"#utility.yul\":2134:2135   */\n      dup1\n        /* \"#utility.yul\":2129:2132   */\n      dup3\n        /* \"#utility.yul\":2125:2136   */\n      add\n        /* \"#utility.yul\":2119:2137   */\n      mload\n        /* \"#utility.yul\":2115:2116   */\n      dup2\n        /* \"#utility.yul\":2110:2113   */\n      dup5\n        /* \"#utility.yul\":2106:2117   */\n      add\n        /* \"#utility.yul\":2099:2138   */\n      mstore\n        /* \"#utility.yul\":2071:2073   */\n      0x20\n        /* \"#utility.yul\":2068:2069   */\n      dup2\n        /* \"#utility.yul\":2064:2074   */\n      add\n        /* \"#utility.yul\":2059:2074   */\n      swap1\n      pop\n        /* \"#utility.yul\":2035:2148   */\n      jump(tag_219)\n    tag_221:\n        /* \"#utility.yul\":2166:2172   */\n      dup4\n        /* \"#utility.yul\":2163:2164   */\n      dup2\n        /* \"#utility.yul\":2160:2173   */\n      gt\n        /* \"#utility.yul\":2157:2258   */\n      iszero\n      tag_222\n      jumpi\n        /* \"#utility.yul\":2246:2247   */\n      0x00\n        /* \"#utility.yul\":2237:2243   */\n      dup5\n        /* \"#utility.yul\":2232:2235   */\n      dup5\n        /* \"#utility.yul\":2228:2244   */\n      add\n        /* \"#utility.yul\":2221:2248   */\n      mstore\n        /* \"#utility.yul\":2157:2258   */\n    tag_222:\n        /* \"#utility.yul\":2006:2264   */\n      pop\n        /* \"#utility.yul\":1957:2264   */\n      pop\n      pop\n      pop\n      jump\t// out\n        /* \"#utility.yul\":2270:2372   */\n    tag_171:\n        /* \"#utility.yul\":2311:2317   */\n      0x00\n        /* \"#utility.yul\":2362:2364   */\n      0x1f\n        /* \"#utility.yul\":2358:2365   */\n      not\n        /* \"#utility.yul\":2353:2355   */\n      0x1f\n        /* \"#utility.yul\":2346:2351   */\n      dup4\n        /* \"#utility.yul\":2342:2356   */\n      add\n        /* \"#utility.yul\":2338:2366   */\n      and\n        /* \"#utility.yul\":2328:2366   */\n      swap1\n      pop\n        /* \"#utility.yul\":2270:2372   */\n      swap2\n      swap1\n      pop\n      jump\t// out\n        /* \"#utility.yul\":2378:2742   */\n    tag_172:\n        /* \"#utility.yul\":2466:2469   */\n      0x00\n        /* \"#utility.yul\":2494:2533   */\n      tag_225\n        /* \"#utility.yul\":2527:2532   */\n      dup3\n        /* \"#utility.yul\":2494:2533   */\n      tag_168\n      jump\t// in\n    tag_225:\n        /* \"#utility.yul\":2549:2620   */\n      tag_226\n        /* \"#utility.yul\":2613:2619   */\n      dup2\n        /* \"#utility.yul\":2608:2611   */\n      dup6\n        /* \"#utility.yul\":2549:2620   */\n      tag_169\n      jump\t// in\n    tag_226:\n        /* \"#utility.yul\":2542:2620   */\n      swap4\n      pop\n        /* \"#utility.yul\":2629:2681   */\n      tag_227\n        /* \"#utility.yul\":2674:2680   */\n      dup2\n        /* \"#utility.yul\":2669:2672   */\n      dup6\n        /* \"#utility.yul\":2662:2666   */\n      0x20\n        /* \"#utility.yul\":2655:2660   */\n      dup7\n        /* \"#utility.yul\":2651:2667   */\n      add\n        /* \"#utility.yul\":2629:2681   */\n      tag_170\n      jump\t// in\n    tag_227:\n        /* \"#utility.yul\":2706:2735   */\n      tag_228\n        /* \"#utility.yul\":2728:2734   */\n      dup2\n        /* \"#utility.yul\":2706:2735   */\n      tag_171\n      jump\t// in\n    tag_228:\n        /* \"#utility.yul\":2701:2704   */\n      dup5\n        /* \"#utility.yul\":2697:2736   */\n      add\n        /* \"#utility.yul\":2690:2736   */\n      swap2\n      pop\n        /* \"#utility.yul\":2470:2742   */\n      pop\n        /* \"#utility.yul\":2378:2742   */\n      swap3\n      swap2\n      pop\n      pop\n      jump\t// out\n        /* \"#utility.yul\":2748:3061   */\n    tag_23:\n        /* \"#utility.yul\":2861:2865   */\n      0x00\n        /* \"#utility.yul\":2899:2901   */\n      0x20\n        /* \"#utility.yul\":2888:2897   */\n      dup3\n        /* \"#utility.yul\":2884:2902   */\n      add\n        /* \"#utility.yul\":2876:2902   */\n      swap1\n      pop\n        /* \"#utility.yul\":2948:2957   */\n      dup2\n        /* \"#utility.yul\":2942:2946   */\n      dup2\n        /* \"#utility.yul\":2938:2958   */\n      sub\n        /* \"#utility.yul\":2934:2935   */\n      0x00\n        /* \"#utility.yul\":2923:2932   */\n      dup4\n        /* \"#utility.yul\":2919:2936   */\n      add\n        /* \"#utility.yul\":2912:2959   */\n      mstore\n        /* \"#utility.yul\":2976:3054   */\n      tag_230\n        /* \"#utility.yul\":3049:3053   */\n      dup2\n        /* \"#utility.yul\":3040:3046   */\n      dup5\n        /* \"#utility.yul\":2976:3054   */\n      tag_172\n      jump\t// in\n    tag_230:\n        /* \"#utility.yul\":2968:3054   */\n      swap1\n      pop\n        /* \"#utility.yul\":2748:3061   */\n      swap3\n      swap2\n      pop\n      pop\n      jump\t// out\n        /* \"#utility.yul\":3067:3185   */\n    tag_173:\n        /* \"#utility.yul\":3154:3178   */\n      tag_232\n        /* \"#utility.yul\":3172:3177   */\n      dup2\n        /* \"#utility.yul\":3154:3178   */\n      tag_165\n      jump\t// in\n    tag_232:\n        /* \"#utility.yul\":3149:3152   */\n      dup3\n        /* \"#utility.yul\":3142:3179   */\n      mstore\n        /* \"#utility.yul\":3067:3185   */\n      pop\n      pop\n      jump\t// out\n        /* \"#utility.yul\":3191:3413   */\n    tag_27:\n        /* \"#utility.yul\":3284:3288   */\n      0x00\n        /* \"#utility.yul\":3322:3324   */\n      0x20\n        /* \"#utility.yul\":3311:3320   */\n      dup3\n        /* \"#utility.yul\":3307:3325   */\n      add\n        /* \"#utility.yul\":3299:3325   */\n      swap1\n      pop\n        /* \"#utility.yul\":3335:3406   */\n      tag_234\n        /* \"#utility.yul\":3403:3404   */\n      0x00\n        /* \"#utility.yul\":3392:3401   */\n      dup4\n        /* \"#utility.yul\":3388:3405   */\n      add\n        /* \"#utility.yul\":3379:3385   */\n      dup5\n        /* \"#utility.yul\":3335:3406   */\n      tag_173\n      jump\t// in\n    tag_234:\n        /* \"#utility.yul\":3191:3413   */\n      swap3\n      swap2\n      pop\n      pop\n      jump\t// out\n        /* \"#utility.yul\":3419:4649   */\n    tag_31:\n        /* \"#utility.yul\":3752:3756   */\n      0x00\n        /* \"#utility.yul\":3790:3793   */\n      0xc0\n        /* \"#utility.yul\":3779:3788   */\n      dup3\n        /* \"#utility.yul\":3775:3794   */\n      add\n        /* \"#utility.yul\":3767:3794   */\n      swap1\n      pop\n        /* \"#utility.yul\":3840:3849   */\n      dup2\n        /* \"#utility.yul\":3834:3838   */\n      dup2\n        /* \"#utility.yul\":3830:3850   */\n      sub\n        /* \"#utility.yul\":3826:3827   */\n      0x00\n        /* \"#utility.yul\":3815:3824   */\n      dup4\n        /* \"#utility.yul\":3811:3828   */\n      add\n        /* \"#utility.yul\":3804:3851   */\n      mstore\n        /* \"#utility.yul\":3868:3946   */\n      tag_236\n        /* \"#utility.yul\":3941:3945   */\n      dup2\n        /* \"#utility.yul\":3932:3938   */\n      dup10\n        /* \"#utility.yul\":3868:3946   */\n      tag_172\n      jump\t// in\n    tag_236:\n        /* \"#utility.yul\":3860:3946   */\n      swap1\n      pop\n        /* \"#utility.yul\":3956:4028   */\n      tag_237\n        /* \"#utility.yul\":4024:4026   */\n      0x20\n        /* \"#utility.yul\":4013:4022   */\n      dup4\n        /* \"#utility.yul\":4009:4027   */\n      add\n        /* \"#utility.yul\":4000:4006   */\n      dup9\n        /* \"#utility.yul\":3956:4028   */\n      tag_173\n      jump\t// in\n    tag_237:\n        /* \"#utility.yul\":4075:4084   */\n      dup2\n        /* \"#utility.yul\":4069:4073   */\n      dup2\n        /* \"#utility.yul\":4065:4085   */\n      sub\n        /* \"#utility.yul\":4060:4062   */\n      0x40\n        /* \"#utility.yul\":4049:4058   */\n      dup4\n        /* \"#utility.yul\":4045:4063   */\n      add\n        /* \"#utility.yul\":4038:4086   */\n      mstore\n        /* \"#utility.yul\":4103:4181   */\n      tag_238\n        /* \"#utility.yul\":4176:4180   */\n      dup2\n        /* \"#utility.yul\":4167:4173   */\n      dup8\n        /* \"#utility.yul\":4103:4181   */\n      tag_172\n      jump\t// in\n    tag_238:\n        /* \"#utility.yul\":4095:4181   */\n      swap1\n      pop\n        /* \"#utility.yul\":4228:4237   */\n      dup2\n        /* \"#utility.yul\":4222:4226   */\n      dup2\n        /* \"#utility.yul\":4218:4238   */\n      sub\n        /* \"#utility.yul\":4213:4215   */\n      0x60\n        /* \"#utility.yul\":4202:4211   */\n      dup4\n        /* \"#utility.yul\":4198:4216   */\n      add\n        /* \"#utility.yul\":4191:4239   */\n      mstore\n        /* \"#utility.yul\":4256:4334   */\n      tag_239\n        /* \"#utility.yul\":4329:4333   */\n      dup2\n        /* \"#utility.yul\":4320:4326   */\n      dup7\n        /* \"#utility.yul\":4256:4334   */\n      tag_172\n      jump\t// in\n    tag_239:\n        /* \"#utility.yul\":4248:4334   */\n      swap1\n      pop\n        /* \"#utility.yul\":4382:4391   */\n      dup2\n        /* \"#utility.yul\":4376:4380   */\n      dup2\n        /* \"#utility.yul\":4372:4392   */\n      sub\n        /* \"#utility.yul\":4366:4369   */\n      0x80\n        /* \"#utility.yul\":4355:4364   */\n      dup4\n        /* \"#utility.yul\":4351:4370   */\n      add\n        /* \"#utility.yul\":4344:4393   */\n      mstore\n        /* \"#utility.yul\":4410:4488   */\n      tag_240\n        /* \"#utility.yul\":4483:4487   */\n      dup2\n        /* \"#utility.yul\":4474:4480   */\n      dup6\n        /* \"#utility.yul\":4410:4488   */\n      tag_172\n      jump\t// in\n    tag_240:\n        /* \"#utility.yul\":4402:4488   */\n      swap1\n      pop\n        /* \"#utility.yul\":4536:4545   */\n      dup2\n        /* \"#utility.yul\":4530:4534   */\n      dup2\n        /* \"#utility.yul\":4526:4546   */\n      sub\n        /* \"#utility.yul\":4520:4523   */\n      0xa0\n        /* \"#utility.yul\":4509:4518   */\n      dup4\n        /* \"#utility.yul\":4505:4524   */\n      add\n        /* \"#utility.yul\":4498:4547   */\n      mstore\n        /* \"#utility.yul\":4564:4642   */\n      tag_241\n        /* \"#utility.yul\":4637:4641   */\n      dup2\n        /* \"#utility.yul\":4628:4634   */\n      dup5\n        /* \"#utility.yul\":4564:4642   */\n      tag_172\n      jump\t// in\n    tag_241:\n        /* \"#utility.yul\":4556:4642   */\n      swap1\n      pop\n        /* \"#utility.yul\":3419:4649   */\n      swap8\n      swap7\n      pop\n      pop\n      pop\n      pop\n      pop\n      pop\n      pop\n      jump\t// out\n        /* \"#utility.yul\":4655:4772   */\n    tag_174:\n        /* \"#utility.yul\":4764:4765   */\n      0x00\n        /* \"#utility.yul\":4761:4762   */\n      dup1\n        /* \"#utility.yul\":4754:4766   */\n      revert\n        /* \"#utility.yul\":4778:4895   */\n    tag_175:\n        /* \"#utility.yul\":4887:4888   */\n      0x00\n        /* \"#utility.yul\":4884:4885   */\n      dup1\n        /* \"#utility.yul\":4877:4889   */\n      revert\n        /* \"#utility.yul\":4901:5081   */\n    tag_176:\n        /* \"#utility.yul\":4949:5026   */\n      0x4e487b7100000000000000000000000000000000000000000000000000000000\n        /* \"#utility.yul\":4946:4947   */\n      0x00\n        /* \"#utility.yul\":4939:5027   */\n      mstore\n        /* \"#utility.yul\":5046:5050   */\n      0x41\n        /* \"#utility.yul\":5043:5044   */\n      0x04\n        /* \"#utility.yul\":5036:5051   */\n      mstore\n        /* \"#utility.yul\":5070:5074   */\n      0x24\n        /* \"#utility.yul\":5067:5068   */\n      0x00\n        /* \"#utility.yul\":5060:5075   */\n      revert\n        /* \"#utility.yul\":5087:5368   */\n    tag_177:\n        /* \"#utility.yul\":5170:5197   */\n      tag_246\n        /* \"#utility.yul\":5192:5196   */\n      dup3\n        /* \"#utility.yul\":5170:5197   */\n      tag_171\n      jump\t// in\n    tag_246:\n        /* \"#utility.yul\":5162:5168   */\n      dup2\n        /* \"#utility.yul\":5158:5198   */\n      add\n        /* \"#utility.yul\":5300:5306   */\n      dup2\n        /* \"#utility.yul\":5288:5298   */\n      dup2\n        /* \"#utility.yul\":5285:5307   */\n      lt\n        /* \"#utility.yul\":5264:5282   */\n      0xffffffffffffffff\n        /* \"#utility.yul\":5252:5262   */\n      dup3\n        /* \"#utility.yul\":5249:5283   */\n      gt\n        /* \"#utility.yul\":5246:5308   */\n      or\n        /* \"#utility.yul\":5243:5331   */\n      iszero\n      tag_247\n      jumpi\n        /* \"#utility.yul\":5311:5329   */\n      tag_248\n      tag_176\n      jump\t// in\n    tag_248:\n        /* \"#utility.yul\":5243:5331   */\n    tag_247:\n        /* \"#utility.yul\":5351:5361   */\n      dup1\n        /* \"#utility.yul\":5347:5349   */\n      0x40\n        /* \"#utility.yul\":5340:5362   */\n      mstore\n        /* \"#utility.yul\":5130:5368   */\n      pop\n        /* \"#utility.yul\":5087:5368   */\n      pop\n      pop\n      jump\t// out\n        /* \"#utility.yul\":5374:5503   */\n    tag_178:\n        /* \"#utility.yul\":5408:5414   */\n      0x00\n        /* \"#utility.yul\":5435:5455   */\n      tag_250\n      tag_158\n      jump\t// in\n    tag_250:\n        /* \"#utility.yul\":5425:5455   */\n      swap1\n      pop\n        /* \"#utility.yul\":5464:5497   */\n      tag_251\n        /* \"#utility.yul\":5492:5496   */\n      dup3\n        /* \"#utility.yul\":5484:5490   */\n      dup3\n        /* \"#utility.yul\":5464:5497   */\n      tag_177\n      jump\t// in\n    tag_251:\n        /* \"#utility.yul\":5374:5503   */\n      swap2\n      swap1\n      pop\n      jump\t// out\n        /* \"#utility.yul\":5509:5817   */\n    tag_179:\n        /* \"#utility.yul\":5571:5575   */\n      0x00\n        /* \"#utility.yul\":5661:5679   */\n      0xffffffffffffffff\n        /* \"#utility.yul\":5653:5659   */\n      dup3\n        /* \"#utility.yul\":5650:5680   */\n      gt\n        /* \"#utility.yul\":5647:5703   */\n      iszero\n      tag_253\n      jumpi\n        /* \"#utility.yul\":5683:5701   */\n      tag_254\n      tag_176\n      jump\t// in\n    tag_254:\n        /* \"#utility.yul\":5647:5703   */\n    tag_253:\n        /* \"#utility.yul\":5721:5750   */\n      tag_255\n        /* \"#utility.yul\":5743:5749   */\n      dup3\n        /* \"#utility.yul\":5721:5750   */\n      tag_171\n      jump\t// in\n    tag_255:\n        /* \"#utility.yul\":5713:5750   */\n      swap1\n      pop\n        /* \"#utility.yul\":5805:5809   */\n      0x20\n        /* \"#utility.yul\":5799:5803   */\n      dup2\n        /* \"#utility.yul\":5795:5810   */\n      add\n        /* \"#utility.yul\":5787:5810   */\n      swap1\n      pop\n        /* \"#utility.yul\":5509:5817   */\n      swap2\n      swap1\n      pop\n      jump\t// out\n        /* \"#utility.yul\":5823:5977   */\n    tag_180:\n        /* \"#utility.yul\":5907:5913   */\n      dup3\n        /* \"#utility.yul\":5902:5905   */\n      dup2\n        /* \"#utility.yul\":5897:5900   */\n      dup4\n        /* \"#utility.yul\":5884:5914   */\n      calldatacopy\n        /* \"#utility.yul\":5969:5970   */\n      0x00\n        /* \"#utility.yul\":5960:5966   */\n      dup4\n        /* \"#utility.yul\":5955:5958   */\n      dup4\n        /* \"#utility.yul\":5951:5967   */\n      add\n        /* \"#utility.yul\":5944:5971   */\n      mstore\n        /* \"#utility.yul\":5823:5977   */\n      pop\n      pop\n      pop\n      jump\t// out\n        /* \"#utility.yul\":5983:6395   */\n    tag_181:\n        /* \"#utility.yul\":6061:6066   */\n      0x00\n        /* \"#utility.yul\":6086:6152   */\n      tag_258\n        /* \"#utility.yul\":6102:6151   */\n      tag_259\n        /* \"#utility.yul\":6144:6150   */\n      dup5\n        /* \"#utility.yul\":6102:6151   */\n      tag_179\n      jump\t// in\n    tag_259:\n        /* \"#utility.yul\":6086:6152   */\n      tag_178\n      jump\t// in\n    tag_258:\n        /* \"#utility.yul\":6077:6152   */\n      swap1\n      pop\n        /* \"#utility.yul\":6175:6181   */\n      dup3\n        /* \"#utility.yul\":6168:6173   */\n      dup2\n        /* \"#utility.yul\":6161:6182   */\n      mstore\n        /* \"#utility.yul\":6213:6217   */\n      0x20\n        /* \"#utility.yul\":6206:6211   */\n      dup2\n        /* \"#utility.yul\":6202:6218   */\n      add\n        /* \"#utility.yul\":6251:6254   */\n      dup5\n        /* \"#utility.yul\":6242:6248   */\n      dup5\n        /* \"#utility.yul\":6237:6240   */\n      dup5\n        /* \"#utility.yul\":6233:6249   */\n      add\n        /* \"#utility.yul\":6230:6255   */\n      gt\n        /* \"#utility.yul\":6227:6339   */\n      iszero\n      tag_260\n      jumpi\n        /* \"#utility.yul\":6258:6337   */\n      tag_261\n      tag_175\n      jump\t// in\n    tag_261:\n        /* \"#utility.yul\":6227:6339   */\n    tag_260:\n        /* \"#utility.yul\":6348:6389   */\n      tag_262\n        /* \"#utility.yul\":6382:6388   */\n      dup5\n        /* \"#utility.yul\":6377:6380   */\n      dup3\n        /* \"#utility.yul\":6372:6375   */\n      dup6\n        /* \"#utility.yul\":6348:6389   */\n      tag_180\n      jump\t// in\n    tag_262:\n        /* \"#utility.yul\":6067:6395   */\n      pop\n        /* \"#utility.yul\":5983:6395   */\n      swap4\n      swap3\n      pop\n      pop\n      pop\n      jump\t// out\n        /* \"#utility.yul\":6415:6755   */\n    tag_182:\n        /* \"#utility.yul\":6471:6476   */\n      0x00\n        /* \"#utility.yul\":6520:6523   */\n      dup3\n        /* \"#utility.yul\":6513:6517   */\n      0x1f\n        /* \"#utility.yul\":6505:6511   */\n      dup4\n        /* \"#utility.yul\":6501:6518   */\n      add\n        /* \"#utility.yul\":6497:6524   */\n      slt\n        /* \"#utility.yul\":6487:6609   */\n      tag_264\n      jumpi\n        /* \"#utility.yul\":6528:6607   */\n      tag_265\n      tag_174\n      jump\t// in\n    tag_265:\n        /* \"#utility.yul\":6487:6609   */\n    tag_264:\n        /* \"#utility.yul\":6645:6651   */\n      dup2\n        /* \"#utility.yul\":6632:6652   */\n      calldataload\n        /* \"#utility.yul\":6670:6749   */\n      tag_266\n        /* \"#utility.yul\":6745:6748   */\n      dup5\n        /* \"#utility.yul\":6737:6743   */\n      dup3\n        /* \"#utility.yul\":6730:6734   */\n      0x20\n        /* \"#utility.yul\":6722:6728   */\n      dup7\n        /* \"#utility.yul\":6718:6735   */\n      add\n        /* \"#utility.yul\":6670:6749   */\n      tag_181\n      jump\t// in\n    tag_266:\n        /* \"#utility.yul\":6661:6749   */\n      swap2\n      pop\n        /* \"#utility.yul\":6477:6755   */\n      pop\n        /* \"#utility.yul\":6415:6755   */\n      swap3\n      swap2\n      pop\n      pop\n      jump\t// out\n        /* \"#utility.yul\":6761:8718   */\n    tag_34:\n        /* \"#utility.yul\":6915:6921   */\n      0x00\n        /* \"#utility.yul\":6923:6929   */\n      dup1\n        /* \"#utility.yul\":6931:6937   */\n      0x00\n        /* \"#utility.yul\":6939:6945   */\n      dup1\n        /* \"#utility.yul\":6947:6953   */\n      0x00\n        /* \"#utility.yul\":6955:6961   */\n      dup1\n        /* \"#utility.yul\":7004:7007   */\n      0xc0\n        /* \"#utility.yul\":6992:7001   */\n      dup8\n        /* \"#utility.yul\":6983:6990   */\n      dup10\n        /* \"#utility.yul\":6979:7002   */\n      sub\n        /* \"#utility.yul\":6975:7008   */\n      slt\n        /* \"#utility.yul\":6972:7092   */\n      iszero\n      tag_268\n      jumpi\n        /* \"#utility.yul\":7011:7090   */\n      tag_269\n      tag_159\n      jump\t// in\n    tag_269:\n        /* \"#utility.yul\":6972:7092   */\n    tag_268:\n        /* \"#utility.yul\":7159:7160   */\n      0x00\n        /* \"#utility.yul\":7148:7157   */\n      dup8\n        /* \"#utility.yul\":7144:7161   */\n      add\n        /* \"#utility.yul\":7131:7162   */\n      calldataload\n        /* \"#utility.yul\":7189:7207   */\n      0xffffffffffffffff\n        /* \"#utility.yul\":7181:7187   */\n      dup2\n        /* \"#utility.yul\":7178:7208   */\n      gt\n        /* \"#utility.yul\":7175:7292   */\n      iszero\n      tag_270\n      jumpi\n        /* \"#utility.yul\":7211:7290   */\n      tag_271\n      tag_160\n      jump\t// in\n    tag_271:\n        /* \"#utility.yul\":7175:7292   */\n    tag_270:\n        /* \"#utility.yul\":7316:7379   */\n      tag_272\n        /* \"#utility.yul\":7371:7378   */\n      dup10\n        /* \"#utility.yul\":7362:7368   */\n      dup3\n        /* \"#utility.yul\":7351:7360   */\n      dup11\n        /* \"#utility.yul\":7347:7369   */\n      add\n        /* \"#utility.yul\":7316:7379   */\n      tag_182\n      jump\t// in\n    tag_272:\n        /* \"#utility.yul\":7306:7379   */\n      swap7\n      pop\n        /* \"#utility.yul\":7102:7389   */\n      pop\n        /* \"#utility.yul\":7428:7430   */\n      0x20\n        /* \"#utility.yul\":7454:7507   */\n      tag_273\n        /* \"#utility.yul\":7499:7506   */\n      dup10\n        /* \"#utility.yul\":7490:7496   */\n      dup3\n        /* \"#utility.yul\":7479:7488   */\n      dup11\n        /* \"#utility.yul\":7475:7497   */\n      add\n        /* \"#utility.yul\":7454:7507   */\n      tag_167\n      jump\t// in\n    tag_273:\n        /* \"#utility.yul\":7444:7507   */\n      swap6\n      pop\n        /* \"#utility.yul\":7399:7517   */\n      pop\n        /* \"#utility.yul\":7584:7586   */\n      0x40\n        /* \"#utility.yul\":7573:7582   */\n      dup8\n        /* \"#utility.yul\":7569:7587   */\n      add\n        /* \"#utility.yul\":7556:7588   */\n      calldataload\n        /* \"#utility.yul\":7615:7633   */\n      0xffffffffffffffff\n        /* \"#utility.yul\":7607:7613   */\n      dup2\n        /* \"#utility.yul\":7604:7634   */\n      gt\n        /* \"#utility.yul\":7601:7718   */\n      iszero\n      tag_274\n      jumpi\n        /* \"#utility.yul\":7637:7716   */\n      tag_275\n      tag_160\n      jump\t// in\n    tag_275:\n        /* \"#utility.yul\":7601:7718   */\n    tag_274:\n        /* \"#utility.yul\":7742:7805   */\n      tag_276\n        /* \"#utility.yul\":7797:7804   */\n      dup10\n        /* \"#utility.yul\":7788:7794   */\n      dup3\n        /* \"#utility.yul\":7777:7786   */\n      dup11\n        /* \"#utility.yul\":7773:7795   */\n      add\n        /* \"#utility.yul\":7742:7805   */\n      tag_182\n      jump\t// in\n    tag_276:\n        /* \"#utility.yul\":7732:7805   */\n      swap5\n      pop\n        /* \"#utility.yul\":7527:7815   */\n      pop\n        /* \"#utility.yul\":7882:7884   */\n      0x60\n        /* \"#utility.yul\":7871:7880   */\n      dup8\n        /* \"#utility.yul\":7867:7885   */\n      add\n        /* \"#utility.yul\":7854:7886   */\n      calldataload\n        /* \"#utility.yul\":7913:7931   */\n      0xffffffffffffffff\n        /* \"#utility.yul\":7905:7911   */\n      dup2\n        /* \"#utility.yul\":7902:7932   */\n      gt\n        /* \"#utility.yul\":7899:8016   */\n      iszero\n      tag_277\n      jumpi\n        /* \"#utility.yul\":7935:8014   */\n      tag_278\n      tag_160\n      jump\t// in\n    tag_278:\n        /* \"#utility.yul\":7899:8016   */\n    tag_277:\n        /* \"#utility.yul\":8040:8103   */\n      tag_279\n        /* \"#utility.yul\":8095:8102   */\n      dup10\n        /* \"#utility.yul\":8086:8092   */\n      dup3\n        /* \"#utility.yul\":8075:8084   */\n      dup11\n        /* \"#utility.yul\":8071:8093   */\n      add\n        /* \"#utility.yul\":8040:8103   */\n      tag_182\n      jump\t// in\n    tag_279:\n        /* \"#utility.yul\":8030:8103   */\n      swap4\n      pop\n        /* \"#utility.yul\":7825:8113   */\n      pop\n        /* \"#utility.yul\":8180:8183   */\n      0x80\n        /* \"#utility.yul\":8169:8178   */\n      dup8\n        /* \"#utility.yul\":8165:8184   */\n      add\n        /* \"#utility.yul\":8152:8185   */\n      calldataload\n        /* \"#utility.yul\":8212:8230   */\n      0xffffffffffffffff\n        /* \"#utility.yul\":8204:8210   */\n      dup2\n        /* \"#utility.yul\":8201:8231   */\n      gt\n        /* \"#utility.yul\":8198:8315   */\n      iszero\n      tag_280\n      jumpi\n        /* \"#utility.yul\":8234:8313   */\n      tag_281\n      tag_160\n      jump\t// in\n    tag_281:\n        /* \"#utility.yul\":8198:8315   */\n    tag_280:\n        /* \"#utility.yul\":8339:8402   */\n      tag_282\n        /* \"#utility.yul\":8394:8401   */\n      dup10\n        /* \"#utility.yul\":8385:8391   */\n      dup3\n        /* \"#utility.yul\":8374:8383   */\n      dup11\n        /* \"#utility.yul\":8370:8392   */\n      add\n        /* \"#utility.yul\":8339:8402   */\n      tag_182\n      jump\t// in\n    tag_282:\n        /* \"#utility.yul\":8329:8402   */\n      swap3\n      pop\n        /* \"#utility.yul\":8123:8412   */\n      pop\n        /* \"#utility.yul\":8479:8482   */\n      0xa0\n        /* \"#utility.yul\":8468:8477   */\n      dup8\n        /* \"#utility.yul\":8464:8483   */\n      add\n        /* \"#utility.yul\":8451:8484   */\n      calldataload\n        /* \"#utility.yul\":8511:8529   */\n      0xffffffffffffffff\n        /* \"#utility.yul\":8503:8509   */\n      dup2\n        /* \"#utility.yul\":8500:8530   */\n      gt\n        /* \"#utility.yul\":8497:8614   */\n      iszero\n      tag_283\n      jumpi\n        /* \"#utility.yul\":8533:8612   */\n      tag_284\n      tag_160\n      jump\t// in\n    tag_284:\n        /* \"#utility.yul\":8497:8614   */\n    tag_283:\n        /* \"#utility.yul\":8638:8701   */\n      tag_285\n        /* \"#utility.yul\":8693:8700   */\n      dup10\n        /* \"#utility.yul\":8684:8690   */\n      dup3\n        /* \"#utility.yul\":8673:8682   */\n      dup11\n        /* \"#utility.yul\":8669:8691   */\n      add\n        /* \"#utility.yul\":8638:8701   */\n      tag_182\n      jump\t// in\n    tag_285:\n        /* \"#utility.yul\":8628:8701   */\n      swap2\n      pop\n        /* \"#utility.yul\":8422:8711   */\n      pop\n        /* \"#utility.yul\":6761:8718   */\n      swap3\n      swap6\n      pop\n      swap3\n      swap6\n      pop\n      swap3\n      swap6\n      jump\t// out\n        /* \"#utility.yul\":8724:9198   */\n    tag_38:\n        /* \"#utility.yul\":8792:8798   */\n      0x00\n        /* \"#utility.yul\":8800:8806   */\n      dup1\n        /* \"#utility.yul\":8849:8851   */\n      0x40\n        /* \"#utility.yul\":8837:8846   */\n      dup4\n        /* \"#utility.yul\":8828:8835   */\n      dup6\n        /* \"#utility.yul\":8824:8847   */\n      sub\n        /* \"#utility.yul\":8820:8852   */\n      slt\n        /* \"#utility.yul\":8817:8936   */\n      iszero\n      tag_287\n      jumpi\n        /* \"#utility.yul\":8855:8934   */\n      tag_288\n      tag_159\n      jump\t// in\n    tag_288:\n        /* \"#utility.yul\":8817:8936   */\n    tag_287:\n        /* \"#utility.yul\":8975:8976   */\n      0x00\n        /* \"#utility.yul\":9000:9053   */\n      tag_289\n        /* \"#utility.yul\":9045:9052   */\n      dup6\n        /* \"#utility.yul\":9036:9042   */\n      dup3\n        /* \"#utility.yul\":9025:9034   */\n      dup7\n        /* \"#utility.yul\":9021:9043   */\n      add\n        /* \"#utility.yul\":9000:9053   */\n      tag_167\n      jump\t// in\n    tag_289:\n        /* \"#utility.yul\":8990:9053   */\n      swap3\n      pop\n        /* \"#utility.yul\":8946:9063   */\n      pop\n        /* \"#utility.yul\":9102:9104   */\n      0x20\n        /* \"#utility.yul\":9128:9181   */\n      tag_290\n        /* \"#utility.yul\":9173:9180   */\n      dup6\n        /* \"#utility.yul\":9164:9170   */\n      dup3\n        /* \"#utility.yul\":9153:9162   */\n      dup7\n        /* \"#utility.yul\":9149:9171   */\n      add\n        /* \"#utility.yul\":9128:9181   */\n      tag_164\n      jump\t// in\n    tag_290:\n        /* \"#utility.yul\":9118:9181   */\n      swap2\n      pop\n        /* \"#utility.yul\":9073:9191   */\n      pop\n        /* \"#utility.yul\":8724:9198   */\n      swap3\n      pop\n      swap3\n      swap1\n      pop\n      jump\t// out\n        /* \"#utility.yul\":9204:10003   */\n    tag_42:\n        /* \"#utility.yul\":9291:9297   */\n      0x00\n        /* \"#utility.yul\":9299:9305   */\n      dup1\n        /* \"#utility.yul\":9307:9313   */\n      0x00\n        /* \"#utility.yul\":9356:9358   */\n      0x60\n        /* \"#utility.yul\":9344:9353   */\n      dup5\n        /* \"#utility.yul\":9335:9342   */\n      dup7\n        /* \"#utility.yul\":9331:9354   */\n      sub\n        /* \"#utility.yul\":9327:9359   */\n      slt\n        /* \"#utility.yul\":9324:9443   */\n      iszero\n      tag_292\n      jumpi\n        /* \"#utility.yul\":9362:9441   */\n      tag_293\n      tag_159\n      jump\t// in\n    tag_293:\n        /* \"#utility.yul\":9324:9443   */\n    tag_292:\n        /* \"#utility.yul\":9510:9511   */\n      0x00\n        /* \"#utility.yul\":9499:9508   */\n      dup5\n        /* \"#utility.yul\":9495:9512   */\n      add\n        /* \"#utility.yul\":9482:9513   */\n      calldataload\n        /* \"#utility.yul\":9540:9558   */\n      0xffffffffffffffff\n        /* \"#utility.yul\":9532:9538   */\n      dup2\n        /* \"#utility.yul\":9529:9559   */\n      gt\n        /* \"#utility.yul\":9526:9643   */\n      iszero\n      tag_294\n      jumpi\n        /* \"#utility.yul\":9562:9641   */\n      tag_295\n      tag_160\n      jump\t// in\n    tag_295:\n        /* \"#utility.yul\":9526:9643   */\n    tag_294:\n        /* \"#utility.yul\":9667:9730   */\n      tag_296\n        /* \"#utility.yul\":9722:9729   */\n      dup7\n        /* \"#utility.yul\":9713:9719   */\n      dup3\n        /* \"#utility.yul\":9702:9711   */\n      dup8\n        /* \"#utility.yul\":9698:9720   */\n      add\n        /* \"#utility.yul\":9667:9730   */\n      tag_182\n      jump\t// in\n    tag_296:\n        /* \"#utility.yul\":9657:9730   */\n      swap4\n      pop\n        /* \"#utility.yul\":9453:9740   */\n      pop\n        /* \"#utility.yul\":9779:9781   */\n      0x20\n        /* \"#utility.yul\":9805:9858   */\n      tag_297\n        /* \"#utility.yul\":9850:9857   */\n      dup7\n        /* \"#utility.yul\":9841:9847   */\n      dup3\n        /* \"#utility.yul\":9830:9839   */\n      dup8\n        /* \"#utility.yul\":9826:9848   */\n      add\n        /* \"#utility.yul\":9805:9858   */\n      tag_164\n      jump\t// in\n    tag_297:\n        /* \"#utility.yul\":9795:9858   */\n      swap3\n      pop\n        /* \"#utility.yul\":9750:9868   */\n      pop\n        /* \"#utility.yul\":9907:9909   */\n      0x40\n        /* \"#utility.yul\":9933:9986   */\n      tag_298\n        /* \"#utility.yul\":9978:9985   */\n      dup7\n        /* \"#utility.yul\":9969:9975   */\n      dup3\n        /* \"#utility.yul\":9958:9967   */\n      dup8\n        /* \"#utility.yul\":9954:9976   */\n      add\n        /* \"#utility.yul\":9933:9986   */\n      tag_167\n      jump\t// in\n    tag_298:\n        /* \"#utility.yul\":9923:9986   */\n      swap2\n      pop\n        /* \"#utility.yul\":9878:9996   */\n      pop\n        /* \"#utility.yul\":9204:10003   */\n      swap3\n      pop\n      swap3\n      pop\n      swap3\n      jump\t// out\n        /* \"#utility.yul\":10009:10127   */\n    tag_183:\n        /* \"#utility.yul\":10096:10120   */\n      tag_300\n        /* \"#utility.yul\":10114:10119   */\n      dup2\n        /* \"#utility.yul\":10096:10120   */\n      tag_162\n      jump\t// in\n    tag_300:\n        /* \"#utility.yul\":10091:10094   */\n      dup3\n        /* \"#utility.yul\":10084:10121   */\n      mstore\n        /* \"#utility.yul\":10009:10127   */\n      pop\n      pop\n      jump\t// out\n        /* \"#utility.yul\":10133:10355   */\n    tag_47:\n        /* \"#utility.yul\":10226:10230   */\n      0x00\n        /* \"#utility.yul\":10264:10266   */\n      0x20\n        /* \"#utility.yul\":10253:10262   */\n      dup3\n        /* \"#utility.yul\":10249:10267   */\n      add\n        /* \"#utility.yul\":10241:10267   */\n      swap1\n      pop\n        /* \"#utility.yul\":10277:10348   */\n      tag_302\n        /* \"#utility.yul\":10345:10346   */\n      0x00\n        /* \"#utility.yul\":10334:10343   */\n      dup4\n        /* \"#utility.yul\":10330:10347   */\n      add\n        /* \"#utility.yul\":10321:10327   */\n      dup5\n        /* \"#utility.yul\":10277:10348   */\n      tag_183\n      jump\t// in\n    tag_302:\n        /* \"#utility.yul\":10133:10355   */\n      swap3\n      swap2\n      pop\n      pop\n      jump\t// out\n        /* \"#utility.yul\":10361:10690   */\n    tag_56:\n        /* \"#utility.yul\":10420:10426   */\n      0x00\n        /* \"#utility.yul\":10469:10471   */\n      0x20\n        /* \"#utility.yul\":10457:10466   */\n      dup3\n        /* \"#utility.yul\":10448:10455   */\n      dup5\n        /* \"#utility.yul\":10444:10467   */\n      sub\n        /* \"#utility.yul\":10440:10472   */\n      slt\n        /* \"#utility.yul\":10437:10556   */\n      iszero\n      tag_304\n      jumpi\n        /* \"#utility.yul\":10475:10554   */\n      tag_305\n      tag_159\n      jump\t// in\n    tag_305:\n        /* \"#utility.yul\":10437:10556   */\n    tag_304:\n        /* \"#utility.yul\":10595:10596   */\n      0x00\n        /* \"#utility.yul\":10620:10673   */\n      tag_306\n        /* \"#utility.yul\":10665:10672   */\n      dup5\n        /* \"#utility.yul\":10656:10662   */\n      dup3\n        /* \"#utility.yul\":10645:10654   */\n      dup6\n        /* \"#utility.yul\":10641:10663   */\n      add\n        /* \"#utility.yul\":10620:10673   */\n      tag_167\n      jump\t// in\n    tag_306:\n        /* \"#utility.yul\":10610:10673   */\n      swap2\n      pop\n        /* \"#utility.yul\":10566:10683   */\n      pop\n        /* \"#utility.yul\":10361:10690   */\n      swap3\n      swap2\n      pop\n      pop\n      jump\t// out\n        /* \"#utility.yul\":10696:11025   */\n    tag_64:\n        /* \"#utility.yul\":10755:10761   */\n      0x00\n        /* \"#utility.yul\":10804:10806   */\n      0x20\n        /* \"#utility.yul\":10792:10801   */\n      dup3\n        /* \"#utility.yul\":10783:10790   */\n      dup5\n        /* \"#utility.yul\":10779:10802   */\n      sub\n        /* \"#utility.yul\":10775:10807   */\n      slt\n        /* \"#utility.yul\":10772:10891   */\n      iszero\n      tag_308\n      jumpi\n        /* \"#utility.yul\":10810:10889   */\n      tag_309\n      tag_159\n      jump\t// in\n    tag_309:\n        /* \"#utility.yul\":10772:10891   */\n    tag_308:\n        /* \"#utility.yul\":10930:10931   */\n      0x00\n        /* \"#utility.yul\":10955:11008   */\n      tag_310\n        /* \"#utility.yul\":11000:11007   */\n      dup5\n        /* \"#utility.yul\":10991:10997   */\n      dup3\n        /* \"#utility.yul\":10980:10989   */\n      dup6\n        /* \"#utility.yul\":10976:10998   */\n      add\n        /* \"#utility.yul\":10955:11008   */\n      tag_164\n      jump\t// in\n    tag_310:\n        /* \"#utility.yul\":10945:11008   */\n      swap2\n      pop\n        /* \"#utility.yul\":10901:11018   */\n      pop\n        /* \"#utility.yul\":10696:11025   */\n      swap3\n      swap2\n      pop\n      pop\n      jump\t// out\n        /* \"#utility.yul\":11031:11145   */\n    tag_184:\n        /* \"#utility.yul\":11098:11104   */\n      0x00\n        /* \"#utility.yul\":11132:11137   */\n      dup2\n        /* \"#utility.yul\":11126:11138   */\n      mload\n        /* \"#utility.yul\":11116:11138   */\n      swap1\n      pop\n        /* \"#utility.yul\":11031:11145   */\n      swap2\n      swap1\n      pop\n      jump\t// out\n        /* \"#utility.yul\":11151:11335   */\n    tag_185:\n        /* \"#utility.yul\":11250:11261   */\n      0x00\n        /* \"#utility.yul\":11284:11290   */\n      dup3\n        /* \"#utility.yul\":11279:11282   */\n      dup3\n        /* \"#utility.yul\":11272:11291   */\n      mstore\n        /* \"#utility.yul\":11324:11328   */\n      0x20\n        /* \"#utility.yul\":11319:11322   */\n      dup3\n        /* \"#utility.yul\":11315:11329   */\n      add\n        /* \"#utility.yul\":11300:11329   */\n      swap1\n      pop\n        /* \"#utility.yul\":11151:11335   */\n      swap3\n      swap2\n      pop\n      pop\n      jump\t// out\n        /* \"#utility.yul\":11341:11473   */\n    tag_186:\n        /* \"#utility.yul\":11408:11412   */\n      0x00\n        /* \"#utility.yul\":11431:11434   */\n      dup2\n        /* \"#utility.yul\":11423:11434   */\n      swap1\n      pop\n        /* \"#utility.yul\":11461:11465   */\n      0x20\n        /* \"#utility.yul\":11456:11459   */\n      dup3\n        /* \"#utility.yul\":11452:11466   */\n      add\n        /* \"#utility.yul\":11444:11466   */\n      swap1\n      pop\n        /* \"#utility.yul\":11341:11473   */\n      swap2\n      swap1\n      pop\n      jump\t// out\n        /* \"#utility.yul\":11479:11587   */\n    tag_187:\n        /* \"#utility.yul\":11556:11580   */\n      tag_315\n        /* \"#utility.yul\":11574:11579   */\n      dup2\n        /* \"#utility.yul\":11556:11580   */\n      tag_165\n      jump\t// in\n    tag_315:\n        /* \"#utility.yul\":11551:11554   */\n      dup3\n        /* \"#utility.yul\":11544:11581   */\n      mstore\n        /* \"#utility.yul\":11479:11587   */\n      pop\n      pop\n      jump\t// out\n        /* \"#utility.yul\":11593:11772   */\n    tag_188:\n        /* \"#utility.yul\":11662:11672   */\n      0x00\n        /* \"#utility.yul\":11683:11729   */\n      tag_317\n        /* \"#utility.yul\":11725:11728   */\n      dup4\n        /* \"#utility.yul\":11717:11723   */\n      dup4\n        /* \"#utility.yul\":11683:11729   */\n      tag_187\n      jump\t// in\n    tag_317:\n        /* \"#utility.yul\":11761:11765   */\n      0x20\n        /* \"#utility.yul\":11756:11759   */\n      dup4\n        /* \"#utility.yul\":11752:11766   */\n      add\n        /* \"#utility.yul\":11738:11766   */\n      swap1\n      pop\n        /* \"#utility.yul\":11593:11772   */\n      swap3\n      swap2\n      pop\n      pop\n      jump\t// out\n        /* \"#utility.yul\":11778:11891   */\n    tag_189:\n        /* \"#utility.yul\":11848:11852   */\n      0x00\n        /* \"#utility.yul\":11880:11884   */\n      0x20\n        /* \"#utility.yul\":11875:11878   */\n      dup3\n        /* \"#utility.yul\":11871:11885   */\n      add\n        /* \"#utility.yul\":11863:11885   */\n      swap1\n      pop\n        /* \"#utility.yul\":11778:11891   */\n      swap2\n      swap1\n      pop\n      jump\t// out\n        /* \"#utility.yul\":11927:12659   */\n    tag_190:\n        /* \"#utility.yul\":12046:12049   */\n      0x00\n        /* \"#utility.yul\":12075:12129   */\n      tag_320\n        /* \"#utility.yul\":12123:12128   */\n      dup3\n        /* \"#utility.yul\":12075:12129   */\n      tag_184\n      jump\t// in\n    tag_320:\n        /* \"#utility.yul\":12145:12231   */\n      tag_321\n        /* \"#utility.yul\":12224:12230   */\n      dup2\n        /* \"#utility.yul\":12219:12222   */\n      dup6\n        /* \"#utility.yul\":12145:12231   */\n      tag_185\n      jump\t// in\n    tag_321:\n        /* \"#utility.yul\":12138:12231   */\n      swap4\n      pop\n        /* \"#utility.yul\":12255:12311   */\n      tag_322\n        /* \"#utility.yul\":12305:12310   */\n      dup4\n        /* \"#utility.yul\":12255:12311   */\n      tag_186\n      jump\t// in\n    tag_322:\n        /* \"#utility.yul\":12334:12341   */\n      dup1\n        /* \"#utility.yul\":12365:12366   */\n      0x00\n        /* \"#utility.yul\":12350:12634   */\n    tag_323:\n        /* \"#utility.yul\":12375:12381   */\n      dup4\n        /* \"#utility.yul\":12372:12373   */\n      dup2\n        /* \"#utility.yul\":12369:12382   */\n      lt\n        /* \"#utility.yul\":12350:12634   */\n      iszero\n      tag_325\n      jumpi\n        /* \"#utility.yul\":12451:12457   */\n      dup2\n        /* \"#utility.yul\":12445:12458   */\n      mload\n        /* \"#utility.yul\":12478:12541   */\n      tag_326\n        /* \"#utility.yul\":12537:12540   */\n      dup9\n        /* \"#utility.yul\":12522:12535   */\n      dup3\n        /* \"#utility.yul\":12478:12541   */\n      tag_188\n      jump\t// in\n    tag_326:\n        /* \"#utility.yul\":12471:12541   */\n      swap8\n      pop\n        /* \"#utility.yul\":12564:12624   */\n      tag_327\n        /* \"#utility.yul\":12617:12623   */\n      dup4\n        /* \"#utility.yul\":12564:12624   */\n      tag_189\n      jump\t// in\n    tag_327:\n        /* \"#utility.yul\":12554:12624   */\n      swap3\n      pop\n        /* \"#utility.yul\":12410:12634   */\n      pop\n        /* \"#utility.yul\":12397:12398   */\n      0x01\n        /* \"#utility.yul\":12394:12395   */\n      dup2\n        /* \"#utility.yul\":12390:12399   */\n      add\n        /* \"#utility.yul\":12385:12399   */\n      swap1\n      pop\n        /* \"#utility.yul\":12350:12634   */\n      jump(tag_323)\n    tag_325:\n        /* \"#utility.yul\":12354:12368   */\n      pop\n        /* \"#utility.yul\":12650:12653   */\n      dup6\n        /* \"#utility.yul\":12643:12653   */\n      swap4\n      pop\n        /* \"#utility.yul\":12051:12659   */\n      pop\n      pop\n      pop\n        /* \"#utility.yul\":11927:12659   */\n      swap3\n      swap2\n      pop\n      pop\n      jump\t// out\n        /* \"#utility.yul\":12665:13038   */\n    tag_67:\n        /* \"#utility.yul\":12808:12812   */\n      0x00\n        /* \"#utility.yul\":12846:12848   */\n      0x20\n        /* \"#utility.yul\":12835:12844   */\n      dup3\n        /* \"#utility.yul\":12831:12849   */\n      add\n        /* \"#utility.yul\":12823:12849   */\n      swap1\n      pop\n        /* \"#utility.yul\":12895:12904   */\n      dup2\n        /* \"#utility.yul\":12889:12893   */\n      dup2\n        /* \"#utility.yul\":12885:12905   */\n      sub\n        /* \"#utility.yul\":12881:12882   */\n      0x00\n        /* \"#utility.yul\":12870:12879   */\n      dup4\n        /* \"#utility.yul\":12866:12883   */\n      add\n        /* \"#utility.yul\":12859:12906   */\n      mstore\n        /* \"#utility.yul\":12923:13031   */\n      tag_329\n        /* \"#utility.yul\":13026:13030   */\n      dup2\n        /* \"#utility.yul\":13017:13023   */\n      dup5\n        /* \"#utility.yul\":12923:13031   */\n      tag_190\n      jump\t// in\n    tag_329:\n        /* \"#utility.yul\":12915:13031   */\n      swap1\n      pop\n        /* \"#utility.yul\":12665:13038   */\n      swap3\n      swap2\n      pop\n      pop\n      jump\t// out\n        /* \"#utility.yul\":13044:13224   */\n    tag_191:\n        /* \"#utility.yul\":13092:13169   */\n      0x4e487b7100000000000000000000000000000000000000000000000000000000\n        /* \"#utility.yul\":13089:13090   */\n      0x00\n        /* \"#utility.yul\":13082:13170   */\n      mstore\n        /* \"#utility.yul\":13189:13193   */\n      0x22\n        /* \"#utility.yul\":13186:13187   */\n      0x04\n        /* \"#utility.yul\":13179:13194   */\n      mstore\n        /* \"#utility.yul\":13213:13217   */\n      0x24\n        /* \"#utility.yul\":13210:13211   */\n      0x00\n        /* \"#utility.yul\":13203:13218   */\n      revert\n        /* \"#utility.yul\":13230:13550   */\n    tag_73:\n        /* \"#utility.yul\":13274:13280   */\n      0x00\n        /* \"#utility.yul\":13311:13312   */\n      0x02\n        /* \"#utility.yul\":13305:13309   */\n      dup3\n        /* \"#utility.yul\":13301:13313   */\n      div\n        /* \"#utility.yul\":13291:13313   */\n      swap1\n      pop\n        /* \"#utility.yul\":13358:13359   */\n      0x01\n        /* \"#utility.yul\":13352:13356   */\n      dup3\n        /* \"#utility.yul\":13348:13360   */\n      and\n        /* \"#utility.yul\":13379:13397   */\n      dup1\n        /* \"#utility.yul\":13369:13450   */\n      tag_332\n      jumpi\n        /* \"#utility.yul\":13435:13439   */\n      0x7f\n        /* \"#utility.yul\":13427:13433   */\n      dup3\n        /* \"#utility.yul\":13423:13440   */\n      and\n        /* \"#utility.yul\":13413:13440   */\n      swap2\n      pop\n        /* \"#utility.yul\":13369:13450   */\n    tag_332:\n        /* \"#utility.yul\":13497:13499   */\n      0x20\n        /* \"#utility.yul\":13489:13495   */\n      dup3\n        /* \"#utility.yul\":13486:13500   */\n      lt\n        /* \"#utility.yul\":13466:13484   */\n      dup2\n        /* \"#utility.yul\":13463:13501   */\n      eq\n        /* \"#utility.yul\":13460:13544   */\n      iszero\n      tag_333\n      jumpi\n        /* \"#utility.yul\":13516:13534   */\n      tag_334\n      tag_191\n      jump\t// in\n    tag_334:\n        /* \"#utility.yul\":13460:13544   */\n    tag_333:\n        /* \"#utility.yul\":13281:13550   */\n      pop\n        /* \"#utility.yul\":13230:13550   */\n      swap2\n      swap1\n      pop\n      jump\t// out\n        /* \"#utility.yul\":13556:13736   */\n    tag_192:\n        /* \"#utility.yul\":13604:13681   */\n      0x4e487b7100000000000000000000000000000000000000000000000000000000\n        /* \"#utility.yul\":13601:13602   */\n      0x00\n        /* \"#utility.yul\":13594:13682   */\n      mstore\n        /* \"#utility.yul\":13701:13705   */\n      0x11\n        /* \"#utility.yul\":13698:13699   */\n      0x04\n        /* \"#utility.yul\":13691:13706   */\n      mstore\n        /* \"#utility.yul\":13725:13729   */\n      0x24\n        /* \"#utility.yul\":13722:13723   */\n      0x00\n        /* \"#utility.yul\":13715:13730   */\n      revert\n        /* \"#utility.yul\":13742:14047   */\n    tag_114:\n        /* \"#utility.yul\":13782:13785   */\n      0x00\n        /* \"#utility.yul\":13801:13821   */\n      tag_337\n        /* \"#utility.yul\":13819:13820   */\n      dup3\n        /* \"#utility.yul\":13801:13821   */\n      tag_165\n      jump\t// in\n    tag_337:\n        /* \"#utility.yul\":13796:13821   */\n      swap2\n      pop\n        /* \"#utility.yul\":13835:13855   */\n      tag_338\n        /* \"#utility.yul\":13853:13854   */\n      dup4\n        /* \"#utility.yul\":13835:13855   */\n      tag_165\n      jump\t// in\n    tag_338:\n        /* \"#utility.yul\":13830:13855   */\n      swap3\n      pop\n        /* \"#utility.yul\":13989:13990   */\n      dup3\n        /* \"#utility.yul\":13921:13987   */\n      0xffffffffffffffffffffffffffffffffffffffffffffffffffffffffffffffff\n        /* \"#utility.yul\":13917:13991   */\n      sub\n        /* \"#utility.yul\":13914:13915   */\n      dup3\n        /* \"#utility.yul\":13911:13992   */\n      gt\n        /* \"#utility.yul\":13908:14015   */\n      iszero\n      tag_339\n      jumpi\n        /* \"#utility.yul\":13995:14013   */\n      tag_340\n      tag_192\n      jump\t// in\n    tag_340:\n        /* \"#utility.yul\":13908:14015   */\n    tag_339:\n        /* \"#utility.yul\":14039:14040   */\n      dup3\n        /* \"#utility.yul\":14036:14037   */\n      dup3\n        /* \"#utility.yul\":14032:14041   */\n      add\n        /* \"#utility.yul\":14025:14041   */\n      swap1\n      pop\n        /* \"#utility.yul\":13742:14047   */\n      swap3\n      swap2\n      pop\n      pop\n      jump\t// out\n\n    auxdata: 0xa2646970667358221220baaa9786085987efa6ba3e33bdb371fa782ec4f63d2e5c7504932ba0f9a9542b64736f6c63430008090033\n}\n","bytecode":{"linkReferences":{},"object":"60806040523480156200001157600080fd5b5060405162001bb138038062001bb1833981810160405281019062000037919062000490565b866000806101000a81548173ffffffffffffffffffffffffffffffffffffffff021916908373ffffffffffffffffffffffffffffffffffffffff16021790555060006040518060c001604052808881526020018781526020018681526020018581526020018481526020018381525090508060036000820151816000019080519060200190620000c9929190620001a3565b50602082015181600101556040820151816002019080519060200190620000f2929190620001a3565b50606082015181600301908051906020019062000111929190620001a3565b50608082015181600401908051906020019062000130929190620001a3565b5060a08201518160050190805190602001906200014f929190620001a3565b5090505088600160006101000a81548173ffffffffffffffffffffffffffffffffffffffff021916908373ffffffffffffffffffffffffffffffffffffffff16021790555050505050505050505062000659565b828054620001b19062000623565b90600052602060002090601f016020900481019282620001d5576000855562000221565b82601f10620001f057805160ff191683800117855562000221565b8280016001018555821562000221579182015b828111156200022057825182559160200191906001019062000203565b5b50905062000230919062000234565b5090565b5b808211156200024f57600081600090555060010162000235565b5090565b6000604051905090565b600080fd5b600080fd5b600073ffffffffffffffffffffffffffffffffffffffff82169050919050565b6000620002948262000267565b9050919050565b620002a68162000287565b8114620002b257600080fd5b50565b600081519050620002c6816200029b565b92915050565b600080fd5b600080fd5b6000601f19601f8301169050919050565b7f4e487b7100000000000000000000000000000000000000000000000000000000600052604160045260246000fd5b6200032182620002d6565b810181811067ffffffffffffffff82111715620003435762000342620002e7565b5b80604052505050565b60006200035862000253565b905062000366828262000316565b919050565b600067ffffffffffffffff821115620003895762000388620002e7565b5b6200039482620002d6565b9050602081019050919050565b60005b83811015620003c1578082015181840152602081019050620003a4565b83811115620003d1576000848401525b50505050565b6000620003ee620003e8846200036b565b6200034c565b9050828152602081018484840111156200040d576200040c620002d1565b5b6200041a848285620003a1565b509392505050565b600082601f8301126200043a5762000439620002cc565b5b81516200044c848260208601620003d7565b91505092915050565b6000819050919050565b6200046a8162000455565b81146200047657600080fd5b50565b6000815190506200048a816200045f565b92915050565b600080600080600080600080610100898b031215620004b457620004b36200025d565b5b6000620004c48b828c01620002b5565b9850506020620004d78b828c01620002b5565b975050604089015167ffffffffffffffff811115620004fb57620004fa62000262565b5b620005098b828c0162000422565b96505060606200051c8b828c0162000479565b955050608089015167ffffffffffffffff81111562000540576200053f62000262565b5b6200054e8b828c0162000422565b94505060a089015167ffffffffffffffff81111562000572576200057162000262565b5b620005808b828c0162000422565b93505060c089015167ffffffffffffffff811115620005a457620005a362000262565b5b620005b28b828c0162000422565b92505060e089015167ffffffffffffffff811115620005d657620005d562000262565b5b620005e48b828c0162000422565b9150509295985092959890939650565b7f4e487b7100000000000000000000000000000000000000000000000000000000600052602260045260246000fd5b600060028204905060018216806200063c57607f821691505b60208210811415620006535762000652620005f4565b5b50919050565b61154880620006696000396000f3fe608060405234801561001057600080fd5b50600436106100cf5760003560e01c8063851a94c91161008c578063b7d4477c11610066578063b7d4477c146101f8578063c83dd23114610228578063e65a069114610246578063fb98660614610276576100cf565b8063851a94c914610199578063a0303c41146101b7578063aee554ff146101d5576100cf565b80630c4174b7146100d4578063185c6f841461010457806321ffccf1146101225780632be8454a14610145578063376f4e49146101615780634e1cc3511461017d575b600080fd5b6100ee60048036038101906100e99190610e22565b6102a6565b6040516100fb9190610efb565b60405180910390f35b61010c610353565b6040516101199190610f2c565b60405180910390f35b61012a610359565b60405161013c96959493929190610f47565b60405180910390f35b61015f600480360381019061015a9190611100565b610651565b005b61017b60048036038101906101769190611219565b61072c565b005b61019760048036038101906101929190611259565b610850565b005b6101a16108ba565b6040516101ae91906112d7565b60405180910390f35b6101bf6108de565b6040516101cc9190610f2c565b60405180910390f35b6101dd6108e4565b6040516101ef96959493929190610f47565b60405180910390f35b610212600480360381019061020d91906112f2565b610bb6565b60405161021f91906112d7565b60405180910390f35b610230610be9565b60405161023d91906112d7565b60405180910390f35b610260600480360381019061025b919061131f565b610c0f565b60405161026d919061140a565b60405180910390f35b610290600480360381019061028b9190610e22565b610ca6565b60405161029d9190610f2c565b60405180910390f35b600c6020528160005260406000206020528060005260406000206000915091505080546102d29061145b565b80601f01602080910402602001604051908101604052809291908181526020018280546102fe9061145b565b801561034b5780601f106103205761010080835404028352916020019161034b565b820191906000526020600020905b81548152906001019060200180831161032e57829003601f168201915b505050505081565b60025481565b6060600060608060608060036000016003600101546003600201600380016003600401600360050185805461038d9061145b565b80601f01602080910402602001604051908101604052809291908181526020018280546103b99061145b565b80156104065780601f106103db57610100808354040283529160200191610406565b820191906000526020600020905b8154815290600101906020018083116103e957829003601f168201915b505050505095508380546104199061145b565b80601f01602080910402602001604051908101604052809291908181526020018280546104459061145b565b80156104925780601f1061046757610100808354040283529160200191610492565b820191906000526020600020905b81548152906001019060200180831161047557829003601f168201915b505050505093508280546104a59061145b565b80601f01602080910402602001604051908101604052809291908181526020018280546104d19061145b565b801561051e5780601f106104f35761010080835404028352916020019161051e565b820191906000526020600020905b81548152906001019060200180831161050157829003601f168201915b505050505092508180546105319061145b565b80601f016020809104026020016040519081016040528092919081815260200182805461055d9061145b565b80156105aa5780601f1061057f576101008083540402835291602001916105aa565b820191906000526020600020905b81548152906001019060200180831161058d57829003601f168201915b505050505091508080546105bd9061145b565b80601f01602080910402602001604051908101604052809291908181526020018280546105e99061145b565b80156106365780601f1061060b57610100808354040283529160200191610636565b820191906000526020600020905b81548152906001019060200180831161061957829003601f168201915b50505050509050955095509550955095509550909192939495565b60006040518060c0016040528088815260200187815260200186815260200185815260200184815260200183815250905080600360008201518160000190805190602001906106a1929190610cd7565b506020820151816001015560408201518160020190805190602001906106c8929190610cd7565b5060608201518160030190805190602001906106e5929190610cd7565b506080820151816004019080519060200190610702929190610cd7565b5060a082015181600501908051906020019061071f929190610cd7565b5090505050505050505050565b6000600960008373ffffffffffffffffffffffffffffffffffffffff1673ffffffffffffffffffffffffffffffffffffffff1681526020019081526020016000208054905014156107e65780600a6000600b54815260200190815260200160002060006101000a81548173ffffffffffffffffffffffffffffffffffffffff021916908373ffffffffffffffffffffffffffffffffffffffff1602179055506001600b60008282546107de91906114bc565b925050819055505b600960008273ffffffffffffffffffffffffffffffffffffffff1673ffffffffffffffffffffffffffffffffffffffff1681526020019081526020016000208290806001815401808255809150506001900390600052602060002001600090919091909150555050565b82600c60008473ffffffffffffffffffffffffffffffffffffffff1673ffffffffffffffffffffffffffffffffffffffff168152602001908152602001600020600083815260200190815260200160002090805190602001906108b4929190610cd7565b50505050565b60008054906101000a900473ffffffffffffffffffffffffffffffffffffffff1681565b600b5481565b60038060000180546108f59061145b565b80601f01602080910402602001604051908101604052809291908181526020018280546109219061145b565b801561096e5780601f106109435761010080835404028352916020019161096e565b820191906000526020600020905b81548152906001019060200180831161095157829003601f168201915b5050505050908060010154908060020180546109899061145b565b80601f01602080910402602001604051908101604052809291908181526020018280546109b59061145b565b8015610a025780601f106109d757610100808354040283529160200191610a02565b820191906000526020600020905b8154815290600101906020018083116109e557829003601f168201915b505050505090806003018054610a179061145b565b80601f0160208091040260200160405190810160405280929190818152602001828054610a439061145b565b8015610a905780601f10610a6557610100808354040283529160200191610a90565b820191906000526020600020905b815481529060010190602001808311610a7357829003601f168201915b505050505090806004018054610aa59061145b565b80601f0160208091040260200160405190810160405280929190818152602001828054610ad19061145b565b8015610b1e5780601f10610af357610100808354040283529160200191610b1e565b820191906000526020600020905b815481529060010190602001808311610b0157829003601f168201915b505050505090806005018054610b339061145b565b80601f0160208091040260200160405190810160405280929190818152602001828054610b5f9061145b565b8015610bac5780601f10610b8157610100808354040283529160200191610bac565b820191906000526020600020905b815481529060010190602001808311610b8f57829003601f168201915b5050505050905086565b600a6020528060005260406000206000915054906101000a900473ffffffffffffffffffffffffffffffffffffffff1681565b600160009054906101000a900473ffffffffffffffffffffffffffffffffffffffff1681565b6060600960008373ffffffffffffffffffffffffffffffffffffffff1673ffffffffffffffffffffffffffffffffffffffff168152602001908152602001600020805480602002602001604051908101604052809291908181526020018280548015610c9a57602002820191906000526020600020905b815481526020019060010190808311610c86575b50505050509050919050565b60096020528160005260406000208181548110610cc257600080fd5b90600052602060002001600091509150505481565b828054610ce39061145b565b90600052602060002090601f016020900481019282610d055760008555610d4c565b82601f10610d1e57805160ff1916838001178555610d4c565b82800160010185558215610d4c579182015b82811115610d4b578251825591602001919060010190610d30565b5b509050610d599190610d5d565b5090565b5b80821115610d76576000816000905550600101610d5e565b5090565b6000604051905090565b600080fd5b600080fd5b600073ffffffffffffffffffffffffffffffffffffffff82169050919050565b6000610db982610d8e565b9050919050565b610dc981610dae565b8114610dd457600080fd5b50565b600081359050610de681610dc0565b92915050565b6000819050919050565b610dff81610dec565b8114610e0a57600080fd5b50565b600081359050610e1c81610df6565b92915050565b60008060408385031215610e3957610e38610d84565b5b6000610e4785828601610dd7565b9250506020610e5885828601610e0d565b9150509250929050565b600081519050919050565b600082825260208201905092915050565b60005b83811015610e9c578082015181840152602081019050610e81565b83811115610eab576000848401525b50505050565b6000601f19601f8301169050919050565b6000610ecd82610e62565b610ed78185610e6d565b9350610ee7818560208601610e7e565b610ef081610eb1565b840191505092915050565b60006020820190508181036000830152610f158184610ec2565b905092915050565b610f2681610dec565b82525050565b6000602082019050610f416000830184610f1d565b92915050565b600060c0820190508181036000830152610f618189610ec2565b9050610f706020830188610f1d565b8181036040830152610f828187610ec2565b90508181036060830152610f968186610ec2565b90508181036080830152610faa8185610ec2565b905081810360a0830152610fbe8184610ec2565b9050979650505050505050565b600080fd5b600080fd5b7f4e487b7100000000000000000000000000000000000000000000000000000000600052604160045260246000fd5b61100d82610eb1565b810181811067ffffffffffffffff8211171561102c5761102b610fd5565b5b80604052505050565b600061103f610d7a565b905061104b8282611004565b919050565b600067ffffffffffffffff82111561106b5761106a610fd5565b5b61107482610eb1565b9050602081019050919050565b82818337600083830152505050565b60006110a361109e84611050565b611035565b9050828152602081018484840111156110bf576110be610fd0565b5b6110ca848285611081565b509392505050565b600082601f8301126110e7576110e6610fcb565b5b81356110f7848260208601611090565b91505092915050565b60008060008060008060c0878903121561111d5761111c610d84565b5b600087013567ffffffffffffffff81111561113b5761113a610d89565b5b61114789828a016110d2565b965050602061115889828a01610e0d565b955050604087013567ffffffffffffffff81111561117957611178610d89565b5b61118589828a016110d2565b945050606087013567ffffffffffffffff8111156111a6576111a5610d89565b5b6111b289828a016110d2565b935050608087013567ffffffffffffffff8111156111d3576111d2610d89565b5b6111df89828a016110d2565b92505060a087013567ffffffffffffffff811115611200576111ff610d89565b5b61120c89828a016110d2565b9150509295509295509295565b600080604083850312156112305761122f610d84565b5b600061123e85828601610e0d565b925050602061124f85828601610dd7565b9150509250929050565b60008060006060848603121561127257611271610d84565b5b600084013567ffffffffffffffff8111156112905761128f610d89565b5b61129c868287016110d2565b93505060206112ad86828701610dd7565b92505060406112be86828701610e0d565b9150509250925092565b6112d181610dae565b82525050565b60006020820190506112ec60008301846112c8565b92915050565b60006020828403121561130857611307610d84565b5b600061131684828501610e0d565b91505092915050565b60006020828403121561133557611334610d84565b5b600061134384828501610dd7565b91505092915050565b600081519050919050565b600082825260208201905092915050565b6000819050602082019050919050565b61138181610dec565b82525050565b60006113938383611378565b60208301905092915050565b6000602082019050919050565b60006113b78261134c565b6113c18185611357565b93506113cc83611368565b8060005b838110156113fd5781516113e48882611387565b97506113ef8361139f565b9250506001810190506113d0565b5085935050505092915050565b6000602082019050818103600083015261142481846113ac565b905092915050565b7f4e487b7100000000000000000000000000000000000000000000000000000000600052602260045260246000fd5b6000600282049050600182168061147357607f821691505b602082108114156114875761148661142c565b5b50919050565b7f4e487b7100000000000000000000000000000000000000000000000000000000600052601160045260246000fd5b60006114c782610dec565b91506114d283610dec565b9250827fffffffffffffffffffffffffffffffffffffffffffffffffffffffffffffffff038211156115075761150661148d565b5b82820190509291505056fea2646970667358221220baaa9786085987efa6ba3e33bdb371fa782ec4f63d2e5c7504932ba0f9a9542b64736f6c63430008090033","opcodes":"PUSH1 0x80 PUSH1 0x40 MSTORE CALLVALUE DUP1 ISZERO PUSH3 0x11 JUMPI PUSH1 0x0 DUP1 REVERT JUMPDEST POP PUSH1 0x40 MLOAD PUSH3 0x1BB1 CODESIZE SUB DUP1 PUSH3 0x1BB1 DUP4 CODECOPY DUP2 DUP2 ADD PUSH1 0x40 MSTORE DUP2 ADD SWAP1 PUSH3 0x37 SWAP2 SWAP1 PUSH3 0x490 JUMP JUMPDEST DUP7 PUSH1 0x0 DUP1 PUSH2 0x100 EXP DUP2 SLOAD DUP2 PUSH20 0xFFFFFFFFFFFFFFFFFFFFFFFFFFFFFFFFFFFFFFFF MUL NOT AND SWAP1 DUP4 PUSH20 0xFFFFFFFFFFFFFFFFFFFFFFFFFFFFFFFFFFFFFFFF AND MUL OR SWAP1 SSTORE POP PUSH1 0x0 PUSH1 0x40 MLOAD DUP1 PUSH1 0xC0 ADD PUSH1 0x40 MSTORE DUP1 DUP9 DUP2 MSTORE PUSH1 0x20 ADD DUP8 DUP2 MSTORE PUSH1 0x20 ADD DUP7 DUP2 MSTORE PUSH1 0x20 ADD DUP6 DUP2 MSTORE PUSH1 0x20 ADD DUP5 DUP2 MSTORE PUSH1 0x20 ADD DUP4 DUP2 MSTORE POP SWAP1 POP DUP1 PUSH1 0x3 PUSH1 0x0 DUP3 ADD MLOAD DUP2 PUSH1 0x0 ADD SWAP1 DUP1 MLOAD SWAP1 PUSH1 0x20 ADD SWAP1 PUSH3 0xC9 SWAP3 SWAP2 SWAP1 PUSH3 0x1A3 JUMP JUMPDEST POP PUSH1 0x20 DUP3 ADD MLOAD DUP2 PUSH1 0x1 ADD SSTORE PUSH1 0x40 DUP3 ADD MLOAD DUP2 PUSH1 0x2 ADD SWAP1 DUP1 MLOAD SWAP1 PUSH1 0x20 ADD SWAP1 PUSH3 0xF2 SWAP3 SWAP2 SWAP1 PUSH3 0x1A3 JUMP JUMPDEST POP PUSH1 0x60 DUP3 ADD MLOAD DUP2 PUSH1 0x3 ADD SWAP1 DUP1 MLOAD SWAP1 PUSH1 0x20 ADD SWAP1 PUSH3 0x111 SWAP3 SWAP2 SWAP1 PUSH3 0x1A3 JUMP JUMPDEST POP PUSH1 0x80 DUP3 ADD MLOAD DUP2 PUSH1 0x4 ADD SWAP1 DUP1 MLOAD SWAP1 PUSH1 0x20 ADD SWAP1 PUSH3 0x130 SWAP3 SWAP2 SWAP1 PUSH3 0x1A3 JUMP JUMPDEST POP PUSH1 0xA0 DUP3 ADD MLOAD DUP2 PUSH1 0x5 ADD SWAP1 DUP1 MLOAD SWAP1 PUSH1 0x20 ADD SWAP1 PUSH3 0x14F SWAP3 SWAP2 SWAP1 PUSH3 0x1A3 JUMP JUMPDEST POP SWAP1 POP POP DUP9 PUSH1 0x1 PUSH1 0x0 PUSH2 0x100 EXP DUP2 SLOAD DUP2 PUSH20 0xFFFFFFFFFFFFFFFFFFFFFFFFFFFFFFFFFFFFFFFF MUL NOT AND SWAP1 DUP4 PUSH20 0xFFFFFFFFFFFFFFFFFFFFFFFFFFFFFFFFFFFFFFFF AND MUL OR SWAP1 SSTORE POP POP POP POP POP POP POP POP POP POP PUSH3 0x659 JUMP JUMPDEST DUP3 DUP1 SLOAD PUSH3 0x1B1 SWAP1 PUSH3 0x623 JUMP JUMPDEST SWAP1 PUSH1 0x0 MSTORE PUSH1 0x20 PUSH1 0x0 KECCAK256 SWAP1 PUSH1 0x1F ADD PUSH1 0x20 SWAP1 DIV DUP2 ADD SWAP3 DUP3 PUSH3 0x1D5 JUMPI PUSH1 0x0 DUP6 SSTORE PUSH3 0x221 JUMP JUMPDEST DUP3 PUSH1 0x1F LT PUSH3 0x1F0 JUMPI DUP1 MLOAD PUSH1 0xFF NOT AND DUP4 DUP1 ADD OR DUP6 SSTORE PUSH3 0x221 JUMP JUMPDEST DUP3 DUP1 ADD PUSH1 0x1 ADD DUP6 SSTORE DUP3 ISZERO PUSH3 0x221 JUMPI SWAP2 DUP3 ADD JUMPDEST DUP3 DUP2 GT ISZERO PUSH3 0x220 JUMPI DUP3 MLOAD DUP3 SSTORE SWAP2 PUSH1 0x20 ADD SWAP2 SWAP1 PUSH1 0x1 ADD SWAP1 PUSH3 0x203 JUMP JUMPDEST JUMPDEST POP SWAP1 POP PUSH3 0x230 SWAP2 SWAP1 PUSH3 0x234 JUMP JUMPDEST POP SWAP1 JUMP JUMPDEST JUMPDEST DUP1 DUP3 GT ISZERO PUSH3 0x24F JUMPI PUSH1 0x0 DUP2 PUSH1 0x0 SWAP1 SSTORE POP PUSH1 0x1 ADD PUSH3 0x235 JUMP JUMPDEST POP SWAP1 JUMP JUMPDEST PUSH1 0x0 PUSH1 0x40 MLOAD SWAP1 POP SWAP1 JUMP JUMPDEST PUSH1 0x0 DUP1 REVERT JUMPDEST PUSH1 0x0 DUP1 REVERT JUMPDEST PUSH1 0x0 PUSH20 0xFFFFFFFFFFFFFFFFFFFFFFFFFFFFFFFFFFFFFFFF DUP3 AND SWAP1 POP SWAP2 SWAP1 POP JUMP JUMPDEST PUSH1 0x0 PUSH3 0x294 DUP3 PUSH3 0x267 JUMP JUMPDEST SWAP1 POP SWAP2 SWAP1 POP JUMP JUMPDEST PUSH3 0x2A6 DUP2 PUSH3 0x287 JUMP JUMPDEST DUP2 EQ PUSH3 0x2B2 JUMPI PUSH1 0x0 DUP1 REVERT JUMPDEST POP JUMP JUMPDEST PUSH1 0x0 DUP2 MLOAD SWAP1 POP PUSH3 0x2C6 DUP2 PUSH3 0x29B JUMP JUMPDEST SWAP3 SWAP2 POP POP JUMP JUMPDEST PUSH1 0x0 DUP1 REVERT JUMPDEST PUSH1 0x0 DUP1 REVERT JUMPDEST PUSH1 0x0 PUSH1 0x1F NOT PUSH1 0x1F DUP4 ADD AND SWAP1 POP SWAP2 SWAP1 POP JUMP JUMPDEST PUSH32 0x4E487B7100000000000000000000000000000000000000000000000000000000 PUSH1 0x0 MSTORE PUSH1 0x41 PUSH1 0x4 MSTORE PUSH1 0x24 PUSH1 0x0 REVERT JUMPDEST PUSH3 0x321 DUP3 PUSH3 0x2D6 JUMP JUMPDEST DUP2 ADD DUP2 DUP2 LT PUSH8 0xFFFFFFFFFFFFFFFF DUP3 GT OR ISZERO PUSH3 0x343 JUMPI PUSH3 0x342 PUSH3 0x2E7 JUMP JUMPDEST JUMPDEST DUP1 PUSH1 0x40 MSTORE POP POP POP JUMP JUMPDEST PUSH1 0x0 PUSH3 0x358 PUSH3 0x253 JUMP JUMPDEST SWAP1 POP PUSH3 0x366 DUP3 DUP3 PUSH3 0x316 JUMP JUMPDEST SWAP2 SWAP1 POP JUMP JUMPDEST PUSH1 0x0 PUSH8 0xFFFFFFFFFFFFFFFF DUP3 GT ISZERO PUSH3 0x389 JUMPI PUSH3 0x388 PUSH3 0x2E7 JUMP JUMPDEST JUMPDEST PUSH3 0x394 DUP3 PUSH3 0x2D6 JUMP JUMPDEST SWAP1 POP PUSH1 0x20 DUP2 ADD SWAP1 POP SWAP2 SWAP1 POP JUMP JUMPDEST PUSH1 0x0 JUMPDEST DUP4 DUP2 LT ISZERO PUSH3 0x3C1 JUMPI DUP1 DUP3 ADD MLOAD DUP2 DUP5 ADD MSTORE PUSH1 0x20 DUP2 ADD SWAP1 POP PUSH3 0x3A4 JUMP JUMPDEST DUP4 DUP2 GT ISZERO PUSH3 0x3D1 JUMPI PUSH1 0x0 DUP5 DUP5 ADD MSTORE JUMPDEST POP POP POP POP JUMP JUMPDEST PUSH1 0x0 PUSH3 0x3EE PUSH3 0x3E8 DUP5 PUSH3 0x36B JUMP JUMPDEST PUSH3 0x34C JUMP JUMPDEST SWAP1 POP DUP3 DUP2 MSTORE PUSH1 0x20 DUP2 ADD DUP5 DUP5 DUP5 ADD GT ISZERO PUSH3 0x40D JUMPI PUSH3 0x40C PUSH3 0x2D1 JUMP JUMPDEST JUMPDEST PUSH3 0x41A DUP5 DUP3 DUP6 PUSH3 0x3A1 JUMP JUMPDEST POP SWAP4 SWAP3 POP POP POP JUMP JUMPDEST PUSH1 0x0 DUP3 PUSH1 0x1F DUP4 ADD SLT PUSH3 0x43A JUMPI PUSH3 0x439 PUSH3 0x2CC JUMP JUMPDEST JUMPDEST DUP2 MLOAD PUSH3 0x44C DUP5 DUP3 PUSH1 0x20 DUP7 ADD PUSH3 0x3D7 JUMP JUMPDEST SWAP2 POP POP SWAP3 SWAP2 POP POP JUMP JUMPDEST PUSH1 0x0 DUP2 SWAP1 POP SWAP2 SWAP1 POP JUMP JUMPDEST PUSH3 0x46A DUP2 PUSH3 0x455 JUMP JUMPDEST DUP2 EQ PUSH3 0x476 JUMPI PUSH1 0x0 DUP1 REVERT JUMPDEST POP JUMP JUMPDEST PUSH1 0x0 DUP2 MLOAD SWAP1 POP PUSH3 0x48A DUP2 PUSH3 0x45F JUMP JUMPDEST SWAP3 SWAP2 POP POP JUMP JUMPDEST PUSH1 0x0 DUP1 PUSH1 0x0 DUP1 PUSH1 0x0 DUP1 PUSH1 0x0 DUP1 PUSH2 0x100 DUP10 DUP12 SUB SLT ISZERO PUSH3 0x4B4 JUMPI PUSH3 0x4B3 PUSH3 0x25D JUMP JUMPDEST JUMPDEST PUSH1 0x0 PUSH3 0x4C4 DUP12 DUP3 DUP13 ADD PUSH3 0x2B5 JUMP JUMPDEST SWAP9 POP POP PUSH1 0x20 PUSH3 0x4D7 DUP12 DUP3 DUP13 ADD PUSH3 0x2B5 JUMP JUMPDEST SWAP8 POP POP PUSH1 0x40 DUP10 ADD MLOAD PUSH8 0xFFFFFFFFFFFFFFFF DUP2 GT ISZERO PUSH3 0x4FB JUMPI PUSH3 0x4FA PUSH3 0x262 JUMP JUMPDEST JUMPDEST PUSH3 0x509 DUP12 DUP3 DUP13 ADD PUSH3 0x422 JUMP JUMPDEST SWAP7 POP POP PUSH1 0x60 PUSH3 0x51C DUP12 DUP3 DUP13 ADD PUSH3 0x479 JUMP JUMPDEST SWAP6 POP POP PUSH1 0x80 DUP10 ADD MLOAD PUSH8 0xFFFFFFFFFFFFFFFF DUP2 GT ISZERO PUSH3 0x540 JUMPI PUSH3 0x53F PUSH3 0x262 JUMP JUMPDEST JUMPDEST PUSH3 0x54E DUP12 DUP3 DUP13 ADD PUSH3 0x422 JUMP JUMPDEST SWAP5 POP POP PUSH1 0xA0 DUP10 ADD MLOAD PUSH8 0xFFFFFFFFFFFFFFFF DUP2 GT ISZERO PUSH3 0x572 JUMPI PUSH3 0x571 PUSH3 0x262 JUMP JUMPDEST JUMPDEST PUSH3 0x580 DUP12 DUP3 DUP13 ADD PUSH3 0x422 JUMP JUMPDEST SWAP4 POP POP PUSH1 0xC0 DUP10 ADD MLOAD PUSH8 0xFFFFFFFFFFFFFFFF DUP2 GT ISZERO PUSH3 0x5A4 JUMPI PUSH3 0x5A3 PUSH3 0x262 JUMP JUMPDEST JUMPDEST PUSH3 0x5B2 DUP12 DUP3 DUP13 ADD PUSH3 0x422 JUMP JUMPDEST SWAP3 POP POP PUSH1 0xE0 DUP10 ADD MLOAD PUSH8 0xFFFFFFFFFFFFFFFF DUP2 GT ISZERO PUSH3 0x5D6 JUMPI PUSH3 0x5D5 PUSH3 0x262 JUMP JUMPDEST JUMPDEST PUSH3 0x5E4 DUP12 DUP3 DUP13 ADD PUSH3 0x422 JUMP JUMPDEST SWAP2 POP POP SWAP3 SWAP6 SWAP9 POP SWAP3 SWAP6 SWAP9 SWAP1 SWAP4 SWAP7 POP JUMP JUMPDEST PUSH32 0x4E487B7100000000000000000000000000000000000000000000000000000000 PUSH1 0x0 MSTORE PUSH1 0x22 PUSH1 0x4 MSTORE PUSH1 0x24 PUSH1 0x0 REVERT JUMPDEST PUSH1 0x0 PUSH1 0x2 DUP3 DIV SWAP1 POP PUSH1 0x1 DUP3 AND DUP1 PUSH3 0x63C JUMPI PUSH1 0x7F DUP3 AND SWAP2 POP JUMPDEST PUSH1 0x20 DUP3 LT DUP2 EQ ISZERO PUSH3 0x653 JUMPI PUSH3 0x652 PUSH3 0x5F4 JUMP JUMPDEST JUMPDEST POP SWAP2 SWAP1 POP JUMP JUMPDEST PUSH2 0x1548 DUP1 PUSH3 0x669 PUSH1 0x0 CODECOPY PUSH1 0x0 RETURN INVALID PUSH1 0x80 PUSH1 0x40 MSTORE CALLVALUE DUP1 ISZERO PUSH2 0x10 JUMPI PUSH1 0x0 DUP1 REVERT JUMPDEST POP PUSH1 0x4 CALLDATASIZE LT PUSH2 0xCF JUMPI PUSH1 0x0 CALLDATALOAD PUSH1 0xE0 SHR DUP1 PUSH4 0x851A94C9 GT PUSH2 0x8C JUMPI DUP1 PUSH4 0xB7D4477C GT PUSH2 0x66 JUMPI DUP1 PUSH4 0xB7D4477C EQ PUSH2 0x1F8 JUMPI DUP1 PUSH4 0xC83DD231 EQ PUSH2 0x228 JUMPI DUP1 PUSH4 0xE65A0691 EQ PUSH2 0x246 JUMPI DUP1 PUSH4 0xFB986606 EQ PUSH2 0x276 JUMPI PUSH2 0xCF JUMP JUMPDEST DUP1 PUSH4 0x851A94C9 EQ PUSH2 0x199 JUMPI DUP1 PUSH4 0xA0303C41 EQ PUSH2 0x1B7 JUMPI DUP1 PUSH4 0xAEE554FF EQ PUSH2 0x1D5 JUMPI PUSH2 0xCF JUMP JUMPDEST DUP1 PUSH4 0xC4174B7 EQ PUSH2 0xD4 JUMPI DUP1 PUSH4 0x185C6F84 EQ PUSH2 0x104 JUMPI DUP1 PUSH4 0x21FFCCF1 EQ PUSH2 0x122 JUMPI DUP1 PUSH4 0x2BE8454A EQ PUSH2 0x145 JUMPI DUP1 PUSH4 0x376F4E49 EQ PUSH2 0x161 JUMPI DUP1 PUSH4 0x4E1CC351 EQ PUSH2 0x17D JUMPI JUMPDEST PUSH1 0x0 DUP1 REVERT JUMPDEST PUSH2 0xEE PUSH1 0x4 DUP1 CALLDATASIZE SUB DUP2 ADD SWAP1 PUSH2 0xE9 SWAP2 SWAP1 PUSH2 0xE22 JUMP JUMPDEST PUSH2 0x2A6 JUMP JUMPDEST PUSH1 0x40 MLOAD PUSH2 0xFB SWAP2 SWAP1 PUSH2 0xEFB JUMP JUMPDEST PUSH1 0x40 MLOAD DUP1 SWAP2 SUB SWAP1 RETURN JUMPDEST PUSH2 0x10C PUSH2 0x353 JUMP JUMPDEST PUSH1 0x40 MLOAD PUSH2 0x119 SWAP2 SWAP1 PUSH2 0xF2C JUMP JUMPDEST PUSH1 0x40 MLOAD DUP1 SWAP2 SUB SWAP1 RETURN JUMPDEST PUSH2 0x12A PUSH2 0x359 JUMP JUMPDEST PUSH1 0x40 MLOAD PUSH2 0x13C SWAP7 SWAP6 SWAP5 SWAP4 SWAP3 SWAP2 SWAP1 PUSH2 0xF47 JUMP JUMPDEST PUSH1 0x40 MLOAD DUP1 SWAP2 SUB SWAP1 RETURN JUMPDEST PUSH2 0x15F PUSH1 0x4 DUP1 CALLDATASIZE SUB DUP2 ADD SWAP1 PUSH2 0x15A SWAP2 SWAP1 PUSH2 0x1100 JUMP JUMPDEST PUSH2 0x651 JUMP JUMPDEST STOP JUMPDEST PUSH2 0x17B PUSH1 0x4 DUP1 CALLDATASIZE SUB DUP2 ADD SWAP1 PUSH2 0x176 SWAP2 SWAP1 PUSH2 0x1219 JUMP JUMPDEST PUSH2 0x72C JUMP JUMPDEST STOP JUMPDEST PUSH2 0x197 PUSH1 0x4 DUP1 CALLDATASIZE SUB DUP2 ADD SWAP1 PUSH2 0x192 SWAP2 SWAP1 PUSH2 0x1259 JUMP JUMPDEST PUSH2 0x850 JUMP JUMPDEST STOP JUMPDEST PUSH2 0x1A1 PUSH2 0x8BA JUMP JUMPDEST PUSH1 0x40 MLOAD PUSH2 0x1AE SWAP2 SWAP1 PUSH2 0x12D7 JUMP JUMPDEST PUSH1 0x40 MLOAD DUP1 SWAP2 SUB SWAP1 RETURN JUMPDEST PUSH2 0x1BF PUSH2 0x8DE JUMP JUMPDEST PUSH1 0x40 MLOAD PUSH2 0x1CC SWAP2 SWAP1 PUSH2 0xF2C JUMP JUMPDEST PUSH1 0x40 MLOAD DUP1 SWAP2 SUB SWAP1 RETURN JUMPDEST PUSH2 0x1DD PUSH2 0x8E4 JUMP JUMPDEST PUSH1 0x40 MLOAD PUSH2 0x1EF SWAP7 SWAP6 SWAP5 SWAP4 SWAP3 SWAP2 SWAP1 PUSH2 0xF47 JUMP JUMPDEST PUSH1 0x40 MLOAD DUP1 SWAP2 SUB SWAP1 RETURN JUMPDEST PUSH2 0x212 PUSH1 0x4 DUP1 CALLDATASIZE SUB DUP2 ADD SWAP1 PUSH2 0x20D SWAP2 SWAP1 PUSH2 0x12F2 JUMP JUMPDEST PUSH2 0xBB6 JUMP JUMPDEST PUSH1 0x40 MLOAD PUSH2 0x21F SWAP2 SWAP1 PUSH2 0x12D7 JUMP JUMPDEST PUSH1 0x40 MLOAD DUP1 SWAP2 SUB SWAP1 RETURN JUMPDEST PUSH2 0x230 PUSH2 0xBE9 JUMP JUMPDEST PUSH1 0x40 MLOAD PUSH2 0x23D SWAP2 SWAP1 PUSH2 0x12D7 JUMP JUMPDEST PUSH1 0x40 MLOAD DUP1 SWAP2 SUB SWAP1 RETURN JUMPDEST PUSH2 0x260 PUSH1 0x4 DUP1 CALLDATASIZE SUB DUP2 ADD SWAP1 PUSH2 0x25B SWAP2 SWAP1 PUSH2 0x131F JUMP JUMPDEST PUSH2 0xC0F JUMP JUMPDEST PUSH1 0x40 MLOAD PUSH2 0x26D SWAP2 SWAP1 PUSH2 0x140A JUMP JUMPDEST PUSH1 0x40 MLOAD DUP1 SWAP2 SUB SWAP1 RETURN JUMPDEST PUSH2 0x290 PUSH1 0x4 DUP1 CALLDATASIZE SUB DUP2 ADD SWAP1 PUSH2 0x28B SWAP2 SWAP1 PUSH2 0xE22 JUMP JUMPDEST PUSH2 0xCA6 JUMP JUMPDEST PUSH1 0x40 MLOAD PUSH2 0x29D SWAP2 SWAP1 PUSH2 0xF2C JUMP JUMPDEST PUSH1 0x40 MLOAD DUP1 SWAP2 SUB SWAP1 RETURN JUMPDEST PUSH1 0xC PUSH1 0x20 MSTORE DUP2 PUSH1 0x0 MSTORE PUSH1 0x40 PUSH1 0x0 KECCAK256 PUSH1 0x20 MSTORE DUP1 PUSH1 0x0 MSTORE PUSH1 0x40 PUSH1 0x0 KECCAK256 PUSH1 0x0 SWAP2 POP SWAP2 POP POP DUP1 SLOAD PUSH2 0x2D2 SWAP1 PUSH2 0x145B JUMP JUMPDEST DUP1 PUSH1 0x1F ADD PUSH1 0x20 DUP1 SWAP2 DIV MUL PUSH1 0x20 ADD PUSH1 0x40 MLOAD SWAP1 DUP2 ADD PUSH1 0x40 MSTORE DUP1 SWAP3 SWAP2 SWAP1 DUP2 DUP2 MSTORE PUSH1 0x20 ADD DUP3 DUP1 SLOAD PUSH2 0x2FE SWAP1 PUSH2 0x145B JUMP JUMPDEST DUP1 ISZERO PUSH2 0x34B JUMPI DUP1 PUSH1 0x1F LT PUSH2 0x320 JUMPI PUSH2 0x100 DUP1 DUP4 SLOAD DIV MUL DUP4 MSTORE SWAP2 PUSH1 0x20 ADD SWAP2 PUSH2 0x34B JUMP JUMPDEST DUP3 ADD SWAP2 SWAP1 PUSH1 0x0 MSTORE PUSH1 0x20 PUSH1 0x0 KECCAK256 SWAP1 JUMPDEST DUP2 SLOAD DUP2 MSTORE SWAP1 PUSH1 0x1 ADD SWAP1 PUSH1 0x20 ADD DUP1 DUP4 GT PUSH2 0x32E JUMPI DUP3 SWAP1 SUB PUSH1 0x1F AND DUP3 ADD SWAP2 JUMPDEST POP POP POP POP POP DUP2 JUMP JUMPDEST PUSH1 0x2 SLOAD DUP2 JUMP JUMPDEST PUSH1 0x60 PUSH1 0x0 PUSH1 0x60 DUP1 PUSH1 0x60 DUP1 PUSH1 0x3 PUSH1 0x0 ADD PUSH1 0x3 PUSH1 0x1 ADD SLOAD PUSH1 0x3 PUSH1 0x2 ADD PUSH1 0x3 DUP1 ADD PUSH1 0x3 PUSH1 0x4 ADD PUSH1 0x3 PUSH1 0x5 ADD DUP6 DUP1 SLOAD PUSH2 0x38D SWAP1 PUSH2 0x145B JUMP JUMPDEST DUP1 PUSH1 0x1F ADD PUSH1 0x20 DUP1 SWAP2 DIV MUL PUSH1 0x20 ADD PUSH1 0x40 MLOAD SWAP1 DUP2 ADD PUSH1 0x40 MSTORE DUP1 SWAP3 SWAP2 SWAP1 DUP2 DUP2 MSTORE PUSH1 0x20 ADD DUP3 DUP1 SLOAD PUSH2 0x3B9 SWAP1 PUSH2 0x145B JUMP JUMPDEST DUP1 ISZERO PUSH2 0x406 JUMPI DUP1 PUSH1 0x1F LT PUSH2 0x3DB JUMPI PUSH2 0x100 DUP1 DUP4 SLOAD DIV MUL DUP4 MSTORE SWAP2 PUSH1 0x20 ADD SWAP2 PUSH2 0x406 JUMP JUMPDEST DUP3 ADD SWAP2 SWAP1 PUSH1 0x0 MSTORE PUSH1 0x20 PUSH1 0x0 KECCAK256 SWAP1 JUMPDEST DUP2 SLOAD DUP2 MSTORE SWAP1 PUSH1 0x1 ADD SWAP1 PUSH1 0x20 ADD DUP1 DUP4 GT PUSH2 0x3E9 JUMPI DUP3 SWAP1 SUB PUSH1 0x1F AND DUP3 ADD SWAP2 JUMPDEST POP POP POP POP POP SWAP6 POP DUP4 DUP1 SLOAD PUSH2 0x419 SWAP1 PUSH2 0x145B JUMP JUMPDEST DUP1 PUSH1 0x1F ADD PUSH1 0x20 DUP1 SWAP2 DIV MUL PUSH1 0x20 ADD PUSH1 0x40 MLOAD SWAP1 DUP2 ADD PUSH1 0x40 MSTORE DUP1 SWAP3 SWAP2 SWAP1 DUP2 DUP2 MSTORE PUSH1 0x20 ADD DUP3 DUP1 SLOAD PUSH2 0x445 SWAP1 PUSH2 0x145B JUMP JUMPDEST DUP1 ISZERO PUSH2 0x492 JUMPI DUP1 PUSH1 0x1F LT PUSH2 0x467 JUMPI PUSH2 0x100 DUP1 DUP4 SLOAD DIV MUL DUP4 MSTORE SWAP2 PUSH1 0x20 ADD SWAP2 PUSH2 0x492 JUMP JUMPDEST DUP3 ADD SWAP2 SWAP1 PUSH1 0x0 MSTORE PUSH1 0x20 PUSH1 0x0 KECCAK256 SWAP1 JUMPDEST DUP2 SLOAD DUP2 MSTORE SWAP1 PUSH1 0x1 ADD SWAP1 PUSH1 0x20 ADD DUP1 DUP4 GT PUSH2 0x475 JUMPI DUP3 SWAP1 SUB PUSH1 0x1F AND DUP3 ADD SWAP2 JUMPDEST POP POP POP POP POP SWAP4 POP DUP3 DUP1 SLOAD PUSH2 0x4A5 SWAP1 PUSH2 0x145B JUMP JUMPDEST DUP1 PUSH1 0x1F ADD PUSH1 0x20 DUP1 SWAP2 DIV MUL PUSH1 0x20 ADD PUSH1 0x40 MLOAD SWAP1 DUP2 ADD PUSH1 0x40 MSTORE DUP1 SWAP3 SWAP2 SWAP1 DUP2 DUP2 MSTORE PUSH1 0x20 ADD DUP3 DUP1 SLOAD PUSH2 0x4D1 SWAP1 PUSH2 0x145B JUMP JUMPDEST DUP1 ISZERO PUSH2 0x51E JUMPI DUP1 PUSH1 0x1F LT PUSH2 0x4F3 JUMPI PUSH2 0x100 DUP1 DUP4 SLOAD DIV MUL DUP4 MSTORE SWAP2 PUSH1 0x20 ADD SWAP2 PUSH2 0x51E JUMP JUMPDEST DUP3 ADD SWAP2 SWAP1 PUSH1 0x0 MSTORE PUSH1 0x20 PUSH1 0x0 KECCAK256 SWAP1 JUMPDEST DUP2 SLOAD DUP2 MSTORE SWAP1 PUSH1 0x1 ADD SWAP1 PUSH1 0x20 ADD DUP1 DUP4 GT PUSH2 0x501 JUMPI DUP3 SWAP1 SUB PUSH1 0x1F AND DUP3 ADD SWAP2 JUMPDEST POP POP POP POP POP SWAP3 POP DUP2 DUP1 SLOAD PUSH2 0x531 SWAP1 PUSH2 0x145B JUMP JUMPDEST DUP1 PUSH1 0x1F ADD PUSH1 0x20 DUP1 SWAP2 DIV MUL PUSH1 0x20 ADD PUSH1 0x40 MLOAD SWAP1 DUP2 ADD PUSH1 0x40 MSTORE DUP1 SWAP3 SWAP2 SWAP1 DUP2 DUP2 MSTORE PUSH1 0x20 ADD DUP3 DUP1 SLOAD PUSH2 0x55D SWAP1 PUSH2 0x145B JUMP JUMPDEST DUP1 ISZERO PUSH2 0x5AA JUMPI DUP1 PUSH1 0x1F LT PUSH2 0x57F JUMPI PUSH2 0x100 DUP1 DUP4 SLOAD DIV MUL DUP4 MSTORE SWAP2 PUSH1 0x20 ADD SWAP2 PUSH2 0x5AA JUMP JUMPDEST DUP3 ADD SWAP2 SWAP1 PUSH1 0x0 MSTORE PUSH1 0x20 PUSH1 0x0 KECCAK256 SWAP1 JUMPDEST DUP2 SLOAD DUP2 MSTORE SWAP1 PUSH1 0x1 ADD SWAP1 PUSH1 0x20 ADD DUP1 DUP4 GT PUSH2 0x58D JUMPI DUP3 SWAP1 SUB PUSH1 0x1F AND DUP3 ADD SWAP2 JUMPDEST POP POP POP POP POP SWAP2 POP DUP1 DUP1 SLOAD PUSH2 0x5BD SWAP1 PUSH2 0x145B JUMP JUMPDEST DUP1 PUSH1 0x1F ADD PUSH1 0x20 DUP1 SWAP2 DIV MUL PUSH1 0x20 ADD PUSH1 0x40 MLOAD SWAP1 DUP2 ADD PUSH1 0x40 MSTORE DUP1 SWAP3 SWAP2 SWAP1 DUP2 DUP2 MSTORE PUSH1 0x20 ADD DUP3 DUP1 SLOAD PUSH2 0x5E9 SWAP1 PUSH2 0x145B JUMP JUMPDEST DUP1 ISZERO PUSH2 0x636 JUMPI DUP1 PUSH1 0x1F LT PUSH2 0x60B JUMPI PUSH2 0x100 DUP1 DUP4 SLOAD DIV MUL DUP4 MSTORE SWAP2 PUSH1 0x20 ADD SWAP2 PUSH2 0x636 JUMP JUMPDEST DUP3 ADD SWAP2 SWAP1 PUSH1 0x0 MSTORE PUSH1 0x20 PUSH1 0x0 KECCAK256 SWAP1 JUMPDEST DUP2 SLOAD DUP2 MSTORE SWAP1 PUSH1 0x1 ADD SWAP1 PUSH1 0x20 ADD DUP1 DUP4 GT PUSH2 0x619 JUMPI DUP3 SWAP1 SUB PUSH1 0x1F AND DUP3 ADD SWAP2 JUMPDEST POP POP POP POP POP SWAP1 POP SWAP6 POP SWAP6 POP SWAP6 POP SWAP6 POP SWAP6 POP SWAP6 POP SWAP1 SWAP2 SWAP3 SWAP4 SWAP5 SWAP6 JUMP JUMPDEST PUSH1 0x0 PUSH1 0x40 MLOAD DUP1 PUSH1 0xC0 ADD PUSH1 0x40 MSTORE DUP1 DUP9 DUP2 MSTORE PUSH1 0x20 ADD DUP8 DUP2 MSTORE PUSH1 0x20 ADD DUP7 DUP2 MSTORE PUSH1 0x20 ADD DUP6 DUP2 MSTORE PUSH1 0x20 ADD DUP5 DUP2 MSTORE PUSH1 0x20 ADD DUP4 DUP2 MSTORE POP SWAP1 POP DUP1 PUSH1 0x3 PUSH1 0x0 DUP3 ADD MLOAD DUP2 PUSH1 0x0 ADD SWAP1 DUP1 MLOAD SWAP1 PUSH1 0x20 ADD SWAP1 PUSH2 0x6A1 SWAP3 SWAP2 SWAP1 PUSH2 0xCD7 JUMP JUMPDEST POP PUSH1 0x20 DUP3 ADD MLOAD DUP2 PUSH1 0x1 ADD SSTORE PUSH1 0x40 DUP3 ADD MLOAD DUP2 PUSH1 0x2 ADD SWAP1 DUP1 MLOAD SWAP1 PUSH1 0x20 ADD SWAP1 PUSH2 0x6C8 SWAP3 SWAP2 SWAP1 PUSH2 0xCD7 JUMP JUMPDEST POP PUSH1 0x60 DUP3 ADD MLOAD DUP2 PUSH1 0x3 ADD SWAP1 DUP1 MLOAD SWAP1 PUSH1 0x20 ADD SWAP1 PUSH2 0x6E5 SWAP3 SWAP2 SWAP1 PUSH2 0xCD7 JUMP JUMPDEST POP PUSH1 0x80 DUP3 ADD MLOAD DUP2 PUSH1 0x4 ADD SWAP1 DUP1 MLOAD SWAP1 PUSH1 0x20 ADD SWAP1 PUSH2 0x702 SWAP3 SWAP2 SWAP1 PUSH2 0xCD7 JUMP JUMPDEST POP PUSH1 0xA0 DUP3 ADD MLOAD DUP2 PUSH1 0x5 ADD SWAP1 DUP1 MLOAD SWAP1 PUSH1 0x20 ADD SWAP1 PUSH2 0x71F SWAP3 SWAP2 SWAP1 PUSH2 0xCD7 JUMP JUMPDEST POP SWAP1 POP POP POP POP POP POP POP POP POP JUMP JUMPDEST PUSH1 0x0 PUSH1 0x9 PUSH1 0x0 DUP4 PUSH20 0xFFFFFFFFFFFFFFFFFFFFFFFFFFFFFFFFFFFFFFFF AND PUSH20 0xFFFFFFFFFFFFFFFFFFFFFFFFFFFFFFFFFFFFFFFF AND DUP2 MSTORE PUSH1 0x20 ADD SWAP1 DUP2 MSTORE PUSH1 0x20 ADD PUSH1 0x0 KECCAK256 DUP1 SLOAD SWAP1 POP EQ ISZERO PUSH2 0x7E6 JUMPI DUP1 PUSH1 0xA PUSH1 0x0 PUSH1 0xB SLOAD DUP2 MSTORE PUSH1 0x20 ADD SWAP1 DUP2 MSTORE PUSH1 0x20 ADD PUSH1 0x0 KECCAK256 PUSH1 0x0 PUSH2 0x100 EXP DUP2 SLOAD DUP2 PUSH20 0xFFFFFFFFFFFFFFFFFFFFFFFFFFFFFFFFFFFFFFFF MUL NOT AND SWAP1 DUP4 PUSH20 0xFFFFFFFFFFFFFFFFFFFFFFFFFFFFFFFFFFFFFFFF AND MUL OR SWAP1 SSTORE POP PUSH1 0x1 PUSH1 0xB PUSH1 0x0 DUP3 DUP3 SLOAD PUSH2 0x7DE SWAP2 SWAP1 PUSH2 0x14BC JUMP JUMPDEST SWAP3 POP POP DUP2 SWAP1 SSTORE POP JUMPDEST PUSH1 0x9 PUSH1 0x0 DUP3 PUSH20 0xFFFFFFFFFFFFFFFFFFFFFFFFFFFFFFFFFFFFFFFF AND PUSH20 0xFFFFFFFFFFFFFFFFFFFFFFFFFFFFFFFFFFFFFFFF AND DUP2 MSTORE PUSH1 0x20 ADD SWAP1 DUP2 MSTORE PUSH1 0x20 ADD PUSH1 0x0 KECCAK256 DUP3 SWAP1 DUP1 PUSH1 0x1 DUP2 SLOAD ADD DUP1 DUP3 SSTORE DUP1 SWAP2 POP POP PUSH1 0x1 SWAP1 SUB SWAP1 PUSH1 0x0 MSTORE PUSH1 0x20 PUSH1 0x0 KECCAK256 ADD PUSH1 0x0 SWAP1 SWAP2 SWAP1 SWAP2 SWAP1 SWAP2 POP SSTORE POP POP JUMP JUMPDEST DUP3 PUSH1 0xC PUSH1 0x0 DUP5 PUSH20 0xFFFFFFFFFFFFFFFFFFFFFFFFFFFFFFFFFFFFFFFF AND PUSH20 0xFFFFFFFFFFFFFFFFFFFFFFFFFFFFFFFFFFFFFFFF AND DUP2 MSTORE PUSH1 0x20 ADD SWAP1 DUP2 MSTORE PUSH1 0x20 ADD PUSH1 0x0 KECCAK256 PUSH1 0x0 DUP4 DUP2 MSTORE PUSH1 0x20 ADD SWAP1 DUP2 MSTORE PUSH1 0x20 ADD PUSH1 0x0 KECCAK256 SWAP1 DUP1 MLOAD SWAP1 PUSH1 0x20 ADD SWAP1 PUSH2 0x8B4 SWAP3 SWAP2 SWAP1 PUSH2 0xCD7 JUMP JUMPDEST POP POP POP POP JUMP JUMPDEST PUSH1 0x0 DUP1 SLOAD SWAP1 PUSH2 0x100 EXP SWAP1 DIV PUSH20 0xFFFFFFFFFFFFFFFFFFFFFFFFFFFFFFFFFFFFFFFF AND DUP2 JUMP JUMPDEST PUSH1 0xB SLOAD DUP2 JUMP JUMPDEST PUSH1 0x3 DUP1 PUSH1 0x0 ADD DUP1 SLOAD PUSH2 0x8F5 SWAP1 PUSH2 0x145B JUMP JUMPDEST DUP1 PUSH1 0x1F ADD PUSH1 0x20 DUP1 SWAP2 DIV MUL PUSH1 0x20 ADD PUSH1 0x40 MLOAD SWAP1 DUP2 ADD PUSH1 0x40 MSTORE DUP1 SWAP3 SWAP2 SWAP1 DUP2 DUP2 MSTORE PUSH1 0x20 ADD DUP3 DUP1 SLOAD PUSH2 0x921 SWAP1 PUSH2 0x145B JUMP JUMPDEST DUP1 ISZERO PUSH2 0x96E JUMPI DUP1 PUSH1 0x1F LT PUSH2 0x943 JUMPI PUSH2 0x100 DUP1 DUP4 SLOAD DIV MUL DUP4 MSTORE SWAP2 PUSH1 0x20 ADD SWAP2 PUSH2 0x96E JUMP JUMPDEST DUP3 ADD SWAP2 SWAP1 PUSH1 0x0 MSTORE PUSH1 0x20 PUSH1 0x0 KECCAK256 SWAP1 JUMPDEST DUP2 SLOAD DUP2 MSTORE SWAP1 PUSH1 0x1 ADD SWAP1 PUSH1 0x20 ADD DUP1 DUP4 GT PUSH2 0x951 JUMPI DUP3 SWAP1 SUB PUSH1 0x1F AND DUP3 ADD SWAP2 JUMPDEST POP POP POP POP POP SWAP1 DUP1 PUSH1 0x1 ADD SLOAD SWAP1 DUP1 PUSH1 0x2 ADD DUP1 SLOAD PUSH2 0x989 SWAP1 PUSH2 0x145B JUMP JUMPDEST DUP1 PUSH1 0x1F ADD PUSH1 0x20 DUP1 SWAP2 DIV MUL PUSH1 0x20 ADD PUSH1 0x40 MLOAD SWAP1 DUP2 ADD PUSH1 0x40 MSTORE DUP1 SWAP3 SWAP2 SWAP1 DUP2 DUP2 MSTORE PUSH1 0x20 ADD DUP3 DUP1 SLOAD PUSH2 0x9B5 SWAP1 PUSH2 0x145B JUMP JUMPDEST DUP1 ISZERO PUSH2 0xA02 JUMPI DUP1 PUSH1 0x1F LT PUSH2 0x9D7 JUMPI PUSH2 0x100 DUP1 DUP4 SLOAD DIV MUL DUP4 MSTORE SWAP2 PUSH1 0x20 ADD SWAP2 PUSH2 0xA02 JUMP JUMPDEST DUP3 ADD SWAP2 SWAP1 PUSH1 0x0 MSTORE PUSH1 0x20 PUSH1 0x0 KECCAK256 SWAP1 JUMPDEST DUP2 SLOAD DUP2 MSTORE SWAP1 PUSH1 0x1 ADD SWAP1 PUSH1 0x20 ADD DUP1 DUP4 GT PUSH2 0x9E5 JUMPI DUP3 SWAP1 SUB PUSH1 0x1F AND DUP3 ADD SWAP2 JUMPDEST POP POP POP POP POP SWAP1 DUP1 PUSH1 0x3 ADD DUP1 SLOAD PUSH2 0xA17 SWAP1 PUSH2 0x145B JUMP JUMPDEST DUP1 PUSH1 0x1F ADD PUSH1 0x20 DUP1 SWAP2 DIV MUL PUSH1 0x20 ADD PUSH1 0x40 MLOAD SWAP1 DUP2 ADD PUSH1 0x40 MSTORE DUP1 SWAP3 SWAP2 SWAP1 DUP2 DUP2 MSTORE PUSH1 0x20 ADD DUP3 DUP1 SLOAD PUSH2 0xA43 SWAP1 PUSH2 0x145B JUMP JUMPDEST DUP1 ISZERO PUSH2 0xA90 JUMPI DUP1 PUSH1 0x1F LT PUSH2 0xA65 JUMPI PUSH2 0x100 DUP1 DUP4 SLOAD DIV MUL DUP4 MSTORE SWAP2 PUSH1 0x20 ADD SWAP2 PUSH2 0xA90 JUMP JUMPDEST DUP3 ADD SWAP2 SWAP1 PUSH1 0x0 MSTORE PUSH1 0x20 PUSH1 0x0 KECCAK256 SWAP1 JUMPDEST DUP2 SLOAD DUP2 MSTORE SWAP1 PUSH1 0x1 ADD SWAP1 PUSH1 0x20 ADD DUP1 DUP4 GT PUSH2 0xA73 JUMPI DUP3 SWAP1 SUB PUSH1 0x1F AND DUP3 ADD SWAP2 JUMPDEST POP POP POP POP POP SWAP1 DUP1 PUSH1 0x4 ADD DUP1 SLOAD PUSH2 0xAA5 SWAP1 PUSH2 0x145B JUMP JUMPDEST DUP1 PUSH1 0x1F ADD PUSH1 0x20 DUP1 SWAP2 DIV MUL PUSH1 0x20 ADD PUSH1 0x40 MLOAD SWAP1 DUP2 ADD PUSH1 0x40 MSTORE DUP1 SWAP3 SWAP2 SWAP1 DUP2 DUP2 MSTORE PUSH1 0x20 ADD DUP3 DUP1 SLOAD PUSH2 0xAD1 SWAP1 PUSH2 0x145B JUMP JUMPDEST DUP1 ISZERO PUSH2 0xB1E JUMPI DUP1 PUSH1 0x1F LT PUSH2 0xAF3 JUMPI PUSH2 0x100 DUP1 DUP4 SLOAD DIV MUL DUP4 MSTORE SWAP2 PUSH1 0x20 ADD SWAP2 PUSH2 0xB1E JUMP JUMPDEST DUP3 ADD SWAP2 SWAP1 PUSH1 0x0 MSTORE PUSH1 0x20 PUSH1 0x0 KECCAK256 SWAP1 JUMPDEST DUP2 SLOAD DUP2 MSTORE SWAP1 PUSH1 0x1 ADD SWAP1 PUSH1 0x20 ADD DUP1 DUP4 GT PUSH2 0xB01 JUMPI DUP3 SWAP1 SUB PUSH1 0x1F AND DUP3 ADD SWAP2 JUMPDEST POP POP POP POP POP SWAP1 DUP1 PUSH1 0x5 ADD DUP1 SLOAD PUSH2 0xB33 SWAP1 PUSH2 0x145B JUMP JUMPDEST DUP1 PUSH1 0x1F ADD PUSH1 0x20 DUP1 SWAP2 DIV MUL PUSH1 0x20 ADD PUSH1 0x40 MLOAD SWAP1 DUP2 ADD PUSH1 0x40 MSTORE DUP1 SWAP3 SWAP2 SWAP1 DUP2 DUP2 MSTORE PUSH1 0x20 ADD DUP3 DUP1 SLOAD PUSH2 0xB5F SWAP1 PUSH2 0x145B JUMP JUMPDEST DUP1 ISZERO PUSH2 0xBAC JUMPI DUP1 PUSH1 0x1F LT PUSH2 0xB81 JUMPI PUSH2 0x100 DUP1 DUP4 SLOAD DIV MUL DUP4 MSTORE SWAP2 PUSH1 0x20 ADD SWAP2 PUSH2 0xBAC JUMP JUMPDEST DUP3 ADD SWAP2 SWAP1 PUSH1 0x0 MSTORE PUSH1 0x20 PUSH1 0x0 KECCAK256 SWAP1 JUMPDEST DUP2 SLOAD DUP2 MSTORE SWAP1 PUSH1 0x1 ADD SWAP1 PUSH1 0x20 ADD DUP1 DUP4 GT PUSH2 0xB8F JUMPI DUP3 SWAP1 SUB PUSH1 0x1F AND DUP3 ADD SWAP2 JUMPDEST POP POP POP POP POP SWAP1 POP DUP7 JUMP JUMPDEST PUSH1 0xA PUSH1 0x20 MSTORE DUP1 PUSH1 0x0 MSTORE PUSH1 0x40 PUSH1 0x0 KECCAK256 PUSH1 0x0 SWAP2 POP SLOAD SWAP1 PUSH2 0x100 EXP SWAP1 DIV PUSH20 0xFFFFFFFFFFFFFFFFFFFFFFFFFFFFFFFFFFFFFFFF AND DUP2 JUMP JUMPDEST PUSH1 0x1 PUSH1 0x0 SWAP1 SLOAD SWAP1 PUSH2 0x100 EXP SWAP1 DIV PUSH20 0xFFFFFFFFFFFFFFFFFFFFFFFFFFFFFFFFFFFFFFFF AND DUP2 JUMP JUMPDEST PUSH1 0x60 PUSH1 0x9 PUSH1 0x0 DUP4 PUSH20 0xFFFFFFFFFFFFFFFFFFFFFFFFFFFFFFFFFFFFFFFF AND PUSH20 0xFFFFFFFFFFFFFFFFFFFFFFFFFFFFFFFFFFFFFFFF AND DUP2 MSTORE PUSH1 0x20 ADD SWAP1 DUP2 MSTORE PUSH1 0x20 ADD PUSH1 0x0 KECCAK256 DUP1 SLOAD DUP1 PUSH1 0x20 MUL PUSH1 0x20 ADD PUSH1 0x40 MLOAD SWAP1 DUP2 ADD PUSH1 0x40 MSTORE DUP1 SWAP3 SWAP2 SWAP1 DUP2 DUP2 MSTORE PUSH1 0x20 ADD DUP3 DUP1 SLOAD DUP1 ISZERO PUSH2 0xC9A JUMPI PUSH1 0x20 MUL DUP3 ADD SWAP2 SWAP1 PUSH1 0x0 MSTORE PUSH1 0x20 PUSH1 0x0 KECCAK256 SWAP1 JUMPDEST DUP2 SLOAD DUP2 MSTORE PUSH1 0x20 ADD SWAP1 PUSH1 0x1 ADD SWAP1 DUP1 DUP4 GT PUSH2 0xC86 JUMPI JUMPDEST POP POP POP POP POP SWAP1 POP SWAP2 SWAP1 POP JUMP JUMPDEST PUSH1 0x9 PUSH1 0x20 MSTORE DUP2 PUSH1 0x0 MSTORE PUSH1 0x40 PUSH1 0x0 KECCAK256 DUP2 DUP2 SLOAD DUP2 LT PUSH2 0xCC2 JUMPI PUSH1 0x0 DUP1 REVERT JUMPDEST SWAP1 PUSH1 0x0 MSTORE PUSH1 0x20 PUSH1 0x0 KECCAK256 ADD PUSH1 0x0 SWAP2 POP SWAP2 POP POP SLOAD DUP2 JUMP JUMPDEST DUP3 DUP1 SLOAD PUSH2 0xCE3 SWAP1 PUSH2 0x145B JUMP JUMPDEST SWAP1 PUSH1 0x0 MSTORE PUSH1 0x20 PUSH1 0x0 KECCAK256 SWAP1 PUSH1 0x1F ADD PUSH1 0x20 SWAP1 DIV DUP2 ADD SWAP3 DUP3 PUSH2 0xD05 JUMPI PUSH1 0x0 DUP6 SSTORE PUSH2 0xD4C JUMP JUMPDEST DUP3 PUSH1 0x1F LT PUSH2 0xD1E JUMPI DUP1 MLOAD PUSH1 0xFF NOT AND DUP4 DUP1 ADD OR DUP6 SSTORE PUSH2 0xD4C JUMP JUMPDEST DUP3 DUP1 ADD PUSH1 0x1 ADD DUP6 SSTORE DUP3 ISZERO PUSH2 0xD4C JUMPI SWAP2 DUP3 ADD JUMPDEST DUP3 DUP2 GT ISZERO PUSH2 0xD4B JUMPI DUP3 MLOAD DUP3 SSTORE SWAP2 PUSH1 0x20 ADD SWAP2 SWAP1 PUSH1 0x1 ADD SWAP1 PUSH2 0xD30 JUMP JUMPDEST JUMPDEST POP SWAP1 POP PUSH2 0xD59 SWAP2 SWAP1 PUSH2 0xD5D JUMP JUMPDEST POP SWAP1 JUMP JUMPDEST JUMPDEST DUP1 DUP3 GT ISZERO PUSH2 0xD76 JUMPI PUSH1 0x0 DUP2 PUSH1 0x0 SWAP1 SSTORE POP PUSH1 0x1 ADD PUSH2 0xD5E JUMP JUMPDEST POP SWAP1 JUMP JUMPDEST PUSH1 0x0 PUSH1 0x40 MLOAD SWAP1 POP SWAP1 JUMP JUMPDEST PUSH1 0x0 DUP1 REVERT JUMPDEST PUSH1 0x0 DUP1 REVERT JUMPDEST PUSH1 0x0 PUSH20 0xFFFFFFFFFFFFFFFFFFFFFFFFFFFFFFFFFFFFFFFF DUP3 AND SWAP1 POP SWAP2 SWAP1 POP JUMP JUMPDEST PUSH1 0x0 PUSH2 0xDB9 DUP3 PUSH2 0xD8E JUMP JUMPDEST SWAP1 POP SWAP2 SWAP1 POP JUMP JUMPDEST PUSH2 0xDC9 DUP2 PUSH2 0xDAE JUMP JUMPDEST DUP2 EQ PUSH2 0xDD4 JUMPI PUSH1 0x0 DUP1 REVERT JUMPDEST POP JUMP JUMPDEST PUSH1 0x0 DUP2 CALLDATALOAD SWAP1 POP PUSH2 0xDE6 DUP2 PUSH2 0xDC0 JUMP JUMPDEST SWAP3 SWAP2 POP POP JUMP JUMPDEST PUSH1 0x0 DUP2 SWAP1 POP SWAP2 SWAP1 POP JUMP JUMPDEST PUSH2 0xDFF DUP2 PUSH2 0xDEC JUMP JUMPDEST DUP2 EQ PUSH2 0xE0A JUMPI PUSH1 0x0 DUP1 REVERT JUMPDEST POP JUMP JUMPDEST PUSH1 0x0 DUP2 CALLDATALOAD SWAP1 POP PUSH2 0xE1C DUP2 PUSH2 0xDF6 JUMP JUMPDEST SWAP3 SWAP2 POP POP JUMP JUMPDEST PUSH1 0x0 DUP1 PUSH1 0x40 DUP4 DUP6 SUB SLT ISZERO PUSH2 0xE39 JUMPI PUSH2 0xE38 PUSH2 0xD84 JUMP JUMPDEST JUMPDEST PUSH1 0x0 PUSH2 0xE47 DUP6 DUP3 DUP7 ADD PUSH2 0xDD7 JUMP JUMPDEST SWAP3 POP POP PUSH1 0x20 PUSH2 0xE58 DUP6 DUP3 DUP7 ADD PUSH2 0xE0D JUMP JUMPDEST SWAP2 POP POP SWAP3 POP SWAP3 SWAP1 POP JUMP JUMPDEST PUSH1 0x0 DUP2 MLOAD SWAP1 POP SWAP2 SWAP1 POP JUMP JUMPDEST PUSH1 0x0 DUP3 DUP3 MSTORE PUSH1 0x20 DUP3 ADD SWAP1 POP SWAP3 SWAP2 POP POP JUMP JUMPDEST PUSH1 0x0 JUMPDEST DUP4 DUP2 LT ISZERO PUSH2 0xE9C JUMPI DUP1 DUP3 ADD MLOAD DUP2 DUP5 ADD MSTORE PUSH1 0x20 DUP2 ADD SWAP1 POP PUSH2 0xE81 JUMP JUMPDEST DUP4 DUP2 GT ISZERO PUSH2 0xEAB JUMPI PUSH1 0x0 DUP5 DUP5 ADD MSTORE JUMPDEST POP POP POP POP JUMP JUMPDEST PUSH1 0x0 PUSH1 0x1F NOT PUSH1 0x1F DUP4 ADD AND SWAP1 POP SWAP2 SWAP1 POP JUMP JUMPDEST PUSH1 0x0 PUSH2 0xECD DUP3 PUSH2 0xE62 JUMP JUMPDEST PUSH2 0xED7 DUP2 DUP6 PUSH2 0xE6D JUMP JUMPDEST SWAP4 POP PUSH2 0xEE7 DUP2 DUP6 PUSH1 0x20 DUP7 ADD PUSH2 0xE7E JUMP JUMPDEST PUSH2 0xEF0 DUP2 PUSH2 0xEB1 JUMP JUMPDEST DUP5 ADD SWAP2 POP POP SWAP3 SWAP2 POP POP JUMP JUMPDEST PUSH1 0x0 PUSH1 0x20 DUP3 ADD SWAP1 POP DUP2 DUP2 SUB PUSH1 0x0 DUP4 ADD MSTORE PUSH2 0xF15 DUP2 DUP5 PUSH2 0xEC2 JUMP JUMPDEST SWAP1 POP SWAP3 SWAP2 POP POP JUMP JUMPDEST PUSH2 0xF26 DUP2 PUSH2 0xDEC JUMP JUMPDEST DUP3 MSTORE POP POP JUMP JUMPDEST PUSH1 0x0 PUSH1 0x20 DUP3 ADD SWAP1 POP PUSH2 0xF41 PUSH1 0x0 DUP4 ADD DUP5 PUSH2 0xF1D JUMP JUMPDEST SWAP3 SWAP2 POP POP JUMP JUMPDEST PUSH1 0x0 PUSH1 0xC0 DUP3 ADD SWAP1 POP DUP2 DUP2 SUB PUSH1 0x0 DUP4 ADD MSTORE PUSH2 0xF61 DUP2 DUP10 PUSH2 0xEC2 JUMP JUMPDEST SWAP1 POP PUSH2 0xF70 PUSH1 0x20 DUP4 ADD DUP9 PUSH2 0xF1D JUMP JUMPDEST DUP2 DUP2 SUB PUSH1 0x40 DUP4 ADD MSTORE PUSH2 0xF82 DUP2 DUP8 PUSH2 0xEC2 JUMP JUMPDEST SWAP1 POP DUP2 DUP2 SUB PUSH1 0x60 DUP4 ADD MSTORE PUSH2 0xF96 DUP2 DUP7 PUSH2 0xEC2 JUMP JUMPDEST SWAP1 POP DUP2 DUP2 SUB PUSH1 0x80 DUP4 ADD MSTORE PUSH2 0xFAA DUP2 DUP6 PUSH2 0xEC2 JUMP JUMPDEST SWAP1 POP DUP2 DUP2 SUB PUSH1 0xA0 DUP4 ADD MSTORE PUSH2 0xFBE DUP2 DUP5 PUSH2 0xEC2 JUMP JUMPDEST SWAP1 POP SWAP8 SWAP7 POP POP POP POP POP POP POP JUMP JUMPDEST PUSH1 0x0 DUP1 REVERT JUMPDEST PUSH1 0x0 DUP1 REVERT JUMPDEST PUSH32 0x4E487B7100000000000000000000000000000000000000000000000000000000 PUSH1 0x0 MSTORE PUSH1 0x41 PUSH1 0x4 MSTORE PUSH1 0x24 PUSH1 0x0 REVERT JUMPDEST PUSH2 0x100D DUP3 PUSH2 0xEB1 JUMP JUMPDEST DUP2 ADD DUP2 DUP2 LT PUSH8 0xFFFFFFFFFFFFFFFF DUP3 GT OR ISZERO PUSH2 0x102C JUMPI PUSH2 0x102B PUSH2 0xFD5 JUMP JUMPDEST JUMPDEST DUP1 PUSH1 0x40 MSTORE POP POP POP JUMP JUMPDEST PUSH1 0x0 PUSH2 0x103F PUSH2 0xD7A JUMP JUMPDEST SWAP1 POP PUSH2 0x104B DUP3 DUP3 PUSH2 0x1004 JUMP JUMPDEST SWAP2 SWAP1 POP JUMP JUMPDEST PUSH1 0x0 PUSH8 0xFFFFFFFFFFFFFFFF DUP3 GT ISZERO PUSH2 0x106B JUMPI PUSH2 0x106A PUSH2 0xFD5 JUMP JUMPDEST JUMPDEST PUSH2 0x1074 DUP3 PUSH2 0xEB1 JUMP JUMPDEST SWAP1 POP PUSH1 0x20 DUP2 ADD SWAP1 POP SWAP2 SWAP1 POP JUMP JUMPDEST DUP3 DUP2 DUP4 CALLDATACOPY PUSH1 0x0 DUP4 DUP4 ADD MSTORE POP POP POP JUMP JUMPDEST PUSH1 0x0 PUSH2 0x10A3 PUSH2 0x109E DUP5 PUSH2 0x1050 JUMP JUMPDEST PUSH2 0x1035 JUMP JUMPDEST SWAP1 POP DUP3 DUP2 MSTORE PUSH1 0x20 DUP2 ADD DUP5 DUP5 DUP5 ADD GT ISZERO PUSH2 0x10BF JUMPI PUSH2 0x10BE PUSH2 0xFD0 JUMP JUMPDEST JUMPDEST PUSH2 0x10CA DUP5 DUP3 DUP6 PUSH2 0x1081 JUMP JUMPDEST POP SWAP4 SWAP3 POP POP POP JUMP JUMPDEST PUSH1 0x0 DUP3 PUSH1 0x1F DUP4 ADD SLT PUSH2 0x10E7 JUMPI PUSH2 0x10E6 PUSH2 0xFCB JUMP JUMPDEST JUMPDEST DUP2 CALLDATALOAD PUSH2 0x10F7 DUP5 DUP3 PUSH1 0x20 DUP7 ADD PUSH2 0x1090 JUMP JUMPDEST SWAP2 POP POP SWAP3 SWAP2 POP POP JUMP JUMPDEST PUSH1 0x0 DUP1 PUSH1 0x0 DUP1 PUSH1 0x0 DUP1 PUSH1 0xC0 DUP8 DUP10 SUB SLT ISZERO PUSH2 0x111D JUMPI PUSH2 0x111C PUSH2 0xD84 JUMP JUMPDEST JUMPDEST PUSH1 0x0 DUP8 ADD CALLDATALOAD PUSH8 0xFFFFFFFFFFFFFFFF DUP2 GT ISZERO PUSH2 0x113B JUMPI PUSH2 0x113A PUSH2 0xD89 JUMP JUMPDEST JUMPDEST PUSH2 0x1147 DUP10 DUP3 DUP11 ADD PUSH2 0x10D2 JUMP JUMPDEST SWAP7 POP POP PUSH1 0x20 PUSH2 0x1158 DUP10 DUP3 DUP11 ADD PUSH2 0xE0D JUMP JUMPDEST SWAP6 POP POP PUSH1 0x40 DUP8 ADD CALLDATALOAD PUSH8 0xFFFFFFFFFFFFFFFF DUP2 GT ISZERO PUSH2 0x1179 JUMPI PUSH2 0x1178 PUSH2 0xD89 JUMP JUMPDEST JUMPDEST PUSH2 0x1185 DUP10 DUP3 DUP11 ADD PUSH2 0x10D2 JUMP JUMPDEST SWAP5 POP POP PUSH1 0x60 DUP8 ADD CALLDATALOAD PUSH8 0xFFFFFFFFFFFFFFFF DUP2 GT ISZERO PUSH2 0x11A6 JUMPI PUSH2 0x11A5 PUSH2 0xD89 JUMP JUMPDEST JUMPDEST PUSH2 0x11B2 DUP10 DUP3 DUP11 ADD PUSH2 0x10D2 JUMP JUMPDEST SWAP4 POP POP PUSH1 0x80 DUP8 ADD CALLDATALOAD PUSH8 0xFFFFFFFFFFFFFFFF DUP2 GT ISZERO PUSH2 0x11D3 JUMPI PUSH2 0x11D2 PUSH2 0xD89 JUMP JUMPDEST JUMPDEST PUSH2 0x11DF DUP10 DUP3 DUP11 ADD PUSH2 0x10D2 JUMP JUMPDEST SWAP3 POP POP PUSH1 0xA0 DUP8 ADD CALLDATALOAD PUSH8 0xFFFFFFFFFFFFFFFF DUP2 GT ISZERO PUSH2 0x1200 JUMPI PUSH2 0x11FF PUSH2 0xD89 JUMP JUMPDEST JUMPDEST PUSH2 0x120C DUP10 DUP3 DUP11 ADD PUSH2 0x10D2 JUMP JUMPDEST SWAP2 POP POP SWAP3 SWAP6 POP SWAP3 SWAP6 POP SWAP3 SWAP6 JUMP JUMPDEST PUSH1 0x0 DUP1 PUSH1 0x40 DUP4 DUP6 SUB SLT ISZERO PUSH2 0x1230 JUMPI PUSH2 0x122F PUSH2 0xD84 JUMP JUMPDEST JUMPDEST PUSH1 0x0 PUSH2 0x123E DUP6 DUP3 DUP7 ADD PUSH2 0xE0D JUMP JUMPDEST SWAP3 POP POP PUSH1 0x20 PUSH2 0x124F DUP6 DUP3 DUP7 ADD PUSH2 0xDD7 JUMP JUMPDEST SWAP2 POP POP SWAP3 POP SWAP3 SWAP1 POP JUMP JUMPDEST PUSH1 0x0 DUP1 PUSH1 0x0 PUSH1 0x60 DUP5 DUP7 SUB SLT ISZERO PUSH2 0x1272 JUMPI PUSH2 0x1271 PUSH2 0xD84 JUMP JUMPDEST JUMPDEST PUSH1 0x0 DUP5 ADD CALLDATALOAD PUSH8 0xFFFFFFFFFFFFFFFF DUP2 GT ISZERO PUSH2 0x1290 JUMPI PUSH2 0x128F PUSH2 0xD89 JUMP JUMPDEST JUMPDEST PUSH2 0x129C DUP7 DUP3 DUP8 ADD PUSH2 0x10D2 JUMP JUMPDEST SWAP4 POP POP PUSH1 0x20 PUSH2 0x12AD DUP7 DUP3 DUP8 ADD PUSH2 0xDD7 JUMP JUMPDEST SWAP3 POP POP PUSH1 0x40 PUSH2 0x12BE DUP7 DUP3 DUP8 ADD PUSH2 0xE0D JUMP JUMPDEST SWAP2 POP POP SWAP3 POP SWAP3 POP SWAP3 JUMP JUMPDEST PUSH2 0x12D1 DUP2 PUSH2 0xDAE JUMP JUMPDEST DUP3 MSTORE POP POP JUMP JUMPDEST PUSH1 0x0 PUSH1 0x20 DUP3 ADD SWAP1 POP PUSH2 0x12EC PUSH1 0x0 DUP4 ADD DUP5 PUSH2 0x12C8 JUMP JUMPDEST SWAP3 SWAP2 POP POP JUMP JUMPDEST PUSH1 0x0 PUSH1 0x20 DUP3 DUP5 SUB SLT ISZERO PUSH2 0x1308 JUMPI PUSH2 0x1307 PUSH2 0xD84 JUMP JUMPDEST JUMPDEST PUSH1 0x0 PUSH2 0x1316 DUP5 DUP3 DUP6 ADD PUSH2 0xE0D JUMP JUMPDEST SWAP2 POP POP SWAP3 SWAP2 POP POP JUMP JUMPDEST PUSH1 0x0 PUSH1 0x20 DUP3 DUP5 SUB SLT ISZERO PUSH2 0x1335 JUMPI PUSH2 0x1334 PUSH2 0xD84 JUMP JUMPDEST JUMPDEST PUSH1 0x0 PUSH2 0x1343 DUP5 DUP3 DUP6 ADD PUSH2 0xDD7 JUMP JUMPDEST SWAP2 POP POP SWAP3 SWAP2 POP POP JUMP JUMPDEST PUSH1 0x0 DUP2 MLOAD SWAP1 POP SWAP2 SWAP1 POP JUMP JUMPDEST PUSH1 0x0 DUP3 DUP3 MSTORE PUSH1 0x20 DUP3 ADD SWAP1 POP SWAP3 SWAP2 POP POP JUMP JUMPDEST PUSH1 0x0 DUP2 SWAP1 POP PUSH1 0x20 DUP3 ADD SWAP1 POP SWAP2 SWAP1 POP JUMP JUMPDEST PUSH2 0x1381 DUP2 PUSH2 0xDEC JUMP JUMPDEST DUP3 MSTORE POP POP JUMP JUMPDEST PUSH1 0x0 PUSH2 0x1393 DUP4 DUP4 PUSH2 0x1378 JUMP JUMPDEST PUSH1 0x20 DUP4 ADD SWAP1 POP SWAP3 SWAP2 POP POP JUMP JUMPDEST PUSH1 0x0 PUSH1 0x20 DUP3 ADD SWAP1 POP SWAP2 SWAP1 POP JUMP JUMPDEST PUSH1 0x0 PUSH2 0x13B7 DUP3 PUSH2 0x134C JUMP JUMPDEST PUSH2 0x13C1 DUP2 DUP6 PUSH2 0x1357 JUMP JUMPDEST SWAP4 POP PUSH2 0x13CC DUP4 PUSH2 0x1368 JUMP JUMPDEST DUP1 PUSH1 0x0 JUMPDEST DUP4 DUP2 LT ISZERO PUSH2 0x13FD JUMPI DUP2 MLOAD PUSH2 0x13E4 DUP9 DUP3 PUSH2 0x1387 JUMP JUMPDEST SWAP8 POP PUSH2 0x13EF DUP4 PUSH2 0x139F JUMP JUMPDEST SWAP3 POP POP PUSH1 0x1 DUP2 ADD SWAP1 POP PUSH2 0x13D0 JUMP JUMPDEST POP DUP6 SWAP4 POP POP POP POP SWAP3 SWAP2 POP POP JUMP JUMPDEST PUSH1 0x0 PUSH1 0x20 DUP3 ADD SWAP1 POP DUP2 DUP2 SUB PUSH1 0x0 DUP4 ADD MSTORE PUSH2 0x1424 DUP2 DUP5 PUSH2 0x13AC JUMP JUMPDEST SWAP1 POP SWAP3 SWAP2 POP POP JUMP JUMPDEST PUSH32 0x4E487B7100000000000000000000000000000000000000000000000000000000 PUSH1 0x0 MSTORE PUSH1 0x22 PUSH1 0x4 MSTORE PUSH1 0x24 PUSH1 0x0 REVERT JUMPDEST PUSH1 0x0 PUSH1 0x2 DUP3 DIV SWAP1 POP PUSH1 0x1 DUP3 AND DUP1 PUSH2 0x1473 JUMPI PUSH1 0x7F DUP3 AND SWAP2 POP JUMPDEST PUSH1 0x20 DUP3 LT DUP2 EQ ISZERO PUSH2 0x1487 JUMPI PUSH2 0x1486 PUSH2 0x142C JUMP JUMPDEST JUMPDEST POP SWAP2 SWAP1 POP JUMP JUMPDEST PUSH32 0x4E487B7100000000000000000000000000000000000000000000000000000000 PUSH1 0x0 MSTORE PUSH1 0x11 PUSH1 0x4 MSTORE PUSH1 0x24 PUSH1 0x0 REVERT JUMPDEST PUSH1 0x0 PUSH2 0x14C7 DUP3 PUSH2 0xDEC JUMP JUMPDEST SWAP2 POP PUSH2 0x14D2 DUP4 PUSH2 0xDEC JUMP JUMPDEST SWAP3 POP DUP3 PUSH32 0xFFFFFFFFFFFFFFFFFFFFFFFFFFFFFFFFFFFFFFFFFFFFFFFFFFFFFFFFFFFFFFFF SUB DUP3 GT ISZERO PUSH2 0x1507 JUMPI PUSH2 0x1506 PUSH2 0x148D JUMP JUMPDEST JUMPDEST DUP3 DUP3 ADD SWAP1 POP SWAP3 SWAP2 POP POP JUMP INVALID LOG2 PUSH5 0x6970667358 0x22 SLT KECCAK256 0xBA 0xAA SWAP8 DUP7 ADDMOD MSIZE DUP8 0xEF 0xA6 0xBA RETURNDATACOPY CALLER 0xBD 0xB3 PUSH18 0xFA782EC4F63D2E5C7504932BA0F9A9542B64 PUSH20 0x6F6C634300080900330000000000000000000000 "},"gasEstimates":{"creation":{"codeDepositCost":"1089600","executionCost":"infinite","totalCost":"infinite"},"external":{"Factory()":"2558","Prof()":"2534","addComments(string,address,uint256)":"infinite","addReports(uint256,address)":"infinite","changeProfDetails(string,uint256,string,string,string,string)":"infinite","comments(address,uint256)":"infinite","getPatientReports(address)":"infinite","getProfDetails()":"infinite","patientCount()":"2474","patientReports(address,uint256)":"infinite","patientTrack(uint256)":"2861","profDetails()":"infinite","reportCount()":"2452"}},"methodIdentifiers":{"Factory()":"c83dd231","Prof()":"851a94c9","addComments(string,address,uint256)":"4e1cc351","addReports(uint256,address)":"376f4e49","changeProfDetails(string,uint256,string,string,string,string)":"2be8454a","comments(address,uint256)":"0c4174b7","getPatientReports(address)":"e65a0691","getProfDetails()":"21ffccf1","patientCount()":"a0303c41","patientReports(address,uint256)":"fb986606","patientTrack(uint256)":"b7d4477c","profDetails()":"aee554ff","reportCount()":"185c6f84"}},"storageLayout":{"storage":[{"astId":478,"contract":"factoryContract.sol:medicalProfContract","label":"Prof","offset":0,"slot":"0","type":"t_address"},{"astId":480,"contract":"factoryContract.sol:medicalProfContract","label":"Factory","offset":0,"slot":"1","type":"t_address"},{"astId":482,"contract":"factoryContract.sol:medicalProfContract","label":"reportCount","offset":0,"slot":"2","type":"t_uint256"},{"astId":498,"contract":"factoryContract.sol:medicalProfContract","label":"profDetails","offset":0,"slot":"3","type":"t_struct(details)495_storage"},{"astId":503,"contract":"factoryContract.sol:medicalProfContract","label":"patientReports","offset":0,"slot":"9","type":"t_mapping(t_address,t_array(t_uint256)dyn_storage)"},{"astId":507,"contract":"factoryContract.sol:medicalProfContract","label":"patientTrack","offset":0,"slot":"10","type":"t_mapping(t_uint256,t_address)"},{"astId":509,"contract":"factoryContract.sol:medicalProfContract","label":"patientCount","offset":0,"slot":"11","type":"t_uint256"},{"astId":515,"contract":"factoryContract.sol:medicalProfContract","label":"comments","offset":0,"slot":"12","type":"t_mapping(t_address,t_mapping(t_uint256,t_string_storage))"}],"types":{"t_address":{"encoding":"inplace","label":"address","numberOfBytes":"20"},"t_array(t_uint256)dyn_storage":{"base":"t_uint256","encoding":"dynamic_array","label":"uint256[]","numberOfBytes":"32"},"t_mapping(t_address,t_array(t_uint256)dyn_storage)":{"encoding":"mapping","key":"t_address","label":"mapping(address => uint256[])","numberOfBytes":"32","value":"t_array(t_uint256)dyn_storage"},"t_mapping(t_address,t_mapping(t_uint256,t_string_storage))":{"encoding":"mapping","key":"t_address","label":"mapping(address => mapping(uint256 => string))","numberOfBytes":"32","value":"t_mapping(t_uint256,t_string_storage)"},"t_mapping(t_uint256,t_address)":{"encoding":"mapping","key":"t_uint256","label":"mapping(uint256 => address)","numberOfBytes":"32","value":"t_address"},"t_mapping(t_uint256,t_string_storage)":{"encoding":"mapping","key":"t_uint256","label":"mapping(uint256 => string)","numberOfBytes":"32","value":"t_string_storage"},"t_string_storage":{"encoding":"bytes","label":"string","numberOfBytes":"32"},"t_struct(details)495_storage":{"encoding":"inplace","label":"struct medicalProfContract.details","members":[{"astId":484,"contract":"factoryContract.sol:medicalProfContract","label":"profName","offset":0,"slot":"0","type":"t_string_storage"},{"astId":486,"contract":"factoryContract.sol:medicalProfContract","label":"age","offset":0,"slot":"1","type":"t_uint256"},{"astId":488,"contract":"factoryContract.sol:medicalProfContract","label":"gender","offset":0,"slot":"2","type":"t_string_storage"},{"astId":490,"contract":"factoryContract.sol:medicalProfContract","label":"hospital","offset":0,"slot":"3","type":"t_string_storage"},{"astId":492,"contract":"factoryContract.sol:medicalProfContract","label":"hospitalId","offset":0,"slot":"4","type":"t_string_storage"},{"astId":494,"contract":"factoryContract.sol:medicalProfContract","label":"email","offset":0,"slot":"5","type":"t_string_storage"}],"numberOfBytes":"192"},"t_uint256":{"encoding":"inplace","label":"uint256","numberOfBytes":"32"}}},"userdoc":{"kind":"user","methods":{},"version":1}}