{"abi":[{"inputs":[{"internalType":"string","name":"_name","type":"string"},{"internalType":"uint256","name":"_age","type":"uint256"},{"internalType":"string","name":"_birth","type":"string"},{"internalType":"string","name":"_gender","type":"string"},{"internalType":"string","name":"_phone","type":"string"},{"internalType":"address","name":"patient","type":"address"},{"internalType":"address","name":"factory","type":"address"}],"stateMutability":"nonpayable","type":"constructor"},{"anonymous":false,"inputs":[{"indexed":false,"internalType":"address","name":"profAddr","type":"address"}],"name":"addressProf","type":"event"},{"inputs":[],"name":"Factory","outputs":[{"internalType":"address","name":"","type":"address"}],"stateMutability":"view","type":"function"},{"inputs":[],"name":"Patient","outputs":[{"internalType":"address","name":"","type":"address"}],"stateMutability":"view","type":"function"},{"inputs":[{"internalType":"uint256","name":"","type":"uint256"}],"name":"allMedProf","outputs":[{"internalType":"address","name":"","type":"address"}],"stateMutability":"view","type":"function"},{"inputs":[{"internalType":"string","name":"_name","type":"string"},{"internalType":"uint256","name":"_age","type":"uint256"},{"internalType":"string","name":"_birth","type":"string"},{"internalType":"string","name":"_gender","type":"string"},{"internalType":"string","name":"_phone","type":"string"}],"name":"changePatientDetails","outputs":[],"stateMutability":"nonpayable","type":"function"},{"inputs":[{"internalType":"address","name":"","type":"address"}],"name":"dataAccess","outputs":[{"internalType":"bool","name":"","type":"bool"}],"stateMutability":"view","type":"function"},{"inputs":[],"name":"docsCount","outputs":[{"internalType":"uint256","name":"","type":"uint256"}],"stateMutability":"view","type":"function"},{"inputs":[],"name":"getPatientDetails","outputs":[{"internalType":"string","name":"","type":"string"},{"internalType":"uint256","name":"","type":"uint256"},{"internalType":"string","name":"","type":"string"},{"internalType":"string","name":"","type":"string"},{"internalType":"string","name":"","type":"string"}],"stateMutability":"view","type":"function"},{"inputs":[{"internalType":"uint256","name":"index","type":"uint256"}],"name":"getPatientDocs","outputs":[{"internalType":"string","name":"","type":"string"}],"stateMutability":"view","type":"function"},{"inputs":[{"internalType":"string","name":"data","type":"string"},{"internalType":"uint256","name":"curr","type":"uint256"}],"name":"insertPatientDocs","outputs":[],"stateMutability":"nonpayable","type":"function"},{"inputs":[{"internalType":"uint256","name":"","type":"uint256"}],"name":"isValidated","outputs":[{"internalType":"bool","name":"","type":"bool"}],"stateMutability":"view","type":"function"},{"inputs":[],"name":"patientDetails","outputs":[{"internalType":"string","name":"patientName","type":"string"},{"internalType":"uint256","name":"age","type":"uint256"},{"internalType":"string","name":"birth","type":"string"},{"internalType":"string","name":"gender","type":"string"},{"internalType":"string","name":"phone","type":"string"}],"stateMutability":"view","type":"function"},{"inputs":[],"name":"profCount","outputs":[{"internalType":"uint256","name":"","type":"uint256"}],"stateMutability":"view","type":"function"},{"inputs":[{"internalType":"address","name":"","type":"address"}],"name":"profTrack","outputs":[{"internalType":"bool","name":"","type":"bool"}],"stateMutability":"view","type":"function"},{"inputs":[{"internalType":"address","name":"requester","type":"address"}],"name":"provideAccess","outputs":[],"stateMutability":"nonpayable","type":"function"},{"inputs":[{"internalType":"uint256","name":"","type":"uint256"}],"name":"retriveDocs","outputs":[{"internalType":"string","name":"doc","type":"string"},{"internalType":"uint256","name":"docTime","type":"uint256"}],"stateMutability":"view","type":"function"}],"devdoc":{"kind":"dev","methods":{},"version":1},"evm":{"assembly":"    /* \"factoryContract.sol\":1828:5198  contract patientContract{... */\n  mstore(0x40, 0x80)\n    /* \"factoryContract.sol\":2523:3076  constructor(string memory _name, uint _age, string memory _birth, string memory _gender,string memory _phone, address patient, address factory){... */\n  callvalue\n  dup1\n  iszero\n  tag_1\n  jumpi\n  0x00\n  dup1\n  revert\ntag_1:\n  pop\n  mload(0x40)\n  sub(codesize, bytecodeSize)\n  dup1\n  bytecodeSize\n  dup4\n  codecopy\n  dup2\n  dup2\n  add\n  0x40\n  mstore\n  dup2\n  add\n  swap1\n  tag_2\n  swap2\n  swap1\n  tag_3\n  jump\t// in\ntag_2:\n    /* \"factoryContract.sol\":2687:2694  patient */\n  dup2\n    /* \"factoryContract.sol\":2677:2684  Patient */\n  0x01\n  0x00\n    /* \"factoryContract.sol\":2677:2694  Patient = patient */\n  0x0100\n  exp\n  dup2\n  sload\n  dup2\n  0xffffffffffffffffffffffffffffffffffffffff\n  mul\n  not\n  and\n  swap1\n  dup4\n  0xffffffffffffffffffffffffffffffffffffffff\n  and\n  mul\n  or\n  swap1\n  sstore\n  pop\n    /* \"factoryContract.sol\":2705:2737  details memory newStructInstance */\n  0x00\n    /* \"factoryContract.sol\":2740:2956  details({... */\n  mload(0x40)\n  dup1\n  0xa0\n  add\n  0x40\n  mstore\n  dup1\n    /* \"factoryContract.sol\":2776:2781  _name */\n  dup10\n    /* \"factoryContract.sol\":2740:2956  details({... */\n  dup2\n  mstore\n  0x20\n  add\n    /* \"factoryContract.sol\":2801:2805  _age */\n  dup9\n    /* \"factoryContract.sol\":2740:2956  details({... */\n  dup2\n  mstore\n  0x20\n  add\n    /* \"factoryContract.sol\":2828:2834  _birth */\n  dup8\n    /* \"factoryContract.sol\":2740:2956  details({... */\n  dup2\n  mstore\n  0x20\n  add\n    /* \"factoryContract.sol\":2858:2865  _gender */\n  dup7\n    /* \"factoryContract.sol\":2740:2956  details({... */\n  dup2\n  mstore\n  0x20\n  add\n    /* \"factoryContract.sol\":2888:2894  _phone */\n  dup6\n    /* \"factoryContract.sol\":2740:2956  details({... */\n  dup2\n  mstore\n  pop\n    /* \"factoryContract.sol\":2705:2956  details memory newStructInstance = details({... */\n  swap1\n  pop\n    /* \"factoryContract.sol\":2984:3001  newStructInstance */\n  dup1\n    /* \"factoryContract.sol\":2967:2981  patientDetails */\n  0x02\n    /* \"factoryContract.sol\":2967:3001  patientDetails = newStructInstance */\n  0x00\n  dup3\n  add\n  mload\n  dup2\n  0x00\n  add\n  swap1\n  dup1\n  mload\n  swap1\n  0x20\n  add\n  swap1\n  tag_6\n  swap3\n  swap2\n  swap1\n  tag_7\n  jump\t// in\ntag_6:\n  pop\n  0x20\n  dup3\n  add\n  mload\n  dup2\n  0x01\n  add\n  sstore\n  0x40\n  dup3\n  add\n  mload\n  dup2\n  0x02\n  add\n  swap1\n  dup1\n  mload\n  swap1\n  0x20\n  add\n  swap1\n  tag_8\n  swap3\n  swap2\n  swap1\n  tag_7\n  jump\t// in\ntag_8:\n  pop\n  0x60\n  dup3\n  add\n  mload\n  dup2\n  0x03\n  add\n  swap1\n  dup1\n  mload\n  swap1\n  0x20\n  add\n  swap1\n  tag_9\n  swap3\n  swap2\n  swap1\n  tag_7\n  jump\t// in\ntag_9:\n  pop\n  0x80\n  dup3\n  add\n  mload\n  dup2\n  0x04\n  add\n  swap1\n  dup1\n  mload\n  swap1\n  0x20\n  add\n  swap1\n  tag_10\n  swap3\n  swap2\n  swap1\n  tag_7\n  jump\t// in\ntag_10:\n  pop\n  swap1\n  pop\n  pop\n    /* \"factoryContract.sol\":3024:3031  factory */\n  dup2\n    /* \"factoryContract.sol\":3014:3021  Factory */\n  0x00\n  dup1\n    /* \"factoryContract.sol\":3014:3031  Factory = factory */\n  0x0100\n  exp\n  dup2\n  sload\n  dup2\n  0xffffffffffffffffffffffffffffffffffffffff\n  mul\n  not\n  and\n  swap1\n  dup4\n  0xffffffffffffffffffffffffffffffffffffffff\n  and\n  mul\n  or\n  swap1\n  sstore\n  pop\n    /* \"factoryContract.sol\":3064:3068  true */\n  0x01\n    /* \"factoryContract.sol\":3042:3052  dataAccess */\n  0x07\n    /* \"factoryContract.sol\":3042:3061  dataAccess[Patient] */\n  0x00\n    /* \"factoryContract.sol\":3053:3060  Patient */\n  0x01\n  0x00\n  swap1\n  sload\n  swap1\n  0x0100\n  exp\n  swap1\n  div\n  0xffffffffffffffffffffffffffffffffffffffff\n  and\n    /* \"factoryContract.sol\":3042:3061  dataAccess[Patient] */\n  0xffffffffffffffffffffffffffffffffffffffff\n  and\n  0xffffffffffffffffffffffffffffffffffffffff\n  and\n  dup2\n  mstore\n  0x20\n  add\n  swap1\n  dup2\n  mstore\n  0x20\n  add\n  0x00\n  keccak256\n  0x00\n    /* \"factoryContract.sol\":3042:3068  dataAccess[Patient] = true */\n  0x0100\n  exp\n  dup2\n  sload\n  dup2\n  0xff\n  mul\n  not\n  and\n  swap1\n  dup4\n  iszero\n  iszero\n  mul\n  or\n  swap1\n  sstore\n  pop\n    /* \"factoryContract.sol\":2666:3076  {... */\n  pop\n    /* \"factoryContract.sol\":2523:3076  constructor(string memory _name, uint _age, string memory _birth, string memory _gender,string memory _phone, address patient, address factory){... */\n  pop\n  pop\n  pop\n  pop\n  pop\n  pop\n  pop\n    /* \"factoryContract.sol\":1828:5198  contract patientContract{... */\n  jump(tag_11)\ntag_7:\n  dup3\n  dup1\n  sload\n  tag_12\n  swap1\n  tag_13\n  jump\t// in\ntag_12:\n  swap1\n  0x00\n  mstore\n  keccak256(0x00, 0x20)\n  swap1\n  0x1f\n  add\n  0x20\n  swap1\n  div\n  dup2\n  add\n  swap3\n  dup3\n  tag_15\n  jumpi\n  0x00\n  dup6\n  sstore\n  jump(tag_14)\ntag_15:\n  dup3\n  0x1f\n  lt\n  tag_16\n  jumpi\n  dup1\n  mload\n  not(0xff)\n  and\n  dup4\n  dup1\n  add\n  or\n  dup6\n  sstore\n  jump(tag_14)\ntag_16:\n  dup3\n  dup1\n  add\n  0x01\n  add\n  dup6\n  sstore\n  dup3\n  iszero\n  tag_14\n  jumpi\n  swap2\n  dup3\n  add\ntag_17:\n  dup3\n  dup2\n  gt\n  iszero\n  tag_18\n  jumpi\n  dup3\n  mload\n  dup3\n  sstore\n  swap2\n  0x20\n  add\n  swap2\n  swap1\n  0x01\n  add\n  swap1\n  jump(tag_17)\ntag_18:\ntag_14:\n  pop\n  swap1\n  pop\n  tag_19\n  swap2\n  swap1\n  tag_20\n  jump\t// in\ntag_19:\n  pop\n  swap1\n  jump\t// out\ntag_20:\ntag_21:\n  dup1\n  dup3\n  gt\n  iszero\n  tag_22\n  jumpi\n  0x00\n  dup2\n  0x00\n  swap1\n  sstore\n  pop\n  0x01\n  add\n  jump(tag_21)\ntag_22:\n  pop\n  swap1\n  jump\t// out\n    /* \"#utility.yul\":7:82   */\ntag_23:\n    /* \"#utility.yul\":40:46   */\n  0x00\n    /* \"#utility.yul\":73:75   */\n  0x40\n    /* \"#utility.yul\":67:76   */\n  mload\n    /* \"#utility.yul\":57:76   */\n  swap1\n  pop\n    /* \"#utility.yul\":7:82   */\n  swap1\n  jump\t// out\n    /* \"#utility.yul\":88:205   */\ntag_24:\n    /* \"#utility.yul\":197:198   */\n  0x00\n    /* \"#utility.yul\":194:195   */\n  dup1\n    /* \"#utility.yul\":187:199   */\n  revert\n    /* \"#utility.yul\":211:328   */\ntag_25:\n    /* \"#utility.yul\":320:321   */\n  0x00\n    /* \"#utility.yul\":317:318   */\n  dup1\n    /* \"#utility.yul\":310:322   */\n  revert\n    /* \"#utility.yul\":334:451   */\ntag_26:\n    /* \"#utility.yul\":443:444   */\n  0x00\n    /* \"#utility.yul\":440:441   */\n  dup1\n    /* \"#utility.yul\":433:445   */\n  revert\n    /* \"#utility.yul\":457:574   */\ntag_27:\n    /* \"#utility.yul\":566:567   */\n  0x00\n    /* \"#utility.yul\":563:564   */\n  dup1\n    /* \"#utility.yul\":556:568   */\n  revert\n    /* \"#utility.yul\":580:682   */\ntag_28:\n    /* \"#utility.yul\":621:627   */\n  0x00\n    /* \"#utility.yul\":672:674   */\n  0x1f\n    /* \"#utility.yul\":668:675   */\n  not\n    /* \"#utility.yul\":663:665   */\n  0x1f\n    /* \"#utility.yul\":656:661   */\n  dup4\n    /* \"#utility.yul\":652:666   */\n  add\n    /* \"#utility.yul\":648:676   */\n  and\n    /* \"#utility.yul\":638:676   */\n  swap1\n  pop\n    /* \"#utility.yul\":580:682   */\n  swap2\n  swap1\n  pop\n  jump\t// out\n    /* \"#utility.yul\":688:868   */\ntag_29:\n    /* \"#utility.yul\":736:813   */\n  0x4e487b7100000000000000000000000000000000000000000000000000000000\n    /* \"#utility.yul\":733:734   */\n  0x00\n    /* \"#utility.yul\":726:814   */\n  mstore\n    /* \"#utility.yul\":833:837   */\n  0x41\n    /* \"#utility.yul\":830:831   */\n  0x04\n    /* \"#utility.yul\":823:838   */\n  mstore\n    /* \"#utility.yul\":857:861   */\n  0x24\n    /* \"#utility.yul\":854:855   */\n  0x00\n    /* \"#utility.yul\":847:862   */\n  revert\n    /* \"#utility.yul\":874:1155   */\ntag_30:\n    /* \"#utility.yul\":957:984   */\n  tag_53\n    /* \"#utility.yul\":979:983   */\n  dup3\n    /* \"#utility.yul\":957:984   */\n  tag_28\n  jump\t// in\ntag_53:\n    /* \"#utility.yul\":949:955   */\n  dup2\n    /* \"#utility.yul\":945:985   */\n  add\n    /* \"#utility.yul\":1087:1093   */\n  dup2\n    /* \"#utility.yul\":1075:1085   */\n  dup2\n    /* \"#utility.yul\":1072:1094   */\n  lt\n    /* \"#utility.yul\":1051:1069   */\n  0xffffffffffffffff\n    /* \"#utility.yul\":1039:1049   */\n  dup3\n    /* \"#utility.yul\":1036:1070   */\n  gt\n    /* \"#utility.yul\":1033:1095   */\n  or\n    /* \"#utility.yul\":1030:1118   */\n  iszero\n  tag_54\n  jumpi\n    /* \"#utility.yul\":1098:1116   */\n  tag_55\n  tag_29\n  jump\t// in\ntag_55:\n    /* \"#utility.yul\":1030:1118   */\ntag_54:\n    /* \"#utility.yul\":1138:1148   */\n  dup1\n    /* \"#utility.yul\":1134:1136   */\n  0x40\n    /* \"#utility.yul\":1127:1149   */\n  mstore\n    /* \"#utility.yul\":917:1155   */\n  pop\n    /* \"#utility.yul\":874:1155   */\n  pop\n  pop\n  jump\t// out\n    /* \"#utility.yul\":1161:1290   */\ntag_31:\n    /* \"#utility.yul\":1195:1201   */\n  0x00\n    /* \"#utility.yul\":1222:1242   */\n  tag_57\n  tag_23\n  jump\t// in\ntag_57:\n    /* \"#utility.yul\":1212:1242   */\n  swap1\n  pop\n    /* \"#utility.yul\":1251:1284   */\n  tag_58\n    /* \"#utility.yul\":1279:1283   */\n  dup3\n    /* \"#utility.yul\":1271:1277   */\n  dup3\n    /* \"#utility.yul\":1251:1284   */\n  tag_30\n  jump\t// in\ntag_58:\n    /* \"#utility.yul\":1161:1290   */\n  swap2\n  swap1\n  pop\n  jump\t// out\n    /* \"#utility.yul\":1296:1604   */\ntag_32:\n    /* \"#utility.yul\":1358:1362   */\n  0x00\n    /* \"#utility.yul\":1448:1466   */\n  0xffffffffffffffff\n    /* \"#utility.yul\":1440:1446   */\n  dup3\n    /* \"#utility.yul\":1437:1467   */\n  gt\n    /* \"#utility.yul\":1434:1490   */\n  iszero\n  tag_60\n  jumpi\n    /* \"#utility.yul\":1470:1488   */\n  tag_61\n  tag_29\n  jump\t// in\ntag_61:\n    /* \"#utility.yul\":1434:1490   */\ntag_60:\n    /* \"#utility.yul\":1508:1537   */\n  tag_62\n    /* \"#utility.yul\":1530:1536   */\n  dup3\n    /* \"#utility.yul\":1508:1537   */\n  tag_28\n  jump\t// in\ntag_62:\n    /* \"#utility.yul\":1500:1537   */\n  swap1\n  pop\n    /* \"#utility.yul\":1592:1596   */\n  0x20\n    /* \"#utility.yul\":1586:1590   */\n  dup2\n    /* \"#utility.yul\":1582:1597   */\n  add\n    /* \"#utility.yul\":1574:1597   */\n  swap1\n  pop\n    /* \"#utility.yul\":1296:1604   */\n  swap2\n  swap1\n  pop\n  jump\t// out\n    /* \"#utility.yul\":1610:1917   */\ntag_33:\n    /* \"#utility.yul\":1678:1679   */\n  0x00\n    /* \"#utility.yul\":1688:1801   */\ntag_64:\n    /* \"#utility.yul\":1702:1708   */\n  dup4\n    /* \"#utility.yul\":1699:1700   */\n  dup2\n    /* \"#utility.yul\":1696:1709   */\n  lt\n    /* \"#utility.yul\":1688:1801   */\n  iszero\n  tag_66\n  jumpi\n    /* \"#utility.yul\":1787:1788   */\n  dup1\n    /* \"#utility.yul\":1782:1785   */\n  dup3\n    /* \"#utility.yul\":1778:1789   */\n  add\n    /* \"#utility.yul\":1772:1790   */\n  mload\n    /* \"#utility.yul\":1768:1769   */\n  dup2\n    /* \"#utility.yul\":1763:1766   */\n  dup5\n    /* \"#utility.yul\":1759:1770   */\n  add\n    /* \"#utility.yul\":1752:1791   */\n  mstore\n    /* \"#utility.yul\":1724:1726   */\n  0x20\n    /* \"#utility.yul\":1721:1722   */\n  dup2\n    /* \"#utility.yul\":1717:1727   */\n  add\n    /* \"#utility.yul\":1712:1727   */\n  swap1\n  pop\n    /* \"#utility.yul\":1688:1801   */\n  jump(tag_64)\ntag_66:\n    /* \"#utility.yul\":1819:1825   */\n  dup4\n    /* \"#utility.yul\":1816:1817   */\n  dup2\n    /* \"#utility.yul\":1813:1826   */\n  gt\n    /* \"#utility.yul\":1810:1911   */\n  iszero\n  tag_67\n  jumpi\n    /* \"#utility.yul\":1899:1900   */\n  0x00\n    /* \"#utility.yul\":1890:1896   */\n  dup5\n    /* \"#utility.yul\":1885:1888   */\n  dup5\n    /* \"#utility.yul\":1881:1897   */\n  add\n    /* \"#utility.yul\":1874:1901   */\n  mstore\n    /* \"#utility.yul\":1810:1911   */\ntag_67:\n    /* \"#utility.yul\":1659:1917   */\n  pop\n    /* \"#utility.yul\":1610:1917   */\n  pop\n  pop\n  pop\n  jump\t// out\n    /* \"#utility.yul\":1923:2344   */\ntag_34:\n    /* \"#utility.yul\":2012:2017   */\n  0x00\n    /* \"#utility.yul\":2037:2103   */\n  tag_69\n    /* \"#utility.yul\":2053:2102   */\n  tag_70\n    /* \"#utility.yul\":2095:2101   */\n  dup5\n    /* \"#utility.yul\":2053:2102   */\n  tag_32\n  jump\t// in\ntag_70:\n    /* \"#utility.yul\":2037:2103   */\n  tag_31\n  jump\t// in\ntag_69:\n    /* \"#utility.yul\":2028:2103   */\n  swap1\n  pop\n    /* \"#utility.yul\":2126:2132   */\n  dup3\n    /* \"#utility.yul\":2119:2124   */\n  dup2\n    /* \"#utility.yul\":2112:2133   */\n  mstore\n    /* \"#utility.yul\":2164:2168   */\n  0x20\n    /* \"#utility.yul\":2157:2162   */\n  dup2\n    /* \"#utility.yul\":2153:2169   */\n  add\n    /* \"#utility.yul\":2202:2205   */\n  dup5\n    /* \"#utility.yul\":2193:2199   */\n  dup5\n    /* \"#utility.yul\":2188:2191   */\n  dup5\n    /* \"#utility.yul\":2184:2200   */\n  add\n    /* \"#utility.yul\":2181:2206   */\n  gt\n    /* \"#utility.yul\":2178:2290   */\n  iszero\n  tag_71\n  jumpi\n    /* \"#utility.yul\":2209:2288   */\n  tag_72\n  tag_27\n  jump\t// in\ntag_72:\n    /* \"#utility.yul\":2178:2290   */\ntag_71:\n    /* \"#utility.yul\":2299:2338   */\n  tag_73\n    /* \"#utility.yul\":2331:2337   */\n  dup5\n    /* \"#utility.yul\":2326:2329   */\n  dup3\n    /* \"#utility.yul\":2321:2324   */\n  dup6\n    /* \"#utility.yul\":2299:2338   */\n  tag_33\n  jump\t// in\ntag_73:\n    /* \"#utility.yul\":2018:2344   */\n  pop\n    /* \"#utility.yul\":1923:2344   */\n  swap4\n  swap3\n  pop\n  pop\n  pop\n  jump\t// out\n    /* \"#utility.yul\":2364:2719   */\ntag_35:\n    /* \"#utility.yul\":2431:2436   */\n  0x00\n    /* \"#utility.yul\":2480:2483   */\n  dup3\n    /* \"#utility.yul\":2473:2477   */\n  0x1f\n    /* \"#utility.yul\":2465:2471   */\n  dup4\n    /* \"#utility.yul\":2461:2478   */\n  add\n    /* \"#utility.yul\":2457:2484   */\n  slt\n    /* \"#utility.yul\":2447:2569   */\n  tag_75\n  jumpi\n    /* \"#utility.yul\":2488:2567   */\n  tag_76\n  tag_26\n  jump\t// in\ntag_76:\n    /* \"#utility.yul\":2447:2569   */\ntag_75:\n    /* \"#utility.yul\":2598:2604   */\n  dup2\n    /* \"#utility.yul\":2592:2605   */\n  mload\n    /* \"#utility.yul\":2623:2713   */\n  tag_77\n    /* \"#utility.yul\":2709:2712   */\n  dup5\n    /* \"#utility.yul\":2701:2707   */\n  dup3\n    /* \"#utility.yul\":2694:2698   */\n  0x20\n    /* \"#utility.yul\":2686:2692   */\n  dup7\n    /* \"#utility.yul\":2682:2699   */\n  add\n    /* \"#utility.yul\":2623:2713   */\n  tag_34\n  jump\t// in\ntag_77:\n    /* \"#utility.yul\":2614:2713   */\n  swap2\n  pop\n    /* \"#utility.yul\":2437:2719   */\n  pop\n    /* \"#utility.yul\":2364:2719   */\n  swap3\n  swap2\n  pop\n  pop\n  jump\t// out\n    /* \"#utility.yul\":2725:2802   */\ntag_36:\n    /* \"#utility.yul\":2762:2769   */\n  0x00\n    /* \"#utility.yul\":2791:2796   */\n  dup2\n    /* \"#utility.yul\":2780:2796   */\n  swap1\n  pop\n    /* \"#utility.yul\":2725:2802   */\n  swap2\n  swap1\n  pop\n  jump\t// out\n    /* \"#utility.yul\":2808:2930   */\ntag_37:\n    /* \"#utility.yul\":2881:2905   */\n  tag_80\n    /* \"#utility.yul\":2899:2904   */\n  dup2\n    /* \"#utility.yul\":2881:2905   */\n  tag_36\n  jump\t// in\ntag_80:\n    /* \"#utility.yul\":2874:2879   */\n  dup2\n    /* \"#utility.yul\":2871:2906   */\n  eq\n    /* \"#utility.yul\":2861:2924   */\n  tag_81\n  jumpi\n    /* \"#utility.yul\":2920:2921   */\n  0x00\n    /* \"#utility.yul\":2917:2918   */\n  dup1\n    /* \"#utility.yul\":2910:2922   */\n  revert\n    /* \"#utility.yul\":2861:2924   */\ntag_81:\n    /* \"#utility.yul\":2808:2930   */\n  pop\n  jump\t// out\n    /* \"#utility.yul\":2936:3079   */\ntag_38:\n    /* \"#utility.yul\":2993:2998   */\n  0x00\n    /* \"#utility.yul\":3024:3030   */\n  dup2\n    /* \"#utility.yul\":3018:3031   */\n  mload\n    /* \"#utility.yul\":3009:3031   */\n  swap1\n  pop\n    /* \"#utility.yul\":3040:3073   */\n  tag_83\n    /* \"#utility.yul\":3067:3072   */\n  dup2\n    /* \"#utility.yul\":3040:3073   */\n  tag_37\n  jump\t// in\ntag_83:\n    /* \"#utility.yul\":2936:3079   */\n  swap3\n  swap2\n  pop\n  pop\n  jump\t// out\n    /* \"#utility.yul\":3085:3211   */\ntag_39:\n    /* \"#utility.yul\":3122:3129   */\n  0x00\n    /* \"#utility.yul\":3162:3204   */\n  0xffffffffffffffffffffffffffffffffffffffff\n    /* \"#utility.yul\":3155:3160   */\n  dup3\n    /* \"#utility.yul\":3151:3205   */\n  and\n    /* \"#utility.yul\":3140:3205   */\n  swap1\n  pop\n    /* \"#utility.yul\":3085:3211   */\n  swap2\n  swap1\n  pop\n  jump\t// out\n    /* \"#utility.yul\":3217:3313   */\ntag_40:\n    /* \"#utility.yul\":3254:3261   */\n  0x00\n    /* \"#utility.yul\":3283:3307   */\n  tag_86\n    /* \"#utility.yul\":3301:3306   */\n  dup3\n    /* \"#utility.yul\":3283:3307   */\n  tag_39\n  jump\t// in\ntag_86:\n    /* \"#utility.yul\":3272:3307   */\n  swap1\n  pop\n    /* \"#utility.yul\":3217:3313   */\n  swap2\n  swap1\n  pop\n  jump\t// out\n    /* \"#utility.yul\":3319:3441   */\ntag_41:\n    /* \"#utility.yul\":3392:3416   */\n  tag_88\n    /* \"#utility.yul\":3410:3415   */\n  dup2\n    /* \"#utility.yul\":3392:3416   */\n  tag_40\n  jump\t// in\ntag_88:\n    /* \"#utility.yul\":3385:3390   */\n  dup2\n    /* \"#utility.yul\":3382:3417   */\n  eq\n    /* \"#utility.yul\":3372:3435   */\n  tag_89\n  jumpi\n    /* \"#utility.yul\":3431:3432   */\n  0x00\n    /* \"#utility.yul\":3428:3429   */\n  dup1\n    /* \"#utility.yul\":3421:3433   */\n  revert\n    /* \"#utility.yul\":3372:3435   */\ntag_89:\n    /* \"#utility.yul\":3319:3441   */\n  pop\n  jump\t// out\n    /* \"#utility.yul\":3447:3590   */\ntag_42:\n    /* \"#utility.yul\":3504:3509   */\n  0x00\n    /* \"#utility.yul\":3535:3541   */\n  dup2\n    /* \"#utility.yul\":3529:3542   */\n  mload\n    /* \"#utility.yul\":3520:3542   */\n  swap1\n  pop\n    /* \"#utility.yul\":3551:3584   */\n  tag_91\n    /* \"#utility.yul\":3578:3583   */\n  dup2\n    /* \"#utility.yul\":3551:3584   */\n  tag_41\n  jump\t// in\ntag_91:\n    /* \"#utility.yul\":3447:3590   */\n  swap3\n  swap2\n  pop\n  pop\n  jump\t// out\n    /* \"#utility.yul\":3596:5579   */\ntag_3:\n    /* \"#utility.yul\":3760:3766   */\n  0x00\n    /* \"#utility.yul\":3768:3774   */\n  dup1\n    /* \"#utility.yul\":3776:3782   */\n  0x00\n    /* \"#utility.yul\":3784:3790   */\n  dup1\n    /* \"#utility.yul\":3792:3798   */\n  0x00\n    /* \"#utility.yul\":3800:3806   */\n  dup1\n    /* \"#utility.yul\":3808:3814   */\n  0x00\n    /* \"#utility.yul\":3857:3860   */\n  0xe0\n    /* \"#utility.yul\":3845:3854   */\n  dup9\n    /* \"#utility.yul\":3836:3843   */\n  dup11\n    /* \"#utility.yul\":3832:3855   */\n  sub\n    /* \"#utility.yul\":3828:3861   */\n  slt\n    /* \"#utility.yul\":3825:3945   */\n  iszero\n  tag_93\n  jumpi\n    /* \"#utility.yul\":3864:3943   */\n  tag_94\n  tag_24\n  jump\t// in\ntag_94:\n    /* \"#utility.yul\":3825:3945   */\ntag_93:\n    /* \"#utility.yul\":4005:4006   */\n  0x00\n    /* \"#utility.yul\":3994:4003   */\n  dup9\n    /* \"#utility.yul\":3990:4007   */\n  add\n    /* \"#utility.yul\":3984:4008   */\n  mload\n    /* \"#utility.yul\":4035:4053   */\n  0xffffffffffffffff\n    /* \"#utility.yul\":4027:4033   */\n  dup2\n    /* \"#utility.yul\":4024:4054   */\n  gt\n    /* \"#utility.yul\":4021:4138   */\n  iszero\n  tag_95\n  jumpi\n    /* \"#utility.yul\":4057:4136   */\n  tag_96\n  tag_25\n  jump\t// in\ntag_96:\n    /* \"#utility.yul\":4021:4138   */\ntag_95:\n    /* \"#utility.yul\":4162:4236   */\n  tag_97\n    /* \"#utility.yul\":4228:4235   */\n  dup11\n    /* \"#utility.yul\":4219:4225   */\n  dup3\n    /* \"#utility.yul\":4208:4217   */\n  dup12\n    /* \"#utility.yul\":4204:4226   */\n  add\n    /* \"#utility.yul\":4162:4236   */\n  tag_35\n  jump\t// in\ntag_97:\n    /* \"#utility.yul\":4152:4236   */\n  swap8\n  pop\n    /* \"#utility.yul\":3955:4246   */\n  pop\n    /* \"#utility.yul\":4285:4287   */\n  0x20\n    /* \"#utility.yul\":4311:4375   */\n  tag_98\n    /* \"#utility.yul\":4367:4374   */\n  dup11\n    /* \"#utility.yul\":4358:4364   */\n  dup3\n    /* \"#utility.yul\":4347:4356   */\n  dup12\n    /* \"#utility.yul\":4343:4365   */\n  add\n    /* \"#utility.yul\":4311:4375   */\n  tag_38\n  jump\t// in\ntag_98:\n    /* \"#utility.yul\":4301:4375   */\n  swap7\n  pop\n    /* \"#utility.yul\":4256:4385   */\n  pop\n    /* \"#utility.yul\":4445:4447   */\n  0x40\n    /* \"#utility.yul\":4434:4443   */\n  dup9\n    /* \"#utility.yul\":4430:4448   */\n  add\n    /* \"#utility.yul\":4424:4449   */\n  mload\n    /* \"#utility.yul\":4476:4494   */\n  0xffffffffffffffff\n    /* \"#utility.yul\":4468:4474   */\n  dup2\n    /* \"#utility.yul\":4465:4495   */\n  gt\n    /* \"#utility.yul\":4462:4579   */\n  iszero\n  tag_99\n  jumpi\n    /* \"#utility.yul\":4498:4577   */\n  tag_100\n  tag_25\n  jump\t// in\ntag_100:\n    /* \"#utility.yul\":4462:4579   */\ntag_99:\n    /* \"#utility.yul\":4603:4677   */\n  tag_101\n    /* \"#utility.yul\":4669:4676   */\n  dup11\n    /* \"#utility.yul\":4660:4666   */\n  dup3\n    /* \"#utility.yul\":4649:4658   */\n  dup12\n    /* \"#utility.yul\":4645:4667   */\n  add\n    /* \"#utility.yul\":4603:4677   */\n  tag_35\n  jump\t// in\ntag_101:\n    /* \"#utility.yul\":4593:4677   */\n  swap6\n  pop\n    /* \"#utility.yul\":4395:4687   */\n  pop\n    /* \"#utility.yul\":4747:4749   */\n  0x60\n    /* \"#utility.yul\":4736:4745   */\n  dup9\n    /* \"#utility.yul\":4732:4750   */\n  add\n    /* \"#utility.yul\":4726:4751   */\n  mload\n    /* \"#utility.yul\":4778:4796   */\n  0xffffffffffffffff\n    /* \"#utility.yul\":4770:4776   */\n  dup2\n    /* \"#utility.yul\":4767:4797   */\n  gt\n    /* \"#utility.yul\":4764:4881   */\n  iszero\n  tag_102\n  jumpi\n    /* \"#utility.yul\":4800:4879   */\n  tag_103\n  tag_25\n  jump\t// in\ntag_103:\n    /* \"#utility.yul\":4764:4881   */\ntag_102:\n    /* \"#utility.yul\":4905:4979   */\n  tag_104\n    /* \"#utility.yul\":4971:4978   */\n  dup11\n    /* \"#utility.yul\":4962:4968   */\n  dup3\n    /* \"#utility.yul\":4951:4960   */\n  dup12\n    /* \"#utility.yul\":4947:4969   */\n  add\n    /* \"#utility.yul\":4905:4979   */\n  tag_35\n  jump\t// in\ntag_104:\n    /* \"#utility.yul\":4895:4979   */\n  swap5\n  pop\n    /* \"#utility.yul\":4697:4989   */\n  pop\n    /* \"#utility.yul\":5049:5052   */\n  0x80\n    /* \"#utility.yul\":5038:5047   */\n  dup9\n    /* \"#utility.yul\":5034:5053   */\n  add\n    /* \"#utility.yul\":5028:5054   */\n  mload\n    /* \"#utility.yul\":5081:5099   */\n  0xffffffffffffffff\n    /* \"#utility.yul\":5073:5079   */\n  dup2\n    /* \"#utility.yul\":5070:5100   */\n  gt\n    /* \"#utility.yul\":5067:5184   */\n  iszero\n  tag_105\n  jumpi\n    /* \"#utility.yul\":5103:5182   */\n  tag_106\n  tag_25\n  jump\t// in\ntag_106:\n    /* \"#utility.yul\":5067:5184   */\ntag_105:\n    /* \"#utility.yul\":5208:5282   */\n  tag_107\n    /* \"#utility.yul\":5274:5281   */\n  dup11\n    /* \"#utility.yul\":5265:5271   */\n  dup3\n    /* \"#utility.yul\":5254:5263   */\n  dup12\n    /* \"#utility.yul\":5250:5272   */\n  add\n    /* \"#utility.yul\":5208:5282   */\n  tag_35\n  jump\t// in\ntag_107:\n    /* \"#utility.yul\":5198:5282   */\n  swap4\n  pop\n    /* \"#utility.yul\":4999:5292   */\n  pop\n    /* \"#utility.yul\":5331:5334   */\n  0xa0\n    /* \"#utility.yul\":5358:5422   */\n  tag_108\n    /* \"#utility.yul\":5414:5421   */\n  dup11\n    /* \"#utility.yul\":5405:5411   */\n  dup3\n    /* \"#utility.yul\":5394:5403   */\n  dup12\n    /* \"#utility.yul\":5390:5412   */\n  add\n    /* \"#utility.yul\":5358:5422   */\n  tag_42\n  jump\t// in\ntag_108:\n    /* \"#utility.yul\":5348:5422   */\n  swap3\n  pop\n    /* \"#utility.yul\":5302:5432   */\n  pop\n    /* \"#utility.yul\":5471:5474   */\n  0xc0\n    /* \"#utility.yul\":5498:5562   */\n  tag_109\n    /* \"#utility.yul\":5554:5561   */\n  dup11\n    /* \"#utility.yul\":5545:5551   */\n  dup3\n    /* \"#utility.yul\":5534:5543   */\n  dup12\n    /* \"#utility.yul\":5530:5552   */\n  add\n    /* \"#utility.yul\":5498:5562   */\n  tag_42\n  jump\t// in\ntag_109:\n    /* \"#utility.yul\":5488:5562   */\n  swap2\n  pop\n    /* \"#utility.yul\":5442:5572   */\n  pop\n    /* \"#utility.yul\":3596:5579   */\n  swap3\n  swap6\n  swap9\n  swap2\n  swap5\n  swap8\n  pop\n  swap3\n  swap6\n  pop\n  jump\t// out\n    /* \"#utility.yul\":5585:5765   */\ntag_43:\n    /* \"#utility.yul\":5633:5710   */\n  0x4e487b7100000000000000000000000000000000000000000000000000000000\n    /* \"#utility.yul\":5630:5631   */\n  0x00\n    /* \"#utility.yul\":5623:5711   */\n  mstore\n    /* \"#utility.yul\":5730:5734   */\n  0x22\n    /* \"#utility.yul\":5727:5728   */\n  0x04\n    /* \"#utility.yul\":5720:5735   */\n  mstore\n    /* \"#utility.yul\":5754:5758   */\n  0x24\n    /* \"#utility.yul\":5751:5752   */\n  0x00\n    /* \"#utility.yul\":5744:5759   */\n  revert\n    /* \"#utility.yul\":5771:6091   */\ntag_13:\n    /* \"#utility.yul\":5815:5821   */\n  0x00\n    /* \"#utility.yul\":5852:5853   */\n  0x02\n    /* \"#utility.yul\":5846:5850   */\n  dup3\n    /* \"#utility.yul\":5842:5854   */\n  div\n    /* \"#utility.yul\":5832:5854   */\n  swap1\n  pop\n    /* \"#utility.yul\":5899:5900   */\n  0x01\n    /* \"#utility.yul\":5893:5897   */\n  dup3\n    /* \"#utility.yul\":5889:5901   */\n  and\n    /* \"#utility.yul\":5920:5938   */\n  dup1\n    /* \"#utility.yul\":5910:5991   */\n  tag_112\n  jumpi\n    /* \"#utility.yul\":5976:5980   */\n  0x7f\n    /* \"#utility.yul\":5968:5974   */\n  dup3\n    /* \"#utility.yul\":5964:5981   */\n  and\n    /* \"#utility.yul\":5954:5981   */\n  swap2\n  pop\n    /* \"#utility.yul\":5910:5991   */\ntag_112:\n    /* \"#utility.yul\":6038:6040   */\n  0x20\n    /* \"#utility.yul\":6030:6036   */\n  dup3\n    /* \"#utility.yul\":6027:6041   */\n  lt\n    /* \"#utility.yul\":6007:6025   */\n  dup2\n    /* \"#utility.yul\":6004:6042   */\n  eq\n    /* \"#utility.yul\":6001:6085   */\n  iszero\n  tag_113\n  jumpi\n    /* \"#utility.yul\":6057:6075   */\n  tag_114\n  tag_43\n  jump\t// in\ntag_114:\n    /* \"#utility.yul\":6001:6085   */\ntag_113:\n    /* \"#utility.yul\":5822:6091   */\n  pop\n    /* \"#utility.yul\":5771:6091   */\n  swap2\n  swap1\n  pop\n  jump\t// out\n    /* \"factoryContract.sol\":1828:5198  contract patientContract{... */\ntag_11:\n  dataSize(sub_0)\n  dup1\n  dataOffset(sub_0)\n  0x00\n  codecopy\n  0x00\n  return\nstop\n\nsub_0: assembly {\n        /* \"factoryContract.sol\":1828:5198  contract patientContract{... */\n      mstore(0x40, 0x80)\n      callvalue\n      dup1\n      iszero\n      tag_1\n      jumpi\n      0x00\n      dup1\n      revert\n    tag_1:\n      pop\n      jumpi(tag_2, lt(calldatasize, 0x04))\n      shr(0xe0, calldataload(0x00))\n      dup1\n      0xac40c9a8\n      gt\n      tag_18\n      jumpi\n      dup1\n      0xf2cc9753\n      gt\n      tag_19\n      jumpi\n      dup1\n      0xf2cc9753\n      eq\n      tag_14\n      jumpi\n      dup1\n      0xf2f4adae\n      eq\n      tag_15\n      jumpi\n      dup1\n      0xf85b1b30\n      eq\n      tag_16\n      jumpi\n      dup1\n      0xfe13b631\n      eq\n      tag_17\n      jumpi\n      jump(tag_2)\n    tag_19:\n      dup1\n      0xac40c9a8\n      eq\n      tag_10\n      jumpi\n      dup1\n      0xc83dd231\n      eq\n      tag_11\n      jumpi\n      dup1\n      0xd8d204f8\n      eq\n      tag_12\n      jumpi\n      dup1\n      0xe7ce49a7\n      eq\n      tag_13\n      jumpi\n      jump(tag_2)\n    tag_18:\n      dup1\n      0x2e0b5677\n      gt\n      tag_20\n      jumpi\n      dup1\n      0x2e0b5677\n      eq\n      tag_6\n      jumpi\n      dup1\n      0x86969279\n      eq\n      tag_7\n      jumpi\n      dup1\n      0x9db4d4a0\n      eq\n      tag_8\n      jumpi\n      dup1\n      0xac12a3c0\n      eq\n      tag_9\n      jumpi\n      jump(tag_2)\n    tag_20:\n      dup1\n      0x0be41bd8\n      eq\n      tag_3\n      jumpi\n      dup1\n      0x1dc1fdb6\n      eq\n      tag_4\n      jumpi\n      dup1\n      0x1f54e45c\n      eq\n      tag_5\n      jumpi\n    tag_2:\n      0x00\n      dup1\n      revert\n        /* \"factoryContract.sol\":4949:5045  function provideAccess(address requester) public {... */\n    tag_3:\n      tag_21\n      0x04\n      dup1\n      calldatasize\n      sub\n      dup2\n      add\n      swap1\n      tag_22\n      swap2\n      swap1\n      tag_23\n      jump\t// in\n    tag_22:\n      tag_24\n      jump\t// in\n    tag_21:\n      stop\n        /* \"factoryContract.sol\":2188:2217  details public patientDetails */\n    tag_4:\n      tag_25\n      tag_26\n      jump\t// in\n    tag_25:\n      mload(0x40)\n      tag_27\n      swap6\n      swap5\n      swap4\n      swap3\n      swap2\n      swap1\n      tag_28\n      jump\t// in\n    tag_27:\n      mload(0x40)\n      dup1\n      swap2\n      sub\n      swap1\n      return\n        /* \"factoryContract.sol\":5053:5171  function getPatientDocs(uint index) public view returns(string memory){... */\n    tag_5:\n      tag_29\n      0x04\n      dup1\n      calldatasize\n      sub\n      dup2\n      add\n      swap1\n      tag_30\n      swap2\n      swap1\n      tag_31\n      jump\t// in\n    tag_30:\n      tag_32\n      jump\t// in\n    tag_29:\n      mload(0x40)\n      tag_33\n      swap2\n      swap1\n      tag_34\n      jump\t// in\n    tag_33:\n      mload(0x40)\n      dup1\n      swap2\n      sub\n      swap1\n      return\n        /* \"factoryContract.sol\":2224:2265  mapping(address=> bool) public dataAccess */\n    tag_6:\n      tag_35\n      0x04\n      dup1\n      calldatasize\n      sub\n      dup2\n      add\n      swap1\n      tag_36\n      swap2\n      swap1\n      tag_23\n      jump\t// in\n    tag_36:\n      tag_37\n      jump\t// in\n    tag_35:\n      mload(0x40)\n      tag_38\n      swap2\n      swap1\n      tag_39\n      jump\t// in\n    tag_38:\n      mload(0x40)\n      dup1\n      swap2\n      sub\n      swap1\n      return\n        /* \"factoryContract.sol\":2300:2344  mapping(uint=>patientDoc) public retriveDocs */\n    tag_7:\n      tag_40\n      0x04\n      dup1\n      calldatasize\n      sub\n      dup2\n      add\n      swap1\n      tag_41\n      swap2\n      swap1\n      tag_31\n      jump\t// in\n    tag_41:\n      tag_42\n      jump\t// in\n    tag_40:\n      mload(0x40)\n      tag_43\n      swap3\n      swap2\n      swap1\n      tag_44\n      jump\t// in\n    tag_43:\n      mload(0x40)\n      dup1\n      swap2\n      sub\n      swap1\n      return\n        /* \"factoryContract.sol\":2351:2389  mapping(uint=>bool) public isValidated */\n    tag_8:\n      tag_45\n      0x04\n      dup1\n      calldatasize\n      sub\n      dup2\n      add\n      swap1\n      tag_46\n      swap2\n      swap1\n      tag_31\n      jump\t// in\n    tag_46:\n      tag_47\n      jump\t// in\n    tag_45:\n      mload(0x40)\n      tag_48\n      swap2\n      swap1\n      tag_39\n      jump\t// in\n    tag_48:\n      mload(0x40)\n      dup1\n      swap2\n      sub\n      swap1\n      return\n        /* \"factoryContract.sol\":2272:2293  uint public docsCount */\n    tag_9:\n      tag_49\n      tag_50\n      jump\t// in\n    tag_49:\n      mload(0x40)\n      tag_51\n      swap2\n      swap1\n      tag_52\n      jump\t// in\n    tag_51:\n      mload(0x40)\n      dup1\n      swap2\n      sub\n      swap1\n      return\n        /* \"factoryContract.sol\":1890:1912  address public Patient */\n    tag_10:\n      tag_53\n      tag_54\n      jump\t// in\n    tag_53:\n      mload(0x40)\n      tag_55\n      swap2\n      swap1\n      tag_56\n      jump\t// in\n    tag_55:\n      mload(0x40)\n      dup1\n      swap2\n      sub\n      swap1\n      return\n        /* \"factoryContract.sol\":1861:1883  address public Factory */\n    tag_11:\n      tag_57\n      tag_58\n      jump\t// in\n    tag_57:\n      mload(0x40)\n      tag_59\n      swap2\n      swap1\n      tag_56\n      jump\t// in\n    tag_59:\n      mload(0x40)\n      dup1\n      swap2\n      sub\n      swap1\n      return\n        /* \"factoryContract.sol\":3421:3871  function changePatientDetails(string memory _name, uint _age, string memory _birth, string memory _gender,string memory _phone) public {... */\n    tag_12:\n      tag_60\n      0x04\n      dup1\n      calldatasize\n      sub\n      dup2\n      add\n      swap1\n      tag_61\n      swap2\n      swap1\n      tag_62\n      jump\t// in\n    tag_61:\n      tag_63\n      jump\t// in\n    tag_60:\n      stop\n        /* \"factoryContract.sol\":2443:2464  uint public profCount */\n    tag_13:\n      tag_64\n      tag_65\n      jump\t// in\n    tag_64:\n      mload(0x40)\n      tag_66\n      swap2\n      swap1\n      tag_52\n      jump\t// in\n    tag_66:\n      mload(0x40)\n      dup1\n      swap2\n      sub\n      swap1\n      return\n        /* \"factoryContract.sol\":3879:4937  function insertPatientDocs(string memory data, uint curr) public {... */\n    tag_14:\n      tag_67\n      0x04\n      dup1\n      calldatasize\n      sub\n      dup2\n      add\n      swap1\n      tag_68\n      swap2\n      swap1\n      tag_69\n      jump\t// in\n    tag_68:\n      tag_70\n      jump\t// in\n    tag_67:\n      stop\n        /* \"factoryContract.sol\":3084:3413  function getPatientDetails() public view returns(string memory,uint,string memory,string memory,string memory){... */\n    tag_15:\n      tag_71\n      tag_72\n      jump\t// in\n    tag_71:\n      mload(0x40)\n      tag_73\n      swap6\n      swap5\n      swap4\n      swap3\n      swap2\n      swap1\n      tag_28\n      jump\t// in\n    tag_73:\n      mload(0x40)\n      dup1\n      swap2\n      sub\n      swap1\n      return\n        /* \"factoryContract.sol\":2471:2510  mapping(address=>bool) public profTrack */\n    tag_16:\n      tag_74\n      0x04\n      dup1\n      calldatasize\n      sub\n      dup2\n      add\n      swap1\n      tag_75\n      swap2\n      swap1\n      tag_23\n      jump\t// in\n    tag_75:\n      tag_76\n      jump\t// in\n    tag_74:\n      mload(0x40)\n      tag_77\n      swap2\n      swap1\n      tag_39\n      jump\t// in\n    tag_77:\n      mload(0x40)\n      dup1\n      swap2\n      sub\n      swap1\n      return\n        /* \"factoryContract.sol\":2396:2436  mapping(uint=>address) public allMedProf */\n    tag_17:\n      tag_78\n      0x04\n      dup1\n      calldatasize\n      sub\n      dup2\n      add\n      swap1\n      tag_79\n      swap2\n      swap1\n      tag_31\n      jump\t// in\n    tag_79:\n      tag_80\n      jump\t// in\n    tag_78:\n      mload(0x40)\n      tag_81\n      swap2\n      swap1\n      tag_56\n      jump\t// in\n    tag_81:\n      mload(0x40)\n      dup1\n      swap2\n      sub\n      swap1\n      return\n        /* \"factoryContract.sol\":4949:5045  function provideAccess(address requester) public {... */\n    tag_24:\n        /* \"factoryContract.sol\":5033:5037  true */\n      0x01\n        /* \"factoryContract.sol\":5009:5019  dataAccess */\n      0x07\n        /* \"factoryContract.sol\":5009:5030  dataAccess[requester] */\n      0x00\n        /* \"factoryContract.sol\":5020:5029  requester */\n      dup4\n        /* \"factoryContract.sol\":5009:5030  dataAccess[requester] */\n      0xffffffffffffffffffffffffffffffffffffffff\n      and\n      0xffffffffffffffffffffffffffffffffffffffff\n      and\n      dup2\n      mstore\n      0x20\n      add\n      swap1\n      dup2\n      mstore\n      0x20\n      add\n      0x00\n      keccak256\n      0x00\n        /* \"factoryContract.sol\":5009:5037  dataAccess[requester] = true */\n      0x0100\n      exp\n      dup2\n      sload\n      dup2\n      0xff\n      mul\n      not\n      and\n      swap1\n      dup4\n      iszero\n      iszero\n      mul\n      or\n      swap1\n      sstore\n      pop\n        /* \"factoryContract.sol\":4949:5045  function provideAccess(address requester) public {... */\n      pop\n      jump\t// out\n        /* \"factoryContract.sol\":2188:2217  details public patientDetails */\n    tag_26:\n      0x02\n      dup1\n      0x00\n      add\n      dup1\n      sload\n      tag_83\n      swap1\n      tag_84\n      jump\t// in\n    tag_83:\n      dup1\n      0x1f\n      add\n      0x20\n      dup1\n      swap2\n      div\n      mul\n      0x20\n      add\n      mload(0x40)\n      swap1\n      dup2\n      add\n      0x40\n      mstore\n      dup1\n      swap3\n      swap2\n      swap1\n      dup2\n      dup2\n      mstore\n      0x20\n      add\n      dup3\n      dup1\n      sload\n      tag_85\n      swap1\n      tag_84\n      jump\t// in\n    tag_85:\n      dup1\n      iszero\n      tag_86\n      jumpi\n      dup1\n      0x1f\n      lt\n      tag_87\n      jumpi\n      0x0100\n      dup1\n      dup4\n      sload\n      div\n      mul\n      dup4\n      mstore\n      swap2\n      0x20\n      add\n      swap2\n      jump(tag_86)\n    tag_87:\n      dup3\n      add\n      swap2\n      swap1\n      0x00\n      mstore\n      keccak256(0x00, 0x20)\n      swap1\n    tag_88:\n      dup2\n      sload\n      dup2\n      mstore\n      swap1\n      0x01\n      add\n      swap1\n      0x20\n      add\n      dup1\n      dup4\n      gt\n      tag_88\n      jumpi\n      dup3\n      swap1\n      sub\n      0x1f\n      and\n      dup3\n      add\n      swap2\n    tag_86:\n      pop\n      pop\n      pop\n      pop\n      pop\n      swap1\n      dup1\n      0x01\n      add\n      sload\n      swap1\n      dup1\n      0x02\n      add\n      dup1\n      sload\n      tag_89\n      swap1\n      tag_84\n      jump\t// in\n    tag_89:\n      dup1\n      0x1f\n      add\n      0x20\n      dup1\n      swap2\n      div\n      mul\n      0x20\n      add\n      mload(0x40)\n      swap1\n      dup2\n      add\n      0x40\n      mstore\n      dup1\n      swap3\n      swap2\n      swap1\n      dup2\n      dup2\n      mstore\n      0x20\n      add\n      dup3\n      dup1\n      sload\n      tag_90\n      swap1\n      tag_84\n      jump\t// in\n    tag_90:\n      dup1\n      iszero\n      tag_91\n      jumpi\n      dup1\n      0x1f\n      lt\n      tag_92\n      jumpi\n      0x0100\n      dup1\n      dup4\n      sload\n      div\n      mul\n      dup4\n      mstore\n      swap2\n      0x20\n      add\n      swap2\n      jump(tag_91)\n    tag_92:\n      dup3\n      add\n      swap2\n      swap1\n      0x00\n      mstore\n      keccak256(0x00, 0x20)\n      swap1\n    tag_93:\n      dup2\n      sload\n      dup2\n      mstore\n      swap1\n      0x01\n      add\n      swap1\n      0x20\n      add\n      dup1\n      dup4\n      gt\n      tag_93\n      jumpi\n      dup3\n      swap1\n      sub\n      0x1f\n      and\n      dup3\n      add\n      swap2\n    tag_91:\n      pop\n      pop\n      pop\n      pop\n      pop\n      swap1\n      dup1\n      0x03\n      add\n      dup1\n      sload\n      tag_94\n      swap1\n      tag_84\n      jump\t// in\n    tag_94:\n      dup1\n      0x1f\n      add\n      0x20\n      dup1\n      swap2\n      div\n      mul\n      0x20\n      add\n      mload(0x40)\n      swap1\n      dup2\n      add\n      0x40\n      mstore\n      dup1\n      swap3\n      swap2\n      swap1\n      dup2\n      dup2\n      mstore\n      0x20\n      add\n      dup3\n      dup1\n      sload\n      tag_95\n      swap1\n      tag_84\n      jump\t// in\n    tag_95:\n      dup1\n      iszero\n      tag_96\n      jumpi\n      dup1\n      0x1f\n      lt\n      tag_97\n      jumpi\n      0x0100\n      dup1\n      dup4\n      sload\n      div\n      mul\n      dup4\n      mstore\n      swap2\n      0x20\n      add\n      swap2\n      jump(tag_96)\n    tag_97:\n      dup3\n      add\n      swap2\n      swap1\n      0x00\n      mstore\n      keccak256(0x00, 0x20)\n      swap1\n    tag_98:\n      dup2\n      sload\n      dup2\n      mstore\n      swap1\n      0x01\n      add\n      swap1\n      0x20\n      add\n      dup1\n      dup4\n      gt\n      tag_98\n      jumpi\n      dup3\n      swap1\n      sub\n      0x1f\n      and\n      dup3\n      add\n      swap2\n    tag_96:\n      pop\n      pop\n      pop\n      pop\n      pop\n      swap1\n      dup1\n      0x04\n      add\n      dup1\n      sload\n      tag_99\n      swap1\n      tag_84\n      jump\t// in\n    tag_99:\n      dup1\n      0x1f\n      add\n      0x20\n      dup1\n      swap2\n      div\n      mul\n      0x20\n      add\n      mload(0x40)\n      swap1\n      dup2\n      add\n      0x40\n      mstore\n      dup1\n      swap3\n      swap2\n      swap1\n      dup2\n      dup2\n      mstore\n      0x20\n      add\n      dup3\n      dup1\n      sload\n      tag_100\n      swap1\n      tag_84\n      jump\t// in\n    tag_100:\n      dup1\n      iszero\n      tag_101\n      jumpi\n      dup1\n      0x1f\n      lt\n      tag_102\n      jumpi\n      0x0100\n      dup1\n      dup4\n      sload\n      div\n      mul\n      dup4\n      mstore\n      swap2\n      0x20\n      add\n      swap2\n      jump(tag_101)\n    tag_102:\n      dup3\n      add\n      swap2\n      swap1\n      0x00\n      mstore\n      keccak256(0x00, 0x20)\n      swap1\n    tag_103:\n      dup2\n      sload\n      dup2\n      mstore\n      swap1\n      0x01\n      add\n      swap1\n      0x20\n      add\n      dup1\n      dup4\n      gt\n      tag_103\n      jumpi\n      dup3\n      swap1\n      sub\n      0x1f\n      and\n      dup3\n      add\n      swap2\n    tag_101:\n      pop\n      pop\n      pop\n      pop\n      pop\n      swap1\n      pop\n      dup6\n      jump\t// out\n        /* \"factoryContract.sol\":5053:5171  function getPatientDocs(uint index) public view returns(string memory){... */\n    tag_32:\n        /* \"factoryContract.sol\":5109:5122  string memory */\n      0x60\n        /* \"factoryContract.sol\":5141:5152  retriveDocs */\n      0x09\n        /* \"factoryContract.sol\":5141:5159  retriveDocs[index] */\n      0x00\n        /* \"factoryContract.sol\":5153:5158  index */\n      dup4\n        /* \"factoryContract.sol\":5141:5159  retriveDocs[index] */\n      dup2\n      mstore\n      0x20\n      add\n      swap1\n      dup2\n      mstore\n      0x20\n      add\n      0x00\n      keccak256\n        /* \"factoryContract.sol\":5141:5163  retriveDocs[index].doc */\n      0x00\n      add\n        /* \"factoryContract.sol\":5134:5163  return retriveDocs[index].doc */\n      dup1\n      sload\n      tag_105\n      swap1\n      tag_84\n      jump\t// in\n    tag_105:\n      dup1\n      0x1f\n      add\n      0x20\n      dup1\n      swap2\n      div\n      mul\n      0x20\n      add\n      mload(0x40)\n      swap1\n      dup2\n      add\n      0x40\n      mstore\n      dup1\n      swap3\n      swap2\n      swap1\n      dup2\n      dup2\n      mstore\n      0x20\n      add\n      dup3\n      dup1\n      sload\n      tag_106\n      swap1\n      tag_84\n      jump\t// in\n    tag_106:\n      dup1\n      iszero\n      tag_107\n      jumpi\n      dup1\n      0x1f\n      lt\n      tag_108\n      jumpi\n      0x0100\n      dup1\n      dup4\n      sload\n      div\n      mul\n      dup4\n      mstore\n      swap2\n      0x20\n      add\n      swap2\n      jump(tag_107)\n    tag_108:\n      dup3\n      add\n      swap2\n      swap1\n      0x00\n      mstore\n      keccak256(0x00, 0x20)\n      swap1\n    tag_109:\n      dup2\n      sload\n      dup2\n      mstore\n      swap1\n      0x01\n      add\n      swap1\n      0x20\n      add\n      dup1\n      dup4\n      gt\n      tag_109\n      jumpi\n      dup3\n      swap1\n      sub\n      0x1f\n      and\n      dup3\n      add\n      swap2\n    tag_107:\n      pop\n      pop\n      pop\n      pop\n      pop\n      swap1\n      pop\n        /* \"factoryContract.sol\":5053:5171  function getPatientDocs(uint index) public view returns(string memory){... */\n      swap2\n      swap1\n      pop\n      jump\t// out\n        /* \"factoryContract.sol\":2224:2265  mapping(address=> bool) public dataAccess */\n    tag_37:\n      mstore(0x20, 0x07)\n      dup1\n      0x00\n      mstore\n      keccak256(0x00, 0x40)\n      0x00\n      swap2\n      pop\n      sload\n      swap1\n      0x0100\n      exp\n      swap1\n      div\n      0xff\n      and\n      dup2\n      jump\t// out\n        /* \"factoryContract.sol\":2300:2344  mapping(uint=>patientDoc) public retriveDocs */\n    tag_42:\n      mstore(0x20, 0x09)\n      dup1\n      0x00\n      mstore\n      keccak256(0x00, 0x40)\n      0x00\n      swap2\n      pop\n      swap1\n      pop\n      dup1\n      0x00\n      add\n      dup1\n      sload\n      tag_110\n      swap1\n      tag_84\n      jump\t// in\n    tag_110:\n      dup1\n      0x1f\n      add\n      0x20\n      dup1\n      swap2\n      div\n      mul\n      0x20\n      add\n      mload(0x40)\n      swap1\n      dup2\n      add\n      0x40\n      mstore\n      dup1\n      swap3\n      swap2\n      swap1\n      dup2\n      dup2\n      mstore\n      0x20\n      add\n      dup3\n      dup1\n      sload\n      tag_111\n      swap1\n      tag_84\n      jump\t// in\n    tag_111:\n      dup1\n      iszero\n      tag_112\n      jumpi\n      dup1\n      0x1f\n      lt\n      tag_113\n      jumpi\n      0x0100\n      dup1\n      dup4\n      sload\n      div\n      mul\n      dup4\n      mstore\n      swap2\n      0x20\n      add\n      swap2\n      jump(tag_112)\n    tag_113:\n      dup3\n      add\n      swap2\n      swap1\n      0x00\n      mstore\n      keccak256(0x00, 0x20)\n      swap1\n    tag_114:\n      dup2\n      sload\n      dup2\n      mstore\n      swap1\n      0x01\n      add\n      swap1\n      0x20\n      add\n      dup1\n      dup4\n      gt\n      tag_114\n      jumpi\n      dup3\n      swap1\n      sub\n      0x1f\n      and\n      dup3\n      add\n      swap2\n    tag_112:\n      pop\n      pop\n      pop\n      pop\n      pop\n      swap1\n      dup1\n      0x01\n      add\n      sload\n      swap1\n      pop\n      dup3\n      jump\t// out\n        /* \"factoryContract.sol\":2351:2389  mapping(uint=>bool) public isValidated */\n    tag_47:\n      mstore(0x20, 0x0a)\n      dup1\n      0x00\n      mstore\n      keccak256(0x00, 0x40)\n      0x00\n      swap2\n      pop\n      sload\n      swap1\n      0x0100\n      exp\n      swap1\n      div\n      0xff\n      and\n      dup2\n      jump\t// out\n        /* \"factoryContract.sol\":2272:2293  uint public docsCount */\n    tag_50:\n      sload(0x08)\n      dup2\n      jump\t// out\n        /* \"factoryContract.sol\":1890:1912  address public Patient */\n    tag_54:\n      0x01\n      0x00\n      swap1\n      sload\n      swap1\n      0x0100\n      exp\n      swap1\n      div\n      0xffffffffffffffffffffffffffffffffffffffff\n      and\n      dup2\n      jump\t// out\n        /* \"factoryContract.sol\":1861:1883  address public Factory */\n    tag_58:\n      0x00\n      dup1\n      sload\n      swap1\n      0x0100\n      exp\n      swap1\n      div\n      0xffffffffffffffffffffffffffffffffffffffff\n      and\n      dup2\n      jump\t// out\n        /* \"factoryContract.sol\":3421:3871  function changePatientDetails(string memory _name, uint _age, string memory _birth, string memory _gender,string memory _phone) public {... */\n    tag_63:\n        /* \"factoryContract.sol\":3567:3599  details memory newStructInstance */\n      0x00\n        /* \"factoryContract.sol\":3602:3818  details({... */\n      mload(0x40)\n      dup1\n      0xa0\n      add\n      0x40\n      mstore\n      dup1\n        /* \"factoryContract.sol\":3638:3643  _name */\n      dup8\n        /* \"factoryContract.sol\":3602:3818  details({... */\n      dup2\n      mstore\n      0x20\n      add\n        /* \"factoryContract.sol\":3663:3667  _age */\n      dup7\n        /* \"factoryContract.sol\":3602:3818  details({... */\n      dup2\n      mstore\n      0x20\n      add\n        /* \"factoryContract.sol\":3690:3696  _birth */\n      dup6\n        /* \"factoryContract.sol\":3602:3818  details({... */\n      dup2\n      mstore\n      0x20\n      add\n        /* \"factoryContract.sol\":3720:3727  _gender */\n      dup5\n        /* \"factoryContract.sol\":3602:3818  details({... */\n      dup2\n      mstore\n      0x20\n      add\n        /* \"factoryContract.sol\":3750:3756  _phone */\n      dup4\n        /* \"factoryContract.sol\":3602:3818  details({... */\n      dup2\n      mstore\n      pop\n        /* \"factoryContract.sol\":3567:3818  details memory newStructInstance = details({... */\n      swap1\n      pop\n        /* \"factoryContract.sol\":3846:3863  newStructInstance */\n      dup1\n        /* \"factoryContract.sol\":3829:3843  patientDetails */\n      0x02\n        /* \"factoryContract.sol\":3829:3863  patientDetails = newStructInstance */\n      0x00\n      dup3\n      add\n      mload\n      dup2\n      0x00\n      add\n      swap1\n      dup1\n      mload\n      swap1\n      0x20\n      add\n      swap1\n      tag_116\n      swap3\n      swap2\n      swap1\n      tag_117\n      jump\t// in\n    tag_116:\n      pop\n      0x20\n      dup3\n      add\n      mload\n      dup2\n      0x01\n      add\n      sstore\n      0x40\n      dup3\n      add\n      mload\n      dup2\n      0x02\n      add\n      swap1\n      dup1\n      mload\n      swap1\n      0x20\n      add\n      swap1\n      tag_118\n      swap3\n      swap2\n      swap1\n      tag_117\n      jump\t// in\n    tag_118:\n      pop\n      0x60\n      dup3\n      add\n      mload\n      dup2\n      0x03\n      add\n      swap1\n      dup1\n      mload\n      swap1\n      0x20\n      add\n      swap1\n      tag_119\n      swap3\n      swap2\n      swap1\n      tag_117\n      jump\t// in\n    tag_119:\n      pop\n      0x80\n      dup3\n      add\n      mload\n      dup2\n      0x04\n      add\n      swap1\n      dup1\n      mload\n      swap1\n      0x20\n      add\n      swap1\n      tag_120\n      swap3\n      swap2\n      swap1\n      tag_117\n      jump\t// in\n    tag_120:\n      pop\n      swap1\n      pop\n      pop\n        /* \"factoryContract.sol\":3556:3871  {... */\n      pop\n        /* \"factoryContract.sol\":3421:3871  function changePatientDetails(string memory _name, uint _age, string memory _birth, string memory _gender,string memory _phone) public {... */\n      pop\n      pop\n      pop\n      pop\n      pop\n      jump\t// out\n        /* \"factoryContract.sol\":2443:2464  uint public profCount */\n    tag_65:\n      sload(0x0c)\n      dup2\n      jump\t// out\n        /* \"factoryContract.sol\":3879:4937  function insertPatientDocs(string memory data, uint curr) public {... */\n    tag_70:\n        /* \"factoryContract.sol\":3965:3989  patientDoc memory newDoc */\n      0x00\n        /* \"factoryContract.sol\":3992:4080  patientDoc({... */\n      mload(0x40)\n      dup1\n      0x40\n      add\n      0x40\n      mstore\n      dup1\n        /* \"factoryContract.sol\":4024:4028  data */\n      dup5\n        /* \"factoryContract.sol\":3992:4080  patientDoc({... */\n      dup2\n      mstore\n      0x20\n      add\n        /* \"factoryContract.sol\":4053:4068  block.timestamp */\n      timestamp\n        /* \"factoryContract.sol\":3992:4080  patientDoc({... */\n      dup2\n      mstore\n      pop\n        /* \"factoryContract.sol\":3965:4080  patientDoc memory newDoc = patientDoc({... */\n      swap1\n      pop\n        /* \"factoryContract.sol\":4116:4122  newDoc */\n      dup1\n        /* \"factoryContract.sol\":4091:4102  retriveDocs */\n      0x09\n        /* \"factoryContract.sol\":4091:4113  retriveDocs[docsCount] */\n      0x00\n        /* \"factoryContract.sol\":4103:4112  docsCount */\n      sload(0x08)\n        /* \"factoryContract.sol\":4091:4113  retriveDocs[docsCount] */\n      dup2\n      mstore\n      0x20\n      add\n      swap1\n      dup2\n      mstore\n      0x20\n      add\n      0x00\n      keccak256\n        /* \"factoryContract.sol\":4091:4122  retriveDocs[docsCount] = newDoc */\n      0x00\n      dup3\n      add\n      mload\n      dup2\n      0x00\n      add\n      swap1\n      dup1\n      mload\n      swap1\n      0x20\n      add\n      swap1\n      tag_122\n      swap3\n      swap2\n      swap1\n      tag_117\n      jump\t// in\n    tag_122:\n      pop\n      0x20\n      dup3\n      add\n      mload\n      dup2\n      0x01\n      add\n      sstore\n      swap1\n      pop\n      pop\n        /* \"factoryContract.sol\":4270:4282  bool success */\n      0x00\n        /* \"factoryContract.sol\":4284:4309  bytes memory returnedData */\n      dup1\n        /* \"factoryContract.sol\":4321:4328  Factory */\n      0x00\n      dup1\n      sload\n      swap1\n      0x0100\n      exp\n      swap1\n      div\n      0xffffffffffffffffffffffffffffffffffffffff\n      and\n        /* \"factoryContract.sol\":4313:4334  address(Factory).call */\n      0xffffffffffffffffffffffffffffffffffffffff\n      and\n        /* \"factoryContract.sol\":4386:4390  curr */\n      dup5\n        /* \"factoryContract.sol\":4335:4391  abi.encodeWithSignature(\"getMedicalProf(uint256)\", curr) */\n      add(0x24, mload(0x40))\n      tag_123\n      swap2\n      swap1\n      tag_52\n      jump\t// in\n    tag_123:\n      mload(0x40)\n      0x20\n      dup2\n      dup4\n      sub\n      sub\n      dup2\n      mstore\n      swap1\n      0x40\n      mstore\n      and(not(0xffffffffffffffffffffffffffffffffffffffffffffffffffffffff), 0x15fe62e600000000000000000000000000000000000000000000000000000000)\n      0x20\n      dup3\n      add\n      dup1\n      mload\n      0xffffffffffffffffffffffffffffffffffffffffffffffffffffffff\n      dup4\n      dup2\n      dup4\n      and\n      or\n      dup4\n      mstore\n      pop\n      pop\n      pop\n      pop\n        /* \"factoryContract.sol\":4313:4392  address(Factory).call(abi.encodeWithSignature(\"getMedicalProf(uint256)\", curr)) */\n      mload(0x40)\n      tag_124\n      swap2\n      swap1\n      tag_125\n      jump\t// in\n    tag_124:\n      0x00\n      mload(0x40)\n      dup1\n      dup4\n      sub\n      dup2\n      0x00\n      dup7\n      gas\n      call\n      swap2\n      pop\n      pop\n      returndatasize\n      dup1\n      0x00\n      dup2\n      eq\n      tag_128\n      jumpi\n      mload(0x40)\n      swap2\n      pop\n      and(add(returndatasize, 0x3f), not(0x1f))\n      dup3\n      add\n      0x40\n      mstore\n      returndatasize\n      dup3\n      mstore\n      returndatasize\n      0x00\n      0x20\n      dup5\n      add\n      returndatacopy\n      jump(tag_127)\n    tag_128:\n      0x60\n      swap2\n      pop\n    tag_127:\n      pop\n        /* \"factoryContract.sol\":4269:4392  (bool success, bytes memory returnedData) = address(Factory).call(abi.encodeWithSignature(\"getMedicalProf(uint256)\", curr)) */\n      swap2\n      pop\n      swap2\n      pop\n        /* \"factoryContract.sol\":4411:4418  success */\n      dup2\n        /* \"factoryContract.sol\":4403:4433  require(success,\"some error1\") */\n      tag_129\n      jumpi\n      mload(0x40)\n      0x08c379a000000000000000000000000000000000000000000000000000000000\n      dup2\n      mstore\n      0x04\n      add\n      tag_130\n      swap1\n      tag_131\n      jump\t// in\n    tag_130:\n      mload(0x40)\n      dup1\n      swap2\n      sub\n      swap1\n      revert\n    tag_129:\n        /* \"factoryContract.sol\":4444:4460  address currProf */\n      0x00\n        /* \"factoryContract.sol\":4474:4486  returnedData */\n      dup2\n        /* \"factoryContract.sol\":4463:4498  abi.decode(returnedData, (address)) */\n      dup1\n      0x20\n      add\n      swap1\n      mload\n      dup2\n      add\n      swap1\n      tag_132\n      swap2\n      swap1\n      tag_133\n      jump\t// in\n    tag_132:\n        /* \"factoryContract.sol\":4444:4498  address currProf = abi.decode(returnedData, (address)) */\n      swap1\n      pop\n        /* \"factoryContract.sol\":4533:4538  false */\n      0x00\n        /* \"factoryContract.sol\":4512:4538  profTrack[currProf]==false */\n      iszero\n      iszero\n        /* \"factoryContract.sol\":4512:4521  profTrack */\n      0x0d\n        /* \"factoryContract.sol\":4512:4531  profTrack[currProf] */\n      0x00\n        /* \"factoryContract.sol\":4522:4530  currProf */\n      dup4\n        /* \"factoryContract.sol\":4512:4531  profTrack[currProf] */\n      0xffffffffffffffffffffffffffffffffffffffff\n      and\n      0xffffffffffffffffffffffffffffffffffffffff\n      and\n      dup2\n      mstore\n      0x20\n      add\n      swap1\n      dup2\n      mstore\n      0x20\n      add\n      0x00\n      keccak256\n      0x00\n      swap1\n      sload\n      swap1\n      0x0100\n      exp\n      swap1\n      div\n      0xff\n      and\n        /* \"factoryContract.sol\":4512:4538  profTrack[currProf]==false */\n      iszero\n      iszero\n      eq\n        /* \"factoryContract.sol\":4509:4668  if(profTrack[currProf]==false){... */\n      iszero\n      tag_134\n      jumpi\n        /* \"factoryContract.sol\":4578:4586  currProf */\n      dup1\n        /* \"factoryContract.sol\":4554:4564  allMedProf */\n      0x0b\n        /* \"factoryContract.sol\":4554:4575  allMedProf[profCount] */\n      0x00\n        /* \"factoryContract.sol\":4565:4574  profCount */\n      sload(0x0c)\n        /* \"factoryContract.sol\":4554:4575  allMedProf[profCount] */\n      dup2\n      mstore\n      0x20\n      add\n      swap1\n      dup2\n      mstore\n      0x20\n      add\n      0x00\n      keccak256\n      0x00\n        /* \"factoryContract.sol\":4554:4586  allMedProf[profCount] = currProf */\n      0x0100\n      exp\n      dup2\n      sload\n      dup2\n      0xffffffffffffffffffffffffffffffffffffffff\n      mul\n      not\n      and\n      swap1\n      dup4\n      0xffffffffffffffffffffffffffffffffffffffff\n      and\n      mul\n      or\n      swap1\n      sstore\n      pop\n        /* \"factoryContract.sol\":4612:4613  1 */\n      0x01\n        /* \"factoryContract.sol\":4601:4610  profCount */\n      0x0c\n      0x00\n        /* \"factoryContract.sol\":4601:4613  profCount+=1 */\n      dup3\n      dup3\n      sload\n      tag_135\n      swap2\n      swap1\n      tag_136\n      jump\t// in\n    tag_135:\n      swap3\n      pop\n      pop\n      dup2\n      swap1\n      sstore\n      pop\n        /* \"factoryContract.sol\":4650:4654  true */\n      0x01\n        /* \"factoryContract.sol\":4628:4637  profTrack */\n      0x0d\n        /* \"factoryContract.sol\":4628:4647  profTrack[currProf] */\n      0x00\n        /* \"factoryContract.sol\":4638:4646  currProf */\n      dup4\n        /* \"factoryContract.sol\":4628:4647  profTrack[currProf] */\n      0xffffffffffffffffffffffffffffffffffffffff\n      and\n      0xffffffffffffffffffffffffffffffffffffffff\n      and\n      dup2\n      mstore\n      0x20\n      add\n      swap1\n      dup2\n      mstore\n      0x20\n      add\n      0x00\n      keccak256\n      0x00\n        /* \"factoryContract.sol\":4628:4654  profTrack[currProf] = true */\n      0x0100\n      exp\n      dup2\n      sload\n      dup2\n      0xff\n      mul\n      not\n      and\n      swap1\n      dup4\n      iszero\n      iszero\n      mul\n      or\n      swap1\n      sstore\n      pop\n        /* \"factoryContract.sol\":4509:4668  if(profTrack[currProf]==false){... */\n    tag_134:\n        /* \"factoryContract.sol\":4683:4704  addressProf(currProf) */\n      0x61a7191fa43dd24da3681728a7fc2c57614cf4aa128b0530c974742cbbf07e23\n        /* \"factoryContract.sol\":4695:4703  currProf */\n      dup2\n        /* \"factoryContract.sol\":4683:4704  addressProf(currProf) */\n      mload(0x40)\n      tag_137\n      swap2\n      swap1\n      tag_56\n      jump\t// in\n    tag_137:\n      mload(0x40)\n      dup1\n      swap2\n      sub\n      swap1\n      log1\n        /* \"factoryContract.sol\":4716:4729  bool success2 */\n      0x00\n        /* \"factoryContract.sol\":4743:4751  currProf */\n      dup2\n        /* \"factoryContract.sol\":4735:4757  address(currProf).call */\n      0xffffffffffffffffffffffffffffffffffffffff\n      and\n        /* \"factoryContract.sol\":4813:4822  docsCount */\n      sload(0x08)\n        /* \"factoryContract.sol\":4823:4830  Patient */\n      0x01\n      0x00\n      swap1\n      sload\n      swap1\n      0x0100\n      exp\n      swap1\n      div\n      0xffffffffffffffffffffffffffffffffffffffff\n      and\n        /* \"factoryContract.sol\":4758:4831  abi.encodeWithSignature(\"addReports(uint256,address)\", docsCount,Patient) */\n      add(0x24, mload(0x40))\n      tag_138\n      swap3\n      swap2\n      swap1\n      tag_139\n      jump\t// in\n    tag_138:\n      mload(0x40)\n      0x20\n      dup2\n      dup4\n      sub\n      sub\n      dup2\n      mstore\n      swap1\n      0x40\n      mstore\n      and(not(0xffffffffffffffffffffffffffffffffffffffffffffffffffffffff), 0x376f4e4900000000000000000000000000000000000000000000000000000000)\n      0x20\n      dup3\n      add\n      dup1\n      mload\n      0xffffffffffffffffffffffffffffffffffffffffffffffffffffffff\n      dup4\n      dup2\n      dup4\n      and\n      or\n      dup4\n      mstore\n      pop\n      pop\n      pop\n      pop\n        /* \"factoryContract.sol\":4735:4832  address(currProf).call(abi.encodeWithSignature(\"addReports(uint256,address)\", docsCount,Patient)) */\n      mload(0x40)\n      tag_140\n      swap2\n      swap1\n      tag_125\n      jump\t// in\n    tag_140:\n      0x00\n      mload(0x40)\n      dup1\n      dup4\n      sub\n      dup2\n      0x00\n      dup7\n      gas\n      call\n      swap2\n      pop\n      pop\n      returndatasize\n      dup1\n      0x00\n      dup2\n      eq\n      tag_143\n      jumpi\n      mload(0x40)\n      swap2\n      pop\n      and(add(returndatasize, 0x3f), not(0x1f))\n      dup3\n      add\n      0x40\n      mstore\n      returndatasize\n      dup3\n      mstore\n      returndatasize\n      0x00\n      0x20\n      dup5\n      add\n      returndatacopy\n      jump(tag_142)\n    tag_143:\n      0x60\n      swap2\n      pop\n    tag_142:\n      pop\n        /* \"factoryContract.sol\":4715:4832  (bool success2, ) = address(currProf).call(abi.encodeWithSignature(\"addReports(uint256,address)\", docsCount,Patient)) */\n      pop\n      swap1\n      pop\n        /* \"factoryContract.sol\":4854:4855  1 */\n      0x01\n        /* \"factoryContract.sol\":4843:4852  docsCount */\n      0x08\n      0x00\n        /* \"factoryContract.sol\":4843:4855  docsCount+=1 */\n      dup3\n      dup3\n      sload\n      tag_144\n      swap2\n      swap1\n      tag_136\n      jump\t// in\n    tag_144:\n      swap3\n      pop\n      pop\n      dup2\n      swap1\n      sstore\n      pop\n        /* \"factoryContract.sol\":4874:4882  success2 */\n      dup1\n        /* \"factoryContract.sol\":4866:4897  require(success2,\"some error2\") */\n      tag_145\n      jumpi\n      mload(0x40)\n      0x08c379a000000000000000000000000000000000000000000000000000000000\n      dup2\n      mstore\n      0x04\n      add\n      tag_146\n      swap1\n      tag_147\n      jump\t// in\n    tag_146:\n      mload(0x40)\n      dup1\n      swap2\n      sub\n      swap1\n      revert\n    tag_145:\n        /* \"factoryContract.sol\":3944:4937  {... */\n      pop\n      pop\n      pop\n      pop\n      pop\n        /* \"factoryContract.sol\":3879:4937  function insertPatientDocs(string memory data, uint curr) public {... */\n      pop\n      pop\n      jump\t// out\n        /* \"factoryContract.sol\":3084:3413  function getPatientDetails() public view returns(string memory,uint,string memory,string memory,string memory){... */\n    tag_72:\n        /* \"factoryContract.sol\":3133:3146  string memory */\n      0x60\n        /* \"factoryContract.sol\":3147:3151  uint */\n      0x00\n        /* \"factoryContract.sol\":3152:3165  string memory */\n      0x60\n        /* \"factoryContract.sol\":3166:3179  string memory */\n      dup1\n        /* \"factoryContract.sol\":3180:3193  string memory */\n      0x60\n        /* \"factoryContract.sol\":3227:3241  patientDetails */\n      0x02\n        /* \"factoryContract.sol\":3227:3253  patientDetails.patientName */\n      0x00\n      add\n        /* \"factoryContract.sol\":3268:3282  patientDetails */\n      0x02\n        /* \"factoryContract.sol\":3268:3286  patientDetails.age */\n      0x01\n      add\n      sload\n        /* \"factoryContract.sol\":3301:3315  patientDetails */\n      0x02\n        /* \"factoryContract.sol\":3301:3321  patientDetails.birth */\n      dup1\n      add\n        /* \"factoryContract.sol\":3336:3350  patientDetails */\n      0x02\n        /* \"factoryContract.sol\":3336:3357  patientDetails.gender */\n      0x03\n      add\n        /* \"factoryContract.sol\":3372:3386  patientDetails */\n      0x02\n        /* \"factoryContract.sol\":3372:3392  patientDetails.phone */\n      0x04\n      add\n        /* \"factoryContract.sol\":3205:3405  return (... */\n      dup5\n      dup1\n      sload\n      tag_149\n      swap1\n      tag_84\n      jump\t// in\n    tag_149:\n      dup1\n      0x1f\n      add\n      0x20\n      dup1\n      swap2\n      div\n      mul\n      0x20\n      add\n      mload(0x40)\n      swap1\n      dup2\n      add\n      0x40\n      mstore\n      dup1\n      swap3\n      swap2\n      swap1\n      dup2\n      dup2\n      mstore\n      0x20\n      add\n      dup3\n      dup1\n      sload\n      tag_150\n      swap1\n      tag_84\n      jump\t// in\n    tag_150:\n      dup1\n      iszero\n      tag_151\n      jumpi\n      dup1\n      0x1f\n      lt\n      tag_152\n      jumpi\n      0x0100\n      dup1\n      dup4\n      sload\n      div\n      mul\n      dup4\n      mstore\n      swap2\n      0x20\n      add\n      swap2\n      jump(tag_151)\n    tag_152:\n      dup3\n      add\n      swap2\n      swap1\n      0x00\n      mstore\n      keccak256(0x00, 0x20)\n      swap1\n    tag_153:\n      dup2\n      sload\n      dup2\n      mstore\n      swap1\n      0x01\n      add\n      swap1\n      0x20\n      add\n      dup1\n      dup4\n      gt\n      tag_153\n      jumpi\n      dup3\n      swap1\n      sub\n      0x1f\n      and\n      dup3\n      add\n      swap2\n    tag_151:\n      pop\n      pop\n      pop\n      pop\n      pop\n      swap5\n      pop\n      dup3\n      dup1\n      sload\n      tag_154\n      swap1\n      tag_84\n      jump\t// in\n    tag_154:\n      dup1\n      0x1f\n      add\n      0x20\n      dup1\n      swap2\n      div\n      mul\n      0x20\n      add\n      mload(0x40)\n      swap1\n      dup2\n      add\n      0x40\n      mstore\n      dup1\n      swap3\n      swap2\n      swap1\n      dup2\n      dup2\n      mstore\n      0x20\n      add\n      dup3\n      dup1\n      sload\n      tag_155\n      swap1\n      tag_84\n      jump\t// in\n    tag_155:\n      dup1\n      iszero\n      tag_156\n      jumpi\n      dup1\n      0x1f\n      lt\n      tag_157\n      jumpi\n      0x0100\n      dup1\n      dup4\n      sload\n      div\n      mul\n      dup4\n      mstore\n      swap2\n      0x20\n      add\n      swap2\n      jump(tag_156)\n    tag_157:\n      dup3\n      add\n      swap2\n      swap1\n      0x00\n      mstore\n      keccak256(0x00, 0x20)\n      swap1\n    tag_158:\n      dup2\n      sload\n      dup2\n      mstore\n      swap1\n      0x01\n      add\n      swap1\n      0x20\n      add\n      dup1\n      dup4\n      gt\n      tag_158\n      jumpi\n      dup3\n      swap1\n      sub\n      0x1f\n      and\n      dup3\n      add\n      swap2\n    tag_156:\n      pop\n      pop\n      pop\n      pop\n      pop\n      swap3\n      pop\n      dup2\n      dup1\n      sload\n      tag_159\n      swap1\n      tag_84\n      jump\t// in\n    tag_159:\n      dup1\n      0x1f\n      add\n      0x20\n      dup1\n      swap2\n      div\n      mul\n      0x20\n      add\n      mload(0x40)\n      swap1\n      dup2\n      add\n      0x40\n      mstore\n      dup1\n      swap3\n      swap2\n      swap1\n      dup2\n      dup2\n      mstore\n      0x20\n      add\n      dup3\n      dup1\n      sload\n      tag_160\n      swap1\n      tag_84\n      jump\t// in\n    tag_160:\n      dup1\n      iszero\n      tag_161\n      jumpi\n      dup1\n      0x1f\n      lt\n      tag_162\n      jumpi\n      0x0100\n      dup1\n      dup4\n      sload\n      div\n      mul\n      dup4\n      mstore\n      swap2\n      0x20\n      add\n      swap2\n      jump(tag_161)\n    tag_162:\n      dup3\n      add\n      swap2\n      swap1\n      0x00\n      mstore\n      keccak256(0x00, 0x20)\n      swap1\n    tag_163:\n      dup2\n      sload\n      dup2\n      mstore\n      swap1\n      0x01\n      add\n      swap1\n      0x20\n      add\n      dup1\n      dup4\n      gt\n      tag_163\n      jumpi\n      dup3\n      swap1\n      sub\n      0x1f\n      and\n      dup3\n      add\n      swap2\n    tag_161:\n      pop\n      pop\n      pop\n      pop\n      pop\n      swap2\n      pop\n      dup1\n      dup1\n      sload\n      tag_164\n      swap1\n      tag_84\n      jump\t// in\n    tag_164:\n      dup1\n      0x1f\n      add\n      0x20\n      dup1\n      swap2\n      div\n      mul\n      0x20\n      add\n      mload(0x40)\n      swap1\n      dup2\n      add\n      0x40\n      mstore\n      dup1\n      swap3\n      swap2\n      swap1\n      dup2\n      dup2\n      mstore\n      0x20\n      add\n      dup3\n      dup1\n      sload\n      tag_165\n      swap1\n      tag_84\n      jump\t// in\n    tag_165:\n      dup1\n      iszero\n      tag_166\n      jumpi\n      dup1\n      0x1f\n      lt\n      tag_167\n      jumpi\n      0x0100\n      dup1\n      dup4\n      sload\n      div\n      mul\n      dup4\n      mstore\n      swap2\n      0x20\n      add\n      swap2\n      jump(tag_166)\n    tag_167:\n      dup3\n      add\n      swap2\n      swap1\n      0x00\n      mstore\n      keccak256(0x00, 0x20)\n      swap1\n    tag_168:\n      dup2\n      sload\n      dup2\n      mstore\n      swap1\n      0x01\n      add\n      swap1\n      0x20\n      add\n      dup1\n      dup4\n      gt\n      tag_168\n      jumpi\n      dup3\n      swap1\n      sub\n      0x1f\n      and\n      dup3\n      add\n      swap2\n    tag_166:\n      pop\n      pop\n      pop\n      pop\n      pop\n      swap1\n      pop\n      swap5\n      pop\n      swap5\n      pop\n      swap5\n      pop\n      swap5\n      pop\n      swap5\n      pop\n        /* \"factoryContract.sol\":3084:3413  function getPatientDetails() public view returns(string memory,uint,string memory,string memory,string memory){... */\n      swap1\n      swap2\n      swap3\n      swap4\n      swap5\n      jump\t// out\n        /* \"factoryContract.sol\":2471:2510  mapping(address=>bool) public profTrack */\n    tag_76:\n      mstore(0x20, 0x0d)\n      dup1\n      0x00\n      mstore\n      keccak256(0x00, 0x40)\n      0x00\n      swap2\n      pop\n      sload\n      swap1\n      0x0100\n      exp\n      swap1\n      div\n      0xff\n      and\n      dup2\n      jump\t// out\n        /* \"factoryContract.sol\":2396:2436  mapping(uint=>address) public allMedProf */\n    tag_80:\n      mstore(0x20, 0x0b)\n      dup1\n      0x00\n      mstore\n      keccak256(0x00, 0x40)\n      0x00\n      swap2\n      pop\n      sload\n      swap1\n      0x0100\n      exp\n      swap1\n      div\n      0xffffffffffffffffffffffffffffffffffffffff\n      and\n      dup2\n      jump\t// out\n    tag_117:\n      dup3\n      dup1\n      sload\n      tag_169\n      swap1\n      tag_84\n      jump\t// in\n    tag_169:\n      swap1\n      0x00\n      mstore\n      keccak256(0x00, 0x20)\n      swap1\n      0x1f\n      add\n      0x20\n      swap1\n      div\n      dup2\n      add\n      swap3\n      dup3\n      tag_171\n      jumpi\n      0x00\n      dup6\n      sstore\n      jump(tag_170)\n    tag_171:\n      dup3\n      0x1f\n      lt\n      tag_172\n      jumpi\n      dup1\n      mload\n      not(0xff)\n      and\n      dup4\n      dup1\n      add\n      or\n      dup6\n      sstore\n      jump(tag_170)\n    tag_172:\n      dup3\n      dup1\n      add\n      0x01\n      add\n      dup6\n      sstore\n      dup3\n      iszero\n      tag_170\n      jumpi\n      swap2\n      dup3\n      add\n    tag_173:\n      dup3\n      dup2\n      gt\n      iszero\n      tag_174\n      jumpi\n      dup3\n      mload\n      dup3\n      sstore\n      swap2\n      0x20\n      add\n      swap2\n      swap1\n      0x01\n      add\n      swap1\n      jump(tag_173)\n    tag_174:\n    tag_170:\n      pop\n      swap1\n      pop\n      tag_175\n      swap2\n      swap1\n      tag_176\n      jump\t// in\n    tag_175:\n      pop\n      swap1\n      jump\t// out\n    tag_176:\n    tag_177:\n      dup1\n      dup3\n      gt\n      iszero\n      tag_178\n      jumpi\n      0x00\n      dup2\n      0x00\n      swap1\n      sstore\n      pop\n      0x01\n      add\n      jump(tag_177)\n    tag_178:\n      pop\n      swap1\n      jump\t// out\n        /* \"#utility.yul\":7:82   */\n    tag_179:\n        /* \"#utility.yul\":40:46   */\n      0x00\n        /* \"#utility.yul\":73:75   */\n      0x40\n        /* \"#utility.yul\":67:76   */\n      mload\n        /* \"#utility.yul\":57:76   */\n      swap1\n      pop\n        /* \"#utility.yul\":7:82   */\n      swap1\n      jump\t// out\n        /* \"#utility.yul\":88:205   */\n    tag_180:\n        /* \"#utility.yul\":197:198   */\n      0x00\n        /* \"#utility.yul\":194:195   */\n      dup1\n        /* \"#utility.yul\":187:199   */\n      revert\n        /* \"#utility.yul\":211:328   */\n    tag_181:\n        /* \"#utility.yul\":320:321   */\n      0x00\n        /* \"#utility.yul\":317:318   */\n      dup1\n        /* \"#utility.yul\":310:322   */\n      revert\n        /* \"#utility.yul\":334:460   */\n    tag_182:\n        /* \"#utility.yul\":371:378   */\n      0x00\n        /* \"#utility.yul\":411:453   */\n      0xffffffffffffffffffffffffffffffffffffffff\n        /* \"#utility.yul\":404:409   */\n      dup3\n        /* \"#utility.yul\":400:454   */\n      and\n        /* \"#utility.yul\":389:454   */\n      swap1\n      pop\n        /* \"#utility.yul\":334:460   */\n      swap2\n      swap1\n      pop\n      jump\t// out\n        /* \"#utility.yul\":466:562   */\n    tag_183:\n        /* \"#utility.yul\":503:510   */\n      0x00\n        /* \"#utility.yul\":532:556   */\n      tag_225\n        /* \"#utility.yul\":550:555   */\n      dup3\n        /* \"#utility.yul\":532:556   */\n      tag_182\n      jump\t// in\n    tag_225:\n        /* \"#utility.yul\":521:556   */\n      swap1\n      pop\n        /* \"#utility.yul\":466:562   */\n      swap2\n      swap1\n      pop\n      jump\t// out\n        /* \"#utility.yul\":568:690   */\n    tag_184:\n        /* \"#utility.yul\":641:665   */\n      tag_227\n        /* \"#utility.yul\":659:664   */\n      dup2\n        /* \"#utility.yul\":641:665   */\n      tag_183\n      jump\t// in\n    tag_227:\n        /* \"#utility.yul\":634:639   */\n      dup2\n        /* \"#utility.yul\":631:666   */\n      eq\n        /* \"#utility.yul\":621:684   */\n      tag_228\n      jumpi\n        /* \"#utility.yul\":680:681   */\n      0x00\n        /* \"#utility.yul\":677:678   */\n      dup1\n        /* \"#utility.yul\":670:682   */\n      revert\n        /* \"#utility.yul\":621:684   */\n    tag_228:\n        /* \"#utility.yul\":568:690   */\n      pop\n      jump\t// out\n        /* \"#utility.yul\":696:835   */\n    tag_185:\n        /* \"#utility.yul\":742:747   */\n      0x00\n        /* \"#utility.yul\":780:786   */\n      dup2\n        /* \"#utility.yul\":767:787   */\n      calldataload\n        /* \"#utility.yul\":758:787   */\n      swap1\n      pop\n        /* \"#utility.yul\":796:829   */\n      tag_230\n        /* \"#utility.yul\":823:828   */\n      dup2\n        /* \"#utility.yul\":796:829   */\n      tag_184\n      jump\t// in\n    tag_230:\n        /* \"#utility.yul\":696:835   */\n      swap3\n      swap2\n      pop\n      pop\n      jump\t// out\n        /* \"#utility.yul\":841:1170   */\n    tag_23:\n        /* \"#utility.yul\":900:906   */\n      0x00\n        /* \"#utility.yul\":949:951   */\n      0x20\n        /* \"#utility.yul\":937:946   */\n      dup3\n        /* \"#utility.yul\":928:935   */\n      dup5\n        /* \"#utility.yul\":924:947   */\n      sub\n        /* \"#utility.yul\":920:952   */\n      slt\n        /* \"#utility.yul\":917:1036   */\n      iszero\n      tag_232\n      jumpi\n        /* \"#utility.yul\":955:1034   */\n      tag_233\n      tag_180\n      jump\t// in\n    tag_233:\n        /* \"#utility.yul\":917:1036   */\n    tag_232:\n        /* \"#utility.yul\":1075:1076   */\n      0x00\n        /* \"#utility.yul\":1100:1153   */\n      tag_234\n        /* \"#utility.yul\":1145:1152   */\n      dup5\n        /* \"#utility.yul\":1136:1142   */\n      dup3\n        /* \"#utility.yul\":1125:1134   */\n      dup6\n        /* \"#utility.yul\":1121:1143   */\n      add\n        /* \"#utility.yul\":1100:1153   */\n      tag_185\n      jump\t// in\n    tag_234:\n        /* \"#utility.yul\":1090:1153   */\n      swap2\n      pop\n        /* \"#utility.yul\":1046:1163   */\n      pop\n        /* \"#utility.yul\":841:1170   */\n      swap3\n      swap2\n      pop\n      pop\n      jump\t// out\n        /* \"#utility.yul\":1176:1275   */\n    tag_186:\n        /* \"#utility.yul\":1228:1234   */\n      0x00\n        /* \"#utility.yul\":1262:1267   */\n      dup2\n        /* \"#utility.yul\":1256:1268   */\n      mload\n        /* \"#utility.yul\":1246:1268   */\n      swap1\n      pop\n        /* \"#utility.yul\":1176:1275   */\n      swap2\n      swap1\n      pop\n      jump\t// out\n        /* \"#utility.yul\":1281:1450   */\n    tag_187:\n        /* \"#utility.yul\":1365:1376   */\n      0x00\n        /* \"#utility.yul\":1399:1405   */\n      dup3\n        /* \"#utility.yul\":1394:1397   */\n      dup3\n        /* \"#utility.yul\":1387:1406   */\n      mstore\n        /* \"#utility.yul\":1439:1443   */\n      0x20\n        /* \"#utility.yul\":1434:1437   */\n      dup3\n        /* \"#utility.yul\":1430:1444   */\n      add\n        /* \"#utility.yul\":1415:1444   */\n      swap1\n      pop\n        /* \"#utility.yul\":1281:1450   */\n      swap3\n      swap2\n      pop\n      pop\n      jump\t// out\n        /* \"#utility.yul\":1456:1763   */\n    tag_188:\n        /* \"#utility.yul\":1524:1525   */\n      0x00\n        /* \"#utility.yul\":1534:1647   */\n    tag_238:\n        /* \"#utility.yul\":1548:1554   */\n      dup4\n        /* \"#utility.yul\":1545:1546   */\n      dup2\n        /* \"#utility.yul\":1542:1555   */\n      lt\n        /* \"#utility.yul\":1534:1647   */\n      iszero\n      tag_240\n      jumpi\n        /* \"#utility.yul\":1633:1634   */\n      dup1\n        /* \"#utility.yul\":1628:1631   */\n      dup3\n        /* \"#utility.yul\":1624:1635   */\n      add\n        /* \"#utility.yul\":1618:1636   */\n      mload\n        /* \"#utility.yul\":1614:1615   */\n      dup2\n        /* \"#utility.yul\":1609:1612   */\n      dup5\n        /* \"#utility.yul\":1605:1616   */\n      add\n        /* \"#utility.yul\":1598:1637   */\n      mstore\n        /* \"#utility.yul\":1570:1572   */\n      0x20\n        /* \"#utility.yul\":1567:1568   */\n      dup2\n        /* \"#utility.yul\":1563:1573   */\n      add\n        /* \"#utility.yul\":1558:1573   */\n      swap1\n      pop\n        /* \"#utility.yul\":1534:1647   */\n      jump(tag_238)\n    tag_240:\n        /* \"#utility.yul\":1665:1671   */\n      dup4\n        /* \"#utility.yul\":1662:1663   */\n      dup2\n        /* \"#utility.yul\":1659:1672   */\n      gt\n        /* \"#utility.yul\":1656:1757   */\n      iszero\n      tag_241\n      jumpi\n        /* \"#utility.yul\":1745:1746   */\n      0x00\n        /* \"#utility.yul\":1736:1742   */\n      dup5\n        /* \"#utility.yul\":1731:1734   */\n      dup5\n        /* \"#utility.yul\":1727:1743   */\n      add\n        /* \"#utility.yul\":1720:1747   */\n      mstore\n        /* \"#utility.yul\":1656:1757   */\n    tag_241:\n        /* \"#utility.yul\":1505:1763   */\n      pop\n        /* \"#utility.yul\":1456:1763   */\n      pop\n      pop\n      pop\n      jump\t// out\n        /* \"#utility.yul\":1769:1871   */\n    tag_189:\n        /* \"#utility.yul\":1810:1816   */\n      0x00\n        /* \"#utility.yul\":1861:1863   */\n      0x1f\n        /* \"#utility.yul\":1857:1864   */\n      not\n        /* \"#utility.yul\":1852:1854   */\n      0x1f\n        /* \"#utility.yul\":1845:1850   */\n      dup4\n        /* \"#utility.yul\":1841:1855   */\n      add\n        /* \"#utility.yul\":1837:1865   */\n      and\n        /* \"#utility.yul\":1827:1865   */\n      swap1\n      pop\n        /* \"#utility.yul\":1769:1871   */\n      swap2\n      swap1\n      pop\n      jump\t// out\n        /* \"#utility.yul\":1877:2241   */\n    tag_190:\n        /* \"#utility.yul\":1965:1968   */\n      0x00\n        /* \"#utility.yul\":1993:2032   */\n      tag_244\n        /* \"#utility.yul\":2026:2031   */\n      dup3\n        /* \"#utility.yul\":1993:2032   */\n      tag_186\n      jump\t// in\n    tag_244:\n        /* \"#utility.yul\":2048:2119   */\n      tag_245\n        /* \"#utility.yul\":2112:2118   */\n      dup2\n        /* \"#utility.yul\":2107:2110   */\n      dup6\n        /* \"#utility.yul\":2048:2119   */\n      tag_187\n      jump\t// in\n    tag_245:\n        /* \"#utility.yul\":2041:2119   */\n      swap4\n      pop\n        /* \"#utility.yul\":2128:2180   */\n      tag_246\n        /* \"#utility.yul\":2173:2179   */\n      dup2\n        /* \"#utility.yul\":2168:2171   */\n      dup6\n        /* \"#utility.yul\":2161:2165   */\n      0x20\n        /* \"#utility.yul\":2154:2159   */\n      dup7\n        /* \"#utility.yul\":2150:2166   */\n      add\n        /* \"#utility.yul\":2128:2180   */\n      tag_188\n      jump\t// in\n    tag_246:\n        /* \"#utility.yul\":2205:2234   */\n      tag_247\n        /* \"#utility.yul\":2227:2233   */\n      dup2\n        /* \"#utility.yul\":2205:2234   */\n      tag_189\n      jump\t// in\n    tag_247:\n        /* \"#utility.yul\":2200:2203   */\n      dup5\n        /* \"#utility.yul\":2196:2235   */\n      add\n        /* \"#utility.yul\":2189:2235   */\n      swap2\n      pop\n        /* \"#utility.yul\":1969:2241   */\n      pop\n        /* \"#utility.yul\":1877:2241   */\n      swap3\n      swap2\n      pop\n      pop\n      jump\t// out\n        /* \"#utility.yul\":2247:2324   */\n    tag_191:\n        /* \"#utility.yul\":2284:2291   */\n      0x00\n        /* \"#utility.yul\":2313:2318   */\n      dup2\n        /* \"#utility.yul\":2302:2318   */\n      swap1\n      pop\n        /* \"#utility.yul\":2247:2324   */\n      swap2\n      swap1\n      pop\n      jump\t// out\n        /* \"#utility.yul\":2330:2448   */\n    tag_192:\n        /* \"#utility.yul\":2417:2441   */\n      tag_250\n        /* \"#utility.yul\":2435:2440   */\n      dup2\n        /* \"#utility.yul\":2417:2441   */\n      tag_191\n      jump\t// in\n    tag_250:\n        /* \"#utility.yul\":2412:2415   */\n      dup3\n        /* \"#utility.yul\":2405:2442   */\n      mstore\n        /* \"#utility.yul\":2330:2448   */\n      pop\n      pop\n      jump\t// out\n        /* \"#utility.yul\":2454:3482   */\n    tag_28:\n        /* \"#utility.yul\":2739:2743   */\n      0x00\n        /* \"#utility.yul\":2777:2780   */\n      0xa0\n        /* \"#utility.yul\":2766:2775   */\n      dup3\n        /* \"#utility.yul\":2762:2781   */\n      add\n        /* \"#utility.yul\":2754:2781   */\n      swap1\n      pop\n        /* \"#utility.yul\":2827:2836   */\n      dup2\n        /* \"#utility.yul\":2821:2825   */\n      dup2\n        /* \"#utility.yul\":2817:2837   */\n      sub\n        /* \"#utility.yul\":2813:2814   */\n      0x00\n        /* \"#utility.yul\":2802:2811   */\n      dup4\n        /* \"#utility.yul\":2798:2815   */\n      add\n        /* \"#utility.yul\":2791:2838   */\n      mstore\n        /* \"#utility.yul\":2855:2933   */\n      tag_252\n        /* \"#utility.yul\":2928:2932   */\n      dup2\n        /* \"#utility.yul\":2919:2925   */\n      dup9\n        /* \"#utility.yul\":2855:2933   */\n      tag_190\n      jump\t// in\n    tag_252:\n        /* \"#utility.yul\":2847:2933   */\n      swap1\n      pop\n        /* \"#utility.yul\":2943:3015   */\n      tag_253\n        /* \"#utility.yul\":3011:3013   */\n      0x20\n        /* \"#utility.yul\":3000:3009   */\n      dup4\n        /* \"#utility.yul\":2996:3014   */\n      add\n        /* \"#utility.yul\":2987:2993   */\n      dup8\n        /* \"#utility.yul\":2943:3015   */\n      tag_192\n      jump\t// in\n    tag_253:\n        /* \"#utility.yul\":3062:3071   */\n      dup2\n        /* \"#utility.yul\":3056:3060   */\n      dup2\n        /* \"#utility.yul\":3052:3072   */\n      sub\n        /* \"#utility.yul\":3047:3049   */\n      0x40\n        /* \"#utility.yul\":3036:3045   */\n      dup4\n        /* \"#utility.yul\":3032:3050   */\n      add\n        /* \"#utility.yul\":3025:3073   */\n      mstore\n        /* \"#utility.yul\":3090:3168   */\n      tag_254\n        /* \"#utility.yul\":3163:3167   */\n      dup2\n        /* \"#utility.yul\":3154:3160   */\n      dup7\n        /* \"#utility.yul\":3090:3168   */\n      tag_190\n      jump\t// in\n    tag_254:\n        /* \"#utility.yul\":3082:3168   */\n      swap1\n      pop\n        /* \"#utility.yul\":3215:3224   */\n      dup2\n        /* \"#utility.yul\":3209:3213   */\n      dup2\n        /* \"#utility.yul\":3205:3225   */\n      sub\n        /* \"#utility.yul\":3200:3202   */\n      0x60\n        /* \"#utility.yul\":3189:3198   */\n      dup4\n        /* \"#utility.yul\":3185:3203   */\n      add\n        /* \"#utility.yul\":3178:3226   */\n      mstore\n        /* \"#utility.yul\":3243:3321   */\n      tag_255\n        /* \"#utility.yul\":3316:3320   */\n      dup2\n        /* \"#utility.yul\":3307:3313   */\n      dup6\n        /* \"#utility.yul\":3243:3321   */\n      tag_190\n      jump\t// in\n    tag_255:\n        /* \"#utility.yul\":3235:3321   */\n      swap1\n      pop\n        /* \"#utility.yul\":3369:3378   */\n      dup2\n        /* \"#utility.yul\":3363:3367   */\n      dup2\n        /* \"#utility.yul\":3359:3379   */\n      sub\n        /* \"#utility.yul\":3353:3356   */\n      0x80\n        /* \"#utility.yul\":3342:3351   */\n      dup4\n        /* \"#utility.yul\":3338:3357   */\n      add\n        /* \"#utility.yul\":3331:3380   */\n      mstore\n        /* \"#utility.yul\":3397:3475   */\n      tag_256\n        /* \"#utility.yul\":3470:3474   */\n      dup2\n        /* \"#utility.yul\":3461:3467   */\n      dup5\n        /* \"#utility.yul\":3397:3475   */\n      tag_190\n      jump\t// in\n    tag_256:\n        /* \"#utility.yul\":3389:3475   */\n      swap1\n      pop\n        /* \"#utility.yul\":2454:3482   */\n      swap7\n      swap6\n      pop\n      pop\n      pop\n      pop\n      pop\n      pop\n      jump\t// out\n        /* \"#utility.yul\":3488:3610   */\n    tag_193:\n        /* \"#utility.yul\":3561:3585   */\n      tag_258\n        /* \"#utility.yul\":3579:3584   */\n      dup2\n        /* \"#utility.yul\":3561:3585   */\n      tag_191\n      jump\t// in\n    tag_258:\n        /* \"#utility.yul\":3554:3559   */\n      dup2\n        /* \"#utility.yul\":3551:3586   */\n      eq\n        /* \"#utility.yul\":3541:3604   */\n      tag_259\n      jumpi\n        /* \"#utility.yul\":3600:3601   */\n      0x00\n        /* \"#utility.yul\":3597:3598   */\n      dup1\n        /* \"#utility.yul\":3590:3602   */\n      revert\n        /* \"#utility.yul\":3541:3604   */\n    tag_259:\n        /* \"#utility.yul\":3488:3610   */\n      pop\n      jump\t// out\n        /* \"#utility.yul\":3616:3755   */\n    tag_194:\n        /* \"#utility.yul\":3662:3667   */\n      0x00\n        /* \"#utility.yul\":3700:3706   */\n      dup2\n        /* \"#utility.yul\":3687:3707   */\n      calldataload\n        /* \"#utility.yul\":3678:3707   */\n      swap1\n      pop\n        /* \"#utility.yul\":3716:3749   */\n      tag_261\n        /* \"#utility.yul\":3743:3748   */\n      dup2\n        /* \"#utility.yul\":3716:3749   */\n      tag_193\n      jump\t// in\n    tag_261:\n        /* \"#utility.yul\":3616:3755   */\n      swap3\n      swap2\n      pop\n      pop\n      jump\t// out\n        /* \"#utility.yul\":3761:4090   */\n    tag_31:\n        /* \"#utility.yul\":3820:3826   */\n      0x00\n        /* \"#utility.yul\":3869:3871   */\n      0x20\n        /* \"#utility.yul\":3857:3866   */\n      dup3\n        /* \"#utility.yul\":3848:3855   */\n      dup5\n        /* \"#utility.yul\":3844:3867   */\n      sub\n        /* \"#utility.yul\":3840:3872   */\n      slt\n        /* \"#utility.yul\":3837:3956   */\n      iszero\n      tag_263\n      jumpi\n        /* \"#utility.yul\":3875:3954   */\n      tag_264\n      tag_180\n      jump\t// in\n    tag_264:\n        /* \"#utility.yul\":3837:3956   */\n    tag_263:\n        /* \"#utility.yul\":3995:3996   */\n      0x00\n        /* \"#utility.yul\":4020:4073   */\n      tag_265\n        /* \"#utility.yul\":4065:4072   */\n      dup5\n        /* \"#utility.yul\":4056:4062   */\n      dup3\n        /* \"#utility.yul\":4045:4054   */\n      dup6\n        /* \"#utility.yul\":4041:4063   */\n      add\n        /* \"#utility.yul\":4020:4073   */\n      tag_194\n      jump\t// in\n    tag_265:\n        /* \"#utility.yul\":4010:4073   */\n      swap2\n      pop\n        /* \"#utility.yul\":3966:4083   */\n      pop\n        /* \"#utility.yul\":3761:4090   */\n      swap3\n      swap2\n      pop\n      pop\n      jump\t// out\n        /* \"#utility.yul\":4096:4409   */\n    tag_34:\n        /* \"#utility.yul\":4209:4213   */\n      0x00\n        /* \"#utility.yul\":4247:4249   */\n      0x20\n        /* \"#utility.yul\":4236:4245   */\n      dup3\n        /* \"#utility.yul\":4232:4250   */\n      add\n        /* \"#utility.yul\":4224:4250   */\n      swap1\n      pop\n        /* \"#utility.yul\":4296:4305   */\n      dup2\n        /* \"#utility.yul\":4290:4294   */\n      dup2\n        /* \"#utility.yul\":4286:4306   */\n      sub\n        /* \"#utility.yul\":4282:4283   */\n      0x00\n        /* \"#utility.yul\":4271:4280   */\n      dup4\n        /* \"#utility.yul\":4267:4284   */\n      add\n        /* \"#utility.yul\":4260:4307   */\n      mstore\n        /* \"#utility.yul\":4324:4402   */\n      tag_267\n        /* \"#utility.yul\":4397:4401   */\n      dup2\n        /* \"#utility.yul\":4388:4394   */\n      dup5\n        /* \"#utility.yul\":4324:4402   */\n      tag_190\n      jump\t// in\n    tag_267:\n        /* \"#utility.yul\":4316:4402   */\n      swap1\n      pop\n        /* \"#utility.yul\":4096:4409   */\n      swap3\n      swap2\n      pop\n      pop\n      jump\t// out\n        /* \"#utility.yul\":4415:4505   */\n    tag_195:\n        /* \"#utility.yul\":4449:4456   */\n      0x00\n        /* \"#utility.yul\":4492:4497   */\n      dup2\n        /* \"#utility.yul\":4485:4498   */\n      iszero\n        /* \"#utility.yul\":4478:4499   */\n      iszero\n        /* \"#utility.yul\":4467:4499   */\n      swap1\n      pop\n        /* \"#utility.yul\":4415:4505   */\n      swap2\n      swap1\n      pop\n      jump\t// out\n        /* \"#utility.yul\":4511:4620   */\n    tag_196:\n        /* \"#utility.yul\":4592:4613   */\n      tag_270\n        /* \"#utility.yul\":4607:4612   */\n      dup2\n        /* \"#utility.yul\":4592:4613   */\n      tag_195\n      jump\t// in\n    tag_270:\n        /* \"#utility.yul\":4587:4590   */\n      dup3\n        /* \"#utility.yul\":4580:4614   */\n      mstore\n        /* \"#utility.yul\":4511:4620   */\n      pop\n      pop\n      jump\t// out\n        /* \"#utility.yul\":4626:4836   */\n    tag_39:\n        /* \"#utility.yul\":4713:4717   */\n      0x00\n        /* \"#utility.yul\":4751:4753   */\n      0x20\n        /* \"#utility.yul\":4740:4749   */\n      dup3\n        /* \"#utility.yul\":4736:4754   */\n      add\n        /* \"#utility.yul\":4728:4754   */\n      swap1\n      pop\n        /* \"#utility.yul\":4764:4829   */\n      tag_272\n        /* \"#utility.yul\":4826:4827   */\n      0x00\n        /* \"#utility.yul\":4815:4824   */\n      dup4\n        /* \"#utility.yul\":4811:4828   */\n      add\n        /* \"#utility.yul\":4802:4808   */\n      dup5\n        /* \"#utility.yul\":4764:4829   */\n      tag_196\n      jump\t// in\n    tag_272:\n        /* \"#utility.yul\":4626:4836   */\n      swap3\n      swap2\n      pop\n      pop\n      jump\t// out\n        /* \"#utility.yul\":4842:5265   */\n    tag_44:\n        /* \"#utility.yul\":4983:4987   */\n      0x00\n        /* \"#utility.yul\":5021:5023   */\n      0x40\n        /* \"#utility.yul\":5010:5019   */\n      dup3\n        /* \"#utility.yul\":5006:5024   */\n      add\n        /* \"#utility.yul\":4998:5024   */\n      swap1\n      pop\n        /* \"#utility.yul\":5070:5079   */\n      dup2\n        /* \"#utility.yul\":5064:5068   */\n      dup2\n        /* \"#utility.yul\":5060:5080   */\n      sub\n        /* \"#utility.yul\":5056:5057   */\n      0x00\n        /* \"#utility.yul\":5045:5054   */\n      dup4\n        /* \"#utility.yul\":5041:5058   */\n      add\n        /* \"#utility.yul\":5034:5081   */\n      mstore\n        /* \"#utility.yul\":5098:5176   */\n      tag_274\n        /* \"#utility.yul\":5171:5175   */\n      dup2\n        /* \"#utility.yul\":5162:5168   */\n      dup6\n        /* \"#utility.yul\":5098:5176   */\n      tag_190\n      jump\t// in\n    tag_274:\n        /* \"#utility.yul\":5090:5176   */\n      swap1\n      pop\n        /* \"#utility.yul\":5186:5258   */\n      tag_275\n        /* \"#utility.yul\":5254:5256   */\n      0x20\n        /* \"#utility.yul\":5243:5252   */\n      dup4\n        /* \"#utility.yul\":5239:5257   */\n      add\n        /* \"#utility.yul\":5230:5236   */\n      dup5\n        /* \"#utility.yul\":5186:5258   */\n      tag_192\n      jump\t// in\n    tag_275:\n        /* \"#utility.yul\":4842:5265   */\n      swap4\n      swap3\n      pop\n      pop\n      pop\n      jump\t// out\n        /* \"#utility.yul\":5271:5493   */\n    tag_52:\n        /* \"#utility.yul\":5364:5368   */\n      0x00\n        /* \"#utility.yul\":5402:5404   */\n      0x20\n        /* \"#utility.yul\":5391:5400   */\n      dup3\n        /* \"#utility.yul\":5387:5405   */\n      add\n        /* \"#utility.yul\":5379:5405   */\n      swap1\n      pop\n        /* \"#utility.yul\":5415:5486   */\n      tag_277\n        /* \"#utility.yul\":5483:5484   */\n      0x00\n        /* \"#utility.yul\":5472:5481   */\n      dup4\n        /* \"#utility.yul\":5468:5485   */\n      add\n        /* \"#utility.yul\":5459:5465   */\n      dup5\n        /* \"#utility.yul\":5415:5486   */\n      tag_192\n      jump\t// in\n    tag_277:\n        /* \"#utility.yul\":5271:5493   */\n      swap3\n      swap2\n      pop\n      pop\n      jump\t// out\n        /* \"#utility.yul\":5499:5617   */\n    tag_197:\n        /* \"#utility.yul\":5586:5610   */\n      tag_279\n        /* \"#utility.yul\":5604:5609   */\n      dup2\n        /* \"#utility.yul\":5586:5610   */\n      tag_183\n      jump\t// in\n    tag_279:\n        /* \"#utility.yul\":5581:5584   */\n      dup3\n        /* \"#utility.yul\":5574:5611   */\n      mstore\n        /* \"#utility.yul\":5499:5617   */\n      pop\n      pop\n      jump\t// out\n        /* \"#utility.yul\":5623:5845   */\n    tag_56:\n        /* \"#utility.yul\":5716:5720   */\n      0x00\n        /* \"#utility.yul\":5754:5756   */\n      0x20\n        /* \"#utility.yul\":5743:5752   */\n      dup3\n        /* \"#utility.yul\":5739:5757   */\n      add\n        /* \"#utility.yul\":5731:5757   */\n      swap1\n      pop\n        /* \"#utility.yul\":5767:5838   */\n      tag_281\n        /* \"#utility.yul\":5835:5836   */\n      0x00\n        /* \"#utility.yul\":5824:5833   */\n      dup4\n        /* \"#utility.yul\":5820:5837   */\n      add\n        /* \"#utility.yul\":5811:5817   */\n      dup5\n        /* \"#utility.yul\":5767:5838   */\n      tag_197\n      jump\t// in\n    tag_281:\n        /* \"#utility.yul\":5623:5845   */\n      swap3\n      swap2\n      pop\n      pop\n      jump\t// out\n        /* \"#utility.yul\":5851:5968   */\n    tag_198:\n        /* \"#utility.yul\":5960:5961   */\n      0x00\n        /* \"#utility.yul\":5957:5958   */\n      dup1\n        /* \"#utility.yul\":5950:5962   */\n      revert\n        /* \"#utility.yul\":5974:6091   */\n    tag_199:\n        /* \"#utility.yul\":6083:6084   */\n      0x00\n        /* \"#utility.yul\":6080:6081   */\n      dup1\n        /* \"#utility.yul\":6073:6085   */\n      revert\n        /* \"#utility.yul\":6097:6277   */\n    tag_200:\n        /* \"#utility.yul\":6145:6222   */\n      0x4e487b7100000000000000000000000000000000000000000000000000000000\n        /* \"#utility.yul\":6142:6143   */\n      0x00\n        /* \"#utility.yul\":6135:6223   */\n      mstore\n        /* \"#utility.yul\":6242:6246   */\n      0x41\n        /* \"#utility.yul\":6239:6240   */\n      0x04\n        /* \"#utility.yul\":6232:6247   */\n      mstore\n        /* \"#utility.yul\":6266:6270   */\n      0x24\n        /* \"#utility.yul\":6263:6264   */\n      0x00\n        /* \"#utility.yul\":6256:6271   */\n      revert\n        /* \"#utility.yul\":6283:6564   */\n    tag_201:\n        /* \"#utility.yul\":6366:6393   */\n      tag_286\n        /* \"#utility.yul\":6388:6392   */\n      dup3\n        /* \"#utility.yul\":6366:6393   */\n      tag_189\n      jump\t// in\n    tag_286:\n        /* \"#utility.yul\":6358:6364   */\n      dup2\n        /* \"#utility.yul\":6354:6394   */\n      add\n        /* \"#utility.yul\":6496:6502   */\n      dup2\n        /* \"#utility.yul\":6484:6494   */\n      dup2\n        /* \"#utility.yul\":6481:6503   */\n      lt\n        /* \"#utility.yul\":6460:6478   */\n      0xffffffffffffffff\n        /* \"#utility.yul\":6448:6458   */\n      dup3\n        /* \"#utility.yul\":6445:6479   */\n      gt\n        /* \"#utility.yul\":6442:6504   */\n      or\n        /* \"#utility.yul\":6439:6527   */\n      iszero\n      tag_287\n      jumpi\n        /* \"#utility.yul\":6507:6525   */\n      tag_288\n      tag_200\n      jump\t// in\n    tag_288:\n        /* \"#utility.yul\":6439:6527   */\n    tag_287:\n        /* \"#utility.yul\":6547:6557   */\n      dup1\n        /* \"#utility.yul\":6543:6545   */\n      0x40\n        /* \"#utility.yul\":6536:6558   */\n      mstore\n        /* \"#utility.yul\":6326:6564   */\n      pop\n        /* \"#utility.yul\":6283:6564   */\n      pop\n      pop\n      jump\t// out\n        /* \"#utility.yul\":6570:6699   */\n    tag_202:\n        /* \"#utility.yul\":6604:6610   */\n      0x00\n        /* \"#utility.yul\":6631:6651   */\n      tag_290\n      tag_179\n      jump\t// in\n    tag_290:\n        /* \"#utility.yul\":6621:6651   */\n      swap1\n      pop\n        /* \"#utility.yul\":6660:6693   */\n      tag_291\n        /* \"#utility.yul\":6688:6692   */\n      dup3\n        /* \"#utility.yul\":6680:6686   */\n      dup3\n        /* \"#utility.yul\":6660:6693   */\n      tag_201\n      jump\t// in\n    tag_291:\n        /* \"#utility.yul\":6570:6699   */\n      swap2\n      swap1\n      pop\n      jump\t// out\n        /* \"#utility.yul\":6705:7013   */\n    tag_203:\n        /* \"#utility.yul\":6767:6771   */\n      0x00\n        /* \"#utility.yul\":6857:6875   */\n      0xffffffffffffffff\n        /* \"#utility.yul\":6849:6855   */\n      dup3\n        /* \"#utility.yul\":6846:6876   */\n      gt\n        /* \"#utility.yul\":6843:6899   */\n      iszero\n      tag_293\n      jumpi\n        /* \"#utility.yul\":6879:6897   */\n      tag_294\n      tag_200\n      jump\t// in\n    tag_294:\n        /* \"#utility.yul\":6843:6899   */\n    tag_293:\n        /* \"#utility.yul\":6917:6946   */\n      tag_295\n        /* \"#utility.yul\":6939:6945   */\n      dup3\n        /* \"#utility.yul\":6917:6946   */\n      tag_189\n      jump\t// in\n    tag_295:\n        /* \"#utility.yul\":6909:6946   */\n      swap1\n      pop\n        /* \"#utility.yul\":7001:7005   */\n      0x20\n        /* \"#utility.yul\":6995:6999   */\n      dup2\n        /* \"#utility.yul\":6991:7006   */\n      add\n        /* \"#utility.yul\":6983:7006   */\n      swap1\n      pop\n        /* \"#utility.yul\":6705:7013   */\n      swap2\n      swap1\n      pop\n      jump\t// out\n        /* \"#utility.yul\":7019:7173   */\n    tag_204:\n        /* \"#utility.yul\":7103:7109   */\n      dup3\n        /* \"#utility.yul\":7098:7101   */\n      dup2\n        /* \"#utility.yul\":7093:7096   */\n      dup4\n        /* \"#utility.yul\":7080:7110   */\n      calldatacopy\n        /* \"#utility.yul\":7165:7166   */\n      0x00\n        /* \"#utility.yul\":7156:7162   */\n      dup4\n        /* \"#utility.yul\":7151:7154   */\n      dup4\n        /* \"#utility.yul\":7147:7163   */\n      add\n        /* \"#utility.yul\":7140:7167   */\n      mstore\n        /* \"#utility.yul\":7019:7173   */\n      pop\n      pop\n      pop\n      jump\t// out\n        /* \"#utility.yul\":7179:7591   */\n    tag_205:\n        /* \"#utility.yul\":7257:7262   */\n      0x00\n        /* \"#utility.yul\":7282:7348   */\n      tag_298\n        /* \"#utility.yul\":7298:7347   */\n      tag_299\n        /* \"#utility.yul\":7340:7346   */\n      dup5\n        /* \"#utility.yul\":7298:7347   */\n      tag_203\n      jump\t// in\n    tag_299:\n        /* \"#utility.yul\":7282:7348   */\n      tag_202\n      jump\t// in\n    tag_298:\n        /* \"#utility.yul\":7273:7348   */\n      swap1\n      pop\n        /* \"#utility.yul\":7371:7377   */\n      dup3\n        /* \"#utility.yul\":7364:7369   */\n      dup2\n        /* \"#utility.yul\":7357:7378   */\n      mstore\n        /* \"#utility.yul\":7409:7413   */\n      0x20\n        /* \"#utility.yul\":7402:7407   */\n      dup2\n        /* \"#utility.yul\":7398:7414   */\n      add\n        /* \"#utility.yul\":7447:7450   */\n      dup5\n        /* \"#utility.yul\":7438:7444   */\n      dup5\n        /* \"#utility.yul\":7433:7436   */\n      dup5\n        /* \"#utility.yul\":7429:7445   */\n      add\n        /* \"#utility.yul\":7426:7451   */\n      gt\n        /* \"#utility.yul\":7423:7535   */\n      iszero\n      tag_300\n      jumpi\n        /* \"#utility.yul\":7454:7533   */\n      tag_301\n      tag_199\n      jump\t// in\n    tag_301:\n        /* \"#utility.yul\":7423:7535   */\n    tag_300:\n        /* \"#utility.yul\":7544:7585   */\n      tag_302\n        /* \"#utility.yul\":7578:7584   */\n      dup5\n        /* \"#utility.yul\":7573:7576   */\n      dup3\n        /* \"#utility.yul\":7568:7571   */\n      dup6\n        /* \"#utility.yul\":7544:7585   */\n      tag_204\n      jump\t// in\n    tag_302:\n        /* \"#utility.yul\":7263:7591   */\n      pop\n        /* \"#utility.yul\":7179:7591   */\n      swap4\n      swap3\n      pop\n      pop\n      pop\n      jump\t// out\n        /* \"#utility.yul\":7611:7951   */\n    tag_206:\n        /* \"#utility.yul\":7667:7672   */\n      0x00\n        /* \"#utility.yul\":7716:7719   */\n      dup3\n        /* \"#utility.yul\":7709:7713   */\n      0x1f\n        /* \"#utility.yul\":7701:7707   */\n      dup4\n        /* \"#utility.yul\":7697:7714   */\n      add\n        /* \"#utility.yul\":7693:7720   */\n      slt\n        /* \"#utility.yul\":7683:7805   */\n      tag_304\n      jumpi\n        /* \"#utility.yul\":7724:7803   */\n      tag_305\n      tag_198\n      jump\t// in\n    tag_305:\n        /* \"#utility.yul\":7683:7805   */\n    tag_304:\n        /* \"#utility.yul\":7841:7847   */\n      dup2\n        /* \"#utility.yul\":7828:7848   */\n      calldataload\n        /* \"#utility.yul\":7866:7945   */\n      tag_306\n        /* \"#utility.yul\":7941:7944   */\n      dup5\n        /* \"#utility.yul\":7933:7939   */\n      dup3\n        /* \"#utility.yul\":7926:7930   */\n      0x20\n        /* \"#utility.yul\":7918:7924   */\n      dup7\n        /* \"#utility.yul\":7914:7931   */\n      add\n        /* \"#utility.yul\":7866:7945   */\n      tag_205\n      jump\t// in\n    tag_306:\n        /* \"#utility.yul\":7857:7945   */\n      swap2\n      pop\n        /* \"#utility.yul\":7673:7951   */\n      pop\n        /* \"#utility.yul\":7611:7951   */\n      swap3\n      swap2\n      pop\n      pop\n      jump\t// out\n        /* \"#utility.yul\":7957:9588   */\n    tag_62:\n        /* \"#utility.yul\":8092:8098   */\n      0x00\n        /* \"#utility.yul\":8100:8106   */\n      dup1\n        /* \"#utility.yul\":8108:8114   */\n      0x00\n        /* \"#utility.yul\":8116:8122   */\n      dup1\n        /* \"#utility.yul\":8124:8130   */\n      0x00\n        /* \"#utility.yul\":8173:8176   */\n      0xa0\n        /* \"#utility.yul\":8161:8170   */\n      dup7\n        /* \"#utility.yul\":8152:8159   */\n      dup9\n        /* \"#utility.yul\":8148:8171   */\n      sub\n        /* \"#utility.yul\":8144:8177   */\n      slt\n        /* \"#utility.yul\":8141:8261   */\n      iszero\n      tag_308\n      jumpi\n        /* \"#utility.yul\":8180:8259   */\n      tag_309\n      tag_180\n      jump\t// in\n    tag_309:\n        /* \"#utility.yul\":8141:8261   */\n    tag_308:\n        /* \"#utility.yul\":8328:8329   */\n      0x00\n        /* \"#utility.yul\":8317:8326   */\n      dup7\n        /* \"#utility.yul\":8313:8330   */\n      add\n        /* \"#utility.yul\":8300:8331   */\n      calldataload\n        /* \"#utility.yul\":8358:8376   */\n      0xffffffffffffffff\n        /* \"#utility.yul\":8350:8356   */\n      dup2\n        /* \"#utility.yul\":8347:8377   */\n      gt\n        /* \"#utility.yul\":8344:8461   */\n      iszero\n      tag_310\n      jumpi\n        /* \"#utility.yul\":8380:8459   */\n      tag_311\n      tag_181\n      jump\t// in\n    tag_311:\n        /* \"#utility.yul\":8344:8461   */\n    tag_310:\n        /* \"#utility.yul\":8485:8548   */\n      tag_312\n        /* \"#utility.yul\":8540:8547   */\n      dup9\n        /* \"#utility.yul\":8531:8537   */\n      dup3\n        /* \"#utility.yul\":8520:8529   */\n      dup10\n        /* \"#utility.yul\":8516:8538   */\n      add\n        /* \"#utility.yul\":8485:8548   */\n      tag_206\n      jump\t// in\n    tag_312:\n        /* \"#utility.yul\":8475:8548   */\n      swap6\n      pop\n        /* \"#utility.yul\":8271:8558   */\n      pop\n        /* \"#utility.yul\":8597:8599   */\n      0x20\n        /* \"#utility.yul\":8623:8676   */\n      tag_313\n        /* \"#utility.yul\":8668:8675   */\n      dup9\n        /* \"#utility.yul\":8659:8665   */\n      dup3\n        /* \"#utility.yul\":8648:8657   */\n      dup10\n        /* \"#utility.yul\":8644:8666   */\n      add\n        /* \"#utility.yul\":8623:8676   */\n      tag_194\n      jump\t// in\n    tag_313:\n        /* \"#utility.yul\":8613:8676   */\n      swap5\n      pop\n        /* \"#utility.yul\":8568:8686   */\n      pop\n        /* \"#utility.yul\":8753:8755   */\n      0x40\n        /* \"#utility.yul\":8742:8751   */\n      dup7\n        /* \"#utility.yul\":8738:8756   */\n      add\n        /* \"#utility.yul\":8725:8757   */\n      calldataload\n        /* \"#utility.yul\":8784:8802   */\n      0xffffffffffffffff\n        /* \"#utility.yul\":8776:8782   */\n      dup2\n        /* \"#utility.yul\":8773:8803   */\n      gt\n        /* \"#utility.yul\":8770:8887   */\n      iszero\n      tag_314\n      jumpi\n        /* \"#utility.yul\":8806:8885   */\n      tag_315\n      tag_181\n      jump\t// in\n    tag_315:\n        /* \"#utility.yul\":8770:8887   */\n    tag_314:\n        /* \"#utility.yul\":8911:8974   */\n      tag_316\n        /* \"#utility.yul\":8966:8973   */\n      dup9\n        /* \"#utility.yul\":8957:8963   */\n      dup3\n        /* \"#utility.yul\":8946:8955   */\n      dup10\n        /* \"#utility.yul\":8942:8964   */\n      add\n        /* \"#utility.yul\":8911:8974   */\n      tag_206\n      jump\t// in\n    tag_316:\n        /* \"#utility.yul\":8901:8974   */\n      swap4\n      pop\n        /* \"#utility.yul\":8696:8984   */\n      pop\n        /* \"#utility.yul\":9051:9053   */\n      0x60\n        /* \"#utility.yul\":9040:9049   */\n      dup7\n        /* \"#utility.yul\":9036:9054   */\n      add\n        /* \"#utility.yul\":9023:9055   */\n      calldataload\n        /* \"#utility.yul\":9082:9100   */\n      0xffffffffffffffff\n        /* \"#utility.yul\":9074:9080   */\n      dup2\n        /* \"#utility.yul\":9071:9101   */\n      gt\n        /* \"#utility.yul\":9068:9185   */\n      iszero\n      tag_317\n      jumpi\n        /* \"#utility.yul\":9104:9183   */\n      tag_318\n      tag_181\n      jump\t// in\n    tag_318:\n        /* \"#utility.yul\":9068:9185   */\n    tag_317:\n        /* \"#utility.yul\":9209:9272   */\n      tag_319\n        /* \"#utility.yul\":9264:9271   */\n      dup9\n        /* \"#utility.yul\":9255:9261   */\n      dup3\n        /* \"#utility.yul\":9244:9253   */\n      dup10\n        /* \"#utility.yul\":9240:9262   */\n      add\n        /* \"#utility.yul\":9209:9272   */\n      tag_206\n      jump\t// in\n    tag_319:\n        /* \"#utility.yul\":9199:9272   */\n      swap3\n      pop\n        /* \"#utility.yul\":8994:9282   */\n      pop\n        /* \"#utility.yul\":9349:9352   */\n      0x80\n        /* \"#utility.yul\":9338:9347   */\n      dup7\n        /* \"#utility.yul\":9334:9353   */\n      add\n        /* \"#utility.yul\":9321:9354   */\n      calldataload\n        /* \"#utility.yul\":9381:9399   */\n      0xffffffffffffffff\n        /* \"#utility.yul\":9373:9379   */\n      dup2\n        /* \"#utility.yul\":9370:9400   */\n      gt\n        /* \"#utility.yul\":9367:9484   */\n      iszero\n      tag_320\n      jumpi\n        /* \"#utility.yul\":9403:9482   */\n      tag_321\n      tag_181\n      jump\t// in\n    tag_321:\n        /* \"#utility.yul\":9367:9484   */\n    tag_320:\n        /* \"#utility.yul\":9508:9571   */\n      tag_322\n        /* \"#utility.yul\":9563:9570   */\n      dup9\n        /* \"#utility.yul\":9554:9560   */\n      dup3\n        /* \"#utility.yul\":9543:9552   */\n      dup10\n        /* \"#utility.yul\":9539:9561   */\n      add\n        /* \"#utility.yul\":9508:9571   */\n      tag_206\n      jump\t// in\n    tag_322:\n        /* \"#utility.yul\":9498:9571   */\n      swap2\n      pop\n        /* \"#utility.yul\":9292:9581   */\n      pop\n        /* \"#utility.yul\":7957:9588   */\n      swap3\n      swap6\n      pop\n      swap3\n      swap6\n      swap1\n      swap4\n      pop\n      jump\t// out\n        /* \"#utility.yul\":9594:10248   */\n    tag_69:\n        /* \"#utility.yul\":9672:9678   */\n      0x00\n        /* \"#utility.yul\":9680:9686   */\n      dup1\n        /* \"#utility.yul\":9729:9731   */\n      0x40\n        /* \"#utility.yul\":9717:9726   */\n      dup4\n        /* \"#utility.yul\":9708:9715   */\n      dup6\n        /* \"#utility.yul\":9704:9727   */\n      sub\n        /* \"#utility.yul\":9700:9732   */\n      slt\n        /* \"#utility.yul\":9697:9816   */\n      iszero\n      tag_324\n      jumpi\n        /* \"#utility.yul\":9735:9814   */\n      tag_325\n      tag_180\n      jump\t// in\n    tag_325:\n        /* \"#utility.yul\":9697:9816   */\n    tag_324:\n        /* \"#utility.yul\":9883:9884   */\n      0x00\n        /* \"#utility.yul\":9872:9881   */\n      dup4\n        /* \"#utility.yul\":9868:9885   */\n      add\n        /* \"#utility.yul\":9855:9886   */\n      calldataload\n        /* \"#utility.yul\":9913:9931   */\n      0xffffffffffffffff\n        /* \"#utility.yul\":9905:9911   */\n      dup2\n        /* \"#utility.yul\":9902:9932   */\n      gt\n        /* \"#utility.yul\":9899:10016   */\n      iszero\n      tag_326\n      jumpi\n        /* \"#utility.yul\":9935:10014   */\n      tag_327\n      tag_181\n      jump\t// in\n    tag_327:\n        /* \"#utility.yul\":9899:10016   */\n    tag_326:\n        /* \"#utility.yul\":10040:10103   */\n      tag_328\n        /* \"#utility.yul\":10095:10102   */\n      dup6\n        /* \"#utility.yul\":10086:10092   */\n      dup3\n        /* \"#utility.yul\":10075:10084   */\n      dup7\n        /* \"#utility.yul\":10071:10093   */\n      add\n        /* \"#utility.yul\":10040:10103   */\n      tag_206\n      jump\t// in\n    tag_328:\n        /* \"#utility.yul\":10030:10103   */\n      swap3\n      pop\n        /* \"#utility.yul\":9826:10113   */\n      pop\n        /* \"#utility.yul\":10152:10154   */\n      0x20\n        /* \"#utility.yul\":10178:10231   */\n      tag_329\n        /* \"#utility.yul\":10223:10230   */\n      dup6\n        /* \"#utility.yul\":10214:10220   */\n      dup3\n        /* \"#utility.yul\":10203:10212   */\n      dup7\n        /* \"#utility.yul\":10199:10221   */\n      add\n        /* \"#utility.yul\":10178:10231   */\n      tag_194\n      jump\t// in\n    tag_329:\n        /* \"#utility.yul\":10168:10231   */\n      swap2\n      pop\n        /* \"#utility.yul\":10123:10241   */\n      pop\n        /* \"#utility.yul\":9594:10248   */\n      swap3\n      pop\n      swap3\n      swap1\n      pop\n      jump\t// out\n        /* \"#utility.yul\":10254:10434   */\n    tag_207:\n        /* \"#utility.yul\":10302:10379   */\n      0x4e487b7100000000000000000000000000000000000000000000000000000000\n        /* \"#utility.yul\":10299:10300   */\n      0x00\n        /* \"#utility.yul\":10292:10380   */\n      mstore\n        /* \"#utility.yul\":10399:10403   */\n      0x22\n        /* \"#utility.yul\":10396:10397   */\n      0x04\n        /* \"#utility.yul\":10389:10404   */\n      mstore\n        /* \"#utility.yul\":10423:10427   */\n      0x24\n        /* \"#utility.yul\":10420:10421   */\n      0x00\n        /* \"#utility.yul\":10413:10428   */\n      revert\n        /* \"#utility.yul\":10440:10760   */\n    tag_84:\n        /* \"#utility.yul\":10484:10490   */\n      0x00\n        /* \"#utility.yul\":10521:10522   */\n      0x02\n        /* \"#utility.yul\":10515:10519   */\n      dup3\n        /* \"#utility.yul\":10511:10523   */\n      div\n        /* \"#utility.yul\":10501:10523   */\n      swap1\n      pop\n        /* \"#utility.yul\":10568:10569   */\n      0x01\n        /* \"#utility.yul\":10562:10566   */\n      dup3\n        /* \"#utility.yul\":10558:10570   */\n      and\n        /* \"#utility.yul\":10589:10607   */\n      dup1\n        /* \"#utility.yul\":10579:10660   */\n      tag_332\n      jumpi\n        /* \"#utility.yul\":10645:10649   */\n      0x7f\n        /* \"#utility.yul\":10637:10643   */\n      dup3\n        /* \"#utility.yul\":10633:10650   */\n      and\n        /* \"#utility.yul\":10623:10650   */\n      swap2\n      pop\n        /* \"#utility.yul\":10579:10660   */\n    tag_332:\n        /* \"#utility.yul\":10707:10709   */\n      0x20\n        /* \"#utility.yul\":10699:10705   */\n      dup3\n        /* \"#utility.yul\":10696:10710   */\n      lt\n        /* \"#utility.yul\":10676:10694   */\n      dup2\n        /* \"#utility.yul\":10673:10711   */\n      eq\n        /* \"#utility.yul\":10670:10754   */\n      iszero\n      tag_333\n      jumpi\n        /* \"#utility.yul\":10726:10744   */\n      tag_334\n      tag_207\n      jump\t// in\n    tag_334:\n        /* \"#utility.yul\":10670:10754   */\n    tag_333:\n        /* \"#utility.yul\":10491:10760   */\n      pop\n        /* \"#utility.yul\":10440:10760   */\n      swap2\n      swap1\n      pop\n      jump\t// out\n        /* \"#utility.yul\":10766:10864   */\n    tag_208:\n        /* \"#utility.yul\":10817:10823   */\n      0x00\n        /* \"#utility.yul\":10851:10856   */\n      dup2\n        /* \"#utility.yul\":10845:10857   */\n      mload\n        /* \"#utility.yul\":10835:10857   */\n      swap1\n      pop\n        /* \"#utility.yul\":10766:10864   */\n      swap2\n      swap1\n      pop\n      jump\t// out\n        /* \"#utility.yul\":10870:11017   */\n    tag_209:\n        /* \"#utility.yul\":10971:10982   */\n      0x00\n        /* \"#utility.yul\":11008:11011   */\n      dup2\n        /* \"#utility.yul\":10993:11011   */\n      swap1\n      pop\n        /* \"#utility.yul\":10870:11017   */\n      swap3\n      swap2\n      pop\n      pop\n      jump\t// out\n        /* \"#utility.yul\":11023:11396   */\n    tag_210:\n        /* \"#utility.yul\":11127:11130   */\n      0x00\n        /* \"#utility.yul\":11155:11193   */\n      tag_338\n        /* \"#utility.yul\":11187:11192   */\n      dup3\n        /* \"#utility.yul\":11155:11193   */\n      tag_208\n      jump\t// in\n    tag_338:\n        /* \"#utility.yul\":11209:11297   */\n      tag_339\n        /* \"#utility.yul\":11290:11296   */\n      dup2\n        /* \"#utility.yul\":11285:11288   */\n      dup6\n        /* \"#utility.yul\":11209:11297   */\n      tag_209\n      jump\t// in\n    tag_339:\n        /* \"#utility.yul\":11202:11297   */\n      swap4\n      pop\n        /* \"#utility.yul\":11306:11358   */\n      tag_340\n        /* \"#utility.yul\":11351:11357   */\n      dup2\n        /* \"#utility.yul\":11346:11349   */\n      dup6\n        /* \"#utility.yul\":11339:11343   */\n      0x20\n        /* \"#utility.yul\":11332:11337   */\n      dup7\n        /* \"#utility.yul\":11328:11344   */\n      add\n        /* \"#utility.yul\":11306:11358   */\n      tag_188\n      jump\t// in\n    tag_340:\n        /* \"#utility.yul\":11383:11389   */\n      dup1\n        /* \"#utility.yul\":11378:11381   */\n      dup5\n        /* \"#utility.yul\":11374:11390   */\n      add\n        /* \"#utility.yul\":11367:11390   */\n      swap2\n      pop\n        /* \"#utility.yul\":11131:11396   */\n      pop\n        /* \"#utility.yul\":11023:11396   */\n      swap3\n      swap2\n      pop\n      pop\n      jump\t// out\n        /* \"#utility.yul\":11402:11673   */\n    tag_125:\n        /* \"#utility.yul\":11532:11535   */\n      0x00\n        /* \"#utility.yul\":11554:11647   */\n      tag_342\n        /* \"#utility.yul\":11643:11646   */\n      dup3\n        /* \"#utility.yul\":11634:11640   */\n      dup5\n        /* \"#utility.yul\":11554:11647   */\n      tag_210\n      jump\t// in\n    tag_342:\n        /* \"#utility.yul\":11547:11647   */\n      swap2\n      pop\n        /* \"#utility.yul\":11664:11667   */\n      dup2\n        /* \"#utility.yul\":11657:11667   */\n      swap1\n      pop\n        /* \"#utility.yul\":11402:11673   */\n      swap3\n      swap2\n      pop\n      pop\n      jump\t// out\n        /* \"#utility.yul\":11679:11840   */\n    tag_211:\n        /* \"#utility.yul\":11819:11832   */\n      0x736f6d65206572726f7231000000000000000000000000000000000000000000\n        /* \"#utility.yul\":11815:11816   */\n      0x00\n        /* \"#utility.yul\":11807:11813   */\n      dup3\n        /* \"#utility.yul\":11803:11817   */\n      add\n        /* \"#utility.yul\":11796:11833   */\n      mstore\n        /* \"#utility.yul\":11679:11840   */\n      pop\n      jump\t// out\n        /* \"#utility.yul\":11846:12212   */\n    tag_212:\n        /* \"#utility.yul\":11988:11991   */\n      0x00\n        /* \"#utility.yul\":12009:12076   */\n      tag_345\n        /* \"#utility.yul\":12073:12075   */\n      0x0b\n        /* \"#utility.yul\":12068:12071   */\n      dup4\n        /* \"#utility.yul\":12009:12076   */\n      tag_187\n      jump\t// in\n    tag_345:\n        /* \"#utility.yul\":12002:12076   */\n      swap2\n      pop\n        /* \"#utility.yul\":12085:12178   */\n      tag_346\n        /* \"#utility.yul\":12174:12177   */\n      dup3\n        /* \"#utility.yul\":12085:12178   */\n      tag_211\n      jump\t// in\n    tag_346:\n        /* \"#utility.yul\":12203:12205   */\n      0x20\n        /* \"#utility.yul\":12198:12201   */\n      dup3\n        /* \"#utility.yul\":12194:12206   */\n      add\n        /* \"#utility.yul\":12187:12206   */\n      swap1\n      pop\n        /* \"#utility.yul\":11846:12212   */\n      swap2\n      swap1\n      pop\n      jump\t// out\n        /* \"#utility.yul\":12218:12637   */\n    tag_131:\n        /* \"#utility.yul\":12384:12388   */\n      0x00\n        /* \"#utility.yul\":12422:12424   */\n      0x20\n        /* \"#utility.yul\":12411:12420   */\n      dup3\n        /* \"#utility.yul\":12407:12425   */\n      add\n        /* \"#utility.yul\":12399:12425   */\n      swap1\n      pop\n        /* \"#utility.yul\":12471:12480   */\n      dup2\n        /* \"#utility.yul\":12465:12469   */\n      dup2\n        /* \"#utility.yul\":12461:12481   */\n      sub\n        /* \"#utility.yul\":12457:12458   */\n      0x00\n        /* \"#utility.yul\":12446:12455   */\n      dup4\n        /* \"#utility.yul\":12442:12459   */\n      add\n        /* \"#utility.yul\":12435:12482   */\n      mstore\n        /* \"#utility.yul\":12499:12630   */\n      tag_348\n        /* \"#utility.yul\":12625:12629   */\n      dup2\n        /* \"#utility.yul\":12499:12630   */\n      tag_212\n      jump\t// in\n    tag_348:\n        /* \"#utility.yul\":12491:12630   */\n      swap1\n      pop\n        /* \"#utility.yul\":12218:12637   */\n      swap2\n      swap1\n      pop\n      jump\t// out\n        /* \"#utility.yul\":12643:12747   */\n    tag_213:\n        /* \"#utility.yul\":12688:12695   */\n      0x00\n        /* \"#utility.yul\":12717:12741   */\n      tag_350\n        /* \"#utility.yul\":12735:12740   */\n      dup3\n        /* \"#utility.yul\":12717:12741   */\n      tag_182\n      jump\t// in\n    tag_350:\n        /* \"#utility.yul\":12706:12741   */\n      swap1\n      pop\n        /* \"#utility.yul\":12643:12747   */\n      swap2\n      swap1\n      pop\n      jump\t// out\n        /* \"#utility.yul\":12753:12891   */\n    tag_214:\n        /* \"#utility.yul\":12834:12866   */\n      tag_352\n        /* \"#utility.yul\":12860:12865   */\n      dup2\n        /* \"#utility.yul\":12834:12866   */\n      tag_213\n      jump\t// in\n    tag_352:\n        /* \"#utility.yul\":12827:12832   */\n      dup2\n        /* \"#utility.yul\":12824:12867   */\n      eq\n        /* \"#utility.yul\":12814:12885   */\n      tag_353\n      jumpi\n        /* \"#utility.yul\":12881:12882   */\n      0x00\n        /* \"#utility.yul\":12878:12879   */\n      dup1\n        /* \"#utility.yul\":12871:12883   */\n      revert\n        /* \"#utility.yul\":12814:12885   */\n    tag_353:\n        /* \"#utility.yul\":12753:12891   */\n      pop\n      jump\t// out\n        /* \"#utility.yul\":12897:13056   */\n    tag_215:\n        /* \"#utility.yul\":12962:12967   */\n      0x00\n        /* \"#utility.yul\":12993:12999   */\n      dup2\n        /* \"#utility.yul\":12987:13000   */\n      mload\n        /* \"#utility.yul\":12978:13000   */\n      swap1\n      pop\n        /* \"#utility.yul\":13009:13050   */\n      tag_355\n        /* \"#utility.yul\":13044:13049   */\n      dup2\n        /* \"#utility.yul\":13009:13050   */\n      tag_214\n      jump\t// in\n    tag_355:\n        /* \"#utility.yul\":12897:13056   */\n      swap3\n      swap2\n      pop\n      pop\n      jump\t// out\n        /* \"#utility.yul\":13062:13429   */\n    tag_133:\n        /* \"#utility.yul\":13140:13146   */\n      0x00\n        /* \"#utility.yul\":13189:13191   */\n      0x20\n        /* \"#utility.yul\":13177:13186   */\n      dup3\n        /* \"#utility.yul\":13168:13175   */\n      dup5\n        /* \"#utility.yul\":13164:13187   */\n      sub\n        /* \"#utility.yul\":13160:13192   */\n      slt\n        /* \"#utility.yul\":13157:13276   */\n      iszero\n      tag_357\n      jumpi\n        /* \"#utility.yul\":13195:13274   */\n      tag_358\n      tag_180\n      jump\t// in\n    tag_358:\n        /* \"#utility.yul\":13157:13276   */\n    tag_357:\n        /* \"#utility.yul\":13315:13316   */\n      0x00\n        /* \"#utility.yul\":13340:13412   */\n      tag_359\n        /* \"#utility.yul\":13404:13411   */\n      dup5\n        /* \"#utility.yul\":13395:13401   */\n      dup3\n        /* \"#utility.yul\":13384:13393   */\n      dup6\n        /* \"#utility.yul\":13380:13402   */\n      add\n        /* \"#utility.yul\":13340:13412   */\n      tag_215\n      jump\t// in\n    tag_359:\n        /* \"#utility.yul\":13330:13412   */\n      swap2\n      pop\n        /* \"#utility.yul\":13286:13422   */\n      pop\n        /* \"#utility.yul\":13062:13429   */\n      swap3\n      swap2\n      pop\n      pop\n      jump\t// out\n        /* \"#utility.yul\":13435:13615   */\n    tag_216:\n        /* \"#utility.yul\":13483:13560   */\n      0x4e487b7100000000000000000000000000000000000000000000000000000000\n        /* \"#utility.yul\":13480:13481   */\n      0x00\n        /* \"#utility.yul\":13473:13561   */\n      mstore\n        /* \"#utility.yul\":13580:13584   */\n      0x11\n        /* \"#utility.yul\":13577:13578   */\n      0x04\n        /* \"#utility.yul\":13570:13585   */\n      mstore\n        /* \"#utility.yul\":13604:13608   */\n      0x24\n        /* \"#utility.yul\":13601:13602   */\n      0x00\n        /* \"#utility.yul\":13594:13609   */\n      revert\n        /* \"#utility.yul\":13621:13926   */\n    tag_136:\n        /* \"#utility.yul\":13661:13664   */\n      0x00\n        /* \"#utility.yul\":13680:13700   */\n      tag_362\n        /* \"#utility.yul\":13698:13699   */\n      dup3\n        /* \"#utility.yul\":13680:13700   */\n      tag_191\n      jump\t// in\n    tag_362:\n        /* \"#utility.yul\":13675:13700   */\n      swap2\n      pop\n        /* \"#utility.yul\":13714:13734   */\n      tag_363\n        /* \"#utility.yul\":13732:13733   */\n      dup4\n        /* \"#utility.yul\":13714:13734   */\n      tag_191\n      jump\t// in\n    tag_363:\n        /* \"#utility.yul\":13709:13734   */\n      swap3\n      pop\n        /* \"#utility.yul\":13868:13869   */\n      dup3\n        /* \"#utility.yul\":13800:13866   */\n      0xffffffffffffffffffffffffffffffffffffffffffffffffffffffffffffffff\n        /* \"#utility.yul\":13796:13870   */\n      sub\n        /* \"#utility.yul\":13793:13794   */\n      dup3\n        /* \"#utility.yul\":13790:13871   */\n      gt\n        /* \"#utility.yul\":13787:13894   */\n      iszero\n      tag_364\n      jumpi\n        /* \"#utility.yul\":13874:13892   */\n      tag_365\n      tag_216\n      jump\t// in\n    tag_365:\n        /* \"#utility.yul\":13787:13894   */\n    tag_364:\n        /* \"#utility.yul\":13918:13919   */\n      dup3\n        /* \"#utility.yul\":13915:13916   */\n      dup3\n        /* \"#utility.yul\":13911:13920   */\n      add\n        /* \"#utility.yul\":13904:13920   */\n      swap1\n      pop\n        /* \"#utility.yul\":13621:13926   */\n      swap3\n      swap2\n      pop\n      pop\n      jump\t// out\n        /* \"#utility.yul\":13932:14264   */\n    tag_139:\n        /* \"#utility.yul\":14053:14057   */\n      0x00\n        /* \"#utility.yul\":14091:14093   */\n      0x40\n        /* \"#utility.yul\":14080:14089   */\n      dup3\n        /* \"#utility.yul\":14076:14094   */\n      add\n        /* \"#utility.yul\":14068:14094   */\n      swap1\n      pop\n        /* \"#utility.yul\":14104:14175   */\n      tag_367\n        /* \"#utility.yul\":14172:14173   */\n      0x00\n        /* \"#utility.yul\":14161:14170   */\n      dup4\n        /* \"#utility.yul\":14157:14174   */\n      add\n        /* \"#utility.yul\":14148:14154   */\n      dup6\n        /* \"#utility.yul\":14104:14175   */\n      tag_192\n      jump\t// in\n    tag_367:\n        /* \"#utility.yul\":14185:14257   */\n      tag_368\n        /* \"#utility.yul\":14253:14255   */\n      0x20\n        /* \"#utility.yul\":14242:14251   */\n      dup4\n        /* \"#utility.yul\":14238:14256   */\n      add\n        /* \"#utility.yul\":14229:14235   */\n      dup5\n        /* \"#utility.yul\":14185:14257   */\n      tag_197\n      jump\t// in\n    tag_368:\n        /* \"#utility.yul\":13932:14264   */\n      swap4\n      swap3\n      pop\n      pop\n      pop\n      jump\t// out\n        /* \"#utility.yul\":14270:14431   */\n    tag_217:\n        /* \"#utility.yul\":14410:14423   */\n      0x736f6d65206572726f7232000000000000000000000000000000000000000000\n        /* \"#utility.yul\":14406:14407   */\n      0x00\n        /* \"#utility.yul\":14398:14404   */\n      dup3\n        /* \"#utility.yul\":14394:14408   */\n      add\n        /* \"#utility.yul\":14387:14424   */\n      mstore\n        /* \"#utility.yul\":14270:14431   */\n      pop\n      jump\t// out\n        /* \"#utility.yul\":14437:14803   */\n    tag_218:\n        /* \"#utility.yul\":14579:14582   */\n      0x00\n        /* \"#utility.yul\":14600:14667   */\n      tag_371\n        /* \"#utility.yul\":14664:14666   */\n      0x0b\n        /* \"#utility.yul\":14659:14662   */\n      dup4\n        /* \"#utility.yul\":14600:14667   */\n      tag_187\n      jump\t// in\n    tag_371:\n        /* \"#utility.yul\":14593:14667   */\n      swap2\n      pop\n        /* \"#utility.yul\":14676:14769   */\n      tag_372\n        /* \"#utility.yul\":14765:14768   */\n      dup3\n        /* \"#utility.yul\":14676:14769   */\n      tag_217\n      jump\t// in\n    tag_372:\n        /* \"#utility.yul\":14794:14796   */\n      0x20\n        /* \"#utility.yul\":14789:14792   */\n      dup3\n        /* \"#utility.yul\":14785:14797   */\n      add\n        /* \"#utility.yul\":14778:14797   */\n      swap1\n      pop\n        /* \"#utility.yul\":14437:14803   */\n      swap2\n      swap1\n      pop\n      jump\t// out\n        /* \"#utility.yul\":14809:15228   */\n    tag_147:\n        /* \"#utility.yul\":14975:14979   */\n      0x00\n        /* \"#utility.yul\":15013:15015   */\n      0x20\n        /* \"#utility.yul\":15002:15011   */\n      dup3\n        /* \"#utility.yul\":14998:15016   */\n      add\n        /* \"#utility.yul\":14990:15016   */\n      swap1\n      pop\n        /* \"#utility.yul\":15062:15071   */\n      dup2\n        /* \"#utility.yul\":15056:15060   */\n      dup2\n        /* \"#utility.yul\":15052:15072   */\n      sub\n        /* \"#utility.yul\":15048:15049   */\n      0x00\n        /* \"#utility.yul\":15037:15046   */\n      dup4\n        /* \"#utility.yul\":15033:15050   */\n      add\n        /* \"#utility.yul\":15026:15073   */\n      mstore\n        /* \"#utility.yul\":15090:15221   */\n      tag_374\n        /* \"#utility.yul\":15216:15220   */\n      dup2\n        /* \"#utility.yul\":15090:15221   */\n      tag_218\n      jump\t// in\n    tag_374:\n        /* \"#utility.yul\":15082:15221   */\n      swap1\n      pop\n        /* \"#utility.yul\":14809:15228   */\n      swap2\n      swap1\n      pop\n      jump\t// out\n\n    auxdata: 0xa2646970667358221220fe242464b4588dde329d2a43de28855d812e0871ecad038ea0ab023e77d0554264736f6c63430008090033\n}\n","bytecode":{"linkReferences":{},"object":"60806040523480156200001157600080fd5b5060405162001f3b38038062001f3b8339818101604052810190620000379190620004e4565b81600160006101000a81548173ffffffffffffffffffffffffffffffffffffffff021916908373ffffffffffffffffffffffffffffffffffffffff16021790555060006040518060a001604052808981526020018881526020018781526020018681526020018581525090508060026000820151816000019080519060200190620000c4929190620001f7565b50602082015181600101556040820151816002019080519060200190620000ed929190620001f7565b5060608201518160030190805190602001906200010c929190620001f7565b5060808201518160040190805190602001906200012b929190620001f7565b50905050816000806101000a81548173ffffffffffffffffffffffffffffffffffffffff021916908373ffffffffffffffffffffffffffffffffffffffff160217905550600160076000600160009054906101000a900473ffffffffffffffffffffffffffffffffffffffff1673ffffffffffffffffffffffffffffffffffffffff1673ffffffffffffffffffffffffffffffffffffffff16815260200190815260200160002060006101000a81548160ff021916908315150217905550505050505050505062000678565b828054620002059062000642565b90600052602060002090601f01602090048101928262000229576000855562000275565b82601f106200024457805160ff191683800117855562000275565b8280016001018555821562000275579182015b828111156200027457825182559160200191906001019062000257565b5b50905062000284919062000288565b5090565b5b80821115620002a357600081600090555060010162000289565b5090565b6000604051905090565b600080fd5b600080fd5b600080fd5b600080fd5b6000601f19601f8301169050919050565b7f4e487b7100000000000000000000000000000000000000000000000000000000600052604160045260246000fd5b6200031082620002c5565b810181811067ffffffffffffffff82111715620003325762000331620002d6565b5b80604052505050565b600062000347620002a7565b905062000355828262000305565b919050565b600067ffffffffffffffff821115620003785762000377620002d6565b5b6200038382620002c5565b9050602081019050919050565b60005b83811015620003b057808201518184015260208101905062000393565b83811115620003c0576000848401525b50505050565b6000620003dd620003d7846200035a565b6200033b565b905082815260208101848484011115620003fc57620003fb620002c0565b5b6200040984828562000390565b509392505050565b600082601f830112620004295762000428620002bb565b5b81516200043b848260208601620003c6565b91505092915050565b6000819050919050565b620004598162000444565b81146200046557600080fd5b50565b60008151905062000479816200044e565b92915050565b600073ffffffffffffffffffffffffffffffffffffffff82169050919050565b6000620004ac826200047f565b9050919050565b620004be816200049f565b8114620004ca57600080fd5b50565b600081519050620004de81620004b3565b92915050565b600080600080600080600060e0888a031215620005065762000505620002b1565b5b600088015167ffffffffffffffff811115620005275762000526620002b6565b5b620005358a828b0162000411565b9750506020620005488a828b0162000468565b965050604088015167ffffffffffffffff8111156200056c576200056b620002b6565b5b6200057a8a828b0162000411565b955050606088015167ffffffffffffffff8111156200059e576200059d620002b6565b5b620005ac8a828b0162000411565b945050608088015167ffffffffffffffff811115620005d057620005cf620002b6565b5b620005de8a828b0162000411565b93505060a0620005f18a828b01620004cd565b92505060c0620006048a828b01620004cd565b91505092959891949750929550565b7f4e487b7100000000000000000000000000000000000000000000000000000000600052602260045260246000fd5b600060028204905060018216806200065b57607f821691505b6020821081141562000672576200067162000613565b5b50919050565b6118b380620006886000396000f3fe608060405234801561001057600080fd5b50600436106100f55760003560e01c8063ac40c9a811610097578063f2cc975311610066578063f2cc97531461028d578063f2f4adae146102a9578063f85b1b30146102cb578063fe13b631146102fb576100f5565b8063ac40c9a814610217578063c83dd23114610235578063d8d204f814610253578063e7ce49a71461026f576100f5565b80632e0b5677116100d35780632e0b56771461016857806386969279146101985780639db4d4a0146101c9578063ac12a3c0146101f9576100f5565b80630be41bd8146100fa5780631dc1fdb6146101165780631f54e45c14610138575b600080fd5b610114600480360381019061010f91906110dd565b61032b565b005b61011e610386565b60405161012f9594939291906111bc565b60405180910390f35b610152600480360381019061014d9190611257565b6105ca565b60405161015f9190611284565b60405180910390f35b610182600480360381019061017d91906110dd565b610672565b60405161018f91906112c1565b60405180910390f35b6101b260048036038101906101ad9190611257565b610692565b6040516101c09291906112dc565b60405180910390f35b6101e360048036038101906101de9190611257565b61073e565b6040516101f091906112c1565b60405180910390f35b61020161075e565b60405161020e919061130c565b60405180910390f35b61021f610764565b60405161022c9190611336565b60405180910390f35b61023d61078a565b60405161024a9190611336565b60405180910390f35b61026d60048036038101906102689190611486565b6107ae565b005b610277610865565b604051610284919061130c565b60405180910390f35b6102a760048036038101906102a29190611571565b61086b565b005b6102b1610d12565b6040516102c29594939291906111bc565b60405180910390f35b6102e560048036038101906102e091906110dd565b610f75565b6040516102f291906112c1565b60405180910390f35b61031560048036038101906103109190611257565b610f95565b6040516103229190611336565b60405180910390f35b6001600760008373ffffffffffffffffffffffffffffffffffffffff1673ffffffffffffffffffffffffffffffffffffffff16815260200190815260200160002060006101000a81548160ff02191690831515021790555050565b6002806000018054610397906115fc565b80601f01602080910402602001604051908101604052809291908181526020018280546103c3906115fc565b80156104105780601f106103e557610100808354040283529160200191610410565b820191906000526020600020905b8154815290600101906020018083116103f357829003601f168201915b50505050509080600101549080600201805461042b906115fc565b80601f0160208091040260200160405190810160405280929190818152602001828054610457906115fc565b80156104a45780601f10610479576101008083540402835291602001916104a4565b820191906000526020600020905b81548152906001019060200180831161048757829003601f168201915b5050505050908060030180546104b9906115fc565b80601f01602080910402602001604051908101604052809291908181526020018280546104e5906115fc565b80156105325780601f1061050757610100808354040283529160200191610532565b820191906000526020600020905b81548152906001019060200180831161051557829003601f168201915b505050505090806004018054610547906115fc565b80601f0160208091040260200160405190810160405280929190818152602001828054610573906115fc565b80156105c05780601f10610595576101008083540402835291602001916105c0565b820191906000526020600020905b8154815290600101906020018083116105a357829003601f168201915b5050505050905085565b60606009600083815260200190815260200160002060000180546105ed906115fc565b80601f0160208091040260200160405190810160405280929190818152602001828054610619906115fc565b80156106665780601f1061063b57610100808354040283529160200191610666565b820191906000526020600020905b81548152906001019060200180831161064957829003601f168201915b50505050509050919050565b60076020528060005260406000206000915054906101000a900460ff1681565b60096020528060005260406000206000915090508060000180546106b5906115fc565b80601f01602080910402602001604051908101604052809291908181526020018280546106e1906115fc565b801561072e5780601f106107035761010080835404028352916020019161072e565b820191906000526020600020905b81548152906001019060200180831161071157829003601f168201915b5050505050908060010154905082565b600a6020528060005260406000206000915054906101000a900460ff1681565b60085481565b600160009054906101000a900473ffffffffffffffffffffffffffffffffffffffff1681565b60008054906101000a900473ffffffffffffffffffffffffffffffffffffffff1681565b60006040518060a0016040528087815260200186815260200185815260200184815260200183815250905080600260008201518160000190805190602001906107f8929190610fc8565b5060208201518160010155604082015181600201908051906020019061081f929190610fc8565b50606082015181600301908051906020019061083c929190610fc8565b506080820151816004019080519060200190610859929190610fc8565b50905050505050505050565b600c5481565b600060405180604001604052808481526020014281525090508060096000600854815260200190815260200160002060008201518160000190805190602001906108b6929190610fc8565b506020820151816001015590505060008060008054906101000a900473ffffffffffffffffffffffffffffffffffffffff1673ffffffffffffffffffffffffffffffffffffffff168460405160240161090f919061130c565b6040516020818303038152906040527f15fe62e6000000000000000000000000000000000000000000000000000000007bffffffffffffffffffffffffffffffffffffffffffffffffffffffff19166020820180517bffffffffffffffffffffffffffffffffffffffffffffffffffffffff83818316178352505050506040516109999190611675565b6000604051808303816000865af19150503d80600081146109d6576040519150601f19603f3d011682016040523d82523d6000602084013e6109db565b606091505b509150915081610a20576040517f08c379a0000000000000000000000000000000000000000000000000000000008152600401610a17906116d8565b60405180910390fd5b600081806020019051810190610a369190611736565b905060001515600d60008373ffffffffffffffffffffffffffffffffffffffff1673ffffffffffffffffffffffffffffffffffffffff16815260200190815260200160002060009054906101000a900460ff1615151415610b585780600b6000600c54815260200190815260200160002060006101000a81548173ffffffffffffffffffffffffffffffffffffffff021916908373ffffffffffffffffffffffffffffffffffffffff1602179055506001600c6000828254610af89190611792565b925050819055506001600d60008373ffffffffffffffffffffffffffffffffffffffff1673ffffffffffffffffffffffffffffffffffffffff16815260200190815260200160002060006101000a81548160ff0219169083151502179055505b7f61a7191fa43dd24da3681728a7fc2c57614cf4aa128b0530c974742cbbf07e2381604051610b879190611336565b60405180910390a160008173ffffffffffffffffffffffffffffffffffffffff16600854600160009054906101000a900473ffffffffffffffffffffffffffffffffffffffff16604051602401610bdf9291906117e8565b6040516020818303038152906040527f376f4e49000000000000000000000000000000000000000000000000000000007bffffffffffffffffffffffffffffffffffffffffffffffffffffffff19166020820180517bffffffffffffffffffffffffffffffffffffffffffffffffffffffff8381831617835250505050604051610c699190611675565b6000604051808303816000865af19150503d8060008114610ca6576040519150601f19603f3d011682016040523d82523d6000602084013e610cab565b606091505b50509050600160086000828254610cc29190611792565b9250508190555080610d09576040517f08c379a0000000000000000000000000000000000000000000000000000000008152600401610d009061185d565b60405180910390fd5b50505050505050565b60606000606080606060026000016002600101546002800160026003016002600401848054610d40906115fc565b80601f0160208091040260200160405190810160405280929190818152602001828054610d6c906115fc565b8015610db95780601f10610d8e57610100808354040283529160200191610db9565b820191906000526020600020905b815481529060010190602001808311610d9c57829003601f168201915b50505050509450828054610dcc906115fc565b80601f0160208091040260200160405190810160405280929190818152602001828054610df8906115fc565b8015610e455780601f10610e1a57610100808354040283529160200191610e45565b820191906000526020600020905b815481529060010190602001808311610e2857829003601f168201915b50505050509250818054610e58906115fc565b80601f0160208091040260200160405190810160405280929190818152602001828054610e84906115fc565b8015610ed15780601f10610ea657610100808354040283529160200191610ed1565b820191906000526020600020905b815481529060010190602001808311610eb457829003601f168201915b50505050509150808054610ee4906115fc565b80601f0160208091040260200160405190810160405280929190818152602001828054610f10906115fc565b8015610f5d5780601f10610f3257610100808354040283529160200191610f5d565b820191906000526020600020905b815481529060010190602001808311610f4057829003601f168201915b50505050509050945094509450945094509091929394565b600d6020528060005260406000206000915054906101000a900460ff1681565b600b6020528060005260406000206000915054906101000a900473ffffffffffffffffffffffffffffffffffffffff1681565b828054610fd4906115fc565b90600052602060002090601f016020900481019282610ff6576000855561103d565b82601f1061100f57805160ff191683800117855561103d565b8280016001018555821561103d579182015b8281111561103c578251825591602001919060010190611021565b5b50905061104a919061104e565b5090565b5b8082111561106757600081600090555060010161104f565b5090565b6000604051905090565b600080fd5b600080fd5b600073ffffffffffffffffffffffffffffffffffffffff82169050919050565b60006110aa8261107f565b9050919050565b6110ba8161109f565b81146110c557600080fd5b50565b6000813590506110d7816110b1565b92915050565b6000602082840312156110f3576110f2611075565b5b6000611101848285016110c8565b91505092915050565b600081519050919050565b600082825260208201905092915050565b60005b83811015611144578082015181840152602081019050611129565b83811115611153576000848401525b50505050565b6000601f19601f8301169050919050565b60006111758261110a565b61117f8185611115565b935061118f818560208601611126565b61119881611159565b840191505092915050565b6000819050919050565b6111b6816111a3565b82525050565b600060a08201905081810360008301526111d6818861116a565b90506111e560208301876111ad565b81810360408301526111f7818661116a565b9050818103606083015261120b818561116a565b9050818103608083015261121f818461116a565b90509695505050505050565b611234816111a3565b811461123f57600080fd5b50565b6000813590506112518161122b565b92915050565b60006020828403121561126d5761126c611075565b5b600061127b84828501611242565b91505092915050565b6000602082019050818103600083015261129e818461116a565b905092915050565b60008115159050919050565b6112bb816112a6565b82525050565b60006020820190506112d660008301846112b2565b92915050565b600060408201905081810360008301526112f6818561116a565b905061130560208301846111ad565b9392505050565b600060208201905061132160008301846111ad565b92915050565b6113308161109f565b82525050565b600060208201905061134b6000830184611327565b92915050565b600080fd5b600080fd5b7f4e487b7100000000000000000000000000000000000000000000000000000000600052604160045260246000fd5b61139382611159565b810181811067ffffffffffffffff821117156113b2576113b161135b565b5b80604052505050565b60006113c561106b565b90506113d1828261138a565b919050565b600067ffffffffffffffff8211156113f1576113f061135b565b5b6113fa82611159565b9050602081019050919050565b82818337600083830152505050565b6000611429611424846113d6565b6113bb565b90508281526020810184848401111561144557611444611356565b5b611450848285611407565b509392505050565b600082601f83011261146d5761146c611351565b5b813561147d848260208601611416565b91505092915050565b600080600080600060a086880312156114a2576114a1611075565b5b600086013567ffffffffffffffff8111156114c0576114bf61107a565b5b6114cc88828901611458565b95505060206114dd88828901611242565b945050604086013567ffffffffffffffff8111156114fe576114fd61107a565b5b61150a88828901611458565b935050606086013567ffffffffffffffff81111561152b5761152a61107a565b5b61153788828901611458565b925050608086013567ffffffffffffffff8111156115585761155761107a565b5b61156488828901611458565b9150509295509295909350565b6000806040838503121561158857611587611075565b5b600083013567ffffffffffffffff8111156115a6576115a561107a565b5b6115b285828601611458565b92505060206115c385828601611242565b9150509250929050565b7f4e487b7100000000000000000000000000000000000000000000000000000000600052602260045260246000fd5b6000600282049050600182168061161457607f821691505b60208210811415611628576116276115cd565b5b50919050565b600081519050919050565b600081905092915050565b600061164f8261162e565b6116598185611639565b9350611669818560208601611126565b80840191505092915050565b60006116818284611644565b915081905092915050565b7f736f6d65206572726f7231000000000000000000000000000000000000000000600082015250565b60006116c2600b83611115565b91506116cd8261168c565b602082019050919050565b600060208201905081810360008301526116f1816116b5565b9050919050565b60006117038261107f565b9050919050565b611713816116f8565b811461171e57600080fd5b50565b6000815190506117308161170a565b92915050565b60006020828403121561174c5761174b611075565b5b600061175a84828501611721565b91505092915050565b7f4e487b7100000000000000000000000000000000000000000000000000000000600052601160045260246000fd5b600061179d826111a3565b91506117a8836111a3565b9250827fffffffffffffffffffffffffffffffffffffffffffffffffffffffffffffffff038211156117dd576117dc611763565b5b828201905092915050565b60006040820190506117fd60008301856111ad565b61180a6020830184611327565b9392505050565b7f736f6d65206572726f7232000000000000000000000000000000000000000000600082015250565b6000611847600b83611115565b915061185282611811565b602082019050919050565b600060208201905081810360008301526118768161183a565b905091905056fea2646970667358221220fe242464b4588dde329d2a43de28855d812e0871ecad038ea0ab023e77d0554264736f6c63430008090033","opcodes":"PUSH1 0x80 PUSH1 0x40 MSTORE CALLVALUE DUP1 ISZERO PUSH3 0x11 JUMPI PUSH1 0x0 DUP1 REVERT JUMPDEST POP PUSH1 0x40 MLOAD PUSH3 0x1F3B CODESIZE SUB DUP1 PUSH3 0x1F3B DUP4 CODECOPY DUP2 DUP2 ADD PUSH1 0x40 MSTORE DUP2 ADD SWAP1 PUSH3 0x37 SWAP2 SWAP1 PUSH3 0x4E4 JUMP JUMPDEST DUP2 PUSH1 0x1 PUSH1 0x0 PUSH2 0x100 EXP DUP2 SLOAD DUP2 PUSH20 0xFFFFFFFFFFFFFFFFFFFFFFFFFFFFFFFFFFFFFFFF MUL NOT AND SWAP1 DUP4 PUSH20 0xFFFFFFFFFFFFFFFFFFFFFFFFFFFFFFFFFFFFFFFF AND MUL OR SWAP1 SSTORE POP PUSH1 0x0 PUSH1 0x40 MLOAD DUP1 PUSH1 0xA0 ADD PUSH1 0x40 MSTORE DUP1 DUP10 DUP2 MSTORE PUSH1 0x20 ADD DUP9 DUP2 MSTORE PUSH1 0x20 ADD DUP8 DUP2 MSTORE PUSH1 0x20 ADD DUP7 DUP2 MSTORE PUSH1 0x20 ADD DUP6 DUP2 MSTORE POP SWAP1 POP DUP1 PUSH1 0x2 PUSH1 0x0 DUP3 ADD MLOAD DUP2 PUSH1 0x0 ADD SWAP1 DUP1 MLOAD SWAP1 PUSH1 0x20 ADD SWAP1 PUSH3 0xC4 SWAP3 SWAP2 SWAP1 PUSH3 0x1F7 JUMP JUMPDEST POP PUSH1 0x20 DUP3 ADD MLOAD DUP2 PUSH1 0x1 ADD SSTORE PUSH1 0x40 DUP3 ADD MLOAD DUP2 PUSH1 0x2 ADD SWAP1 DUP1 MLOAD SWAP1 PUSH1 0x20 ADD SWAP1 PUSH3 0xED SWAP3 SWAP2 SWAP1 PUSH3 0x1F7 JUMP JUMPDEST POP PUSH1 0x60 DUP3 ADD MLOAD DUP2 PUSH1 0x3 ADD SWAP1 DUP1 MLOAD SWAP1 PUSH1 0x20 ADD SWAP1 PUSH3 0x10C SWAP3 SWAP2 SWAP1 PUSH3 0x1F7 JUMP JUMPDEST POP PUSH1 0x80 DUP3 ADD MLOAD DUP2 PUSH1 0x4 ADD SWAP1 DUP1 MLOAD SWAP1 PUSH1 0x20 ADD SWAP1 PUSH3 0x12B SWAP3 SWAP2 SWAP1 PUSH3 0x1F7 JUMP JUMPDEST POP SWAP1 POP POP DUP2 PUSH1 0x0 DUP1 PUSH2 0x100 EXP DUP2 SLOAD DUP2 PUSH20 0xFFFFFFFFFFFFFFFFFFFFFFFFFFFFFFFFFFFFFFFF MUL NOT AND SWAP1 DUP4 PUSH20 0xFFFFFFFFFFFFFFFFFFFFFFFFFFFFFFFFFFFFFFFF AND MUL OR SWAP1 SSTORE POP PUSH1 0x1 PUSH1 0x7 PUSH1 0x0 PUSH1 0x1 PUSH1 0x0 SWAP1 SLOAD SWAP1 PUSH2 0x100 EXP SWAP1 DIV PUSH20 0xFFFFFFFFFFFFFFFFFFFFFFFFFFFFFFFFFFFFFFFF AND PUSH20 0xFFFFFFFFFFFFFFFFFFFFFFFFFFFFFFFFFFFFFFFF AND PUSH20 0xFFFFFFFFFFFFFFFFFFFFFFFFFFFFFFFFFFFFFFFF AND DUP2 MSTORE PUSH1 0x20 ADD SWAP1 DUP2 MSTORE PUSH1 0x20 ADD PUSH1 0x0 KECCAK256 PUSH1 0x0 PUSH2 0x100 EXP DUP2 SLOAD DUP2 PUSH1 0xFF MUL NOT AND SWAP1 DUP4 ISZERO ISZERO MUL OR SWAP1 SSTORE POP POP POP POP POP POP POP POP POP PUSH3 0x678 JUMP JUMPDEST DUP3 DUP1 SLOAD PUSH3 0x205 SWAP1 PUSH3 0x642 JUMP JUMPDEST SWAP1 PUSH1 0x0 MSTORE PUSH1 0x20 PUSH1 0x0 KECCAK256 SWAP1 PUSH1 0x1F ADD PUSH1 0x20 SWAP1 DIV DUP2 ADD SWAP3 DUP3 PUSH3 0x229 JUMPI PUSH1 0x0 DUP6 SSTORE PUSH3 0x275 JUMP JUMPDEST DUP3 PUSH1 0x1F LT PUSH3 0x244 JUMPI DUP1 MLOAD PUSH1 0xFF NOT AND DUP4 DUP1 ADD OR DUP6 SSTORE PUSH3 0x275 JUMP JUMPDEST DUP3 DUP1 ADD PUSH1 0x1 ADD DUP6 SSTORE DUP3 ISZERO PUSH3 0x275 JUMPI SWAP2 DUP3 ADD JUMPDEST DUP3 DUP2 GT ISZERO PUSH3 0x274 JUMPI DUP3 MLOAD DUP3 SSTORE SWAP2 PUSH1 0x20 ADD SWAP2 SWAP1 PUSH1 0x1 ADD SWAP1 PUSH3 0x257 JUMP JUMPDEST JUMPDEST POP SWAP1 POP PUSH3 0x284 SWAP2 SWAP1 PUSH3 0x288 JUMP JUMPDEST POP SWAP1 JUMP JUMPDEST JUMPDEST DUP1 DUP3 GT ISZERO PUSH3 0x2A3 JUMPI PUSH1 0x0 DUP2 PUSH1 0x0 SWAP1 SSTORE POP PUSH1 0x1 ADD PUSH3 0x289 JUMP JUMPDEST POP SWAP1 JUMP JUMPDEST PUSH1 0x0 PUSH1 0x40 MLOAD SWAP1 POP SWAP1 JUMP JUMPDEST PUSH1 0x0 DUP1 REVERT JUMPDEST PUSH1 0x0 DUP1 REVERT JUMPDEST PUSH1 0x0 DUP1 REVERT JUMPDEST PUSH1 0x0 DUP1 REVERT JUMPDEST PUSH1 0x0 PUSH1 0x1F NOT PUSH1 0x1F DUP4 ADD AND SWAP1 POP SWAP2 SWAP1 POP JUMP JUMPDEST PUSH32 0x4E487B7100000000000000000000000000000000000000000000000000000000 PUSH1 0x0 MSTORE PUSH1 0x41 PUSH1 0x4 MSTORE PUSH1 0x24 PUSH1 0x0 REVERT JUMPDEST PUSH3 0x310 DUP3 PUSH3 0x2C5 JUMP JUMPDEST DUP2 ADD DUP2 DUP2 LT PUSH8 0xFFFFFFFFFFFFFFFF DUP3 GT OR ISZERO PUSH3 0x332 JUMPI PUSH3 0x331 PUSH3 0x2D6 JUMP JUMPDEST JUMPDEST DUP1 PUSH1 0x40 MSTORE POP POP POP JUMP JUMPDEST PUSH1 0x0 PUSH3 0x347 PUSH3 0x2A7 JUMP JUMPDEST SWAP1 POP PUSH3 0x355 DUP3 DUP3 PUSH3 0x305 JUMP JUMPDEST SWAP2 SWAP1 POP JUMP JUMPDEST PUSH1 0x0 PUSH8 0xFFFFFFFFFFFFFFFF DUP3 GT ISZERO PUSH3 0x378 JUMPI PUSH3 0x377 PUSH3 0x2D6 JUMP JUMPDEST JUMPDEST PUSH3 0x383 DUP3 PUSH3 0x2C5 JUMP JUMPDEST SWAP1 POP PUSH1 0x20 DUP2 ADD SWAP1 POP SWAP2 SWAP1 POP JUMP JUMPDEST PUSH1 0x0 JUMPDEST DUP4 DUP2 LT ISZERO PUSH3 0x3B0 JUMPI DUP1 DUP3 ADD MLOAD DUP2 DUP5 ADD MSTORE PUSH1 0x20 DUP2 ADD SWAP1 POP PUSH3 0x393 JUMP JUMPDEST DUP4 DUP2 GT ISZERO PUSH3 0x3C0 JUMPI PUSH1 0x0 DUP5 DUP5 ADD MSTORE JUMPDEST POP POP POP POP JUMP JUMPDEST PUSH1 0x0 PUSH3 0x3DD PUSH3 0x3D7 DUP5 PUSH3 0x35A JUMP JUMPDEST PUSH3 0x33B JUMP JUMPDEST SWAP1 POP DUP3 DUP2 MSTORE PUSH1 0x20 DUP2 ADD DUP5 DUP5 DUP5 ADD GT ISZERO PUSH3 0x3FC JUMPI PUSH3 0x3FB PUSH3 0x2C0 JUMP JUMPDEST JUMPDEST PUSH3 0x409 DUP5 DUP3 DUP6 PUSH3 0x390 JUMP JUMPDEST POP SWAP4 SWAP3 POP POP POP JUMP JUMPDEST PUSH1 0x0 DUP3 PUSH1 0x1F DUP4 ADD SLT PUSH3 0x429 JUMPI PUSH3 0x428 PUSH3 0x2BB JUMP JUMPDEST JUMPDEST DUP2 MLOAD PUSH3 0x43B DUP5 DUP3 PUSH1 0x20 DUP7 ADD PUSH3 0x3C6 JUMP JUMPDEST SWAP2 POP POP SWAP3 SWAP2 POP POP JUMP JUMPDEST PUSH1 0x0 DUP2 SWAP1 POP SWAP2 SWAP1 POP JUMP JUMPDEST PUSH3 0x459 DUP2 PUSH3 0x444 JUMP JUMPDEST DUP2 EQ PUSH3 0x465 JUMPI PUSH1 0x0 DUP1 REVERT JUMPDEST POP JUMP JUMPDEST PUSH1 0x0 DUP2 MLOAD SWAP1 POP PUSH3 0x479 DUP2 PUSH3 0x44E JUMP JUMPDEST SWAP3 SWAP2 POP POP JUMP JUMPDEST PUSH1 0x0 PUSH20 0xFFFFFFFFFFFFFFFFFFFFFFFFFFFFFFFFFFFFFFFF DUP3 AND SWAP1 POP SWAP2 SWAP1 POP JUMP JUMPDEST PUSH1 0x0 PUSH3 0x4AC DUP3 PUSH3 0x47F JUMP JUMPDEST SWAP1 POP SWAP2 SWAP1 POP JUMP JUMPDEST PUSH3 0x4BE DUP2 PUSH3 0x49F JUMP JUMPDEST DUP2 EQ PUSH3 0x4CA JUMPI PUSH1 0x0 DUP1 REVERT JUMPDEST POP JUMP JUMPDEST PUSH1 0x0 DUP2 MLOAD SWAP1 POP PUSH3 0x4DE DUP2 PUSH3 0x4B3 JUMP JUMPDEST SWAP3 SWAP2 POP POP JUMP JUMPDEST PUSH1 0x0 DUP1 PUSH1 0x0 DUP1 PUSH1 0x0 DUP1 PUSH1 0x0 PUSH1 0xE0 DUP9 DUP11 SUB SLT ISZERO PUSH3 0x506 JUMPI PUSH3 0x505 PUSH3 0x2B1 JUMP JUMPDEST JUMPDEST PUSH1 0x0 DUP9 ADD MLOAD PUSH8 0xFFFFFFFFFFFFFFFF DUP2 GT ISZERO PUSH3 0x527 JUMPI PUSH3 0x526 PUSH3 0x2B6 JUMP JUMPDEST JUMPDEST PUSH3 0x535 DUP11 DUP3 DUP12 ADD PUSH3 0x411 JUMP JUMPDEST SWAP8 POP POP PUSH1 0x20 PUSH3 0x548 DUP11 DUP3 DUP12 ADD PUSH3 0x468 JUMP JUMPDEST SWAP7 POP POP PUSH1 0x40 DUP9 ADD MLOAD PUSH8 0xFFFFFFFFFFFFFFFF DUP2 GT ISZERO PUSH3 0x56C JUMPI PUSH3 0x56B PUSH3 0x2B6 JUMP JUMPDEST JUMPDEST PUSH3 0x57A DUP11 DUP3 DUP12 ADD PUSH3 0x411 JUMP JUMPDEST SWAP6 POP POP PUSH1 0x60 DUP9 ADD MLOAD PUSH8 0xFFFFFFFFFFFFFFFF DUP2 GT ISZERO PUSH3 0x59E JUMPI PUSH3 0x59D PUSH3 0x2B6 JUMP JUMPDEST JUMPDEST PUSH3 0x5AC DUP11 DUP3 DUP12 ADD PUSH3 0x411 JUMP JUMPDEST SWAP5 POP POP PUSH1 0x80 DUP9 ADD MLOAD PUSH8 0xFFFFFFFFFFFFFFFF DUP2 GT ISZERO PUSH3 0x5D0 JUMPI PUSH3 0x5CF PUSH3 0x2B6 JUMP JUMPDEST JUMPDEST PUSH3 0x5DE DUP11 DUP3 DUP12 ADD PUSH3 0x411 JUMP JUMPDEST SWAP4 POP POP PUSH1 0xA0 PUSH3 0x5F1 DUP11 DUP3 DUP12 ADD PUSH3 0x4CD JUMP JUMPDEST SWAP3 POP POP PUSH1 0xC0 PUSH3 0x604 DUP11 DUP3 DUP12 ADD PUSH3 0x4CD JUMP JUMPDEST SWAP2 POP POP SWAP3 SWAP6 SWAP9 SWAP2 SWAP5 SWAP8 POP SWAP3 SWAP6 POP JUMP JUMPDEST PUSH32 0x4E487B7100000000000000000000000000000000000000000000000000000000 PUSH1 0x0 MSTORE PUSH1 0x22 PUSH1 0x4 MSTORE PUSH1 0x24 PUSH1 0x0 REVERT JUMPDEST PUSH1 0x0 PUSH1 0x2 DUP3 DIV SWAP1 POP PUSH1 0x1 DUP3 AND DUP1 PUSH3 0x65B JUMPI PUSH1 0x7F DUP3 AND SWAP2 POP JUMPDEST PUSH1 0x20 DUP3 LT DUP2 EQ ISZERO PUSH3 0x672 JUMPI PUSH3 0x671 PUSH3 0x613 JUMP JUMPDEST JUMPDEST POP SWAP2 SWAP1 POP JUMP JUMPDEST PUSH2 0x18B3 DUP1 PUSH3 0x688 PUSH1 0x0 CODECOPY PUSH1 0x0 RETURN INVALID PUSH1 0x80 PUSH1 0x40 MSTORE CALLVALUE DUP1 ISZERO PUSH2 0x10 JUMPI PUSH1 0x0 DUP1 REVERT JUMPDEST POP PUSH1 0x4 CALLDATASIZE LT PUSH2 0xF5 JUMPI PUSH1 0x0 CALLDATALOAD PUSH1 0xE0 SHR DUP1 PUSH4 0xAC40C9A8 GT PUSH2 0x97 JUMPI DUP1 PUSH4 0xF2CC9753 GT PUSH2 0x66 JUMPI DUP1 PUSH4 0xF2CC9753 EQ PUSH2 0x28D JUMPI DUP1 PUSH4 0xF2F4ADAE EQ PUSH2 0x2A9 JUMPI DUP1 PUSH4 0xF85B1B30 EQ PUSH2 0x2CB JUMPI DUP1 PUSH4 0xFE13B631 EQ PUSH2 0x2FB JUMPI PUSH2 0xF5 JUMP JUMPDEST DUP1 PUSH4 0xAC40C9A8 EQ PUSH2 0x217 JUMPI DUP1 PUSH4 0xC83DD231 EQ PUSH2 0x235 JUMPI DUP1 PUSH4 0xD8D204F8 EQ PUSH2 0x253 JUMPI DUP1 PUSH4 0xE7CE49A7 EQ PUSH2 0x26F JUMPI PUSH2 0xF5 JUMP JUMPDEST DUP1 PUSH4 0x2E0B5677 GT PUSH2 0xD3 JUMPI DUP1 PUSH4 0x2E0B5677 EQ PUSH2 0x168 JUMPI DUP1 PUSH4 0x86969279 EQ PUSH2 0x198 JUMPI DUP1 PUSH4 0x9DB4D4A0 EQ PUSH2 0x1C9 JUMPI DUP1 PUSH4 0xAC12A3C0 EQ PUSH2 0x1F9 JUMPI PUSH2 0xF5 JUMP JUMPDEST DUP1 PUSH4 0xBE41BD8 EQ PUSH2 0xFA JUMPI DUP1 PUSH4 0x1DC1FDB6 EQ PUSH2 0x116 JUMPI DUP1 PUSH4 0x1F54E45C EQ PUSH2 0x138 JUMPI JUMPDEST PUSH1 0x0 DUP1 REVERT JUMPDEST PUSH2 0x114 PUSH1 0x4 DUP1 CALLDATASIZE SUB DUP2 ADD SWAP1 PUSH2 0x10F SWAP2 SWAP1 PUSH2 0x10DD JUMP JUMPDEST PUSH2 0x32B JUMP JUMPDEST STOP JUMPDEST PUSH2 0x11E PUSH2 0x386 JUMP JUMPDEST PUSH1 0x40 MLOAD PUSH2 0x12F SWAP6 SWAP5 SWAP4 SWAP3 SWAP2 SWAP1 PUSH2 0x11BC JUMP JUMPDEST PUSH1 0x40 MLOAD DUP1 SWAP2 SUB SWAP1 RETURN JUMPDEST PUSH2 0x152 PUSH1 0x4 DUP1 CALLDATASIZE SUB DUP2 ADD SWAP1 PUSH2 0x14D SWAP2 SWAP1 PUSH2 0x1257 JUMP JUMPDEST PUSH2 0x5CA JUMP JUMPDEST PUSH1 0x40 MLOAD PUSH2 0x15F SWAP2 SWAP1 PUSH2 0x1284 JUMP JUMPDEST PUSH1 0x40 MLOAD DUP1 SWAP2 SUB SWAP1 RETURN JUMPDEST PUSH2 0x182 PUSH1 0x4 DUP1 CALLDATASIZE SUB DUP2 ADD SWAP1 PUSH2 0x17D SWAP2 SWAP1 PUSH2 0x10DD JUMP JUMPDEST PUSH2 0x672 JUMP JUMPDEST PUSH1 0x40 MLOAD PUSH2 0x18F SWAP2 SWAP1 PUSH2 0x12C1 JUMP JUMPDEST PUSH1 0x40 MLOAD DUP1 SWAP2 SUB SWAP1 RETURN JUMPDEST PUSH2 0x1B2 PUSH1 0x4 DUP1 CALLDATASIZE SUB DUP2 ADD SWAP1 PUSH2 0x1AD SWAP2 SWAP1 PUSH2 0x1257 JUMP JUMPDEST PUSH2 0x692 JUMP JUMPDEST PUSH1 0x40 MLOAD PUSH2 0x1C0 SWAP3 SWAP2 SWAP1 PUSH2 0x12DC JUMP JUMPDEST PUSH1 0x40 MLOAD DUP1 SWAP2 SUB SWAP1 RETURN JUMPDEST PUSH2 0x1E3 PUSH1 0x4 DUP1 CALLDATASIZE SUB DUP2 ADD SWAP1 PUSH2 0x1DE SWAP2 SWAP1 PUSH2 0x1257 JUMP JUMPDEST PUSH2 0x73E JUMP JUMPDEST PUSH1 0x40 MLOAD PUSH2 0x1F0 SWAP2 SWAP1 PUSH2 0x12C1 JUMP JUMPDEST PUSH1 0x40 MLOAD DUP1 SWAP2 SUB SWAP1 RETURN JUMPDEST PUSH2 0x201 PUSH2 0x75E JUMP JUMPDEST PUSH1 0x40 MLOAD PUSH2 0x20E SWAP2 SWAP1 PUSH2 0x130C JUMP JUMPDEST PUSH1 0x40 MLOAD DUP1 SWAP2 SUB SWAP1 RETURN JUMPDEST PUSH2 0x21F PUSH2 0x764 JUMP JUMPDEST PUSH1 0x40 MLOAD PUSH2 0x22C SWAP2 SWAP1 PUSH2 0x1336 JUMP JUMPDEST PUSH1 0x40 MLOAD DUP1 SWAP2 SUB SWAP1 RETURN JUMPDEST PUSH2 0x23D PUSH2 0x78A JUMP JUMPDEST PUSH1 0x40 MLOAD PUSH2 0x24A SWAP2 SWAP1 PUSH2 0x1336 JUMP JUMPDEST PUSH1 0x40 MLOAD DUP1 SWAP2 SUB SWAP1 RETURN JUMPDEST PUSH2 0x26D PUSH1 0x4 DUP1 CALLDATASIZE SUB DUP2 ADD SWAP1 PUSH2 0x268 SWAP2 SWAP1 PUSH2 0x1486 JUMP JUMPDEST PUSH2 0x7AE JUMP JUMPDEST STOP JUMPDEST PUSH2 0x277 PUSH2 0x865 JUMP JUMPDEST PUSH1 0x40 MLOAD PUSH2 0x284 SWAP2 SWAP1 PUSH2 0x130C JUMP JUMPDEST PUSH1 0x40 MLOAD DUP1 SWAP2 SUB SWAP1 RETURN JUMPDEST PUSH2 0x2A7 PUSH1 0x4 DUP1 CALLDATASIZE SUB DUP2 ADD SWAP1 PUSH2 0x2A2 SWAP2 SWAP1 PUSH2 0x1571 JUMP JUMPDEST PUSH2 0x86B JUMP JUMPDEST STOP JUMPDEST PUSH2 0x2B1 PUSH2 0xD12 JUMP JUMPDEST PUSH1 0x40 MLOAD PUSH2 0x2C2 SWAP6 SWAP5 SWAP4 SWAP3 SWAP2 SWAP1 PUSH2 0x11BC JUMP JUMPDEST PUSH1 0x40 MLOAD DUP1 SWAP2 SUB SWAP1 RETURN JUMPDEST PUSH2 0x2E5 PUSH1 0x4 DUP1 CALLDATASIZE SUB DUP2 ADD SWAP1 PUSH2 0x2E0 SWAP2 SWAP1 PUSH2 0x10DD JUMP JUMPDEST PUSH2 0xF75 JUMP JUMPDEST PUSH1 0x40 MLOAD PUSH2 0x2F2 SWAP2 SWAP1 PUSH2 0x12C1 JUMP JUMPDEST PUSH1 0x40 MLOAD DUP1 SWAP2 SUB SWAP1 RETURN JUMPDEST PUSH2 0x315 PUSH1 0x4 DUP1 CALLDATASIZE SUB DUP2 ADD SWAP1 PUSH2 0x310 SWAP2 SWAP1 PUSH2 0x1257 JUMP JUMPDEST PUSH2 0xF95 JUMP JUMPDEST PUSH1 0x40 MLOAD PUSH2 0x322 SWAP2 SWAP1 PUSH2 0x1336 JUMP JUMPDEST PUSH1 0x40 MLOAD DUP1 SWAP2 SUB SWAP1 RETURN JUMPDEST PUSH1 0x1 PUSH1 0x7 PUSH1 0x0 DUP4 PUSH20 0xFFFFFFFFFFFFFFFFFFFFFFFFFFFFFFFFFFFFFFFF AND PUSH20 0xFFFFFFFFFFFFFFFFFFFFFFFFFFFFFFFFFFFFFFFF AND DUP2 MSTORE PUSH1 0x20 ADD SWAP1 DUP2 MSTORE PUSH1 0x20 ADD PUSH1 0x0 KECCAK256 PUSH1 0x0 PUSH2 0x100 EXP DUP2 SLOAD DUP2 PUSH1 0xFF MUL NOT AND SWAP1 DUP4 ISZERO ISZERO MUL OR SWAP1 SSTORE POP POP JUMP JUMPDEST PUSH1 0x2 DUP1 PUSH1 0x0 ADD DUP1 SLOAD PUSH2 0x397 SWAP1 PUSH2 0x15FC JUMP JUMPDEST DUP1 PUSH1 0x1F ADD PUSH1 0x20 DUP1 SWAP2 DIV MUL PUSH1 0x20 ADD PUSH1 0x40 MLOAD SWAP1 DUP2 ADD PUSH1 0x40 MSTORE DUP1 SWAP3 SWAP2 SWAP1 DUP2 DUP2 MSTORE PUSH1 0x20 ADD DUP3 DUP1 SLOAD PUSH2 0x3C3 SWAP1 PUSH2 0x15FC JUMP JUMPDEST DUP1 ISZERO PUSH2 0x410 JUMPI DUP1 PUSH1 0x1F LT PUSH2 0x3E5 JUMPI PUSH2 0x100 DUP1 DUP4 SLOAD DIV MUL DUP4 MSTORE SWAP2 PUSH1 0x20 ADD SWAP2 PUSH2 0x410 JUMP JUMPDEST DUP3 ADD SWAP2 SWAP1 PUSH1 0x0 MSTORE PUSH1 0x20 PUSH1 0x0 KECCAK256 SWAP1 JUMPDEST DUP2 SLOAD DUP2 MSTORE SWAP1 PUSH1 0x1 ADD SWAP1 PUSH1 0x20 ADD DUP1 DUP4 GT PUSH2 0x3F3 JUMPI DUP3 SWAP1 SUB PUSH1 0x1F AND DUP3 ADD SWAP2 JUMPDEST POP POP POP POP POP SWAP1 DUP1 PUSH1 0x1 ADD SLOAD SWAP1 DUP1 PUSH1 0x2 ADD DUP1 SLOAD PUSH2 0x42B SWAP1 PUSH2 0x15FC JUMP JUMPDEST DUP1 PUSH1 0x1F ADD PUSH1 0x20 DUP1 SWAP2 DIV MUL PUSH1 0x20 ADD PUSH1 0x40 MLOAD SWAP1 DUP2 ADD PUSH1 0x40 MSTORE DUP1 SWAP3 SWAP2 SWAP1 DUP2 DUP2 MSTORE PUSH1 0x20 ADD DUP3 DUP1 SLOAD PUSH2 0x457 SWAP1 PUSH2 0x15FC JUMP JUMPDEST DUP1 ISZERO PUSH2 0x4A4 JUMPI DUP1 PUSH1 0x1F LT PUSH2 0x479 JUMPI PUSH2 0x100 DUP1 DUP4 SLOAD DIV MUL DUP4 MSTORE SWAP2 PUSH1 0x20 ADD SWAP2 PUSH2 0x4A4 JUMP JUMPDEST DUP3 ADD SWAP2 SWAP1 PUSH1 0x0 MSTORE PUSH1 0x20 PUSH1 0x0 KECCAK256 SWAP1 JUMPDEST DUP2 SLOAD DUP2 MSTORE SWAP1 PUSH1 0x1 ADD SWAP1 PUSH1 0x20 ADD DUP1 DUP4 GT PUSH2 0x487 JUMPI DUP3 SWAP1 SUB PUSH1 0x1F AND DUP3 ADD SWAP2 JUMPDEST POP POP POP POP POP SWAP1 DUP1 PUSH1 0x3 ADD DUP1 SLOAD PUSH2 0x4B9 SWAP1 PUSH2 0x15FC JUMP JUMPDEST DUP1 PUSH1 0x1F ADD PUSH1 0x20 DUP1 SWAP2 DIV MUL PUSH1 0x20 ADD PUSH1 0x40 MLOAD SWAP1 DUP2 ADD PUSH1 0x40 MSTORE DUP1 SWAP3 SWAP2 SWAP1 DUP2 DUP2 MSTORE PUSH1 0x20 ADD DUP3 DUP1 SLOAD PUSH2 0x4E5 SWAP1 PUSH2 0x15FC JUMP JUMPDEST DUP1 ISZERO PUSH2 0x532 JUMPI DUP1 PUSH1 0x1F LT PUSH2 0x507 JUMPI PUSH2 0x100 DUP1 DUP4 SLOAD DIV MUL DUP4 MSTORE SWAP2 PUSH1 0x20 ADD SWAP2 PUSH2 0x532 JUMP JUMPDEST DUP3 ADD SWAP2 SWAP1 PUSH1 0x0 MSTORE PUSH1 0x20 PUSH1 0x0 KECCAK256 SWAP1 JUMPDEST DUP2 SLOAD DUP2 MSTORE SWAP1 PUSH1 0x1 ADD SWAP1 PUSH1 0x20 ADD DUP1 DUP4 GT PUSH2 0x515 JUMPI DUP3 SWAP1 SUB PUSH1 0x1F AND DUP3 ADD SWAP2 JUMPDEST POP POP POP POP POP SWAP1 DUP1 PUSH1 0x4 ADD DUP1 SLOAD PUSH2 0x547 SWAP1 PUSH2 0x15FC JUMP JUMPDEST DUP1 PUSH1 0x1F ADD PUSH1 0x20 DUP1 SWAP2 DIV MUL PUSH1 0x20 ADD PUSH1 0x40 MLOAD SWAP1 DUP2 ADD PUSH1 0x40 MSTORE DUP1 SWAP3 SWAP2 SWAP1 DUP2 DUP2 MSTORE PUSH1 0x20 ADD DUP3 DUP1 SLOAD PUSH2 0x573 SWAP1 PUSH2 0x15FC JUMP JUMPDEST DUP1 ISZERO PUSH2 0x5C0 JUMPI DUP1 PUSH1 0x1F LT PUSH2 0x595 JUMPI PUSH2 0x100 DUP1 DUP4 SLOAD DIV MUL DUP4 MSTORE SWAP2 PUSH1 0x20 ADD SWAP2 PUSH2 0x5C0 JUMP JUMPDEST DUP3 ADD SWAP2 SWAP1 PUSH1 0x0 MSTORE PUSH1 0x20 PUSH1 0x0 KECCAK256 SWAP1 JUMPDEST DUP2 SLOAD DUP2 MSTORE SWAP1 PUSH1 0x1 ADD SWAP1 PUSH1 0x20 ADD DUP1 DUP4 GT PUSH2 0x5A3 JUMPI DUP3 SWAP1 SUB PUSH1 0x1F AND DUP3 ADD SWAP2 JUMPDEST POP POP POP POP POP SWAP1 POP DUP6 JUMP JUMPDEST PUSH1 0x60 PUSH1 0x9 PUSH1 0x0 DUP4 DUP2 MSTORE PUSH1 0x20 ADD SWAP1 DUP2 MSTORE PUSH1 0x20 ADD PUSH1 0x0 KECCAK256 PUSH1 0x0 ADD DUP1 SLOAD PUSH2 0x5ED SWAP1 PUSH2 0x15FC JUMP JUMPDEST DUP1 PUSH1 0x1F ADD PUSH1 0x20 DUP1 SWAP2 DIV MUL PUSH1 0x20 ADD PUSH1 0x40 MLOAD SWAP1 DUP2 ADD PUSH1 0x40 MSTORE DUP1 SWAP3 SWAP2 SWAP1 DUP2 DUP2 MSTORE PUSH1 0x20 ADD DUP3 DUP1 SLOAD PUSH2 0x619 SWAP1 PUSH2 0x15FC JUMP JUMPDEST DUP1 ISZERO PUSH2 0x666 JUMPI DUP1 PUSH1 0x1F LT PUSH2 0x63B JUMPI PUSH2 0x100 DUP1 DUP4 SLOAD DIV MUL DUP4 MSTORE SWAP2 PUSH1 0x20 ADD SWAP2 PUSH2 0x666 JUMP JUMPDEST DUP3 ADD SWAP2 SWAP1 PUSH1 0x0 MSTORE PUSH1 0x20 PUSH1 0x0 KECCAK256 SWAP1 JUMPDEST DUP2 SLOAD DUP2 MSTORE SWAP1 PUSH1 0x1 ADD SWAP1 PUSH1 0x20 ADD DUP1 DUP4 GT PUSH2 0x649 JUMPI DUP3 SWAP1 SUB PUSH1 0x1F AND DUP3 ADD SWAP2 JUMPDEST POP POP POP POP POP SWAP1 POP SWAP2 SWAP1 POP JUMP JUMPDEST PUSH1 0x7 PUSH1 0x20 MSTORE DUP1 PUSH1 0x0 MSTORE PUSH1 0x40 PUSH1 0x0 KECCAK256 PUSH1 0x0 SWAP2 POP SLOAD SWAP1 PUSH2 0x100 EXP SWAP1 DIV PUSH1 0xFF AND DUP2 JUMP JUMPDEST PUSH1 0x9 PUSH1 0x20 MSTORE DUP1 PUSH1 0x0 MSTORE PUSH1 0x40 PUSH1 0x0 KECCAK256 PUSH1 0x0 SWAP2 POP SWAP1 POP DUP1 PUSH1 0x0 ADD DUP1 SLOAD PUSH2 0x6B5 SWAP1 PUSH2 0x15FC JUMP JUMPDEST DUP1 PUSH1 0x1F ADD PUSH1 0x20 DUP1 SWAP2 DIV MUL PUSH1 0x20 ADD PUSH1 0x40 MLOAD SWAP1 DUP2 ADD PUSH1 0x40 MSTORE DUP1 SWAP3 SWAP2 SWAP1 DUP2 DUP2 MSTORE PUSH1 0x20 ADD DUP3 DUP1 SLOAD PUSH2 0x6E1 SWAP1 PUSH2 0x15FC JUMP JUMPDEST DUP1 ISZERO PUSH2 0x72E JUMPI DUP1 PUSH1 0x1F LT PUSH2 0x703 JUMPI PUSH2 0x100 DUP1 DUP4 SLOAD DIV MUL DUP4 MSTORE SWAP2 PUSH1 0x20 ADD SWAP2 PUSH2 0x72E JUMP JUMPDEST DUP3 ADD SWAP2 SWAP1 PUSH1 0x0 MSTORE PUSH1 0x20 PUSH1 0x0 KECCAK256 SWAP1 JUMPDEST DUP2 SLOAD DUP2 MSTORE SWAP1 PUSH1 0x1 ADD SWAP1 PUSH1 0x20 ADD DUP1 DUP4 GT PUSH2 0x711 JUMPI DUP3 SWAP1 SUB PUSH1 0x1F AND DUP3 ADD SWAP2 JUMPDEST POP POP POP POP POP SWAP1 DUP1 PUSH1 0x1 ADD SLOAD SWAP1 POP DUP3 JUMP JUMPDEST PUSH1 0xA PUSH1 0x20 MSTORE DUP1 PUSH1 0x0 MSTORE PUSH1 0x40 PUSH1 0x0 KECCAK256 PUSH1 0x0 SWAP2 POP SLOAD SWAP1 PUSH2 0x100 EXP SWAP1 DIV PUSH1 0xFF AND DUP2 JUMP JUMPDEST PUSH1 0x8 SLOAD DUP2 JUMP JUMPDEST PUSH1 0x1 PUSH1 0x0 SWAP1 SLOAD SWAP1 PUSH2 0x100 EXP SWAP1 DIV PUSH20 0xFFFFFFFFFFFFFFFFFFFFFFFFFFFFFFFFFFFFFFFF AND DUP2 JUMP JUMPDEST PUSH1 0x0 DUP1 SLOAD SWAP1 PUSH2 0x100 EXP SWAP1 DIV PUSH20 0xFFFFFFFFFFFFFFFFFFFFFFFFFFFFFFFFFFFFFFFF AND DUP2 JUMP JUMPDEST PUSH1 0x0 PUSH1 0x40 MLOAD DUP1 PUSH1 0xA0 ADD PUSH1 0x40 MSTORE DUP1 DUP8 DUP2 MSTORE PUSH1 0x20 ADD DUP7 DUP2 MSTORE PUSH1 0x20 ADD DUP6 DUP2 MSTORE PUSH1 0x20 ADD DUP5 DUP2 MSTORE PUSH1 0x20 ADD DUP4 DUP2 MSTORE POP SWAP1 POP DUP1 PUSH1 0x2 PUSH1 0x0 DUP3 ADD MLOAD DUP2 PUSH1 0x0 ADD SWAP1 DUP1 MLOAD SWAP1 PUSH1 0x20 ADD SWAP1 PUSH2 0x7F8 SWAP3 SWAP2 SWAP1 PUSH2 0xFC8 JUMP JUMPDEST POP PUSH1 0x20 DUP3 ADD MLOAD DUP2 PUSH1 0x1 ADD SSTORE PUSH1 0x40 DUP3 ADD MLOAD DUP2 PUSH1 0x2 ADD SWAP1 DUP1 MLOAD SWAP1 PUSH1 0x20 ADD SWAP1 PUSH2 0x81F SWAP3 SWAP2 SWAP1 PUSH2 0xFC8 JUMP JUMPDEST POP PUSH1 0x60 DUP3 ADD MLOAD DUP2 PUSH1 0x3 ADD SWAP1 DUP1 MLOAD SWAP1 PUSH1 0x20 ADD SWAP1 PUSH2 0x83C SWAP3 SWAP2 SWAP1 PUSH2 0xFC8 JUMP JUMPDEST POP PUSH1 0x80 DUP3 ADD MLOAD DUP2 PUSH1 0x4 ADD SWAP1 DUP1 MLOAD SWAP1 PUSH1 0x20 ADD SWAP1 PUSH2 0x859 SWAP3 SWAP2 SWAP1 PUSH2 0xFC8 JUMP JUMPDEST POP SWAP1 POP POP POP POP POP POP POP POP JUMP JUMPDEST PUSH1 0xC SLOAD DUP2 JUMP JUMPDEST PUSH1 0x0 PUSH1 0x40 MLOAD DUP1 PUSH1 0x40 ADD PUSH1 0x40 MSTORE DUP1 DUP5 DUP2 MSTORE PUSH1 0x20 ADD TIMESTAMP DUP2 MSTORE POP SWAP1 POP DUP1 PUSH1 0x9 PUSH1 0x0 PUSH1 0x8 SLOAD DUP2 MSTORE PUSH1 0x20 ADD SWAP1 DUP2 MSTORE PUSH1 0x20 ADD PUSH1 0x0 KECCAK256 PUSH1 0x0 DUP3 ADD MLOAD DUP2 PUSH1 0x0 ADD SWAP1 DUP1 MLOAD SWAP1 PUSH1 0x20 ADD SWAP1 PUSH2 0x8B6 SWAP3 SWAP2 SWAP1 PUSH2 0xFC8 JUMP JUMPDEST POP PUSH1 0x20 DUP3 ADD MLOAD DUP2 PUSH1 0x1 ADD SSTORE SWAP1 POP POP PUSH1 0x0 DUP1 PUSH1 0x0 DUP1 SLOAD SWAP1 PUSH2 0x100 EXP SWAP1 DIV PUSH20 0xFFFFFFFFFFFFFFFFFFFFFFFFFFFFFFFFFFFFFFFF AND PUSH20 0xFFFFFFFFFFFFFFFFFFFFFFFFFFFFFFFFFFFFFFFF AND DUP5 PUSH1 0x40 MLOAD PUSH1 0x24 ADD PUSH2 0x90F SWAP2 SWAP1 PUSH2 0x130C JUMP JUMPDEST PUSH1 0x40 MLOAD PUSH1 0x20 DUP2 DUP4 SUB SUB DUP2 MSTORE SWAP1 PUSH1 0x40 MSTORE PUSH32 0x15FE62E600000000000000000000000000000000000000000000000000000000 PUSH28 0xFFFFFFFFFFFFFFFFFFFFFFFFFFFFFFFFFFFFFFFFFFFFFFFFFFFFFFFF NOT AND PUSH1 0x20 DUP3 ADD DUP1 MLOAD PUSH28 0xFFFFFFFFFFFFFFFFFFFFFFFFFFFFFFFFFFFFFFFFFFFFFFFFFFFFFFFF DUP4 DUP2 DUP4 AND OR DUP4 MSTORE POP POP POP POP PUSH1 0x40 MLOAD PUSH2 0x999 SWAP2 SWAP1 PUSH2 0x1675 JUMP JUMPDEST PUSH1 0x0 PUSH1 0x40 MLOAD DUP1 DUP4 SUB DUP2 PUSH1 0x0 DUP7 GAS CALL SWAP2 POP POP RETURNDATASIZE DUP1 PUSH1 0x0 DUP2 EQ PUSH2 0x9D6 JUMPI PUSH1 0x40 MLOAD SWAP2 POP PUSH1 0x1F NOT PUSH1 0x3F RETURNDATASIZE ADD AND DUP3 ADD PUSH1 0x40 MSTORE RETURNDATASIZE DUP3 MSTORE RETURNDATASIZE PUSH1 0x0 PUSH1 0x20 DUP5 ADD RETURNDATACOPY PUSH2 0x9DB JUMP JUMPDEST PUSH1 0x60 SWAP2 POP JUMPDEST POP SWAP2 POP SWAP2 POP DUP2 PUSH2 0xA20 JUMPI PUSH1 0x40 MLOAD PUSH32 0x8C379A000000000000000000000000000000000000000000000000000000000 DUP2 MSTORE PUSH1 0x4 ADD PUSH2 0xA17 SWAP1 PUSH2 0x16D8 JUMP JUMPDEST PUSH1 0x40 MLOAD DUP1 SWAP2 SUB SWAP1 REVERT JUMPDEST PUSH1 0x0 DUP2 DUP1 PUSH1 0x20 ADD SWAP1 MLOAD DUP2 ADD SWAP1 PUSH2 0xA36 SWAP2 SWAP1 PUSH2 0x1736 JUMP JUMPDEST SWAP1 POP PUSH1 0x0 ISZERO ISZERO PUSH1 0xD PUSH1 0x0 DUP4 PUSH20 0xFFFFFFFFFFFFFFFFFFFFFFFFFFFFFFFFFFFFFFFF AND PUSH20 0xFFFFFFFFFFFFFFFFFFFFFFFFFFFFFFFFFFFFFFFF AND DUP2 MSTORE PUSH1 0x20 ADD SWAP1 DUP2 MSTORE PUSH1 0x20 ADD PUSH1 0x0 KECCAK256 PUSH1 0x0 SWAP1 SLOAD SWAP1 PUSH2 0x100 EXP SWAP1 DIV PUSH1 0xFF AND ISZERO ISZERO EQ ISZERO PUSH2 0xB58 JUMPI DUP1 PUSH1 0xB PUSH1 0x0 PUSH1 0xC SLOAD DUP2 MSTORE PUSH1 0x20 ADD SWAP1 DUP2 MSTORE PUSH1 0x20 ADD PUSH1 0x0 KECCAK256 PUSH1 0x0 PUSH2 0x100 EXP DUP2 SLOAD DUP2 PUSH20 0xFFFFFFFFFFFFFFFFFFFFFFFFFFFFFFFFFFFFFFFF MUL NOT AND SWAP1 DUP4 PUSH20 0xFFFFFFFFFFFFFFFFFFFFFFFFFFFFFFFFFFFFFFFF AND MUL OR SWAP1 SSTORE POP PUSH1 0x1 PUSH1 0xC PUSH1 0x0 DUP3 DUP3 SLOAD PUSH2 0xAF8 SWAP2 SWAP1 PUSH2 0x1792 JUMP JUMPDEST SWAP3 POP POP DUP2 SWAP1 SSTORE POP PUSH1 0x1 PUSH1 0xD PUSH1 0x0 DUP4 PUSH20 0xFFFFFFFFFFFFFFFFFFFFFFFFFFFFFFFFFFFFFFFF AND PUSH20 0xFFFFFFFFFFFFFFFFFFFFFFFFFFFFFFFFFFFFFFFF AND DUP2 MSTORE PUSH1 0x20 ADD SWAP1 DUP2 MSTORE PUSH1 0x20 ADD PUSH1 0x0 KECCAK256 PUSH1 0x0 PUSH2 0x100 EXP DUP2 SLOAD DUP2 PUSH1 0xFF MUL NOT AND SWAP1 DUP4 ISZERO ISZERO MUL OR SWAP1 SSTORE POP JUMPDEST PUSH32 0x61A7191FA43DD24DA3681728A7FC2C57614CF4AA128B0530C974742CBBF07E23 DUP2 PUSH1 0x40 MLOAD PUSH2 0xB87 SWAP2 SWAP1 PUSH2 0x1336 JUMP JUMPDEST PUSH1 0x40 MLOAD DUP1 SWAP2 SUB SWAP1 LOG1 PUSH1 0x0 DUP2 PUSH20 0xFFFFFFFFFFFFFFFFFFFFFFFFFFFFFFFFFFFFFFFF AND PUSH1 0x8 SLOAD PUSH1 0x1 PUSH1 0x0 SWAP1 SLOAD SWAP1 PUSH2 0x100 EXP SWAP1 DIV PUSH20 0xFFFFFFFFFFFFFFFFFFFFFFFFFFFFFFFFFFFFFFFF AND PUSH1 0x40 MLOAD PUSH1 0x24 ADD PUSH2 0xBDF SWAP3 SWAP2 SWAP1 PUSH2 0x17E8 JUMP JUMPDEST PUSH1 0x40 MLOAD PUSH1 0x20 DUP2 DUP4 SUB SUB DUP2 MSTORE SWAP1 PUSH1 0x40 MSTORE PUSH32 0x376F4E4900000000000000000000000000000000000000000000000000000000 PUSH28 0xFFFFFFFFFFFFFFFFFFFFFFFFFFFFFFFFFFFFFFFFFFFFFFFFFFFFFFFF NOT AND PUSH1 0x20 DUP3 ADD DUP1 MLOAD PUSH28 0xFFFFFFFFFFFFFFFFFFFFFFFFFFFFFFFFFFFFFFFFFFFFFFFFFFFFFFFF DUP4 DUP2 DUP4 AND OR DUP4 MSTORE POP POP POP POP PUSH1 0x40 MLOAD PUSH2 0xC69 SWAP2 SWAP1 PUSH2 0x1675 JUMP JUMPDEST PUSH1 0x0 PUSH1 0x40 MLOAD DUP1 DUP4 SUB DUP2 PUSH1 0x0 DUP7 GAS CALL SWAP2 POP POP RETURNDATASIZE DUP1 PUSH1 0x0 DUP2 EQ PUSH2 0xCA6 JUMPI PUSH1 0x40 MLOAD SWAP2 POP PUSH1 0x1F NOT PUSH1 0x3F RETURNDATASIZE ADD AND DUP3 ADD PUSH1 0x40 MSTORE RETURNDATASIZE DUP3 MSTORE RETURNDATASIZE PUSH1 0x0 PUSH1 0x20 DUP5 ADD RETURNDATACOPY PUSH2 0xCAB JUMP JUMPDEST PUSH1 0x60 SWAP2 POP JUMPDEST POP POP SWAP1 POP PUSH1 0x1 PUSH1 0x8 PUSH1 0x0 DUP3 DUP3 SLOAD PUSH2 0xCC2 SWAP2 SWAP1 PUSH2 0x1792 JUMP JUMPDEST SWAP3 POP POP DUP2 SWAP1 SSTORE POP DUP1 PUSH2 0xD09 JUMPI PUSH1 0x40 MLOAD PUSH32 0x8C379A000000000000000000000000000000000000000000000000000000000 DUP2 MSTORE PUSH1 0x4 ADD PUSH2 0xD00 SWAP1 PUSH2 0x185D JUMP JUMPDEST PUSH1 0x40 MLOAD DUP1 SWAP2 SUB SWAP1 REVERT JUMPDEST POP POP POP POP POP POP POP JUMP JUMPDEST PUSH1 0x60 PUSH1 0x0 PUSH1 0x60 DUP1 PUSH1 0x60 PUSH1 0x2 PUSH1 0x0 ADD PUSH1 0x2 PUSH1 0x1 ADD SLOAD PUSH1 0x2 DUP1 ADD PUSH1 0x2 PUSH1 0x3 ADD PUSH1 0x2 PUSH1 0x4 ADD DUP5 DUP1 SLOAD PUSH2 0xD40 SWAP1 PUSH2 0x15FC JUMP JUMPDEST DUP1 PUSH1 0x1F ADD PUSH1 0x20 DUP1 SWAP2 DIV MUL PUSH1 0x20 ADD PUSH1 0x40 MLOAD SWAP1 DUP2 ADD PUSH1 0x40 MSTORE DUP1 SWAP3 SWAP2 SWAP1 DUP2 DUP2 MSTORE PUSH1 0x20 ADD DUP3 DUP1 SLOAD PUSH2 0xD6C SWAP1 PUSH2 0x15FC JUMP JUMPDEST DUP1 ISZERO PUSH2 0xDB9 JUMPI DUP1 PUSH1 0x1F LT PUSH2 0xD8E JUMPI PUSH2 0x100 DUP1 DUP4 SLOAD DIV MUL DUP4 MSTORE SWAP2 PUSH1 0x20 ADD SWAP2 PUSH2 0xDB9 JUMP JUMPDEST DUP3 ADD SWAP2 SWAP1 PUSH1 0x0 MSTORE PUSH1 0x20 PUSH1 0x0 KECCAK256 SWAP1 JUMPDEST DUP2 SLOAD DUP2 MSTORE SWAP1 PUSH1 0x1 ADD SWAP1 PUSH1 0x20 ADD DUP1 DUP4 GT PUSH2 0xD9C JUMPI DUP3 SWAP1 SUB PUSH1 0x1F AND DUP3 ADD SWAP2 JUMPDEST POP POP POP POP POP SWAP5 POP DUP3 DUP1 SLOAD PUSH2 0xDCC SWAP1 PUSH2 0x15FC JUMP JUMPDEST DUP1 PUSH1 0x1F ADD PUSH1 0x20 DUP1 SWAP2 DIV MUL PUSH1 0x20 ADD PUSH1 0x40 MLOAD SWAP1 DUP2 ADD PUSH1 0x40 MSTORE DUP1 SWAP3 SWAP2 SWAP1 DUP2 DUP2 MSTORE PUSH1 0x20 ADD DUP3 DUP1 SLOAD PUSH2 0xDF8 SWAP1 PUSH2 0x15FC JUMP JUMPDEST DUP1 ISZERO PUSH2 0xE45 JUMPI DUP1 PUSH1 0x1F LT PUSH2 0xE1A JUMPI PUSH2 0x100 DUP1 DUP4 SLOAD DIV MUL DUP4 MSTORE SWAP2 PUSH1 0x20 ADD SWAP2 PUSH2 0xE45 JUMP JUMPDEST DUP3 ADD SWAP2 SWAP1 PUSH1 0x0 MSTORE PUSH1 0x20 PUSH1 0x0 KECCAK256 SWAP1 JUMPDEST DUP2 SLOAD DUP2 MSTORE SWAP1 PUSH1 0x1 ADD SWAP1 PUSH1 0x20 ADD DUP1 DUP4 GT PUSH2 0xE28 JUMPI DUP3 SWAP1 SUB PUSH1 0x1F AND DUP3 ADD SWAP2 JUMPDEST POP POP POP POP POP SWAP3 POP DUP2 DUP1 SLOAD PUSH2 0xE58 SWAP1 PUSH2 0x15FC JUMP JUMPDEST DUP1 PUSH1 0x1F ADD PUSH1 0x20 DUP1 SWAP2 DIV MUL PUSH1 0x20 ADD PUSH1 0x40 MLOAD SWAP1 DUP2 ADD PUSH1 0x40 MSTORE DUP1 SWAP3 SWAP2 SWAP1 DUP2 DUP2 MSTORE PUSH1 0x20 ADD DUP3 DUP1 SLOAD PUSH2 0xE84 SWAP1 PUSH2 0x15FC JUMP JUMPDEST DUP1 ISZERO PUSH2 0xED1 JUMPI DUP1 PUSH1 0x1F LT PUSH2 0xEA6 JUMPI PUSH2 0x100 DUP1 DUP4 SLOAD DIV MUL DUP4 MSTORE SWAP2 PUSH1 0x20 ADD SWAP2 PUSH2 0xED1 JUMP JUMPDEST DUP3 ADD SWAP2 SWAP1 PUSH1 0x0 MSTORE PUSH1 0x20 PUSH1 0x0 KECCAK256 SWAP1 JUMPDEST DUP2 SLOAD DUP2 MSTORE SWAP1 PUSH1 0x1 ADD SWAP1 PUSH1 0x20 ADD DUP1 DUP4 GT PUSH2 0xEB4 JUMPI DUP3 SWAP1 SUB PUSH1 0x1F AND DUP3 ADD SWAP2 JUMPDEST POP POP POP POP POP SWAP2 POP DUP1 DUP1 SLOAD PUSH2 0xEE4 SWAP1 PUSH2 0x15FC JUMP JUMPDEST DUP1 PUSH1 0x1F ADD PUSH1 0x20 DUP1 SWAP2 DIV MUL PUSH1 0x20 ADD PUSH1 0x40 MLOAD SWAP1 DUP2 ADD PUSH1 0x40 MSTORE DUP1 SWAP3 SWAP2 SWAP1 DUP2 DUP2 MSTORE PUSH1 0x20 ADD DUP3 DUP1 SLOAD PUSH2 0xF10 SWAP1 PUSH2 0x15FC JUMP JUMPDEST DUP1 ISZERO PUSH2 0xF5D JUMPI DUP1 PUSH1 0x1F LT PUSH2 0xF32 JUMPI PUSH2 0x100 DUP1 DUP4 SLOAD DIV MUL DUP4 MSTORE SWAP2 PUSH1 0x20 ADD SWAP2 PUSH2 0xF5D JUMP JUMPDEST DUP3 ADD SWAP2 SWAP1 PUSH1 0x0 MSTORE PUSH1 0x20 PUSH1 0x0 KECCAK256 SWAP1 JUMPDEST DUP2 SLOAD DUP2 MSTORE SWAP1 PUSH1 0x1 ADD SWAP1 PUSH1 0x20 ADD DUP1 DUP4 GT PUSH2 0xF40 JUMPI DUP3 SWAP1 SUB PUSH1 0x1F AND DUP3 ADD SWAP2 JUMPDEST POP POP POP POP POP SWAP1 POP SWAP5 POP SWAP5 POP SWAP5 POP SWAP5 POP SWAP5 POP SWAP1 SWAP2 SWAP3 SWAP4 SWAP5 JUMP JUMPDEST PUSH1 0xD PUSH1 0x20 MSTORE DUP1 PUSH1 0x0 MSTORE PUSH1 0x40 PUSH1 0x0 KECCAK256 PUSH1 0x0 SWAP2 POP SLOAD SWAP1 PUSH2 0x100 EXP SWAP1 DIV PUSH1 0xFF AND DUP2 JUMP JUMPDEST PUSH1 0xB PUSH1 0x20 MSTORE DUP1 PUSH1 0x0 MSTORE PUSH1 0x40 PUSH1 0x0 KECCAK256 PUSH1 0x0 SWAP2 POP SLOAD SWAP1 PUSH2 0x100 EXP SWAP1 DIV PUSH20 0xFFFFFFFFFFFFFFFFFFFFFFFFFFFFFFFFFFFFFFFF AND DUP2 JUMP JUMPDEST DUP3 DUP1 SLOAD PUSH2 0xFD4 SWAP1 PUSH2 0x15FC JUMP JUMPDEST SWAP1 PUSH1 0x0 MSTORE PUSH1 0x20 PUSH1 0x0 KECCAK256 SWAP1 PUSH1 0x1F ADD PUSH1 0x20 SWAP1 DIV DUP2 ADD SWAP3 DUP3 PUSH2 0xFF6 JUMPI PUSH1 0x0 DUP6 SSTORE PUSH2 0x103D JUMP JUMPDEST DUP3 PUSH1 0x1F LT PUSH2 0x100F JUMPI DUP1 MLOAD PUSH1 0xFF NOT AND DUP4 DUP1 ADD OR DUP6 SSTORE PUSH2 0x103D JUMP JUMPDEST DUP3 DUP1 ADD PUSH1 0x1 ADD DUP6 SSTORE DUP3 ISZERO PUSH2 0x103D JUMPI SWAP2 DUP3 ADD JUMPDEST DUP3 DUP2 GT ISZERO PUSH2 0x103C JUMPI DUP3 MLOAD DUP3 SSTORE SWAP2 PUSH1 0x20 ADD SWAP2 SWAP1 PUSH1 0x1 ADD SWAP1 PUSH2 0x1021 JUMP JUMPDEST JUMPDEST POP SWAP1 POP PUSH2 0x104A SWAP2 SWAP1 PUSH2 0x104E JUMP JUMPDEST POP SWAP1 JUMP JUMPDEST JUMPDEST DUP1 DUP3 GT ISZERO PUSH2 0x1067 JUMPI PUSH1 0x0 DUP2 PUSH1 0x0 SWAP1 SSTORE POP PUSH1 0x1 ADD PUSH2 0x104F JUMP JUMPDEST POP SWAP1 JUMP JUMPDEST PUSH1 0x0 PUSH1 0x40 MLOAD SWAP1 POP SWAP1 JUMP JUMPDEST PUSH1 0x0 DUP1 REVERT JUMPDEST PUSH1 0x0 DUP1 REVERT JUMPDEST PUSH1 0x0 PUSH20 0xFFFFFFFFFFFFFFFFFFFFFFFFFFFFFFFFFFFFFFFF DUP3 AND SWAP1 POP SWAP2 SWAP1 POP JUMP JUMPDEST PUSH1 0x0 PUSH2 0x10AA DUP3 PUSH2 0x107F JUMP JUMPDEST SWAP1 POP SWAP2 SWAP1 POP JUMP JUMPDEST PUSH2 0x10BA DUP2 PUSH2 0x109F JUMP JUMPDEST DUP2 EQ PUSH2 0x10C5 JUMPI PUSH1 0x0 DUP1 REVERT JUMPDEST POP JUMP JUMPDEST PUSH1 0x0 DUP2 CALLDATALOAD SWAP1 POP PUSH2 0x10D7 DUP2 PUSH2 0x10B1 JUMP JUMPDEST SWAP3 SWAP2 POP POP JUMP JUMPDEST PUSH1 0x0 PUSH1 0x20 DUP3 DUP5 SUB SLT ISZERO PUSH2 0x10F3 JUMPI PUSH2 0x10F2 PUSH2 0x1075 JUMP JUMPDEST JUMPDEST PUSH1 0x0 PUSH2 0x1101 DUP5 DUP3 DUP6 ADD PUSH2 0x10C8 JUMP JUMPDEST SWAP2 POP POP SWAP3 SWAP2 POP POP JUMP JUMPDEST PUSH1 0x0 DUP2 MLOAD SWAP1 POP SWAP2 SWAP1 POP JUMP JUMPDEST PUSH1 0x0 DUP3 DUP3 MSTORE PUSH1 0x20 DUP3 ADD SWAP1 POP SWAP3 SWAP2 POP POP JUMP JUMPDEST PUSH1 0x0 JUMPDEST DUP4 DUP2 LT ISZERO PUSH2 0x1144 JUMPI DUP1 DUP3 ADD MLOAD DUP2 DUP5 ADD MSTORE PUSH1 0x20 DUP2 ADD SWAP1 POP PUSH2 0x1129 JUMP JUMPDEST DUP4 DUP2 GT ISZERO PUSH2 0x1153 JUMPI PUSH1 0x0 DUP5 DUP5 ADD MSTORE JUMPDEST POP POP POP POP JUMP JUMPDEST PUSH1 0x0 PUSH1 0x1F NOT PUSH1 0x1F DUP4 ADD AND SWAP1 POP SWAP2 SWAP1 POP JUMP JUMPDEST PUSH1 0x0 PUSH2 0x1175 DUP3 PUSH2 0x110A JUMP JUMPDEST PUSH2 0x117F DUP2 DUP6 PUSH2 0x1115 JUMP JUMPDEST SWAP4 POP PUSH2 0x118F DUP2 DUP6 PUSH1 0x20 DUP7 ADD PUSH2 0x1126 JUMP JUMPDEST PUSH2 0x1198 DUP2 PUSH2 0x1159 JUMP JUMPDEST DUP5 ADD SWAP2 POP POP SWAP3 SWAP2 POP POP JUMP JUMPDEST PUSH1 0x0 DUP2 SWAP1 POP SWAP2 SWAP1 POP JUMP JUMPDEST PUSH2 0x11B6 DUP2 PUSH2 0x11A3 JUMP JUMPDEST DUP3 MSTORE POP POP JUMP JUMPDEST PUSH1 0x0 PUSH1 0xA0 DUP3 ADD SWAP1 POP DUP2 DUP2 SUB PUSH1 0x0 DUP4 ADD MSTORE PUSH2 0x11D6 DUP2 DUP9 PUSH2 0x116A JUMP JUMPDEST SWAP1 POP PUSH2 0x11E5 PUSH1 0x20 DUP4 ADD DUP8 PUSH2 0x11AD JUMP JUMPDEST DUP2 DUP2 SUB PUSH1 0x40 DUP4 ADD MSTORE PUSH2 0x11F7 DUP2 DUP7 PUSH2 0x116A JUMP JUMPDEST SWAP1 POP DUP2 DUP2 SUB PUSH1 0x60 DUP4 ADD MSTORE PUSH2 0x120B DUP2 DUP6 PUSH2 0x116A JUMP JUMPDEST SWAP1 POP DUP2 DUP2 SUB PUSH1 0x80 DUP4 ADD MSTORE PUSH2 0x121F DUP2 DUP5 PUSH2 0x116A JUMP JUMPDEST SWAP1 POP SWAP7 SWAP6 POP POP POP POP POP POP JUMP JUMPDEST PUSH2 0x1234 DUP2 PUSH2 0x11A3 JUMP JUMPDEST DUP2 EQ PUSH2 0x123F JUMPI PUSH1 0x0 DUP1 REVERT JUMPDEST POP JUMP JUMPDEST PUSH1 0x0 DUP2 CALLDATALOAD SWAP1 POP PUSH2 0x1251 DUP2 PUSH2 0x122B JUMP JUMPDEST SWAP3 SWAP2 POP POP JUMP JUMPDEST PUSH1 0x0 PUSH1 0x20 DUP3 DUP5 SUB SLT ISZERO PUSH2 0x126D JUMPI PUSH2 0x126C PUSH2 0x1075 JUMP JUMPDEST JUMPDEST PUSH1 0x0 PUSH2 0x127B DUP5 DUP3 DUP6 ADD PUSH2 0x1242 JUMP JUMPDEST SWAP2 POP POP SWAP3 SWAP2 POP POP JUMP JUMPDEST PUSH1 0x0 PUSH1 0x20 DUP3 ADD SWAP1 POP DUP2 DUP2 SUB PUSH1 0x0 DUP4 ADD MSTORE PUSH2 0x129E DUP2 DUP5 PUSH2 0x116A JUMP JUMPDEST SWAP1 POP SWAP3 SWAP2 POP POP JUMP JUMPDEST PUSH1 0x0 DUP2 ISZERO ISZERO SWAP1 POP SWAP2 SWAP1 POP JUMP JUMPDEST PUSH2 0x12BB DUP2 PUSH2 0x12A6 JUMP JUMPDEST DUP3 MSTORE POP POP JUMP JUMPDEST PUSH1 0x0 PUSH1 0x20 DUP3 ADD SWAP1 POP PUSH2 0x12D6 PUSH1 0x0 DUP4 ADD DUP5 PUSH2 0x12B2 JUMP JUMPDEST SWAP3 SWAP2 POP POP JUMP JUMPDEST PUSH1 0x0 PUSH1 0x40 DUP3 ADD SWAP1 POP DUP2 DUP2 SUB PUSH1 0x0 DUP4 ADD MSTORE PUSH2 0x12F6 DUP2 DUP6 PUSH2 0x116A JUMP JUMPDEST SWAP1 POP PUSH2 0x1305 PUSH1 0x20 DUP4 ADD DUP5 PUSH2 0x11AD JUMP JUMPDEST SWAP4 SWAP3 POP POP POP JUMP JUMPDEST PUSH1 0x0 PUSH1 0x20 DUP3 ADD SWAP1 POP PUSH2 0x1321 PUSH1 0x0 DUP4 ADD DUP5 PUSH2 0x11AD JUMP JUMPDEST SWAP3 SWAP2 POP POP JUMP JUMPDEST PUSH2 0x1330 DUP2 PUSH2 0x109F JUMP JUMPDEST DUP3 MSTORE POP POP JUMP JUMPDEST PUSH1 0x0 PUSH1 0x20 DUP3 ADD SWAP1 POP PUSH2 0x134B PUSH1 0x0 DUP4 ADD DUP5 PUSH2 0x1327 JUMP JUMPDEST SWAP3 SWAP2 POP POP JUMP JUMPDEST PUSH1 0x0 DUP1 REVERT JUMPDEST PUSH1 0x0 DUP1 REVERT JUMPDEST PUSH32 0x4E487B7100000000000000000000000000000000000000000000000000000000 PUSH1 0x0 MSTORE PUSH1 0x41 PUSH1 0x4 MSTORE PUSH1 0x24 PUSH1 0x0 REVERT JUMPDEST PUSH2 0x1393 DUP3 PUSH2 0x1159 JUMP JUMPDEST DUP2 ADD DUP2 DUP2 LT PUSH8 0xFFFFFFFFFFFFFFFF DUP3 GT OR ISZERO PUSH2 0x13B2 JUMPI PUSH2 0x13B1 PUSH2 0x135B JUMP JUMPDEST JUMPDEST DUP1 PUSH1 0x40 MSTORE POP POP POP JUMP JUMPDEST PUSH1 0x0 PUSH2 0x13C5 PUSH2 0x106B JUMP JUMPDEST SWAP1 POP PUSH2 0x13D1 DUP3 DUP3 PUSH2 0x138A JUMP JUMPDEST SWAP2 SWAP1 POP JUMP JUMPDEST PUSH1 0x0 PUSH8 0xFFFFFFFFFFFFFFFF DUP3 GT ISZERO PUSH2 0x13F1 JUMPI PUSH2 0x13F0 PUSH2 0x135B JUMP JUMPDEST JUMPDEST PUSH2 0x13FA DUP3 PUSH2 0x1159 JUMP JUMPDEST SWAP1 POP PUSH1 0x20 DUP2 ADD SWAP1 POP SWAP2 SWAP1 POP JUMP JUMPDEST DUP3 DUP2 DUP4 CALLDATACOPY PUSH1 0x0 DUP4 DUP4 ADD MSTORE POP POP POP JUMP JUMPDEST PUSH1 0x0 PUSH2 0x1429 PUSH2 0x1424 DUP5 PUSH2 0x13D6 JUMP JUMPDEST PUSH2 0x13BB JUMP JUMPDEST SWAP1 POP DUP3 DUP2 MSTORE PUSH1 0x20 DUP2 ADD DUP5 DUP5 DUP5 ADD GT ISZERO PUSH2 0x1445 JUMPI PUSH2 0x1444 PUSH2 0x1356 JUMP JUMPDEST JUMPDEST PUSH2 0x1450 DUP5 DUP3 DUP6 PUSH2 0x1407 JUMP JUMPDEST POP SWAP4 SWAP3 POP POP POP JUMP JUMPDEST PUSH1 0x0 DUP3 PUSH1 0x1F DUP4 ADD SLT PUSH2 0x146D JUMPI PUSH2 0x146C PUSH2 0x1351 JUMP JUMPDEST JUMPDEST DUP2 CALLDATALOAD PUSH2 0x147D DUP5 DUP3 PUSH1 0x20 DUP7 ADD PUSH2 0x1416 JUMP JUMPDEST SWAP2 POP POP SWAP3 SWAP2 POP POP JUMP JUMPDEST PUSH1 0x0 DUP1 PUSH1 0x0 DUP1 PUSH1 0x0 PUSH1 0xA0 DUP7 DUP9 SUB SLT ISZERO PUSH2 0x14A2 JUMPI PUSH2 0x14A1 PUSH2 0x1075 JUMP JUMPDEST JUMPDEST PUSH1 0x0 DUP7 ADD CALLDATALOAD PUSH8 0xFFFFFFFFFFFFFFFF DUP2 GT ISZERO PUSH2 0x14C0 JUMPI PUSH2 0x14BF PUSH2 0x107A JUMP JUMPDEST JUMPDEST PUSH2 0x14CC DUP9 DUP3 DUP10 ADD PUSH2 0x1458 JUMP JUMPDEST SWAP6 POP POP PUSH1 0x20 PUSH2 0x14DD DUP9 DUP3 DUP10 ADD PUSH2 0x1242 JUMP JUMPDEST SWAP5 POP POP PUSH1 0x40 DUP7 ADD CALLDATALOAD PUSH8 0xFFFFFFFFFFFFFFFF DUP2 GT ISZERO PUSH2 0x14FE JUMPI PUSH2 0x14FD PUSH2 0x107A JUMP JUMPDEST JUMPDEST PUSH2 0x150A DUP9 DUP3 DUP10 ADD PUSH2 0x1458 JUMP JUMPDEST SWAP4 POP POP PUSH1 0x60 DUP7 ADD CALLDATALOAD PUSH8 0xFFFFFFFFFFFFFFFF DUP2 GT ISZERO PUSH2 0x152B JUMPI PUSH2 0x152A PUSH2 0x107A JUMP JUMPDEST JUMPDEST PUSH2 0x1537 DUP9 DUP3 DUP10 ADD PUSH2 0x1458 JUMP JUMPDEST SWAP3 POP POP PUSH1 0x80 DUP7 ADD CALLDATALOAD PUSH8 0xFFFFFFFFFFFFFFFF DUP2 GT ISZERO PUSH2 0x1558 JUMPI PUSH2 0x1557 PUSH2 0x107A JUMP JUMPDEST JUMPDEST PUSH2 0x1564 DUP9 DUP3 DUP10 ADD PUSH2 0x1458 JUMP JUMPDEST SWAP2 POP POP SWAP3 SWAP6 POP SWAP3 SWAP6 SWAP1 SWAP4 POP JUMP JUMPDEST PUSH1 0x0 DUP1 PUSH1 0x40 DUP4 DUP6 SUB SLT ISZERO PUSH2 0x1588 JUMPI PUSH2 0x1587 PUSH2 0x1075 JUMP JUMPDEST JUMPDEST PUSH1 0x0 DUP4 ADD CALLDATALOAD PUSH8 0xFFFFFFFFFFFFFFFF DUP2 GT ISZERO PUSH2 0x15A6 JUMPI PUSH2 0x15A5 PUSH2 0x107A JUMP JUMPDEST JUMPDEST PUSH2 0x15B2 DUP6 DUP3 DUP7 ADD PUSH2 0x1458 JUMP JUMPDEST SWAP3 POP POP PUSH1 0x20 PUSH2 0x15C3 DUP6 DUP3 DUP7 ADD PUSH2 0x1242 JUMP JUMPDEST SWAP2 POP POP SWAP3 POP SWAP3 SWAP1 POP JUMP JUMPDEST PUSH32 0x4E487B7100000000000000000000000000000000000000000000000000000000 PUSH1 0x0 MSTORE PUSH1 0x22 PUSH1 0x4 MSTORE PUSH1 0x24 PUSH1 0x0 REVERT JUMPDEST PUSH1 0x0 PUSH1 0x2 DUP3 DIV SWAP1 POP PUSH1 0x1 DUP3 AND DUP1 PUSH2 0x1614 JUMPI PUSH1 0x7F DUP3 AND SWAP2 POP JUMPDEST PUSH1 0x20 DUP3 LT DUP2 EQ ISZERO PUSH2 0x1628 JUMPI PUSH2 0x1627 PUSH2 0x15CD JUMP JUMPDEST JUMPDEST POP SWAP2 SWAP1 POP JUMP JUMPDEST PUSH1 0x0 DUP2 MLOAD SWAP1 POP SWAP2 SWAP1 POP JUMP JUMPDEST PUSH1 0x0 DUP2 SWAP1 POP SWAP3 SWAP2 POP POP JUMP JUMPDEST PUSH1 0x0 PUSH2 0x164F DUP3 PUSH2 0x162E JUMP JUMPDEST PUSH2 0x1659 DUP2 DUP6 PUSH2 0x1639 JUMP JUMPDEST SWAP4 POP PUSH2 0x1669 DUP2 DUP6 PUSH1 0x20 DUP7 ADD PUSH2 0x1126 JUMP JUMPDEST DUP1 DUP5 ADD SWAP2 POP POP SWAP3 SWAP2 POP POP JUMP JUMPDEST PUSH1 0x0 PUSH2 0x1681 DUP3 DUP5 PUSH2 0x1644 JUMP JUMPDEST SWAP2 POP DUP2 SWAP1 POP SWAP3 SWAP2 POP POP JUMP JUMPDEST PUSH32 0x736F6D65206572726F7231000000000000000000000000000000000000000000 PUSH1 0x0 DUP3 ADD MSTORE POP JUMP JUMPDEST PUSH1 0x0 PUSH2 0x16C2 PUSH1 0xB DUP4 PUSH2 0x1115 JUMP JUMPDEST SWAP2 POP PUSH2 0x16CD DUP3 PUSH2 0x168C JUMP JUMPDEST PUSH1 0x20 DUP3 ADD SWAP1 POP SWAP2 SWAP1 POP JUMP JUMPDEST PUSH1 0x0 PUSH1 0x20 DUP3 ADD SWAP1 POP DUP2 DUP2 SUB PUSH1 0x0 DUP4 ADD MSTORE PUSH2 0x16F1 DUP2 PUSH2 0x16B5 JUMP JUMPDEST SWAP1 POP SWAP2 SWAP1 POP JUMP JUMPDEST PUSH1 0x0 PUSH2 0x1703 DUP3 PUSH2 0x107F JUMP JUMPDEST SWAP1 POP SWAP2 SWAP1 POP JUMP JUMPDEST PUSH2 0x1713 DUP2 PUSH2 0x16F8 JUMP JUMPDEST DUP2 EQ PUSH2 0x171E JUMPI PUSH1 0x0 DUP1 REVERT JUMPDEST POP JUMP JUMPDEST PUSH1 0x0 DUP2 MLOAD SWAP1 POP PUSH2 0x1730 DUP2 PUSH2 0x170A JUMP JUMPDEST SWAP3 SWAP2 POP POP JUMP JUMPDEST PUSH1 0x0 PUSH1 0x20 DUP3 DUP5 SUB SLT ISZERO PUSH2 0x174C JUMPI PUSH2 0x174B PUSH2 0x1075 JUMP JUMPDEST JUMPDEST PUSH1 0x0 PUSH2 0x175A DUP5 DUP3 DUP6 ADD PUSH2 0x1721 JUMP JUMPDEST SWAP2 POP POP SWAP3 SWAP2 POP POP JUMP JUMPDEST PUSH32 0x4E487B7100000000000000000000000000000000000000000000000000000000 PUSH1 0x0 MSTORE PUSH1 0x11 PUSH1 0x4 MSTORE PUSH1 0x24 PUSH1 0x0 REVERT JUMPDEST PUSH1 0x0 PUSH2 0x179D DUP3 PUSH2 0x11A3 JUMP JUMPDEST SWAP2 POP PUSH2 0x17A8 DUP4 PUSH2 0x11A3 JUMP JUMPDEST SWAP3 POP DUP3 PUSH32 0xFFFFFFFFFFFFFFFFFFFFFFFFFFFFFFFFFFFFFFFFFFFFFFFFFFFFFFFFFFFFFFFF SUB DUP3 GT ISZERO PUSH2 0x17DD JUMPI PUSH2 0x17DC PUSH2 0x1763 JUMP JUMPDEST JUMPDEST DUP3 DUP3 ADD SWAP1 POP SWAP3 SWAP2 POP POP JUMP JUMPDEST PUSH1 0x0 PUSH1 0x40 DUP3 ADD SWAP1 POP PUSH2 0x17FD PUSH1 0x0 DUP4 ADD DUP6 PUSH2 0x11AD JUMP JUMPDEST PUSH2 0x180A PUSH1 0x20 DUP4 ADD DUP5 PUSH2 0x1327 JUMP JUMPDEST SWAP4 SWAP3 POP POP POP JUMP JUMPDEST PUSH32 0x736F6D65206572726F7232000000000000000000000000000000000000000000 PUSH1 0x0 DUP3 ADD MSTORE POP JUMP JUMPDEST PUSH1 0x0 PUSH2 0x1847 PUSH1 0xB DUP4 PUSH2 0x1115 JUMP JUMPDEST SWAP2 POP PUSH2 0x1852 DUP3 PUSH2 0x1811 JUMP JUMPDEST PUSH1 0x20 DUP3 ADD SWAP1 POP SWAP2 SWAP1 POP JUMP JUMPDEST PUSH1 0x0 PUSH1 0x20 DUP3 ADD SWAP1 POP DUP2 DUP2 SUB PUSH1 0x0 DUP4 ADD MSTORE PUSH2 0x1876 DUP2 PUSH2 0x183A JUMP JUMPDEST SWAP1 POP SWAP2 SWAP1 POP JUMP INVALID LOG2 PUSH5 0x6970667358 0x22 SLT KECCAK256 INVALID 0x24 0x24 PUSH5 0xB4588DDE32 SWAP14 0x2A NUMBER 0xDE 0x28 DUP6 0x5D DUP2 0x2E ADDMOD PUSH18 0xECAD038EA0AB023E77D0554264736F6C6343 STOP ADDMOD MULMOD STOP CALLER "},"gasEstimates":{"creation":{"codeDepositCost":"1264600","executionCost":"infinite","totalCost":"infinite"},"external":{"Factory()":"2556","Patient()":"2537","allMedProf(uint256)":"2927","changePatientDetails(string,uint256,string,string,string)":"infinite","dataAccess(address)":"2868","docsCount()":"2518","getPatientDetails()":"infinite","getPatientDocs(uint256)":"infinite","insertPatientDocs(string,uint256)":"infinite","isValidated(uint256)":"2863","patientDetails()":"infinite","profCount()":"2518","profTrack(address)":"2911","provideAccess(address)":"24836","retriveDocs(uint256)":"infinite"}},"methodIdentifiers":{"Factory()":"c83dd231","Patient()":"ac40c9a8","allMedProf(uint256)":"fe13b631","changePatientDetails(string,uint256,string,string,string)":"d8d204f8","dataAccess(address)":"2e0b5677","docsCount()":"ac12a3c0","getPatientDetails()":"f2f4adae","getPatientDocs(uint256)":"1f54e45c","insertPatientDocs(string,uint256)":"f2cc9753","isValidated(uint256)":"9db4d4a0","patientDetails()":"1dc1fdb6","profCount()":"e7ce49a7","profTrack(address)":"f85b1b30","provideAccess(address)":"0be41bd8","retriveDocs(uint256)":"86969279"}},"storageLayout":{"storage":[{"astId":193,"contract":"factoryContract.sol:patientContract","label":"Factory","offset":0,"slot":"0","type":"t_address"},{"astId":195,"contract":"factoryContract.sol:patientContract","label":"Patient","offset":0,"slot":"1","type":"t_address"},{"astId":218,"contract":"factoryContract.sol:patientContract","label":"patientDetails","offset":0,"slot":"2","type":"t_struct(details)210_storage"},{"astId":222,"contract":"factoryContract.sol:patientContract","label":"dataAccess","offset":0,"slot":"7","type":"t_mapping(t_address,t_bool)"},{"astId":224,"contract":"factoryContract.sol:patientContract","label":"docsCount","offset":0,"slot":"8","type":"t_uint256"},{"astId":229,"contract":"factoryContract.sol:patientContract","label":"retriveDocs","offset":0,"slot":"9","type":"t_mapping(t_uint256,t_struct(patientDoc)215_storage)"},{"astId":233,"contract":"factoryContract.sol:patientContract","label":"isValidated","offset":0,"slot":"10","type":"t_mapping(t_uint256,t_bool)"},{"astId":237,"contract":"factoryContract.sol:patientContract","label":"allMedProf","offset":0,"slot":"11","type":"t_mapping(t_uint256,t_address)"},{"astId":239,"contract":"factoryContract.sol:patientContract","label":"profCount","offset":0,"slot":"12","type":"t_uint256"},{"astId":243,"contract":"factoryContract.sol:patientContract","label":"profTrack","offset":0,"slot":"13","type":"t_mapping(t_address,t_bool)"}],"types":{"t_address":{"encoding":"inplace","label":"address","numberOfBytes":"20"},"t_bool":{"encoding":"inplace","label":"bool","numberOfBytes":"1"},"t_mapping(t_address,t_bool)":{"encoding":"mapping","key":"t_address","label":"mapping(address => bool)","numberOfBytes":"32","value":"t_bool"},"t_mapping(t_uint256,t_address)":{"encoding":"mapping","key":"t_uint256","label":"mapping(uint256 => address)","numberOfBytes":"32","value":"t_address"},"t_mapping(t_uint256,t_bool)":{"encoding":"mapping","key":"t_uint256","label":"mapping(uint256 => bool)","numberOfBytes":"32","value":"t_bool"},"t_mapping(t_uint256,t_struct(patientDoc)215_storage)":{"encoding":"mapping","key":"t_uint256","label":"mapping(uint256 => struct patientContract.patientDoc)","numberOfBytes":"32","value":"t_struct(patientDoc)215_storage"},"t_string_storage":{"encoding":"bytes","label":"string","numberOfBytes":"32"},"t_struct(details)210_storage":{"encoding":"inplace","label":"struct patientContract.details","members":[{"astId":201,"contract":"factoryContract.sol:patientContract","label":"patientName","offset":0,"slot":"0","type":"t_string_storage"},{"astId":203,"contract":"factoryContract.sol:patientContract","label":"age","offset":0,"slot":"1","type":"t_uint256"},{"astId":205,"contract":"factoryContract.sol:patientContract","label":"birth","offset":0,"slot":"2","type":"t_string_storage"},{"astId":207,"contract":"factoryContract.sol:patientContract","label":"gender","offset":0,"slot":"3","type":"t_string_storage"},{"astId":209,"contract":"factoryContract.sol:patientContract","label":"phone","offset":0,"slot":"4","type":"t_string_storage"}],"numberOfBytes":"160"},"t_struct(patientDoc)215_storage":{"encoding":"inplace","label":"struct patientContract.patientDoc","members":[{"astId":212,"contract":"factoryContract.sol:patientContract","label":"doc","offset":0,"slot":"0","type":"t_string_storage"},{"astId":214,"contract":"factoryContract.sol:patientContract","label":"docTime","offset":0,"slot":"1","type":"t_uint256"}],"numberOfBytes":"64"},"t_uint256":{"encoding":"inplace","label":"uint256","numberOfBytes":"32"}}},"userdoc":{"kind":"user","methods":{},"version":1}}